{
  "contractName": "Accounts",
  "abi": [
    {
      "constant": true,
      "inputs": [],
      "name": "initialized",
      "outputs": [
        {
          "name": "",
          "type": "bool"
        }
      ],
      "payable": false,
      "stateMutability": "view",
      "type": "function"
    },
    {
      "constant": false,
      "inputs": [],
      "name": "renounceOwnership",
      "outputs": [],
      "payable": false,
      "stateMutability": "nonpayable",
      "type": "function"
    },
    {
      "constant": true,
      "inputs": [],
      "name": "registry",
      "outputs": [
        {
          "name": "",
          "type": "address"
        }
      ],
      "payable": false,
      "stateMutability": "view",
      "type": "function"
    },
    {
      "constant": true,
      "inputs": [],
      "name": "owner",
      "outputs": [
        {
          "name": "",
          "type": "address"
        }
      ],
      "payable": false,
      "stateMutability": "view",
      "type": "function"
    },
    {
      "constant": true,
      "inputs": [],
      "name": "isOwner",
      "outputs": [
        {
          "name": "",
          "type": "bool"
        }
      ],
      "payable": false,
      "stateMutability": "view",
      "type": "function"
    },
    {
      "constant": false,
      "inputs": [
        {
          "name": "registryAddress",
          "type": "address"
        }
      ],
      "name": "setRegistry",
      "outputs": [],
      "payable": false,
      "stateMutability": "nonpayable",
      "type": "function"
    },
    {
      "constant": true,
      "inputs": [
        {
          "name": "",
          "type": "address"
        }
      ],
      "name": "authorizedBy",
      "outputs": [
        {
          "name": "",
          "type": "address"
        }
      ],
      "payable": false,
      "stateMutability": "view",
      "type": "function"
    },
    {
      "constant": false,
      "inputs": [
        {
          "name": "newOwner",
          "type": "address"
        }
      ],
      "name": "transferOwnership",
      "outputs": [],
      "payable": false,
      "stateMutability": "nonpayable",
      "type": "function"
    },
    {
      "anonymous": false,
      "inputs": [
        {
          "indexed": true,
          "name": "account",
          "type": "address"
        },
        {
          "indexed": false,
          "name": "signer",
          "type": "address"
        }
      ],
      "name": "AttestationSignerAuthorized",
      "type": "event"
    },
    {
      "anonymous": false,
      "inputs": [
        {
          "indexed": true,
          "name": "account",
          "type": "address"
        },
        {
          "indexed": false,
          "name": "signer",
          "type": "address"
        }
      ],
      "name": "VoteSignerAuthorized",
      "type": "event"
    },
    {
      "anonymous": false,
      "inputs": [
        {
          "indexed": true,
          "name": "account",
          "type": "address"
        },
        {
          "indexed": false,
          "name": "signer",
          "type": "address"
        }
      ],
      "name": "ValidatorSignerAuthorized",
      "type": "event"
    },
    {
      "anonymous": false,
      "inputs": [
        {
          "indexed": true,
          "name": "account",
          "type": "address"
        },
        {
          "indexed": false,
          "name": "dataEncryptionKey",
          "type": "bytes"
        }
      ],
      "name": "AccountDataEncryptionKeySet",
      "type": "event"
    },
    {
      "anonymous": false,
      "inputs": [
        {
          "indexed": true,
          "name": "account",
          "type": "address"
        },
        {
          "indexed": false,
          "name": "name",
          "type": "string"
        }
      ],
      "name": "AccountNameSet",
      "type": "event"
    },
    {
      "anonymous": false,
      "inputs": [
        {
          "indexed": true,
          "name": "account",
          "type": "address"
        },
        {
          "indexed": false,
          "name": "metadataURL",
          "type": "string"
        }
      ],
      "name": "AccountMetadataURLSet",
      "type": "event"
    },
    {
      "anonymous": false,
      "inputs": [
        {
          "indexed": true,
          "name": "account",
          "type": "address"
        },
        {
          "indexed": false,
          "name": "walletAddress",
          "type": "address"
        }
      ],
      "name": "AccountWalletAddressSet",
      "type": "event"
    },
    {
      "anonymous": false,
      "inputs": [
        {
          "indexed": true,
          "name": "account",
          "type": "address"
        }
      ],
      "name": "AccountCreated",
      "type": "event"
    },
    {
      "anonymous": false,
      "inputs": [
        {
          "indexed": true,
          "name": "registryAddress",
          "type": "address"
        }
      ],
      "name": "RegistrySet",
      "type": "event"
    },
    {
      "anonymous": false,
      "inputs": [
        {
          "indexed": true,
          "name": "previousOwner",
          "type": "address"
        },
        {
          "indexed": true,
          "name": "newOwner",
          "type": "address"
        }
      ],
      "name": "OwnershipTransferred",
      "type": "event"
    },
    {
      "constant": false,
      "inputs": [
        {
          "name": "registryAddress",
          "type": "address"
        }
      ],
      "name": "initialize",
      "outputs": [],
      "payable": false,
      "stateMutability": "nonpayable",
      "type": "function"
    },
    {
      "constant": false,
      "inputs": [
        {
          "name": "name",
          "type": "string"
        },
        {
          "name": "dataEncryptionKey",
          "type": "bytes"
        },
        {
          "name": "walletAddress",
          "type": "address"
        }
      ],
      "name": "setAccount",
      "outputs": [],
      "payable": false,
      "stateMutability": "nonpayable",
      "type": "function"
    },
    {
      "constant": false,
      "inputs": [],
      "name": "createAccount",
      "outputs": [
        {
          "name": "",
          "type": "bool"
        }
      ],
      "payable": false,
      "stateMutability": "nonpayable",
      "type": "function"
    },
    {
      "constant": false,
      "inputs": [
        {
          "name": "name",
          "type": "string"
        }
      ],
      "name": "setName",
      "outputs": [],
      "payable": false,
      "stateMutability": "nonpayable",
      "type": "function"
    },
    {
      "constant": false,
      "inputs": [
        {
          "name": "walletAddress",
          "type": "address"
        }
      ],
      "name": "setWalletAddress",
      "outputs": [],
      "payable": false,
      "stateMutability": "nonpayable",
      "type": "function"
    },
    {
      "constant": false,
      "inputs": [
        {
          "name": "dataEncryptionKey",
          "type": "bytes"
        }
      ],
      "name": "setAccountDataEncryptionKey",
      "outputs": [],
      "payable": false,
      "stateMutability": "nonpayable",
      "type": "function"
    },
    {
      "constant": false,
      "inputs": [
        {
          "name": "metadataURL",
          "type": "string"
        }
      ],
      "name": "setMetadataURL",
      "outputs": [],
      "payable": false,
      "stateMutability": "nonpayable",
      "type": "function"
    },
    {
      "constant": false,
      "inputs": [
        {
          "name": "signer",
          "type": "address"
        },
        {
          "name": "v",
          "type": "uint8"
        },
        {
          "name": "r",
          "type": "bytes32"
        },
        {
          "name": "s",
          "type": "bytes32"
        }
      ],
      "name": "authorizeVoteSigner",
      "outputs": [],
      "payable": false,
      "stateMutability": "nonpayable",
      "type": "function"
    },
    {
      "constant": false,
      "inputs": [
        {
          "name": "signer",
          "type": "address"
        },
        {
          "name": "v",
          "type": "uint8"
        },
        {
          "name": "r",
          "type": "bytes32"
        },
        {
          "name": "s",
          "type": "bytes32"
        }
      ],
      "name": "authorizeValidatorSigner",
      "outputs": [],
      "payable": false,
      "stateMutability": "nonpayable",
      "type": "function"
    },
    {
      "constant": false,
      "inputs": [
        {
          "name": "signer",
          "type": "address"
        },
        {
          "name": "ecdsaPublicKey",
          "type": "bytes"
        },
        {
          "name": "v",
          "type": "uint8"
        },
        {
          "name": "r",
          "type": "bytes32"
        },
        {
          "name": "s",
          "type": "bytes32"
        }
      ],
      "name": "authorizeValidatorSigner",
      "outputs": [],
      "payable": false,
      "stateMutability": "nonpayable",
      "type": "function"
    },
    {
      "constant": false,
      "inputs": [
        {
          "name": "signer",
          "type": "address"
        },
        {
          "name": "v",
          "type": "uint8"
        },
        {
          "name": "r",
          "type": "bytes32"
        },
        {
          "name": "s",
          "type": "bytes32"
        }
      ],
      "name": "authorizeAttestationSigner",
      "outputs": [],
      "payable": false,
      "stateMutability": "nonpayable",
      "type": "function"
    },
    {
      "constant": true,
      "inputs": [
        {
          "name": "signer",
          "type": "address"
        }
      ],
      "name": "attestationSignerToAccount",
      "outputs": [
        {
          "name": "",
          "type": "address"
        }
      ],
      "payable": false,
      "stateMutability": "view",
      "type": "function"
    },
    {
      "constant": true,
      "inputs": [
        {
          "name": "signer",
          "type": "address"
        }
      ],
      "name": "validatorSignerToAccount",
      "outputs": [
        {
          "name": "",
          "type": "address"
        }
      ],
      "payable": false,
      "stateMutability": "view",
      "type": "function"
    },
    {
      "constant": true,
      "inputs": [
        {
          "name": "signer",
          "type": "address"
        }
      ],
      "name": "voteSignerToAccount",
      "outputs": [
        {
          "name": "",
          "type": "address"
        }
      ],
      "payable": false,
      "stateMutability": "view",
      "type": "function"
    },
    {
      "constant": true,
      "inputs": [
        {
          "name": "signer",
          "type": "address"
        }
      ],
      "name": "signerToAccount",
      "outputs": [
        {
          "name": "",
          "type": "address"
        }
      ],
      "payable": false,
      "stateMutability": "view",
      "type": "function"
    },
    {
      "constant": true,
      "inputs": [
        {
          "name": "account",
          "type": "address"
        }
      ],
      "name": "getVoteSigner",
      "outputs": [
        {
          "name": "",
          "type": "address"
        }
      ],
      "payable": false,
      "stateMutability": "view",
      "type": "function"
    },
    {
      "constant": true,
      "inputs": [
        {
          "name": "account",
          "type": "address"
        }
      ],
      "name": "getValidatorSigner",
      "outputs": [
        {
          "name": "",
          "type": "address"
        }
      ],
      "payable": false,
      "stateMutability": "view",
      "type": "function"
    },
    {
      "constant": true,
      "inputs": [
        {
          "name": "account",
          "type": "address"
        }
      ],
      "name": "getAttestationSigner",
      "outputs": [
        {
          "name": "",
          "type": "address"
        }
      ],
      "payable": false,
      "stateMutability": "view",
      "type": "function"
    },
    {
      "constant": true,
      "inputs": [
        {
          "name": "account",
          "type": "address"
        }
      ],
      "name": "getName",
      "outputs": [
        {
          "name": "",
          "type": "string"
        }
      ],
      "payable": false,
      "stateMutability": "view",
      "type": "function"
    },
    {
      "constant": true,
      "inputs": [
        {
          "name": "account",
          "type": "address"
        }
      ],
      "name": "getMetadataURL",
      "outputs": [
        {
          "name": "",
          "type": "string"
        }
      ],
      "payable": false,
      "stateMutability": "view",
      "type": "function"
    },
    {
      "constant": true,
      "inputs": [
        {
          "name": "accountsToQuery",
          "type": "address[]"
        }
      ],
      "name": "batchGetMetadataURL",
      "outputs": [
        {
          "name": "",
          "type": "uint256[]"
        },
        {
          "name": "",
          "type": "bytes"
        }
      ],
      "payable": false,
      "stateMutability": "view",
      "type": "function"
    },
    {
      "constant": true,
      "inputs": [
        {
          "name": "account",
          "type": "address"
        }
      ],
      "name": "getDataEncryptionKey",
      "outputs": [
        {
          "name": "",
          "type": "bytes"
        }
      ],
      "payable": false,
      "stateMutability": "view",
      "type": "function"
    },
    {
      "constant": true,
      "inputs": [
        {
          "name": "account",
          "type": "address"
        }
      ],
      "name": "getWalletAddress",
      "outputs": [
        {
          "name": "",
          "type": "address"
        }
      ],
      "payable": false,
      "stateMutability": "view",
      "type": "function"
    },
    {
      "constant": true,
      "inputs": [
        {
          "name": "account",
          "type": "address"
        }
      ],
      "name": "isAccount",
      "outputs": [
        {
          "name": "",
          "type": "bool"
        }
      ],
      "payable": false,
      "stateMutability": "view",
      "type": "function"
    },
    {
      "constant": true,
      "inputs": [
        {
          "name": "signer",
          "type": "address"
        }
      ],
      "name": "isAuthorizedSigner",
      "outputs": [
        {
          "name": "",
          "type": "bool"
        }
      ],
      "payable": false,
      "stateMutability": "view",
      "type": "function"
    }
  ],
  "bytecode": "0x6080604052336000806101000a81548173ffffffffffffffffffffffffffffffffffffffff021916908373ffffffffffffffffffffffffffffffffffffffff1602179055506000809054906101000a900473ffffffffffffffffffffffffffffffffffffffff1673ffffffffffffffffffffffffffffffffffffffff16600073ffffffffffffffffffffffffffffffffffffffff167f8be0079c531659141344cd1fd0a4f28419497f9722a3daafe3b4186f6b6457e060405160405180910390a36001808190555061360a806100d66000396000f3fe608060405234801561001057600080fd5b50600436106101fb5760003560e01c80637b1039991161011a578063a8ae1a3d116100ad578063b5a664c21161007c578063b5a664c214610f7b578063baf7ef0f14610fff578063c47f002714611064578063c4d66de81461111f578063f2fde38b14611163576101fb565b8063a8ae1a3d14610d79578063a91ee0dc14610e36578063ac1a386a14610e7a578063ae32fa0e14610ebe576101fb565b80638f32d59b116100e95780638f32d59b14610bc357806393c5c48714610be55780639dca362f14610c695780639f339bd014610c8b576101fb565b80637b103999146109715780637b2434cb146109bb5780638adaf96f14610a3f5780638da5cb5b14610b79576101fb565b80635fd4b08a11610192578063715018a611610161578063715018a6146107cf5780637367d82c146107d9578063747daec51461089357806376afa04c1461090c576101fb565b80635fd4b08a1461058657806361bab1ae1461064357806364439b43146106c75780636642d5941461074b576101fb565b806341ddd880116101ce57806341ddd880146103bd5780634282ee6d1461044157806349045e16146104a65780634ce38b5f14610502576101fb565b80630fe7abab14610200578063158ef93e146102bb5780631fd9afa5146102dd57806325ca4c9c14610361575b600080fd5b6102b96004803603602081101561021657600080fd5b810190808035906020019064010000000081111561023357600080fd5b82018360208201111561024557600080fd5b8035906020019184600183028401116401000000008311171561026757600080fd5b91908080601f016020809104026020016040519081016040528093929190818152602001838380828437600081840152601f19601f8201169050808301925050505050505091929192905050506111a7565b005b6102c361132c565b604051808215151515815260200191505060405180910390f35b61031f600480360360208110156102f357600080fd5b81019080803573ffffffffffffffffffffffffffffffffffffffff16906020019092919050505061133f565b604051808273ffffffffffffffffffffffffffffffffffffffff1673ffffffffffffffffffffffffffffffffffffffff16815260200191505060405180910390f35b6103a36004803603602081101561037757600080fd5b81019080803573ffffffffffffffffffffffffffffffffffffffff1690602001909291905050506113ab565b604051808215151515815260200191505060405180910390f35b6103ff600480360360208110156103d357600080fd5b81019080803573ffffffffffffffffffffffffffffffffffffffff169060200190929190505050611404565b604051808273ffffffffffffffffffffffffffffffffffffffff1673ffffffffffffffffffffffffffffffffffffffff16815260200191505060405180910390f35b6104a46004803603608081101561045757600080fd5b81019080803573ffffffffffffffffffffffffffffffffffffffff169060200190929190803560ff16906020019092919080359060200190929190803590602001909291905050506114c6565b005b6104e8600480360360208110156104bc57600080fd5b81019080803573ffffffffffffffffffffffffffffffffffffffff169060200190929190505050611602565b604051808215151515815260200191505060405180910390f35b6105446004803603602081101561051857600080fd5b81019080803573ffffffffffffffffffffffffffffffffffffffff16906020019092919050505061169a565b604051808273ffffffffffffffffffffffffffffffffffffffff1673ffffffffffffffffffffffffffffffffffffffff16815260200191505060405180910390f35b6105c86004803603602081101561059c57600080fd5b81019080803573ffffffffffffffffffffffffffffffffffffffff16906020019092919050505061175c565b6040518080602001828103825283818151815260200191508051906020019080838360005b838110156106085780820151818401526020810190506105ed565b50505050905090810190601f1680156106355780820380516001836020036101000a031916815260200191505b509250505060405180910390f35b6106856004803603602081101561065957600080fd5b81019080803573ffffffffffffffffffffffffffffffffffffffff169060200190929190505050611840565b604051808273ffffffffffffffffffffffffffffffffffffffff1673ffffffffffffffffffffffffffffffffffffffff16815260200191505060405180910390f35b610709600480360360208110156106dd57600080fd5b81019080803573ffffffffffffffffffffffffffffffffffffffff169060200190929190505050611902565b604051808273ffffffffffffffffffffffffffffffffffffffff1673ffffffffffffffffffffffffffffffffffffffff16815260200191505060405180910390f35b61078d6004803603602081101561076157600080fd5b81019080803573ffffffffffffffffffffffffffffffffffffffff169060200190929190505050611a5d565b604051808273ffffffffffffffffffffffffffffffffffffffff1673ffffffffffffffffffffffffffffffffffffffff16815260200191505060405180910390f35b6107d7611bb8565b005b610891600480360360a08110156107ef57600080fd5b81019080803573ffffffffffffffffffffffffffffffffffffffff1690602001909291908035906020019064010000000081111561082c57600080fd5b82018360208201111561083e57600080fd5b8035906020019184600183028401116401000000008311171561086057600080fd5b9091929391929390803560ff1690602001909291908035906020019092919080359060200190929190505050611c88565b005b61090a600480360360208110156108a957600080fd5b81019080803590602001906401000000008111156108c657600080fd5b8201836020820111156108d857600080fd5b803590602001918460018302840111640100000000831117156108fa57600080fd5b9091929391929390505050611ef8565b005b61096f6004803603608081101561092257600080fd5b81019080803573ffffffffffffffffffffffffffffffffffffffff169060200190929190803560ff1690602001909291908035906020019092919080359060200190929190505050611fda565b005b6109796120f0565b604051808273ffffffffffffffffffffffffffffffffffffffff1673ffffffffffffffffffffffffffffffffffffffff16815260200191505060405180910390f35b6109fd600480360360208110156109d157600080fd5b81019080803573ffffffffffffffffffffffffffffffffffffffff169060200190929190505050612116565b604051808273ffffffffffffffffffffffffffffffffffffffff1673ffffffffffffffffffffffffffffffffffffffff16815260200191505060405180910390f35b610ab660048036036020811015610a5557600080fd5b8101908080359060200190640100000000811115610a7257600080fd5b820183602082011115610a8457600080fd5b80359060200191846020830284011164010000000083111715610aa657600080fd5b9091929391929390505050612271565b604051808060200180602001838103835285818151815260200191508051906020019060200280838360005b83811015610afd578082015181840152602081019050610ae2565b50505050905001838103825284818151815260200191508051906020019080838360005b83811015610b3c578082015181840152602081019050610b21565b50505050905090810190601f168015610b695780820380516001836020036101000a031916815260200191505b5094505050505060405180910390f35b610b81612570565b604051808273ffffffffffffffffffffffffffffffffffffffff1673ffffffffffffffffffffffffffffffffffffffff16815260200191505060405180910390f35b610bcb612599565b604051808215151515815260200191505060405180910390f35b610c2760048036036020811015610bfb57600080fd5b81019080803573ffffffffffffffffffffffffffffffffffffffff1690602001909291905050506125f0565b604051808273ffffffffffffffffffffffffffffffffffffffff1673ffffffffffffffffffffffffffffffffffffffff16815260200191505060405180910390f35b610c716126ae565b604051808215151515815260200191505060405180910390f35b610d7760048036036060811015610ca157600080fd5b8101908080359060200190640100000000811115610cbe57600080fd5b820183602082011115610cd057600080fd5b80359060200191846001830284011164010000000083111715610cf257600080fd5b909192939192939080359060200190640100000000811115610d1357600080fd5b820183602082011115610d2557600080fd5b80359060200191846001830284011164010000000083111715610d4757600080fd5b9091929391929390803573ffffffffffffffffffffffffffffffffffffffff16906020019092919050505061277e565b005b610dbb60048036036020811015610d8f57600080fd5b81019080803573ffffffffffffffffffffffffffffffffffffffff16906020019092919050505061283f565b6040518080602001828103825283818151815260200191508051906020019080838360005b83811015610dfb578082015181840152602081019050610de0565b50505050905090810190601f168015610e285780820380516001836020036101000a031916815260200191505b509250505060405180910390f35b610e7860048036036020811015610e4c57600080fd5b81019080803573ffffffffffffffffffffffffffffffffffffffff169060200190929190505050612923565b005b610ebc60048036036020811015610e9057600080fd5b81019080803573ffffffffffffffffffffffffffffffffffffffff1690602001909291905050506129bb565b005b610f0060048036036020811015610ed457600080fd5b81019080803573ffffffffffffffffffffffffffffffffffffffff169060200190929190505050612acb565b6040518080602001828103825283818151815260200191508051906020019080838360005b83811015610f40578082015181840152602081019050610f25565b50505050905090810190601f168015610f6d5780820380516001836020036101000a031916815260200191505b509250505060405180910390f35b610fbd60048036036020811015610f9157600080fd5b81019080803573ffffffffffffffffffffffffffffffffffffffff169060200190929190505050612baf565b604051808273ffffffffffffffffffffffffffffffffffffffff1673ffffffffffffffffffffffffffffffffffffffff16815260200191505060405180910390f35b6110626004803603608081101561101557600080fd5b81019080803573ffffffffffffffffffffffffffffffffffffffff169060200190929190803560ff1690602001909291908035906020019092919080359060200190929190505050612be2565b005b61111d6004803603602081101561107a57600080fd5b810190808035906020019064010000000081111561109757600080fd5b8201836020820111156110a957600080fd5b803590602001918460018302840111640100000000831117156110cb57600080fd5b91908080601f016020809104026020016040519081016040528093929190818152602001838380828437600081840152601f19601f820116905080830192505050505050509192919290505050612de7565b005b6111616004803603602081101561113557600080fd5b81019080803573ffffffffffffffffffffffffffffffffffffffff169060200190929190505050612f06565b005b6111a56004803603602081101561117957600080fd5b81019080803573ffffffffffffffffffffffffffffffffffffffff169060200190929190505050612f50565b005b60218151101561121f576040517f08c379a00000000000000000000000000000000000000000000000000000000081526004018080602001828103825260208152602001807f6461746120656e6372797074696f6e206b6579206c656e677468203c3d20333281525060200191505060405180910390fd5b80600360003373ffffffffffffffffffffffffffffffffffffffff1673ffffffffffffffffffffffffffffffffffffffff1681526020019081526020016000206006019080519060200190611275929190613439565b503373ffffffffffffffffffffffffffffffffffffffff167f43fdefe0a824cb0e3bbaf9c4bc97669187996136fe9282382baf10787f0d808d826040518080602001828103825283818151815260200191508051906020019080838360005b838110156112ef5780820151818401526020810190506112d4565b50505050905090810190601f16801561131c5780820380516001836020036101000a031916815260200191505b509250505060405180910390a250565b600260009054906101000a900460ff1681565b6000600360008373ffffffffffffffffffffffffffffffffffffffff1673ffffffffffffffffffffffffffffffffffffffff16815260200190815260200160002060040160009054906101000a900473ffffffffffffffffffffffffffffffffffffffff169050919050565b6000600360008373ffffffffffffffffffffffffffffffffffffffff1673ffffffffffffffffffffffffffffffffffffffff16815260200190815260200160002060000160009054906101000a900460ff169050919050565b600061140f826113ab565b61141857600080fd5b6000600360008473ffffffffffffffffffffffffffffffffffffffff1673ffffffffffffffffffffffffffffffffffffffff16815260200190815260200160002060010160000160009054906101000a900473ffffffffffffffffffffffffffffffffffffffff169050600073ffffffffffffffffffffffffffffffffffffffff168173ffffffffffffffffffffffffffffffffffffffff16146114bc57806114be565b825b915050919050565b60018060008282540192505081905550600060015490506000600360003373ffffffffffffffffffffffffffffffffffffffff1673ffffffffffffffffffffffffffffffffffffffff168152602001908152602001600020905061152c86868686612f6d565b858160010160000160006101000a81548173ffffffffffffffffffffffffffffffffffffffff021916908373ffffffffffffffffffffffffffffffffffffffff1602179055503373ffffffffffffffffffffffffffffffffffffffff167faab5f8a189373aaa290f42ae65ea5d7971b732366ca5bf66556e76263944af2887604051808273ffffffffffffffffffffffffffffffffffffffff1673ffffffffffffffffffffffffffffffffffffffff16815260200191505060405180910390a25060015481146115fb57600080fd5b5050505050565b60008073ffffffffffffffffffffffffffffffffffffffff16600460008473ffffffffffffffffffffffffffffffffffffffff1673ffffffffffffffffffffffffffffffffffffffff16815260200190815260200160002060009054906101000a900473ffffffffffffffffffffffffffffffffffffffff1673ffffffffffffffffffffffffffffffffffffffff1614159050919050565b60006116a5826113ab565b6116ae57600080fd5b6000600360008473ffffffffffffffffffffffffffffffffffffffff1673ffffffffffffffffffffffffffffffffffffffff16815260200190815260200160002060010160010160009054906101000a900473ffffffffffffffffffffffffffffffffffffffff169050600073ffffffffffffffffffffffffffffffffffffffff168173ffffffffffffffffffffffffffffffffffffffff16146117525780611754565b825b915050919050565b6060600360008373ffffffffffffffffffffffffffffffffffffffff1673ffffffffffffffffffffffffffffffffffffffff1681526020019081526020016000206005018054600181600116156101000203166002900480601f0160208091040260200160405190810160405280929190818152602001828054600181600116156101000203166002900480156118345780601f1061180957610100808354040283529160200191611834565b820191906000526020600020905b81548152906001019060200180831161181757829003601f168201915b50505050509050919050565b600061184b826113ab565b61185457600080fd5b6000600360008473ffffffffffffffffffffffffffffffffffffffff1673ffffffffffffffffffffffffffffffffffffffff16815260200190815260200160002060010160020160009054906101000a900473ffffffffffffffffffffffffffffffffffffffff169050600073ffffffffffffffffffffffffffffffffffffffff168173ffffffffffffffffffffffffffffffffffffffff16146118f857806118fa565b825b915050919050565b600080600460008473ffffffffffffffffffffffffffffffffffffffff1673ffffffffffffffffffffffffffffffffffffffff16815260200190815260200160002060009054906101000a900473ffffffffffffffffffffffffffffffffffffffff169050600073ffffffffffffffffffffffffffffffffffffffff168173ffffffffffffffffffffffffffffffffffffffff1614611a41578273ffffffffffffffffffffffffffffffffffffffff16600360008373ffffffffffffffffffffffffffffffffffffffff1673ffffffffffffffffffffffffffffffffffffffff16815260200190815260200160002060010160010160009054906101000a900473ffffffffffffffffffffffffffffffffffffffff1673ffffffffffffffffffffffffffffffffffffffff1614611a3857600080fd5b80915050611a58565b611a4a836113ab565b611a5357600080fd5b829150505b919050565b600080600460008473ffffffffffffffffffffffffffffffffffffffff1673ffffffffffffffffffffffffffffffffffffffff16815260200190815260200160002060009054906101000a900473ffffffffffffffffffffffffffffffffffffffff169050600073ffffffffffffffffffffffffffffffffffffffff168173ffffffffffffffffffffffffffffffffffffffff1614611b9c578273ffffffffffffffffffffffffffffffffffffffff16600360008373ffffffffffffffffffffffffffffffffffffffff1673ffffffffffffffffffffffffffffffffffffffff16815260200190815260200160002060010160000160009054906101000a900473ffffffffffffffffffffffffffffffffffffffff1673ffffffffffffffffffffffffffffffffffffffff1614611b9357600080fd5b80915050611bb3565b611ba5836113ab565b611bae57600080fd5b829150505b919050565b611bc0612599565b611bc957600080fd5b600073ffffffffffffffffffffffffffffffffffffffff166000809054906101000a900473ffffffffffffffffffffffffffffffffffffffff1673ffffffffffffffffffffffffffffffffffffffff167f8be0079c531659141344cd1fd0a4f28419497f9722a3daafe3b4186f6b6457e060405160405180910390a360008060006101000a81548173ffffffffffffffffffffffffffffffffffffffff021916908373ffffffffffffffffffffffffffffffffffffffff160217905550565b60018060008282540192505081905550600060015490506000600360003373ffffffffffffffffffffffffffffffffffffffff1673ffffffffffffffffffffffffffffffffffffffff1681526020019081526020016000209050611cee88868686612f6d565b878160010160010160006101000a81548173ffffffffffffffffffffffffffffffffffffffff021916908373ffffffffffffffffffffffffffffffffffffffff160217905550611d3c613136565b73ffffffffffffffffffffffffffffffffffffffff16634e06fd8a338a8a8a6040518563ffffffff1660e01b8152600401808573ffffffffffffffffffffffffffffffffffffffff1673ffffffffffffffffffffffffffffffffffffffff1681526020018473ffffffffffffffffffffffffffffffffffffffff1673ffffffffffffffffffffffffffffffffffffffff168152602001806020018281038252848482818152602001925080828437600081840152601f19601f82011690508083019250505095505050505050602060405180830381600087803b158015611e2257600080fd5b505af1158015611e36573d6000803e3d6000fd5b505050506040513d6020811015611e4c57600080fd5b8101908080519060200190929190505050611e6657600080fd5b3373ffffffffffffffffffffffffffffffffffffffff167f16e382723fb40543364faf68863212ba253a099607bf6d3a5b47e50a8bf9494389604051808273ffffffffffffffffffffffffffffffffffffffff1673ffffffffffffffffffffffffffffffffffffffff16815260200191505060405180910390a2506001548114611eef57600080fd5b50505050505050565b611f01336113ab565b611f0a57600080fd5b8181600360003373ffffffffffffffffffffffffffffffffffffffff1673ffffffffffffffffffffffffffffffffffffffff1681526020019081526020016000206007019190611f5b9291906134b9565b503373ffffffffffffffffffffffffffffffffffffffff167f0b5629fec5b6b5a1c2cfe0de7495111627a8cf297dced72e0669527425d3f01b838360405180806020018281038252848482818152602001925080828437600081840152601f19601f820116905080830192505050935050505060405180910390a25050565b6000600360003373ffffffffffffffffffffffffffffffffffffffff1673ffffffffffffffffffffffffffffffffffffffff168152602001908152602001600020905061202985858585612f6d565b848160010160020160006101000a81548173ffffffffffffffffffffffffffffffffffffffff021916908373ffffffffffffffffffffffffffffffffffffffff1602179055503373ffffffffffffffffffffffffffffffffffffffff167f9dfbc5a621c3e2d0d83beee687a17dfc796bbce2118793e5e254409bb265ca0b86604051808273ffffffffffffffffffffffffffffffffffffffff1673ffffffffffffffffffffffffffffffffffffffff16815260200191505060405180910390a25050505050565b600260019054906101000a900473ffffffffffffffffffffffffffffffffffffffff1681565b600080600460008473ffffffffffffffffffffffffffffffffffffffff1673ffffffffffffffffffffffffffffffffffffffff16815260200190815260200160002060009054906101000a900473ffffffffffffffffffffffffffffffffffffffff169050600073ffffffffffffffffffffffffffffffffffffffff168173ffffffffffffffffffffffffffffffffffffffff1614612255578273ffffffffffffffffffffffffffffffffffffffff16600360008373ffffffffffffffffffffffffffffffffffffffff1673ffffffffffffffffffffffffffffffffffffffff16815260200190815260200160002060010160020160009054906101000a900473ffffffffffffffffffffffffffffffffffffffff1673ffffffffffffffffffffffffffffffffffffffff161461224c57600080fd5b8091505061226c565b61225e836113ab565b61226757600080fd5b829150505b919050565b60608060008090506060858590506040519080825280602002602001820160405280156122ad5781602001602082028038833980820191505090505b50905060008090505b8686905081101561239b57600360008888848181106122d157fe5b9050602002013573ffffffffffffffffffffffffffffffffffffffff1673ffffffffffffffffffffffffffffffffffffffff1673ffffffffffffffffffffffffffffffffffffffff16815260200190815260200160002060070180546001816001161561010002031660029004905082828151811061234c57fe5b60200260200101818152505061237e82828151811061236757fe5b60200260200101518461323190919063ffffffff16565b925061239460018261323190919063ffffffff16565b90506122b6565b506060826040519080825280601f01601f1916602001820160405280156123d15781602001600182028038833980820191505090505b509050600080905060008090505b8888905081101561255e5760008090505b8482815181106123fc57fe5b602002602001015181101561254257600360008b8b8581811061241b57fe5b9050602002013573ffffffffffffffffffffffffffffffffffffffff1673ffffffffffffffffffffffffffffffffffffffff1673ffffffffffffffffffffffffffffffffffffffff1681526020019081526020016000206007018181546001816001161561010002031660029004811061249157fe5b8154600116156124b05790600052602060002090602091828204019190065b9054901a7f0100000000000000000000000000000000000000000000000000000000000000028484815181106124e257fe5b60200101907effffffffffffffffffffffffffffffffffffffffffffffffffffffffffffff1916908160001a90535061252560018461323190919063ffffffff16565b925061253b60018261323190919063ffffffff16565b90506123f0565b5061255760018261323190919063ffffffff16565b90506123df565b50828295509550505050509250929050565b60008060009054906101000a900473ffffffffffffffffffffffffffffffffffffffff16905090565b60008060009054906101000a900473ffffffffffffffffffffffffffffffffffffffff1673ffffffffffffffffffffffffffffffffffffffff163373ffffffffffffffffffffffffffffffffffffffff1614905090565b600080600460008473ffffffffffffffffffffffffffffffffffffffff1673ffffffffffffffffffffffffffffffffffffffff16815260200190815260200160002060009054906101000a900473ffffffffffffffffffffffffffffffffffffffff169050600073ffffffffffffffffffffffffffffffffffffffff168173ffffffffffffffffffffffffffffffffffffffff161461269257809150506126a9565b61269b836113ab565b6126a457600080fd5b829150505b919050565b60006126b933613250565b80156126ca57506126c9336132aa565b5b6126d357600080fd5b6000600360003373ffffffffffffffffffffffffffffffffffffffff1673ffffffffffffffffffffffffffffffffffffffff168152602001908152602001600020905060018160000160006101000a81548160ff0219169083151502179055503373ffffffffffffffffffffffffffffffffffffffff167f805996f252884581e2f74cf3d2b03564d5ec26ccc90850ae12653dc1b72d1fa260405160405180910390a2600191505090565b612787336113ab565b612795576127936126ae565b505b6127e285858080601f016020809104026020016040519081016040528093929190818152602001838380828437600081840152601f19601f82011690508083019250505050505050612de7565b61282f83838080601f016020809104026020016040519081016040528093929190818152602001838380828437600081840152601f19601f820116905080830192505050505050506111a7565b612838816129bb565b5050505050565b6060600360008373ffffffffffffffffffffffffffffffffffffffff1673ffffffffffffffffffffffffffffffffffffffff1681526020019081526020016000206007018054600181600116156101000203166002900480601f0160208091040260200160405190810160405280929190818152602001828054600181600116156101000203166002900480156129175780601f106128ec57610100808354040283529160200191612917565b820191906000526020600020905b8154815290600101906020018083116128fa57829003601f168201915b50505050509050919050565b61292b612599565b61293457600080fd5b80600260016101000a81548173ffffffffffffffffffffffffffffffffffffffff021916908373ffffffffffffffffffffffffffffffffffffffff1602179055508073ffffffffffffffffffffffffffffffffffffffff167f27fe5f0c1c3b1ed427cc63d0f05759ffdecf9aec9e18d31ef366fc8a6cb5dc3b60405160405180910390a250565b6129c4336113ab565b6129cd57600080fd5b80600360003373ffffffffffffffffffffffffffffffffffffffff1673ffffffffffffffffffffffffffffffffffffffff16815260200190815260200160002060040160006101000a81548173ffffffffffffffffffffffffffffffffffffffff021916908373ffffffffffffffffffffffffffffffffffffffff1602179055503373ffffffffffffffffffffffffffffffffffffffff167ff81d74398fd47e35c36b714019df15f200f623dde569b5b531d6a0b4da5c5f2682604051808273ffffffffffffffffffffffffffffffffffffffff1673ffffffffffffffffffffffffffffffffffffffff16815260200191505060405180910390a250565b6060600360008373ffffffffffffffffffffffffffffffffffffffff1673ffffffffffffffffffffffffffffffffffffffff1681526020019081526020016000206006018054600181600116156101000203166002900480601f016020809104026020016040519081016040528092919081815260200182805460018160011615610100020316600290048015612ba35780601f10612b7857610100808354040283529160200191612ba3565b820191906000526020600020905b815481529060010190602001808311612b8657829003601f168201915b50505050509050919050565b60046020528060005260406000206000915054906101000a900473ffffffffffffffffffffffffffffffffffffffff1681565b60018060008282540192505081905550600060015490506000600360003373ffffffffffffffffffffffffffffffffffffffff1673ffffffffffffffffffffffffffffffffffffffff1681526020019081526020016000209050612c4886868686612f6d565b858160010160010160006101000a81548173ffffffffffffffffffffffffffffffffffffffff021916908373ffffffffffffffffffffffffffffffffffffffff160217905550612c96613136565b73ffffffffffffffffffffffffffffffffffffffff1663facd743b336040518263ffffffff1660e01b8152600401808273ffffffffffffffffffffffffffffffffffffffff1673ffffffffffffffffffffffffffffffffffffffff16815260200191505060206040518083038186803b158015612d1257600080fd5b505afa158015612d26573d6000803e3d6000fd5b505050506040513d6020811015612d3c57600080fd5b810190808051906020019092919050505015612d5757600080fd5b3373ffffffffffffffffffffffffffffffffffffffff167f16e382723fb40543364faf68863212ba253a099607bf6d3a5b47e50a8bf9494387604051808273ffffffffffffffffffffffffffffffffffffffff1673ffffffffffffffffffffffffffffffffffffffff16815260200191505060405180910390a2506001548114612de057600080fd5b5050505050565b612df0336113ab565b612df957600080fd5b80600360003373ffffffffffffffffffffffffffffffffffffffff1673ffffffffffffffffffffffffffffffffffffffff1681526020019081526020016000206005019080519060200190612e4f929190613539565b503373ffffffffffffffffffffffffffffffffffffffff167fa6e2c5a23bb917ba0a584c4b250257ddad698685829b66a8813c004b39934fe4826040518080602001828103825283818151815260200191508051906020019080838360005b83811015612ec9578082015181840152602081019050612eae565b50505050905090810190601f168015612ef65780820380516001836020036101000a031916815260200191505b509250505060405180910390a250565b600260009054906101000a900460ff1615612f2057600080fd5b6001600260006101000a81548160ff021916908315150217905550612f4433613341565b612f4d81612923565b50565b612f58612599565b612f6157600080fd5b612f6a81613341565b50565b612f76336113ab565b8015612f875750612f8684613250565b5b8015612f985750612f97846132aa565b5b612fa157600080fd5b600073__Signatures____________________________6396ef41a1338686866040518563ffffffff1660e01b8152600401808573ffffffffffffffffffffffffffffffffffffffff1673ffffffffffffffffffffffffffffffffffffffff1681526020018460ff1660ff16815260200183815260200182815260200194505050505060206040518083038186803b15801561303c57600080fd5b505af4158015613050573d6000803e3d6000fd5b505050506040513d602081101561306657600080fd5b810190808051906020019092919050505090508473ffffffffffffffffffffffffffffffffffffffff168173ffffffffffffffffffffffffffffffffffffffff16146130b157600080fd5b33600460008773ffffffffffffffffffffffffffffffffffffffff1673ffffffffffffffffffffffffffffffffffffffff16815260200190815260200160002060006101000a81548173ffffffffffffffffffffffffffffffffffffffff021916908373ffffffffffffffffffffffffffffffffffffffff1602179055505050505050565b6000600260019054906101000a900473ffffffffffffffffffffffffffffffffffffffff1673ffffffffffffffffffffffffffffffffffffffff1663dcf0aaed60405160200180807f56616c696461746f727300000000000000000000000000000000000000000000815250600a019050604051602081830303815290604052805190602001206040518263ffffffff1660e01b81526004018082815260200191505060206040518083038186803b1580156131f157600080fd5b505afa158015613205573d6000803e3d6000fd5b505050506040513d602081101561321b57600080fd5b8101908080519060200190929190505050905090565b60008082840190508381101561324657600080fd5b8091505092915050565b6000600360008373ffffffffffffffffffffffffffffffffffffffff1673ffffffffffffffffffffffffffffffffffffffff16815260200190815260200160002060000160009054906101000a900460ff16159050919050565b60008073ffffffffffffffffffffffffffffffffffffffff16600460008473ffffffffffffffffffffffffffffffffffffffff1673ffffffffffffffffffffffffffffffffffffffff16815260200190815260200160002060009054906101000a900473ffffffffffffffffffffffffffffffffffffffff1673ffffffffffffffffffffffffffffffffffffffff16149050919050565b600073ffffffffffffffffffffffffffffffffffffffff168173ffffffffffffffffffffffffffffffffffffffff16141561337b57600080fd5b8073ffffffffffffffffffffffffffffffffffffffff166000809054906101000a900473ffffffffffffffffffffffffffffffffffffffff1673ffffffffffffffffffffffffffffffffffffffff167f8be0079c531659141344cd1fd0a4f28419497f9722a3daafe3b4186f6b6457e060405160405180910390a3806000806101000a81548173ffffffffffffffffffffffffffffffffffffffff021916908373ffffffffffffffffffffffffffffffffffffffff16021790555050565b828054600181600116156101000203166002900490600052602060002090601f016020900481019282601f1061347a57805160ff19168380011785556134a8565b828001600101855582156134a8579182015b828111156134a757825182559160200191906001019061348c565b5b5090506134b591906135b9565b5090565b828054600181600116156101000203166002900490600052602060002090601f016020900481019282601f106134fa57803560ff1916838001178555613528565b82800160010185558215613528579182015b8281111561352757823582559160200191906001019061350c565b5b50905061353591906135b9565b5090565b828054600181600116156101000203166002900490600052602060002090601f016020900481019282601f1061357a57805160ff19168380011785556135a8565b828001600101855582156135a8579182015b828111156135a757825182559160200191906001019061358c565b5b5090506135b591906135b9565b5090565b6135db91905b808211156135d75760008160009055506001016135bf565b5090565b9056fea165627a7a72305820d5103ec69937f80ac18db65c35ad9f72bb9766415e64688062e49b635c0159b60029",
  "source": "pragma solidity ^0.5.3;\n\nimport \"openzeppelin-solidity/contracts/math/SafeMath.sol\";\nimport \"openzeppelin-solidity/contracts/ownership/Ownable.sol\";\nimport \"openzeppelin-solidity/contracts/utils/ReentrancyGuard.sol\";\n\nimport \"./interfaces/IAccounts.sol\";\n\nimport \"../common/Initializable.sol\";\nimport \"../common/Signatures.sol\";\nimport \"../common/UsingRegistry.sol\";\n\ncontract Accounts is IAccounts, Ownable, ReentrancyGuard, Initializable, UsingRegistry {\n  using SafeMath for uint256;\n\n  struct Signers {\n    // The address that is authorized to vote in governance and validator elections on behalf of the\n    // account. The account can vote as well, whether or not a vote signing key has been specified.\n    address vote;\n    // The address that is authorized to manage a validator or validator group and sign consensus\n    // messages on behalf of the account. The account can manage the validator, whether or not a\n    // validator signing key has been specified. However, if a validator signing key has been\n    // specified, only that key may actually participate in consensus.\n    address validator;\n    // The address of the key with which this account wants to sign attestations on the Attestations\n    // contract\n    address attestation;\n  }\n\n  struct Account {\n    bool exists;\n    // Each account may authorize signing keys to use for voting, valdiating or attestation.\n    // These keys may not be keys of other accounts, and may not be authorized by any other\n    // account for any purpose.\n    Signers signers;\n    // The address at which the account expects to receive transfers. If it's empty/0x0, the\n    // account indicates that an address exchange should be initiated with the dataEncryptionKey\n    address walletAddress;\n    // An optional human readable identifier for the account\n    string name;\n    // The ECDSA public key used to encrypt and decrypt data for this account\n    bytes dataEncryptionKey;\n    // The URL under which an account adds metadata and claims\n    string metadataURL;\n  }\n\n  mapping(address => Account) private accounts;\n  // Maps authorized signers to the account that provided the authorization.\n  mapping(address => address) public authorizedBy;\n\n  event AttestationSignerAuthorized(address indexed account, address signer);\n  event VoteSignerAuthorized(address indexed account, address signer);\n  event ValidatorSignerAuthorized(address indexed account, address signer);\n  event AccountDataEncryptionKeySet(address indexed account, bytes dataEncryptionKey);\n  event AccountNameSet(address indexed account, string name);\n  event AccountMetadataURLSet(address indexed account, string metadataURL);\n  event AccountWalletAddressSet(address indexed account, address walletAddress);\n  event AccountCreated(address indexed account);\n\n  function initialize(address registryAddress) external initializer {\n    _transferOwnership(msg.sender);\n    setRegistry(registryAddress);\n  }\n\n  /**\n   * @notice Convenience Setter for the dataEncryptionKey and wallet address for an account\n   * @param name A string to set as the name of the account\n   * @param dataEncryptionKey secp256k1 public key for data encryption. Preferably compressed.\n   * @param walletAddress The wallet address to set for the account\n   */\n  function setAccount(string calldata name, bytes calldata dataEncryptionKey, address walletAddress)\n    external\n  {\n    if (!isAccount(msg.sender)) {\n      createAccount();\n    }\n    setName(name);\n    setAccountDataEncryptionKey(dataEncryptionKey);\n    setWalletAddress(walletAddress);\n  }\n\n  /**\n   * @notice Creates an account.\n   * @return True if account creation succeeded.\n   */\n  function createAccount() public returns (bool) {\n    require(isNotAccount(msg.sender) && isNotAuthorizedSigner(msg.sender));\n    Account storage account = accounts[msg.sender];\n    account.exists = true;\n    emit AccountCreated(msg.sender);\n    return true;\n  }\n\n  /**\n   * @notice Setter for the name of an account.\n   * @param name The name to set.\n   */\n  function setName(string memory name) public {\n    require(isAccount(msg.sender));\n    accounts[msg.sender].name = name;\n    emit AccountNameSet(msg.sender, name);\n  }\n\n  /**\n   * @notice Setter for the wallet address for an account\n   * @param walletAddress The wallet address to set for the account\n   */\n  function setWalletAddress(address walletAddress) public {\n    require(isAccount(msg.sender));\n    accounts[msg.sender].walletAddress = walletAddress;\n    emit AccountWalletAddressSet(msg.sender, walletAddress);\n  }\n\n  /**\n   * @notice Setter for the data encryption key and version.\n   * @param dataEncryptionKey secp256k1 public key for data encryption. Preferably compressed.\n   */\n  function setAccountDataEncryptionKey(bytes memory dataEncryptionKey) public {\n    require(dataEncryptionKey.length >= 33, \"data encryption key length <= 32\");\n    accounts[msg.sender].dataEncryptionKey = dataEncryptionKey;\n    emit AccountDataEncryptionKeySet(msg.sender, dataEncryptionKey);\n  }\n\n  /**\n   * @notice Setter for the metadata of an account.\n   * @param metadataURL The URL to access the metadata.\n   */\n  function setMetadataURL(string calldata metadataURL) external {\n    require(isAccount(msg.sender));\n    accounts[msg.sender].metadataURL = metadataURL;\n    emit AccountMetadataURLSet(msg.sender, metadataURL);\n  }\n\n  /**\n   * @notice Authorizes an address to sign votes on behalf of the account.\n   * @param signer The address of the signing key to authorize.\n   * @param v The recovery id of the incoming ECDSA signature.\n   * @param r Output value r of the ECDSA signature.\n   * @param s Output value s of the ECDSA signature.\n   * @dev v, r, s constitute `signer`'s signature on `msg.sender`.\n   */\n  function authorizeVoteSigner(address signer, uint8 v, bytes32 r, bytes32 s)\n    external\n    nonReentrant\n  {\n    Account storage account = accounts[msg.sender];\n    authorize(signer, v, r, s);\n    account.signers.vote = signer;\n    emit VoteSignerAuthorized(msg.sender, signer);\n  }\n\n  /**\n   * @notice Authorizes an address to sign consensus messages on behalf of the account.\n   * @param signer The address of the signing key to authorize.\n   * @param v The recovery id of the incoming ECDSA signature.\n   * @param r Output value r of the ECDSA signature.\n   * @param s Output value s of the ECDSA signature.\n   * @dev v, r, s constitute `signer`'s signature on `msg.sender`.\n   */\n  function authorizeValidatorSigner(address signer, uint8 v, bytes32 r, bytes32 s)\n    external\n    nonReentrant\n  {\n    Account storage account = accounts[msg.sender];\n    authorize(signer, v, r, s);\n    account.signers.validator = signer;\n    require(!getValidators().isValidator(msg.sender));\n    emit ValidatorSignerAuthorized(msg.sender, signer);\n  }\n\n  /**\n   * @notice Authorizes an address to sign consensus messages on behalf of the account.\n   * @param signer The address of the signing key to authorize.\n   * @param ecdsaPublicKey The ECDSA public key corresponding to `signer`.\n   * @param v The recovery id of the incoming ECDSA signature.\n   * @param r Output value r of the ECDSA signature.\n   * @param s Output value s of the ECDSA signature.\n   * @dev v, r, s constitute `signer`'s signature on `msg.sender`.\n   */\n  function authorizeValidatorSigner(\n    address signer,\n    bytes calldata ecdsaPublicKey,\n    uint8 v,\n    bytes32 r,\n    bytes32 s\n  ) external nonReentrant {\n    Account storage account = accounts[msg.sender];\n    authorize(signer, v, r, s);\n    account.signers.validator = signer;\n    require(getValidators().updateEcdsaPublicKey(msg.sender, signer, ecdsaPublicKey));\n    emit ValidatorSignerAuthorized(msg.sender, signer);\n  }\n\n  /**\n   * @notice Authorizes an address to sign attestations on behalf of the account.\n   * @param signer The address of the signing key to authorize.\n   * @param v The recovery id of the incoming ECDSA signature.\n   * @param r Output value r of the ECDSA signature.\n   * @param s Output value s of the ECDSA signature.\n   * @dev v, r, s constitute `signer`'s signature on `msg.sender`.\n   */\n  function authorizeAttestationSigner(address signer, uint8 v, bytes32 r, bytes32 s) public {\n    Account storage account = accounts[msg.sender];\n    authorize(signer, v, r, s);\n    account.signers.attestation = signer;\n    emit AttestationSignerAuthorized(msg.sender, signer);\n  }\n\n  /**\n   * @notice Returns the account associated with `signer`.\n   * @param signer The address of the account or currently authorized attestation signer.\n   * @dev Fails if the `signer` is not an account or currently authorized attestation signer.\n   * @return The associated account.\n   */\n  function attestationSignerToAccount(address signer) external view returns (address) {\n    address authorizingAccount = authorizedBy[signer];\n    if (authorizingAccount != address(0)) {\n      require(accounts[authorizingAccount].signers.attestation == signer);\n      return authorizingAccount;\n    } else {\n      require(isAccount(signer));\n      return signer;\n    }\n  }\n\n  /**\n   * @notice Returns the account associated with `signer`.\n   * @param signer The address of an account or currently authorized validator signer.\n   * @dev Fails if the `signer` is not an account or currently authorized validator.\n   * @return The associated account.\n   */\n  function validatorSignerToAccount(address signer) public view returns (address) {\n    address authorizingAccount = authorizedBy[signer];\n    if (authorizingAccount != address(0)) {\n      require(accounts[authorizingAccount].signers.validator == signer);\n      return authorizingAccount;\n    } else {\n      require(isAccount(signer));\n      return signer;\n    }\n  }\n\n  /**\n   * @notice Returns the account associated with `signer`.\n   * @param signer The address of the account or currently authorized vote signer.\n   * @dev Fails if the `signer` is not an account or currently authorized vote signer.\n   * @return The associated account.\n   */\n  function voteSignerToAccount(address signer) external view returns (address) {\n    address authorizingAccount = authorizedBy[signer];\n    if (authorizingAccount != address(0)) {\n      require(accounts[authorizingAccount].signers.vote == signer);\n      return authorizingAccount;\n    } else {\n      require(isAccount(signer));\n      return signer;\n    }\n  }\n\n  /**\n   * @notice Returns the account associated with `signer`.\n   * @param signer The address of the account or previously authorized signer.\n   * @dev Fails if the `signer` is not an account or previously authorized signer.\n   * @return The associated account.\n   */\n  function signerToAccount(address signer) external view returns (address) {\n    address authorizingAccount = authorizedBy[signer];\n    if (authorizingAccount != address(0)) {\n      return authorizingAccount;\n    } else {\n      require(isAccount(signer));\n      return signer;\n    }\n  }\n\n  /**\n   * @notice Returns the vote signer for the specified account.\n   * @param account The address of the account.\n   * @return The address with which the account can sign votes.\n   */\n  function getVoteSigner(address account) public view returns (address) {\n    require(isAccount(account));\n    address signer = accounts[account].signers.vote;\n    return signer == address(0) ? account : signer;\n  }\n\n  /**\n   * @notice Returns the validator signer for the specified account.\n   * @param account The address of the account.\n   * @return The address with which the account can register a validator or group.\n   */\n  function getValidatorSigner(address account) public view returns (address) {\n    require(isAccount(account));\n    address signer = accounts[account].signers.validator;\n    return signer == address(0) ? account : signer;\n  }\n\n  /**\n   * @notice Returns the attestation signer for the specified account.\n   * @param account The address of the account.\n   * @return The address with which the account can sign attestations.\n   */\n  function getAttestationSigner(address account) public view returns (address) {\n    require(isAccount(account));\n    address signer = accounts[account].signers.attestation;\n    return signer == address(0) ? account : signer;\n  }\n\n  /**\n   * @notice Getter for the name of an account.\n   * @param account The address of the account to get the name for.\n   * @return name The name of the account.\n   */\n  function getName(address account) external view returns (string memory) {\n    return accounts[account].name;\n  }\n\n  /**\n   * @notice Getter for the metadata of an account.\n   * @param account The address of the account to get the metadata for.\n   * @return metadataURL The URL to access the metadata.\n   */\n  function getMetadataURL(address account) external view returns (string memory) {\n    return accounts[account].metadataURL;\n  }\n\n  /**\n   * @notice Getter for the metadata of multiple accounts.\n   * @param accountsToQuery The addresses of the accounts to get the metadata for.\n   * @return (stringLengths[] - the length of each string in bytes\n   *          data - all strings concatenated\n   *         )\n   */\n  function batchGetMetadataURL(address[] calldata accountsToQuery)\n    external\n    view\n    returns (uint256[] memory, bytes memory)\n  {\n    uint256 totalSize = 0;\n    uint256[] memory sizes = new uint256[](accountsToQuery.length);\n    for (uint256 i = 0; i < accountsToQuery.length; i = i.add(1)) {\n      sizes[i] = bytes(accounts[accountsToQuery[i]].metadataURL).length;\n      totalSize = totalSize.add(sizes[i]);\n    }\n\n    bytes memory data = new bytes(totalSize);\n    uint256 pointer = 0;\n    for (uint256 i = 0; i < accountsToQuery.length; i = i.add(1)) {\n      for (uint256 j = 0; j < sizes[i]; j = j.add(1)) {\n        data[pointer] = bytes(accounts[accountsToQuery[i]].metadataURL)[j];\n        pointer = pointer.add(1);\n      }\n    }\n    return (sizes, data);\n  }\n\n  /**\n   * @notice Getter for the data encryption key and version.\n   * @param account The address of the account to get the key for\n   * @return dataEncryptionKey secp256k1 public key for data encryption. Preferably compressed.\n   */\n  function getDataEncryptionKey(address account) external view returns (bytes memory) {\n    return accounts[account].dataEncryptionKey;\n  }\n\n  /**\n   * @notice Getter for the wallet address for an account\n   * @param account The address of the account to get the wallet address for\n   * @return Wallet address\n   */\n  function getWalletAddress(address account) external view returns (address) {\n    return accounts[account].walletAddress;\n  }\n\n  /**\n   * @notice Check if an account already exists.\n   * @param account The address of the account\n   * @return Returns `true` if account exists. Returns `false` otherwise.\n   */\n  function isAccount(address account) public view returns (bool) {\n    return (accounts[account].exists);\n  }\n\n  /**\n   * @notice Check if an account already exists.\n   * @param account The address of the account\n   * @return Returns `false` if account exists. Returns `true` otherwise.\n   */\n  function isNotAccount(address account) internal view returns (bool) {\n    return (!accounts[account].exists);\n  }\n\n  /**\n   * @notice Check if an address has been an authorized signer for an account.\n   * @param signer The possibly authorized address.\n   * @return Returns `true` if authorized. Returns `false` otherwise.\n   */\n  function isAuthorizedSigner(address signer) external view returns (bool) {\n    return (authorizedBy[signer] != address(0));\n  }\n\n  /**\n   * @notice Check if an address has been an authorized signer for an account.\n   * @param signer The possibly authorized address.\n   * @return Returns `false` if authorized. Returns `true` otherwise.\n   */\n  function isNotAuthorizedSigner(address signer) internal view returns (bool) {\n    return (authorizedBy[signer] == address(0));\n  }\n\n  /**\n   * @notice Authorizes some role of of `msg.sender`'s account to another address.\n   * @param authorized The address to authorize.\n   * @param v The recovery id of the incoming ECDSA signature.\n   * @param r Output value r of the ECDSA signature.\n   * @param s Output value s of the ECDSA signature.\n   * @dev Fails if the address is already authorized or is an account.\n   * @dev Note that once an address is authorized, it may never be authorized again.\n   * @dev v, r, s constitute `current`'s signature on `msg.sender`.\n   */\n  function authorize(address authorized, uint8 v, bytes32 r, bytes32 s) private {\n    require(isAccount(msg.sender) && isNotAccount(authorized) && isNotAuthorizedSigner(authorized));\n\n    address signer = Signatures.getSignerOfAddress(msg.sender, v, r, s);\n    require(signer == authorized);\n\n    authorizedBy[authorized] = msg.sender;\n  }\n}\n",
  "sourcePath": "/Users/cmcewen/celo/celo-monorepo/packages/protocol/contracts/common/Accounts.sol",
  "compiler": {
    "name": "solc",
    "version": "0.5.8+commit.23d335f2.Emscripten.clang"
  },
  "schemaVersion": "3.0.10",
  "updatedAt": "2019-12-06T00:16:04.805Z",
  "devdoc": {
    "methods": {
      "attestationSignerToAccount(address)": {
        "details": "Fails if the `signer` is not an account or currently authorized attestation signer.",
        "params": {
          "signer": "The address of the account or currently authorized attestation signer."
        },
        "return": "The associated account."
      },
      "authorizeAttestationSigner(address,uint8,bytes32,bytes32)": {
        "details": "v, r, s constitute `signer`'s signature on `msg.sender`.",
        "params": {
          "r": "Output value r of the ECDSA signature.",
          "s": "Output value s of the ECDSA signature.",
          "signer": "The address of the signing key to authorize.",
          "v": "The recovery id of the incoming ECDSA signature."
        }
      },
      "authorizeValidatorSigner(address,bytes,uint8,bytes32,bytes32)": {
        "details": "v, r, s constitute `signer`'s signature on `msg.sender`.",
        "params": {
          "ecdsaPublicKey": "The ECDSA public key corresponding to `signer`.",
          "r": "Output value r of the ECDSA signature.",
          "s": "Output value s of the ECDSA signature.",
          "signer": "The address of the signing key to authorize.",
          "v": "The recovery id of the incoming ECDSA signature."
        }
      },
      "authorizeValidatorSigner(address,uint8,bytes32,bytes32)": {
        "details": "v, r, s constitute `signer`'s signature on `msg.sender`.",
        "params": {
          "r": "Output value r of the ECDSA signature.",
          "s": "Output value s of the ECDSA signature.",
          "signer": "The address of the signing key to authorize.",
          "v": "The recovery id of the incoming ECDSA signature."
        }
      },
      "authorizeVoteSigner(address,uint8,bytes32,bytes32)": {
        "details": "v, r, s constitute `signer`'s signature on `msg.sender`.",
        "params": {
          "r": "Output value r of the ECDSA signature.",
          "s": "Output value s of the ECDSA signature.",
          "signer": "The address of the signing key to authorize.",
          "v": "The recovery id of the incoming ECDSA signature."
        }
      },
      "batchGetMetadataURL(address[])": {
        "params": {
          "accountsToQuery": "The addresses of the accounts to get the metadata for."
        },
        "return": "(stringLengths[] - the length of each string in bytes         data - all strings concatenated        )"
      },
      "createAccount()": {
        "return": "True if account creation succeeded."
      },
      "getAttestationSigner(address)": {
        "params": {
          "account": "The address of the account."
        },
        "return": "The address with which the account can sign attestations."
      },
      "getDataEncryptionKey(address)": {
        "params": {
          "account": "The address of the account to get the key for"
        },
        "return": "dataEncryptionKey secp256k1 public key for data encryption. Preferably compressed."
      },
      "getMetadataURL(address)": {
        "params": {
          "account": "The address of the account to get the metadata for."
        },
        "return": "metadataURL The URL to access the metadata."
      },
      "getName(address)": {
        "params": {
          "account": "The address of the account to get the name for."
        },
        "return": "name The name of the account."
      },
      "getValidatorSigner(address)": {
        "params": {
          "account": "The address of the account."
        },
        "return": "The address with which the account can register a validator or group."
      },
      "getVoteSigner(address)": {
        "params": {
          "account": "The address of the account."
        },
        "return": "The address with which the account can sign votes."
      },
      "getWalletAddress(address)": {
        "params": {
          "account": "The address of the account to get the wallet address for"
        },
        "return": "Wallet address"
      },
      "isAccount(address)": {
        "params": {
          "account": "The address of the account"
        },
        "return": "Returns `true` if account exists. Returns `false` otherwise."
      },
      "isAuthorizedSigner(address)": {
        "params": {
          "signer": "The possibly authorized address."
        },
        "return": "Returns `true` if authorized. Returns `false` otherwise."
      },
      "isOwner()": {
        "return": "true if `msg.sender` is the owner of the contract."
      },
      "owner()": {
        "return": "the address of the owner."
      },
      "renounceOwnership()": {
        "details": "Allows the current owner to relinquish control of the contract. It will not be possible to call the functions with the `onlyOwner` modifier anymore."
      },
      "setAccount(string,bytes,address)": {
        "params": {
          "dataEncryptionKey": "secp256k1 public key for data encryption. Preferably compressed.",
          "name": "A string to set as the name of the account",
          "walletAddress": "The wallet address to set for the account"
        }
      },
      "setAccountDataEncryptionKey(bytes)": {
        "params": {
          "dataEncryptionKey": "secp256k1 public key for data encryption. Preferably compressed."
        }
      },
      "setMetadataURL(string)": {
        "params": {
          "metadataURL": "The URL to access the metadata."
        }
      },
      "setName(string)": {
        "params": {
          "name": "The name to set."
        }
      },
      "setRegistry(address)": {
        "params": {
          "registryAddress": "The address of a registry contract for routing to other contracts."
        }
      },
      "setWalletAddress(address)": {
        "params": {
          "walletAddress": "The wallet address to set for the account"
        }
      },
      "signerToAccount(address)": {
        "details": "Fails if the `signer` is not an account or previously authorized signer.",
        "params": {
          "signer": "The address of the account or previously authorized signer."
        },
        "return": "The associated account."
      },
      "transferOwnership(address)": {
        "details": "Allows the current owner to transfer control of the contract to a newOwner.",
        "params": {
          "newOwner": "The address to transfer ownership to."
        }
      },
      "validatorSignerToAccount(address)": {
        "details": "Fails if the `signer` is not an account or currently authorized validator.",
        "params": {
          "signer": "The address of an account or currently authorized validator signer."
        },
        "return": "The associated account."
      },
      "voteSignerToAccount(address)": {
        "details": "Fails if the `signer` is not an account or currently authorized vote signer.",
        "params": {
          "signer": "The address of the account or currently authorized vote signer."
        },
        "return": "The associated account."
      }
    }
  },
  "userdoc": {
    "methods": {
      "attestationSignerToAccount(address)": {
        "notice": "Returns the account associated with `signer`."
      },
      "authorizeAttestationSigner(address,uint8,bytes32,bytes32)": {
        "notice": "Authorizes an address to sign attestations on behalf of the account."
      },
      "authorizeValidatorSigner(address,bytes,uint8,bytes32,bytes32)": {
        "notice": "Authorizes an address to sign consensus messages on behalf of the account."
      },
      "authorizeValidatorSigner(address,uint8,bytes32,bytes32)": {
        "notice": "Authorizes an address to sign consensus messages on behalf of the account."
      },
      "authorizeVoteSigner(address,uint8,bytes32,bytes32)": {
        "notice": "Authorizes an address to sign votes on behalf of the account."
      },
      "batchGetMetadataURL(address[])": {
        "notice": "Getter for the metadata of multiple accounts."
      },
      "createAccount()": {
        "notice": "Creates an account."
      },
      "getAttestationSigner(address)": {
        "notice": "Returns the attestation signer for the specified account."
      },
      "getDataEncryptionKey(address)": {
        "notice": "Getter for the data encryption key and version."
      },
      "getMetadataURL(address)": {
        "notice": "Getter for the metadata of an account."
      },
      "getName(address)": {
        "notice": "Getter for the name of an account."
      },
      "getValidatorSigner(address)": {
        "notice": "Returns the validator signer for the specified account."
      },
      "getVoteSigner(address)": {
        "notice": "Returns the vote signer for the specified account."
      },
      "getWalletAddress(address)": {
        "notice": "Getter for the wallet address for an account"
      },
      "isAccount(address)": {
        "notice": "Check if an account already exists."
      },
      "isAuthorizedSigner(address)": {
        "notice": "Check if an address has been an authorized signer for an account."
      },
      "renounceOwnership()": {
        "notice": "Renouncing ownership will leave the contract without an owner, thereby removing any functionality that is only available to the owner."
      },
      "setAccount(string,bytes,address)": {
        "notice": "Convenience Setter for the dataEncryptionKey and wallet address for an account"
      },
      "setAccountDataEncryptionKey(bytes)": {
        "notice": "Setter for the data encryption key and version."
      },
      "setMetadataURL(string)": {
        "notice": "Setter for the metadata of an account."
      },
      "setName(string)": {
        "notice": "Setter for the name of an account."
      },
      "setRegistry(address)": {
        "notice": "Updates the address pointing to a Registry contract."
      },
      "setWalletAddress(address)": {
        "notice": "Setter for the wallet address for an account"
      },
      "signerToAccount(address)": {
        "notice": "Returns the account associated with `signer`."
      },
      "validatorSignerToAccount(address)": {
        "notice": "Returns the account associated with `signer`."
      },
      "voteSignerToAccount(address)": {
        "notice": "Returns the account associated with `signer`."
      }
    }
  }
}