{
  "contractName": "AddressSortedLinkedList",
  "abi": [
    {
      "constant": true,
      "inputs": [
        {
          "name": "a",
          "type": "address"
        }
      ],
      "name": "toBytes",
      "outputs": [
        {
          "name": "",
          "type": "bytes32"
        }
      ],
      "payable": false,
      "stateMutability": "pure",
      "type": "function"
    },
    {
      "constant": true,
      "inputs": [
        {
          "name": "b",
          "type": "bytes32"
        }
      ],
      "name": "toAddress",
      "outputs": [
        {
          "name": "",
          "type": "address"
        }
      ],
      "payable": false,
      "stateMutability": "pure",
      "type": "function"
    }
  ],
  "bytecode": "0x610ea8610026600b82828239805160001a60731461001957fe5b30600052607381538281f3fe73000000000000000000000000000000000000000030146080604052600436106100b35760003560e01c806342b6351a1161007b57806342b6351a1461030f578063593b79fe1461036557806369b317e3146103bd578063cab455ae14610488578063dcb2a4dd1461052d578063e0fe44b3146105ba576100b3565b806302f13028146100b8578063281359291461011e5780632dedbbf014610179578063341f66231461021e5780633a72e8021461028c575b600080fd5b610104600480360360408110156100ce57600080fd5b8101908080359060200190929190803573ffffffffffffffffffffffffffffffffffffffff16906020019092919050505061061c565b604051808215151515815260200191505060405180910390f35b81801561012a57600080fd5b506101776004803603604081101561014157600080fd5b8101908080359060200190929190803573ffffffffffffffffffffffffffffffffffffffff1690602001909291905050506106c2565b005b81801561018557600080fd5b5061021c600480360360a081101561019c57600080fd5b8101908080359060200190929190803573ffffffffffffffffffffffffffffffffffffffff16906020019092919080359060200190929190803573ffffffffffffffffffffffffffffffffffffffff169060200190929190803573ffffffffffffffffffffffffffffffffffffffff16906020019092919050505061073f565b005b61024a6004803603602081101561023457600080fd5b81019080803590602001909291905050506107e7565b604051808273ffffffffffffffffffffffffffffffffffffffff1673ffffffffffffffffffffffffffffffffffffffff16815260200191505060405180910390f35b6102b8600480360360208110156102a257600080fd5b81019080803590602001909291905050506107f8565b6040518080602001828103825283818151815260200191508051906020019060200280838360005b838110156102fb5780820151818401526020810190506102e0565b505050509050019250505060405180910390f35b61034f6004803603606081101561032557600080fd5b81019080803590602001909291908035906020019092919080359060200190929190505050610812565b6040518082815260200191505060405180910390f35b6103a76004803603602081101561037b57600080fd5b81019080803573ffffffffffffffffffffffffffffffffffffffff169060200190929190505050610921565b6040518082815260200191505060405180910390f35b6103e9600480360360208110156103d357600080fd5b8101908080359060200190929190505050610948565b604051808060200180602001838103835285818151815260200191508051906020019060200280838360005b83811015610430578082015181840152602081019050610415565b50505050905001838103825284818151815260200191508051906020019060200280838360005b83811015610472578082015181840152602081019050610457565b5050505090500194505050505060405180910390f35b81801561049457600080fd5b5061052b600480360360a08110156104ab57600080fd5b8101908080359060200190929190803573ffffffffffffffffffffffffffffffffffffffff16906020019092919080359060200190929190803573ffffffffffffffffffffffffffffffffffffffff169060200190929190803573ffffffffffffffffffffffffffffffffffffffff169060200190929190505050610b69565b005b6105636004803603604081101561054357600080fd5b810190808035906020019092919080359060200190929190505050610c11565b6040518080602001828103825283818151815260200191508051906020019060200280838360005b838110156105a657808201518184015260208101905061058b565b505050509050019250505060405180910390f35b610606600480360360408110156105d057600080fd5b8101908080359060200190929190803573ffffffffffffffffffffffffffffffffffffffff169060200190929190505050610dbd565b6040518082815260200191505060405180910390f35b60008273__SortedLinkedList______________________63809a6bfd909161064485610921565b6040518363ffffffff1660e01b8152600401808381526020018281526020019250505060206040518083038186803b15801561067f57600080fd5b505af4158015610693573d6000803e3d6000fd5b505050506040513d60208110156106a957600080fd5b8101908080519060200190929190505050905092915050565b8173__SortedLinkedList______________________63530c2c8490916106e884610921565b6040518363ffffffff1660e01b8152600401808381526020018281526020019250505060006040518083038186803b15801561072357600080fd5b505af4158015610737573d6000803e3d6000fd5b505050505050565b8473__SortedLinkedList______________________63caf2014d909161076587610921565b8661076f87610921565b61077887610921565b6040518663ffffffff1660e01b8152600401808681526020018581526020018481526020018381526020018281526020019550505050505060006040518083038186803b1580156107c857600080fd5b505af41580156107dc573d6000803e3d6000fd5b505050505050505050565b600060608260001c901c9050919050565b606061080b828360000160020154610c11565b9050919050565b600080610826838660000160020154610e63565b905060008560000160000154905060008090505b8281101561091357858773__SortedLinkedList______________________630d48ec0c9091856040518363ffffffff1660e01b8152600401808381526020018281526020019250505060206040518083038186803b15801561089c57600080fd5b505af41580156108b0573d6000803e3d6000fd5b505050506040513d60208110156108c657600080fd5b810190808051906020019092919050505010156108e85780935050505061091a565b866000016003016000838152602001908152602001600020600001549150808060010191505061083a565b5081925050505b9392505050565b600060608273ffffffffffffffffffffffffffffffffffffffff16901b60001b9050919050565b60608060608373__SortedLinkedList______________________633a72e80290916040518263ffffffff1660e01b81526004018082815260200191505060006040518083038186803b15801561099e57600080fd5b505af41580156109b2573d6000803e3d6000fd5b505050506040513d6000823e3d601f19601f8201168201806040525060208110156109dc57600080fd5b8101908080516401000000008111156109f457600080fd5b82810190506020810184811115610a0a57600080fd5b8151856020820283011164010000000082111715610a2757600080fd5b5050929190505050905060608151604051908082528060200260200182016040528015610a635781602001602082028038833980820191505090505b50905060608251604051908082528060200260200182016040528015610a985781602001602082028038833980820191505090505b50905060008090505b8351811015610b5a57610ac6848281518110610ab957fe5b60200260200101516107e7565b838281518110610ad257fe5b602002602001019073ffffffffffffffffffffffffffffffffffffffff16908173ffffffffffffffffffffffffffffffffffffffff1681525050866004016000858381518110610b1e57fe5b6020026020010151815260200190815260200160002054828281518110610b4157fe5b6020026020010181815250508080600101915050610aa1565b50818194509450505050915091565b8473__SortedLinkedList______________________631fd6b4f89091610b8f87610921565b86610b9987610921565b610ba287610921565b6040518663ffffffff1660e01b8152600401808681526020018581526020018481526020018381526020018281526020019550505050505060006040518083038186803b158015610bf257600080fd5b505af4158015610c06573d6000803e3d6000fd5b505050505050505050565b6060808373__SortedLinkedList______________________63dcb2a4dd9091856040518363ffffffff1660e01b8152600401808381526020018281526020019250505060006040518083038186803b158015610c6d57600080fd5b505af4158015610c81573d6000803e3d6000fd5b505050506040513d6000823e3d601f19601f820116820180604052506020811015610cab57600080fd5b810190808051640100000000811115610cc357600080fd5b82810190506020810184811115610cd957600080fd5b8151856020820283011164010000000082111715610cf657600080fd5b50509291905050509050606083604051908082528060200260200182016040528015610d315781602001602082028038833980820191505090505b50905060008090505b84811015610db157610d5e838281518110610d5157fe5b60200260200101516107e7565b828281518110610d6a57fe5b602002602001019073ffffffffffffffffffffffffffffffffffffffff16908173ffffffffffffffffffffffffffffffffffffffff16815250508080600101915050610d3a565b50809250505092915050565b60008273__SortedLinkedList______________________630d48ec0c9091610de585610921565b6040518363ffffffff1660e01b8152600401808381526020018281526020019250505060206040518083038186803b158015610e2057600080fd5b505af4158015610e34573d6000803e3d6000fd5b505050506040513d6020811015610e4a57600080fd5b8101908080519060200190929190505050905092915050565b6000818310610e725781610e74565b825b90509291505056fea165627a7a723058206cc5eb525d8bf8dd23b3438e720d491c53253ac257f6c81372a26674c826d8170029",
  "source": "pragma solidity ^0.5.3;\n\nimport \"openzeppelin-solidity/contracts/math/Math.sol\";\nimport \"openzeppelin-solidity/contracts/math/SafeMath.sol\";\nimport \"./AddressLinkedList.sol\";\nimport \"./SortedLinkedList.sol\";\n\n/**\n * @title Maintains a sorted list of unsigned ints keyed by address.\n */\nlibrary AddressSortedLinkedList {\n  using SortedLinkedList for SortedLinkedList.List;\n\n  function toBytes(address a) public pure returns (bytes32) {\n    return bytes32(uint256(a) << 96);\n  }\n\n  function toAddress(bytes32 b) public pure returns (address) {\n    return address(uint256(b) >> 96);\n  }\n\n  /**\n   * @notice Inserts an element into a doubly linked list.\n   * @param key The key of the element to insert.\n   * @param value The element value.\n   * @param lesserKey The key of the element less than the element to insert.\n   * @param greaterKey The key of the element greater than the element to insert.\n   */\n  function insert(\n    SortedLinkedList.List storage list,\n    address key,\n    uint256 value,\n    address lesserKey,\n    address greaterKey\n  ) public {\n    list.insert(toBytes(key), value, toBytes(lesserKey), toBytes(greaterKey));\n  }\n\n  /**\n   * @notice Removes an element from the doubly linked list.\n   * @param key The key of the element to remove.\n   */\n  function remove(SortedLinkedList.List storage list, address key) public {\n    list.remove(toBytes(key));\n  }\n\n  /**\n   * @notice Updates an element in the list.\n   * @param key The element key.\n   * @param value The element value.\n   * @param lesserKey The key of the element will be just left of `key` after the update.\n   * @param greaterKey The key of the element will be just right of `key` after the update.\n   * @dev Note that only one of \"lesserKey\" or \"greaterKey\" needs to be correct to reduce friction.\n   */\n  function update(\n    SortedLinkedList.List storage list,\n    address key,\n    uint256 value,\n    address lesserKey,\n    address greaterKey\n  ) public {\n    list.update(toBytes(key), value, toBytes(lesserKey), toBytes(greaterKey));\n  }\n\n  /**\n   * @notice Returns whether or not a particular key is present in the sorted list.\n   * @param key The element key.\n   * @return Whether or not the key is in the sorted list.\n   */\n  function contains(SortedLinkedList.List storage list, address key) public view returns (bool) {\n    return list.contains(toBytes(key));\n  }\n\n  /**\n   * @notice Returns the value for a particular key in the sorted list.\n   * @param key The element key.\n   * @return The element value.\n   */\n  function getValue(SortedLinkedList.List storage list, address key) public view returns (uint256) {\n    return list.getValue(toBytes(key));\n  }\n\n  /**\n   * @notice Gets all elements from the doubly linked list.\n   * @return An unpacked list of elements from largest to smallest.\n   */\n  function getElements(SortedLinkedList.List storage list)\n    public\n    view\n    returns (address[] memory, uint256[] memory)\n  {\n    bytes32[] memory byteKeys = list.getKeys();\n    address[] memory keys = new address[](byteKeys.length);\n    uint256[] memory values = new uint256[](byteKeys.length);\n    for (uint256 i = 0; i < byteKeys.length; i++) {\n      keys[i] = toAddress(byteKeys[i]);\n      values[i] = list.values[byteKeys[i]];\n    }\n    return (keys, values);\n  }\n\n  /**\n   * @notice Returns the minimum of `max` and the  number of elements in the list > threshold.\n   * @param threshold The number that the element must exceed to be included.\n   * @param max The maximum number returned by this function.\n   * @return The minimum of `max` and the  number of elements in the list > threshold.\n   */\n  function numElementsGreaterThan(\n    SortedLinkedList.List storage list,\n    uint256 threshold,\n    uint256 max\n  ) public view returns (uint256) {\n    uint256 revisedMax = Math.min(max, list.list.numElements);\n    bytes32 key = list.list.head;\n    for (uint256 i = 0; i < revisedMax; i++) {\n      if (list.getValue(key) < threshold) {\n        return i;\n      }\n      key = list.list.elements[key].previousKey;\n    }\n    return revisedMax;\n  }\n\n  /**\n   * @notice Returns the N greatest elements of the list.\n   * @param n The number of elements to return.\n   * @return The keys of the greatest elements.\n   */\n  function headN(SortedLinkedList.List storage list, uint256 n)\n    public\n    view\n    returns (address[] memory)\n  {\n    bytes32[] memory byteKeys = list.headN(n);\n    address[] memory keys = new address[](n);\n    for (uint256 i = 0; i < n; i++) {\n      keys[i] = toAddress(byteKeys[i]);\n    }\n    return keys;\n  }\n\n  /**\n   * @notice Gets all element keys from the doubly linked list.\n   * @return All element keys from head to tail.\n   */\n  function getKeys(SortedLinkedList.List storage list) public view returns (address[] memory) {\n    return headN(list, list.list.numElements);\n  }\n}\n",
  "sourcePath": "/Users/cmcewen/celo/celo-monorepo/packages/protocol/contracts/common/linkedlists/AddressSortedLinkedList.sol",
  "compiler": {
    "name": "solc",
    "version": "0.5.8+commit.23d335f2.Emscripten.clang"
  },
  "schemaVersion": "3.0.10",
  "updatedAt": "2019-12-06T00:02:49.972Z",
  "devdoc": {
    "methods": {
      "contains(SortedLinkedList.List storage,address)": {
        "params": {
          "key": "The element key."
        },
        "return": "Whether or not the key is in the sorted list."
      },
      "getElements(SortedLinkedList.List storage)": {
        "return": "An unpacked list of elements from largest to smallest."
      },
      "getKeys(SortedLinkedList.List storage)": {
        "return": "All element keys from head to tail."
      },
      "getValue(SortedLinkedList.List storage,address)": {
        "params": {
          "key": "The element key."
        },
        "return": "The element value."
      },
      "headN(SortedLinkedList.List storage,uint256)": {
        "params": {
          "n": "The number of elements to return."
        },
        "return": "The keys of the greatest elements."
      },
      "insert(SortedLinkedList.List storage,address,uint256,address,address)": {
        "params": {
          "greaterKey": "The key of the element greater than the element to insert.",
          "key": "The key of the element to insert.",
          "lesserKey": "The key of the element less than the element to insert.",
          "value": "The element value."
        }
      },
      "numElementsGreaterThan(SortedLinkedList.List storage,uint256,uint256)": {
        "params": {
          "max": "The maximum number returned by this function.",
          "threshold": "The number that the element must exceed to be included."
        },
        "return": "The minimum of `max` and the  number of elements in the list > threshold."
      },
      "remove(SortedLinkedList.List storage,address)": {
        "params": {
          "key": "The key of the element to remove."
        }
      },
      "update(SortedLinkedList.List storage,address,uint256,address,address)": {
        "details": "Note that only one of \"lesserKey\" or \"greaterKey\" needs to be correct to reduce friction.",
        "params": {
          "greaterKey": "The key of the element will be just right of `key` after the update.",
          "key": "The element key.",
          "lesserKey": "The key of the element will be just left of `key` after the update.",
          "value": "The element value."
        }
      }
    },
    "title": "Maintains a sorted list of unsigned ints keyed by address."
  },
  "userdoc": {
    "methods": {
      "contains(SortedLinkedList.List storage,address)": {
        "notice": "Returns whether or not a particular key is present in the sorted list."
      },
      "getElements(SortedLinkedList.List storage)": {
        "notice": "Gets all elements from the doubly linked list."
      },
      "getKeys(SortedLinkedList.List storage)": {
        "notice": "Gets all element keys from the doubly linked list."
      },
      "getValue(SortedLinkedList.List storage,address)": {
        "notice": "Returns the value for a particular key in the sorted list."
      },
      "headN(SortedLinkedList.List storage,uint256)": {
        "notice": "Returns the N greatest elements of the list."
      },
      "insert(SortedLinkedList.List storage,address,uint256,address,address)": {
        "notice": "Inserts an element into a doubly linked list."
      },
      "numElementsGreaterThan(SortedLinkedList.List storage,uint256,uint256)": {
        "notice": "Returns the minimum of `max` and the  number of elements in the list > threshold."
      },
      "remove(SortedLinkedList.List storage,address)": {
        "notice": "Removes an element from the doubly linked list."
      },
      "update(SortedLinkedList.List storage,address,uint256,address,address)": {
        "notice": "Updates an element in the list."
      }
    }
  }
}