{
  "contractName": "Attestations",
  "abi": [
    {
      "constant": true,
      "inputs": [
        {
          "name": "index",
          "type": "uint256"
        }
      ],
      "name": "validatorAddressFromCurrentSet",
      "outputs": [
        {
          "name": "",
          "type": "address"
        }
      ],
      "payable": false,
      "stateMutability": "view",
      "type": "function"
    },
    {
      "constant": true,
      "inputs": [],
      "name": "initialized",
      "outputs": [
        {
          "name": "",
          "type": "bool"
        }
      ],
      "payable": false,
      "stateMutability": "view",
      "type": "function"
    },
    {
      "constant": false,
      "inputs": [
        {
          "name": "sender",
          "type": "address"
        },
        {
          "name": "blsKey",
          "type": "bytes"
        },
        {
          "name": "blsPop",
          "type": "bytes"
        }
      ],
      "name": "checkProofOfPossession",
      "outputs": [
        {
          "name": "",
          "type": "bool"
        }
      ],
      "payable": false,
      "stateMutability": "nonpayable",
      "type": "function"
    },
    {
      "constant": false,
      "inputs": [],
      "name": "renounceOwnership",
      "outputs": [],
      "payable": false,
      "stateMutability": "nonpayable",
      "type": "function"
    },
    {
      "constant": true,
      "inputs": [],
      "name": "registry",
      "outputs": [
        {
          "name": "",
          "type": "address"
        }
      ],
      "payable": false,
      "stateMutability": "view",
      "type": "function"
    },
    {
      "constant": true,
      "inputs": [],
      "name": "numberValidatorsInCurrentSet",
      "outputs": [
        {
          "name": "",
          "type": "uint256"
        }
      ],
      "payable": false,
      "stateMutability": "view",
      "type": "function"
    },
    {
      "constant": true,
      "inputs": [],
      "name": "selectIssuersWaitBlocks",
      "outputs": [
        {
          "name": "",
          "type": "uint256"
        }
      ],
      "payable": false,
      "stateMutability": "view",
      "type": "function"
    },
    {
      "constant": true,
      "inputs": [],
      "name": "owner",
      "outputs": [
        {
          "name": "",
          "type": "address"
        }
      ],
      "payable": false,
      "stateMutability": "view",
      "type": "function"
    },
    {
      "constant": true,
      "inputs": [],
      "name": "isOwner",
      "outputs": [
        {
          "name": "",
          "type": "bool"
        }
      ],
      "payable": false,
      "stateMutability": "view",
      "type": "function"
    },
    {
      "constant": true,
      "inputs": [],
      "name": "getEpochNumber",
      "outputs": [
        {
          "name": "",
          "type": "uint256"
        }
      ],
      "payable": false,
      "stateMutability": "view",
      "type": "function"
    },
    {
      "constant": false,
      "inputs": [
        {
          "name": "registryAddress",
          "type": "address"
        }
      ],
      "name": "setRegistry",
      "outputs": [],
      "payable": false,
      "stateMutability": "nonpayable",
      "type": "function"
    },
    {
      "constant": true,
      "inputs": [],
      "name": "attestationExpiryBlocks",
      "outputs": [
        {
          "name": "",
          "type": "uint256"
        }
      ],
      "payable": false,
      "stateMutability": "view",
      "type": "function"
    },
    {
      "constant": true,
      "inputs": [
        {
          "name": "",
          "type": "address"
        }
      ],
      "name": "attestationRequestFees",
      "outputs": [
        {
          "name": "",
          "type": "uint256"
        }
      ],
      "payable": false,
      "stateMutability": "view",
      "type": "function"
    },
    {
      "constant": true,
      "inputs": [],
      "name": "getEpochSize",
      "outputs": [
        {
          "name": "",
          "type": "uint256"
        }
      ],
      "payable": false,
      "stateMutability": "view",
      "type": "function"
    },
    {
      "constant": true,
      "inputs": [
        {
          "name": "",
          "type": "address"
        },
        {
          "name": "",
          "type": "address"
        }
      ],
      "name": "pendingWithdrawals",
      "outputs": [
        {
          "name": "",
          "type": "uint256"
        }
      ],
      "payable": false,
      "stateMutability": "view",
      "type": "function"
    },
    {
      "constant": true,
      "inputs": [
        {
          "name": "aNumerator",
          "type": "uint256"
        },
        {
          "name": "aDenominator",
          "type": "uint256"
        },
        {
          "name": "bNumerator",
          "type": "uint256"
        },
        {
          "name": "bDenominator",
          "type": "uint256"
        },
        {
          "name": "exponent",
          "type": "uint256"
        },
        {
          "name": "_decimals",
          "type": "uint256"
        }
      ],
      "name": "fractionMulExp",
      "outputs": [
        {
          "name": "",
          "type": "uint256"
        },
        {
          "name": "",
          "type": "uint256"
        }
      ],
      "payable": false,
      "stateMutability": "view",
      "type": "function"
    },
    {
      "constant": false,
      "inputs": [
        {
          "name": "newOwner",
          "type": "address"
        }
      ],
      "name": "transferOwnership",
      "outputs": [],
      "payable": false,
      "stateMutability": "nonpayable",
      "type": "function"
    },
    {
      "anonymous": false,
      "inputs": [
        {
          "indexed": true,
          "name": "identifier",
          "type": "bytes32"
        },
        {
          "indexed": true,
          "name": "account",
          "type": "address"
        },
        {
          "indexed": false,
          "name": "attestationsRequested",
          "type": "uint256"
        },
        {
          "indexed": false,
          "name": "attestationRequestFeeToken",
          "type": "address"
        }
      ],
      "name": "AttestationsRequested",
      "type": "event"
    },
    {
      "anonymous": false,
      "inputs": [
        {
          "indexed": true,
          "name": "identifier",
          "type": "bytes32"
        },
        {
          "indexed": true,
          "name": "account",
          "type": "address"
        },
        {
          "indexed": true,
          "name": "issuer",
          "type": "address"
        },
        {
          "indexed": false,
          "name": "attestationRequestFeeToken",
          "type": "address"
        }
      ],
      "name": "AttestationIssuerSelected",
      "type": "event"
    },
    {
      "anonymous": false,
      "inputs": [
        {
          "indexed": true,
          "name": "identifier",
          "type": "bytes32"
        },
        {
          "indexed": true,
          "name": "account",
          "type": "address"
        },
        {
          "indexed": true,
          "name": "issuer",
          "type": "address"
        }
      ],
      "name": "AttestationCompleted",
      "type": "event"
    },
    {
      "anonymous": false,
      "inputs": [
        {
          "indexed": true,
          "name": "account",
          "type": "address"
        },
        {
          "indexed": true,
          "name": "token",
          "type": "address"
        },
        {
          "indexed": false,
          "name": "amount",
          "type": "uint256"
        }
      ],
      "name": "Withdrawal",
      "type": "event"
    },
    {
      "anonymous": false,
      "inputs": [
        {
          "indexed": false,
          "name": "value",
          "type": "uint256"
        }
      ],
      "name": "AttestationExpiryBlocksSet",
      "type": "event"
    },
    {
      "anonymous": false,
      "inputs": [
        {
          "indexed": true,
          "name": "token",
          "type": "address"
        },
        {
          "indexed": false,
          "name": "value",
          "type": "uint256"
        }
      ],
      "name": "AttestationRequestFeeSet",
      "type": "event"
    },
    {
      "anonymous": false,
      "inputs": [
        {
          "indexed": false,
          "name": "value",
          "type": "uint256"
        }
      ],
      "name": "SelectIssuersWaitBlocksSet",
      "type": "event"
    },
    {
      "anonymous": false,
      "inputs": [
        {
          "indexed": true,
          "name": "registryAddress",
          "type": "address"
        }
      ],
      "name": "RegistrySet",
      "type": "event"
    },
    {
      "anonymous": false,
      "inputs": [
        {
          "indexed": true,
          "name": "previousOwner",
          "type": "address"
        },
        {
          "indexed": true,
          "name": "newOwner",
          "type": "address"
        }
      ],
      "name": "OwnershipTransferred",
      "type": "event"
    },
    {
      "constant": false,
      "inputs": [
        {
          "name": "registryAddress",
          "type": "address"
        },
        {
          "name": "_attestationExpiryBlocks",
          "type": "uint256"
        },
        {
          "name": "_selectIssuersWaitBlocks",
          "type": "uint256"
        },
        {
          "name": "attestationRequestFeeTokens",
          "type": "address[]"
        },
        {
          "name": "attestationRequestFeeValues",
          "type": "uint256[]"
        }
      ],
      "name": "initialize",
      "outputs": [],
      "payable": false,
      "stateMutability": "nonpayable",
      "type": "function"
    },
    {
      "constant": false,
      "inputs": [
        {
          "name": "identifier",
          "type": "bytes32"
        },
        {
          "name": "attestationsRequested",
          "type": "uint256"
        },
        {
          "name": "attestationRequestFeeToken",
          "type": "address"
        }
      ],
      "name": "request",
      "outputs": [],
      "payable": false,
      "stateMutability": "nonpayable",
      "type": "function"
    },
    {
      "constant": false,
      "inputs": [
        {
          "name": "identifier",
          "type": "bytes32"
        }
      ],
      "name": "selectIssuers",
      "outputs": [],
      "payable": false,
      "stateMutability": "nonpayable",
      "type": "function"
    },
    {
      "constant": false,
      "inputs": [
        {
          "name": "identifier",
          "type": "bytes32"
        },
        {
          "name": "v",
          "type": "uint8"
        },
        {
          "name": "r",
          "type": "bytes32"
        },
        {
          "name": "s",
          "type": "bytes32"
        }
      ],
      "name": "complete",
      "outputs": [],
      "payable": false,
      "stateMutability": "nonpayable",
      "type": "function"
    },
    {
      "constant": false,
      "inputs": [
        {
          "name": "identifier",
          "type": "bytes32"
        },
        {
          "name": "index",
          "type": "uint256"
        }
      ],
      "name": "revoke",
      "outputs": [],
      "payable": false,
      "stateMutability": "nonpayable",
      "type": "function"
    },
    {
      "constant": false,
      "inputs": [
        {
          "name": "token",
          "type": "address"
        }
      ],
      "name": "withdraw",
      "outputs": [],
      "payable": false,
      "stateMutability": "nonpayable",
      "type": "function"
    },
    {
      "constant": true,
      "inputs": [
        {
          "name": "identifier",
          "type": "bytes32"
        },
        {
          "name": "account",
          "type": "address"
        }
      ],
      "name": "getUnselectedRequest",
      "outputs": [
        {
          "name": "",
          "type": "uint32"
        },
        {
          "name": "",
          "type": "uint32"
        },
        {
          "name": "",
          "type": "address"
        }
      ],
      "payable": false,
      "stateMutability": "view",
      "type": "function"
    },
    {
      "constant": true,
      "inputs": [
        {
          "name": "identifier",
          "type": "bytes32"
        },
        {
          "name": "account",
          "type": "address"
        }
      ],
      "name": "getAttestationIssuers",
      "outputs": [
        {
          "name": "",
          "type": "address[]"
        }
      ],
      "payable": false,
      "stateMutability": "view",
      "type": "function"
    },
    {
      "constant": true,
      "inputs": [
        {
          "name": "identifier",
          "type": "bytes32"
        },
        {
          "name": "account",
          "type": "address"
        }
      ],
      "name": "getAttestationStats",
      "outputs": [
        {
          "name": "",
          "type": "uint32"
        },
        {
          "name": "",
          "type": "uint32"
        }
      ],
      "payable": false,
      "stateMutability": "view",
      "type": "function"
    },
    {
      "constant": true,
      "inputs": [
        {
          "name": "identifiersToLookup",
          "type": "bytes32[]"
        }
      ],
      "name": "batchGetAttestationStats",
      "outputs": [
        {
          "name": "",
          "type": "uint256[]"
        },
        {
          "name": "",
          "type": "address[]"
        },
        {
          "name": "",
          "type": "uint64[]"
        },
        {
          "name": "",
          "type": "uint64[]"
        }
      ],
      "payable": false,
      "stateMutability": "view",
      "type": "function"
    },
    {
      "constant": true,
      "inputs": [
        {
          "name": "identifier",
          "type": "bytes32"
        },
        {
          "name": "account",
          "type": "address"
        },
        {
          "name": "issuer",
          "type": "address"
        }
      ],
      "name": "getAttestationState",
      "outputs": [
        {
          "name": "",
          "type": "uint8"
        },
        {
          "name": "",
          "type": "uint32"
        },
        {
          "name": "",
          "type": "address"
        }
      ],
      "payable": false,
      "stateMutability": "view",
      "type": "function"
    },
    {
      "constant": true,
      "inputs": [
        {
          "name": "identifier",
          "type": "bytes32"
        },
        {
          "name": "account",
          "type": "address"
        }
      ],
      "name": "getCompletableAttestations",
      "outputs": [
        {
          "name": "",
          "type": "uint32[]"
        },
        {
          "name": "",
          "type": "address[]"
        },
        {
          "name": "",
          "type": "uint256[]"
        },
        {
          "name": "",
          "type": "bytes"
        }
      ],
      "payable": false,
      "stateMutability": "view",
      "type": "function"
    },
    {
      "constant": true,
      "inputs": [
        {
          "name": "token",
          "type": "address"
        }
      ],
      "name": "getAttestationRequestFee",
      "outputs": [
        {
          "name": "",
          "type": "uint256"
        }
      ],
      "payable": false,
      "stateMutability": "view",
      "type": "function"
    },
    {
      "constant": false,
      "inputs": [
        {
          "name": "token",
          "type": "address"
        },
        {
          "name": "fee",
          "type": "uint256"
        }
      ],
      "name": "setAttestationRequestFee",
      "outputs": [],
      "payable": false,
      "stateMutability": "nonpayable",
      "type": "function"
    },
    {
      "constant": false,
      "inputs": [
        {
          "name": "_attestationExpiryBlocks",
          "type": "uint256"
        }
      ],
      "name": "setAttestationExpiryBlocks",
      "outputs": [],
      "payable": false,
      "stateMutability": "nonpayable",
      "type": "function"
    },
    {
      "constant": false,
      "inputs": [
        {
          "name": "_selectIssuersWaitBlocks",
          "type": "uint256"
        }
      ],
      "name": "setSelectIssuersWaitBlocks",
      "outputs": [],
      "payable": false,
      "stateMutability": "nonpayable",
      "type": "function"
    },
    {
      "constant": true,
      "inputs": [
        {
          "name": "identifier",
          "type": "bytes32"
        },
        {
          "name": "account",
          "type": "address"
        },
        {
          "name": "v",
          "type": "uint8"
        },
        {
          "name": "r",
          "type": "bytes32"
        },
        {
          "name": "s",
          "type": "bytes32"
        }
      ],
      "name": "validateAttestationCode",
      "outputs": [
        {
          "name": "",
          "type": "address"
        }
      ],
      "payable": false,
      "stateMutability": "view",
      "type": "function"
    },
    {
      "constant": true,
      "inputs": [
        {
          "name": "identifier",
          "type": "bytes32"
        }
      ],
      "name": "lookupAccountsForIdentifier",
      "outputs": [
        {
          "name": "",
          "type": "address[]"
        }
      ],
      "payable": false,
      "stateMutability": "view",
      "type": "function"
    }
  ],
  "bytecode": "0x6080604052336000806101000a81548173ffffffffffffffffffffffffffffffffffffffff021916908373ffffffffffffffffffffffffffffffffffffffff1602179055506000809054906101000a900473ffffffffffffffffffffffffffffffffffffffff1673ffffffffffffffffffffffffffffffffffffffff16600073ffffffffffffffffffffffffffffffffffffffff167f8be0079c531659141344cd1fd0a4f28419497f9722a3daafe3b4186f6b6457e060405160405180910390a36001600281905550614faa806100d76000396000f3fe608060405234801561001057600080fd5b50600436106102115760003560e01c80639a7b3be711610125578063df4da461116100ad578063e831be581161007c578063e831be5814610ff7578063ec6830721461106f578063f2fde38b146110ea578063f3ff26c61461112e578063fb6a2e531461117c57610211565b8063df4da46114610ec9578063e02659ce14610ee7578063e221932e14610f15578063e3d0f66f14610f4357610211565b8063b5599cc6116100f4578063b5599cc614610c11578063b71fb9cc14610cdf578063bb46942f14610de1578063bd93f99814610e19578063d02e0f0c14610e7157610211565b80639a7b3be714610b63578063a6437e7314610b81578063a91ee0dc14610baf578063b45eb7da14610bf357610211565b80635fc5c916116101a857806387ee8a0f1161017757806387ee8a0f1461091557806389d35286146109335780638da5cb5b146109515780638f32d59b1461099b57806396357c0a146109bd57610211565b80635fc5c916146107c6578063623d593114610869578063715018a6146108c15780637b103999146108cb57610211565b80634eef7e85116101e45780634eef7e85146104b357806351cff8d914610652578063596abea5146106965780635ce9bc071461071757610211565b806303cc1aff1461021657806311fb9e8414610299578063158ef93e1461030757806323f0ab6514610329575b600080fd5b6102426004803603602081101561022c57600080fd5b81019080803590602001909291905050506111cb565b6040518080602001828103825283818151815260200191508051906020019060200280838360005b8381101561028557808201518184015260208101905061026a565b505050509050019250505060405180910390f35b6102c5600480360360208110156102af57600080fd5b810190808035906020019092919050505061126f565b604051808273ffffffffffffffffffffffffffffffffffffffff1673ffffffffffffffffffffffffffffffffffffffff16815260200191505060405180910390f35b61030f61129f565b604051808215151515815260200191505060405180910390f35b6104996004803603606081101561033f57600080fd5b81019080803573ffffffffffffffffffffffffffffffffffffffff1690602001909291908035906020019064010000000081111561037c57600080fd5b82018360208201111561038e57600080fd5b803590602001918460018302840111640100000000831117156103b057600080fd5b91908080601f016020809104026020016040519081016040528093929190818152602001838380828437600081840152601f19601f8201169050808301925050505050505091929192908035906020019064010000000081111561041357600080fd5b82018360208201111561042557600080fd5b8035906020019184600183028401116401000000008311171561044757600080fd5b91908080601f016020809104026020016040519081016040528093929190818152602001838380828437600081840152601f19601f8201169050808301925050505050505091929192905050506112b2565b604051808215151515815260200191505060405180910390f35b6104ff600480360360408110156104c957600080fd5b8101908080359060200190929190803573ffffffffffffffffffffffffffffffffffffffff169060200190929190505050611472565b6040518080602001806020018060200180602001858103855289818151815260200191508051906020019060200280838360005b8381101561054e578082015181840152602081019050610533565b50505050905001858103845288818151815260200191508051906020019060200280838360005b83811015610590578082015181840152602081019050610575565b50505050905001858103835287818151815260200191508051906020019060200280838360005b838110156105d25780820151818401526020810190506105b7565b50505050905001858103825286818151815260200191508051906020019080838360005b838110156106115780820151818401526020810190506105f6565b50505050905090810190601f16801561063e5780820380516001836020036101000a031916815260200191505b509850505050505050505060405180910390f35b6106946004803603602081101561066857600080fd5b81019080803573ffffffffffffffffffffffffffffffffffffffff1690602001909291905050506119aa565b005b6106e2600480360360408110156106ac57600080fd5b8101908080359060200190929190803573ffffffffffffffffffffffffffffffffffffffff169060200190929190505050611cc0565b604051808363ffffffff1663ffffffff1681526020018263ffffffff1663ffffffff1681526020019250505060405180910390f35b610784600480360360a081101561072d57600080fd5b8101908080359060200190929190803573ffffffffffffffffffffffffffffffffffffffff169060200190929190803560ff1690602001909291908035906020019092919080359060200190929190505050611d9c565b604051808273ffffffffffffffffffffffffffffffffffffffff1673ffffffffffffffffffffffffffffffffffffffff16815260200191505060405180910390f35b610812600480360360408110156107dc57600080fd5b8101908080359060200190929190803573ffffffffffffffffffffffffffffffffffffffff16906020019092919050505061212b565b6040518080602001828103825283818151815260200191508051906020019060200280838360005b8381101561085557808201518184015260208101905061083a565b505050509050019250505060405180910390f35b6108ab6004803603602081101561087f57600080fd5b81019080803573ffffffffffffffffffffffffffffffffffffffff169060200190929190505050612210565b6040518082815260200191505060405180910390f35b6108c9612259565b005b6108d3612329565b604051808273ffffffffffffffffffffffffffffffffffffffff1673ffffffffffffffffffffffffffffffffffffffff16815260200191505060405180910390f35b61091d61234f565b6040518082815260200191505060405180910390f35b61093b612374565b6040518082815260200191505060405180910390f35b61095961237a565b604051808273ffffffffffffffffffffffffffffffffffffffff1673ffffffffffffffffffffffffffffffffffffffff16815260200191505060405180910390f35b6109a36123a3565b604051808215151515815260200191505060405180910390f35b610a34600480360360208110156109d357600080fd5b81019080803590602001906401000000008111156109f057600080fd5b820183602082011115610a0257600080fd5b80359060200191846020830284011164010000000083111715610a2457600080fd5b90919293919293905050506123fa565b6040518080602001806020018060200180602001858103855289818151815260200191508051906020019060200280838360005b83811015610a83578082015181840152602081019050610a68565b50505050905001858103845288818151815260200191508051906020019060200280838360005b83811015610ac5578082015181840152602081019050610aaa565b50505050905001858103835287818151815260200191508051906020019060200280838360005b83811015610b07578082015181840152602081019050610aec565b50505050905001858103825286818151815260200191508051906020019060200280838360005b83811015610b49578082015181840152602081019050610b2e565b505050509050019850505050505050505060405180910390f35b610b6b6128da565b6040518082815260200191505060405180910390f35b610bad60048036036020811015610b9757600080fd5b8101908080359060200190929190505050612916565b005b610bf160048036036020811015610bc557600080fd5b81019080803573ffffffffffffffffffffffffffffffffffffffff1690602001909291905050506129c1565b005b610bfb612a59565b6040518082815260200191505060405180910390f35b610c7d60048036036060811015610c2757600080fd5b8101908080359060200190929190803573ffffffffffffffffffffffffffffffffffffffff169060200190929190803573ffffffffffffffffffffffffffffffffffffffff169060200190929190505050612a5f565b604051808460ff1660ff1681526020018363ffffffff1663ffffffff1681526020018273ffffffffffffffffffffffffffffffffffffffff1673ffffffffffffffffffffffffffffffffffffffff168152602001935050505060405180910390f35b610ddf600480360360a0811015610cf557600080fd5b81019080803573ffffffffffffffffffffffffffffffffffffffff169060200190929190803590602001909291908035906020019092919080359060200190640100000000811115610d4657600080fd5b820183602082011115610d5857600080fd5b80359060200191846020830284011164010000000083111715610d7a57600080fd5b909192939192939080359060200190640100000000811115610d9b57600080fd5b820183602082011115610dad57600080fd5b80359060200191846020830284011164010000000083111715610dcf57600080fd5b9091929391929390505050612b61565b005b610e1760048036036040811015610df757600080fd5b810190808035906020019092919080359060200190929190505050612ca1565b005b610e5b60048036036020811015610e2f57600080fd5b81019080803573ffffffffffffffffffffffffffffffffffffffff169060200190929190505050612f90565b6040518082815260200191505060405180910390f35b610ec760048036036060811015610e8757600080fd5b810190808035906020019092919080359060200190929190803573ffffffffffffffffffffffffffffffffffffffff169060200190929190505050612fa8565b005b610ed16136b4565b6040518082815260200191505060405180910390f35b610f1360048036036020811015610efd57600080fd5b81019080803590602001909291905050506136df565b005b610f4160048036036020811015610f2b57600080fd5b810190808035906020019092919050505061378a565b005b610f8f60048036036040811015610f5957600080fd5b8101908080359060200190929190803573ffffffffffffffffffffffffffffffffffffffff1690602001909291905050506139b3565b604051808463ffffffff1663ffffffff1681526020018363ffffffff1663ffffffff1681526020018273ffffffffffffffffffffffffffffffffffffffff1673ffffffffffffffffffffffffffffffffffffffff168152602001935050505060405180910390f35b6110596004803603604081101561100d57600080fd5b81019080803573ffffffffffffffffffffffffffffffffffffffff169060200190929190803573ffffffffffffffffffffffffffffffffffffffff169060200190929190505050613b0a565b6040518082815260200191505060405180910390f35b6110cd600480360360c081101561108557600080fd5b81019080803590602001909291908035906020019092919080359060200190929190803590602001909291908035906020019092919080359060200190929190505050613b2f565b604051808381526020018281526020019250505060405180910390f35b61112c6004803603602081101561110057600080fd5b81019080803573ffffffffffffffffffffffffffffffffffffffff169060200190929190505050613bca565b005b61117a6004803603604081101561114457600080fd5b81019080803573ffffffffffffffffffffffffffffffffffffffff16906020019092919080359060200190929190505050613be7565b005b6111c96004803603608081101561119257600080fd5b8101908080359060200190929190803560ff1690602001909291908035906020019092919080359060200190929190505050613ce7565b005b60606003600083815260200190815260200160002060000180548060200260200160405190810160405280929190818152602001828054801561126357602002820191906000526020600020905b8160009054906101000a900473ffffffffffffffffffffffffffffffffffffffff1673ffffffffffffffffffffffffffffffffffffffff1681526020019060010190808311611219575b50505050509050919050565b60008060405183815260008060208360fa611388fa60206000604084013e60408201519250505080915050919050565b600060149054906101000a900460ff1681565b60008060fb73ffffffffffffffffffffffffffffffffffffffff1660005a90878787604051602001808473ffffffffffffffffffffffffffffffffffffffff1673ffffffffffffffffffffffffffffffffffffffff1660601b815260140183805190602001908083835b6020831061133f578051825260208201915060208101905060208303925061131c565b6001836020036101000a03801982511681845116808217855250505050505090500182805190602001908083835b60208310611390578051825260208201915060208101905060208303925061136d565b6001836020036101000a03801982511681845116808217855250505050505090500193505050506040516020818303038152906040526040518082805190602001908083835b602083106113f957805182526020820191506020810190506020830392506113d6565b6001836020036101000a038019825116818451168082178552505050505050905001915050600060405180830381858888f193505050503d806000811461145c576040519150601f19603f3d011682016040523d82523d6000602084013e611461565b606091505b505080915050809150509392505050565b60608060608060006003600088815260200190815260200160002060010160008773ffffffffffffffffffffffffffffffffffffffff1673ffffffffffffffffffffffffffffffffffffffff16815260200190815260200160002090506000816001019050600080905060008090505b82805490508110156115a45761156d84600201600085848154811061150357fe5b9060005260206000200160009054906101000a900473ffffffffffffffffffffffffffffffffffffffff1673ffffffffffffffffffffffffffffffffffffffff1673ffffffffffffffffffffffffffffffffffffffff168152602001908152602001600020614167565b15611589576115866001836141c790919063ffffffff16565b91505b61159d6001826141c790919063ffffffff16565b90506114e2565b506060816040519080825280602002602001820160405280156115d65781602001602082028038833980820191505090505b50905060608260405190808252806020026020018201604052801561160a5781602001602082028038833980820191505090505b509050600080905060008090505b8580549050811015611808576116a387600201600088848154811061163957fe5b9060005260206000200160009054906101000a900473ffffffffffffffffffffffffffffffffffffffff1673ffffffffffffffffffffffffffffffffffffffff1673ffffffffffffffffffffffffffffffffffffffff168152602001908152602001600020614167565b156117ed578660020160008783815481106116ba57fe5b9060005260206000200160009054906101000a900473ffffffffffffffffffffffffffffffffffffffff1673ffffffffffffffffffffffffffffffffffffffff1673ffffffffffffffffffffffffffffffffffffffff16815260200190815260200160002060000160019054906101000a900463ffffffff1684838151811061173f57fe5b602002602001019063ffffffff16908163ffffffff168152505085818154811061176557fe5b9060005260206000200160009054906101000a900473ffffffffffffffffffffffffffffffffffffffff1683838151811061179c57fe5b602002602001019073ffffffffffffffffffffffffffffffffffffffff16908173ffffffffffffffffffffffffffffffffffffffff16815250506117ea6001836141c790919063ffffffff16565b91505b6118016001826141c790919063ffffffff16565b9050611618565b506060806118146141e6565b73ffffffffffffffffffffffffffffffffffffffff16638adaf96f856040518263ffffffff1660e01b81526004018080602001828103825283818151815260200191508051906020019060200280838360005b83811015611882578082015181840152602081019050611867565b505050509050019250505060006040518083038186803b1580156118a557600080fd5b505afa1580156118b9573d6000803e3d6000fd5b505050506040513d6000823e3d601f19601f8201168201806040525060408110156118e357600080fd5b8101908080516401000000008111156118fb57600080fd5b8281019050602081018481111561191157600080fd5b815185602082028301116401000000008211171561192e57600080fd5b5050929190602001805164010000000081111561194a57600080fd5b8281019050602081018481111561196057600080fd5b815185600182028301116401000000008211171561197d57600080fd5b50509291905050508092508193505050848483839b509b509b509b50505050505050505092959194509250565b6000600760008373ffffffffffffffffffffffffffffffffffffffff1673ffffffffffffffffffffffffffffffffffffffff16815260200190815260200160002060003373ffffffffffffffffffffffffffffffffffffffff1673ffffffffffffffffffffffffffffffffffffffff16815260200190815260200160002054905060008111611aa1576040517f08c379a00000000000000000000000000000000000000000000000000000000081526004018080602001828103825260178152602001807f76616c756520776173206e656761746976652f7a65726f00000000000000000081525060200191505060405180910390fd5b6000600760008473ffffffffffffffffffffffffffffffffffffffff1673ffffffffffffffffffffffffffffffffffffffff16815260200190815260200160002060003373ffffffffffffffffffffffffffffffffffffffff1673ffffffffffffffffffffffffffffffffffffffff168152602001908152602001600020819055508173ffffffffffffffffffffffffffffffffffffffff1663a9059cbb33836040518363ffffffff1660e01b8152600401808373ffffffffffffffffffffffffffffffffffffffff1673ffffffffffffffffffffffffffffffffffffffff16815260200182815260200192505050602060405180830381600087803b158015611baa57600080fd5b505af1158015611bbe573d6000803e3d6000fd5b505050506040513d6020811015611bd457600080fd5b8101908080519060200190929190505050611c57576040517f08c379a00000000000000000000000000000000000000000000000000000000081526004018080602001828103825260158152602001807f746f6b656e207472616e73666572206661696c6564000000000000000000000081525060200191505060405180910390fd5b8173ffffffffffffffffffffffffffffffffffffffff163373ffffffffffffffffffffffffffffffffffffffff167f2717ead6b9200dd235aad468c9809ea400fe33ac69b5bfaa6d3e90fc922b6398836040518082815260200191505060405180910390a35050565b6000806003600085815260200190815260200160002060010160008473ffffffffffffffffffffffffffffffffffffffff1673ffffffffffffffffffffffffffffffffffffffff16815260200190815260200160002060000160049054906101000a900463ffffffff166003600086815260200190815260200160002060010160008573ffffffffffffffffffffffffffffffffffffffff1673ffffffffffffffffffffffffffffffffffffffff16815260200190815260200160002060000160009054906101000a900463ffffffff16915091509250929050565b6000808686604051602001808381526020018273ffffffffffffffffffffffffffffffffffffffff1673ffffffffffffffffffffffffffffffffffffffff1660601b815260140192505050604051602081830303815290604052805190602001209050600073__Signatures____________________________63b3abdb0c838888886040518563ffffffff1660e01b8152600401808581526020018460ff1660ff16815260200183815260200182815260200194505050505060206040518083038186803b158015611e6e57600080fd5b505af4158015611e82573d6000803e3d6000fd5b505050506040513d6020811015611e9857600080fd5b810190808051906020019092919050505090506000611eb56141e6565b73ffffffffffffffffffffffffffffffffffffffff16637b2434cb836040518263ffffffff1660e01b8152600401808273ffffffffffffffffffffffffffffffffffffffff1673ffffffffffffffffffffffffffffffffffffffff16815260200191505060206040518083038186803b158015611f3157600080fd5b505afa158015611f45573d6000803e3d6000fd5b505050506040513d6020811015611f5b57600080fd5b810190808051906020019092919050505090506000600360008b815260200190815260200160002060010160008a73ffffffffffffffffffffffffffffffffffffffff1673ffffffffffffffffffffffffffffffffffffffff16815260200190815260200160002060020160008373ffffffffffffffffffffffffffffffffffffffff1673ffffffffffffffffffffffffffffffffffffffff16815260200190815260200160002090506001600281111561201257fe5b8160000160009054906101000a900460ff16600281111561202f57fe5b14612085576040517f08c379a000000000000000000000000000000000000000000000000000000000815260040180806020018281038252603b815260200180614e3c603b913960400191505060405180910390fd5b6120a88160000160019054906101000a900463ffffffff1663ffffffff166142e1565b1561211b576040517f08c379a00000000000000000000000000000000000000000000000000000000081526004018080602001828103825260158152602001807f4174746573746174696f6e2074696d6564206f7574000000000000000000000081525060200191505060405180910390fd5b8194505050505095945050505050565b60606003600084815260200190815260200160002060010160008373ffffffffffffffffffffffffffffffffffffffff1673ffffffffffffffffffffffffffffffffffffffff16815260200190815260200160002060010180548060200260200160405190810160405280929190818152602001828054801561220357602002820191906000526020600020905b8160009054906101000a900473ffffffffffffffffffffffffffffffffffffffff1673ffffffffffffffffffffffffffffffffffffffff16815260200190600101908083116121b9575b5050505050905092915050565b6000600660008373ffffffffffffffffffffffffffffffffffffffff1673ffffffffffffffffffffffffffffffffffffffff168152602001908152602001600020549050919050565b6122616123a3565b61226a57600080fd5b600073ffffffffffffffffffffffffffffffffffffffff166000809054906101000a900473ffffffffffffffffffffffffffffffffffffffff1673ffffffffffffffffffffffffffffffffffffffff167f8be0079c531659141344cd1fd0a4f28419497f9722a3daafe3b4186f6b6457e060405160405180910390a360008060006101000a81548173ffffffffffffffffffffffffffffffffffffffff021916908373ffffffffffffffffffffffffffffffffffffffff160217905550565b600160009054906101000a900473ffffffffffffffffffffffffffffffffffffffff1681565b60008060008060008060f9611388fa60405160206000823e8051925050508091505090565b60055481565b60008060009054906101000a900473ffffffffffffffffffffffffffffffffffffffff16905090565b60008060009054906101000a900473ffffffffffffffffffffffffffffffffffffffff1673ffffffffffffffffffffffffffffffffffffffff163373ffffffffffffffffffffffffffffffffffffffff1614905090565b6060806060806000868690501161245c576040517f08c379a0000000000000000000000000000000000000000000000000000000008152600401808060200182810382526028815260200180614ea26028913960400191505060405180910390fd5b6060806124a9888880806020026020016040519081016040528093929190818152602001838360200280828437600081840152601f19601f82011690508083019250505050505050614314565b8092508193505050606081516040519080825280602002602001820160405280156124e35781602001602082028038833980820191505090505b509050606082516040519080825280602002602001820160405280156125185781602001602082028038833980820191505090505b509050600080905060008090505b8b8b90508110156128bf576060600360008e8e8581811061254357fe5b9050602002013581526020019081526020016000206000018054806020026020016040519081016040528092919081815260200182805480156125db57602002820191906000526020600020905b8160009054906101000a900473ffffffffffffffffffffffffffffffffffffffff1673ffffffffffffffffffffffffffffffffffffffff1681526020019060010190808311612591575b5050505050905060008090505b8783815181106125f457fe5b60200260200101518110156128b05761260b6141e6565b73ffffffffffffffffffffffffffffffffffffffff16631fd9afa583838151811061263257fe5b60200260200101516040518263ffffffff1660e01b8152600401808273ffffffffffffffffffffffffffffffffffffffff1673ffffffffffffffffffffffffffffffffffffffff16815260200191505060206040518083038186803b15801561269a57600080fd5b505afa1580156126ae573d6000803e3d6000fd5b505050506040513d60208110156126c457600080fd5b81019080805190602001909291905050508785815181106126e157fe5b602002602001019073ffffffffffffffffffffffffffffffffffffffff16908173ffffffffffffffffffffffffffffffffffffffff1681525050600360008f8f8681811061272b57fe5b905060200201358152602001908152602001600020600101600083838151811061275157fe5b602002602001015173ffffffffffffffffffffffffffffffffffffffff1673ffffffffffffffffffffffffffffffffffffffff16815260200190815260200160002060000160049054906101000a900463ffffffff1663ffffffff168685815181106127b957fe5b602002602001019067ffffffffffffffff16908167ffffffffffffffff1681525050600360008f8f868181106127eb57fe5b905060200201358152602001908152602001600020600101600083838151811061281157fe5b602002602001015173ffffffffffffffffffffffffffffffffffffffff1673ffffffffffffffffffffffffffffffffffffffff16815260200190815260200160002060000160009054906101000a900463ffffffff1663ffffffff1685858151811061287957fe5b602002602001019067ffffffffffffffff16908167ffffffffffffffff1681525050838060010194505080806001019150506125e8565b50508080600101915050612526565b50848484849850985098509850505050505092959194509250565b6000806128e56136b4565b905060008143816128f257fe5b049050600082438161290057fe5b06141561290e576001810390505b809250505090565b61291e6123a3565b61292757600080fd5b60008111612980576040517f08c379a0000000000000000000000000000000000000000000000000000000008152600401808060200182810382526030815260200180614de26030913960400191505060405180910390fd5b806004819055507f4fbe976a07a9260091c2d347f8780c4bc636392e34d5b249b367baf8a5c7ca69816040518082815260200191505060405180910390a150565b6129c96123a3565b6129d257600080fd5b80600160006101000a81548173ffffffffffffffffffffffffffffffffffffffff021916908373ffffffffffffffffffffffffffffffffffffffff1602179055508073ffffffffffffffffffffffffffffffffffffffff167f27fe5f0c1c3b1ed427cc63d0f05759ffdecf9aec9e18d31ef366fc8a6cb5dc3b60405160405180910390a250565b60045481565b6000806000806003600088815260200190815260200160002060010160008773ffffffffffffffffffffffffffffffffffffffff1673ffffffffffffffffffffffffffffffffffffffff16815260200190815260200160002060020160008673ffffffffffffffffffffffffffffffffffffffff1673ffffffffffffffffffffffffffffffffffffffff16815260200190815260200160002090508060000160009054906101000a900460ff166002811115612b1757fe5b8160000160019054906101000a900463ffffffff168260000160059054906101000a900473ffffffffffffffffffffffffffffffffffffffff169350935093505093509350939050565b600060149054906101000a900460ff1615612b7b57600080fd5b6001600060146101000a81548160ff021916908315150217905550612b9f33614457565b612ba8876129c1565b612bb186612916565b612bba856136df565b600084849050118015612bd257508181905084849050145b612c27576040517f08c379a0000000000000000000000000000000000000000000000000000000008152600401808060200182810382526035815260200180614eca6035913960400191505060405180910390fd5b60008090505b84849050811015612c9757612c7c858583818110612c4757fe5b9050602002013573ffffffffffffffffffffffffffffffffffffffff16848484818110612c7057fe5b90506020020135613be7565b612c906001826141c790919063ffffffff16565b9050612c2d565b5050505050505050565b600060036000848152602001908152602001600020600001805490509050808210612d34576040517f08c379a00000000000000000000000000000000000000000000000000000000081526004018080602001828103825260108152602001807f496e64657820697320696e76616c69640000000000000000000000000000000081525060200191505060405180910390fd5b600360008481526020019081526020016000206000018281548110612d5557fe5b9060005260206000200160009054906101000a900473ffffffffffffffffffffffffffffffffffffffff1673ffffffffffffffffffffffffffffffffffffffff163373ffffffffffffffffffffffffffffffffffffffff1614612e20576040517f08c379a000000000000000000000000000000000000000000000000000000000815260040180806020018281038252601f8152602001807f496e64657820646f6573206e6f74206d61746368206d73672e73656e6465720081525060200191505060405180910390fd5b6000612e3660018361454f90919063ffffffff16565b9050808314612ef557600360008581526020019081526020016000206000018181548110612e6057fe5b9060005260206000200160009054906101000a900473ffffffffffffffffffffffffffffffffffffffff16600360008681526020019081526020016000206000018481548110612eac57fe5b9060005260206000200160006101000a81548173ffffffffffffffffffffffffffffffffffffffff021916908373ffffffffffffffffffffffffffffffffffffffff1602179055505b6000600360008681526020019081526020016000206000018281548110612f1857fe5b9060005260206000200160006101000a81548173ffffffffffffffffffffffffffffffffffffffff021916908373ffffffffffffffffffffffffffffffffffffffff16021790555060036000858152602001908152602001600020600001805480919060019003612f899190614cdd565b5050505050565b60066020528060005260406000206000915090505481565b6001600260008282540192505081905550600060025490506000600660008473ffffffffffffffffffffffffffffffffffffffff1673ffffffffffffffffffffffffffffffffffffffff1681526020019081526020016000205411613058576040517f08c379a0000000000000000000000000000000000000000000000000000000008152600401808060200182810382526022815260200180614d2f6022913960400191505060405180910390fd5b8173ffffffffffffffffffffffffffffffffffffffff166323b872dd33306130c887600660008973ffffffffffffffffffffffffffffffffffffffff1673ffffffffffffffffffffffffffffffffffffffff1681526020019081526020016000205461456f90919063ffffffff16565b6040518463ffffffff1660e01b8152600401808473ffffffffffffffffffffffffffffffffffffffff1673ffffffffffffffffffffffffffffffffffffffff1681526020018373ffffffffffffffffffffffffffffffffffffffff1673ffffffffffffffffffffffffffffffffffffffff1681526020018281526020019350505050602060405180830381600087803b15801561316457600080fd5b505af1158015613178573d6000803e3d6000fd5b505050506040513d602081101561318e57600080fd5b81019080805190602001909291905050506131f4576040517f08c379a000000000000000000000000000000000000000000000000000000000815260040180806020018281038252602b815260200180614e77602b913960400191505060405180910390fd5b6000831161324d576040517f08c379a000000000000000000000000000000000000000000000000000000000815260040180806020018281038252602a815260200180614e12602a913960400191505060405180910390fd5b600060036000868152602001908152602001600020905060008160020160003373ffffffffffffffffffffffffffffffffffffffff1673ffffffffffffffffffffffffffffffffffffffff16815260200190815260200160002060000160009054906101000a900463ffffffff1663ffffffff16148061332c575061332b8160020160003373ffffffffffffffffffffffffffffffffffffffff1673ffffffffffffffffffffffffffffffffffffffff16815260200190815260200160002060000160009054906101000a900463ffffffff1663ffffffff166142e1565b5b8061339757506133958160020160003373ffffffffffffffffffffffffffffffffffffffff1673ffffffffffffffffffffffffffffffffffffffff16815260200190815260200160002060000160009054906101000a900463ffffffff1663ffffffff166145a9565b155b6133ec576040517f08c379a0000000000000000000000000000000000000000000000000000000008152600401808060200182810382526039815260200180614d816039913960400191505060405180910390fd5b6133f54361464e565b8160020160003373ffffffffffffffffffffffffffffffffffffffff1673ffffffffffffffffffffffffffffffffffffffff16815260200190815260200160002060000160006101000a81548163ffffffff021916908363ffffffff1602179055506134608461464e565b8160020160003373ffffffffffffffffffffffffffffffffffffffff1673ffffffffffffffffffffffffffffffffffffffff16815260200190815260200160002060000160046101000a81548163ffffffff021916908363ffffffff160217905550828160020160003373ffffffffffffffffffffffffffffffffffffffff1673ffffffffffffffffffffffffffffffffffffffff16815260200190815260200160002060000160086101000a81548173ffffffffffffffffffffffffffffffffffffffff021916908373ffffffffffffffffffffffffffffffffffffffff1602179055506135ba6135b5858360010160003373ffffffffffffffffffffffffffffffffffffffff1673ffffffffffffffffffffffffffffffffffffffff16815260200190815260200160002060000160009054906101000a900463ffffffff1663ffffffff166141c790919063ffffffff16565b61464e565b8160010160003373ffffffffffffffffffffffffffffffffffffffff1673ffffffffffffffffffffffffffffffffffffffff16815260200190815260200160002060000160006101000a81548163ffffffff021916908363ffffffff1602179055503373ffffffffffffffffffffffffffffffffffffffff16857f381545d9b1fffcb94ffbbd0bccfff9f1fb3acd474d34f7d59112a5c9973fee498686604051808381526020018273ffffffffffffffffffffffffffffffffffffffff1673ffffffffffffffffffffffffffffffffffffffff1681526020019250505060405180910390a35060025481146136ae57600080fd5b50505050565b60008060405160008060008360f86103e8fa60206000602084013e6020820151925050508091505090565b6136e76123a3565b6136f057600080fd5b60008111613749576040517f08c379a0000000000000000000000000000000000000000000000000000000008152600401808060200182810382526030815260200180614d516030913960400191505060405180910390fd5b806005819055507f954fa47fa6f4e8017b99f93c73f4fbe599d786f9f5da73fe9086ab473fb455d8816040518082815260200191505060405180910390a150565b600060036000838152602001908152602001600020905060008160020160003373ffffffffffffffffffffffffffffffffffffffff1673ffffffffffffffffffffffffffffffffffffffff16815260200190815260200160002060000160009054906101000a900463ffffffff1663ffffffff1611613854576040517f08c379a0000000000000000000000000000000000000000000000000000000008152600401808060200182810382526037815260200180614f226037913960400191505060405180910390fd5b6138b78160020160003373ffffffffffffffffffffffffffffffffffffffff1673ffffffffffffffffffffffffffffffffffffffff16815260200190815260200160002060000160009054906101000a900463ffffffff1663ffffffff166142e1565b1561390d576040517f08c379a0000000000000000000000000000000000000000000000000000000008152600401808060200182810382526023815260200180614eff6023913960400191505060405180910390fd5b613916826146b5565b8060020160003373ffffffffffffffffffffffffffffffffffffffff1673ffffffffffffffffffffffffffffffffffffffff168152602001908152602001600020600080820160006101000a81549063ffffffff02191690556000820160046101000a81549063ffffffff02191690556000820160086101000a81549073ffffffffffffffffffffffffffffffffffffffff021916905550505050565b60008060006003600086815260200190815260200160002060020160008573ffffffffffffffffffffffffffffffffffffffff1673ffffffffffffffffffffffffffffffffffffffff16815260200190815260200160002060000160009054906101000a900463ffffffff166003600087815260200190815260200160002060020160008673ffffffffffffffffffffffffffffffffffffffff1673ffffffffffffffffffffffffffffffffffffffff16815260200190815260200160002060000160049054906101000a900463ffffffff166003600088815260200190815260200160002060020160008773ffffffffffffffffffffffffffffffffffffffff1673ffffffffffffffffffffffffffffffffffffffff16815260200190815260200160002060000160089054906101000a900473ffffffffffffffffffffffffffffffffffffffff169250925092509250925092565b6007602052816000526040600020602052806000526040600020600091509150505481565b60008060008714158015613b44575060008514155b613b4d57600080fd5b6000806040513681016040528a81528960208201528860408201528760608201528660808201528560a082015260008060c48360fc61041afa3d604051818101604052816000823e8260008114613bae578151965060208201519550613bb2565b8282fd5b50505050508181935093505050965096945050505050565b613bd26123a3565b613bdb57600080fd5b613be481614457565b50565b613bef6123a3565b613bf857600080fd5b60008111613c51576040517f08c379a0000000000000000000000000000000000000000000000000000000008152600401808060200182810382526028815260200180614dba6028913960400191505060405180910390fd5b80600660008473ffffffffffffffffffffffffffffffffffffffff1673ffffffffffffffffffffffffffffffffffffffff168152602001908152602001600020819055508173ffffffffffffffffffffffffffffffffffffffff167f7cf8b633f218e9f9bc2c06107bcaddcfee6b90580863768acdcfd4f05d7af394826040518082815260200191505060405180910390a25050565b6000613cf68533868686611d9c565b905060006003600087815260200190815260200160002060010160003373ffffffffffffffffffffffffffffffffffffffff1673ffffffffffffffffffffffffffffffffffffffff16815260200190815260200160002060020160008373ffffffffffffffffffffffffffffffffffffffff1673ffffffffffffffffffffffffffffffffffffffff168152602001908152602001600020905060008160000160059054906101000a900473ffffffffffffffffffffffffffffffffffffffff169050613dc14361464e565b8260000160016101000a81548163ffffffff021916908363ffffffff16021790555060028260000160006101000a81548160ff02191690836002811115613e0457fe5b02179055508160000160056101000a81549073ffffffffffffffffffffffffffffffffffffffff02191690556003600088815260200190815260200160002060010160003373ffffffffffffffffffffffffffffffffffffffff1673ffffffffffffffffffffffffffffffffffffffff168152602001908152602001600020600001600481819054906101000a900463ffffffff168092919060010191906101000a81548163ffffffff021916908363ffffffff16021790555050613f8d600660008373ffffffffffffffffffffffffffffffffffffffff1673ffffffffffffffffffffffffffffffffffffffff16815260200190815260200160002054600760008473ffffffffffffffffffffffffffffffffffffffff1673ffffffffffffffffffffffffffffffffffffffff16815260200190815260200160002060008673ffffffffffffffffffffffffffffffffffffffff1673ffffffffffffffffffffffffffffffffffffffff168152602001908152602001600020546141c790919063ffffffff16565b600760008373ffffffffffffffffffffffffffffffffffffffff1673ffffffffffffffffffffffffffffffffffffffff16815260200190815260200160002060008573ffffffffffffffffffffffffffffffffffffffff1673ffffffffffffffffffffffffffffffffffffffff1681526020019081526020016000208190555060006003600089815260200190815260200160002090506001600360008a815260200190815260200160002060010160003373ffffffffffffffffffffffffffffffffffffffff1673ffffffffffffffffffffffffffffffffffffffff16815260200190815260200160002060000160049054906101000a900463ffffffff1663ffffffff16141561410257806000013390806001815401808255809150509060018203906000526020600020016000909192909190916101000a81548173ffffffffffffffffffffffffffffffffffffffff021916908373ffffffffffffffffffffffffffffffffffffffff160217905550505b8373ffffffffffffffffffffffffffffffffffffffff163373ffffffffffffffffffffffffffffffffffffffff16897f414ff2c18c092697c4b8de49f515ac44f8bebc19b24553cf58ace913a6ac639d60405160405180910390a45050505050505050565b60006001600281111561417657fe5b8260000160009054906101000a900460ff16600281111561419357fe5b1480156141c057506141be8260000160019054906101000a900463ffffffff1663ffffffff166142e1565b155b9050919050565b6000808284019050838110156141dc57600080fd5b8091505092915050565b6000600160009054906101000a900473ffffffffffffffffffffffffffffffffffffffff1673ffffffffffffffffffffffffffffffffffffffff1663dcf0aaed60405160200180807f4163636f756e74730000000000000000000000000000000000000000000000008152506008019050604051602081830303815290604052805190602001206040518263ffffffff1660e01b81526004018082815260200191505060206040518083038186803b1580156142a157600080fd5b505afa1580156142b5573d6000803e3d6000fd5b505050506040513d60208110156142cb57600080fd5b8101908080519060200190929190505050905090565b600061430a600454836fffffffffffffffffffffffffffffffff166141c790919063ffffffff16565b4310159050919050565b6060806000835111614371576040517f08c379a0000000000000000000000000000000000000000000000000000000008152600401808060200182810382526028815260200180614ea26028913960400191505060405180910390fd5b6000809050606084516040519080825280602002602001820160405280156143a85781602001602082028038833980820191505090505b50905060008090505b8551811015614417576000600360008884815181106143cc57fe5b602002602001015181526020019081526020016000206000018054905090508084019350808383815181106143fd57fe5b6020026020010181815250505080806001019150506143b1565b5080826040519080825280602002602001820160405280156144485781602001602082028038833980820191505090505b50809050935093505050915091565b600073ffffffffffffffffffffffffffffffffffffffff168173ffffffffffffffffffffffffffffffffffffffff16141561449157600080fd5b8073ffffffffffffffffffffffffffffffffffffffff166000809054906101000a900473ffffffffffffffffffffffffffffffffffffffff1673ffffffffffffffffffffffffffffffffffffffff167f8be0079c531659141344cd1fd0a4f28419497f9722a3daafe3b4186f6b6457e060405160405180910390a3806000806101000a81548173ffffffffffffffffffffffffffffffffffffffff021916908373ffffffffffffffffffffffffffffffffffffffff16021790555050565b60008282111561455e57600080fd5b600082840390508091505092915050565b60008083141561458257600090506145a3565b600082840290508284828161459357fe5b041461459e57600080fd5b809150505b92915050565b60006146456145b6614be2565b73ffffffffffffffffffffffffffffffffffffffff1663e45def956040518163ffffffff1660e01b815260040160206040518083038186803b1580156145fb57600080fd5b505afa15801561460f573d6000803e3d6000fd5b505050506040513d602081101561462557600080fd5b8101908080519060200190929190505050836141c790919063ffffffff16565b43109050919050565b600064010000000082106146ad576040517f08c379a0000000000000000000000000000000000000000000000000000000008152600401808060200182810382526026815260200180614f596026913960400191505060405180910390fd5b819050919050565b60006003600083815260200190815260200160002060010160003373ffffffffffffffffffffffffffffffffffffffff1673ffffffffffffffffffffffffffffffffffffffff168152602001908152602001600020905060006003600084815260200190815260200160002060020160003373ffffffffffffffffffffffffffffffffffffffff1673ffffffffffffffffffffffffffffffffffffffff1681526020019081526020016000209050600061476d614be2565b73ffffffffffffffffffffffffffffffffffffffff1663fc4847266147b76005548560000160009054906101000a900463ffffffff1663ffffffff166141c790919063ffffffff16565b6040518263ffffffff1660e01b81526004018082815260200191505060206040518083038186803b1580156147eb57600080fd5b505afa1580156147ff573d6000803e3d6000fd5b505050506040513d602081101561481557600080fd5b81019080805190602001909291905050509050600061483261234f565b905060008090506000805b8560000160049054906101000a900463ffffffff1663ffffffff16831015614bd857846040516020018082815260200191505060405160208183030381529060405280519060200120945061489d848660001c8161489757fe5b0661126f565b91506148a76141e6565b73ffffffffffffffffffffffffffffffffffffffff166364439b43836040518263ffffffff1660e01b8152600401808273ffffffffffffffffffffffffffffffffffffffff1673ffffffffffffffffffffffffffffffffffffffff16815260200191505060206040518083038186803b15801561492357600080fd5b505afa158015614937573d6000803e3d6000fd5b505050506040513d602081101561494d57600080fd5b8101908080519060200190929190505050905060008760020160008373ffffffffffffffffffffffffffffffffffffffff1673ffffffffffffffffffffffffffffffffffffffff1681526020019081526020016000209050600060028111156149b257fe5b8160000160009054906101000a900460ff1660028111156149cf57fe5b146149da575061483d565b6149ee6001856141c790919063ffffffff16565b935060018160000160006101000a81548160ff02191690836002811115614a1157fe5b02179055508660000160009054906101000a900463ffffffff168160000160016101000a81548163ffffffff021916908363ffffffff1602179055508660000160089054906101000a900473ffffffffffffffffffffffffffffffffffffffff168160000160056101000a81548173ffffffffffffffffffffffffffffffffffffffff021916908373ffffffffffffffffffffffffffffffffffffffff160217905550876001018290806001815401808255809150509060018203906000526020600020016000909192909190916101000a81548173ffffffffffffffffffffffffffffffffffffffff021916908373ffffffffffffffffffffffffffffffffffffffff160217905550508173ffffffffffffffffffffffffffffffffffffffff163373ffffffffffffffffffffffffffffffffffffffff168a7faf7f470b643316cf44c1f2898328a075e7602945b4f8584f48ba4ad2d8a2ea9d8a60000160089054906101000a900473ffffffffffffffffffffffffffffffffffffffff16604051808273ffffffffffffffffffffffffffffffffffffffff1673ffffffffffffffffffffffffffffffffffffffff16815260200191505060405180910390a45061483d565b5050505050505050565b6000600160009054906101000a900473ffffffffffffffffffffffffffffffffffffffff1673ffffffffffffffffffffffffffffffffffffffff1663dcf0aaed60405160200180807f52616e646f6d00000000000000000000000000000000000000000000000000008152506006019050604051602081830303815290604052805190602001206040518263ffffffff1660e01b81526004018082815260200191505060206040518083038186803b158015614c9d57600080fd5b505afa158015614cb1573d6000803e3d6000fd5b505050506040513d6020811015614cc757600080fd5b8101908080519060200190929190505050905090565b815481835581811115614d0457818360005260206000209182019101614d039190614d09565b5b505050565b614d2b91905b80821115614d27576000816000905550600101614d0f565b5090565b9056fe496e76616c6964206174746573746174696f6e52657175657374466565546f6b656e73656c6563744973737565727357616974426c6f636b732068617320746f2062652067726561746572207468616e203054686572652065786973747320616e20756e657870697265642c20756e73656c6563746564206174746573746174696f6e2072657175657374596f75206861766520746f20737065636966792061206665652067726561746572207468616e20306174746573746174696f6e457870697279426c6f636b732068617320746f2062652067726561746572207468616e2030596f75206861766520746f2072657175657374206174206c656173742031206174746573746174696f6e4174746573746174696f6e20636f646520646f6573206e6f74206d6174636820616e79206f75747374616e64696e67206174746573746174696f6e5472616e73666572206f66206174746573746174696f6e20726571756573742066656573206661696c6564596f75206861766520746f2070617373206174206c65617374206f6e65206964656e7469666965726174746573746174696f6e52657175657374466565546f6b656e732073706563696669636174696f6e2077617320696e76616c6964546865206174746573746174696f6e20726571756573742068617320657870697265644e6f20756e73656c6563746564206174746573746174696f6e207265717565737420746f2073656c656374206973737565727320666f7253616665436173743a2076616c756520646f65736e27742066697420696e2033322062697473a165627a7a72305820a72dd7ae30983389aea7c050a18880c1395508944b1de142f4003a338931ea570029",
  "source": "pragma solidity ^0.5.3;\n\nimport \"openzeppelin-solidity/contracts/utils/ReentrancyGuard.sol\";\nimport \"openzeppelin-solidity/contracts/math/SafeMath.sol\";\nimport \"openzeppelin-solidity/contracts/ownership/Ownable.sol\";\n\nimport \"./interfaces/IAttestations.sol\";\nimport \"./interfaces/IRandom.sol\";\nimport \"../common/interfaces/IERC20Token.sol\";\nimport \"../common/interfaces/IAccounts.sol\";\nimport \"../governance/interfaces/IValidators.sol\";\n\nimport \"../common/Initializable.sol\";\nimport \"../common/UsingRegistry.sol\";\nimport \"../common/Signatures.sol\";\nimport \"../common/SafeCast.sol\";\nimport \"../common/UsingPrecompiles.sol\";\n\n/**\n * @title Contract mapping identifiers to accounts\n */\ncontract Attestations is\n  IAttestations,\n  Ownable,\n  Initializable,\n  UsingRegistry,\n  ReentrancyGuard,\n  UsingPrecompiles\n{\n  using SafeMath for uint256;\n  using SafeCast for uint256;\n\n  enum AttestationStatus { None, Incomplete, Complete }\n\n  struct Attestation {\n    AttestationStatus status;\n    // For outstanding attestations, this is the block number of the request.\n    // For completed attestations, this is the block number of the attestation completion.\n    uint32 blockNumber;\n    // The token with which attestation request fees were paid.\n    address attestationRequestFeeToken;\n  }\n\n  // Stores attestations state for a single (identifier, account address) pair.\n  struct AttestedAddress {\n    // Total number of requested attestations.\n    uint32 requested;\n    // Total number of completed attestations.\n    uint32 completed;\n    // List of selected issuers responsible for attestations. The length of this list\n    // might be smaller than `requested` (which represents the total number of requested\n    // attestations) if users are not calling `selectIssuers` on unselected requests.\n    address[] selectedIssuers;\n    // State of each attestation keyed by issuer.\n    mapping(address => Attestation) issuedAttestations;\n  }\n\n  struct UnselectedRequest {\n    // The block at which the attestations were requested.\n    uint32 blockNumber;\n    // The number of attestations that were requested.\n    uint32 attestationsRequested;\n    // The token with which attestation request fees were paid in this request.\n    address attestationRequestFeeToken;\n  }\n\n  struct IdentifierState {\n    // All account addresses associated with this identifier.\n    address[] accounts;\n    // Keeps the state of attestations for account addresses for this identifier.\n    mapping(address => AttestedAddress) attestations;\n    // Temporarily stores attestation requests for which issuers should be selected by the account.\n    mapping(address => UnselectedRequest) unselectedRequests;\n  }\n\n  mapping(bytes32 => IdentifierState) identifiers;\n\n  // The duration in blocks in which an attestation can be completed from the block in which the\n  // attestation was requested.\n  uint256 public attestationExpiryBlocks;\n\n  // The duration to wait until selectIssuers can be called for an attestation request.\n  uint256 public selectIssuersWaitBlocks;\n\n  // The fees that are associated with attestations for a particular token.\n  mapping(address => uint256) public attestationRequestFees;\n\n  // Maps a token and attestation issuer to the amount that they're owed.\n  mapping(address => mapping(address => uint256)) public pendingWithdrawals;\n\n  event AttestationsRequested(\n    bytes32 indexed identifier,\n    address indexed account,\n    uint256 attestationsRequested,\n    address attestationRequestFeeToken\n  );\n\n  event AttestationIssuerSelected(\n    bytes32 indexed identifier,\n    address indexed account,\n    address indexed issuer,\n    address attestationRequestFeeToken\n  );\n\n  event AttestationCompleted(\n    bytes32 indexed identifier,\n    address indexed account,\n    address indexed issuer\n  );\n\n  event Withdrawal(address indexed account, address indexed token, uint256 amount);\n  event AttestationExpiryBlocksSet(uint256 value);\n  event AttestationRequestFeeSet(address indexed token, uint256 value);\n  event SelectIssuersWaitBlocksSet(uint256 value);\n\n  function initialize(\n    address registryAddress,\n    uint256 _attestationExpiryBlocks,\n    uint256 _selectIssuersWaitBlocks,\n    address[] calldata attestationRequestFeeTokens,\n    uint256[] calldata attestationRequestFeeValues\n  ) external initializer {\n    _transferOwnership(msg.sender);\n    setRegistry(registryAddress);\n    setAttestationExpiryBlocks(_attestationExpiryBlocks);\n    setSelectIssuersWaitBlocks(_selectIssuersWaitBlocks);\n\n    require(\n      attestationRequestFeeTokens.length > 0 &&\n        attestationRequestFeeTokens.length == attestationRequestFeeValues.length,\n      \"attestationRequestFeeTokens specification was invalid\"\n    );\n    for (uint256 i = 0; i < attestationRequestFeeTokens.length; i = i.add(1)) {\n      setAttestationRequestFee(attestationRequestFeeTokens[i], attestationRequestFeeValues[i]);\n    }\n  }\n\n  /**\n   * @notice Commit to the attestation request of a hashed identifier.\n   * @param identifier The hash of the identifier to be attested.\n   * @param attestationsRequested The number of requested attestations for this request.\n   * @param attestationRequestFeeToken The address of the token with which the attestation fee will\n   * be paid.\n   */\n  function request(\n    bytes32 identifier,\n    uint256 attestationsRequested,\n    address attestationRequestFeeToken\n  ) external nonReentrant {\n    require(\n      attestationRequestFees[attestationRequestFeeToken] > 0,\n      \"Invalid attestationRequestFeeToken\"\n    );\n    require(\n      IERC20Token(attestationRequestFeeToken).transferFrom(\n        msg.sender,\n        address(this),\n        attestationRequestFees[attestationRequestFeeToken].mul(attestationsRequested)\n      ),\n      \"Transfer of attestation request fees failed\"\n    );\n\n    require(attestationsRequested > 0, \"You have to request at least 1 attestation\");\n\n    IdentifierState storage state = identifiers[identifier];\n\n    require(\n      state.unselectedRequests[msg.sender].blockNumber == 0 ||\n        isAttestationExpired(state.unselectedRequests[msg.sender].blockNumber) ||\n        !isAttestationRequestSelectable(state.unselectedRequests[msg.sender].blockNumber),\n      \"There exists an unexpired, unselected attestation request\"\n    );\n\n    state.unselectedRequests[msg.sender].blockNumber = block.number.toUint32();\n    state.unselectedRequests[msg.sender].attestationsRequested = attestationsRequested.toUint32();\n    state.unselectedRequests[msg.sender].attestationRequestFeeToken = attestationRequestFeeToken;\n\n    state.attestations[msg.sender].requested = uint256(state.attestations[msg.sender].requested)\n      .add(attestationsRequested)\n      .toUint32();\n\n    emit AttestationsRequested(\n      identifier,\n      msg.sender,\n      attestationsRequested,\n      attestationRequestFeeToken\n    );\n  }\n\n  /**\n   * @notice Selects the issuers for the most recent attestation request.\n   * @param identifier The hash of the identifier to be attested.\n   */\n  function selectIssuers(bytes32 identifier) external {\n    IdentifierState storage state = identifiers[identifier];\n\n    require(\n      state.unselectedRequests[msg.sender].blockNumber > 0,\n      \"No unselected attestation request to select issuers for\"\n    );\n\n    require(\n      !isAttestationExpired(state.unselectedRequests[msg.sender].blockNumber),\n      \"The attestation request has expired\"\n    );\n\n    addIncompleteAttestations(identifier);\n    delete state.unselectedRequests[msg.sender];\n  }\n\n  /**\n   * @notice Submit the secret message sent by the issuer to complete the attestation request.\n   * @param identifier The hash of the identifier for this attestation.\n   * @param v The recovery id of the incoming ECDSA signature.\n   * @param r Output value r of the ECDSA signature.\n   * @param s Output value s of the ECDSA signature.\n   * @dev Throws if there is no matching outstanding attestation request.\n   * @dev Throws if the attestation window has passed.\n   */\n  function complete(bytes32 identifier, uint8 v, bytes32 r, bytes32 s) external {\n    address issuer = validateAttestationCode(identifier, msg.sender, v, r, s);\n\n    Attestation storage attestation = identifiers[identifier].attestations[msg.sender]\n      .issuedAttestations[issuer];\n\n    address token = attestation.attestationRequestFeeToken;\n\n    // solhint-disable-next-line not-rely-on-time\n    attestation.blockNumber = block.number.toUint32();\n    attestation.status = AttestationStatus.Complete;\n    delete attestation.attestationRequestFeeToken;\n    identifiers[identifier].attestations[msg.sender].completed++;\n\n    pendingWithdrawals[token][issuer] = pendingWithdrawals[token][issuer].add(\n      attestationRequestFees[token]\n    );\n\n    IdentifierState storage state = identifiers[identifier];\n    if (identifiers[identifier].attestations[msg.sender].completed == 1) {\n      state.accounts.push(msg.sender);\n    }\n\n    emit AttestationCompleted(identifier, msg.sender, issuer);\n  }\n\n  /**\n   * @notice Revokes an account for an identifier.\n   * @param identifier The identifier for which to revoke.\n   * @param index The index of the account in the accounts array.\n   */\n  function revoke(bytes32 identifier, uint256 index) external {\n    uint256 numAccounts = identifiers[identifier].accounts.length;\n    require(index < numAccounts, \"Index is invalid\");\n    require(\n      msg.sender == identifiers[identifier].accounts[index],\n      \"Index does not match msg.sender\"\n    );\n\n    uint256 newNumAccounts = numAccounts.sub(1);\n    if (index != newNumAccounts) {\n      identifiers[identifier].accounts[index] = identifiers[identifier].accounts[newNumAccounts];\n    }\n    identifiers[identifier].accounts[newNumAccounts] = address(0x0);\n    identifiers[identifier].accounts.length--;\n  }\n\n  /**\n   * @notice Allows issuers to withdraw accumulated attestation rewards.\n   * @param token The address of the token that will be withdrawn.\n   * @dev Throws if msg.sender does not have any rewards to withdraw.\n   */\n  function withdraw(address token) external {\n    uint256 value = pendingWithdrawals[token][msg.sender];\n    require(value > 0, \"value was negative/zero\");\n    pendingWithdrawals[token][msg.sender] = 0;\n    require(IERC20Token(token).transfer(msg.sender, value), \"token transfer failed\");\n    emit Withdrawal(msg.sender, token, value);\n  }\n\n  /**\n   * @notice Returns the unselected attestation request for an identifier/account pair, if any.\n   * @param identifier Hash of the identifier.\n   * @param account Address of the account.\n   * @return [\n   *           Block number at which was requested,\n   *           Number of unselected requests,\n   *           Address of the token with which this attestation request was paid for\n   *         ]\n   */\n  function getUnselectedRequest(bytes32 identifier, address account)\n    external\n    view\n    returns (uint32, uint32, address)\n  {\n    return (\n      identifiers[identifier].unselectedRequests[account].blockNumber,\n      identifiers[identifier].unselectedRequests[account].attestationsRequested,\n      identifiers[identifier].unselectedRequests[account].attestationRequestFeeToken\n    );\n  }\n\n  /**\n   * @notice Returns selected attestation issuers for a identifier/account pair.\n   * @param identifier Hash of the identifier.\n   * @param account Address of the account.\n   * @return Addresses of the selected attestation issuers.\n   */\n  function getAttestationIssuers(bytes32 identifier, address account)\n    external\n    view\n    returns (address[] memory)\n  {\n    return identifiers[identifier].attestations[account].selectedIssuers;\n  }\n\n  /**\n   * @notice Returns attestation stats for a identifier/account pair.\n   * @param identifier Hash of the identifier.\n   * @param account Address of the account.\n   * @return [Number of completed attestations, Number of total requested attestations]\n   */\n  function getAttestationStats(bytes32 identifier, address account)\n    external\n    view\n    returns (uint32, uint32)\n  {\n    return (\n      identifiers[identifier].attestations[account].completed,\n      identifiers[identifier].attestations[account].requested\n    );\n  }\n\n  /**\n   * @notice Batch lookup function to determine attestation stats for a list of identifiers.\n   * @param identifiersToLookup Array of n identifiers.\n   * @return [0] Array of number of matching accounts per identifier.\n   * @return [1] Array of sum([0]) matching walletAddresses.\n   * @return [2] Array of sum([0]) numbers indicating the completions for each account.\n   * @return [3] Array of sum([0]) numbers indicating the total number of requested\n                 attestations for each account.\n   */\n  function batchGetAttestationStats(bytes32[] calldata identifiersToLookup)\n    external\n    view\n    returns (uint256[] memory, address[] memory, uint64[] memory, uint64[] memory)\n  {\n    require(identifiersToLookup.length > 0, \"You have to pass at least one identifier\");\n\n    uint256[] memory matches;\n    address[] memory addresses;\n\n    (matches, addresses) = batchlookupAccountsForIdentifier(identifiersToLookup);\n\n    uint64[] memory completed = new uint64[](addresses.length);\n    uint64[] memory total = new uint64[](addresses.length);\n\n    uint256 currentIndex = 0;\n    for (uint256 i = 0; i < identifiersToLookup.length; i++) {\n      address[] memory addrs = identifiers[identifiersToLookup[i]].accounts;\n      for (uint256 matchIndex = 0; matchIndex < matches[i]; matchIndex++) {\n        addresses[currentIndex] = getAccounts().getWalletAddress(addrs[matchIndex]);\n        completed[currentIndex] = identifiers[identifiersToLookup[i]]\n          .attestations[addrs[matchIndex]]\n          .completed;\n        total[currentIndex] = identifiers[identifiersToLookup[i]].attestations[addrs[matchIndex]]\n          .requested;\n\n        currentIndex++;\n      }\n    }\n\n    return (matches, addresses, completed, total);\n  }\n\n  /**\n   * @notice Returns the state of a specific attestation.\n   * @param identifier Hash of the identifier.\n   * @param account Address of the account.\n   * @param issuer Address of the issuer.\n   * @return [\n   *           Status of the attestation,\n   *           Block number of request/completion the attestation,\n   *           Address of the token with which this attestation request was paid for\n   *         ]\n   */\n  function getAttestationState(bytes32 identifier, address account, address issuer)\n    external\n    view\n    returns (uint8, uint32, address)\n  {\n    Attestation storage attestation = identifiers[identifier].attestations[account]\n      .issuedAttestations[issuer];\n    return (\n      uint8(attestation.status),\n      attestation.blockNumber,\n      attestation.attestationRequestFeeToken\n    );\n\n  }\n\n  /**\n    * @notice Returns the state of all attestations that are completable\n    * @param identifier Hash of the identifier.\n    * @param account Address of the account.\n    * @return ( blockNumbers[] - Block number of request/completion the attestation,\n    *           issuers[] - Address of the issuer,\n    *           stringLengths[] - The length of each metadataURL string for each issuer,\n    *           stringData - All strings concatenated\n    *         )\n    */\n  function getCompletableAttestations(bytes32 identifier, address account)\n    external\n    view\n    returns (uint32[] memory, address[] memory, uint256[] memory, bytes memory)\n  {\n    AttestedAddress storage state = identifiers[identifier].attestations[account];\n    address[] storage issuers = state.selectedIssuers;\n\n    uint256 num = 0;\n    for (uint256 i = 0; i < issuers.length; i = i.add(1)) {\n      if (isAttestationCompletable(state.issuedAttestations[issuers[i]])) {\n        num = num.add(1);\n      }\n    }\n\n    uint32[] memory blockNumbers = new uint32[](num);\n    address[] memory completableIssuers = new address[](num);\n\n    uint256 pointer = 0;\n    for (uint256 i = 0; i < issuers.length; i = i.add(1)) {\n      if (isAttestationCompletable(state.issuedAttestations[issuers[i]])) {\n        blockNumbers[pointer] = state.issuedAttestations[issuers[i]].blockNumber;\n        completableIssuers[pointer] = issuers[i];\n        pointer = pointer.add(1);\n      }\n    }\n\n    uint256[] memory stringLengths;\n    bytes memory stringData;\n    (stringLengths, stringData) = getAccounts().batchGetMetadataURL(completableIssuers);\n    return (blockNumbers, completableIssuers, stringLengths, stringData);\n  }\n\n  /**\n   * @notice Returns the fee set for a particular token.\n   * @param token Address of the attestationRequestFeeToken.\n   * @return The fee.\n   */\n  function getAttestationRequestFee(address token) external view returns (uint256) {\n    return attestationRequestFees[token];\n  }\n\n  /**\n   * @notice Updates the fee  for a particular token.\n   * @param token The address of the attestationRequestFeeToken.\n   * @param fee The fee in 'token' that is required for each attestation.\n   */\n  function setAttestationRequestFee(address token, uint256 fee) public onlyOwner {\n    require(fee > 0, \"You have to specify a fee greater than 0\");\n    attestationRequestFees[token] = fee;\n    emit AttestationRequestFeeSet(token, fee);\n  }\n\n  /**\n   * @notice Updates 'attestationExpiryBlocks'.\n   * @param _attestationExpiryBlocks The new limit on blocks allowed to come between requesting\n   * an attestation and completing it.\n   */\n  function setAttestationExpiryBlocks(uint256 _attestationExpiryBlocks) public onlyOwner {\n    require(_attestationExpiryBlocks > 0, \"attestationExpiryBlocks has to be greater than 0\");\n    attestationExpiryBlocks = _attestationExpiryBlocks;\n    emit AttestationExpiryBlocksSet(_attestationExpiryBlocks);\n  }\n\n  /**\n   * @notice Updates 'selectIssuersWaitBlocks'.\n   * @param _selectIssuersWaitBlocks The wait period in blocks to call selectIssuers on attestation\n   *                                 requests.\n   */\n  function setSelectIssuersWaitBlocks(uint256 _selectIssuersWaitBlocks) public onlyOwner {\n    require(_selectIssuersWaitBlocks > 0, \"selectIssuersWaitBlocks has to be greater than 0\");\n    selectIssuersWaitBlocks = _selectIssuersWaitBlocks;\n    emit SelectIssuersWaitBlocksSet(_selectIssuersWaitBlocks);\n  }\n\n  /**\n   * @notice Validates the given attestation code.\n   * @param identifier The hash of the identifier to be attested.\n   * @param v The recovery id of the incoming ECDSA signature.\n   * @param r Output value r of the ECDSA signature.\n   * @param s Output value s of the ECDSA signature.\n   * @return The issuer of the corresponding attestation.\n   * @dev Throws if there is no matching outstanding attestation request.\n   * @dev Throws if the attestation window has passed.\n   */\n  function validateAttestationCode(\n    bytes32 identifier,\n    address account,\n    uint8 v,\n    bytes32 r,\n    bytes32 s\n  ) public view returns (address) {\n    bytes32 codehash = keccak256(abi.encodePacked(identifier, account));\n    address signer = Signatures.getSignerOfMessageHash(codehash, v, r, s);\n    address issuer = getAccounts().attestationSignerToAccount(signer);\n\n    Attestation storage attestation = identifiers[identifier].attestations[account]\n      .issuedAttestations[issuer];\n\n    require(\n      attestation.status == AttestationStatus.Incomplete,\n      \"Attestation code does not match any outstanding attestation\"\n    );\n    require(!isAttestationExpired(attestation.blockNumber), \"Attestation timed out\");\n\n    return issuer;\n  }\n\n  function lookupAccountsForIdentifier(bytes32 identifier)\n    external\n    view\n    returns (address[] memory)\n  {\n    return identifiers[identifier].accounts;\n  }\n\n  /**\n   * @notice Helper function for batchGetAttestationStats to calculate the\n             total number of addresses that have >0 complete attestations for the identifiers.\n   * @param identifiersToLookup Array of n identifiers.\n   * @return Array of n numbers that indicate the number of matching addresses per identifier\n   *         and array of addresses preallocated for total number of matches.\n   */\n  function batchlookupAccountsForIdentifier(bytes32[] memory identifiersToLookup)\n    internal\n    view\n    returns (uint256[] memory, address[] memory)\n  {\n    require(identifiersToLookup.length > 0, \"You have to pass at least one identifier\");\n    uint256 totalAddresses = 0;\n    uint256[] memory matches = new uint256[](identifiersToLookup.length);\n\n    for (uint256 i = 0; i < identifiersToLookup.length; i++) {\n      uint256 count = identifiers[identifiersToLookup[i]].accounts.length;\n\n      totalAddresses = totalAddresses + count;\n      matches[i] = count;\n    }\n\n    return (matches, new address[](totalAddresses));\n  }\n\n  /**\n   * @notice Adds additional attestations given the current randomness.\n   * @param identifier The hash of the identifier to be attested.\n   */\n  function addIncompleteAttestations(bytes32 identifier) internal {\n    AttestedAddress storage state = identifiers[identifier].attestations[msg.sender];\n    UnselectedRequest storage unselectedRequest = identifiers[identifier].unselectedRequests[msg\n      .sender];\n\n    bytes32 seed = getRandom().getBlockRandomness(\n      uint256(unselectedRequest.blockNumber).add(selectIssuersWaitBlocks)\n    );\n    uint256 numberValidators = numberValidatorsInCurrentSet();\n\n    uint256 currentIndex = 0;\n    address validator;\n    address issuer;\n\n    while (currentIndex < unselectedRequest.attestationsRequested) {\n      seed = keccak256(abi.encodePacked(seed));\n      validator = validatorAddressFromCurrentSet(uint256(seed) % numberValidators);\n      issuer = getAccounts().validatorSignerToAccount(validator);\n      Attestation storage attestation = state.issuedAttestations[issuer];\n\n      // Attestation issuers can only be added if they haven't been already.\n      if (attestation.status != AttestationStatus.None) {\n        continue;\n      }\n\n      currentIndex = currentIndex.add(1);\n      attestation.status = AttestationStatus.Incomplete;\n      attestation.blockNumber = unselectedRequest.blockNumber;\n      attestation.attestationRequestFeeToken = unselectedRequest.attestationRequestFeeToken;\n      state.selectedIssuers.push(issuer);\n\n      emit AttestationIssuerSelected(\n        identifier,\n        msg.sender,\n        issuer,\n        unselectedRequest.attestationRequestFeeToken\n      );\n    }\n  }\n\n  function isAttestationExpired(uint128 attestationRequestBlock) internal view returns (bool) {\n    return block.number >= uint256(attestationRequestBlock).add(attestationExpiryBlocks);\n  }\n\n  function isAttestationCompletable(Attestation storage attestation) internal view returns (bool) {\n    return (attestation.status == AttestationStatus.Incomplete &&\n      !isAttestationExpired(attestation.blockNumber));\n  }\n\n  function isAttestationRequestSelectable(uint256 attestationRequestBlock)\n    internal\n    view\n    returns (bool)\n  {\n    return block.number < attestationRequestBlock.add(getRandom().randomnessBlockRetentionWindow());\n  }\n}\n",
  "sourcePath": "/Users/cmcewen/celo/celo-monorepo/packages/protocol/contracts/identity/Attestations.sol",
  "compiler": {
    "name": "solc",
    "version": "0.5.8+commit.23d335f2.Emscripten.clang"
  },
  "schemaVersion": "3.0.10",
  "updatedAt": "2019-12-06T00:12:54.984Z",
  "devdoc": {
    "methods": {
      "batchGetAttestationStats(bytes32[])": {
        "params": {
          "identifiersToLookup": "Array of n identifiers."
        },
        "return": "[0] Array of number of matching accounts per identifier.[1] Array of sum([0]) matching walletAddresses.[2] Array of sum([0]) numbers indicating the completions for each account.[3] Array of sum([0]) numbers indicating the total number of requested attestations for each account."
      },
      "checkProofOfPossession(address,bytes,bytes)": {
        "params": {
          "blsKey": "The BLS public key that the validator is using for consensus, should pass proof  of possession. 48 bytes.",
          "blsPop": "The BLS public key proof-of-possession, which consists of a signature on the  account address. 96 bytes.",
          "sender": "The address signed by the BLS key to generate the proof of possession."
        },
        "return": "True upon success."
      },
      "complete(bytes32,uint8,bytes32,bytes32)": {
        "details": "Throws if there is no matching outstanding attestation request.Throws if the attestation window has passed.",
        "params": {
          "identifier": "The hash of the identifier for this attestation.",
          "r": "Output value r of the ECDSA signature.",
          "s": "Output value s of the ECDSA signature.",
          "v": "The recovery id of the incoming ECDSA signature."
        }
      },
      "fractionMulExp(uint256,uint256,uint256,uint256,uint256,uint256)": {
        "params": {
          "_decimals": "precision",
          "aDenominator": "Denominator of first fraction",
          "aNumerator": "Numerator of first fraction",
          "bDenominator": "Denominator of exponentiated fraction",
          "bNumerator": "Numerator of exponentiated fraction",
          "exponent": "exponent to raise b to"
        },
        "return": "numerator/denominator of the computed quantity (not reduced)."
      },
      "getAttestationIssuers(bytes32,address)": {
        "params": {
          "account": "Address of the account.",
          "identifier": "Hash of the identifier."
        },
        "return": "Addresses of the selected attestation issuers."
      },
      "getAttestationRequestFee(address)": {
        "params": {
          "token": "Address of the attestationRequestFeeToken."
        },
        "return": "The fee."
      },
      "getAttestationState(bytes32,address,address)": {
        "params": {
          "account": "Address of the account.",
          "identifier": "Hash of the identifier.",
          "issuer": "Address of the issuer."
        },
        "return": "[          Status of the attestation,          Block number of request/completion the attestation,          Address of the token with which this attestation request was paid for        ]"
      },
      "getAttestationStats(bytes32,address)": {
        "params": {
          "account": "Address of the account.",
          "identifier": "Hash of the identifier."
        },
        "return": "[Number of completed attestations, Number of total requested attestations]"
      },
      "getCompletableAttestations(bytes32,address)": {
        "params": {
          "account": "Address of the account.",
          "identifier": "Hash of the identifier."
        },
        "return": "( blockNumbers[] - Block number of request/completion the attestation,          issuers[] - Address of the issuer,          stringLengths[] - The length of each metadataURL string for each issuer,          stringData - All strings concatenated        )"
      },
      "getEpochSize()": {
        "return": "The current epoch size in blocks."
      },
      "getUnselectedRequest(bytes32,address)": {
        "params": {
          "account": "Address of the account.",
          "identifier": "Hash of the identifier."
        },
        "return": "[          Block number at which was requested,          Number of unselected requests,          Address of the token with which this attestation request was paid for        ]"
      },
      "isOwner()": {
        "return": "true if `msg.sender` is the owner of the contract."
      },
      "numberValidatorsInCurrentSet()": {
        "return": "Size of the current elected validator set."
      },
      "owner()": {
        "return": "the address of the owner."
      },
      "renounceOwnership()": {
        "details": "Allows the current owner to relinquish control of the contract. It will not be possible to call the functions with the `onlyOwner` modifier anymore."
      },
      "request(bytes32,uint256,address)": {
        "params": {
          "attestationRequestFeeToken": "The address of the token with which the attestation fee will be paid.",
          "attestationsRequested": "The number of requested attestations for this request.",
          "identifier": "The hash of the identifier to be attested."
        }
      },
      "revoke(bytes32,uint256)": {
        "params": {
          "identifier": "The identifier for which to revoke.",
          "index": "The index of the account in the accounts array."
        }
      },
      "selectIssuers(bytes32)": {
        "params": {
          "identifier": "The hash of the identifier to be attested."
        }
      },
      "setAttestationExpiryBlocks(uint256)": {
        "params": {
          "_attestationExpiryBlocks": "The new limit on blocks allowed to come between requesting an attestation and completing it."
        }
      },
      "setAttestationRequestFee(address,uint256)": {
        "params": {
          "fee": "The fee in 'token' that is required for each attestation.",
          "token": "The address of the attestationRequestFeeToken."
        }
      },
      "setRegistry(address)": {
        "params": {
          "registryAddress": "The address of a registry contract for routing to other contracts."
        }
      },
      "setSelectIssuersWaitBlocks(uint256)": {
        "params": {
          "_selectIssuersWaitBlocks": "The wait period in blocks to call selectIssuers on attestation                                requests."
        }
      },
      "transferOwnership(address)": {
        "details": "Allows the current owner to transfer control of the contract to a newOwner.",
        "params": {
          "newOwner": "The address to transfer ownership to."
        }
      },
      "validateAttestationCode(bytes32,address,uint8,bytes32,bytes32)": {
        "details": "Throws if there is no matching outstanding attestation request.Throws if the attestation window has passed.",
        "params": {
          "identifier": "The hash of the identifier to be attested.",
          "r": "Output value r of the ECDSA signature.",
          "s": "Output value s of the ECDSA signature.",
          "v": "The recovery id of the incoming ECDSA signature."
        },
        "return": "The issuer of the corresponding attestation."
      },
      "validatorAddressFromCurrentSet(uint256)": {
        "params": {
          "index": "Index of requested validator in the validator set as sorted by the election."
        },
        "return": "Address of validator at the requested index."
      },
      "withdraw(address)": {
        "details": "Throws if msg.sender does not have any rewards to withdraw.",
        "params": {
          "token": "The address of the token that will be withdrawn."
        }
      }
    },
    "title": "Contract mapping identifiers to accounts"
  },
  "userdoc": {
    "methods": {
      "batchGetAttestationStats(bytes32[])": {
        "notice": "Batch lookup function to determine attestation stats for a list of identifiers."
      },
      "checkProofOfPossession(address,bytes,bytes)": {
        "notice": "Checks a BLS proof of possession."
      },
      "complete(bytes32,uint8,bytes32,bytes32)": {
        "notice": "Submit the secret message sent by the issuer to complete the attestation request."
      },
      "fractionMulExp(uint256,uint256,uint256,uint256,uint256,uint256)": {
        "notice": "calculate a * b^x for fractions a, b to `decimals` precision"
      },
      "getAttestationIssuers(bytes32,address)": {
        "notice": "Returns selected attestation issuers for a identifier/account pair."
      },
      "getAttestationRequestFee(address)": {
        "notice": "Returns the fee set for a particular token."
      },
      "getAttestationState(bytes32,address,address)": {
        "notice": "Returns the state of a specific attestation."
      },
      "getAttestationStats(bytes32,address)": {
        "notice": "Returns attestation stats for a identifier/account pair."
      },
      "getCompletableAttestations(bytes32,address)": {
        "notice": "Returns the state of all attestations that are completable"
      },
      "getEpochSize()": {
        "notice": "Returns the current epoch size in blocks."
      },
      "getUnselectedRequest(bytes32,address)": {
        "notice": "Returns the unselected attestation request for an identifier/account pair, if any."
      },
      "numberValidatorsInCurrentSet()": {
        "notice": "Gets the size of the current elected validator set."
      },
      "renounceOwnership()": {
        "notice": "Renouncing ownership will leave the contract without an owner, thereby removing any functionality that is only available to the owner."
      },
      "request(bytes32,uint256,address)": {
        "notice": "Commit to the attestation request of a hashed identifier."
      },
      "revoke(bytes32,uint256)": {
        "notice": "Revokes an account for an identifier."
      },
      "selectIssuers(bytes32)": {
        "notice": "Selects the issuers for the most recent attestation request."
      },
      "setAttestationExpiryBlocks(uint256)": {
        "notice": "Updates 'attestationExpiryBlocks'."
      },
      "setAttestationRequestFee(address,uint256)": {
        "notice": "Updates the fee  for a particular token."
      },
      "setRegistry(address)": {
        "notice": "Updates the address pointing to a Registry contract."
      },
      "setSelectIssuersWaitBlocks(uint256)": {
        "notice": "Updates 'selectIssuersWaitBlocks'."
      },
      "validateAttestationCode(bytes32,address,uint8,bytes32,bytes32)": {
        "notice": "Validates the given attestation code."
      },
      "validatorAddressFromCurrentSet(uint256)": {
        "notice": "Gets a validator address from the current validator set."
      },
      "withdraw(address)": {
        "notice": "Allows issuers to withdraw accumulated attestation rewards."
      }
    }
  }
}