{
  "contractName": "BlockchainParameters",
  "abi": [
    {
      "constant": true,
      "inputs": [],
      "name": "initialized",
      "outputs": [
        {
          "name": "",
          "type": "bool"
        }
      ],
      "payable": false,
      "stateMutability": "view",
      "type": "function"
    },
    {
      "constant": false,
      "inputs": [],
      "name": "renounceOwnership",
      "outputs": [],
      "payable": false,
      "stateMutability": "nonpayable",
      "type": "function"
    },
    {
      "constant": true,
      "inputs": [],
      "name": "blockGasLimit",
      "outputs": [
        {
          "name": "",
          "type": "uint256"
        }
      ],
      "payable": false,
      "stateMutability": "view",
      "type": "function"
    },
    {
      "constant": true,
      "inputs": [],
      "name": "intrinsicGasForAlternativeFeeCurrency",
      "outputs": [
        {
          "name": "",
          "type": "uint256"
        }
      ],
      "payable": false,
      "stateMutability": "view",
      "type": "function"
    },
    {
      "constant": true,
      "inputs": [],
      "name": "owner",
      "outputs": [
        {
          "name": "",
          "type": "address"
        }
      ],
      "payable": false,
      "stateMutability": "view",
      "type": "function"
    },
    {
      "constant": true,
      "inputs": [],
      "name": "isOwner",
      "outputs": [
        {
          "name": "",
          "type": "bool"
        }
      ],
      "payable": false,
      "stateMutability": "view",
      "type": "function"
    },
    {
      "constant": false,
      "inputs": [
        {
          "name": "newOwner",
          "type": "address"
        }
      ],
      "name": "transferOwnership",
      "outputs": [],
      "payable": false,
      "stateMutability": "nonpayable",
      "type": "function"
    },
    {
      "anonymous": false,
      "inputs": [
        {
          "indexed": false,
          "name": "major",
          "type": "uint256"
        },
        {
          "indexed": false,
          "name": "minor",
          "type": "uint256"
        },
        {
          "indexed": false,
          "name": "patch",
          "type": "uint256"
        }
      ],
      "name": "MinimumClientVersionSet",
      "type": "event"
    },
    {
      "anonymous": false,
      "inputs": [
        {
          "indexed": false,
          "name": "gas",
          "type": "uint256"
        }
      ],
      "name": "IntrinsicGasForAlternativeFeeCurrencySet",
      "type": "event"
    },
    {
      "anonymous": false,
      "inputs": [
        {
          "indexed": false,
          "name": "limit",
          "type": "uint256"
        }
      ],
      "name": "BlockGasLimitSet",
      "type": "event"
    },
    {
      "anonymous": false,
      "inputs": [
        {
          "indexed": true,
          "name": "previousOwner",
          "type": "address"
        },
        {
          "indexed": true,
          "name": "newOwner",
          "type": "address"
        }
      ],
      "name": "OwnershipTransferred",
      "type": "event"
    },
    {
      "constant": false,
      "inputs": [
        {
          "name": "major",
          "type": "uint256"
        },
        {
          "name": "minor",
          "type": "uint256"
        },
        {
          "name": "patch",
          "type": "uint256"
        },
        {
          "name": "_gasForNonGoldCurrencies",
          "type": "uint256"
        },
        {
          "name": "gasLimit",
          "type": "uint256"
        }
      ],
      "name": "initialize",
      "outputs": [],
      "payable": false,
      "stateMutability": "nonpayable",
      "type": "function"
    },
    {
      "constant": false,
      "inputs": [
        {
          "name": "major",
          "type": "uint256"
        },
        {
          "name": "minor",
          "type": "uint256"
        },
        {
          "name": "patch",
          "type": "uint256"
        }
      ],
      "name": "setMinimumClientVersion",
      "outputs": [],
      "payable": false,
      "stateMutability": "nonpayable",
      "type": "function"
    },
    {
      "constant": false,
      "inputs": [
        {
          "name": "gasLimit",
          "type": "uint256"
        }
      ],
      "name": "setBlockGasLimit",
      "outputs": [],
      "payable": false,
      "stateMutability": "nonpayable",
      "type": "function"
    },
    {
      "constant": false,
      "inputs": [
        {
          "name": "gas",
          "type": "uint256"
        }
      ],
      "name": "setIntrinsicGasForAlternativeFeeCurrency",
      "outputs": [],
      "payable": false,
      "stateMutability": "nonpayable",
      "type": "function"
    },
    {
      "constant": true,
      "inputs": [],
      "name": "getMinimumClientVersion",
      "outputs": [
        {
          "name": "major",
          "type": "uint256"
        },
        {
          "name": "minor",
          "type": "uint256"
        },
        {
          "name": "patch",
          "type": "uint256"
        }
      ],
      "payable": false,
      "stateMutability": "view",
      "type": "function"
    }
  ],
  "bytecode": "0x6080604052336000806101000a81548173ffffffffffffffffffffffffffffffffffffffff021916908373ffffffffffffffffffffffffffffffffffffffff1602179055506000809054906101000a900473ffffffffffffffffffffffffffffffffffffffff1673ffffffffffffffffffffffffffffffffffffffff16600073ffffffffffffffffffffffffffffffffffffffff167f8be0079c531659141344cd1fd0a4f28419497f9722a3daafe3b4186f6b6457e060405160405180910390a3610742806100cf6000396000f3fe608060405234801561001057600080fd5b50600436106100b45760003560e01c80638f32d59b116100715780638f32d59b14610197578063a69257f3146101b9578063bb3ff745146101e7578063cb0ec62814610229578063dcbab60814610257578063f2fde38b146102ad576100b4565b8063158ef93e146100b957806325eb315d146100db578063715018a6146101075780637877a79714610111578063808474f11461012f5780638da5cb5b1461014d575b600080fd5b6100c16102f1565b604051808215151515815260200191505060405180910390f35b6100e3610304565b60405180848152602001838152602001828152602001935050505060405180910390f35b61010f610325565b005b6101196103f5565b6040518082815260200191505060405180910390f35b6101376103fb565b6040518082815260200191505060405180910390f35b610155610401565b604051808273ffffffffffffffffffffffffffffffffffffffff1673ffffffffffffffffffffffffffffffffffffffff16815260200191505060405180910390f35b61019f61042a565b604051808215151515815260200191505060405180910390f35b6101e5600480360360208110156101cf57600080fd5b8101908080359060200190929190505050610481565b005b610227600480360360608110156101fd57600080fd5b810190808035906020019092919080359060200190929190803590602001909291905050506104d3565b005b6102556004803603602081101561023f57600080fd5b810190808035906020019092919050505061054d565b005b6102ab600480360360a081101561026d57600080fd5b81019080803590602001909291908035906020019092919080359060200190929190803590602001909291908035906020019092919050505061059f565b005b6102ef600480360360208110156102c357600080fd5b81019080803573ffffffffffffffffffffffffffffffffffffffff169060200190929190505050610601565b005b600060149054906101000a900460ff1681565b60008060006001600001546001800154600160020154925092509250909192565b61032d61042a565b61033657600080fd5b600073ffffffffffffffffffffffffffffffffffffffff166000809054906101000a900473ffffffffffffffffffffffffffffffffffffffff1673ffffffffffffffffffffffffffffffffffffffff167f8be0079c531659141344cd1fd0a4f28419497f9722a3daafe3b4186f6b6457e060405160405180910390a360008060006101000a81548173ffffffffffffffffffffffffffffffffffffffff021916908373ffffffffffffffffffffffffffffffffffffffff160217905550565b60045481565b60055481565b60008060009054906101000a900473ffffffffffffffffffffffffffffffffffffffff16905090565b60008060009054906101000a900473ffffffffffffffffffffffffffffffffffffffff1673ffffffffffffffffffffffffffffffffffffffff163373ffffffffffffffffffffffffffffffffffffffff1614905090565b61048961042a565b61049257600080fd5b806004819055507f55311ae9c14427b0863f38ed97a2a5944c50d824bbf692836246512e6822c3cf816040518082815260200191505060405180910390a150565b6104db61042a565b6104e457600080fd5b82600160000181905550816001800181905550806001600201819055507f809db05bd174a70ede53d18fc046c5ceb86ebffbb7746a0c8605772c97ef0d5283838360405180848152602001838152602001828152602001935050505060405180910390a1505050565b61055561042a565b61055e57600080fd5b806005819055507fba9c6f28c7d9990745a5b5282dbee04706c28cae24a44736c3ba99b57c021f3e816040518082815260200191505060405180910390a150565b600060149054906101000a900460ff16156105b957600080fd5b6001600060146101000a81548160ff0219169083151502179055506105dd3361061e565b6105e88585856104d3565b6105f181610481565b6105fa8261054d565b5050505050565b61060961042a565b61061257600080fd5b61061b8161061e565b50565b600073ffffffffffffffffffffffffffffffffffffffff168173ffffffffffffffffffffffffffffffffffffffff16141561065857600080fd5b8073ffffffffffffffffffffffffffffffffffffffff166000809054906101000a900473ffffffffffffffffffffffffffffffffffffffff1673ffffffffffffffffffffffffffffffffffffffff167f8be0079c531659141344cd1fd0a4f28419497f9722a3daafe3b4186f6b6457e060405160405180910390a3806000806101000a81548173ffffffffffffffffffffffffffffffffffffffff021916908373ffffffffffffffffffffffffffffffffffffffff1602179055505056fea165627a7a72305820ba267929e72ef58edd3521908781f077e8701f462e08264a5d5fd79ac8f4c8570029",
  "source": "pragma solidity ^0.5.3;\n\nimport \"openzeppelin-solidity/contracts/ownership/Ownable.sol\";\nimport \"../common/Initializable.sol\";\n\n/**\n * @title Contract for storing blockchain parameters that can be set by governance.\n */\ncontract BlockchainParameters is Ownable, Initializable {\n  struct ClientVersion {\n    uint256 major;\n    uint256 minor;\n    uint256 patch;\n  }\n\n  ClientVersion private minimumClientVersion;\n  uint256 public blockGasLimit;\n  uint256 public intrinsicGasForAlternativeFeeCurrency;\n\n  event MinimumClientVersionSet(uint256 major, uint256 minor, uint256 patch);\n  event IntrinsicGasForAlternativeFeeCurrencySet(uint256 gas);\n  event BlockGasLimitSet(uint256 limit);\n\n  /**\n   * @notice Initializes critical variables.\n   * @param major Minimum client version that can be used in the chain,\n   * major version.\n   * @param minor Minimum client version that can be used in the chain,\n   * minor version.\n   * @param patch Minimum client version that can be used in the chain,\n   * patch level.\n   * @param _gasForNonGoldCurrencies Intrinsic gas for non-gold gas currencies.\n   * @param gasLimit Block gas limit.\n   */\n  function initialize(\n    uint256 major,\n    uint256 minor,\n    uint256 patch,\n    uint256 _gasForNonGoldCurrencies,\n    uint256 gasLimit\n  ) external initializer {\n    _transferOwnership(msg.sender);\n    setMinimumClientVersion(major, minor, patch);\n    setBlockGasLimit(gasLimit);\n    setIntrinsicGasForAlternativeFeeCurrency(_gasForNonGoldCurrencies);\n  }\n\n  /**\n   * @notice Sets the minimum client version.\n   * @param major Major version.\n   * @param minor Minor version.\n   * @param patch Patch version.\n   * @dev For example if the version is 1.9.2, 1 is the major version, 9 is minor,\n   * and 2 is the patch level.\n   */\n  function setMinimumClientVersion(uint256 major, uint256 minor, uint256 patch) public onlyOwner {\n    minimumClientVersion.major = major;\n    minimumClientVersion.minor = minor;\n    minimumClientVersion.patch = patch;\n    emit MinimumClientVersionSet(major, minor, patch);\n  }\n\n  /**\n   * @notice Sets the block gas limit.\n   * @param gasLimit New block gas limit.\n   */\n  function setBlockGasLimit(uint256 gasLimit) public onlyOwner {\n    blockGasLimit = gasLimit;\n    emit BlockGasLimitSet(gasLimit);\n  }\n\n  /**\n   * @notice Sets the intrinsic gas for non-gold gas currencies.\n   * @param gas Intrinsic gas for non-gold gas currencies.\n   */\n  function setIntrinsicGasForAlternativeFeeCurrency(uint256 gas) public onlyOwner {\n    intrinsicGasForAlternativeFeeCurrency = gas;\n    emit IntrinsicGasForAlternativeFeeCurrencySet(gas);\n  }\n\n  /**\n   * @notice Query minimum client version.\n   * @return Returns major, minor, and patch version numbers.\n   */\n  function getMinimumClientVersion()\n    external\n    view\n    returns (uint256 major, uint256 minor, uint256 patch)\n  {\n    return (minimumClientVersion.major, minimumClientVersion.minor, minimumClientVersion.patch);\n  }\n\n}\n",
  "sourcePath": "/Users/cmcewen/celo/celo-monorepo/packages/protocol/contracts/governance/BlockchainParameters.sol",
  "compiler": {
    "name": "solc",
    "version": "0.5.8+commit.23d335f2.Emscripten.clang"
  },
  "schemaVersion": "3.0.10",
  "updatedAt": "2019-12-06T00:12:55.013Z",
  "devdoc": {
    "methods": {
      "getMinimumClientVersion()": {
        "return": "Returns major, minor, and patch version numbers."
      },
      "initialize(uint256,uint256,uint256,uint256,uint256)": {
        "params": {
          "_gasForNonGoldCurrencies": "Intrinsic gas for non-gold gas currencies.",
          "gasLimit": "Block gas limit.",
          "major": "Minimum client version that can be used in the chain, major version.",
          "minor": "Minimum client version that can be used in the chain, minor version.",
          "patch": "Minimum client version that can be used in the chain, patch level."
        }
      },
      "isOwner()": {
        "return": "true if `msg.sender` is the owner of the contract."
      },
      "owner()": {
        "return": "the address of the owner."
      },
      "renounceOwnership()": {
        "details": "Allows the current owner to relinquish control of the contract. It will not be possible to call the functions with the `onlyOwner` modifier anymore."
      },
      "setBlockGasLimit(uint256)": {
        "params": {
          "gasLimit": "New block gas limit."
        }
      },
      "setIntrinsicGasForAlternativeFeeCurrency(uint256)": {
        "params": {
          "gas": "Intrinsic gas for non-gold gas currencies."
        }
      },
      "setMinimumClientVersion(uint256,uint256,uint256)": {
        "details": "For example if the version is 1.9.2, 1 is the major version, 9 is minor, and 2 is the patch level.",
        "params": {
          "major": "Major version.",
          "minor": "Minor version.",
          "patch": "Patch version."
        }
      },
      "transferOwnership(address)": {
        "details": "Allows the current owner to transfer control of the contract to a newOwner.",
        "params": {
          "newOwner": "The address to transfer ownership to."
        }
      }
    },
    "title": "Contract for storing blockchain parameters that can be set by governance."
  },
  "userdoc": {
    "methods": {
      "getMinimumClientVersion()": {
        "notice": "Query minimum client version."
      },
      "initialize(uint256,uint256,uint256,uint256,uint256)": {
        "notice": "Initializes critical variables."
      },
      "renounceOwnership()": {
        "notice": "Renouncing ownership will leave the contract without an owner, thereby removing any functionality that is only available to the owner."
      },
      "setBlockGasLimit(uint256)": {
        "notice": "Sets the block gas limit."
      },
      "setIntrinsicGasForAlternativeFeeCurrency(uint256)": {
        "notice": "Sets the intrinsic gas for non-gold gas currencies."
      },
      "setMinimumClientVersion(uint256,uint256,uint256)": {
        "notice": "Sets the minimum client version."
      }
    }
  }
}