{
  "contractName": "Election",
  "abi": [
    {
      "constant": true,
      "inputs": [
        {
          "name": "index",
          "type": "uint256"
        }
      ],
      "name": "validatorAddressFromCurrentSet",
      "outputs": [
        {
          "name": "",
          "type": "address"
        }
      ],
      "payable": false,
      "stateMutability": "view",
      "type": "function"
    },
    {
      "constant": true,
      "inputs": [],
      "name": "initialized",
      "outputs": [
        {
          "name": "",
          "type": "bool"
        }
      ],
      "payable": false,
      "stateMutability": "view",
      "type": "function"
    },
    {
      "constant": false,
      "inputs": [
        {
          "name": "sender",
          "type": "address"
        },
        {
          "name": "blsKey",
          "type": "bytes"
        },
        {
          "name": "blsPop",
          "type": "bytes"
        }
      ],
      "name": "checkProofOfPossession",
      "outputs": [
        {
          "name": "",
          "type": "bool"
        }
      ],
      "payable": false,
      "stateMutability": "nonpayable",
      "type": "function"
    },
    {
      "constant": true,
      "inputs": [],
      "name": "electabilityThreshold",
      "outputs": [
        {
          "name": "value",
          "type": "uint256"
        }
      ],
      "payable": false,
      "stateMutability": "view",
      "type": "function"
    },
    {
      "constant": false,
      "inputs": [],
      "name": "renounceOwnership",
      "outputs": [],
      "payable": false,
      "stateMutability": "nonpayable",
      "type": "function"
    },
    {
      "constant": true,
      "inputs": [],
      "name": "registry",
      "outputs": [
        {
          "name": "",
          "type": "address"
        }
      ],
      "payable": false,
      "stateMutability": "view",
      "type": "function"
    },
    {
      "constant": true,
      "inputs": [],
      "name": "numberValidatorsInCurrentSet",
      "outputs": [
        {
          "name": "",
          "type": "uint256"
        }
      ],
      "payable": false,
      "stateMutability": "view",
      "type": "function"
    },
    {
      "constant": true,
      "inputs": [],
      "name": "owner",
      "outputs": [
        {
          "name": "",
          "type": "address"
        }
      ],
      "payable": false,
      "stateMutability": "view",
      "type": "function"
    },
    {
      "constant": true,
      "inputs": [],
      "name": "isOwner",
      "outputs": [
        {
          "name": "",
          "type": "bool"
        }
      ],
      "payable": false,
      "stateMutability": "view",
      "type": "function"
    },
    {
      "constant": true,
      "inputs": [],
      "name": "getEpochNumber",
      "outputs": [
        {
          "name": "",
          "type": "uint256"
        }
      ],
      "payable": false,
      "stateMutability": "view",
      "type": "function"
    },
    {
      "constant": false,
      "inputs": [
        {
          "name": "registryAddress",
          "type": "address"
        }
      ],
      "name": "setRegistry",
      "outputs": [],
      "payable": false,
      "stateMutability": "nonpayable",
      "type": "function"
    },
    {
      "constant": true,
      "inputs": [],
      "name": "maxNumGroupsVotedFor",
      "outputs": [
        {
          "name": "",
          "type": "uint256"
        }
      ],
      "payable": false,
      "stateMutability": "view",
      "type": "function"
    },
    {
      "constant": true,
      "inputs": [],
      "name": "getEpochSize",
      "outputs": [
        {
          "name": "",
          "type": "uint256"
        }
      ],
      "payable": false,
      "stateMutability": "view",
      "type": "function"
    },
    {
      "constant": true,
      "inputs": [
        {
          "name": "aNumerator",
          "type": "uint256"
        },
        {
          "name": "aDenominator",
          "type": "uint256"
        },
        {
          "name": "bNumerator",
          "type": "uint256"
        },
        {
          "name": "bDenominator",
          "type": "uint256"
        },
        {
          "name": "exponent",
          "type": "uint256"
        },
        {
          "name": "_decimals",
          "type": "uint256"
        }
      ],
      "name": "fractionMulExp",
      "outputs": [
        {
          "name": "",
          "type": "uint256"
        },
        {
          "name": "",
          "type": "uint256"
        }
      ],
      "payable": false,
      "stateMutability": "view",
      "type": "function"
    },
    {
      "constant": false,
      "inputs": [
        {
          "name": "newOwner",
          "type": "address"
        }
      ],
      "name": "transferOwnership",
      "outputs": [],
      "payable": false,
      "stateMutability": "nonpayable",
      "type": "function"
    },
    {
      "constant": true,
      "inputs": [],
      "name": "electableValidators",
      "outputs": [
        {
          "name": "min",
          "type": "uint256"
        },
        {
          "name": "max",
          "type": "uint256"
        }
      ],
      "payable": false,
      "stateMutability": "view",
      "type": "function"
    },
    {
      "anonymous": false,
      "inputs": [
        {
          "indexed": false,
          "name": "min",
          "type": "uint256"
        },
        {
          "indexed": false,
          "name": "max",
          "type": "uint256"
        }
      ],
      "name": "ElectableValidatorsSet",
      "type": "event"
    },
    {
      "anonymous": false,
      "inputs": [
        {
          "indexed": false,
          "name": "maxNumGroupsVotedFor",
          "type": "uint256"
        }
      ],
      "name": "MaxNumGroupsVotedForSet",
      "type": "event"
    },
    {
      "anonymous": false,
      "inputs": [
        {
          "indexed": false,
          "name": "electabilityThreshold",
          "type": "uint256"
        }
      ],
      "name": "ElectabilityThresholdSet",
      "type": "event"
    },
    {
      "anonymous": false,
      "inputs": [
        {
          "indexed": false,
          "name": "group",
          "type": "address"
        }
      ],
      "name": "ValidatorGroupMarkedEligible",
      "type": "event"
    },
    {
      "anonymous": false,
      "inputs": [
        {
          "indexed": false,
          "name": "group",
          "type": "address"
        }
      ],
      "name": "ValidatorGroupMarkedIneligible",
      "type": "event"
    },
    {
      "anonymous": false,
      "inputs": [
        {
          "indexed": true,
          "name": "account",
          "type": "address"
        },
        {
          "indexed": true,
          "name": "group",
          "type": "address"
        },
        {
          "indexed": false,
          "name": "value",
          "type": "uint256"
        }
      ],
      "name": "ValidatorGroupVoteCast",
      "type": "event"
    },
    {
      "anonymous": false,
      "inputs": [
        {
          "indexed": true,
          "name": "account",
          "type": "address"
        },
        {
          "indexed": true,
          "name": "group",
          "type": "address"
        },
        {
          "indexed": false,
          "name": "value",
          "type": "uint256"
        }
      ],
      "name": "ValidatorGroupVoteActivated",
      "type": "event"
    },
    {
      "anonymous": false,
      "inputs": [
        {
          "indexed": true,
          "name": "account",
          "type": "address"
        },
        {
          "indexed": true,
          "name": "group",
          "type": "address"
        },
        {
          "indexed": false,
          "name": "value",
          "type": "uint256"
        }
      ],
      "name": "ValidatorGroupVoteRevoked",
      "type": "event"
    },
    {
      "anonymous": false,
      "inputs": [
        {
          "indexed": true,
          "name": "registryAddress",
          "type": "address"
        }
      ],
      "name": "RegistrySet",
      "type": "event"
    },
    {
      "anonymous": false,
      "inputs": [
        {
          "indexed": true,
          "name": "previousOwner",
          "type": "address"
        },
        {
          "indexed": true,
          "name": "newOwner",
          "type": "address"
        }
      ],
      "name": "OwnershipTransferred",
      "type": "event"
    },
    {
      "constant": false,
      "inputs": [
        {
          "name": "registryAddress",
          "type": "address"
        },
        {
          "name": "minElectableValidators",
          "type": "uint256"
        },
        {
          "name": "maxElectableValidators",
          "type": "uint256"
        },
        {
          "name": "_maxNumGroupsVotedFor",
          "type": "uint256"
        },
        {
          "name": "_electabilityThreshold",
          "type": "uint256"
        }
      ],
      "name": "initialize",
      "outputs": [],
      "payable": false,
      "stateMutability": "nonpayable",
      "type": "function"
    },
    {
      "constant": false,
      "inputs": [
        {
          "name": "min",
          "type": "uint256"
        },
        {
          "name": "max",
          "type": "uint256"
        }
      ],
      "name": "setElectableValidators",
      "outputs": [
        {
          "name": "",
          "type": "bool"
        }
      ],
      "payable": false,
      "stateMutability": "nonpayable",
      "type": "function"
    },
    {
      "constant": true,
      "inputs": [],
      "name": "getElectableValidators",
      "outputs": [
        {
          "name": "",
          "type": "uint256"
        },
        {
          "name": "",
          "type": "uint256"
        }
      ],
      "payable": false,
      "stateMutability": "view",
      "type": "function"
    },
    {
      "constant": false,
      "inputs": [
        {
          "name": "_maxNumGroupsVotedFor",
          "type": "uint256"
        }
      ],
      "name": "setMaxNumGroupsVotedFor",
      "outputs": [
        {
          "name": "",
          "type": "bool"
        }
      ],
      "payable": false,
      "stateMutability": "nonpayable",
      "type": "function"
    },
    {
      "constant": false,
      "inputs": [
        {
          "name": "threshold",
          "type": "uint256"
        }
      ],
      "name": "setElectabilityThreshold",
      "outputs": [
        {
          "name": "",
          "type": "bool"
        }
      ],
      "payable": false,
      "stateMutability": "nonpayable",
      "type": "function"
    },
    {
      "constant": true,
      "inputs": [],
      "name": "getElectabilityThreshold",
      "outputs": [
        {
          "name": "",
          "type": "uint256"
        }
      ],
      "payable": false,
      "stateMutability": "view",
      "type": "function"
    },
    {
      "constant": false,
      "inputs": [
        {
          "name": "group",
          "type": "address"
        },
        {
          "name": "value",
          "type": "uint256"
        },
        {
          "name": "lesser",
          "type": "address"
        },
        {
          "name": "greater",
          "type": "address"
        }
      ],
      "name": "vote",
      "outputs": [
        {
          "name": "",
          "type": "bool"
        }
      ],
      "payable": false,
      "stateMutability": "nonpayable",
      "type": "function"
    },
    {
      "constant": false,
      "inputs": [
        {
          "name": "group",
          "type": "address"
        }
      ],
      "name": "activate",
      "outputs": [
        {
          "name": "",
          "type": "bool"
        }
      ],
      "payable": false,
      "stateMutability": "nonpayable",
      "type": "function"
    },
    {
      "constant": true,
      "inputs": [
        {
          "name": "account",
          "type": "address"
        },
        {
          "name": "group",
          "type": "address"
        }
      ],
      "name": "hasActivatablePendingVotes",
      "outputs": [
        {
          "name": "",
          "type": "bool"
        }
      ],
      "payable": false,
      "stateMutability": "view",
      "type": "function"
    },
    {
      "constant": false,
      "inputs": [
        {
          "name": "group",
          "type": "address"
        },
        {
          "name": "value",
          "type": "uint256"
        },
        {
          "name": "lesser",
          "type": "address"
        },
        {
          "name": "greater",
          "type": "address"
        },
        {
          "name": "index",
          "type": "uint256"
        }
      ],
      "name": "revokePending",
      "outputs": [
        {
          "name": "",
          "type": "bool"
        }
      ],
      "payable": false,
      "stateMutability": "nonpayable",
      "type": "function"
    },
    {
      "constant": false,
      "inputs": [
        {
          "name": "group",
          "type": "address"
        },
        {
          "name": "value",
          "type": "uint256"
        },
        {
          "name": "lesser",
          "type": "address"
        },
        {
          "name": "greater",
          "type": "address"
        },
        {
          "name": "index",
          "type": "uint256"
        }
      ],
      "name": "revokeActive",
      "outputs": [
        {
          "name": "",
          "type": "bool"
        }
      ],
      "payable": false,
      "stateMutability": "nonpayable",
      "type": "function"
    },
    {
      "constant": true,
      "inputs": [
        {
          "name": "account",
          "type": "address"
        }
      ],
      "name": "getTotalVotesByAccount",
      "outputs": [
        {
          "name": "",
          "type": "uint256"
        }
      ],
      "payable": false,
      "stateMutability": "view",
      "type": "function"
    },
    {
      "constant": true,
      "inputs": [
        {
          "name": "group",
          "type": "address"
        },
        {
          "name": "account",
          "type": "address"
        }
      ],
      "name": "getPendingVotesForGroupByAccount",
      "outputs": [
        {
          "name": "",
          "type": "uint256"
        }
      ],
      "payable": false,
      "stateMutability": "view",
      "type": "function"
    },
    {
      "constant": true,
      "inputs": [
        {
          "name": "group",
          "type": "address"
        },
        {
          "name": "account",
          "type": "address"
        }
      ],
      "name": "getActiveVotesForGroupByAccount",
      "outputs": [
        {
          "name": "",
          "type": "uint256"
        }
      ],
      "payable": false,
      "stateMutability": "view",
      "type": "function"
    },
    {
      "constant": true,
      "inputs": [
        {
          "name": "group",
          "type": "address"
        },
        {
          "name": "account",
          "type": "address"
        }
      ],
      "name": "getTotalVotesForGroupByAccount",
      "outputs": [
        {
          "name": "",
          "type": "uint256"
        }
      ],
      "payable": false,
      "stateMutability": "view",
      "type": "function"
    },
    {
      "constant": true,
      "inputs": [
        {
          "name": "group",
          "type": "address"
        }
      ],
      "name": "getTotalVotesForGroup",
      "outputs": [
        {
          "name": "",
          "type": "uint256"
        }
      ],
      "payable": false,
      "stateMutability": "view",
      "type": "function"
    },
    {
      "constant": true,
      "inputs": [
        {
          "name": "group",
          "type": "address"
        }
      ],
      "name": "getGroupEligibility",
      "outputs": [
        {
          "name": "",
          "type": "bool"
        }
      ],
      "payable": false,
      "stateMutability": "view",
      "type": "function"
    },
    {
      "constant": true,
      "inputs": [
        {
          "name": "group",
          "type": "address"
        },
        {
          "name": "totalEpochRewards",
          "type": "uint256"
        }
      ],
      "name": "getGroupEpochRewards",
      "outputs": [
        {
          "name": "",
          "type": "uint256"
        }
      ],
      "payable": false,
      "stateMutability": "view",
      "type": "function"
    },
    {
      "constant": false,
      "inputs": [
        {
          "name": "group",
          "type": "address"
        },
        {
          "name": "value",
          "type": "uint256"
        },
        {
          "name": "lesser",
          "type": "address"
        },
        {
          "name": "greater",
          "type": "address"
        }
      ],
      "name": "distributeEpochRewards",
      "outputs": [],
      "payable": false,
      "stateMutability": "nonpayable",
      "type": "function"
    },
    {
      "constant": false,
      "inputs": [
        {
          "name": "group",
          "type": "address"
        }
      ],
      "name": "markGroupIneligible",
      "outputs": [],
      "payable": false,
      "stateMutability": "nonpayable",
      "type": "function"
    },
    {
      "constant": false,
      "inputs": [
        {
          "name": "group",
          "type": "address"
        },
        {
          "name": "lesser",
          "type": "address"
        },
        {
          "name": "greater",
          "type": "address"
        }
      ],
      "name": "markGroupEligible",
      "outputs": [],
      "payable": false,
      "stateMutability": "nonpayable",
      "type": "function"
    },
    {
      "constant": true,
      "inputs": [
        {
          "name": "account",
          "type": "address"
        }
      ],
      "name": "getGroupsVotedForByAccount",
      "outputs": [
        {
          "name": "",
          "type": "address[]"
        }
      ],
      "payable": false,
      "stateMutability": "view",
      "type": "function"
    },
    {
      "constant": true,
      "inputs": [
        {
          "name": "group",
          "type": "address"
        },
        {
          "name": "value",
          "type": "uint256"
        }
      ],
      "name": "canReceiveVotes",
      "outputs": [
        {
          "name": "",
          "type": "bool"
        }
      ],
      "payable": false,
      "stateMutability": "view",
      "type": "function"
    },
    {
      "constant": true,
      "inputs": [
        {
          "name": "group",
          "type": "address"
        }
      ],
      "name": "getNumVotesReceivable",
      "outputs": [
        {
          "name": "",
          "type": "uint256"
        }
      ],
      "payable": false,
      "stateMutability": "view",
      "type": "function"
    },
    {
      "constant": true,
      "inputs": [],
      "name": "getTotalVotes",
      "outputs": [
        {
          "name": "",
          "type": "uint256"
        }
      ],
      "payable": false,
      "stateMutability": "view",
      "type": "function"
    },
    {
      "constant": true,
      "inputs": [],
      "name": "getActiveVotes",
      "outputs": [
        {
          "name": "",
          "type": "uint256"
        }
      ],
      "payable": false,
      "stateMutability": "view",
      "type": "function"
    },
    {
      "constant": true,
      "inputs": [],
      "name": "getEligibleValidatorGroups",
      "outputs": [
        {
          "name": "",
          "type": "address[]"
        }
      ],
      "payable": false,
      "stateMutability": "view",
      "type": "function"
    },
    {
      "constant": true,
      "inputs": [],
      "name": "getTotalVotesForEligibleValidatorGroups",
      "outputs": [
        {
          "name": "groups",
          "type": "address[]"
        },
        {
          "name": "values",
          "type": "uint256[]"
        }
      ],
      "payable": false,
      "stateMutability": "view",
      "type": "function"
    },
    {
      "constant": true,
      "inputs": [],
      "name": "electValidatorSigners",
      "outputs": [
        {
          "name": "",
          "type": "address[]"
        }
      ],
      "payable": false,
      "stateMutability": "view",
      "type": "function"
    },
    {
      "constant": true,
      "inputs": [],
      "name": "getCurrentValidatorSigners",
      "outputs": [
        {
          "name": "",
          "type": "address[]"
        }
      ],
      "payable": false,
      "stateMutability": "view",
      "type": "function"
    }
  ],
  "bytecode": "0x6080604052336000806101000a81548173ffffffffffffffffffffffffffffffffffffffff021916908373ffffffffffffffffffffffffffffffffffffffff1602179055506000809054906101000a900473ffffffffffffffffffffffffffffffffffffffff1673ffffffffffffffffffffffffffffffffffffffff16600073ffffffffffffffffffffffffffffffffffffffff167f8be0079c531659141344cd1fd0a4f28419497f9722a3daafe3b4186f6b6457e060405160405180910390a360018081905550615e62806100d66000396000f3fe608060405234801561001057600080fd5b506004361061028a5760003560e01c80638da5cb5b1161015c578063bdd14318116100ce578063ec68307211610087578063ec6830721461114e578063f2fde38b146111c9578063f911f0b71461120d578063f92ad2191461125d578063f9d7daae146112c9578063f9f41a7a146112ee5761028a565b8063bdd1431814610f7a578063c48a9c8614610f98578063d3e242a414610ffa578063dedafeae14611072578063df4da461146110ca578063e59ea3e8146110e85761028a565b80639dfb6081116101205780639dfb608114610d41578063a18fb2db14610df1578063a5826ab214610e75578063a8e4587114610ed4578063a91ee0dc14610f18578063ac839d6914610f5c5761028a565b80638da5cb5b14610c215780638f32d59b14610c6b5780639a0e7d6614610c8d5780639a7b3be714610cab5780639b95975f14610cc95761028a565b8063448144c8116102005780636e198475116101b95780636e198475146109fc5780637046c96b14610aac578063715018a614610b535780637b10399914610b5d57806387ee8a0f14610ba75780638c66677514610bc55761028a565b8063448144c8146107a2578063457578a3146108015780634be8843b1461089a578063580d747a146108b8578063631db7e71461095e5780636c781a2c146109a45761028a565b806323f0ab651161025257806323f0ab6514610427578063263ecf74146105b15780632ba38e691461062d5780632c3b79161461068c57806338617272146106e45780633c55a73c1461075c5761028a565b806311fb9e841461028f57806312541a6b146102fd578063158ef93e1461038b5780631c5a9d9c146103ad5780631f60424314610409575b600080fd5b6102bb600480360360208110156102a557600080fd5b8101908080359060200190929190505050611313565b604051808273ffffffffffffffffffffffffffffffffffffffff1673ffffffffffffffffffffffffffffffffffffffff16815260200191505060405180910390f35b6103896004803603608081101561031357600080fd5b81019080803573ffffffffffffffffffffffffffffffffffffffff16906020019092919080359060200190929190803573ffffffffffffffffffffffffffffffffffffffff169060200190929190803573ffffffffffffffffffffffffffffffffffffffff169060200190929190505050611343565b005b61039361138e565b604051808215151515815260200191505060405180910390f35b6103ef600480360360208110156103c357600080fd5b81019080803573ffffffffffffffffffffffffffffffffffffffff1690602001909291905050506113a1565b604051808215151515815260200191505060405180910390f35b6104116115c9565b6040518082815260200191505060405180910390f35b6105976004803603606081101561043d57600080fd5b81019080803573ffffffffffffffffffffffffffffffffffffffff1690602001909291908035906020019064010000000081111561047a57600080fd5b82018360208201111561048c57600080fd5b803590602001918460018302840111640100000000831117156104ae57600080fd5b91908080601f016020809104026020016040519081016040528093929190818152602001838380828437600081840152601f19601f8201169050808301925050505050505091929192908035906020019064010000000081111561051157600080fd5b82018360208201111561052357600080fd5b8035906020019184600183028401116401000000008311171561054557600080fd5b91908080601f016020809104026020016040519081016040528093929190818152602001838380828437600081840152601f19601f8201169050808301925050505050505091929192905050506115d9565b604051808215151515815260200191505060405180910390f35b610613600480360360408110156105c757600080fd5b81019080803573ffffffffffffffffffffffffffffffffffffffff169060200190929190803573ffffffffffffffffffffffffffffffffffffffff169060200190929190505050611799565b604051808215151515815260200191505060405180910390f35b61063561184a565b6040518080602001828103825283818151815260200191508051906020019060200280838360005b8381101561067857808201518184015260208101905061065d565b505050509050019250505060405180910390f35b6106ce600480360360208110156106a257600080fd5b81019080803573ffffffffffffffffffffffffffffffffffffffff169060200190929190505050611e97565b6040518082815260200191505060405180910390f35b610746600480360360408110156106fa57600080fd5b81019080803573ffffffffffffffffffffffffffffffffffffffff169060200190929190803573ffffffffffffffffffffffffffffffffffffffff1690602001909291905050506120bd565b6040518082815260200191505060405180910390f35b6107886004803603602081101561077257600080fd5b81019080803590602001909291905050506120f7565b604051808215151515815260200191505060405180910390f35b6107aa612160565b6040518080602001828103825283818151815260200191508051906020019060200280838360005b838110156107ed5780820151818401526020810190506107d2565b505050509050019250505060405180910390f35b6108436004803603602081101561081757600080fd5b81019080803573ffffffffffffffffffffffffffffffffffffffff169060200190929190505050612215565b6040518080602001828103825283818151815260200191508051906020019060200280838360005b8381101561088657808201518184015260208101905061086b565b505050509050019250505060405180910390f35b6108a26122e5565b6040518082815260200191505060405180910390f35b610944600480360360808110156108ce57600080fd5b81019080803573ffffffffffffffffffffffffffffffffffffffff16906020019092919080359060200190929190803573ffffffffffffffffffffffffffffffffffffffff169060200190929190803573ffffffffffffffffffffffffffffffffffffffff1690602001909291905050506122f1565b604051808215151515815260200191505060405180910390f35b61098a6004803603602081101561097457600080fd5b81019080803590602001909291905050506127cb565b604051808215151515815260200191505060405180910390f35b6109e6600480360360208110156109ba57600080fd5b81019080803573ffffffffffffffffffffffffffffffffffffffff1690602001909291905050506128bb565b6040518082815260200191505060405180910390f35b610a92600480360360a0811015610a1257600080fd5b81019080803573ffffffffffffffffffffffffffffffffffffffff16906020019092919080359060200190929190803573ffffffffffffffffffffffffffffffffffffffff169060200190929190803573ffffffffffffffffffffffffffffffffffffffff169060200190929190803590602001909291905050506129f3565b604051808215151515815260200191505060405180910390f35b610ab4612cc9565b604051808060200180602001838103835285818151815260200191508051906020019060200280838360005b83811015610afb578082015181840152602081019050610ae0565b50505050905001838103825284818151815260200191508051906020019060200280838360005b83811015610b3d578082015181840152602081019050610b22565b5050505090500194505050505060405180910390f35b610b5b612e0c565b005b610b65612edc565b604051808273ffffffffffffffffffffffffffffffffffffffff1673ffffffffffffffffffffffffffffffffffffffff16815260200191505060405180910390f35b610baf612f02565b6040518082815260200191505060405180910390f35b610c0760048036036020811015610bdb57600080fd5b81019080803573ffffffffffffffffffffffffffffffffffffffff169060200190929190505050612f27565b604051808215151515815260200191505060405180910390f35b610c29612ff7565b604051808273ffffffffffffffffffffffffffffffffffffffff1673ffffffffffffffffffffffffffffffffffffffff16815260200191505060405180910390f35b610c73613020565b604051808215151515815260200191505060405180910390f35b610c95613077565b6040518082815260200191505060405180910390f35b610cb36130a1565b6040518082815260200191505060405180910390f35b610d2b60048036036040811015610cdf57600080fd5b81019080803573ffffffffffffffffffffffffffffffffffffffff169060200190929190803573ffffffffffffffffffffffffffffffffffffffff1690602001909291905050506130dd565b6040518082815260200191505060405180910390f35b610dd7600480360360a0811015610d5757600080fd5b81019080803573ffffffffffffffffffffffffffffffffffffffff16906020019092919080359060200190929190803573ffffffffffffffffffffffffffffffffffffffff169060200190929190803573ffffffffffffffffffffffffffffffffffffffff16906020019092919080359060200190929190505050613170565b604051808215151515815260200191505060405180910390f35b610e7360048036036060811015610e0757600080fd5b81019080803573ffffffffffffffffffffffffffffffffffffffff169060200190929190803573ffffffffffffffffffffffffffffffffffffffff169060200190929190803573ffffffffffffffffffffffffffffffffffffffff169060200190929190505050613446565b005b610e7d613766565b6040518080602001828103825283818151815260200191508051906020019060200280838360005b83811015610ec0578082015181840152602081019050610ea5565b505050509050019250505060405180910390f35b610f1660048036036020811015610eea57600080fd5b81019080803573ffffffffffffffffffffffffffffffffffffffff169060200190929190505050613856565b005b610f5a60048036036020811015610f2e57600080fd5b81019080803573ffffffffffffffffffffffffffffffffffffffff169060200190929190505050613af6565b005b610f64613b8e565b6040518082815260200191505060405180910390f35b610f82613b94565b6040518082815260200191505060405180910390f35b610fe460048036036040811015610fae57600080fd5b81019080803573ffffffffffffffffffffffffffffffffffffffff16906020019092919080359060200190929190505050613bba565b6040518082815260200191505060405180910390f35b61105c6004803603604081101561101057600080fd5b81019080803573ffffffffffffffffffffffffffffffffffffffff169060200190929190803573ffffffffffffffffffffffffffffffffffffffff169060200190929190505050613d1b565b6040518082815260200191505060405180910390f35b6110b46004803603602081101561108857600080fd5b81019080803573ffffffffffffffffffffffffffffffffffffffff169060200190929190505050613dfd565b6040518082815260200191505060405180910390f35b6110d2613ea9565b6040518082815260200191505060405180910390f35b611134600480360360408110156110fe57600080fd5b81019080803573ffffffffffffffffffffffffffffffffffffffff16906020019092919080359060200190929190505050613ed4565b604051808215151515815260200191505060405180910390f35b6111ac600480360360c081101561116457600080fd5b8101908080359060200190929190803590602001909291908035906020019092919080359060200190929190803590602001909291908035906020019092919050505061411e565b604051808381526020018281526020019250505060405180910390f35b61120b600480360360208110156111df57600080fd5b81019080803573ffffffffffffffffffffffffffffffffffffffff1690602001909291905050506141b9565b005b6112436004803603604081101561122357600080fd5b8101908080359060200190929190803590602001909291905050506141d6565b604051808215151515815260200191505060405180910390f35b6112c7600480360360a081101561127357600080fd5b81019080803573ffffffffffffffffffffffffffffffffffffffff1690602001909291908035906020019092919080359060200190929190803590602001909291908035906020019092919050505061429b565b005b6112d1614308565b604051808381526020018281526020019250505060405180910390f35b6112f661431a565b604051808381526020018281526020019250505060405180910390f35b60008060405183815260008060208360fa611388fa60206000604084013e60408201519250505080915050919050565b600073ffffffffffffffffffffffffffffffffffffffff163373ffffffffffffffffffffffffffffffffffffffff161461137c57600080fd5b61138884848484614331565b50505050565b600260009054906101000a900460ff1681565b6000600180600082825401925050819055506000600154905060006113c46146c4565b73ffffffffffffffffffffffffffffffffffffffff16636642d594336040518263ffffffff1660e01b8152600401808273ffffffffffffffffffffffffffffffffffffffff1673ffffffffffffffffffffffffffffffffffffffff16815260200191505060206040518083038186803b15801561144057600080fd5b505afa158015611454573d6000803e3d6000fd5b505050506040513d602081101561146a57600080fd5b810190808051906020019092919050505090506000600360000160010160008673ffffffffffffffffffffffffffffffffffffffff1673ffffffffffffffffffffffffffffffffffffffff16815260200190815260200160002060010160008373ffffffffffffffffffffffffffffffffffffffff1673ffffffffffffffffffffffffffffffffffffffff168152602001908152602001600020905061150e6130a1565b81600101541061151d57600080fd5b6000816000015490506000811161153357600080fd5b61153e8684836147bf565b6115498684836148cf565b8573ffffffffffffffffffffffffffffffffffffffff168373ffffffffffffffffffffffffffffffffffffffff167f50363f7a646042bcb294d6afdef2d53f4122379845e67627b6db367f31934f16836040518082815260200191505060405180910390a36001945050505060015481146115c357600080fd5b50919050565b6000600360020160000154905090565b60008060fb73ffffffffffffffffffffffffffffffffffffffff1660005a90878787604051602001808473ffffffffffffffffffffffffffffffffffffffff1673ffffffffffffffffffffffffffffffffffffffff1660601b815260140183805190602001908083835b602083106116665780518252602082019150602081019050602083039250611643565b6001836020036101000a03801982511681845116808217855250505050505090500182805190602001908083835b602083106116b75780518252602082019150602081019050602083039250611694565b6001836020036101000a03801982511681845116808217855250505050505090500193505050506040516020818303038152906040526040518082805190602001908083835b6020831061172057805182526020820191506020810190506020830392506116fd565b6001836020036101000a038019825116818451168082178552505050505050905001915050600060405180830381858888f193505050503d8060008114611783576040519150601f19603f3d011682016040523d82523d6000602084013e611788565b606091505b505080915050809150509392505050565b600080600360000160010160008473ffffffffffffffffffffffffffffffffffffffff1673ffffffffffffffffffffffffffffffffffffffff16815260200190815260200160002060010160008573ffffffffffffffffffffffffffffffffffffffff1673ffffffffffffffffffffffffffffffffffffffff168152602001908152602001600020905061182b6130a1565b8160010154108015611841575060008160000154115b91505092915050565b6060600061188e61188961186461185f613077565b614a29565b6010604051806020016040529081600082015481525050614a6790919063ffffffff16565b614cb9565b90506000600360040160000173__AddressSortedLinkedList_______________6342b6351a909184600d600101546040518463ffffffff1660e01b815260040180848152602001838152602001828152602001935050505060206040518083038186803b1580156118ff57600080fd5b505af4158015611913573d6000803e3d6000fd5b505050506040513d602081101561192957600080fd5b810190808051906020019092919050505090506060600360040160000173__AddressSortedLinkedList_______________63dcb2a4dd9091846040518363ffffffff1660e01b8152600401808381526020018281526020019250505060006040518083038186803b15801561199e57600080fd5b505af41580156119b2573d6000803e3d6000fd5b505050506040513d6000823e3d601f19601f8201168201806040525060208110156119dc57600080fd5b8101908080516401000000008111156119f457600080fd5b82810190506020810184811115611a0a57600080fd5b8151856020820283011164010000000082111715611a2757600080fd5b505092919050505090506060611a3b614cda565b73ffffffffffffffffffffffffffffffffffffffff166370447754836040518263ffffffff1660e01b81526004018080602001828103825283818151815260200191508051906020019060200280838360005b83811015611aa9578082015181840152602081019050611a8e565b505050509050019250505060006040518083038186803b158015611acc57600080fd5b505afa158015611ae0573d6000803e3d6000fd5b505050506040513d6000823e3d601f19601f820116820180604052506020811015611b0a57600080fd5b810190808051640100000000811115611b2257600080fd5b82810190506020810184811115611b3857600080fd5b8151856020820283011164010000000082111715611b5557600080fd5b5050929190505050905060608251604051908082528060200260200182016040528015611b915781602001602082028038833980820191505090505b50905060008090505b600d60010154811015611c325760008090506000809050611bbc868686614dd5565b80925081935050508015611c2457611bf16001858481518110611bdb57fe5b6020026020010151614fb790919063ffffffff16565b848381518110611bfd57fe5b602002602001018181525050611c1d600184614fb790919063ffffffff16565b9250611c2b565b5050611c32565b5050611b9a565b600d60000154811015611c4457600080fd5b606081604051908082528060200260200182016040528015611c755781602001602082028038833980820191505090505b5090506000915060008090505b8551811015611e89576060611c95614cda565b73ffffffffffffffffffffffffffffffffffffffff16638dd31e39888481518110611cbc57fe5b6020026020010151878581518110611cd057fe5b60200260200101516040518363ffffffff1660e01b8152600401808373ffffffffffffffffffffffffffffffffffffffff1673ffffffffffffffffffffffffffffffffffffffff1681526020018281526020019250505060006040518083038186803b158015611d3f57600080fd5b505afa158015611d53573d6000803e3d6000fd5b505050506040513d6000823e3d601f19601f820116820180604052506020811015611d7d57600080fd5b810190808051640100000000811115611d9557600080fd5b82810190506020810184811115611dab57600080fd5b8151856020820283011164010000000082111715611dc857600080fd5b5050929190505050905060008090505b8151811015611e6c57818181518110611ded57fe5b6020026020010151848681518110611e0157fe5b602002602001019073ffffffffffffffffffffffffffffffffffffffff16908173ffffffffffffffffffffffffffffffffffffffff1681525050611e4f600186614fb790919063ffffffff16565b9450611e65600182614fb790919063ffffffff16565b9050611dd8565b5050611e82600182614fb790919063ffffffff16565b9050611c82565b508097505050505050505090565b600080612005611ea5614fd6565b73ffffffffffffffffffffffffffffffffffffffff166330a61d596040518163ffffffff1660e01b815260040160206040518083038186803b158015611eea57600080fd5b505afa158015611efe573d6000803e3d6000fd5b505050506040513d6020811015611f1457600080fd5b8101908080519060200190929190505050611ff76001611f32614cda565b73ffffffffffffffffffffffffffffffffffffffff166339e618e8886040518263ffffffff1660e01b8152600401808273ffffffffffffffffffffffffffffffffffffffff1673ffffffffffffffffffffffffffffffffffffffff16815260200191505060206040518083038186803b158015611fae57600080fd5b505afa158015611fc2573d6000803e3d6000fd5b505050506040513d6020811015611fd857600080fd5b8101908080519060200190929190505050614fb790919063ffffffff16565b6150d190919063ffffffff16565b9050600061209f600d6001015461201a614cda565b73ffffffffffffffffffffffffffffffffffffffff1663517f6d336040518163ffffffff1660e01b815260040160206040518083038186803b15801561205f57600080fd5b505afa158015612073573d6000803e3d6000fd5b505050506040513d602081101561208957600080fd5b810190808051906020019092919050505061510b565b90506120b4818361512490919063ffffffff16565b92505050919050565b6000806120ca84846130dd565b905060006120d88585613d1b565b90506120ed8183614fb790919063ffffffff16565b9250505092915050565b6000612101613020565b61210a57600080fd5b600f5482141561211957600080fd5b81600f819055507f1993a3864c31265ef86eec51d147eff697dee0466c92ac9abddcc4c4c6829348826040518082815260200191505060405180910390a160019050919050565b6060600061216c612f02565b905060608160405190808252806020026020018201604052801561219f5781602001602082028038833980820191505090505b50905060008090505b8281101561220c576121b981611313565b8282815181106121c557fe5b602002602001019073ffffffffffffffffffffffffffffffffffffffff16908173ffffffffffffffffffffffffffffffffffffffff168152505080806001019150506121a8565b50809250505090565b6060600360090160008373ffffffffffffffffffffffffffffffffffffffff1673ffffffffffffffffffffffffffffffffffffffff1681526020019081526020016000208054806020026020016040519081016040528092919081815260200182805480156122d957602002820191906000526020600020905b8160009054906101000a900473ffffffffffffffffffffffffffffffffffffffff1673ffffffffffffffffffffffffffffffffffffffff168152602001906001019080831161228f575b50505050509050919050565b60108060000154905081565b60006001806000828254019250508190555060006001549050600360040160000173__AddressSortedLinkedList_______________6302f130289091886040518363ffffffff1660e01b8152600401808381526020018273ffffffffffffffffffffffffffffffffffffffff1673ffffffffffffffffffffffffffffffffffffffff1681526020019250505060206040518083038186803b15801561239657600080fd5b505af41580156123aa573d6000803e3d6000fd5b505050506040513d60208110156123c057600080fd5b81019080805190602001909291905050506123da57600080fd5b846000106123e757600080fd5b6123f18686613ed4565b612463576040517f08c379a00000000000000000000000000000000000000000000000000000000081526004018080602001828103825260178152602001807f556e61626c6520746f207265636569766520766f74657300000000000000000081525060200191505060405180910390fd5b600061246d6146c4565b73ffffffffffffffffffffffffffffffffffffffff16636642d594336040518263ffffffff1660e01b8152600401808273ffffffffffffffffffffffffffffffffffffffff1673ffffffffffffffffffffffffffffffffffffffff16815260200191505060206040518083038186803b1580156124e957600080fd5b505afa1580156124fd573d6000803e3d6000fd5b505050506040513d602081101561251357600080fd5b8101908080519060200190929190505050905060008090506000600360090160008473ffffffffffffffffffffffffffffffffffffffff1673ffffffffffffffffffffffffffffffffffffffff168152602001908152602001600020905060008090505b818054905081101561260d5782806125f057508973ffffffffffffffffffffffffffffffffffffffff168282815481106125ad57fe5b9060005260206000200160009054906101000a900473ffffffffffffffffffffffffffffffffffffffff1673ffffffffffffffffffffffffffffffffffffffff16145b9250612606600182614fb790919063ffffffff16565b9050612577565b508161268b57600f5481805490501061262557600080fd5b808990806001815401808255809150509060018203906000526020600020016000909192909190916101000a81548173ffffffffffffffffffffffffffffffffffffffff021916908373ffffffffffffffffffffffffffffffffffffffff160217905550505b61269689848a61514a565b6126a289898989615252565b6126aa614fd6565b73ffffffffffffffffffffffffffffffffffffffff166318a4ff8c848a6040518363ffffffff1660e01b8152600401808373ffffffffffffffffffffffffffffffffffffffff1673ffffffffffffffffffffffffffffffffffffffff16815260200182815260200192505050600060405180830381600087803b15801561273057600080fd5b505af1158015612744573d6000803e3d6000fd5b505050508873ffffffffffffffffffffffffffffffffffffffff168373ffffffffffffffffffffffffffffffffffffffff167fd3532f70444893db82221041edb4dc26c94593aeb364b0b14dfc77d5ee9051528a6040518082815260200191505060405180910390a36001945050505060015481146127c257600080fd5b50949350505050565b60006127d5613020565b6127de57600080fd5b6127e78261544a565b601060008201518160000155905050612826612801615468565b601060405180602001604052908160008201548152505061548e90919063ffffffff16565b61287b576040517f08c379a000000000000000000000000000000000000000000000000000000000815260040180806020018281038252602e815260200180615e09602e913960400191505060405180910390fd5b7f9854be03126e38f9c318d8aabe1b150d09cb3a57059b21855b1e11d44e082c1a826040518082815260200191505060405180910390a160019050919050565b600080600090506060600360090160008573ffffffffffffffffffffffffffffffffffffffff1673ffffffffffffffffffffffffffffffffffffffff16815260200190815260200160002080548060200260200160405190810160405280929190818152602001828054801561298657602002820191906000526020600020905b8160009054906101000a900473ffffffffffffffffffffffffffffffffffffffff1673ffffffffffffffffffffffffffffffffffffffff168152602001906001019080831161293c575b5050505050905060008090505b81518110156129e8576129cb6129bc8383815181106129ae57fe5b6020026020010151876120bd565b84614fb790919063ffffffff16565b92506129e1600182614fb790919063ffffffff16565b9050612993565b508192505050919050565b60006001806000828254019250508190555060006001549050600073ffffffffffffffffffffffffffffffffffffffff168773ffffffffffffffffffffffffffffffffffffffff161415612a4657600080fd5b6000612a506146c4565b73ffffffffffffffffffffffffffffffffffffffff16636642d594336040518263ffffffff1660e01b8152600401808273ffffffffffffffffffffffffffffffffffffffff1673ffffffffffffffffffffffffffffffffffffffff16815260200191505060206040518083038186803b158015612acc57600080fd5b505afa158015612ae0573d6000803e3d6000fd5b505050506040513d6020811015612af657600080fd5b81019080805190602001909291905050509050866000108015612b225750612b1e8882613d1b565b8711155b612b2b57600080fd5b612b368882896154a3565b612b42888888886155fd565b612b4a614fd6565b73ffffffffffffffffffffffffffffffffffffffff16636edf77a582896040518363ffffffff1660e01b8152600401808373ffffffffffffffffffffffffffffffffffffffff1673ffffffffffffffffffffffffffffffffffffffff16815260200182815260200192505050600060405180830381600087803b158015612bd057600080fd5b505af1158015612be4573d6000803e3d6000fd5b505050506000612bf489836120bd565b1415612c4757612c46600360090160008373ffffffffffffffffffffffffffffffffffffffff1673ffffffffffffffffffffffffffffffffffffffff16815260200190815260200160002089866158c2565b5b8773ffffffffffffffffffffffffffffffffffffffff168173ffffffffffffffffffffffffffffffffffffffff167fa06c722f7d446349fdd811f3d539bc91c7b11df8a2f4e012685712a30068f668896040518082815260200191505060405180910390a360019250506001548114612cbf57600080fd5b5095945050505050565b606080600360040160000173__AddressSortedLinkedList_______________6369b317e390916040518263ffffffff1660e01b81526004018082815260200191505060006040518083038186803b158015612d2457600080fd5b505af4158015612d38573d6000803e3d6000fd5b505050506040513d6000823e3d601f19601f820116820180604052506040811015612d6257600080fd5b810190808051640100000000811115612d7a57600080fd5b82810190506020810184811115612d9057600080fd5b8151856020820283011164010000000082111715612dad57600080fd5b50509291906020018051640100000000811115612dc957600080fd5b82810190506020810184811115612ddf57600080fd5b8151856020820283011164010000000082111715612dfc57600080fd5b5050929190505050915091509091565b612e14613020565b612e1d57600080fd5b600073ffffffffffffffffffffffffffffffffffffffff166000809054906101000a900473ffffffffffffffffffffffffffffffffffffffff1673ffffffffffffffffffffffffffffffffffffffff167f8be0079c531659141344cd1fd0a4f28419497f9722a3daafe3b4186f6b6457e060405160405180910390a360008060006101000a81548173ffffffffffffffffffffffffffffffffffffffff021916908373ffffffffffffffffffffffffffffffffffffffff160217905550565b600260019054906101000a900473ffffffffffffffffffffffffffffffffffffffff1681565b60008060008060008060f9611388fa60405160206000823e8051925050508091505090565b6000600360040160000173__AddressSortedLinkedList_______________6302f130289091846040518363ffffffff1660e01b8152600401808381526020018273ffffffffffffffffffffffffffffffffffffffff1673ffffffffffffffffffffffffffffffffffffffff1681526020019250505060206040518083038186803b158015612fb557600080fd5b505af4158015612fc9573d6000803e3d6000fd5b505050506040513d6020811015612fdf57600080fd5b81019080805190602001909291905050509050919050565b60008060009054906101000a900473ffffffffffffffffffffffffffffffffffffffff16905090565b60008060009054906101000a900473ffffffffffffffffffffffffffffffffffffffff1673ffffffffffffffffffffffffffffffffffffffff163373ffffffffffffffffffffffffffffffffffffffff1614905090565b600061309c600360000160000154600360020160000154614fb790919063ffffffff16565b905090565b6000806130ac613ea9565b905060008143816130b957fe5b04905060008243816130c757fe5b0614156130d5576001810390505b809250505090565b6000600360000160010160008473ffffffffffffffffffffffffffffffffffffffff1673ffffffffffffffffffffffffffffffffffffffff16815260200190815260200160002060010160008373ffffffffffffffffffffffffffffffffffffffff1673ffffffffffffffffffffffffffffffffffffffff16815260200190815260200160002060000154905092915050565b60006001806000828254019250508190555060006001549050600073ffffffffffffffffffffffffffffffffffffffff168773ffffffffffffffffffffffffffffffffffffffff1614156131c357600080fd5b60006131cd6146c4565b73ffffffffffffffffffffffffffffffffffffffff16636642d594336040518263ffffffff1660e01b8152600401808273ffffffffffffffffffffffffffffffffffffffff1673ffffffffffffffffffffffffffffffffffffffff16815260200191505060206040518083038186803b15801561324957600080fd5b505afa15801561325d573d6000803e3d6000fd5b505050506040513d602081101561327357600080fd5b8101908080519060200190929190505050905086600010801561329f575061329b88826130dd565b8711155b6132a857600080fd5b6132b38882896147bf565b6132bf888888886155fd565b6132c7614fd6565b73ffffffffffffffffffffffffffffffffffffffff16636edf77a582896040518363ffffffff1660e01b8152600401808373ffffffffffffffffffffffffffffffffffffffff1673ffffffffffffffffffffffffffffffffffffffff16815260200182815260200192505050600060405180830381600087803b15801561334d57600080fd5b505af1158015613361573d6000803e3d6000fd5b50505050600061337189836120bd565b14156133c4576133c3600360090160008373ffffffffffffffffffffffffffffffffffffffff1673ffffffffffffffffffffffffffffffffffffffff16815260200190815260200160002089866158c2565b5b8773ffffffffffffffffffffffffffffffffffffffff168173ffffffffffffffffffffffffffffffffffffffff167fa06c722f7d446349fdd811f3d539bc91c7b11df8a2f4e012685712a30068f668896040518082815260200191505060405180910390a36001925050600154811461343c57600080fd5b5095945050505050565b60405160200180807f56616c696461746f727300000000000000000000000000000000000000000000815250600a019050604051602081830303815290604052805190602001203373ffffffffffffffffffffffffffffffffffffffff16600260019054906101000a900473ffffffffffffffffffffffffffffffffffffffff1673ffffffffffffffffffffffffffffffffffffffff1663dcf0aaed836040518263ffffffff1660e01b81526004018082815260200191505060206040518083038186803b15801561351757600080fd5b505afa15801561352b573d6000803e3d6000fd5b505050506040513d602081101561354157600080fd5b810190808051906020019092919050505073ffffffffffffffffffffffffffffffffffffffff16146135db576040517f08c379a00000000000000000000000000000000000000000000000000000000081526004018080602001828103825260188152602001807f6f6e6c79207265676973746572656420636f6e7472616374000000000000000081525060200191505060405180910390fd5b60006135e685613dfd565b9050600360040160000173__AddressSortedLinkedList_______________632dedbbf09091878488886040518663ffffffff1660e01b8152600401808681526020018573ffffffffffffffffffffffffffffffffffffffff1673ffffffffffffffffffffffffffffffffffffffff1681526020018481526020018373ffffffffffffffffffffffffffffffffffffffff1673ffffffffffffffffffffffffffffffffffffffff1681526020018273ffffffffffffffffffffffffffffffffffffffff1673ffffffffffffffffffffffffffffffffffffffff1681526020019550505050505060006040518083038186803b1580156136e457600080fd5b505af41580156136f8573d6000803e3d6000fd5b505050507f8f21dc7ff6f55d73e4fca52a4ef4fcc14fbda43ac338d24922519d51455d39c185604051808273ffffffffffffffffffffffffffffffffffffffff1673ffffffffffffffffffffffffffffffffffffffff16815260200191505060405180910390a15050505050565b6060600360040160000173__AddressSortedLinkedList_______________633a72e80290916040518263ffffffff1660e01b81526004018082815260200191505060006040518083038186803b1580156137c057600080fd5b505af41580156137d4573d6000803e3d6000fd5b505050506040513d6000823e3d601f19601f8201168201806040525060208110156137fe57600080fd5b81019080805164010000000081111561381657600080fd5b8281019050602081018481111561382c57600080fd5b815185602082028301116401000000008211171561384957600080fd5b5050929190505050905090565b60405160200180807f56616c696461746f727300000000000000000000000000000000000000000000815250600a019050604051602081830303815290604052805190602001203373ffffffffffffffffffffffffffffffffffffffff16600260019054906101000a900473ffffffffffffffffffffffffffffffffffffffff1673ffffffffffffffffffffffffffffffffffffffff1663dcf0aaed836040518263ffffffff1660e01b81526004018082815260200191505060206040518083038186803b15801561392757600080fd5b505afa15801561393b573d6000803e3d6000fd5b505050506040513d602081101561395157600080fd5b810190808051906020019092919050505073ffffffffffffffffffffffffffffffffffffffff16146139eb576040517f08c379a00000000000000000000000000000000000000000000000000000000081526004018080602001828103825260188152602001807f6f6e6c79207265676973746572656420636f6e7472616374000000000000000081525060200191505060405180910390fd5b600360040160000173__AddressSortedLinkedList_______________63281359299091846040518363ffffffff1660e01b8152600401808381526020018273ffffffffffffffffffffffffffffffffffffffff1673ffffffffffffffffffffffffffffffffffffffff1681526020019250505060006040518083038186803b158015613a7757600080fd5b505af4158015613a8b573d6000803e3d6000fd5b505050507f5c8cd4e832f3a7d79f9208c2acf25a412143aa3f751cfd3728c42a0fea4921a882604051808273ffffffffffffffffffffffffffffffffffffffff1673ffffffffffffffffffffffffffffffffffffffff16815260200191505060405180910390a15050565b613afe613020565b613b0757600080fd5b80600260016101000a81548173ffffffffffffffffffffffffffffffffffffffff021916908373ffffffffffffffffffffffffffffffffffffffff1602179055508073ffffffffffffffffffffffffffffffffffffffff167f27fe5f0c1c3b1ed427cc63d0f05759ffdecf9aec9e18d31ef366fc8a6cb5dc3b60405160405180910390a250565b600f5481565b6000613bb560106040518060200160405290816000820154815250506159fa565b905090565b6000613bc4614cda565b73ffffffffffffffffffffffffffffffffffffffff1663c54c1cd4846040518263ffffffff1660e01b8152600401808273ffffffffffffffffffffffffffffffffffffffff1673ffffffffffffffffffffffffffffffffffffffff16815260200191505060206040518083038186803b158015613c4057600080fd5b505afa158015613c54573d6000803e3d6000fd5b505050506040513d6020811015613c6a57600080fd5b81019080805190602001909291905050508015613c8f57506000600360020160000154115b15613d1057613d09600360020160000154613cfb600360020160010160008773ffffffffffffffffffffffffffffffffffffffff1673ffffffffffffffffffffffffffffffffffffffff16815260200190815260200160002060000154856150d190919063ffffffff16565b61512490919063ffffffff16565b9050613d15565b600090505b92915050565b600080600360020160010160008573ffffffffffffffffffffffffffffffffffffffff1673ffffffffffffffffffffffffffffffffffffffff16815260200190815260200160002090506000613dbf82600001548360020160008773ffffffffffffffffffffffffffffffffffffffff1673ffffffffffffffffffffffffffffffffffffffff168152602001908152602001600020546150d190919063ffffffff16565b90506000811415613dd557600092505050613df7565b600082600101549050613df1818361512490919063ffffffff16565b93505050505b92915050565b6000613ea2600360020160010160008473ffffffffffffffffffffffffffffffffffffffff1673ffffffffffffffffffffffffffffffffffffffff16815260200190815260200160002060000154600360000160010160008573ffffffffffffffffffffffffffffffffffffffff1673ffffffffffffffffffffffffffffffffffffffff16815260200190815260200160002060000154614fb790919063ffffffff16565b9050919050565b60008060405160008060008360f86103e8fa60206000602084013e6020820151925050508091505090565b600080613ef283613ee486613dfd565b614fb790919063ffffffff16565b90506000613f9e613f8f600d60010154613f0a614cda565b73ffffffffffffffffffffffffffffffffffffffff1663517f6d336040518163ffffffff1660e01b815260040160206040518083038186803b158015613f4f57600080fd5b505afa158015613f63573d6000803e3d6000fd5b505050506040513d6020811015613f7957600080fd5b810190808051906020019092919050505061510b565b836150d190919063ffffffff16565b9050600061410d613fad614fd6565b73ffffffffffffffffffffffffffffffffffffffff166330a61d596040518163ffffffff1660e01b815260040160206040518083038186803b158015613ff257600080fd5b505afa158015614006573d6000803e3d6000fd5b505050506040513d602081101561401c57600080fd5b81019080805190602001909291905050506140ff600161403a614cda565b73ffffffffffffffffffffffffffffffffffffffff166339e618e88b6040518263ffffffff1660e01b8152600401808273ffffffffffffffffffffffffffffffffffffffff1673ffffffffffffffffffffffffffffffffffffffff16815260200191505060206040518083038186803b1580156140b657600080fd5b505afa1580156140ca573d6000803e3d6000fd5b505050506040513d60208110156140e057600080fd5b8101908080519060200190929190505050614fb790919063ffffffff16565b6150d190919063ffffffff16565b905080821115935050505092915050565b60008060008714158015614133575060008514155b61413c57600080fd5b6000806040513681016040528a81528960208201528860408201528760608201528660808201528560a082015260008060c48360fc61041afa3d604051818101604052816000823e826000811461419d5781519650602082015195506141a1565b8282fd5b50505050508181935093505050965096945050505050565b6141c1613020565b6141ca57600080fd5b6141d381615a08565b50565b60006141e0613020565b6141e957600080fd5b8260001080156141f95750818311155b61420257600080fd5b600d600001548314158061421b5750600d600101548214155b61422457600080fd5b604051806040016040528084815260200183815250600d60008201518160000155602082015181600101559050507fb3ae64819ff89f6136eb58b8563cb32c6550f17eaf97f9ecc32f23783229f6de8383604051808381526020018281526020019250505060405180910390a16001905092915050565b600260009054906101000a900460ff16156142b557600080fd5b6001600260006101000a81548160ff0219169083151502179055506142d933615a08565b6142e285613af6565b6142ec84846141d6565b506142f6826120f7565b50614300816127cb565b505050505050565b600d8060000154908060010154905082565b600080600d60000154600d60010154915091509091565b600360040160000173__AddressSortedLinkedList_______________6302f130289091866040518363ffffffff1660e01b8152600401808381526020018273ffffffffffffffffffffffffffffffffffffffff1673ffffffffffffffffffffffffffffffffffffffff1681526020019250505060206040518083038186803b1580156143bd57600080fd5b505af41580156143d1573d6000803e3d6000fd5b505050506040513d60208110156143e757600080fd5b8101908080519060200190929190505050156145f05760006144d884600360040160000173__AddressSortedLinkedList_______________63e0fe44b39091896040518363ffffffff1660e01b8152600401808381526020018273ffffffffffffffffffffffffffffffffffffffff1673ffffffffffffffffffffffffffffffffffffffff1681526020019250505060206040518083038186803b15801561448f57600080fd5b505af41580156144a3573d6000803e3d6000fd5b505050506040513d60208110156144b957600080fd5b8101908080519060200190929190505050614fb790919063ffffffff16565b9050600360040160000173__AddressSortedLinkedList_______________63cab455ae9091878487876040518663ffffffff1660e01b8152600401808681526020018573ffffffffffffffffffffffffffffffffffffffff1673ffffffffffffffffffffffffffffffffffffffff1681526020018481526020018373ffffffffffffffffffffffffffffffffffffffff1673ffffffffffffffffffffffffffffffffffffffff1681526020018273ffffffffffffffffffffffffffffffffffffffff1673ffffffffffffffffffffffffffffffffffffffff1681526020019550505050505060006040518083038186803b1580156145d657600080fd5b505af41580156145ea573d6000803e3d6000fd5b50505050505b61464b83600360020160010160008773ffffffffffffffffffffffffffffffffffffffff1673ffffffffffffffffffffffffffffffffffffffff16815260200190815260200160002060000154614fb790919063ffffffff16565b600360020160010160008673ffffffffffffffffffffffffffffffffffffffff1673ffffffffffffffffffffffffffffffffffffffff168152602001908152602001600020600001819055506146b283600360020160000154614fb790919063ffffffff16565b60036002016000018190555050505050565b6000600260019054906101000a900473ffffffffffffffffffffffffffffffffffffffff1673ffffffffffffffffffffffffffffffffffffffff1663dcf0aaed60405160200180807f4163636f756e74730000000000000000000000000000000000000000000000008152506008019050604051602081830303815290604052805190602001206040518263ffffffff1660e01b81526004018082815260200191505060206040518083038186803b15801561477f57600080fd5b505afa158015614793573d6000803e3d6000fd5b505050506040513d60208110156147a957600080fd5b8101908080519060200190929190505050905090565b6000600360000190506147df828260000154615b0090919063ffffffff16565b816000018190555060008160010160008673ffffffffffffffffffffffffffffffffffffffff1673ffffffffffffffffffffffffffffffffffffffff1681526020019081526020016000209050614843838260000154615b0090919063ffffffff16565b816000018190555060008160010160008673ffffffffffffffffffffffffffffffffffffffff1673ffffffffffffffffffffffffffffffffffffffff16815260200190815260200160002090506148a7848260000154615b0090919063ffffffff16565b81600001819055506000816000015414156148c757600081600101819055505b505050505050565b6000600360020190506148ef828260000154614fb790919063ffffffff16565b816000018190555060006149038584615b20565b905060008260010160008773ffffffffffffffffffffffffffffffffffffffff1673ffffffffffffffffffffffffffffffffffffffff1681526020019081526020016000209050614961848260000154614fb790919063ffffffff16565b8160000181905550614980828260010154614fb790919063ffffffff16565b81600101819055506149dc828260020160008873ffffffffffffffffffffffffffffffffffffffff1673ffffffffffffffffffffffffffffffffffffffff16815260200190815260200160002054614fb790919063ffffffff16565b8160020160008773ffffffffffffffffffffffffffffffffffffffff1673ffffffffffffffffffffffffffffffffffffffff16815260200190815260200160002081905550505050505050565b614a31615da4565b614a39615c38565b821115614a4557600080fd5b604051806020016040528069d3c21bcecceda100000084028152509050919050565b614a6f615da4565b600083600001511480614a86575060008260000151145b15614aa257604051806020016040528060008152509050614cb3565b69d3c21bcecceda100000082600001511415614ac057829050614cb3565b69d3c21bcecceda100000083600001511415614ade57819050614cb3565b600069d3c21bcecceda1000000614af485615c57565b6000015181614aff57fe5b0490506000614b0d85615c8e565b600001519050600069d3c21bcecceda1000000614b2986615c57565b6000015181614b3457fe5b0490506000614b4286615c8e565b6000015190506000828502905060008514614b6d5782858281614b6157fe5b0414614b6c57600080fd5b5b600069d3c21bcecceda10000008202905060008214614ba65769d3c21bcecceda1000000828281614b9a57fe5b0414614ba557600080fd5b5b8091506000848602905060008614614bce5784868281614bc257fe5b0414614bcd57600080fd5b5b6000848802905060008814614bf35784888281614be757fe5b0414614bf257600080fd5b5b614bfb615ccb565b8781614c0357fe5b049650614c0e615ccb565b8581614c1657fe5b0494506000858802905060008814614c3e5785888281614c3257fe5b0414614c3d57600080fd5b5b614c46615da4565b6040518060200160405280878152509050614c6f81604051806020016040528087815250615cd8565b9050614c8981604051806020016040528086815250615cd8565b9050614ca381604051806020016040528085815250615cd8565b9050809a50505050505050505050505b92915050565b600069d3c21bcecceda1000000826000015181614cd257fe5b049050919050565b6000600260019054906101000a900473ffffffffffffffffffffffffffffffffffffffff1673ffffffffffffffffffffffffffffffffffffffff1663dcf0aaed60405160200180807f56616c696461746f727300000000000000000000000000000000000000000000815250600a019050604051602081830303815290604052805190602001206040518263ffffffff1660e01b81526004018082815260200191505060206040518083038186803b158015614d9557600080fd5b505afa158015614da9573d6000803e3d6000fd5b505050506040513d6020811015614dbf57600080fd5b8101908080519060200190929190505050905090565b60008060008090506000809050614dea615da4565b614df4600061544a565b905060008090505b8851811015614fa5576000898281518110614e1357fe5b60200260200101519050878281518110614e2957fe5b6020026020010151898381518110614e3d57fe5b60200260200101511115614f8957614e53615da4565b614f62614e85614e8060018c8781518110614e6a57fe5b6020026020010151614fb790919063ffffffff16565b614a29565b614f54600360040160000173__AddressSortedLinkedList_______________63e0fe44b39091876040518363ffffffff1660e01b8152600401808381526020018273ffffffffffffffffffffffffffffffffffffffff1673ffffffffffffffffffffffffffffffffffffffff1681526020019250505060206040518083038186803b158015614f1457600080fd5b505af4158015614f28573d6000803e3d6000fd5b505050506040513d6020811015614f3e57600080fd5b8101908080519060200190929190505050614a29565b615d1890919063ffffffff16565b9050614f778482615d8f90919063ffffffff16565b15614f8757809350829450600195505b505b50614f9e600182614fb790919063ffffffff16565b9050614dfc565b50818394509450505050935093915050565b600080828401905083811015614fcc57600080fd5b8091505092915050565b6000600260019054906101000a900473ffffffffffffffffffffffffffffffffffffffff1673ffffffffffffffffffffffffffffffffffffffff1663dcf0aaed60405160200180807f4c6f636b6564476f6c6400000000000000000000000000000000000000000000815250600a019050604051602081830303815290604052805190602001206040518263ffffffff1660e01b81526004018082815260200191505060206040518083038186803b15801561509157600080fd5b505afa1580156150a5573d6000803e3d6000fd5b505050506040513d60208110156150bb57600080fd5b8101908080519060200190929190505050905090565b6000808314156150e45760009050615105565b60008284029050828482816150f557fe5b041461510057600080fd5b809150505b92915050565b600081831061511a578161511c565b825b905092915050565b600080821161513257600080fd5b600082848161513d57fe5b0490508091505092915050565b60006003600001905061516a828260000154614fb790919063ffffffff16565b816000018190555060008160010160008673ffffffffffffffffffffffffffffffffffffffff1673ffffffffffffffffffffffffffffffffffffffff16815260200190815260200160002090506151ce838260000154614fb790919063ffffffff16565b816000018190555060008160010160008673ffffffffffffffffffffffffffffffffffffffff1673ffffffffffffffffffffffffffffffffffffffff1681526020019081526020016000209050615232848260000154614fb790919063ffffffff16565b81600001819055506152426130a1565b8160010181905550505050505050565b600061532d84600360040160000173__AddressSortedLinkedList_______________63e0fe44b39091896040518363ffffffff1660e01b8152600401808381526020018273ffffffffffffffffffffffffffffffffffffffff1673ffffffffffffffffffffffffffffffffffffffff1681526020019250505060206040518083038186803b1580156152e457600080fd5b505af41580156152f8573d6000803e3d6000fd5b505050506040513d602081101561530e57600080fd5b8101908080519060200190929190505050614fb790919063ffffffff16565b9050600360040160000173__AddressSortedLinkedList_______________63cab455ae9091878487876040518663ffffffff1660e01b8152600401808681526020018573ffffffffffffffffffffffffffffffffffffffff1673ffffffffffffffffffffffffffffffffffffffff1681526020018481526020018373ffffffffffffffffffffffffffffffffffffffff1673ffffffffffffffffffffffffffffffffffffffff1681526020018273ffffffffffffffffffffffffffffffffffffffff1673ffffffffffffffffffffffffffffffffffffffff1681526020019550505050505060006040518083038186803b15801561542b57600080fd5b505af415801561543f573d6000803e3d6000fd5b505050505050505050565b615452615da4565b6040518060200160405280838152509050919050565b615470615da4565b604051806020016040528069d3c21bcecceda1000000815250905090565b60008160000151836000015110905092915050565b6000600360020190506154c3828260000154615b0090919063ffffffff16565b816000018190555060006154d78584615b20565b905060008260010160008773ffffffffffffffffffffffffffffffffffffffff1673ffffffffffffffffffffffffffffffffffffffff1681526020019081526020016000209050615535848260000154615b0090919063ffffffff16565b8160000181905550615554828260010154615b0090919063ffffffff16565b81600101819055506155b0828260020160008873ffffffffffffffffffffffffffffffffffffffff1673ffffffffffffffffffffffffffffffffffffffff16815260200190815260200160002054615b0090919063ffffffff16565b8160020160008773ffffffffffffffffffffffffffffffffffffffff1673ffffffffffffffffffffffffffffffffffffffff16815260200190815260200160002081905550505050505050565b600360040160000173__AddressSortedLinkedList_______________6302f130289091866040518363ffffffff1660e01b8152600401808381526020018273ffffffffffffffffffffffffffffffffffffffff1673ffffffffffffffffffffffffffffffffffffffff1681526020019250505060206040518083038186803b15801561568957600080fd5b505af415801561569d573d6000803e3d6000fd5b505050506040513d60208110156156b357600080fd5b8101908080519060200190929190505050156158bc5760006157a484600360040160000173__AddressSortedLinkedList_______________63e0fe44b39091896040518363ffffffff1660e01b8152600401808381526020018273ffffffffffffffffffffffffffffffffffffffff1673ffffffffffffffffffffffffffffffffffffffff1681526020019250505060206040518083038186803b15801561575b57600080fd5b505af415801561576f573d6000803e3d6000fd5b505050506040513d602081101561578557600080fd5b8101908080519060200190929190505050615b0090919063ffffffff16565b9050600360040160000173__AddressSortedLinkedList_______________63cab455ae9091878487876040518663ffffffff1660e01b8152600401808681526020018573ffffffffffffffffffffffffffffffffffffffff1673ffffffffffffffffffffffffffffffffffffffff1681526020018481526020018373ffffffffffffffffffffffffffffffffffffffff1673ffffffffffffffffffffffffffffffffffffffff1681526020018273ffffffffffffffffffffffffffffffffffffffff1673ffffffffffffffffffffffffffffffffffffffff1681526020019550505050505060006040518083038186803b1580156158a257600080fd5b505af41580156158b6573d6000803e3d6000fd5b50505050505b50505050565b82805490508110801561593657508173ffffffffffffffffffffffffffffffffffffffff168382815481106158f357fe5b9060005260206000200160009054906101000a900473ffffffffffffffffffffffffffffffffffffffff1673ffffffffffffffffffffffffffffffffffffffff16145b61593f57600080fd5b600061595960018580549050615b0090919063ffffffff16565b905083818154811061596757fe5b9060005260206000200160009054906101000a900473ffffffffffffffffffffffffffffffffffffffff1684838154811061599e57fe5b9060005260206000200160006101000a81548173ffffffffffffffffffffffffffffffffffffffff021916908373ffffffffffffffffffffffffffffffffffffffff1602179055508084816159f39190615db7565b5050505050565b600081600001519050919050565b600073ffffffffffffffffffffffffffffffffffffffff168173ffffffffffffffffffffffffffffffffffffffff161415615a4257600080fd5b8073ffffffffffffffffffffffffffffffffffffffff166000809054906101000a900473ffffffffffffffffffffffffffffffffffffffff1673ffffffffffffffffffffffffffffffffffffffff167f8be0079c531659141344cd1fd0a4f28419497f9722a3daafe3b4186f6b6457e060405160405180910390a3806000806101000a81548173ffffffffffffffffffffffffffffffffffffffff021916908373ffffffffffffffffffffffffffffffffffffffff16021790555050565b600082821115615b0f57600080fd5b600082840390508091505092915050565b600080600360020160010160008573ffffffffffffffffffffffffffffffffffffffff1673ffffffffffffffffffffffffffffffffffffffff168152602001908152602001600020600001541415615b7a57819050615c32565b615c2f600360020160010160008573ffffffffffffffffffffffffffffffffffffffff1673ffffffffffffffffffffffffffffffffffffffff16815260200190815260200160002060000154615c21600360020160010160008773ffffffffffffffffffffffffffffffffffffffff1673ffffffffffffffffffffffffffffffffffffffff16815260200190815260200160002060010154856150d190919063ffffffff16565b61512490919063ffffffff16565b90505b92915050565b60007601357c299a88ea76a58924d52ce4f26a85af186c2b9e74905090565b615c5f615da4565b604051806020016040528069d3c21bcecceda100000080856000015181615c8257fe5b04028152509050919050565b615c96615da4565b604051806020016040528069d3c21bcecceda100000080856000015181615cb957fe5b04028460000151038152509050919050565b600064e8d4a51000905090565b615ce0615da4565b6000826000015184600001510190508360000151811015615d0057600080fd5b60405180602001604052808281525091505092915050565b615d20615da4565b600082600001511415615d3257600080fd5b600069d3c21bcecceda10000008460000151029050836000015169d3c21bcecceda10000008281615d5f57fe5b0414615d6a57600080fd5b604051806020016040528084600001518381615d8257fe5b0481525091505092915050565b60008160000151836000015111905092915050565b6040518060200160405280600081525090565b815481835581811115615dde57818360005260206000209182019101615ddd9190615de3565b5b505050565b615e0591905b80821115615e01576000816000905550600101615de9565b5090565b9056fe456c6563746162696c697479207468726573686f6c64206d757374206265206c6f776572207468616e2031303025a165627a7a72305820f3700ff4a8e19a0939001e99397336d9439d63ec48472dcc724f890769b7b8a50029",
  "source": "pragma solidity ^0.5.3;\n\nimport \"openzeppelin-solidity/contracts/math/Math.sol\";\nimport \"openzeppelin-solidity/contracts/math/SafeMath.sol\";\nimport \"openzeppelin-solidity/contracts/ownership/Ownable.sol\";\nimport \"openzeppelin-solidity/contracts/utils/ReentrancyGuard.sol\";\n\nimport \"./interfaces/IElection.sol\";\nimport \"../common/Initializable.sol\";\nimport \"../common/FixidityLib.sol\";\nimport \"../common/linkedlists/AddressSortedLinkedList.sol\";\nimport \"../common/UsingPrecompiles.sol\";\nimport \"../common/UsingRegistry.sol\";\n\ncontract Election is\n  IElection,\n  Ownable,\n  ReentrancyGuard,\n  Initializable,\n  UsingRegistry,\n  UsingPrecompiles\n{\n  using AddressSortedLinkedList for SortedLinkedList.List;\n  using FixidityLib for FixidityLib.Fraction;\n  using SafeMath for uint256;\n\n  struct PendingVote {\n    // The value of the vote, in gold.\n    uint256 value;\n    // The epoch at which the vote was cast.\n    uint256 epoch;\n  }\n\n  struct GroupPendingVotes {\n    // The total number of pending votes that have been cast for this group.\n    uint256 total;\n    // Pending votes cast per voter.\n    mapping(address => PendingVote) byAccount;\n  }\n\n  // Pending votes are those for which no following elections have been held.\n  // These votes have yet to contribute to the election of validators and thus do not accrue\n  // rewards.\n  struct PendingVotes {\n    // The total number of pending votes cast across all groups.\n    uint256 total;\n    mapping(address => GroupPendingVotes) forGroup;\n  }\n\n  struct GroupActiveVotes {\n    // The total number of active votes that have been cast for this group.\n    uint256 total;\n    // The total number of active votes by a voter is equal to the number of active vote units for\n    // that voter times the total number of active votes divided by the total number of active\n    // vote units.\n    uint256 totalUnits;\n    mapping(address => uint256) unitsByAccount;\n  }\n\n  // Active votes are those for which at least one following election has been held.\n  // These votes have contributed to the election of validators and thus accrue rewards.\n  struct ActiveVotes {\n    // The total number of active votes cast across all groups.\n    uint256 total;\n    mapping(address => GroupActiveVotes) forGroup;\n  }\n\n  struct TotalVotes {\n    // A list of eligible ValidatorGroups sorted by total (pending+active) votes.\n    // Note that this list will omit ineligible ValidatorGroups, including those that may have > 0\n    // total votes.\n    SortedLinkedList.List eligible;\n  }\n\n  struct Votes {\n    PendingVotes pending;\n    ActiveVotes active;\n    TotalVotes total;\n    // Maps an account to the list of groups it's voting for.\n    mapping(address => address[]) groupsVotedFor;\n  }\n\n  struct ElectableValidators {\n    uint256 min;\n    uint256 max;\n  }\n\n  Votes private votes;\n  // Governs the minimum and maximum number of validators that can be elected.\n  ElectableValidators public electableValidators;\n  // Governs how many validator groups a single account can vote for.\n  uint256 public maxNumGroupsVotedFor;\n  // Groups must receive at least this fraction of the total votes in order to be considered in\n  // elections.\n  FixidityLib.Fraction public electabilityThreshold;\n\n  event ElectableValidatorsSet(uint256 min, uint256 max);\n\n  event MaxNumGroupsVotedForSet(uint256 maxNumGroupsVotedFor);\n\n  event ElectabilityThresholdSet(uint256 electabilityThreshold);\n\n  event ValidatorGroupMarkedEligible(address group);\n\n  event ValidatorGroupMarkedIneligible(address group);\n\n  event ValidatorGroupVoteCast(address indexed account, address indexed group, uint256 value);\n\n  event ValidatorGroupVoteActivated(address indexed account, address indexed group, uint256 value);\n\n  event ValidatorGroupVoteRevoked(address indexed account, address indexed group, uint256 value);\n\n  /**\n   * @notice Initializes critical variables.\n   * @param registryAddress The address of the registry contract.\n   * @param minElectableValidators The minimum number of validators that can be elected.\n   * @param _maxNumGroupsVotedFor The maximum number of groups that an acconut can vote for at once.\n   * @param _electabilityThreshold The minimum ratio of votes a group needs before its members can\n   *   be elected.\n   * @dev Should be called only once.\n   */\n  function initialize(\n    address registryAddress,\n    uint256 minElectableValidators,\n    uint256 maxElectableValidators,\n    uint256 _maxNumGroupsVotedFor,\n    uint256 _electabilityThreshold\n  ) external initializer {\n    _transferOwnership(msg.sender);\n    setRegistry(registryAddress);\n    setElectableValidators(minElectableValidators, maxElectableValidators);\n    setMaxNumGroupsVotedFor(_maxNumGroupsVotedFor);\n    setElectabilityThreshold(_electabilityThreshold);\n  }\n\n  /**\n   * @notice Updates the minimum and maximum number of validators that can be elected.\n   * @param min The minimum number of validators that can be elected.\n   * @param max The maximum number of validators that can be elected.\n   * @return True upon success.\n   */\n  function setElectableValidators(uint256 min, uint256 max) public onlyOwner returns (bool) {\n    require(0 < min && min <= max);\n    require(min != electableValidators.min || max != electableValidators.max);\n    electableValidators = ElectableValidators(min, max);\n    emit ElectableValidatorsSet(min, max);\n    return true;\n  }\n\n  /**\n   * @notice Returns the minimum and maximum number of validators that can be elected.\n   * @return The minimum and maximum number of validators that can be elected.\n   */\n  function getElectableValidators() external view returns (uint256, uint256) {\n    return (electableValidators.min, electableValidators.max);\n  }\n\n  /**\n   * @notice Updates the maximum number of groups an account can be voting for at once.\n   * @param _maxNumGroupsVotedFor The maximum number of groups an account can vote for.\n   * @return True upon success.\n   */\n  function setMaxNumGroupsVotedFor(uint256 _maxNumGroupsVotedFor) public onlyOwner returns (bool) {\n    require(_maxNumGroupsVotedFor != maxNumGroupsVotedFor);\n    maxNumGroupsVotedFor = _maxNumGroupsVotedFor;\n    emit MaxNumGroupsVotedForSet(_maxNumGroupsVotedFor);\n    return true;\n  }\n\n  /**\n   * @notice Sets the electability threshold.\n   * @param threshold Electability threshold as unwrapped Fraction.\n   * @return True upon success.\n   */\n  function setElectabilityThreshold(uint256 threshold) public onlyOwner returns (bool) {\n    electabilityThreshold = FixidityLib.wrap(threshold);\n    require(\n      electabilityThreshold.lt(FixidityLib.fixed1()),\n      \"Electability threshold must be lower than 100%\"\n    );\n    emit ElectabilityThresholdSet(threshold);\n    return true;\n  }\n\n  /**\n   * @notice Gets the election threshold.\n   * @return Threshold value as unwrapped fraction.\n   */\n  function getElectabilityThreshold() external view returns (uint256) {\n    return electabilityThreshold.unwrap();\n  }\n\n  /**\n   * @notice Increments the number of total and pending votes for `group`.\n   * @param group The validator group to vote for.\n   * @param value The amount of gold to use to vote.\n   * @param lesser The group receiving fewer votes than `group`, or 0 if `group` has the\n   *   fewest votes of any validator group.\n   * @param greater The group receiving more votes than `group`, or 0 if `group` has the\n   *   most votes of any validator group.\n   * @return True upon success.\n   * @dev Fails if `group` is empty or not a validator group.\n   */\n  function vote(address group, uint256 value, address lesser, address greater)\n    external\n    nonReentrant\n    returns (bool)\n  {\n    require(votes.total.eligible.contains(group));\n    require(0 < value);\n    require(canReceiveVotes(group, value), \"Unable to receive votes\");\n    address account = getAccounts().voteSignerToAccount(msg.sender);\n\n    // Add group to the groups voted for by the account.\n    bool alreadyVotedForGroup = false;\n    address[] storage groups = votes.groupsVotedFor[account];\n    for (uint256 i = 0; i < groups.length; i = i.add(1)) {\n      alreadyVotedForGroup = alreadyVotedForGroup || groups[i] == group;\n    }\n    if (!alreadyVotedForGroup) {\n      require(groups.length < maxNumGroupsVotedFor);\n      groups.push(group);\n    }\n\n    incrementPendingVotes(group, account, value);\n    incrementTotalVotes(group, value, lesser, greater);\n    getLockedGold().decrementNonvotingAccountBalance(account, value);\n    emit ValidatorGroupVoteCast(account, group, value);\n    return true;\n  }\n\n  /**\n   * @notice Converts `account`'s pending votes for `group` to active votes.\n   * @param group The validator group to vote for.\n   * @return True upon success.\n   * @dev Pending votes cannot be activated until an election has been held.\n   */\n  function activate(address group) external nonReentrant returns (bool) {\n    address account = getAccounts().voteSignerToAccount(msg.sender);\n    PendingVote storage pendingVote = votes.pending.forGroup[group].byAccount[account];\n    require(pendingVote.epoch < getEpochNumber());\n    uint256 value = pendingVote.value;\n    require(value > 0);\n    decrementPendingVotes(group, account, value);\n    incrementActiveVotes(group, account, value);\n    emit ValidatorGroupVoteActivated(account, group, value);\n    return true;\n  }\n\n  /**\n   * @notice Returns whether or not an account's votes for the specified group can be activated.\n   * @param account The account with pending votes.\n   * @param group The validator group that `account` has pending votes for.\n   * @return Whether or not `account` has activatable votes for `group`.\n   * @dev Pending votes cannot be activated until an election has been held.\n   */\n  function hasActivatablePendingVotes(address account, address group) external view returns (bool) {\n    PendingVote storage pendingVote = votes.pending.forGroup[group].byAccount[account];\n    return pendingVote.epoch < getEpochNumber() && pendingVote.value > 0;\n  }\n\n  /**\n   * @notice Revokes `value` pending votes for `group`\n   * @param group The validator group to revoke votes from.\n   * @param value The number of votes to revoke.\n   * @param lesser The group receiving fewer votes than the group for which the vote was revoked,\n   *   or 0 if that group has the fewest votes of any validator group.\n   * @param greater The group receiving more votes than the group for which the vote was revoked,\n   *   or 0 if that group has the most votes of any validator group.\n   * @param index The index of the group in the account's voting list.\n   * @return True upon success.\n   * @dev Fails if the account has not voted on a validator group.\n   */\n  function revokePending(\n    address group,\n    uint256 value,\n    address lesser,\n    address greater,\n    uint256 index\n  ) external nonReentrant returns (bool) {\n    require(group != address(0));\n    address account = getAccounts().voteSignerToAccount(msg.sender);\n    require(0 < value && value <= getPendingVotesForGroupByAccount(group, account));\n    decrementPendingVotes(group, account, value);\n    decrementTotalVotes(group, value, lesser, greater);\n    getLockedGold().incrementNonvotingAccountBalance(account, value);\n    if (getTotalVotesForGroupByAccount(group, account) == 0) {\n      deleteElement(votes.groupsVotedFor[account], group, index);\n    }\n    emit ValidatorGroupVoteRevoked(account, group, value);\n    return true;\n  }\n\n  /**\n   * @notice Revokes `value` active votes for `group`\n   * @param group The validator group to revoke votes from.\n   * @param value The number of votes to revoke.\n   * @param lesser The group receiving fewer votes than the group for which the vote was revoked,\n   *   or 0 if that group has the fewest votes of any validator group.\n   * @param greater The group receiving more votes than the group for which the vote was revoked,\n   *   or 0 if that group has the most votes of any validator group.\n   * @param index The index of the group in the account's voting list.\n   * @return True upon success.\n   * @dev Fails if the account has not voted on a validator group.\n   */\n  function revokeActive(\n    address group,\n    uint256 value,\n    address lesser,\n    address greater,\n    uint256 index\n  ) external nonReentrant returns (bool) {\n    // TODO(asa): Dedup with revokePending.\n    require(group != address(0));\n    address account = getAccounts().voteSignerToAccount(msg.sender);\n    require(0 < value && value <= getActiveVotesForGroupByAccount(group, account));\n    decrementActiveVotes(group, account, value);\n    decrementTotalVotes(group, value, lesser, greater);\n    getLockedGold().incrementNonvotingAccountBalance(account, value);\n    if (getTotalVotesForGroupByAccount(group, account) == 0) {\n      deleteElement(votes.groupsVotedFor[account], group, index);\n    }\n    emit ValidatorGroupVoteRevoked(account, group, value);\n    return true;\n  }\n\n  /**\n   * @notice Returns the total number of votes cast by an account.\n   * @param account The address of the account.\n   * @return The total number of votes cast by an account.\n   */\n  function getTotalVotesByAccount(address account) external view returns (uint256) {\n    uint256 total = 0;\n    address[] memory groups = votes.groupsVotedFor[account];\n    for (uint256 i = 0; i < groups.length; i = i.add(1)) {\n      total = total.add(getTotalVotesForGroupByAccount(groups[i], account));\n    }\n    return total;\n  }\n\n  /**\n   * @notice Returns the pending votes for `group` made by `account`.\n   * @param group The address of the validator group.\n   * @param account The address of the voting account.\n   * @return The pending votes for `group` made by `account`.\n   */\n  function getPendingVotesForGroupByAccount(address group, address account)\n    public\n    view\n    returns (uint256)\n  {\n    return votes.pending.forGroup[group].byAccount[account].value;\n  }\n\n  /**\n   * @notice Returns the active votes for `group` made by `account`.\n   * @param group The address of the validator group.\n   * @param account The address of the voting account.\n   * @return The active votes for `group` made by `account`.\n   */\n  function getActiveVotesForGroupByAccount(address group, address account)\n    public\n    view\n    returns (uint256)\n  {\n    GroupActiveVotes storage groupActiveVotes = votes.active.forGroup[group];\n    uint256 numerator = groupActiveVotes.unitsByAccount[account].mul(groupActiveVotes.total);\n    if (numerator == 0) {\n      return 0;\n    }\n    uint256 denominator = groupActiveVotes.totalUnits;\n    return numerator.div(denominator);\n  }\n\n  /**\n   * @notice Returns the total votes for `group` made by `account`.\n   * @param group The address of the validator group.\n   * @param account The address of the voting account.\n   * @return The total votes for `group` made by `account`.\n   */\n  function getTotalVotesForGroupByAccount(address group, address account)\n    public\n    view\n    returns (uint256)\n  {\n    uint256 pending = getPendingVotesForGroupByAccount(group, account);\n    uint256 active = getActiveVotesForGroupByAccount(group, account);\n    return pending.add(active);\n  }\n\n  /**\n   * @notice Returns the total votes made for `group`.\n   * @param group The address of the validator group.\n   * @return The total votes made for `group`.\n   */\n  function getTotalVotesForGroup(address group) public view returns (uint256) {\n    return votes.pending.forGroup[group].total.add(votes.active.forGroup[group].total);\n  }\n\n  /**\n   * @notice Returns whether or not a group is eligible to receive votes.\n   * @return Whether or not a group is eligible to receive votes.\n   * @dev Eligible groups that have received their maximum number of votes cannot receive more.\n   */\n  function getGroupEligibility(address group) external view returns (bool) {\n    return votes.total.eligible.contains(group);\n  }\n\n  /**\n   * @notice Returns the amount of rewards that voters for `group` are due at the end of an epoch.\n   * @param group The group to calculate epoch rewards for.\n   * @param totalEpochRewards The total amount of rewards going to all voters.\n   * @return The amount of rewards that voters for `group` are due at the end of an epoch.\n   * @dev Eligible groups that have received their maximum number of votes cannot receive more.\n   */\n  function getGroupEpochRewards(address group, uint256 totalEpochRewards)\n    external\n    view\n    returns (uint256)\n  {\n    // The group must meet the balance requirements in order for their voters to receive epoch\n    // rewards.\n    if (getValidators().meetsAccountLockedGoldRequirements(group) && votes.active.total > 0) {\n      return totalEpochRewards.mul(votes.active.forGroup[group].total).div(votes.active.total);\n    } else {\n      return 0;\n    }\n  }\n\n  /**\n   * @notice Distributes epoch rewards to voters for `group` in the form of active votes.\n   * @param group The group whose voters will receive rewards.\n   * @param value The amount of rewards to distribute to voters for the group.\n   * @param lesser The group receiving fewer votes than `group` after the rewards are added.\n   * @param greater The group receiving more votes than `group` after the rewards are added.\n   * @dev Can only be called directly by the protocol.\n   */\n  function distributeEpochRewards(address group, uint256 value, address lesser, address greater)\n    external\n  {\n    require(msg.sender == address(0));\n    _distributeEpochRewards(group, value, lesser, greater);\n  }\n\n  /**\n   * @notice Distributes epoch rewards to voters for `group` in the form of active votes.\n   * @param group The group whose voters will receive rewards.\n   * @param value The amount of rewards to distribute to voters for the group.\n   * @param lesser The group receiving fewer votes than `group` after the rewards are added.\n   * @param greater The group receiving more votes than `group` after the rewards are added.\n   */\n  function _distributeEpochRewards(address group, uint256 value, address lesser, address greater)\n    internal\n  {\n    if (votes.total.eligible.contains(group)) {\n      uint256 newVoteTotal = votes.total.eligible.getValue(group).add(value);\n      votes.total.eligible.update(group, newVoteTotal, lesser, greater);\n    }\n\n    votes.active.forGroup[group].total = votes.active.forGroup[group].total.add(value);\n    votes.active.total = votes.active.total.add(value);\n  }\n\n  /**\n   * @notice Increments the number of total votes for `group` by `value`.\n   * @param group The validator group whose vote total should be incremented.\n   * @param value The number of votes to increment.\n   * @param lesser The group receiving fewer votes than the group for which the vote was cast,\n   *   or 0 if that group has the fewest votes of any validator group.\n   * @param greater The group receiving more votes than the group for which the vote was cast,\n   *   or 0 if that group has the most votes of any validator group.\n   */\n  function incrementTotalVotes(address group, uint256 value, address lesser, address greater)\n    private\n  {\n    uint256 newVoteTotal = votes.total.eligible.getValue(group).add(value);\n    votes.total.eligible.update(group, newVoteTotal, lesser, greater);\n  }\n\n  /**\n   * @notice Decrements the number of total votes for `group` by `value`.\n   * @param group The validator group whose vote total should be decremented.\n   * @param value The number of votes to decrement.\n   * @param lesser The group receiving fewer votes than the group for which the vote was revoked,\n   *   or 0 if that group has the fewest votes of any validator group.\n   * @param greater The group receiving more votes than the group for which the vote was revoked,\n   *   or 0 if that group has the most votes of any validator group.\n   */\n  function decrementTotalVotes(address group, uint256 value, address lesser, address greater)\n    private\n  {\n    if (votes.total.eligible.contains(group)) {\n      uint256 newVoteTotal = votes.total.eligible.getValue(group).sub(value);\n      votes.total.eligible.update(group, newVoteTotal, lesser, greater);\n    }\n  }\n\n  /**\n   * @notice Marks a group ineligible for electing validators.\n   * @param group The address of the validator group.\n   * @dev Can only be called by the registered \"Validators\" contract.\n   */\n  function markGroupIneligible(address group)\n    external\n    onlyRegisteredContract(VALIDATORS_REGISTRY_ID)\n  {\n    votes.total.eligible.remove(group);\n    emit ValidatorGroupMarkedIneligible(group);\n  }\n\n  /**\n   * @notice Marks a group eligible for electing validators.\n   * @param group The address of the validator group.\n   * @param lesser The address of the group that has received fewer votes than this group.\n   * @param greater The address of the group that has received more votes than this group.\n   */\n  function markGroupEligible(address group, address lesser, address greater)\n    external\n    onlyRegisteredContract(VALIDATORS_REGISTRY_ID)\n  {\n    uint256 value = getTotalVotesForGroup(group);\n    votes.total.eligible.insert(group, value, lesser, greater);\n    emit ValidatorGroupMarkedEligible(group);\n  }\n\n  /**\n   * @notice Increments the number of pending votes for `group` made by `account`.\n   * @param group The address of the validator group.\n   * @param account The address of the voting account.\n   * @param value The number of votes.\n   */\n  function incrementPendingVotes(address group, address account, uint256 value) private {\n    PendingVotes storage pending = votes.pending;\n    pending.total = pending.total.add(value);\n\n    GroupPendingVotes storage groupPending = pending.forGroup[group];\n    groupPending.total = groupPending.total.add(value);\n\n    PendingVote storage pendingVote = groupPending.byAccount[account];\n    pendingVote.value = pendingVote.value.add(value);\n    pendingVote.epoch = getEpochNumber();\n  }\n\n  /**\n   * @notice Decrements the number of pending votes for `group` made by `account`.\n   * @param group The address of the validator group.\n   * @param account The address of the voting account.\n   * @param value The number of votes.\n   */\n  function decrementPendingVotes(address group, address account, uint256 value) private {\n    PendingVotes storage pending = votes.pending;\n    pending.total = pending.total.sub(value);\n\n    GroupPendingVotes storage groupPending = pending.forGroup[group];\n    groupPending.total = groupPending.total.sub(value);\n\n    PendingVote storage pendingVote = groupPending.byAccount[account];\n    pendingVote.value = pendingVote.value.sub(value);\n    if (pendingVote.value == 0) {\n      pendingVote.epoch = 0;\n    }\n  }\n\n  /**\n   * @notice Increments the number of active votes for `group` made by `account`.\n   * @param group The address of the validator group.\n   * @param account The address of the voting account.\n   * @param value The number of votes.\n   */\n  function incrementActiveVotes(address group, address account, uint256 value) private {\n    ActiveVotes storage active = votes.active;\n    active.total = active.total.add(value);\n\n    uint256 unitsDelta = getActiveVotesUnitsDelta(group, value);\n\n    GroupActiveVotes storage groupActive = active.forGroup[group];\n    groupActive.total = groupActive.total.add(value);\n\n    groupActive.totalUnits = groupActive.totalUnits.add(unitsDelta);\n    groupActive.unitsByAccount[account] = groupActive.unitsByAccount[account].add(unitsDelta);\n  }\n\n  /**\n   * @notice Decrements the number of active votes for `group` made by `account`.\n   * @param group The address of the validator group.\n   * @param account The address of the voting account.\n   * @param value The number of votes.\n   */\n  function decrementActiveVotes(address group, address account, uint256 value) private {\n    ActiveVotes storage active = votes.active;\n    active.total = active.total.sub(value);\n\n    uint256 unitsDelta = getActiveVotesUnitsDelta(group, value);\n\n    GroupActiveVotes storage groupActive = active.forGroup[group];\n    groupActive.total = groupActive.total.sub(value);\n\n    groupActive.totalUnits = groupActive.totalUnits.sub(unitsDelta);\n    groupActive.unitsByAccount[account] = groupActive.unitsByAccount[account].sub(unitsDelta);\n  }\n\n  /**\n   * @notice Returns the delta in active vote denominator for `group`.\n   * @param group The address of the validator group.\n   * @param value The number of active votes being added.\n   * @return The delta in active vote denominator for `group`.\n   * @dev Preserves unitsDelta / totalUnits = value / total\n   */\n  function getActiveVotesUnitsDelta(address group, uint256 value) private view returns (uint256) {\n    if (votes.active.forGroup[group].total == 0) {\n      return value;\n    } else {\n      return\n        value.mul(votes.active.forGroup[group].totalUnits).div(votes.active.forGroup[group].total);\n    }\n  }\n\n  /**\n   * @notice Returns the groups that `account` has voted for.\n   * @param account The address of the account casting votes.\n   * @return The groups that `account` has voted for.\n   */\n  function getGroupsVotedForByAccount(address account) external view returns (address[] memory) {\n    return votes.groupsVotedFor[account];\n  }\n\n  /**\n   * @notice Deletes an element from a list of addresses.\n   * @param list The list of addresses.\n   * @param element The address to delete.\n   * @param index The index of `element` in the list.\n   */\n  function deleteElement(address[] storage list, address element, uint256 index) private {\n    // TODO(asa): Move this to a library to be shared.\n    require(index < list.length && list[index] == element);\n    uint256 lastIndex = list.length.sub(1);\n    list[index] = list[lastIndex];\n    list.length = lastIndex;\n  }\n\n  /**\n   * @notice Returns whether or not a group can receive the specified number of votes.\n   * @param group The address of the group.\n   * @param value The number of votes.\n   * @return Whether or not a group can receive the specified number of votes.\n   * @dev Votes are not allowed to be cast that would increase a group's proportion of locked gold\n   *   voting for it to greater than\n   *   (numGroupMembers + 1) / min(maxElectableValidators, numRegisteredValidators)\n   * @dev Note that groups may still receive additional votes via rewards even if this function\n   *   returns false.\n   */\n  function canReceiveVotes(address group, uint256 value) public view returns (bool) {\n    uint256 totalVotesForGroup = getTotalVotesForGroup(group).add(value);\n    uint256 left = totalVotesForGroup.mul(\n      Math.min(electableValidators.max, getValidators().getNumRegisteredValidators())\n    );\n    uint256 right = getValidators().getGroupNumMembers(group).add(1).mul(\n      getLockedGold().getTotalLockedGold()\n    );\n    return left <= right;\n  }\n\n  /**\n   * @notice Returns the number of votes that a group can receive.\n   * @param group The address of the group.\n   * @return The number of votes that a group can receive.\n   * @dev Votes are not allowed to be cast that would increase a group's proportion of locked gold\n   *   voting for it to greater than\n   *   (numGroupMembers + 1) / min(maxElectableValidators, numRegisteredValidators)\n   * @dev Note that a group's vote total may exceed this number through rewards or config changes.\n   */\n  function getNumVotesReceivable(address group) external view returns (uint256) {\n    uint256 numerator = getValidators().getGroupNumMembers(group).add(1).mul(\n      getLockedGold().getTotalLockedGold()\n    );\n    uint256 denominator = Math.min(\n      electableValidators.max,\n      getValidators().getNumRegisteredValidators()\n    );\n    return numerator.div(denominator);\n  }\n\n  /**\n   * @notice Returns the total votes received across all groups.\n   * @return The total votes received across all groups.\n   */\n  function getTotalVotes() public view returns (uint256) {\n    return votes.active.total.add(votes.pending.total);\n  }\n\n  /**\n   * @notice Returns the active votes received across all groups.\n   * @return The active votes received across all groups.\n   */\n  function getActiveVotes() public view returns (uint256) {\n    return votes.active.total;\n  }\n\n  /**\n   * @notice Returns the list of validator groups eligible to elect validators.\n   * @return The list of validator groups eligible to elect validators.\n   */\n  function getEligibleValidatorGroups() external view returns (address[] memory) {\n    return votes.total.eligible.getKeys();\n  }\n\n  /**\n   * @notice Returns lists of all validator groups and the number of votes they've received.\n   * @return Lists of all validator groups and the number of votes they've received.\n   */\n  function getTotalVotesForEligibleValidatorGroups()\n    external\n    view\n    returns (address[] memory groups, uint256[] memory values)\n  {\n    return votes.total.eligible.getElements();\n  }\n\n  /**\n   * @notice Returns a list of elected validators with seats allocated to groups via the D'Hondt\n   *   method.\n   * @return The list of elected validators.\n   * @dev See https://en.wikipedia.org/wiki/D%27Hondt_method#Allocation for more information.\n   */\n  function electValidatorSigners() external view returns (address[] memory) {\n    // Groups must have at least `electabilityThreshold` proportion of the total votes to be\n    // considered for the election.\n    uint256 requiredVotes = electabilityThreshold\n      .multiply(FixidityLib.newFixed(getTotalVotes()))\n      .fromFixed();\n    // Only consider groups with at least `requiredVotes` but do not consider more groups than the\n    // max number of electable validators.\n    uint256 numElectionGroups = votes.total.eligible.numElementsGreaterThan(\n      requiredVotes,\n      electableValidators.max\n    );\n    address[] memory electionGroups = votes.total.eligible.headN(numElectionGroups);\n    uint256[] memory numMembers = getValidators().getGroupsNumMembers(electionGroups);\n    // Holds the number of members elected for each of the eligible validator groups.\n    uint256[] memory numMembersElected = new uint256[](electionGroups.length);\n    uint256 totalNumMembersElected = 0;\n    // Assign a number of seats to each validator group.\n    while (totalNumMembersElected < electableValidators.max) {\n      uint256 groupIndex = 0;\n      bool memberElected = false;\n      (groupIndex, memberElected) = dHondt(electionGroups, numMembers, numMembersElected);\n\n      if (memberElected) {\n        numMembersElected[groupIndex] = numMembersElected[groupIndex].add(1);\n        totalNumMembersElected = totalNumMembersElected.add(1);\n      } else {\n        break;\n      }\n    }\n    require(totalNumMembersElected >= electableValidators.min);\n    // Grab the top validators from each group that won seats.\n    address[] memory electedValidators = new address[](totalNumMembersElected);\n    totalNumMembersElected = 0;\n    for (uint256 i = 0; i < electionGroups.length; i = i.add(1)) {\n      // We use the validating delegate if one is set.\n      address[] memory electedGroupValidators = getValidators().getTopGroupValidators(\n        electionGroups[i],\n        numMembersElected[i]\n      );\n      for (uint256 j = 0; j < electedGroupValidators.length; j = j.add(1)) {\n        electedValidators[totalNumMembersElected] = electedGroupValidators[j];\n        totalNumMembersElected = totalNumMembersElected.add(1);\n      }\n    }\n    return electedValidators;\n  }\n\n  /**\n   * @notice Runs a round of the D'Hondt algorithm.\n   * @param electionGroups The addresses of the validator groups in the election.\n   * @param numMembers The number of members in each group.\n   * @param numMembersElected The number of members elected in each group up to this point.\n   * @dev See https://en.wikipedia.org/wiki/D%27Hondt_method#Allocation for more information.\n   * @return Whether or not a group elected a member, and the index of the group if so.\n   */\n  function dHondt(\n    address[] memory electionGroups,\n    uint256[] memory numMembers,\n    uint256[] memory numMembersElected\n  ) private view returns (uint256, bool) {\n    bool memberElected = false;\n    uint256 groupIndex = 0;\n    FixidityLib.Fraction memory maxN = FixidityLib.wrap(0);\n    for (uint256 i = 0; i < electionGroups.length; i = i.add(1)) {\n      address group = electionGroups[i];\n      // Only consider groups with members left to be elected.\n      if (numMembers[i] > numMembersElected[i]) {\n        FixidityLib.Fraction memory n = FixidityLib\n          .newFixed(votes.total.eligible.getValue(group))\n          .divide(FixidityLib.newFixed(numMembersElected[i].add(1)));\n        if (n.gt(maxN)) {\n          maxN = n;\n          groupIndex = i;\n          memberElected = true;\n        }\n      }\n    }\n    return (groupIndex, memberElected);\n  }\n\n  /**\n   * @notice Returns get current validator signers using the precompiles.\n   * @return List of current validator signers.\n   */\n  function getCurrentValidatorSigners() public view returns (address[] memory) {\n    uint256 n = numberValidatorsInCurrentSet();\n    address[] memory res = new address[](n);\n    for (uint256 idx = 0; idx < n; idx++) {\n      res[idx] = validatorAddressFromCurrentSet(idx);\n    }\n    return res;\n  }\n}\n",
  "sourcePath": "/Users/cmcewen/celo/celo-monorepo/packages/protocol/contracts/governance/Election.sol",
  "compiler": {
    "name": "solc",
    "version": "0.5.8+commit.23d335f2.Emscripten.clang"
  },
  "schemaVersion": "3.0.10",
  "updatedAt": "2019-12-06T00:16:04.892Z",
  "devdoc": {
    "methods": {
      "activate(address)": {
        "details": "Pending votes cannot be activated until an election has been held.",
        "params": {
          "group": "The validator group to vote for."
        },
        "return": "True upon success."
      },
      "canReceiveVotes(address,uint256)": {
        "details": "Votes are not allowed to be cast that would increase a group's proportion of locked gold  voting for it to greater than  (numGroupMembers + 1) / min(maxElectableValidators, numRegisteredValidators)Note that groups may still receive additional votes via rewards even if this function  returns false.",
        "params": {
          "group": "The address of the group.",
          "value": "The number of votes."
        },
        "return": "Whether or not a group can receive the specified number of votes."
      },
      "checkProofOfPossession(address,bytes,bytes)": {
        "params": {
          "blsKey": "The BLS public key that the validator is using for consensus, should pass proof  of possession. 48 bytes.",
          "blsPop": "The BLS public key proof-of-possession, which consists of a signature on the  account address. 96 bytes.",
          "sender": "The address signed by the BLS key to generate the proof of possession."
        },
        "return": "True upon success."
      },
      "distributeEpochRewards(address,uint256,address,address)": {
        "details": "Can only be called directly by the protocol.",
        "params": {
          "greater": "The group receiving more votes than `group` after the rewards are added.",
          "group": "The group whose voters will receive rewards.",
          "lesser": "The group receiving fewer votes than `group` after the rewards are added.",
          "value": "The amount of rewards to distribute to voters for the group."
        }
      },
      "electValidatorSigners()": {
        "details": "See https://en.wikipedia.org/wiki/D%27Hondt_method#Allocation for more information.",
        "return": "The list of elected validators."
      },
      "fractionMulExp(uint256,uint256,uint256,uint256,uint256,uint256)": {
        "params": {
          "_decimals": "precision",
          "aDenominator": "Denominator of first fraction",
          "aNumerator": "Numerator of first fraction",
          "bDenominator": "Denominator of exponentiated fraction",
          "bNumerator": "Numerator of exponentiated fraction",
          "exponent": "exponent to raise b to"
        },
        "return": "numerator/denominator of the computed quantity (not reduced)."
      },
      "getActiveVotes()": {
        "return": "The active votes received across all groups."
      },
      "getActiveVotesForGroupByAccount(address,address)": {
        "params": {
          "account": "The address of the voting account.",
          "group": "The address of the validator group."
        },
        "return": "The active votes for `group` made by `account`."
      },
      "getCurrentValidatorSigners()": {
        "return": "List of current validator signers."
      },
      "getElectabilityThreshold()": {
        "return": "Threshold value as unwrapped fraction."
      },
      "getElectableValidators()": {
        "return": "The minimum and maximum number of validators that can be elected."
      },
      "getEligibleValidatorGroups()": {
        "return": "The list of validator groups eligible to elect validators."
      },
      "getEpochSize()": {
        "return": "The current epoch size in blocks."
      },
      "getGroupEligibility(address)": {
        "details": "Eligible groups that have received their maximum number of votes cannot receive more.",
        "return": "Whether or not a group is eligible to receive votes."
      },
      "getGroupEpochRewards(address,uint256)": {
        "details": "Eligible groups that have received their maximum number of votes cannot receive more.",
        "params": {
          "group": "The group to calculate epoch rewards for.",
          "totalEpochRewards": "The total amount of rewards going to all voters."
        },
        "return": "The amount of rewards that voters for `group` are due at the end of an epoch."
      },
      "getGroupsVotedForByAccount(address)": {
        "params": {
          "account": "The address of the account casting votes."
        },
        "return": "The groups that `account` has voted for."
      },
      "getNumVotesReceivable(address)": {
        "details": "Votes are not allowed to be cast that would increase a group's proportion of locked gold  voting for it to greater than  (numGroupMembers + 1) / min(maxElectableValidators, numRegisteredValidators)Note that a group's vote total may exceed this number through rewards or config changes.",
        "params": {
          "group": "The address of the group."
        },
        "return": "The number of votes that a group can receive."
      },
      "getPendingVotesForGroupByAccount(address,address)": {
        "params": {
          "account": "The address of the voting account.",
          "group": "The address of the validator group."
        },
        "return": "The pending votes for `group` made by `account`."
      },
      "getTotalVotes()": {
        "return": "The total votes received across all groups."
      },
      "getTotalVotesByAccount(address)": {
        "params": {
          "account": "The address of the account."
        },
        "return": "The total number of votes cast by an account."
      },
      "getTotalVotesForEligibleValidatorGroups()": {
        "return": "Lists of all validator groups and the number of votes they've received."
      },
      "getTotalVotesForGroup(address)": {
        "params": {
          "group": "The address of the validator group."
        },
        "return": "The total votes made for `group`."
      },
      "getTotalVotesForGroupByAccount(address,address)": {
        "params": {
          "account": "The address of the voting account.",
          "group": "The address of the validator group."
        },
        "return": "The total votes for `group` made by `account`."
      },
      "hasActivatablePendingVotes(address,address)": {
        "details": "Pending votes cannot be activated until an election has been held.",
        "params": {
          "account": "The account with pending votes.",
          "group": "The validator group that `account` has pending votes for."
        },
        "return": "Whether or not `account` has activatable votes for `group`."
      },
      "initialize(address,uint256,uint256,uint256,uint256)": {
        "details": "Should be called only once.",
        "params": {
          "_electabilityThreshold": "The minimum ratio of votes a group needs before its members can  be elected.",
          "_maxNumGroupsVotedFor": "The maximum number of groups that an acconut can vote for at once.",
          "minElectableValidators": "The minimum number of validators that can be elected.",
          "registryAddress": "The address of the registry contract."
        }
      },
      "isOwner()": {
        "return": "true if `msg.sender` is the owner of the contract."
      },
      "markGroupEligible(address,address,address)": {
        "params": {
          "greater": "The address of the group that has received more votes than this group.",
          "group": "The address of the validator group.",
          "lesser": "The address of the group that has received fewer votes than this group."
        }
      },
      "markGroupIneligible(address)": {
        "details": "Can only be called by the registered \"Validators\" contract.",
        "params": {
          "group": "The address of the validator group."
        }
      },
      "numberValidatorsInCurrentSet()": {
        "return": "Size of the current elected validator set."
      },
      "owner()": {
        "return": "the address of the owner."
      },
      "renounceOwnership()": {
        "details": "Allows the current owner to relinquish control of the contract. It will not be possible to call the functions with the `onlyOwner` modifier anymore."
      },
      "revokeActive(address,uint256,address,address,uint256)": {
        "details": "Fails if the account has not voted on a validator group.",
        "params": {
          "greater": "The group receiving more votes than the group for which the vote was revoked,  or 0 if that group has the most votes of any validator group.",
          "group": "The validator group to revoke votes from.",
          "index": "The index of the group in the account's voting list.",
          "lesser": "The group receiving fewer votes than the group for which the vote was revoked,  or 0 if that group has the fewest votes of any validator group.",
          "value": "The number of votes to revoke."
        },
        "return": "True upon success."
      },
      "revokePending(address,uint256,address,address,uint256)": {
        "details": "Fails if the account has not voted on a validator group.",
        "params": {
          "greater": "The group receiving more votes than the group for which the vote was revoked,  or 0 if that group has the most votes of any validator group.",
          "group": "The validator group to revoke votes from.",
          "index": "The index of the group in the account's voting list.",
          "lesser": "The group receiving fewer votes than the group for which the vote was revoked,  or 0 if that group has the fewest votes of any validator group.",
          "value": "The number of votes to revoke."
        },
        "return": "True upon success."
      },
      "setElectabilityThreshold(uint256)": {
        "params": {
          "threshold": "Electability threshold as unwrapped Fraction."
        },
        "return": "True upon success."
      },
      "setElectableValidators(uint256,uint256)": {
        "params": {
          "max": "The maximum number of validators that can be elected.",
          "min": "The minimum number of validators that can be elected."
        },
        "return": "True upon success."
      },
      "setMaxNumGroupsVotedFor(uint256)": {
        "params": {
          "_maxNumGroupsVotedFor": "The maximum number of groups an account can vote for."
        },
        "return": "True upon success."
      },
      "setRegistry(address)": {
        "params": {
          "registryAddress": "The address of a registry contract for routing to other contracts."
        }
      },
      "transferOwnership(address)": {
        "details": "Allows the current owner to transfer control of the contract to a newOwner.",
        "params": {
          "newOwner": "The address to transfer ownership to."
        }
      },
      "validatorAddressFromCurrentSet(uint256)": {
        "params": {
          "index": "Index of requested validator in the validator set as sorted by the election."
        },
        "return": "Address of validator at the requested index."
      },
      "vote(address,uint256,address,address)": {
        "details": "Fails if `group` is empty or not a validator group.",
        "params": {
          "greater": "The group receiving more votes than `group`, or 0 if `group` has the  most votes of any validator group.",
          "group": "The validator group to vote for.",
          "lesser": "The group receiving fewer votes than `group`, or 0 if `group` has the  fewest votes of any validator group.",
          "value": "The amount of gold to use to vote."
        },
        "return": "True upon success."
      }
    }
  },
  "userdoc": {
    "methods": {
      "activate(address)": {
        "notice": "Converts `account`'s pending votes for `group` to active votes."
      },
      "canReceiveVotes(address,uint256)": {
        "notice": "Returns whether or not a group can receive the specified number of votes."
      },
      "checkProofOfPossession(address,bytes,bytes)": {
        "notice": "Checks a BLS proof of possession."
      },
      "distributeEpochRewards(address,uint256,address,address)": {
        "notice": "Distributes epoch rewards to voters for `group` in the form of active votes."
      },
      "electValidatorSigners()": {
        "notice": "Returns a list of elected validators with seats allocated to groups via the D'Hondt  method."
      },
      "fractionMulExp(uint256,uint256,uint256,uint256,uint256,uint256)": {
        "notice": "calculate a * b^x for fractions a, b to `decimals` precision"
      },
      "getActiveVotes()": {
        "notice": "Returns the active votes received across all groups."
      },
      "getActiveVotesForGroupByAccount(address,address)": {
        "notice": "Returns the active votes for `group` made by `account`."
      },
      "getCurrentValidatorSigners()": {
        "notice": "Returns get current validator signers using the precompiles."
      },
      "getElectabilityThreshold()": {
        "notice": "Gets the election threshold."
      },
      "getElectableValidators()": {
        "notice": "Returns the minimum and maximum number of validators that can be elected."
      },
      "getEligibleValidatorGroups()": {
        "notice": "Returns the list of validator groups eligible to elect validators."
      },
      "getEpochSize()": {
        "notice": "Returns the current epoch size in blocks."
      },
      "getGroupEligibility(address)": {
        "notice": "Returns whether or not a group is eligible to receive votes."
      },
      "getGroupEpochRewards(address,uint256)": {
        "notice": "Returns the amount of rewards that voters for `group` are due at the end of an epoch."
      },
      "getGroupsVotedForByAccount(address)": {
        "notice": "Returns the groups that `account` has voted for."
      },
      "getNumVotesReceivable(address)": {
        "notice": "Returns the number of votes that a group can receive."
      },
      "getPendingVotesForGroupByAccount(address,address)": {
        "notice": "Returns the pending votes for `group` made by `account`."
      },
      "getTotalVotes()": {
        "notice": "Returns the total votes received across all groups."
      },
      "getTotalVotesByAccount(address)": {
        "notice": "Returns the total number of votes cast by an account."
      },
      "getTotalVotesForEligibleValidatorGroups()": {
        "notice": "Returns lists of all validator groups and the number of votes they've received."
      },
      "getTotalVotesForGroup(address)": {
        "notice": "Returns the total votes made for `group`."
      },
      "getTotalVotesForGroupByAccount(address,address)": {
        "notice": "Returns the total votes for `group` made by `account`."
      },
      "hasActivatablePendingVotes(address,address)": {
        "notice": "Returns whether or not an account's votes for the specified group can be activated."
      },
      "initialize(address,uint256,uint256,uint256,uint256)": {
        "notice": "Initializes critical variables."
      },
      "markGroupEligible(address,address,address)": {
        "notice": "Marks a group eligible for electing validators."
      },
      "markGroupIneligible(address)": {
        "notice": "Marks a group ineligible for electing validators."
      },
      "numberValidatorsInCurrentSet()": {
        "notice": "Gets the size of the current elected validator set."
      },
      "renounceOwnership()": {
        "notice": "Renouncing ownership will leave the contract without an owner, thereby removing any functionality that is only available to the owner."
      },
      "revokeActive(address,uint256,address,address,uint256)": {
        "notice": "Revokes `value` active votes for `group`"
      },
      "revokePending(address,uint256,address,address,uint256)": {
        "notice": "Revokes `value` pending votes for `group`"
      },
      "setElectabilityThreshold(uint256)": {
        "notice": "Sets the electability threshold."
      },
      "setElectableValidators(uint256,uint256)": {
        "notice": "Updates the minimum and maximum number of validators that can be elected."
      },
      "setMaxNumGroupsVotedFor(uint256)": {
        "notice": "Updates the maximum number of groups an account can be voting for at once."
      },
      "setRegistry(address)": {
        "notice": "Updates the address pointing to a Registry contract."
      },
      "validatorAddressFromCurrentSet(uint256)": {
        "notice": "Gets a validator address from the current validator set."
      },
      "vote(address,uint256,address,address)": {
        "notice": "Increments the number of total and pending votes for `group`."
      }
    }
  }
}