{
  "contractName": "ElectionTest",
  "abi": [
    {
      "constant": true,
      "inputs": [
        {
          "name": "index",
          "type": "uint256"
        }
      ],
      "name": "validatorAddressFromCurrentSet",
      "outputs": [
        {
          "name": "",
          "type": "address"
        }
      ],
      "payable": false,
      "stateMutability": "view",
      "type": "function"
    },
    {
      "constant": true,
      "inputs": [],
      "name": "initialized",
      "outputs": [
        {
          "name": "",
          "type": "bool"
        }
      ],
      "payable": false,
      "stateMutability": "view",
      "type": "function"
    },
    {
      "constant": false,
      "inputs": [
        {
          "name": "group",
          "type": "address"
        }
      ],
      "name": "activate",
      "outputs": [
        {
          "name": "",
          "type": "bool"
        }
      ],
      "payable": false,
      "stateMutability": "nonpayable",
      "type": "function"
    },
    {
      "constant": true,
      "inputs": [],
      "name": "getActiveVotes",
      "outputs": [
        {
          "name": "",
          "type": "uint256"
        }
      ],
      "payable": false,
      "stateMutability": "view",
      "type": "function"
    },
    {
      "constant": false,
      "inputs": [
        {
          "name": "sender",
          "type": "address"
        },
        {
          "name": "blsKey",
          "type": "bytes"
        },
        {
          "name": "blsPop",
          "type": "bytes"
        }
      ],
      "name": "checkProofOfPossession",
      "outputs": [
        {
          "name": "",
          "type": "bool"
        }
      ],
      "payable": false,
      "stateMutability": "nonpayable",
      "type": "function"
    },
    {
      "constant": true,
      "inputs": [
        {
          "name": "account",
          "type": "address"
        },
        {
          "name": "group",
          "type": "address"
        }
      ],
      "name": "hasActivatablePendingVotes",
      "outputs": [
        {
          "name": "",
          "type": "bool"
        }
      ],
      "payable": false,
      "stateMutability": "view",
      "type": "function"
    },
    {
      "constant": true,
      "inputs": [],
      "name": "electValidatorSigners",
      "outputs": [
        {
          "name": "",
          "type": "address[]"
        }
      ],
      "payable": false,
      "stateMutability": "view",
      "type": "function"
    },
    {
      "constant": true,
      "inputs": [
        {
          "name": "group",
          "type": "address"
        }
      ],
      "name": "getNumVotesReceivable",
      "outputs": [
        {
          "name": "",
          "type": "uint256"
        }
      ],
      "payable": false,
      "stateMutability": "view",
      "type": "function"
    },
    {
      "constant": true,
      "inputs": [
        {
          "name": "group",
          "type": "address"
        },
        {
          "name": "account",
          "type": "address"
        }
      ],
      "name": "getTotalVotesForGroupByAccount",
      "outputs": [
        {
          "name": "",
          "type": "uint256"
        }
      ],
      "payable": false,
      "stateMutability": "view",
      "type": "function"
    },
    {
      "constant": false,
      "inputs": [
        {
          "name": "_maxNumGroupsVotedFor",
          "type": "uint256"
        }
      ],
      "name": "setMaxNumGroupsVotedFor",
      "outputs": [
        {
          "name": "",
          "type": "bool"
        }
      ],
      "payable": false,
      "stateMutability": "nonpayable",
      "type": "function"
    },
    {
      "constant": true,
      "inputs": [],
      "name": "getCurrentValidatorSigners",
      "outputs": [
        {
          "name": "",
          "type": "address[]"
        }
      ],
      "payable": false,
      "stateMutability": "view",
      "type": "function"
    },
    {
      "constant": true,
      "inputs": [
        {
          "name": "account",
          "type": "address"
        }
      ],
      "name": "getGroupsVotedForByAccount",
      "outputs": [
        {
          "name": "",
          "type": "address[]"
        }
      ],
      "payable": false,
      "stateMutability": "view",
      "type": "function"
    },
    {
      "constant": true,
      "inputs": [],
      "name": "electabilityThreshold",
      "outputs": [
        {
          "name": "value",
          "type": "uint256"
        }
      ],
      "payable": false,
      "stateMutability": "view",
      "type": "function"
    },
    {
      "constant": false,
      "inputs": [
        {
          "name": "group",
          "type": "address"
        },
        {
          "name": "value",
          "type": "uint256"
        },
        {
          "name": "lesser",
          "type": "address"
        },
        {
          "name": "greater",
          "type": "address"
        }
      ],
      "name": "vote",
      "outputs": [
        {
          "name": "",
          "type": "bool"
        }
      ],
      "payable": false,
      "stateMutability": "nonpayable",
      "type": "function"
    },
    {
      "constant": false,
      "inputs": [
        {
          "name": "threshold",
          "type": "uint256"
        }
      ],
      "name": "setElectabilityThreshold",
      "outputs": [
        {
          "name": "",
          "type": "bool"
        }
      ],
      "payable": false,
      "stateMutability": "nonpayable",
      "type": "function"
    },
    {
      "constant": true,
      "inputs": [
        {
          "name": "account",
          "type": "address"
        }
      ],
      "name": "getTotalVotesByAccount",
      "outputs": [
        {
          "name": "",
          "type": "uint256"
        }
      ],
      "payable": false,
      "stateMutability": "view",
      "type": "function"
    },
    {
      "constant": false,
      "inputs": [
        {
          "name": "group",
          "type": "address"
        },
        {
          "name": "value",
          "type": "uint256"
        },
        {
          "name": "lesser",
          "type": "address"
        },
        {
          "name": "greater",
          "type": "address"
        },
        {
          "name": "index",
          "type": "uint256"
        }
      ],
      "name": "revokeActive",
      "outputs": [
        {
          "name": "",
          "type": "bool"
        }
      ],
      "payable": false,
      "stateMutability": "nonpayable",
      "type": "function"
    },
    {
      "constant": true,
      "inputs": [],
      "name": "getTotalVotesForEligibleValidatorGroups",
      "outputs": [
        {
          "name": "groups",
          "type": "address[]"
        },
        {
          "name": "values",
          "type": "uint256[]"
        }
      ],
      "payable": false,
      "stateMutability": "view",
      "type": "function"
    },
    {
      "constant": false,
      "inputs": [],
      "name": "renounceOwnership",
      "outputs": [],
      "payable": false,
      "stateMutability": "nonpayable",
      "type": "function"
    },
    {
      "constant": true,
      "inputs": [],
      "name": "registry",
      "outputs": [
        {
          "name": "",
          "type": "address"
        }
      ],
      "payable": false,
      "stateMutability": "view",
      "type": "function"
    },
    {
      "constant": true,
      "inputs": [],
      "name": "numberValidatorsInCurrentSet",
      "outputs": [
        {
          "name": "",
          "type": "uint256"
        }
      ],
      "payable": false,
      "stateMutability": "view",
      "type": "function"
    },
    {
      "constant": true,
      "inputs": [
        {
          "name": "group",
          "type": "address"
        }
      ],
      "name": "getGroupEligibility",
      "outputs": [
        {
          "name": "",
          "type": "bool"
        }
      ],
      "payable": false,
      "stateMutability": "view",
      "type": "function"
    },
    {
      "constant": true,
      "inputs": [],
      "name": "owner",
      "outputs": [
        {
          "name": "",
          "type": "address"
        }
      ],
      "payable": false,
      "stateMutability": "view",
      "type": "function"
    },
    {
      "constant": true,
      "inputs": [],
      "name": "isOwner",
      "outputs": [
        {
          "name": "",
          "type": "bool"
        }
      ],
      "payable": false,
      "stateMutability": "view",
      "type": "function"
    },
    {
      "constant": true,
      "inputs": [],
      "name": "getTotalVotes",
      "outputs": [
        {
          "name": "",
          "type": "uint256"
        }
      ],
      "payable": false,
      "stateMutability": "view",
      "type": "function"
    },
    {
      "constant": true,
      "inputs": [],
      "name": "getEpochNumber",
      "outputs": [
        {
          "name": "",
          "type": "uint256"
        }
      ],
      "payable": false,
      "stateMutability": "view",
      "type": "function"
    },
    {
      "constant": true,
      "inputs": [
        {
          "name": "group",
          "type": "address"
        },
        {
          "name": "account",
          "type": "address"
        }
      ],
      "name": "getPendingVotesForGroupByAccount",
      "outputs": [
        {
          "name": "",
          "type": "uint256"
        }
      ],
      "payable": false,
      "stateMutability": "view",
      "type": "function"
    },
    {
      "constant": false,
      "inputs": [
        {
          "name": "group",
          "type": "address"
        },
        {
          "name": "value",
          "type": "uint256"
        },
        {
          "name": "lesser",
          "type": "address"
        },
        {
          "name": "greater",
          "type": "address"
        },
        {
          "name": "index",
          "type": "uint256"
        }
      ],
      "name": "revokePending",
      "outputs": [
        {
          "name": "",
          "type": "bool"
        }
      ],
      "payable": false,
      "stateMutability": "nonpayable",
      "type": "function"
    },
    {
      "constant": false,
      "inputs": [
        {
          "name": "group",
          "type": "address"
        },
        {
          "name": "lesser",
          "type": "address"
        },
        {
          "name": "greater",
          "type": "address"
        }
      ],
      "name": "markGroupEligible",
      "outputs": [],
      "payable": false,
      "stateMutability": "nonpayable",
      "type": "function"
    },
    {
      "constant": true,
      "inputs": [],
      "name": "getEligibleValidatorGroups",
      "outputs": [
        {
          "name": "",
          "type": "address[]"
        }
      ],
      "payable": false,
      "stateMutability": "view",
      "type": "function"
    },
    {
      "constant": false,
      "inputs": [
        {
          "name": "group",
          "type": "address"
        }
      ],
      "name": "markGroupIneligible",
      "outputs": [],
      "payable": false,
      "stateMutability": "nonpayable",
      "type": "function"
    },
    {
      "constant": false,
      "inputs": [
        {
          "name": "registryAddress",
          "type": "address"
        }
      ],
      "name": "setRegistry",
      "outputs": [],
      "payable": false,
      "stateMutability": "nonpayable",
      "type": "function"
    },
    {
      "constant": true,
      "inputs": [],
      "name": "maxNumGroupsVotedFor",
      "outputs": [
        {
          "name": "",
          "type": "uint256"
        }
      ],
      "payable": false,
      "stateMutability": "view",
      "type": "function"
    },
    {
      "constant": true,
      "inputs": [],
      "name": "getElectabilityThreshold",
      "outputs": [
        {
          "name": "",
          "type": "uint256"
        }
      ],
      "payable": false,
      "stateMutability": "view",
      "type": "function"
    },
    {
      "constant": true,
      "inputs": [
        {
          "name": "group",
          "type": "address"
        },
        {
          "name": "totalEpochRewards",
          "type": "uint256"
        }
      ],
      "name": "getGroupEpochRewards",
      "outputs": [
        {
          "name": "",
          "type": "uint256"
        }
      ],
      "payable": false,
      "stateMutability": "view",
      "type": "function"
    },
    {
      "constant": true,
      "inputs": [
        {
          "name": "group",
          "type": "address"
        },
        {
          "name": "account",
          "type": "address"
        }
      ],
      "name": "getActiveVotesForGroupByAccount",
      "outputs": [
        {
          "name": "",
          "type": "uint256"
        }
      ],
      "payable": false,
      "stateMutability": "view",
      "type": "function"
    },
    {
      "constant": true,
      "inputs": [
        {
          "name": "group",
          "type": "address"
        }
      ],
      "name": "getTotalVotesForGroup",
      "outputs": [
        {
          "name": "",
          "type": "uint256"
        }
      ],
      "payable": false,
      "stateMutability": "view",
      "type": "function"
    },
    {
      "constant": true,
      "inputs": [],
      "name": "getEpochSize",
      "outputs": [
        {
          "name": "",
          "type": "uint256"
        }
      ],
      "payable": false,
      "stateMutability": "view",
      "type": "function"
    },
    {
      "constant": true,
      "inputs": [
        {
          "name": "group",
          "type": "address"
        },
        {
          "name": "value",
          "type": "uint256"
        }
      ],
      "name": "canReceiveVotes",
      "outputs": [
        {
          "name": "",
          "type": "bool"
        }
      ],
      "payable": false,
      "stateMutability": "view",
      "type": "function"
    },
    {
      "constant": true,
      "inputs": [
        {
          "name": "aNumerator",
          "type": "uint256"
        },
        {
          "name": "aDenominator",
          "type": "uint256"
        },
        {
          "name": "bNumerator",
          "type": "uint256"
        },
        {
          "name": "bDenominator",
          "type": "uint256"
        },
        {
          "name": "exponent",
          "type": "uint256"
        },
        {
          "name": "_decimals",
          "type": "uint256"
        }
      ],
      "name": "fractionMulExp",
      "outputs": [
        {
          "name": "",
          "type": "uint256"
        },
        {
          "name": "",
          "type": "uint256"
        }
      ],
      "payable": false,
      "stateMutability": "view",
      "type": "function"
    },
    {
      "constant": false,
      "inputs": [
        {
          "name": "newOwner",
          "type": "address"
        }
      ],
      "name": "transferOwnership",
      "outputs": [],
      "payable": false,
      "stateMutability": "nonpayable",
      "type": "function"
    },
    {
      "constant": false,
      "inputs": [
        {
          "name": "min",
          "type": "uint256"
        },
        {
          "name": "max",
          "type": "uint256"
        }
      ],
      "name": "setElectableValidators",
      "outputs": [
        {
          "name": "",
          "type": "bool"
        }
      ],
      "payable": false,
      "stateMutability": "nonpayable",
      "type": "function"
    },
    {
      "constant": false,
      "inputs": [
        {
          "name": "registryAddress",
          "type": "address"
        },
        {
          "name": "minElectableValidators",
          "type": "uint256"
        },
        {
          "name": "maxElectableValidators",
          "type": "uint256"
        },
        {
          "name": "_maxNumGroupsVotedFor",
          "type": "uint256"
        },
        {
          "name": "_electabilityThreshold",
          "type": "uint256"
        }
      ],
      "name": "initialize",
      "outputs": [],
      "payable": false,
      "stateMutability": "nonpayable",
      "type": "function"
    },
    {
      "constant": true,
      "inputs": [],
      "name": "electableValidators",
      "outputs": [
        {
          "name": "min",
          "type": "uint256"
        },
        {
          "name": "max",
          "type": "uint256"
        }
      ],
      "payable": false,
      "stateMutability": "view",
      "type": "function"
    },
    {
      "constant": true,
      "inputs": [],
      "name": "getElectableValidators",
      "outputs": [
        {
          "name": "",
          "type": "uint256"
        },
        {
          "name": "",
          "type": "uint256"
        }
      ],
      "payable": false,
      "stateMutability": "view",
      "type": "function"
    },
    {
      "anonymous": false,
      "inputs": [
        {
          "indexed": false,
          "name": "min",
          "type": "uint256"
        },
        {
          "indexed": false,
          "name": "max",
          "type": "uint256"
        }
      ],
      "name": "ElectableValidatorsSet",
      "type": "event"
    },
    {
      "anonymous": false,
      "inputs": [
        {
          "indexed": false,
          "name": "maxNumGroupsVotedFor",
          "type": "uint256"
        }
      ],
      "name": "MaxNumGroupsVotedForSet",
      "type": "event"
    },
    {
      "anonymous": false,
      "inputs": [
        {
          "indexed": false,
          "name": "electabilityThreshold",
          "type": "uint256"
        }
      ],
      "name": "ElectabilityThresholdSet",
      "type": "event"
    },
    {
      "anonymous": false,
      "inputs": [
        {
          "indexed": false,
          "name": "group",
          "type": "address"
        }
      ],
      "name": "ValidatorGroupMarkedEligible",
      "type": "event"
    },
    {
      "anonymous": false,
      "inputs": [
        {
          "indexed": false,
          "name": "group",
          "type": "address"
        }
      ],
      "name": "ValidatorGroupMarkedIneligible",
      "type": "event"
    },
    {
      "anonymous": false,
      "inputs": [
        {
          "indexed": true,
          "name": "account",
          "type": "address"
        },
        {
          "indexed": true,
          "name": "group",
          "type": "address"
        },
        {
          "indexed": false,
          "name": "value",
          "type": "uint256"
        }
      ],
      "name": "ValidatorGroupVoteCast",
      "type": "event"
    },
    {
      "anonymous": false,
      "inputs": [
        {
          "indexed": true,
          "name": "account",
          "type": "address"
        },
        {
          "indexed": true,
          "name": "group",
          "type": "address"
        },
        {
          "indexed": false,
          "name": "value",
          "type": "uint256"
        }
      ],
      "name": "ValidatorGroupVoteActivated",
      "type": "event"
    },
    {
      "anonymous": false,
      "inputs": [
        {
          "indexed": true,
          "name": "account",
          "type": "address"
        },
        {
          "indexed": true,
          "name": "group",
          "type": "address"
        },
        {
          "indexed": false,
          "name": "value",
          "type": "uint256"
        }
      ],
      "name": "ValidatorGroupVoteRevoked",
      "type": "event"
    },
    {
      "anonymous": false,
      "inputs": [
        {
          "indexed": true,
          "name": "registryAddress",
          "type": "address"
        }
      ],
      "name": "RegistrySet",
      "type": "event"
    },
    {
      "anonymous": false,
      "inputs": [
        {
          "indexed": true,
          "name": "previousOwner",
          "type": "address"
        },
        {
          "indexed": true,
          "name": "newOwner",
          "type": "address"
        }
      ],
      "name": "OwnershipTransferred",
      "type": "event"
    },
    {
      "constant": false,
      "inputs": [
        {
          "name": "group",
          "type": "address"
        },
        {
          "name": "value",
          "type": "uint256"
        },
        {
          "name": "lesser",
          "type": "address"
        },
        {
          "name": "greater",
          "type": "address"
        }
      ],
      "name": "distributeEpochRewards",
      "outputs": [],
      "payable": false,
      "stateMutability": "nonpayable",
      "type": "function"
    }
  ],
  "bytecode": "0x6080604052336000806101000a81548173ffffffffffffffffffffffffffffffffffffffff021916908373ffffffffffffffffffffffffffffffffffffffff1602179055506000809054906101000a900473ffffffffffffffffffffffffffffffffffffffff1673ffffffffffffffffffffffffffffffffffffffff16600073ffffffffffffffffffffffffffffffffffffffff167f8be0079c531659141344cd1fd0a4f28419497f9722a3daafe3b4186f6b6457e060405160405180910390a360018081905550615e29806100d66000396000f3fe608060405234801561001057600080fd5b506004361061028a5760003560e01c80638da5cb5b1161015c578063bdd14318116100ce578063ec68307211610087578063ec6830721461114e578063f2fde38b146111c9578063f911f0b71461120d578063f92ad2191461125d578063f9d7daae146112c9578063f9f41a7a146112ee5761028a565b8063bdd1431814610f7a578063c48a9c8614610f98578063d3e242a414610ffa578063dedafeae14611072578063df4da461146110ca578063e59ea3e8146110e85761028a565b80639dfb6081116101205780639dfb608114610d41578063a18fb2db14610df1578063a5826ab214610e75578063a8e4587114610ed4578063a91ee0dc14610f18578063ac839d6914610f5c5761028a565b80638da5cb5b14610c215780638f32d59b14610c6b5780639a0e7d6614610c8d5780639a7b3be714610cab5780639b95975f14610cc95761028a565b8063448144c8116102005780636e198475116101b95780636e198475146109fc5780637046c96b14610aac578063715018a614610b535780637b10399914610b5d57806387ee8a0f14610ba75780638c66677514610bc55761028a565b8063448144c8146107a2578063457578a3146108015780634be8843b1461089a578063580d747a146108b8578063631db7e71461095e5780636c781a2c146109a45761028a565b806323f0ab651161025257806323f0ab6514610427578063263ecf74146105b15780632ba38e691461062d5780632c3b79161461068c57806338617272146106e45780633c55a73c1461075c5761028a565b806311fb9e841461028f57806312541a6b146102fd578063158ef93e1461038b5780631c5a9d9c146103ad5780631f60424314610409575b600080fd5b6102bb600480360360208110156102a557600080fd5b8101908080359060200190929190505050611313565b604051808273ffffffffffffffffffffffffffffffffffffffff1673ffffffffffffffffffffffffffffffffffffffff16815260200191505060405180910390f35b6103896004803603608081101561031357600080fd5b81019080803573ffffffffffffffffffffffffffffffffffffffff16906020019092919080359060200190929190803573ffffffffffffffffffffffffffffffffffffffff169060200190929190803573ffffffffffffffffffffffffffffffffffffffff169060200190929190505050611343565b005b610393611355565b604051808215151515815260200191505060405180910390f35b6103ef600480360360208110156103c357600080fd5b81019080803573ffffffffffffffffffffffffffffffffffffffff169060200190929190505050611368565b604051808215151515815260200191505060405180910390f35b610411611590565b6040518082815260200191505060405180910390f35b6105976004803603606081101561043d57600080fd5b81019080803573ffffffffffffffffffffffffffffffffffffffff1690602001909291908035906020019064010000000081111561047a57600080fd5b82018360208201111561048c57600080fd5b803590602001918460018302840111640100000000831117156104ae57600080fd5b91908080601f016020809104026020016040519081016040528093929190818152602001838380828437600081840152601f19601f8201169050808301925050505050505091929192908035906020019064010000000081111561051157600080fd5b82018360208201111561052357600080fd5b8035906020019184600183028401116401000000008311171561054557600080fd5b91908080601f016020809104026020016040519081016040528093929190818152602001838380828437600081840152601f19601f8201169050808301925050505050505091929192905050506115a0565b604051808215151515815260200191505060405180910390f35b610613600480360360408110156105c757600080fd5b81019080803573ffffffffffffffffffffffffffffffffffffffff169060200190929190803573ffffffffffffffffffffffffffffffffffffffff169060200190929190505050611760565b604051808215151515815260200191505060405180910390f35b610635611811565b6040518080602001828103825283818151815260200191508051906020019060200280838360005b8381101561067857808201518184015260208101905061065d565b505050509050019250505060405180910390f35b6106ce600480360360208110156106a257600080fd5b81019080803573ffffffffffffffffffffffffffffffffffffffff169060200190929190505050611e5e565b6040518082815260200191505060405180910390f35b610746600480360360408110156106fa57600080fd5b81019080803573ffffffffffffffffffffffffffffffffffffffff169060200190929190803573ffffffffffffffffffffffffffffffffffffffff169060200190929190505050612084565b6040518082815260200191505060405180910390f35b6107886004803603602081101561077257600080fd5b81019080803590602001909291905050506120be565b604051808215151515815260200191505060405180910390f35b6107aa612127565b6040518080602001828103825283818151815260200191508051906020019060200280838360005b838110156107ed5780820151818401526020810190506107d2565b505050509050019250505060405180910390f35b6108436004803603602081101561081757600080fd5b81019080803573ffffffffffffffffffffffffffffffffffffffff1690602001909291905050506121dc565b6040518080602001828103825283818151815260200191508051906020019060200280838360005b8381101561088657808201518184015260208101905061086b565b505050509050019250505060405180910390f35b6108a26122ac565b6040518082815260200191505060405180910390f35b610944600480360360808110156108ce57600080fd5b81019080803573ffffffffffffffffffffffffffffffffffffffff16906020019092919080359060200190929190803573ffffffffffffffffffffffffffffffffffffffff169060200190929190803573ffffffffffffffffffffffffffffffffffffffff1690602001909291905050506122b8565b604051808215151515815260200191505060405180910390f35b61098a6004803603602081101561097457600080fd5b8101908080359060200190929190505050612792565b604051808215151515815260200191505060405180910390f35b6109e6600480360360208110156109ba57600080fd5b81019080803573ffffffffffffffffffffffffffffffffffffffff169060200190929190505050612882565b6040518082815260200191505060405180910390f35b610a92600480360360a0811015610a1257600080fd5b81019080803573ffffffffffffffffffffffffffffffffffffffff16906020019092919080359060200190929190803573ffffffffffffffffffffffffffffffffffffffff169060200190929190803573ffffffffffffffffffffffffffffffffffffffff169060200190929190803590602001909291905050506129ba565b604051808215151515815260200191505060405180910390f35b610ab4612c90565b604051808060200180602001838103835285818151815260200191508051906020019060200280838360005b83811015610afb578082015181840152602081019050610ae0565b50505050905001838103825284818151815260200191508051906020019060200280838360005b83811015610b3d578082015181840152602081019050610b22565b5050505090500194505050505060405180910390f35b610b5b612dd3565b005b610b65612ea3565b604051808273ffffffffffffffffffffffffffffffffffffffff1673ffffffffffffffffffffffffffffffffffffffff16815260200191505060405180910390f35b610baf612ec9565b6040518082815260200191505060405180910390f35b610c0760048036036020811015610bdb57600080fd5b81019080803573ffffffffffffffffffffffffffffffffffffffff169060200190929190505050612eee565b604051808215151515815260200191505060405180910390f35b610c29612fbe565b604051808273ffffffffffffffffffffffffffffffffffffffff1673ffffffffffffffffffffffffffffffffffffffff16815260200191505060405180910390f35b610c73612fe7565b604051808215151515815260200191505060405180910390f35b610c9561303e565b6040518082815260200191505060405180910390f35b610cb3613068565b6040518082815260200191505060405180910390f35b610d2b60048036036040811015610cdf57600080fd5b81019080803573ffffffffffffffffffffffffffffffffffffffff169060200190929190803573ffffffffffffffffffffffffffffffffffffffff1690602001909291905050506130a4565b6040518082815260200191505060405180910390f35b610dd7600480360360a0811015610d5757600080fd5b81019080803573ffffffffffffffffffffffffffffffffffffffff16906020019092919080359060200190929190803573ffffffffffffffffffffffffffffffffffffffff169060200190929190803573ffffffffffffffffffffffffffffffffffffffff16906020019092919080359060200190929190505050613137565b604051808215151515815260200191505060405180910390f35b610e7360048036036060811015610e0757600080fd5b81019080803573ffffffffffffffffffffffffffffffffffffffff169060200190929190803573ffffffffffffffffffffffffffffffffffffffff169060200190929190803573ffffffffffffffffffffffffffffffffffffffff16906020019092919050505061340d565b005b610e7d61372d565b6040518080602001828103825283818151815260200191508051906020019060200280838360005b83811015610ec0578082015181840152602081019050610ea5565b505050509050019250505060405180910390f35b610f1660048036036020811015610eea57600080fd5b81019080803573ffffffffffffffffffffffffffffffffffffffff16906020019092919050505061381d565b005b610f5a60048036036020811015610f2e57600080fd5b81019080803573ffffffffffffffffffffffffffffffffffffffff169060200190929190505050613abd565b005b610f64613b55565b6040518082815260200191505060405180910390f35b610f82613b5b565b6040518082815260200191505060405180910390f35b610fe460048036036040811015610fae57600080fd5b81019080803573ffffffffffffffffffffffffffffffffffffffff16906020019092919080359060200190929190505050613b81565b6040518082815260200191505060405180910390f35b61105c6004803603604081101561101057600080fd5b81019080803573ffffffffffffffffffffffffffffffffffffffff169060200190929190803573ffffffffffffffffffffffffffffffffffffffff169060200190929190505050613ce2565b6040518082815260200191505060405180910390f35b6110b46004803603602081101561108857600080fd5b81019080803573ffffffffffffffffffffffffffffffffffffffff169060200190929190505050613dc4565b6040518082815260200191505060405180910390f35b6110d2613e70565b6040518082815260200191505060405180910390f35b611134600480360360408110156110fe57600080fd5b81019080803573ffffffffffffffffffffffffffffffffffffffff16906020019092919080359060200190929190505050613e9b565b604051808215151515815260200191505060405180910390f35b6111ac600480360360c081101561116457600080fd5b810190808035906020019092919080359060200190929190803590602001909291908035906020019092919080359060200190929190803590602001909291905050506140e5565b604051808381526020018281526020019250505060405180910390f35b61120b600480360360208110156111df57600080fd5b81019080803573ffffffffffffffffffffffffffffffffffffffff169060200190929190505050614180565b005b6112436004803603604081101561122357600080fd5b81019080803590602001909291908035906020019092919050505061419d565b604051808215151515815260200191505060405180910390f35b6112c7600480360360a081101561127357600080fd5b81019080803573ffffffffffffffffffffffffffffffffffffffff16906020019092919080359060200190929190803590602001909291908035906020019092919080359060200190929190505050614262565b005b6112d16142cf565b604051808381526020018281526020019250505060405180910390f35b6112f66142e1565b604051808381526020018281526020019250505060405180910390f35b60008060405183815260008060208360fa611388fa60206000604084013e60408201519250505080915050919050565b61134f848484846142f8565b50505050565b600260009054906101000a900460ff1681565b60006001806000828254019250508190555060006001549050600061138b61468b565b73ffffffffffffffffffffffffffffffffffffffff16636642d594336040518263ffffffff1660e01b8152600401808273ffffffffffffffffffffffffffffffffffffffff1673ffffffffffffffffffffffffffffffffffffffff16815260200191505060206040518083038186803b15801561140757600080fd5b505afa15801561141b573d6000803e3d6000fd5b505050506040513d602081101561143157600080fd5b810190808051906020019092919050505090506000600360000160010160008673ffffffffffffffffffffffffffffffffffffffff1673ffffffffffffffffffffffffffffffffffffffff16815260200190815260200160002060010160008373ffffffffffffffffffffffffffffffffffffffff1673ffffffffffffffffffffffffffffffffffffffff16815260200190815260200160002090506114d5613068565b8160010154106114e457600080fd5b600081600001549050600081116114fa57600080fd5b611505868483614786565b611510868483614896565b8573ffffffffffffffffffffffffffffffffffffffff168373ffffffffffffffffffffffffffffffffffffffff167f50363f7a646042bcb294d6afdef2d53f4122379845e67627b6db367f31934f16836040518082815260200191505060405180910390a360019450505050600154811461158a57600080fd5b50919050565b6000600360020160000154905090565b60008060fb73ffffffffffffffffffffffffffffffffffffffff1660005a90878787604051602001808473ffffffffffffffffffffffffffffffffffffffff1673ffffffffffffffffffffffffffffffffffffffff1660601b815260140183805190602001908083835b6020831061162d578051825260208201915060208101905060208303925061160a565b6001836020036101000a03801982511681845116808217855250505050505090500182805190602001908083835b6020831061167e578051825260208201915060208101905060208303925061165b565b6001836020036101000a03801982511681845116808217855250505050505090500193505050506040516020818303038152906040526040518082805190602001908083835b602083106116e757805182526020820191506020810190506020830392506116c4565b6001836020036101000a038019825116818451168082178552505050505050905001915050600060405180830381858888f193505050503d806000811461174a576040519150601f19603f3d011682016040523d82523d6000602084013e61174f565b606091505b505080915050809150509392505050565b600080600360000160010160008473ffffffffffffffffffffffffffffffffffffffff1673ffffffffffffffffffffffffffffffffffffffff16815260200190815260200160002060010160008573ffffffffffffffffffffffffffffffffffffffff1673ffffffffffffffffffffffffffffffffffffffff16815260200190815260200160002090506117f2613068565b8160010154108015611808575060008160000154115b91505092915050565b6060600061185561185061182b61182661303e565b6149f0565b6010604051806020016040529081600082015481525050614a2e90919063ffffffff16565b614c80565b90506000600360040160000173__AddressSortedLinkedList_______________6342b6351a909184600d600101546040518463ffffffff1660e01b815260040180848152602001838152602001828152602001935050505060206040518083038186803b1580156118c657600080fd5b505af41580156118da573d6000803e3d6000fd5b505050506040513d60208110156118f057600080fd5b810190808051906020019092919050505090506060600360040160000173__AddressSortedLinkedList_______________63dcb2a4dd9091846040518363ffffffff1660e01b8152600401808381526020018281526020019250505060006040518083038186803b15801561196557600080fd5b505af4158015611979573d6000803e3d6000fd5b505050506040513d6000823e3d601f19601f8201168201806040525060208110156119a357600080fd5b8101908080516401000000008111156119bb57600080fd5b828101905060208101848111156119d157600080fd5b81518560208202830111640100000000821117156119ee57600080fd5b505092919050505090506060611a02614ca1565b73ffffffffffffffffffffffffffffffffffffffff166370447754836040518263ffffffff1660e01b81526004018080602001828103825283818151815260200191508051906020019060200280838360005b83811015611a70578082015181840152602081019050611a55565b505050509050019250505060006040518083038186803b158015611a9357600080fd5b505afa158015611aa7573d6000803e3d6000fd5b505050506040513d6000823e3d601f19601f820116820180604052506020811015611ad157600080fd5b810190808051640100000000811115611ae957600080fd5b82810190506020810184811115611aff57600080fd5b8151856020820283011164010000000082111715611b1c57600080fd5b5050929190505050905060608251604051908082528060200260200182016040528015611b585781602001602082028038833980820191505090505b50905060008090505b600d60010154811015611bf95760008090506000809050611b83868686614d9c565b80925081935050508015611beb57611bb86001858481518110611ba257fe5b6020026020010151614f7e90919063ffffffff16565b848381518110611bc457fe5b602002602001018181525050611be4600184614f7e90919063ffffffff16565b9250611bf2565b5050611bf9565b5050611b61565b600d60000154811015611c0b57600080fd5b606081604051908082528060200260200182016040528015611c3c5781602001602082028038833980820191505090505b5090506000915060008090505b8551811015611e50576060611c5c614ca1565b73ffffffffffffffffffffffffffffffffffffffff16638dd31e39888481518110611c8357fe5b6020026020010151878581518110611c9757fe5b60200260200101516040518363ffffffff1660e01b8152600401808373ffffffffffffffffffffffffffffffffffffffff1673ffffffffffffffffffffffffffffffffffffffff1681526020018281526020019250505060006040518083038186803b158015611d0657600080fd5b505afa158015611d1a573d6000803e3d6000fd5b505050506040513d6000823e3d601f19601f820116820180604052506020811015611d4457600080fd5b810190808051640100000000811115611d5c57600080fd5b82810190506020810184811115611d7257600080fd5b8151856020820283011164010000000082111715611d8f57600080fd5b5050929190505050905060008090505b8151811015611e3357818181518110611db457fe5b6020026020010151848681518110611dc857fe5b602002602001019073ffffffffffffffffffffffffffffffffffffffff16908173ffffffffffffffffffffffffffffffffffffffff1681525050611e16600186614f7e90919063ffffffff16565b9450611e2c600182614f7e90919063ffffffff16565b9050611d9f565b5050611e49600182614f7e90919063ffffffff16565b9050611c49565b508097505050505050505090565b600080611fcc611e6c614f9d565b73ffffffffffffffffffffffffffffffffffffffff166330a61d596040518163ffffffff1660e01b815260040160206040518083038186803b158015611eb157600080fd5b505afa158015611ec5573d6000803e3d6000fd5b505050506040513d6020811015611edb57600080fd5b8101908080519060200190929190505050611fbe6001611ef9614ca1565b73ffffffffffffffffffffffffffffffffffffffff166339e618e8886040518263ffffffff1660e01b8152600401808273ffffffffffffffffffffffffffffffffffffffff1673ffffffffffffffffffffffffffffffffffffffff16815260200191505060206040518083038186803b158015611f7557600080fd5b505afa158015611f89573d6000803e3d6000fd5b505050506040513d6020811015611f9f57600080fd5b8101908080519060200190929190505050614f7e90919063ffffffff16565b61509890919063ffffffff16565b90506000612066600d60010154611fe1614ca1565b73ffffffffffffffffffffffffffffffffffffffff1663517f6d336040518163ffffffff1660e01b815260040160206040518083038186803b15801561202657600080fd5b505afa15801561203a573d6000803e3d6000fd5b505050506040513d602081101561205057600080fd5b81019080805190602001909291905050506150d2565b905061207b81836150eb90919063ffffffff16565b92505050919050565b60008061209184846130a4565b9050600061209f8585613ce2565b90506120b48183614f7e90919063ffffffff16565b9250505092915050565b60006120c8612fe7565b6120d157600080fd5b600f548214156120e057600080fd5b81600f819055507f1993a3864c31265ef86eec51d147eff697dee0466c92ac9abddcc4c4c6829348826040518082815260200191505060405180910390a160019050919050565b60606000612133612ec9565b90506060816040519080825280602002602001820160405280156121665781602001602082028038833980820191505090505b50905060008090505b828110156121d35761218081611313565b82828151811061218c57fe5b602002602001019073ffffffffffffffffffffffffffffffffffffffff16908173ffffffffffffffffffffffffffffffffffffffff1681525050808060010191505061216f565b50809250505090565b6060600360090160008373ffffffffffffffffffffffffffffffffffffffff1673ffffffffffffffffffffffffffffffffffffffff1681526020019081526020016000208054806020026020016040519081016040528092919081815260200182805480156122a057602002820191906000526020600020905b8160009054906101000a900473ffffffffffffffffffffffffffffffffffffffff1673ffffffffffffffffffffffffffffffffffffffff1681526020019060010190808311612256575b50505050509050919050565b60108060000154905081565b60006001806000828254019250508190555060006001549050600360040160000173__AddressSortedLinkedList_______________6302f130289091886040518363ffffffff1660e01b8152600401808381526020018273ffffffffffffffffffffffffffffffffffffffff1673ffffffffffffffffffffffffffffffffffffffff1681526020019250505060206040518083038186803b15801561235d57600080fd5b505af4158015612371573d6000803e3d6000fd5b505050506040513d602081101561238757600080fd5b81019080805190602001909291905050506123a157600080fd5b846000106123ae57600080fd5b6123b88686613e9b565b61242a576040517f08c379a00000000000000000000000000000000000000000000000000000000081526004018080602001828103825260178152602001807f556e61626c6520746f207265636569766520766f74657300000000000000000081525060200191505060405180910390fd5b600061243461468b565b73ffffffffffffffffffffffffffffffffffffffff16636642d594336040518263ffffffff1660e01b8152600401808273ffffffffffffffffffffffffffffffffffffffff1673ffffffffffffffffffffffffffffffffffffffff16815260200191505060206040518083038186803b1580156124b057600080fd5b505afa1580156124c4573d6000803e3d6000fd5b505050506040513d60208110156124da57600080fd5b8101908080519060200190929190505050905060008090506000600360090160008473ffffffffffffffffffffffffffffffffffffffff1673ffffffffffffffffffffffffffffffffffffffff168152602001908152602001600020905060008090505b81805490508110156125d45782806125b757508973ffffffffffffffffffffffffffffffffffffffff1682828154811061257457fe5b9060005260206000200160009054906101000a900473ffffffffffffffffffffffffffffffffffffffff1673ffffffffffffffffffffffffffffffffffffffff16145b92506125cd600182614f7e90919063ffffffff16565b905061253e565b508161265257600f548180549050106125ec57600080fd5b808990806001815401808255809150509060018203906000526020600020016000909192909190916101000a81548173ffffffffffffffffffffffffffffffffffffffff021916908373ffffffffffffffffffffffffffffffffffffffff160217905550505b61265d89848a615111565b61266989898989615219565b612671614f9d565b73ffffffffffffffffffffffffffffffffffffffff166318a4ff8c848a6040518363ffffffff1660e01b8152600401808373ffffffffffffffffffffffffffffffffffffffff1673ffffffffffffffffffffffffffffffffffffffff16815260200182815260200192505050600060405180830381600087803b1580156126f757600080fd5b505af115801561270b573d6000803e3d6000fd5b505050508873ffffffffffffffffffffffffffffffffffffffff168373ffffffffffffffffffffffffffffffffffffffff167fd3532f70444893db82221041edb4dc26c94593aeb364b0b14dfc77d5ee9051528a6040518082815260200191505060405180910390a360019450505050600154811461278957600080fd5b50949350505050565b600061279c612fe7565b6127a557600080fd5b6127ae82615411565b6010600082015181600001559050506127ed6127c861542f565b601060405180602001604052908160008201548152505061545590919063ffffffff16565b612842576040517f08c379a000000000000000000000000000000000000000000000000000000000815260040180806020018281038252602e815260200180615dd0602e913960400191505060405180910390fd5b7f9854be03126e38f9c318d8aabe1b150d09cb3a57059b21855b1e11d44e082c1a826040518082815260200191505060405180910390a160019050919050565b600080600090506060600360090160008573ffffffffffffffffffffffffffffffffffffffff1673ffffffffffffffffffffffffffffffffffffffff16815260200190815260200160002080548060200260200160405190810160405280929190818152602001828054801561294d57602002820191906000526020600020905b8160009054906101000a900473ffffffffffffffffffffffffffffffffffffffff1673ffffffffffffffffffffffffffffffffffffffff1681526020019060010190808311612903575b5050505050905060008090505b81518110156129af5761299261298383838151811061297557fe5b602002602001015187612084565b84614f7e90919063ffffffff16565b92506129a8600182614f7e90919063ffffffff16565b905061295a565b508192505050919050565b60006001806000828254019250508190555060006001549050600073ffffffffffffffffffffffffffffffffffffffff168773ffffffffffffffffffffffffffffffffffffffff161415612a0d57600080fd5b6000612a1761468b565b73ffffffffffffffffffffffffffffffffffffffff16636642d594336040518263ffffffff1660e01b8152600401808273ffffffffffffffffffffffffffffffffffffffff1673ffffffffffffffffffffffffffffffffffffffff16815260200191505060206040518083038186803b158015612a9357600080fd5b505afa158015612aa7573d6000803e3d6000fd5b505050506040513d6020811015612abd57600080fd5b81019080805190602001909291905050509050866000108015612ae95750612ae58882613ce2565b8711155b612af257600080fd5b612afd88828961546a565b612b09888888886155c4565b612b11614f9d565b73ffffffffffffffffffffffffffffffffffffffff16636edf77a582896040518363ffffffff1660e01b8152600401808373ffffffffffffffffffffffffffffffffffffffff1673ffffffffffffffffffffffffffffffffffffffff16815260200182815260200192505050600060405180830381600087803b158015612b9757600080fd5b505af1158015612bab573d6000803e3d6000fd5b505050506000612bbb8983612084565b1415612c0e57612c0d600360090160008373ffffffffffffffffffffffffffffffffffffffff1673ffffffffffffffffffffffffffffffffffffffff1681526020019081526020016000208986615889565b5b8773ffffffffffffffffffffffffffffffffffffffff168173ffffffffffffffffffffffffffffffffffffffff167fa06c722f7d446349fdd811f3d539bc91c7b11df8a2f4e012685712a30068f668896040518082815260200191505060405180910390a360019250506001548114612c8657600080fd5b5095945050505050565b606080600360040160000173__AddressSortedLinkedList_______________6369b317e390916040518263ffffffff1660e01b81526004018082815260200191505060006040518083038186803b158015612ceb57600080fd5b505af4158015612cff573d6000803e3d6000fd5b505050506040513d6000823e3d601f19601f820116820180604052506040811015612d2957600080fd5b810190808051640100000000811115612d4157600080fd5b82810190506020810184811115612d5757600080fd5b8151856020820283011164010000000082111715612d7457600080fd5b50509291906020018051640100000000811115612d9057600080fd5b82810190506020810184811115612da657600080fd5b8151856020820283011164010000000082111715612dc357600080fd5b5050929190505050915091509091565b612ddb612fe7565b612de457600080fd5b600073ffffffffffffffffffffffffffffffffffffffff166000809054906101000a900473ffffffffffffffffffffffffffffffffffffffff1673ffffffffffffffffffffffffffffffffffffffff167f8be0079c531659141344cd1fd0a4f28419497f9722a3daafe3b4186f6b6457e060405160405180910390a360008060006101000a81548173ffffffffffffffffffffffffffffffffffffffff021916908373ffffffffffffffffffffffffffffffffffffffff160217905550565b600260019054906101000a900473ffffffffffffffffffffffffffffffffffffffff1681565b60008060008060008060f9611388fa60405160206000823e8051925050508091505090565b6000600360040160000173__AddressSortedLinkedList_______________6302f130289091846040518363ffffffff1660e01b8152600401808381526020018273ffffffffffffffffffffffffffffffffffffffff1673ffffffffffffffffffffffffffffffffffffffff1681526020019250505060206040518083038186803b158015612f7c57600080fd5b505af4158015612f90573d6000803e3d6000fd5b505050506040513d6020811015612fa657600080fd5b81019080805190602001909291905050509050919050565b60008060009054906101000a900473ffffffffffffffffffffffffffffffffffffffff16905090565b60008060009054906101000a900473ffffffffffffffffffffffffffffffffffffffff1673ffffffffffffffffffffffffffffffffffffffff163373ffffffffffffffffffffffffffffffffffffffff1614905090565b6000613063600360000160000154600360020160000154614f7e90919063ffffffff16565b905090565b600080613073613e70565b9050600081438161308057fe5b049050600082438161308e57fe5b06141561309c576001810390505b809250505090565b6000600360000160010160008473ffffffffffffffffffffffffffffffffffffffff1673ffffffffffffffffffffffffffffffffffffffff16815260200190815260200160002060010160008373ffffffffffffffffffffffffffffffffffffffff1673ffffffffffffffffffffffffffffffffffffffff16815260200190815260200160002060000154905092915050565b60006001806000828254019250508190555060006001549050600073ffffffffffffffffffffffffffffffffffffffff168773ffffffffffffffffffffffffffffffffffffffff16141561318a57600080fd5b600061319461468b565b73ffffffffffffffffffffffffffffffffffffffff16636642d594336040518263ffffffff1660e01b8152600401808273ffffffffffffffffffffffffffffffffffffffff1673ffffffffffffffffffffffffffffffffffffffff16815260200191505060206040518083038186803b15801561321057600080fd5b505afa158015613224573d6000803e3d6000fd5b505050506040513d602081101561323a57600080fd5b81019080805190602001909291905050509050866000108015613266575061326288826130a4565b8711155b61326f57600080fd5b61327a888289614786565b613286888888886155c4565b61328e614f9d565b73ffffffffffffffffffffffffffffffffffffffff16636edf77a582896040518363ffffffff1660e01b8152600401808373ffffffffffffffffffffffffffffffffffffffff1673ffffffffffffffffffffffffffffffffffffffff16815260200182815260200192505050600060405180830381600087803b15801561331457600080fd5b505af1158015613328573d6000803e3d6000fd5b5050505060006133388983612084565b141561338b5761338a600360090160008373ffffffffffffffffffffffffffffffffffffffff1673ffffffffffffffffffffffffffffffffffffffff1681526020019081526020016000208986615889565b5b8773ffffffffffffffffffffffffffffffffffffffff168173ffffffffffffffffffffffffffffffffffffffff167fa06c722f7d446349fdd811f3d539bc91c7b11df8a2f4e012685712a30068f668896040518082815260200191505060405180910390a36001925050600154811461340357600080fd5b5095945050505050565b60405160200180807f56616c696461746f727300000000000000000000000000000000000000000000815250600a019050604051602081830303815290604052805190602001203373ffffffffffffffffffffffffffffffffffffffff16600260019054906101000a900473ffffffffffffffffffffffffffffffffffffffff1673ffffffffffffffffffffffffffffffffffffffff1663dcf0aaed836040518263ffffffff1660e01b81526004018082815260200191505060206040518083038186803b1580156134de57600080fd5b505afa1580156134f2573d6000803e3d6000fd5b505050506040513d602081101561350857600080fd5b810190808051906020019092919050505073ffffffffffffffffffffffffffffffffffffffff16146135a2576040517f08c379a00000000000000000000000000000000000000000000000000000000081526004018080602001828103825260188152602001807f6f6e6c79207265676973746572656420636f6e7472616374000000000000000081525060200191505060405180910390fd5b60006135ad85613dc4565b9050600360040160000173__AddressSortedLinkedList_______________632dedbbf09091878488886040518663ffffffff1660e01b8152600401808681526020018573ffffffffffffffffffffffffffffffffffffffff1673ffffffffffffffffffffffffffffffffffffffff1681526020018481526020018373ffffffffffffffffffffffffffffffffffffffff1673ffffffffffffffffffffffffffffffffffffffff1681526020018273ffffffffffffffffffffffffffffffffffffffff1673ffffffffffffffffffffffffffffffffffffffff1681526020019550505050505060006040518083038186803b1580156136ab57600080fd5b505af41580156136bf573d6000803e3d6000fd5b505050507f8f21dc7ff6f55d73e4fca52a4ef4fcc14fbda43ac338d24922519d51455d39c185604051808273ffffffffffffffffffffffffffffffffffffffff1673ffffffffffffffffffffffffffffffffffffffff16815260200191505060405180910390a15050505050565b6060600360040160000173__AddressSortedLinkedList_______________633a72e80290916040518263ffffffff1660e01b81526004018082815260200191505060006040518083038186803b15801561378757600080fd5b505af415801561379b573d6000803e3d6000fd5b505050506040513d6000823e3d601f19601f8201168201806040525060208110156137c557600080fd5b8101908080516401000000008111156137dd57600080fd5b828101905060208101848111156137f357600080fd5b815185602082028301116401000000008211171561381057600080fd5b5050929190505050905090565b60405160200180807f56616c696461746f727300000000000000000000000000000000000000000000815250600a019050604051602081830303815290604052805190602001203373ffffffffffffffffffffffffffffffffffffffff16600260019054906101000a900473ffffffffffffffffffffffffffffffffffffffff1673ffffffffffffffffffffffffffffffffffffffff1663dcf0aaed836040518263ffffffff1660e01b81526004018082815260200191505060206040518083038186803b1580156138ee57600080fd5b505afa158015613902573d6000803e3d6000fd5b505050506040513d602081101561391857600080fd5b810190808051906020019092919050505073ffffffffffffffffffffffffffffffffffffffff16146139b2576040517f08c379a00000000000000000000000000000000000000000000000000000000081526004018080602001828103825260188152602001807f6f6e6c79207265676973746572656420636f6e7472616374000000000000000081525060200191505060405180910390fd5b600360040160000173__AddressSortedLinkedList_______________63281359299091846040518363ffffffff1660e01b8152600401808381526020018273ffffffffffffffffffffffffffffffffffffffff1673ffffffffffffffffffffffffffffffffffffffff1681526020019250505060006040518083038186803b158015613a3e57600080fd5b505af4158015613a52573d6000803e3d6000fd5b505050507f5c8cd4e832f3a7d79f9208c2acf25a412143aa3f751cfd3728c42a0fea4921a882604051808273ffffffffffffffffffffffffffffffffffffffff1673ffffffffffffffffffffffffffffffffffffffff16815260200191505060405180910390a15050565b613ac5612fe7565b613ace57600080fd5b80600260016101000a81548173ffffffffffffffffffffffffffffffffffffffff021916908373ffffffffffffffffffffffffffffffffffffffff1602179055508073ffffffffffffffffffffffffffffffffffffffff167f27fe5f0c1c3b1ed427cc63d0f05759ffdecf9aec9e18d31ef366fc8a6cb5dc3b60405160405180910390a250565b600f5481565b6000613b7c60106040518060200160405290816000820154815250506159c1565b905090565b6000613b8b614ca1565b73ffffffffffffffffffffffffffffffffffffffff1663c54c1cd4846040518263ffffffff1660e01b8152600401808273ffffffffffffffffffffffffffffffffffffffff1673ffffffffffffffffffffffffffffffffffffffff16815260200191505060206040518083038186803b158015613c0757600080fd5b505afa158015613c1b573d6000803e3d6000fd5b505050506040513d6020811015613c3157600080fd5b81019080805190602001909291905050508015613c5657506000600360020160000154115b15613cd757613cd0600360020160000154613cc2600360020160010160008773ffffffffffffffffffffffffffffffffffffffff1673ffffffffffffffffffffffffffffffffffffffff168152602001908152602001600020600001548561509890919063ffffffff16565b6150eb90919063ffffffff16565b9050613cdc565b600090505b92915050565b600080600360020160010160008573ffffffffffffffffffffffffffffffffffffffff1673ffffffffffffffffffffffffffffffffffffffff16815260200190815260200160002090506000613d8682600001548360020160008773ffffffffffffffffffffffffffffffffffffffff1673ffffffffffffffffffffffffffffffffffffffff1681526020019081526020016000205461509890919063ffffffff16565b90506000811415613d9c57600092505050613dbe565b600082600101549050613db881836150eb90919063ffffffff16565b93505050505b92915050565b6000613e69600360020160010160008473ffffffffffffffffffffffffffffffffffffffff1673ffffffffffffffffffffffffffffffffffffffff16815260200190815260200160002060000154600360000160010160008573ffffffffffffffffffffffffffffffffffffffff1673ffffffffffffffffffffffffffffffffffffffff16815260200190815260200160002060000154614f7e90919063ffffffff16565b9050919050565b60008060405160008060008360f86103e8fa60206000602084013e6020820151925050508091505090565b600080613eb983613eab86613dc4565b614f7e90919063ffffffff16565b90506000613f65613f56600d60010154613ed1614ca1565b73ffffffffffffffffffffffffffffffffffffffff1663517f6d336040518163ffffffff1660e01b815260040160206040518083038186803b158015613f1657600080fd5b505afa158015613f2a573d6000803e3d6000fd5b505050506040513d6020811015613f4057600080fd5b81019080805190602001909291905050506150d2565b8361509890919063ffffffff16565b905060006140d4613f74614f9d565b73ffffffffffffffffffffffffffffffffffffffff166330a61d596040518163ffffffff1660e01b815260040160206040518083038186803b158015613fb957600080fd5b505afa158015613fcd573d6000803e3d6000fd5b505050506040513d6020811015613fe357600080fd5b81019080805190602001909291905050506140c66001614001614ca1565b73ffffffffffffffffffffffffffffffffffffffff166339e618e88b6040518263ffffffff1660e01b8152600401808273ffffffffffffffffffffffffffffffffffffffff1673ffffffffffffffffffffffffffffffffffffffff16815260200191505060206040518083038186803b15801561407d57600080fd5b505afa158015614091573d6000803e3d6000fd5b505050506040513d60208110156140a757600080fd5b8101908080519060200190929190505050614f7e90919063ffffffff16565b61509890919063ffffffff16565b905080821115935050505092915050565b600080600087141580156140fa575060008514155b61410357600080fd5b6000806040513681016040528a81528960208201528860408201528760608201528660808201528560a082015260008060c48360fc61041afa3d604051818101604052816000823e8260008114614164578151965060208201519550614168565b8282fd5b50505050508181935093505050965096945050505050565b614188612fe7565b61419157600080fd5b61419a816159cf565b50565b60006141a7612fe7565b6141b057600080fd5b8260001080156141c05750818311155b6141c957600080fd5b600d60000154831415806141e25750600d600101548214155b6141eb57600080fd5b604051806040016040528084815260200183815250600d60008201518160000155602082015181600101559050507fb3ae64819ff89f6136eb58b8563cb32c6550f17eaf97f9ecc32f23783229f6de8383604051808381526020018281526020019250505060405180910390a16001905092915050565b600260009054906101000a900460ff161561427c57600080fd5b6001600260006101000a81548160ff0219169083151502179055506142a0336159cf565b6142a985613abd565b6142b3848461419d565b506142bd826120be565b506142c781612792565b505050505050565b600d8060000154908060010154905082565b600080600d60000154600d60010154915091509091565b600360040160000173__AddressSortedLinkedList_______________6302f130289091866040518363ffffffff1660e01b8152600401808381526020018273ffffffffffffffffffffffffffffffffffffffff1673ffffffffffffffffffffffffffffffffffffffff1681526020019250505060206040518083038186803b15801561438457600080fd5b505af4158015614398573d6000803e3d6000fd5b505050506040513d60208110156143ae57600080fd5b8101908080519060200190929190505050156145b757600061449f84600360040160000173__AddressSortedLinkedList_______________63e0fe44b39091896040518363ffffffff1660e01b8152600401808381526020018273ffffffffffffffffffffffffffffffffffffffff1673ffffffffffffffffffffffffffffffffffffffff1681526020019250505060206040518083038186803b15801561445657600080fd5b505af415801561446a573d6000803e3d6000fd5b505050506040513d602081101561448057600080fd5b8101908080519060200190929190505050614f7e90919063ffffffff16565b9050600360040160000173__AddressSortedLinkedList_______________63cab455ae9091878487876040518663ffffffff1660e01b8152600401808681526020018573ffffffffffffffffffffffffffffffffffffffff1673ffffffffffffffffffffffffffffffffffffffff1681526020018481526020018373ffffffffffffffffffffffffffffffffffffffff1673ffffffffffffffffffffffffffffffffffffffff1681526020018273ffffffffffffffffffffffffffffffffffffffff1673ffffffffffffffffffffffffffffffffffffffff1681526020019550505050505060006040518083038186803b15801561459d57600080fd5b505af41580156145b1573d6000803e3d6000fd5b50505050505b61461283600360020160010160008773ffffffffffffffffffffffffffffffffffffffff1673ffffffffffffffffffffffffffffffffffffffff16815260200190815260200160002060000154614f7e90919063ffffffff16565b600360020160010160008673ffffffffffffffffffffffffffffffffffffffff1673ffffffffffffffffffffffffffffffffffffffff1681526020019081526020016000206000018190555061467983600360020160000154614f7e90919063ffffffff16565b60036002016000018190555050505050565b6000600260019054906101000a900473ffffffffffffffffffffffffffffffffffffffff1673ffffffffffffffffffffffffffffffffffffffff1663dcf0aaed60405160200180807f4163636f756e74730000000000000000000000000000000000000000000000008152506008019050604051602081830303815290604052805190602001206040518263ffffffff1660e01b81526004018082815260200191505060206040518083038186803b15801561474657600080fd5b505afa15801561475a573d6000803e3d6000fd5b505050506040513d602081101561477057600080fd5b8101908080519060200190929190505050905090565b6000600360000190506147a6828260000154615ac790919063ffffffff16565b816000018190555060008160010160008673ffffffffffffffffffffffffffffffffffffffff1673ffffffffffffffffffffffffffffffffffffffff168152602001908152602001600020905061480a838260000154615ac790919063ffffffff16565b816000018190555060008160010160008673ffffffffffffffffffffffffffffffffffffffff1673ffffffffffffffffffffffffffffffffffffffff168152602001908152602001600020905061486e848260000154615ac790919063ffffffff16565b816000018190555060008160000154141561488e57600081600101819055505b505050505050565b6000600360020190506148b6828260000154614f7e90919063ffffffff16565b816000018190555060006148ca8584615ae7565b905060008260010160008773ffffffffffffffffffffffffffffffffffffffff1673ffffffffffffffffffffffffffffffffffffffff1681526020019081526020016000209050614928848260000154614f7e90919063ffffffff16565b8160000181905550614947828260010154614f7e90919063ffffffff16565b81600101819055506149a3828260020160008873ffffffffffffffffffffffffffffffffffffffff1673ffffffffffffffffffffffffffffffffffffffff16815260200190815260200160002054614f7e90919063ffffffff16565b8160020160008773ffffffffffffffffffffffffffffffffffffffff1673ffffffffffffffffffffffffffffffffffffffff16815260200190815260200160002081905550505050505050565b6149f8615d6b565b614a00615bff565b821115614a0c57600080fd5b604051806020016040528069d3c21bcecceda100000084028152509050919050565b614a36615d6b565b600083600001511480614a4d575060008260000151145b15614a6957604051806020016040528060008152509050614c7a565b69d3c21bcecceda100000082600001511415614a8757829050614c7a565b69d3c21bcecceda100000083600001511415614aa557819050614c7a565b600069d3c21bcecceda1000000614abb85615c1e565b6000015181614ac657fe5b0490506000614ad485615c55565b600001519050600069d3c21bcecceda1000000614af086615c1e565b6000015181614afb57fe5b0490506000614b0986615c55565b6000015190506000828502905060008514614b345782858281614b2857fe5b0414614b3357600080fd5b5b600069d3c21bcecceda10000008202905060008214614b6d5769d3c21bcecceda1000000828281614b6157fe5b0414614b6c57600080fd5b5b8091506000848602905060008614614b955784868281614b8957fe5b0414614b9457600080fd5b5b6000848802905060008814614bba5784888281614bae57fe5b0414614bb957600080fd5b5b614bc2615c92565b8781614bca57fe5b049650614bd5615c92565b8581614bdd57fe5b0494506000858802905060008814614c055785888281614bf957fe5b0414614c0457600080fd5b5b614c0d615d6b565b6040518060200160405280878152509050614c3681604051806020016040528087815250615c9f565b9050614c5081604051806020016040528086815250615c9f565b9050614c6a81604051806020016040528085815250615c9f565b9050809a50505050505050505050505b92915050565b600069d3c21bcecceda1000000826000015181614c9957fe5b049050919050565b6000600260019054906101000a900473ffffffffffffffffffffffffffffffffffffffff1673ffffffffffffffffffffffffffffffffffffffff1663dcf0aaed60405160200180807f56616c696461746f727300000000000000000000000000000000000000000000815250600a019050604051602081830303815290604052805190602001206040518263ffffffff1660e01b81526004018082815260200191505060206040518083038186803b158015614d5c57600080fd5b505afa158015614d70573d6000803e3d6000fd5b505050506040513d6020811015614d8657600080fd5b8101908080519060200190929190505050905090565b60008060008090506000809050614db1615d6b565b614dbb6000615411565b905060008090505b8851811015614f6c576000898281518110614dda57fe5b60200260200101519050878281518110614df057fe5b6020026020010151898381518110614e0457fe5b60200260200101511115614f5057614e1a615d6b565b614f29614e4c614e4760018c8781518110614e3157fe5b6020026020010151614f7e90919063ffffffff16565b6149f0565b614f1b600360040160000173__AddressSortedLinkedList_______________63e0fe44b39091876040518363ffffffff1660e01b8152600401808381526020018273ffffffffffffffffffffffffffffffffffffffff1673ffffffffffffffffffffffffffffffffffffffff1681526020019250505060206040518083038186803b158015614edb57600080fd5b505af4158015614eef573d6000803e3d6000fd5b505050506040513d6020811015614f0557600080fd5b81019080805190602001909291905050506149f0565b615cdf90919063ffffffff16565b9050614f3e8482615d5690919063ffffffff16565b15614f4e57809350829450600195505b505b50614f65600182614f7e90919063ffffffff16565b9050614dc3565b50818394509450505050935093915050565b600080828401905083811015614f9357600080fd5b8091505092915050565b6000600260019054906101000a900473ffffffffffffffffffffffffffffffffffffffff1673ffffffffffffffffffffffffffffffffffffffff1663dcf0aaed60405160200180807f4c6f636b6564476f6c6400000000000000000000000000000000000000000000815250600a019050604051602081830303815290604052805190602001206040518263ffffffff1660e01b81526004018082815260200191505060206040518083038186803b15801561505857600080fd5b505afa15801561506c573d6000803e3d6000fd5b505050506040513d602081101561508257600080fd5b8101908080519060200190929190505050905090565b6000808314156150ab57600090506150cc565b60008284029050828482816150bc57fe5b04146150c757600080fd5b809150505b92915050565b60008183106150e157816150e3565b825b905092915050565b60008082116150f957600080fd5b600082848161510457fe5b0490508091505092915050565b600060036000019050615131828260000154614f7e90919063ffffffff16565b816000018190555060008160010160008673ffffffffffffffffffffffffffffffffffffffff1673ffffffffffffffffffffffffffffffffffffffff1681526020019081526020016000209050615195838260000154614f7e90919063ffffffff16565b816000018190555060008160010160008673ffffffffffffffffffffffffffffffffffffffff1673ffffffffffffffffffffffffffffffffffffffff16815260200190815260200160002090506151f9848260000154614f7e90919063ffffffff16565b8160000181905550615209613068565b8160010181905550505050505050565b60006152f484600360040160000173__AddressSortedLinkedList_______________63e0fe44b39091896040518363ffffffff1660e01b8152600401808381526020018273ffffffffffffffffffffffffffffffffffffffff1673ffffffffffffffffffffffffffffffffffffffff1681526020019250505060206040518083038186803b1580156152ab57600080fd5b505af41580156152bf573d6000803e3d6000fd5b505050506040513d60208110156152d557600080fd5b8101908080519060200190929190505050614f7e90919063ffffffff16565b9050600360040160000173__AddressSortedLinkedList_______________63cab455ae9091878487876040518663ffffffff1660e01b8152600401808681526020018573ffffffffffffffffffffffffffffffffffffffff1673ffffffffffffffffffffffffffffffffffffffff1681526020018481526020018373ffffffffffffffffffffffffffffffffffffffff1673ffffffffffffffffffffffffffffffffffffffff1681526020018273ffffffffffffffffffffffffffffffffffffffff1673ffffffffffffffffffffffffffffffffffffffff1681526020019550505050505060006040518083038186803b1580156153f257600080fd5b505af4158015615406573d6000803e3d6000fd5b505050505050505050565b615419615d6b565b6040518060200160405280838152509050919050565b615437615d6b565b604051806020016040528069d3c21bcecceda1000000815250905090565b60008160000151836000015110905092915050565b60006003600201905061548a828260000154615ac790919063ffffffff16565b8160000181905550600061549e8584615ae7565b905060008260010160008773ffffffffffffffffffffffffffffffffffffffff1673ffffffffffffffffffffffffffffffffffffffff16815260200190815260200160002090506154fc848260000154615ac790919063ffffffff16565b816000018190555061551b828260010154615ac790919063ffffffff16565b8160010181905550615577828260020160008873ffffffffffffffffffffffffffffffffffffffff1673ffffffffffffffffffffffffffffffffffffffff16815260200190815260200160002054615ac790919063ffffffff16565b8160020160008773ffffffffffffffffffffffffffffffffffffffff1673ffffffffffffffffffffffffffffffffffffffff16815260200190815260200160002081905550505050505050565b600360040160000173__AddressSortedLinkedList_______________6302f130289091866040518363ffffffff1660e01b8152600401808381526020018273ffffffffffffffffffffffffffffffffffffffff1673ffffffffffffffffffffffffffffffffffffffff1681526020019250505060206040518083038186803b15801561565057600080fd5b505af4158015615664573d6000803e3d6000fd5b505050506040513d602081101561567a57600080fd5b81019080805190602001909291905050501561588357600061576b84600360040160000173__AddressSortedLinkedList_______________63e0fe44b39091896040518363ffffffff1660e01b8152600401808381526020018273ffffffffffffffffffffffffffffffffffffffff1673ffffffffffffffffffffffffffffffffffffffff1681526020019250505060206040518083038186803b15801561572257600080fd5b505af4158015615736573d6000803e3d6000fd5b505050506040513d602081101561574c57600080fd5b8101908080519060200190929190505050615ac790919063ffffffff16565b9050600360040160000173__AddressSortedLinkedList_______________63cab455ae9091878487876040518663ffffffff1660e01b8152600401808681526020018573ffffffffffffffffffffffffffffffffffffffff1673ffffffffffffffffffffffffffffffffffffffff1681526020018481526020018373ffffffffffffffffffffffffffffffffffffffff1673ffffffffffffffffffffffffffffffffffffffff1681526020018273ffffffffffffffffffffffffffffffffffffffff1673ffffffffffffffffffffffffffffffffffffffff1681526020019550505050505060006040518083038186803b15801561586957600080fd5b505af415801561587d573d6000803e3d6000fd5b50505050505b50505050565b8280549050811080156158fd57508173ffffffffffffffffffffffffffffffffffffffff168382815481106158ba57fe5b9060005260206000200160009054906101000a900473ffffffffffffffffffffffffffffffffffffffff1673ffffffffffffffffffffffffffffffffffffffff16145b61590657600080fd5b600061592060018580549050615ac790919063ffffffff16565b905083818154811061592e57fe5b9060005260206000200160009054906101000a900473ffffffffffffffffffffffffffffffffffffffff1684838154811061596557fe5b9060005260206000200160006101000a81548173ffffffffffffffffffffffffffffffffffffffff021916908373ffffffffffffffffffffffffffffffffffffffff1602179055508084816159ba9190615d7e565b5050505050565b600081600001519050919050565b600073ffffffffffffffffffffffffffffffffffffffff168173ffffffffffffffffffffffffffffffffffffffff161415615a0957600080fd5b8073ffffffffffffffffffffffffffffffffffffffff166000809054906101000a900473ffffffffffffffffffffffffffffffffffffffff1673ffffffffffffffffffffffffffffffffffffffff167f8be0079c531659141344cd1fd0a4f28419497f9722a3daafe3b4186f6b6457e060405160405180910390a3806000806101000a81548173ffffffffffffffffffffffffffffffffffffffff021916908373ffffffffffffffffffffffffffffffffffffffff16021790555050565b600082821115615ad657600080fd5b600082840390508091505092915050565b600080600360020160010160008573ffffffffffffffffffffffffffffffffffffffff1673ffffffffffffffffffffffffffffffffffffffff168152602001908152602001600020600001541415615b4157819050615bf9565b615bf6600360020160010160008573ffffffffffffffffffffffffffffffffffffffff1673ffffffffffffffffffffffffffffffffffffffff16815260200190815260200160002060000154615be8600360020160010160008773ffffffffffffffffffffffffffffffffffffffff1673ffffffffffffffffffffffffffffffffffffffff168152602001908152602001600020600101548561509890919063ffffffff16565b6150eb90919063ffffffff16565b90505b92915050565b60007601357c299a88ea76a58924d52ce4f26a85af186c2b9e74905090565b615c26615d6b565b604051806020016040528069d3c21bcecceda100000080856000015181615c4957fe5b04028152509050919050565b615c5d615d6b565b604051806020016040528069d3c21bcecceda100000080856000015181615c8057fe5b04028460000151038152509050919050565b600064e8d4a51000905090565b615ca7615d6b565b6000826000015184600001510190508360000151811015615cc757600080fd5b60405180602001604052808281525091505092915050565b615ce7615d6b565b600082600001511415615cf957600080fd5b600069d3c21bcecceda10000008460000151029050836000015169d3c21bcecceda10000008281615d2657fe5b0414615d3157600080fd5b604051806020016040528084600001518381615d4957fe5b0481525091505092915050565b60008160000151836000015111905092915050565b6040518060200160405280600081525090565b815481835581811115615da557818360005260206000209182019101615da49190615daa565b5b505050565b615dcc91905b80821115615dc8576000816000905550600101615db0565b5090565b9056fe456c6563746162696c697479207468726573686f6c64206d757374206265206c6f776572207468616e2031303025a165627a7a7230582028950575032d553e5a247ddeffaa3b5fddf2584aeed6dc17732e6ffaa86e45bc0029",
  "source": "pragma solidity ^0.5.8;\n\nimport \"../Election.sol\";\nimport \"../../common/FixidityLib.sol\";\n\n/**\n * @title A wrapper around Election that exposes onlyVm functions for testing.\n */\ncontract ElectionTest is Election {\n  function distributeEpochRewards(address group, uint256 value, address lesser, address greater)\n    external\n  {\n    return _distributeEpochRewards(group, value, lesser, greater);\n  }\n}\n",
  "sourcePath": "/Users/cmcewen/celo/celo-monorepo/packages/protocol/contracts/governance/test/ElectionTest.sol",
  "compiler": {
    "name": "solc",
    "version": "0.5.8+commit.23d335f2.Emscripten.clang"
  },
  "schemaVersion": "3.0.10",
  "updatedAt": "2019-12-06T00:02:50.167Z",
  "devdoc": {
    "methods": {
      "activate(address)": {
        "details": "Pending votes cannot be activated until an election has been held.",
        "params": {
          "group": "The validator group to vote for."
        },
        "return": "True upon success."
      },
      "canReceiveVotes(address,uint256)": {
        "details": "Votes are not allowed to be cast that would increase a group's proportion of locked gold  voting for it to greater than  (numGroupMembers + 1) / min(maxElectableValidators, numRegisteredValidators)Note that groups may still receive additional votes via rewards even if this function  returns false.",
        "params": {
          "group": "The address of the group.",
          "value": "The number of votes."
        },
        "return": "Whether or not a group can receive the specified number of votes."
      },
      "checkProofOfPossession(address,bytes,bytes)": {
        "params": {
          "blsKey": "The BLS public key that the validator is using for consensus, should pass proof  of possession. 48 bytes.",
          "blsPop": "The BLS public key proof-of-possession, which consists of a signature on the  account address. 96 bytes.",
          "sender": "The address signed by the BLS key to generate the proof of possession."
        },
        "return": "True upon success."
      },
      "electValidatorSigners()": {
        "details": "See https://en.wikipedia.org/wiki/D%27Hondt_method#Allocation for more information.",
        "return": "The list of elected validators."
      },
      "fractionMulExp(uint256,uint256,uint256,uint256,uint256,uint256)": {
        "params": {
          "_decimals": "precision",
          "aDenominator": "Denominator of first fraction",
          "aNumerator": "Numerator of first fraction",
          "bDenominator": "Denominator of exponentiated fraction",
          "bNumerator": "Numerator of exponentiated fraction",
          "exponent": "exponent to raise b to"
        },
        "return": "numerator/denominator of the computed quantity (not reduced)."
      },
      "getActiveVotes()": {
        "return": "The active votes received across all groups."
      },
      "getActiveVotesForGroupByAccount(address,address)": {
        "params": {
          "account": "The address of the voting account.",
          "group": "The address of the validator group."
        },
        "return": "The active votes for `group` made by `account`."
      },
      "getCurrentValidatorSigners()": {
        "return": "List of current validator signers."
      },
      "getElectabilityThreshold()": {
        "return": "Threshold value as unwrapped fraction."
      },
      "getElectableValidators()": {
        "return": "The minimum and maximum number of validators that can be elected."
      },
      "getEligibleValidatorGroups()": {
        "return": "The list of validator groups eligible to elect validators."
      },
      "getEpochSize()": {
        "return": "The current epoch size in blocks."
      },
      "getGroupEligibility(address)": {
        "details": "Eligible groups that have received their maximum number of votes cannot receive more.",
        "return": "Whether or not a group is eligible to receive votes."
      },
      "getGroupEpochRewards(address,uint256)": {
        "details": "Eligible groups that have received their maximum number of votes cannot receive more.",
        "params": {
          "group": "The group to calculate epoch rewards for.",
          "totalEpochRewards": "The total amount of rewards going to all voters."
        },
        "return": "The amount of rewards that voters for `group` are due at the end of an epoch."
      },
      "getGroupsVotedForByAccount(address)": {
        "params": {
          "account": "The address of the account casting votes."
        },
        "return": "The groups that `account` has voted for."
      },
      "getNumVotesReceivable(address)": {
        "details": "Votes are not allowed to be cast that would increase a group's proportion of locked gold  voting for it to greater than  (numGroupMembers + 1) / min(maxElectableValidators, numRegisteredValidators)Note that a group's vote total may exceed this number through rewards or config changes.",
        "params": {
          "group": "The address of the group."
        },
        "return": "The number of votes that a group can receive."
      },
      "getPendingVotesForGroupByAccount(address,address)": {
        "params": {
          "account": "The address of the voting account.",
          "group": "The address of the validator group."
        },
        "return": "The pending votes for `group` made by `account`."
      },
      "getTotalVotes()": {
        "return": "The total votes received across all groups."
      },
      "getTotalVotesByAccount(address)": {
        "params": {
          "account": "The address of the account."
        },
        "return": "The total number of votes cast by an account."
      },
      "getTotalVotesForEligibleValidatorGroups()": {
        "return": "Lists of all validator groups and the number of votes they've received."
      },
      "getTotalVotesForGroup(address)": {
        "params": {
          "group": "The address of the validator group."
        },
        "return": "The total votes made for `group`."
      },
      "getTotalVotesForGroupByAccount(address,address)": {
        "params": {
          "account": "The address of the voting account.",
          "group": "The address of the validator group."
        },
        "return": "The total votes for `group` made by `account`."
      },
      "hasActivatablePendingVotes(address,address)": {
        "details": "Pending votes cannot be activated until an election has been held.",
        "params": {
          "account": "The account with pending votes.",
          "group": "The validator group that `account` has pending votes for."
        },
        "return": "Whether or not `account` has activatable votes for `group`."
      },
      "initialize(address,uint256,uint256,uint256,uint256)": {
        "details": "Should be called only once.",
        "params": {
          "_electabilityThreshold": "The minimum ratio of votes a group needs before its members can  be elected.",
          "_maxNumGroupsVotedFor": "The maximum number of groups that an acconut can vote for at once.",
          "minElectableValidators": "The minimum number of validators that can be elected.",
          "registryAddress": "The address of the registry contract."
        }
      },
      "isOwner()": {
        "return": "true if `msg.sender` is the owner of the contract."
      },
      "markGroupEligible(address,address,address)": {
        "params": {
          "greater": "The address of the group that has received more votes than this group.",
          "group": "The address of the validator group.",
          "lesser": "The address of the group that has received fewer votes than this group."
        }
      },
      "markGroupIneligible(address)": {
        "details": "Can only be called by the registered \"Validators\" contract.",
        "params": {
          "group": "The address of the validator group."
        }
      },
      "numberValidatorsInCurrentSet()": {
        "return": "Size of the current elected validator set."
      },
      "owner()": {
        "return": "the address of the owner."
      },
      "renounceOwnership()": {
        "details": "Allows the current owner to relinquish control of the contract. It will not be possible to call the functions with the `onlyOwner` modifier anymore."
      },
      "revokeActive(address,uint256,address,address,uint256)": {
        "details": "Fails if the account has not voted on a validator group.",
        "params": {
          "greater": "The group receiving more votes than the group for which the vote was revoked,  or 0 if that group has the most votes of any validator group.",
          "group": "The validator group to revoke votes from.",
          "index": "The index of the group in the account's voting list.",
          "lesser": "The group receiving fewer votes than the group for which the vote was revoked,  or 0 if that group has the fewest votes of any validator group.",
          "value": "The number of votes to revoke."
        },
        "return": "True upon success."
      },
      "revokePending(address,uint256,address,address,uint256)": {
        "details": "Fails if the account has not voted on a validator group.",
        "params": {
          "greater": "The group receiving more votes than the group for which the vote was revoked,  or 0 if that group has the most votes of any validator group.",
          "group": "The validator group to revoke votes from.",
          "index": "The index of the group in the account's voting list.",
          "lesser": "The group receiving fewer votes than the group for which the vote was revoked,  or 0 if that group has the fewest votes of any validator group.",
          "value": "The number of votes to revoke."
        },
        "return": "True upon success."
      },
      "setElectabilityThreshold(uint256)": {
        "params": {
          "threshold": "Electability threshold as unwrapped Fraction."
        },
        "return": "True upon success."
      },
      "setElectableValidators(uint256,uint256)": {
        "params": {
          "max": "The maximum number of validators that can be elected.",
          "min": "The minimum number of validators that can be elected."
        },
        "return": "True upon success."
      },
      "setMaxNumGroupsVotedFor(uint256)": {
        "params": {
          "_maxNumGroupsVotedFor": "The maximum number of groups an account can vote for."
        },
        "return": "True upon success."
      },
      "setRegistry(address)": {
        "params": {
          "registryAddress": "The address of a registry contract for routing to other contracts."
        }
      },
      "transferOwnership(address)": {
        "details": "Allows the current owner to transfer control of the contract to a newOwner.",
        "params": {
          "newOwner": "The address to transfer ownership to."
        }
      },
      "validatorAddressFromCurrentSet(uint256)": {
        "params": {
          "index": "Index of requested validator in the validator set as sorted by the election."
        },
        "return": "Address of validator at the requested index."
      },
      "vote(address,uint256,address,address)": {
        "details": "Fails if `group` is empty or not a validator group.",
        "params": {
          "greater": "The group receiving more votes than `group`, or 0 if `group` has the  most votes of any validator group.",
          "group": "The validator group to vote for.",
          "lesser": "The group receiving fewer votes than `group`, or 0 if `group` has the  fewest votes of any validator group.",
          "value": "The amount of gold to use to vote."
        },
        "return": "True upon success."
      }
    },
    "title": "A wrapper around Election that exposes onlyVm functions for testing."
  },
  "userdoc": {
    "methods": {
      "activate(address)": {
        "notice": "Converts `account`'s pending votes for `group` to active votes."
      },
      "canReceiveVotes(address,uint256)": {
        "notice": "Returns whether or not a group can receive the specified number of votes."
      },
      "checkProofOfPossession(address,bytes,bytes)": {
        "notice": "Checks a BLS proof of possession."
      },
      "electValidatorSigners()": {
        "notice": "Returns a list of elected validators with seats allocated to groups via the D'Hondt  method."
      },
      "fractionMulExp(uint256,uint256,uint256,uint256,uint256,uint256)": {
        "notice": "calculate a * b^x for fractions a, b to `decimals` precision"
      },
      "getActiveVotes()": {
        "notice": "Returns the active votes received across all groups."
      },
      "getActiveVotesForGroupByAccount(address,address)": {
        "notice": "Returns the active votes for `group` made by `account`."
      },
      "getCurrentValidatorSigners()": {
        "notice": "Returns get current validator signers using the precompiles."
      },
      "getElectabilityThreshold()": {
        "notice": "Gets the election threshold."
      },
      "getElectableValidators()": {
        "notice": "Returns the minimum and maximum number of validators that can be elected."
      },
      "getEligibleValidatorGroups()": {
        "notice": "Returns the list of validator groups eligible to elect validators."
      },
      "getEpochSize()": {
        "notice": "Returns the current epoch size in blocks."
      },
      "getGroupEligibility(address)": {
        "notice": "Returns whether or not a group is eligible to receive votes."
      },
      "getGroupEpochRewards(address,uint256)": {
        "notice": "Returns the amount of rewards that voters for `group` are due at the end of an epoch."
      },
      "getGroupsVotedForByAccount(address)": {
        "notice": "Returns the groups that `account` has voted for."
      },
      "getNumVotesReceivable(address)": {
        "notice": "Returns the number of votes that a group can receive."
      },
      "getPendingVotesForGroupByAccount(address,address)": {
        "notice": "Returns the pending votes for `group` made by `account`."
      },
      "getTotalVotes()": {
        "notice": "Returns the total votes received across all groups."
      },
      "getTotalVotesByAccount(address)": {
        "notice": "Returns the total number of votes cast by an account."
      },
      "getTotalVotesForEligibleValidatorGroups()": {
        "notice": "Returns lists of all validator groups and the number of votes they've received."
      },
      "getTotalVotesForGroup(address)": {
        "notice": "Returns the total votes made for `group`."
      },
      "getTotalVotesForGroupByAccount(address,address)": {
        "notice": "Returns the total votes for `group` made by `account`."
      },
      "hasActivatablePendingVotes(address,address)": {
        "notice": "Returns whether or not an account's votes for the specified group can be activated."
      },
      "initialize(address,uint256,uint256,uint256,uint256)": {
        "notice": "Initializes critical variables."
      },
      "markGroupEligible(address,address,address)": {
        "notice": "Marks a group eligible for electing validators."
      },
      "markGroupIneligible(address)": {
        "notice": "Marks a group ineligible for electing validators."
      },
      "numberValidatorsInCurrentSet()": {
        "notice": "Gets the size of the current elected validator set."
      },
      "renounceOwnership()": {
        "notice": "Renouncing ownership will leave the contract without an owner, thereby removing any functionality that is only available to the owner."
      },
      "revokeActive(address,uint256,address,address,uint256)": {
        "notice": "Revokes `value` active votes for `group`"
      },
      "revokePending(address,uint256,address,address,uint256)": {
        "notice": "Revokes `value` pending votes for `group`"
      },
      "setElectabilityThreshold(uint256)": {
        "notice": "Sets the electability threshold."
      },
      "setElectableValidators(uint256,uint256)": {
        "notice": "Updates the minimum and maximum number of validators that can be elected."
      },
      "setMaxNumGroupsVotedFor(uint256)": {
        "notice": "Updates the maximum number of groups an account can be voting for at once."
      },
      "setRegistry(address)": {
        "notice": "Updates the address pointing to a Registry contract."
      },
      "validatorAddressFromCurrentSet(uint256)": {
        "notice": "Gets a validator address from the current validator set."
      },
      "vote(address,uint256,address,address)": {
        "notice": "Increments the number of total and pending votes for `group`."
      }
    }
  }
}