{
  "contractName": "EpochRewards",
  "abi": [
    {
      "constant": true,
      "inputs": [
        {
          "name": "index",
          "type": "uint256"
        }
      ],
      "name": "validatorAddressFromCurrentSet",
      "outputs": [
        {
          "name": "",
          "type": "address"
        }
      ],
      "payable": false,
      "stateMutability": "view",
      "type": "function"
    },
    {
      "constant": true,
      "inputs": [],
      "name": "initialized",
      "outputs": [
        {
          "name": "",
          "type": "bool"
        }
      ],
      "payable": false,
      "stateMutability": "view",
      "type": "function"
    },
    {
      "constant": false,
      "inputs": [
        {
          "name": "sender",
          "type": "address"
        },
        {
          "name": "blsKey",
          "type": "bytes"
        },
        {
          "name": "blsPop",
          "type": "bytes"
        }
      ],
      "name": "checkProofOfPossession",
      "outputs": [
        {
          "name": "",
          "type": "bool"
        }
      ],
      "payable": false,
      "stateMutability": "nonpayable",
      "type": "function"
    },
    {
      "constant": false,
      "inputs": [],
      "name": "renounceOwnership",
      "outputs": [],
      "payable": false,
      "stateMutability": "nonpayable",
      "type": "function"
    },
    {
      "constant": true,
      "inputs": [],
      "name": "startTime",
      "outputs": [
        {
          "name": "",
          "type": "uint256"
        }
      ],
      "payable": false,
      "stateMutability": "view",
      "type": "function"
    },
    {
      "constant": true,
      "inputs": [],
      "name": "registry",
      "outputs": [
        {
          "name": "",
          "type": "address"
        }
      ],
      "payable": false,
      "stateMutability": "view",
      "type": "function"
    },
    {
      "constant": true,
      "inputs": [],
      "name": "numberValidatorsInCurrentSet",
      "outputs": [
        {
          "name": "",
          "type": "uint256"
        }
      ],
      "payable": false,
      "stateMutability": "view",
      "type": "function"
    },
    {
      "constant": true,
      "inputs": [],
      "name": "owner",
      "outputs": [
        {
          "name": "",
          "type": "address"
        }
      ],
      "payable": false,
      "stateMutability": "view",
      "type": "function"
    },
    {
      "constant": true,
      "inputs": [],
      "name": "isOwner",
      "outputs": [
        {
          "name": "",
          "type": "bool"
        }
      ],
      "payable": false,
      "stateMutability": "view",
      "type": "function"
    },
    {
      "constant": true,
      "inputs": [],
      "name": "getEpochNumber",
      "outputs": [
        {
          "name": "",
          "type": "uint256"
        }
      ],
      "payable": false,
      "stateMutability": "view",
      "type": "function"
    },
    {
      "constant": false,
      "inputs": [
        {
          "name": "registryAddress",
          "type": "address"
        }
      ],
      "name": "setRegistry",
      "outputs": [],
      "payable": false,
      "stateMutability": "nonpayable",
      "type": "function"
    },
    {
      "constant": true,
      "inputs": [],
      "name": "getEpochSize",
      "outputs": [
        {
          "name": "",
          "type": "uint256"
        }
      ],
      "payable": false,
      "stateMutability": "view",
      "type": "function"
    },
    {
      "constant": true,
      "inputs": [],
      "name": "targetValidatorEpochPayment",
      "outputs": [
        {
          "name": "",
          "type": "uint256"
        }
      ],
      "payable": false,
      "stateMutability": "view",
      "type": "function"
    },
    {
      "constant": true,
      "inputs": [
        {
          "name": "aNumerator",
          "type": "uint256"
        },
        {
          "name": "aDenominator",
          "type": "uint256"
        },
        {
          "name": "bNumerator",
          "type": "uint256"
        },
        {
          "name": "bDenominator",
          "type": "uint256"
        },
        {
          "name": "exponent",
          "type": "uint256"
        },
        {
          "name": "_decimals",
          "type": "uint256"
        }
      ],
      "name": "fractionMulExp",
      "outputs": [
        {
          "name": "",
          "type": "uint256"
        },
        {
          "name": "",
          "type": "uint256"
        }
      ],
      "payable": false,
      "stateMutability": "view",
      "type": "function"
    },
    {
      "constant": false,
      "inputs": [
        {
          "name": "newOwner",
          "type": "address"
        }
      ],
      "name": "transferOwnership",
      "outputs": [],
      "payable": false,
      "stateMutability": "nonpayable",
      "type": "function"
    },
    {
      "anonymous": false,
      "inputs": [
        {
          "indexed": false,
          "name": "fraction",
          "type": "uint256"
        }
      ],
      "name": "TargetVotingGoldFractionSet",
      "type": "event"
    },
    {
      "anonymous": false,
      "inputs": [
        {
          "indexed": false,
          "name": "payment",
          "type": "uint256"
        }
      ],
      "name": "TargetValidatorEpochPaymentSet",
      "type": "event"
    },
    {
      "anonymous": false,
      "inputs": [
        {
          "indexed": false,
          "name": "max",
          "type": "uint256"
        },
        {
          "indexed": false,
          "name": "adjustmentFactor",
          "type": "uint256"
        }
      ],
      "name": "TargetVotingYieldParametersSet",
      "type": "event"
    },
    {
      "anonymous": false,
      "inputs": [
        {
          "indexed": false,
          "name": "max",
          "type": "uint256"
        },
        {
          "indexed": false,
          "name": "underspendAdjustmentFactor",
          "type": "uint256"
        },
        {
          "indexed": false,
          "name": "overspendAdjustmentFactor",
          "type": "uint256"
        }
      ],
      "name": "RewardsMultiplierParametersSet",
      "type": "event"
    },
    {
      "anonymous": false,
      "inputs": [
        {
          "indexed": true,
          "name": "registryAddress",
          "type": "address"
        }
      ],
      "name": "RegistrySet",
      "type": "event"
    },
    {
      "anonymous": false,
      "inputs": [
        {
          "indexed": true,
          "name": "previousOwner",
          "type": "address"
        },
        {
          "indexed": true,
          "name": "newOwner",
          "type": "address"
        }
      ],
      "name": "OwnershipTransferred",
      "type": "event"
    },
    {
      "constant": false,
      "inputs": [
        {
          "name": "registryAddress",
          "type": "address"
        },
        {
          "name": "targetVotingYieldInitial",
          "type": "uint256"
        },
        {
          "name": "targetVotingYieldMax",
          "type": "uint256"
        },
        {
          "name": "targetVotingYieldAdjustmentFactor",
          "type": "uint256"
        },
        {
          "name": "rewardsMultiplierMax",
          "type": "uint256"
        },
        {
          "name": "rewardsMultiplierUnderspendAdjustmentFactor",
          "type": "uint256"
        },
        {
          "name": "rewardsMultiplierOverspendAdjustmentFactor",
          "type": "uint256"
        },
        {
          "name": "_targetVotingGoldFraction",
          "type": "uint256"
        },
        {
          "name": "_targetValidatorEpochPayment",
          "type": "uint256"
        }
      ],
      "name": "initialize",
      "outputs": [],
      "payable": false,
      "stateMutability": "nonpayable",
      "type": "function"
    },
    {
      "constant": true,
      "inputs": [],
      "name": "getTargetVotingYieldParameters",
      "outputs": [
        {
          "name": "",
          "type": "uint256"
        },
        {
          "name": "",
          "type": "uint256"
        },
        {
          "name": "",
          "type": "uint256"
        }
      ],
      "payable": false,
      "stateMutability": "view",
      "type": "function"
    },
    {
      "constant": true,
      "inputs": [],
      "name": "getRewardsMultiplierParameters",
      "outputs": [
        {
          "name": "",
          "type": "uint256"
        },
        {
          "name": "",
          "type": "uint256"
        },
        {
          "name": "",
          "type": "uint256"
        }
      ],
      "payable": false,
      "stateMutability": "view",
      "type": "function"
    },
    {
      "constant": false,
      "inputs": [
        {
          "name": "value",
          "type": "uint256"
        }
      ],
      "name": "setTargetVotingGoldFraction",
      "outputs": [
        {
          "name": "",
          "type": "bool"
        }
      ],
      "payable": false,
      "stateMutability": "nonpayable",
      "type": "function"
    },
    {
      "constant": true,
      "inputs": [],
      "name": "getTargetVotingGoldFraction",
      "outputs": [
        {
          "name": "",
          "type": "uint256"
        }
      ],
      "payable": false,
      "stateMutability": "view",
      "type": "function"
    },
    {
      "constant": false,
      "inputs": [
        {
          "name": "value",
          "type": "uint256"
        }
      ],
      "name": "setTargetValidatorEpochPayment",
      "outputs": [
        {
          "name": "",
          "type": "bool"
        }
      ],
      "payable": false,
      "stateMutability": "nonpayable",
      "type": "function"
    },
    {
      "constant": false,
      "inputs": [
        {
          "name": "max",
          "type": "uint256"
        },
        {
          "name": "underspendAdjustmentFactor",
          "type": "uint256"
        },
        {
          "name": "overspendAdjustmentFactor",
          "type": "uint256"
        }
      ],
      "name": "setRewardsMultiplierParameters",
      "outputs": [
        {
          "name": "",
          "type": "bool"
        }
      ],
      "payable": false,
      "stateMutability": "nonpayable",
      "type": "function"
    },
    {
      "constant": false,
      "inputs": [
        {
          "name": "max",
          "type": "uint256"
        },
        {
          "name": "adjustmentFactor",
          "type": "uint256"
        }
      ],
      "name": "setTargetVotingYieldParameters",
      "outputs": [
        {
          "name": "",
          "type": "bool"
        }
      ],
      "payable": false,
      "stateMutability": "nonpayable",
      "type": "function"
    },
    {
      "constant": true,
      "inputs": [],
      "name": "getTargetGoldTotalSupply",
      "outputs": [
        {
          "name": "",
          "type": "uint256"
        }
      ],
      "payable": false,
      "stateMutability": "view",
      "type": "function"
    },
    {
      "constant": true,
      "inputs": [],
      "name": "getRewardsMultiplier",
      "outputs": [
        {
          "name": "",
          "type": "uint256"
        }
      ],
      "payable": false,
      "stateMutability": "view",
      "type": "function"
    },
    {
      "constant": true,
      "inputs": [],
      "name": "getTargetEpochRewards",
      "outputs": [
        {
          "name": "",
          "type": "uint256"
        }
      ],
      "payable": false,
      "stateMutability": "view",
      "type": "function"
    },
    {
      "constant": true,
      "inputs": [],
      "name": "getTargetTotalEpochPaymentsInGold",
      "outputs": [
        {
          "name": "",
          "type": "uint256"
        }
      ],
      "payable": false,
      "stateMutability": "view",
      "type": "function"
    },
    {
      "constant": true,
      "inputs": [],
      "name": "getVotingGoldFraction",
      "outputs": [
        {
          "name": "",
          "type": "uint256"
        }
      ],
      "payable": false,
      "stateMutability": "view",
      "type": "function"
    },
    {
      "constant": false,
      "inputs": [],
      "name": "updateTargetVotingYield",
      "outputs": [],
      "payable": false,
      "stateMutability": "nonpayable",
      "type": "function"
    },
    {
      "constant": true,
      "inputs": [],
      "name": "calculateTargetEpochPaymentAndRewards",
      "outputs": [
        {
          "name": "",
          "type": "uint256"
        },
        {
          "name": "",
          "type": "uint256"
        }
      ],
      "payable": false,
      "stateMutability": "view",
      "type": "function"
    }
  ],
  "bytecode": "0x60806040526000600255336000806101000a81548173ffffffffffffffffffffffffffffffffffffffff021916908373ffffffffffffffffffffffffffffffffffffffff1602179055506000809054906101000a900473ffffffffffffffffffffffffffffffffffffffff1673ffffffffffffffffffffffffffffffffffffffff16600073ffffffffffffffffffffffffffffffffffffffff167f8be0079c531659141344cd1fd0a4f28419497f9722a3daafe3b4186f6b6457e060405160405180910390a3612b28806100d46000396000f3fe608060405234801561001057600080fd5b50600436106101da5760003560e01c80638aaf699411610104578063a1b95962116100a2578063df4da46111610071578063df4da4611461085d578063e185aaa81461087b578063ec68307214610899578063f2fde38b14610914576101da565b8063a1b9596214610748578063a91ee0dc14610766578063ae098de2146107aa578063d114e6fc146107c8576101da565b806392ecd745116100de57806392ecd74514610694578063940283841461069e57806396c3d2fd146106e45780639a7b3be71461072a576101da565b80638aaf6994146106035780638da5cb5b146106285780638f32d59b14610672576101da565b80635049890f1161017c57806378e979251161014b57806378e97925146105235780637b103999146105415780638331c1d71461058b57806387ee8a0f146105e5576101da565b80635049890f1461047f5780635918bb581461049d5780635f396e48146104ed578063715018a614610519576101da565b8063158ef93e116101b8578063158ef93e14610289578063171af90f146102ab57806323f0ab65146102d75780634901c72514610461576101da565b80630203ab24146101df578063118beff1146101fd57806311fb9e841461021b575b600080fd5b6101e7610958565b6040518082815260200191505060405180910390f35b6102056109a1565b6040518082815260200191505060405180910390f35b6102476004803603602081101561023157600080fd5b8101908080359060200190929190505050610a6b565b604051808273ffffffffffffffffffffffffffffffffffffffff1673ffffffffffffffffffffffffffffffffffffffff16815260200191505060405180910390f35b610291610a9b565b604051808215151515815260200191505060405180910390f35b6102b3610aae565b60405180848152602001838152602001828152602001935050505060405180910390f35b610447600480360360608110156102ed57600080fd5b81019080803573ffffffffffffffffffffffffffffffffffffffff1690602001909291908035906020019064010000000081111561032a57600080fd5b82018360208201111561033c57600080fd5b8035906020019184600183028401116401000000008311171561035e57600080fd5b91908080601f016020809104026020016040519081016040528093929190818152602001838380828437600081840152601f19601f820116905080830192505050505050509192919290803590602001906401000000008111156103c157600080fd5b8201836020820111156103d357600080fd5b803590602001918460018302840111640100000000831117156103f557600080fd5b91908080601f016020809104026020016040519081016040528093929190818152602001838380828437600081840152601f19601f820116905080830192505050505050509192919290505050610b27565b604051808215151515815260200191505060405180910390f35b610469610ce7565b6040518082815260200191505060405180910390f35b610487610ef7565b6040518082815260200191505060405180910390f35b6104d3600480360360408110156104b357600080fd5b810190808035906020019092919080359060200190929190505050610fd5565b604051808215151515815260200191505060405180910390f35b6104f5611149565b60405180848152602001838152602001828152602001935050505060405180910390f35b6105216111c8565b005b61052b611298565b6040518082815260200191505060405180910390f35b61054961129e565b604051808273ffffffffffffffffffffffffffffffffffffffff1673ffffffffffffffffffffffffffffffffffffffff16815260200191505060405180910390f35b6105cb600480360360608110156105a157600080fd5b810190808035906020019092919080359060200190929190803590602001909291905050506112c4565b604051808215151515815260200191505060405180910390f35b6105ed611445565b6040518082815260200191505060405180910390f35b61060b61146a565b604051808381526020018281526020019250505060405180910390f35b610630611503565b604051808273ffffffffffffffffffffffffffffffffffffffff1673ffffffffffffffffffffffffffffffffffffffff16815260200191505060405180910390f35b61067a61152c565b604051808215151515815260200191505060405180910390f35b61069c611583565b005b6106ca600480360360208110156106b457600080fd5b81019080803590602001909291905050506115c6565b604051808215151515815260200191505060405180910390f35b610710600480360360208110156106fa57600080fd5b8101908080359060200190929190505050611676565b604051808215151515815260200191505060405180910390f35b6107326116df565b6040518082815260200191505060405180910390f35b61075061171b565b6040518082815260200191505060405180910390f35b6107a86004803603602081101561077c57600080fd5b81019080803573ffffffffffffffffffffffffffffffffffffffff169060200190929190505050611988565b005b6107b2611a20565b6040518082815260200191505060405180910390f35b61085b60048036036101208110156107df57600080fd5b81019080803573ffffffffffffffffffffffffffffffffffffffff1690602001909291908035906020019092919080359060200190929190803590602001909291908035906020019092919080359060200190929190803590602001909291908035906020019092919080359060200190929190505050611a46565b005b610865611ae5565b6040518082815260200191505060405180910390f35b610883611b10565b6040518082815260200191505060405180910390f35b6108f7600480360360c08110156108af57600080fd5b81019080803590602001909291908035906020019092919080359060200190929190803590602001909291908035906020019092919080359060200190929190505050611b16565b604051808381526020018281526020019250505060405180910390f35b6109566004803603602081101561092a57600080fd5b81019080803573ffffffffffffffffffffffffffffffffffffffff169060200190929190505050611bb1565b005b6000806109636109a1565b9050600061096f610ce7565b905060006109868284611bce90919063ffffffff16565b905061099961099482611bed565b611ef2565b935050505090565b6000610a66610a616006600001604051806020016040529081600082015481525050610a536109ce611f00565b73ffffffffffffffffffffffffffffffffffffffff16631f6042436040518163ffffffff1660e01b815260040160206040518083038186803b158015610a1357600080fd5b505afa158015610a27573d6000803e3d6000fd5b505050506040513d6020811015610a3d57600080fd5b8101908080519060200190929190505050611ffb565b61203990919063ffffffff16565b61228b565b905090565b60008060405183815260008060208360fa611388fa60206000604084013e60408201519250505080915050919050565b600060149054906101000a900460ff1681565b60008060008060069050610ad981600001604051806020016040529081600082015481525050611ef2565b610afa82600201604051806020016040529081600082015481525050611ef2565b610b1b83600101604051806020016040529081600082015481525050611ef2565b93509350935050909192565b60008060fb73ffffffffffffffffffffffffffffffffffffffff1660005a90878787604051602001808473ffffffffffffffffffffffffffffffffffffffff1673ffffffffffffffffffffffffffffffffffffffff1660601b815260140183805190602001908083835b60208310610bb45780518252602082019150602081019050602083039250610b91565b6001836020036101000a03801982511681845116808217855250505050505090500182805190602001908083835b60208310610c055780518252602082019150602081019050602083039250610be2565b6001836020036101000a03801982511681845116808217855250505050505090500193505050506040516020818303038152906040526040518082805190602001908083835b60208310610c6e5780518252602082019150602081019050602083039250610c4b565b6001836020036101000a038019825116818451168082178552505050505050905001915050600060405180830381858888f193505050503d8060008114610cd1576040519150601f19603f3d011682016040523d82523d6000602084013e610cd6565b606091505b505080915050809150509392505050565b600080600160009054906101000a900473ffffffffffffffffffffffffffffffffffffffff1673ffffffffffffffffffffffffffffffffffffffff1663dcf0aaed60405160200180807f537461626c65546f6b656e000000000000000000000000000000000000000000815250600b019050604051602081830303815290604052805190602001206040518263ffffffff1660e01b81526004018082815260200191505060206040518083038186803b158015610da357600080fd5b505afa158015610db7573d6000803e3d6000fd5b505050506040513d6020811015610dcd57600080fd5b81019080805190602001909291905050509050600080610deb6122ac565b73ffffffffffffffffffffffffffffffffffffffff1663ef90e1b0846040518263ffffffff1660e01b8152600401808273ffffffffffffffffffffffffffffffffffffffff1673ffffffffffffffffffffffffffffffffffffffff168152602001915050604080518083038186803b158015610e6657600080fd5b505afa158015610e7a573d6000803e3d6000fd5b505050506040513d6040811015610e9057600080fd5b81019080805190602001909291908051906020019092919050505091509150610eef82610ee183610ed3600a54610ec5611445565b6123a790919063ffffffff16565b6123a790919063ffffffff16565b6123e190919063ffffffff16565b935050505090565b600080610f0f6002544261240790919063ffffffff16565b90506201518061016d600f0202811015610fc1576000610f636002610f556b01f04ef12cb04cf1580000006b033b2e3c9fd0803ce800000061240790919063ffffffff16565b6123e190919063ffffffff16565b90506000610f966201518061016d600f0202610f8885856123a790919063ffffffff16565b6123e190919063ffffffff16565b9050610fb76b01f04ef12cb04cf15800000082611bce90919063ffffffff16565b9350505050610fd2565b6000610fcc57600080fd5b60009150505b90565b6000610fdf61152c565b610fe857600080fd5b61100a6006600201604051806020016040529081600082015481525050611ef2565b8314158061103957506110356006600101604051806020016040529081600082015481525050611ef2565b8214155b61104257600080fd5b61104b83612427565b60066002016000820151816000015590505061106682612427565b6006600101600082015181600001559050506110ab611083612445565b600660020160405180602001604052908160008201548152505061246b90919063ffffffff16565b611100576040517f08c379a000000000000000000000000000000000000000000000000000000000815260040180806020018281038252602f815260200180612ace602f913960400191505060405180910390fd5b7f1b76e38f3fdd1f284ed4d47c9d50ff407748c516ff9761616ff638c2331076258383604051808381526020018281526020019250505060405180910390a16001905092915050565b6000806000806003905061117481600201604051806020016040529081600082015481525050611ef2565b61119882600001600001604051806020016040529081600082015481525050611ef2565b6111bc83600001600101604051806020016040529081600082015481525050611ef2565b93509350935050909192565b6111d061152c565b6111d957600080fd5b600073ffffffffffffffffffffffffffffffffffffffff166000809054906101000a900473ffffffffffffffffffffffffffffffffffffffff1673ffffffffffffffffffffffffffffffffffffffff167f8be0079c531659141344cd1fd0a4f28419497f9722a3daafe3b4186f6b6457e060405160405180910390a360008060006101000a81548173ffffffffffffffffffffffffffffffffffffffff021916908373ffffffffffffffffffffffffffffffffffffffff160217905550565b60025481565b600160009054906101000a900473ffffffffffffffffffffffffffffffffffffffff1681565b60006112ce61152c565b6112d757600080fd5b6112f96003600201604051806020016040529081600082015481525050611ef2565b8414158061132b57506113276003600001600101604051806020016040529081600082015481525050611ef2565b8214155b8061135a57506113566003600001600001604051806020016040529081600082015481525050611ef2565b8314155b61136357600080fd5b6040518060400160405280604051806040016040528061138287612427565b815260200161139086612427565b81525081526020016113a186612427565b815250600360008201518160000160008201518160000160008201518160000155505060208201518160010160008201518160000155505050506020820151816002016000820151816000015550509050507f191445ee0115396c9725b9c642b985d63820ca57d54e42e5eb38faec4022f05d84848460405180848152602001838152602001828152602001935050505060405180910390a1600190509392505050565b60008060008060008060f9611388fa60405160206000823e8051925050508091505090565b60008060006114776109a1565b90506000611483610ce7565b9050600061149a8284611bce90919063ffffffff16565b90506114a4612aba565b6114ad82611bed565b90506114d46114cf826114c1600a54611ffb565b61203990919063ffffffff16565b61228b565b6114f76114f2836114e488611ffb565b61203990919063ffffffff16565b61228b565b95509550505050509091565b60008060009054906101000a900473ffffffffffffffffffffffffffffffffffffffff16905090565b60008060009054906101000a900473ffffffffffffffffffffffffffffffffffffffff1673ffffffffffffffffffffffffffffffffffffffff163373ffffffffffffffffffffffffffffffffffffffff1614905090565b600073ffffffffffffffffffffffffffffffffffffffff163373ffffffffffffffffffffffffffffffffffffffff16146115bc57600080fd5b6115c4612480565b565b60006115d061152c565b6115d957600080fd5b6115f86009604051806020016040529081600082015481525050611ef2565b8214158015611615575061161261160d612445565b611ef2565b82105b61161e57600080fd5b61162782612427565b6009600082015181600001559050507fbae2f33c70949fbc7325c98655f3039e5e1c7f774874c99fd4f31ec5f432b159826040518082815260200191505060405180910390a160019050919050565b600061168061152c565b61168957600080fd5b600a5482141561169857600080fd5b81600a819055507fa21d141963bb2c1064b5376f762d22d3e9c4c51617edcf105bcec0f14e36800c826040518082815260200191505060405180910390a160019050919050565b6000806116ea611ae5565b905060008143816116f757fe5b049050600082438161170557fe5b061415611713576001810390505b809250505090565b600080600160009054906101000a900473ffffffffffffffffffffffffffffffffffffffff1673ffffffffffffffffffffffffffffffffffffffff1663dcf0aaed60405160200180807f52657365727665000000000000000000000000000000000000000000000000008152506007019050604051602081830303815290604052805190602001206040518263ffffffff1660e01b81526004018082815260200191505060206040518083038186803b1580156117d757600080fd5b505afa1580156117eb573d6000803e3d6000fd5b505050506040513d602081101561180157600080fd5b8101908080519060200190929190505050905060006118c78273ffffffffffffffffffffffffffffffffffffffff1631611839612707565b73ffffffffffffffffffffffffffffffffffffffff166318160ddd6040518163ffffffff1660e01b815260040160206040518083038186803b15801561187e57600080fd5b505afa158015611892573d6000803e3d6000fd5b505050506040513d60208110156118a857600080fd5b810190808051906020019092919050505061240790919063ffffffff16565b905060006118d3611f00565b73ffffffffffffffffffffffffffffffffffffffff16639a0e7d666040518163ffffffff1660e01b815260040160206040518083038186803b15801561191857600080fd5b505afa15801561192c573d6000803e3d6000fd5b505050506040513d602081101561194257600080fd5b8101908080519060200190929190505050905061198061197b61196484611ffb565b61196d84611ffb565b61280290919063ffffffff16565b611ef2565b935050505090565b61199061152c565b61199957600080fd5b80600160006101000a81548173ffffffffffffffffffffffffffffffffffffffff021916908373ffffffffffffffffffffffffffffffffffffffff1602179055508073ffffffffffffffffffffffffffffffffffffffff167f27fe5f0c1c3b1ed427cc63d0f05759ffdecf9aec9e18d31ef366fc8a6cb5dc3b60405160405180910390a250565b6000611a416009604051806020016040529081600082015481525050611ef2565b905090565b600060149054906101000a900460ff1615611a6057600080fd5b6001600060146101000a81548160ff021916908315150217905550611a8433612879565b611a8d89611988565b611a978787610fd5565b50611aa38585856112c4565b50611aad826115c6565b50611ab781611676565b50611ac188612427565b60066000016000820151816000015590505042600281905550505050505050505050565b60008060405160008060008360f86103e8fa60206000602084013e6020820151925050508091505090565b600a5481565b60008060008714158015611b2b575060008514155b611b3457600080fd5b6000806040513681016040528a81528960208201528860408201528760608201528660808201528560a082015260008060c48360fc61041afa3d604051818101604052816000823e8260008114611b95578151965060208201519550611b99565b8282fd5b50505050508181935093505050965096945050505050565b611bb961152c565b611bc257600080fd5b611bcb81612879565b50565b600080828401905083811015611be357600080fd5b8091505092915050565b611bf5612aba565b6000611bff610ef7565b90506000611c0b612707565b73ffffffffffffffffffffffffffffffffffffffff166318160ddd6040518163ffffffff1660e01b815260040160206040518083038186803b158015611c5057600080fd5b505afa158015611c64573d6000803e3d6000fd5b505050506040513d6020811015611c7a57600080fd5b810190808051906020019092919050505090506000611cc0611ca58684611bce90919063ffffffff16565b6b033b2e3c9fd0803ce800000061240790919063ffffffff16565b90506000611ce3846b033b2e3c9fd0803ce800000061240790919063ffffffff16565b9050611ced612aba565b611d10611cf983611ffb565b611d0285611ffb565b61280290919063ffffffff16565b9050611d2c611d1d612445565b8261297190919063ffffffff16565b15611e0f57611d39612aba565b611d816003600001600001604051806020016040529081600082015481525050611d73611d64612445565b8561298690919063ffffffff16565b61203990919063ffffffff16565b9050611d8b612aba565b611da582611d97612445565b6129c490919063ffffffff16565b9050611dd360036002016040518060200160405290816000820154815250508261246b90919063ffffffff16565b15611de75780975050505050505050611eed565b6003600201604051806020016040529081600082015481525050975050505050505050611eed565b611e29611e1a612445565b8261246b90919063ffffffff16565b15611edd57611e36612aba565b611e7e6003600001600101604051806020016040529081600082015481525050611e7084611e62612445565b61298690919063ffffffff16565b61203990919063ffffffff16565b9050611e9a611e8b612445565b8261246b90919063ffffffff16565b15611ec657611eb981611eab612445565b61298690919063ffffffff16565b9650505050505050611eed565b611ed06000612427565b9650505050505050611eed565b611ee5612445565b955050505050505b919050565b600081600001519050919050565b6000600160009054906101000a900473ffffffffffffffffffffffffffffffffffffffff1673ffffffffffffffffffffffffffffffffffffffff1663dcf0aaed60405160200180807f456c656374696f6e0000000000000000000000000000000000000000000000008152506008019050604051602081830303815290604052805190602001206040518263ffffffff1660e01b81526004018082815260200191505060206040518083038186803b158015611fbb57600080fd5b505afa158015611fcf573d6000803e3d6000fd5b505050506040513d6020811015611fe557600080fd5b8101908080519060200190929190505050905090565b612003612aba565b61200b612a04565b82111561201757600080fd5b604051806020016040528069d3c21bcecceda100000084028152509050919050565b612041612aba565b600083600001511480612058575060008260000151145b1561207457604051806020016040528060008152509050612285565b69d3c21bcecceda10000008260000151141561209257829050612285565b69d3c21bcecceda1000000836000015114156120b057819050612285565b600069d3c21bcecceda10000006120c685612a23565b60000151816120d157fe5b04905060006120df85612a5a565b600001519050600069d3c21bcecceda10000006120fb86612a23565b600001518161210657fe5b049050600061211486612a5a565b600001519050600082850290506000851461213f578285828161213357fe5b041461213e57600080fd5b5b600069d3c21bcecceda100000082029050600082146121785769d3c21bcecceda100000082828161216c57fe5b041461217757600080fd5b5b80915060008486029050600086146121a0578486828161219457fe5b041461219f57600080fd5b5b60008488029050600088146121c557848882816121b957fe5b04146121c457600080fd5b5b6121cd612a97565b87816121d557fe5b0496506121e0612a97565b85816121e857fe5b0494506000858802905060008814612210578588828161220457fe5b041461220f57600080fd5b5b612218612aba565b6040518060200160405280878152509050612241816040518060200160405280878152506129c4565b905061225b816040518060200160405280868152506129c4565b9050612275816040518060200160405280858152506129c4565b9050809a50505050505050505050505b92915050565b600069d3c21bcecceda10000008260000151816122a457fe5b049050919050565b6000600160009054906101000a900473ffffffffffffffffffffffffffffffffffffffff1673ffffffffffffffffffffffffffffffffffffffff1663dcf0aaed60405160200180807f536f727465644f7261636c657300000000000000000000000000000000000000815250600d019050604051602081830303815290604052805190602001206040518263ffffffff1660e01b81526004018082815260200191505060206040518083038186803b15801561236757600080fd5b505afa15801561237b573d6000803e3d6000fd5b505050506040513d602081101561239157600080fd5b8101908080519060200190929190505050905090565b6000808314156123ba57600090506123db565b60008284029050828482816123cb57fe5b04146123d657600080fd5b809150505b92915050565b60008082116123ef57600080fd5b60008284816123fa57fe5b0490508091505092915050565b60008282111561241657600080fd5b600082840390508091505092915050565b61242f612aba565b6040518060200160405280838152509050919050565b61244d612aba565b604051806020016040528069d3c21bcecceda1000000815250905090565b60008160000151836000015110905092915050565b612488612aba565b61249861249361171b565b612427565b90506124c360096040518060200160405290816000820154815250508261297190919063ffffffff16565b156125c9576124d0612aba565b6124f960096040518060200160405290816000820154815250508361298690919063ffffffff16565b9050612503612aba565b61252f60066001016040518060200160405290816000820154815250508361203990919063ffffffff16565b905061255d600660000160405180602001604052908160008201548152505082612aa490919063ffffffff16565b156125835761256c6000611ffb565b6006600001600082015181600001559050506125c2565b6125af81600660000160405180602001604052908160008201548152505061298690919063ffffffff16565b6006600001600082015181600001559050505b5050612704565b6125f260096040518060200160405290816000820154815250508261246b90919063ffffffff16565b15612703576125ff612aba565b61262882600960405180602001604052908160008201548152505061298690919063ffffffff16565b9050612632612aba565b61265e60066001016040518060200160405290816000820154815250508361203990919063ffffffff16565b905061268c8160066000016040518060200160405290816000820154815250506129c490919063ffffffff16565b6006600001600082015181600001559050506126e36006600201604051806020016040529081600082015481525050600660000160405180602001604052908160008201548152505061297190919063ffffffff16565b156127005760066002016006600001600082015481600001559050505b50505b5b50565b6000600160009054906101000a900473ffffffffffffffffffffffffffffffffffffffff1673ffffffffffffffffffffffffffffffffffffffff1663dcf0aaed60405160200180807f476f6c64546f6b656e00000000000000000000000000000000000000000000008152506009019050604051602081830303815290604052805190602001206040518263ffffffff1660e01b81526004018082815260200191505060206040518083038186803b1580156127c257600080fd5b505afa1580156127d6573d6000803e3d6000fd5b505050506040513d60208110156127ec57600080fd5b8101908080519060200190929190505050905090565b61280a612aba565b60008260000151141561281c57600080fd5b600069d3c21bcecceda10000008460000151029050836000015169d3c21bcecceda1000000828161284957fe5b041461285457600080fd5b60405180602001604052808460000151838161286c57fe5b0481525091505092915050565b600073ffffffffffffffffffffffffffffffffffffffff168173ffffffffffffffffffffffffffffffffffffffff1614156128b357600080fd5b8073ffffffffffffffffffffffffffffffffffffffff166000809054906101000a900473ffffffffffffffffffffffffffffffffffffffff1673ffffffffffffffffffffffffffffffffffffffff167f8be0079c531659141344cd1fd0a4f28419497f9722a3daafe3b4186f6b6457e060405160405180910390a3806000806101000a81548173ffffffffffffffffffffffffffffffffffffffff021916908373ffffffffffffffffffffffffffffffffffffffff16021790555050565b60008160000151836000015111905092915050565b61298e612aba565b8160000151836000015110156129a357600080fd5b60405180602001604052808360000151856000015103815250905092915050565b6129cc612aba565b60008260000151846000015101905083600001518110156129ec57600080fd5b60405180602001604052808281525091505092915050565b60007601357c299a88ea76a58924d52ce4f26a85af186c2b9e74905090565b612a2b612aba565b604051806020016040528069d3c21bcecceda100000080856000015181612a4e57fe5b04028152509050919050565b612a62612aba565b604051806020016040528069d3c21bcecceda100000080856000015181612a8557fe5b04028460000151038152509050919050565b600064e8d4a51000905090565b6000816000015183600001511015905092915050565b604051806020016040528060008152509056fe4d61782074617267657420766f74696e67207969656c64206d757374206265206c6f776572207468616e2031303025a165627a7a723058206a24e5d0f47ec6a922b3eeb8d4921f9f9e242b802cd7ac1a50c49dcde0de1b930029",
  "source": "pragma solidity ^0.5.3;\n\nimport \"openzeppelin-solidity/contracts/math/SafeMath.sol\";\nimport \"openzeppelin-solidity/contracts/ownership/Ownable.sol\";\n\nimport \"../common/FixidityLib.sol\";\nimport \"../common/Initializable.sol\";\nimport \"../common/UsingRegistry.sol\";\nimport \"../common/UsingPrecompiles.sol\";\n\n/**\n * @title Contract for calculating epoch rewards.\n */\ncontract EpochRewards is Ownable, Initializable, UsingPrecompiles, UsingRegistry {\n  using FixidityLib for FixidityLib.Fraction;\n  using SafeMath for uint256;\n\n  uint256 constant GENESIS_GOLD_SUPPLY = 600000000 ether; // 600 million Gold\n  uint256 constant GOLD_SUPPLY_CAP = 1000000000 ether; // 1 billion Gold\n  uint256 constant YEARS_LINEAR = 15;\n  uint256 constant SECONDS_LINEAR = YEARS_LINEAR * 365 * 1 days;\n\n  // This struct governs how the rewards multiplier should deviate from 1.0 based on the ratio of\n  // supply remaining to target supply remaining.\n  struct RewardsMultiplierAdjustmentFactors {\n    FixidityLib.Fraction underspend;\n    FixidityLib.Fraction overspend;\n  }\n\n  // This struct governs the multiplier on the target rewards to give out in a given epoch due to\n  // potential deviations in the actual Gold total supply from the target total supply.\n  // In the case where the actual exceeds the target (i.e. the protocol has \"overspent\" with\n  // respect to epoch rewards and payments) the rewards multiplier will be less than one.\n  // In the case where the actual is less than the target (i.e. the protocol has \"underspent\" with\n  // respect to epoch rewards and payments) the rewards multiplier will be greater than one.\n  struct RewardsMultiplierParameters {\n    RewardsMultiplierAdjustmentFactors adjustmentFactors;\n    // The maximum rewards multiplier.\n    FixidityLib.Fraction max;\n  }\n\n  // This struct governs the target yield awarded to voters in validator elections.\n  struct TargetVotingYieldParameters {\n    // The target yield awarded to users voting in validator elections.\n    FixidityLib.Fraction target;\n    // Governs the adjustment of the target yield based on the deviation of the percentage of\n    // Gold voting in validator elections from the `targetVotingGoldFraction`.\n    FixidityLib.Fraction adjustmentFactor;\n    // The maximum target yield awarded to users voting in validator elections.\n    FixidityLib.Fraction max;\n  }\n\n  uint256 public startTime = 0;\n  RewardsMultiplierParameters private rewardsMultiplierParams;\n  TargetVotingYieldParameters private targetVotingYieldParams;\n  FixidityLib.Fraction private targetVotingGoldFraction;\n  uint256 public targetValidatorEpochPayment;\n\n  event TargetVotingGoldFractionSet(uint256 fraction);\n  event TargetValidatorEpochPaymentSet(uint256 payment);\n  event TargetVotingYieldParametersSet(uint256 max, uint256 adjustmentFactor);\n  event RewardsMultiplierParametersSet(\n    uint256 max,\n    uint256 underspendAdjustmentFactor,\n    uint256 overspendAdjustmentFactor\n  );\n\n  /**\n   * @notice Initializes critical variables.\n   * @param registryAddress The address of the registry contract.\n   * @param targetVotingYieldInitial The initial relative target block reward for voters.\n   * @param targetVotingYieldMax The max relative target block reward for voters.\n   * @param targetVotingYieldAdjustmentFactor The target block reward adjustment factor for voters.\n   * @param rewardsMultiplierMax The max multiplier on target epoch rewards.\n   * @param rewardsMultiplierUnderspendAdjustmentFactor Adjusts the multiplier on target epoch\n   *   rewards when the protocol is running behind the target Gold supply.\n   * @param rewardsMultiplierOverspendAdjustmentFactor Adjusts the multiplier on target epoch\n   *   rewards when the protocol is running ahead of the target Gold supply.\n   * @param _targetVotingGoldFraction The percentage of floating Gold voting to target.\n   * @param _targetValidatorEpochPayment The target validator epoch payment.\n   * @dev Should be called only once.\n   */\n  function initialize(\n    address registryAddress,\n    uint256 targetVotingYieldInitial,\n    uint256 targetVotingYieldMax,\n    uint256 targetVotingYieldAdjustmentFactor,\n    uint256 rewardsMultiplierMax,\n    uint256 rewardsMultiplierUnderspendAdjustmentFactor,\n    uint256 rewardsMultiplierOverspendAdjustmentFactor,\n    uint256 _targetVotingGoldFraction,\n    uint256 _targetValidatorEpochPayment\n  ) external initializer {\n    _transferOwnership(msg.sender);\n    setRegistry(registryAddress);\n    setTargetVotingYieldParameters(targetVotingYieldMax, targetVotingYieldAdjustmentFactor);\n    setRewardsMultiplierParameters(\n      rewardsMultiplierMax,\n      rewardsMultiplierUnderspendAdjustmentFactor,\n      rewardsMultiplierOverspendAdjustmentFactor\n    );\n    setTargetVotingGoldFraction(_targetVotingGoldFraction);\n    setTargetValidatorEpochPayment(_targetValidatorEpochPayment);\n    targetVotingYieldParams.target = FixidityLib.wrap(targetVotingYieldInitial);\n    startTime = now;\n  }\n\n  /**\n   * @notice Returns the target voting yield parameters.\n   * @return The target, max, and adjustment factor for target voting yield.\n   */\n  function getTargetVotingYieldParameters() external view returns (uint256, uint256, uint256) {\n    TargetVotingYieldParameters storage params = targetVotingYieldParams;\n    return (params.target.unwrap(), params.max.unwrap(), params.adjustmentFactor.unwrap());\n  }\n\n  /**\n   * @notice Returns the rewards multiplier parameters.\n   * @return The max multiplier and under/over spend adjustment factors.\n   */\n  function getRewardsMultiplierParameters() external view returns (uint256, uint256, uint256) {\n    RewardsMultiplierParameters storage params = rewardsMultiplierParams;\n    return (\n      params.max.unwrap(),\n      params.adjustmentFactors.underspend.unwrap(),\n      params.adjustmentFactors.overspend.unwrap()\n    );\n  }\n\n  /**\n   * @notice Sets the target voting Gold fraction.\n   * @param value The percentage of floating Gold voting to target.\n   * @return True upon success.\n   */\n  function setTargetVotingGoldFraction(uint256 value) public onlyOwner returns (bool) {\n    require(value != targetVotingGoldFraction.unwrap() && value < FixidityLib.fixed1().unwrap());\n    targetVotingGoldFraction = FixidityLib.wrap(value);\n    emit TargetVotingGoldFractionSet(value);\n    return true;\n  }\n\n  /**\n   * @notice Returns the target voting Gold fraction.\n   * @return The percentage of floating Gold voting to target.\n   */\n  function getTargetVotingGoldFraction() external view returns (uint256) {\n    return targetVotingGoldFraction.unwrap();\n  }\n\n  /**\n   * @notice Sets the target per-epoch payment in Celo Dollars for validators.\n   * @param value The value in Celo Dollars.\n   * @return True upon success.\n   */\n  function setTargetValidatorEpochPayment(uint256 value) public onlyOwner returns (bool) {\n    require(value != targetValidatorEpochPayment);\n    targetValidatorEpochPayment = value;\n    emit TargetValidatorEpochPaymentSet(value);\n    return true;\n  }\n\n  /**\n   * @notice Sets the rewards multiplier parameters.\n   * @param max The max multiplier on target epoch rewards.\n   * @param underspendAdjustmentFactor Adjusts the multiplier on target epoch rewards when the\n   *   protocol is running behind the target Gold supply.\n   * @param overspendAdjustmentFactor Adjusts the multiplier on target epoch rewards when the\n   *   protocol is running ahead of the target Gold supply.\n   * @return True upon success.\n   */\n  function setRewardsMultiplierParameters(\n    uint256 max,\n    uint256 underspendAdjustmentFactor,\n    uint256 overspendAdjustmentFactor\n  ) public onlyOwner returns (bool) {\n    require(\n      max != rewardsMultiplierParams.max.unwrap() ||\n        overspendAdjustmentFactor != rewardsMultiplierParams.adjustmentFactors.overspend.unwrap() ||\n        underspendAdjustmentFactor != rewardsMultiplierParams.adjustmentFactors.underspend.unwrap()\n    );\n    rewardsMultiplierParams = RewardsMultiplierParameters(\n      RewardsMultiplierAdjustmentFactors(\n        FixidityLib.wrap(underspendAdjustmentFactor),\n        FixidityLib.wrap(overspendAdjustmentFactor)\n      ),\n      FixidityLib.wrap(max)\n    );\n    emit RewardsMultiplierParametersSet(max, underspendAdjustmentFactor, overspendAdjustmentFactor);\n    return true;\n  }\n\n  /**\n   * @notice Sets the target voting yield parameters.\n   * @param max The max relative target block reward for voters.\n   * @param adjustmentFactor The target block reward adjustment factor for voters.\n   * @return True upon success.\n   */\n  function setTargetVotingYieldParameters(uint256 max, uint256 adjustmentFactor)\n    public\n    onlyOwner\n    returns (bool)\n  {\n    require(\n      max != targetVotingYieldParams.max.unwrap() ||\n        adjustmentFactor != targetVotingYieldParams.adjustmentFactor.unwrap()\n    );\n    targetVotingYieldParams.max = FixidityLib.wrap(max);\n    targetVotingYieldParams.adjustmentFactor = FixidityLib.wrap(adjustmentFactor);\n    require(\n      targetVotingYieldParams.max.lt(FixidityLib.fixed1()),\n      \"Max target voting yield must be lower than 100%\"\n    );\n    emit TargetVotingYieldParametersSet(max, adjustmentFactor);\n    return true;\n  }\n\n  /**\n   * @notice Returns the target Gold supply according to the epoch rewards target schedule.\n   * @return The target Gold supply according to the epoch rewards target schedule.\n   */\n  function getTargetGoldTotalSupply() public view returns (uint256) {\n    uint256 timeSinceInitialization = now.sub(startTime);\n    if (timeSinceInitialization < SECONDS_LINEAR) {\n      // Pay out half of all block rewards linearly.\n      uint256 linearRewards = GOLD_SUPPLY_CAP.sub(GENESIS_GOLD_SUPPLY).div(2);\n      uint256 targetRewards = linearRewards.mul(timeSinceInitialization).div(SECONDS_LINEAR);\n      return targetRewards.add(GENESIS_GOLD_SUPPLY);\n    } else {\n      // TODO(asa): Implement block reward calculation for years 15-30.\n      require(false);\n      return 0;\n    }\n  }\n\n  /**\n   * @notice Returns the rewards multiplier based on the current and target Gold supplies.\n   * @param targetGoldSupplyIncrease The target increase in current Gold supply.\n   * @return The rewards multiplier based on the current and target Gold supplies.\n   */\n  function _getRewardsMultiplier(uint256 targetGoldSupplyIncrease)\n    internal\n    view\n    returns (FixidityLib.Fraction memory)\n  {\n    uint256 targetSupply = getTargetGoldTotalSupply();\n    uint256 totalSupply = getGoldToken().totalSupply();\n    uint256 remainingSupply = GOLD_SUPPLY_CAP.sub(totalSupply.add(targetGoldSupplyIncrease));\n    uint256 targetRemainingSupply = GOLD_SUPPLY_CAP.sub(targetSupply);\n    FixidityLib.Fraction memory remainingToTargetRatio = FixidityLib\n      .newFixed(remainingSupply)\n      .divide(FixidityLib.newFixed(targetRemainingSupply));\n    if (remainingToTargetRatio.gt(FixidityLib.fixed1())) {\n      FixidityLib.Fraction memory delta = remainingToTargetRatio\n        .subtract(FixidityLib.fixed1())\n        .multiply(rewardsMultiplierParams.adjustmentFactors.underspend);\n      FixidityLib.Fraction memory multiplier = FixidityLib.fixed1().add(delta);\n      if (multiplier.lt(rewardsMultiplierParams.max)) {\n        return multiplier;\n      } else {\n        return rewardsMultiplierParams.max;\n      }\n    } else if (remainingToTargetRatio.lt(FixidityLib.fixed1())) {\n      FixidityLib.Fraction memory delta = FixidityLib\n        .fixed1()\n        .subtract(remainingToTargetRatio)\n        .multiply(rewardsMultiplierParams.adjustmentFactors.overspend);\n      if (delta.lt(FixidityLib.fixed1())) {\n        return FixidityLib.fixed1().subtract(delta);\n      } else {\n        return FixidityLib.wrap(0);\n      }\n    } else {\n      return FixidityLib.fixed1();\n    }\n  }\n\n  /**\n   * @notice Returns the rewards multiplier based on the current and target Gold supplies.\n   * @return The rewards multiplier based on the current and target Gold supplies.\n   */\n  function getRewardsMultiplier() external view returns (uint256) {\n    uint256 targetEpochRewards = getTargetEpochRewards();\n    uint256 targetTotalEpochPaymentsInGold = getTargetTotalEpochPaymentsInGold();\n    uint256 targetGoldSupplyIncrease = targetEpochRewards.add(targetTotalEpochPaymentsInGold);\n    return _getRewardsMultiplier(targetGoldSupplyIncrease).unwrap();\n  }\n\n  /**\n   * @notice Returns the total target epoch rewards for voters.\n   * @return the total target epoch rewards for voters.\n   */\n  function getTargetEpochRewards() public view returns (uint256) {\n    return\n      FixidityLib\n        .newFixed(getElection().getActiveVotes())\n        .multiply(targetVotingYieldParams.target)\n        .fromFixed();\n  }\n\n  /**\n   * @notice Returns the total target epoch payments to validators, converted to Gold.\n   * @return The total target epoch payments to validators, converted to Gold.\n   */\n  function getTargetTotalEpochPaymentsInGold() public view returns (uint256) {\n    address stableTokenAddress = registry.getAddressForOrDie(STABLE_TOKEN_REGISTRY_ID);\n    (uint256 numerator, uint256 denominator) = getSortedOracles().medianRate(stableTokenAddress);\n    return\n      numberValidatorsInCurrentSet().mul(targetValidatorEpochPayment).mul(denominator).div(\n        numerator\n      );\n  }\n\n  /**\n   * @notice Returns the fraction of floating Gold being used for voting in validator elections.\n   * @return The fraction of floating Gold being used for voting in validator elections.\n   */\n  function getVotingGoldFraction() public view returns (uint256) {\n    // TODO(asa): Ignore custodial accounts.\n    address reserveAddress = registry.getAddressForOrDie(RESERVE_REGISTRY_ID);\n    uint256 liquidGold = getGoldToken().totalSupply().sub(reserveAddress.balance);\n    // TODO(asa): Should this be active votes?\n    uint256 votingGold = getElection().getTotalVotes();\n    return FixidityLib.newFixed(votingGold).divide(FixidityLib.newFixed(liquidGold)).unwrap();\n  }\n\n  /**\n   * @notice Updates the target voting yield based on the difference between the target and current\n   *   voting Gold fraction.\n   */\n  function _updateTargetVotingYield() internal {\n    FixidityLib.Fraction memory votingGoldFraction = FixidityLib.wrap(getVotingGoldFraction());\n    if (votingGoldFraction.gt(targetVotingGoldFraction)) {\n      FixidityLib.Fraction memory votingGoldFractionDelta = votingGoldFraction.subtract(\n        targetVotingGoldFraction\n      );\n      FixidityLib.Fraction memory targetVotingYieldDelta = votingGoldFractionDelta.multiply(\n        targetVotingYieldParams.adjustmentFactor\n      );\n      if (targetVotingYieldDelta.gte(targetVotingYieldParams.target)) {\n        targetVotingYieldParams.target = FixidityLib.newFixed(0);\n      } else {\n        targetVotingYieldParams.target = targetVotingYieldParams.target.subtract(\n          targetVotingYieldDelta\n        );\n      }\n    } else if (votingGoldFraction.lt(targetVotingGoldFraction)) {\n      FixidityLib.Fraction memory votingGoldFractionDelta = targetVotingGoldFraction.subtract(\n        votingGoldFraction\n      );\n      FixidityLib.Fraction memory targetVotingYieldDelta = votingGoldFractionDelta.multiply(\n        targetVotingYieldParams.adjustmentFactor\n      );\n      targetVotingYieldParams.target = targetVotingYieldParams.target.add(targetVotingYieldDelta);\n      if (targetVotingYieldParams.target.gt(targetVotingYieldParams.max)) {\n        targetVotingYieldParams.target = targetVotingYieldParams.max;\n      }\n    }\n  }\n\n  /**\n   * @notice Updates the target voting yield based on the difference between the target and current\n   *   voting Gold fraction.\n   * @dev Only called directly by the protocol.\n   */\n  function updateTargetVotingYield() external {\n    require(msg.sender == address(0));\n    _updateTargetVotingYield();\n  }\n\n  /**\n   * @notice Calculates the per validator epoch payment and the total rewards to voters.\n   * @return The per validator epoch payment and the total rewards to voters.\n   */\n  function calculateTargetEpochPaymentAndRewards() external view returns (uint256, uint256) {\n    uint256 targetEpochRewards = getTargetEpochRewards();\n    uint256 targetTotalEpochPaymentsInGold = getTargetTotalEpochPaymentsInGold();\n    uint256 targetGoldSupplyIncrease = targetEpochRewards.add(targetTotalEpochPaymentsInGold);\n    FixidityLib.Fraction memory rewardsMultiplier = _getRewardsMultiplier(targetGoldSupplyIncrease);\n    return (\n      FixidityLib.newFixed(targetValidatorEpochPayment).multiply(rewardsMultiplier).fromFixed(),\n      FixidityLib.newFixed(targetEpochRewards).multiply(rewardsMultiplier).fromFixed()\n    );\n  }\n}\n",
  "sourcePath": "/Users/cmcewen/celo/celo-monorepo/packages/protocol/contracts/governance/EpochRewards.sol",
  "compiler": {
    "name": "solc",
    "version": "0.5.8+commit.23d335f2.Emscripten.clang"
  },
  "schemaVersion": "3.0.10",
  "updatedAt": "2019-12-06T00:12:55.068Z",
  "devdoc": {
    "methods": {
      "calculateTargetEpochPaymentAndRewards()": {
        "return": "The per validator epoch payment and the total rewards to voters."
      },
      "checkProofOfPossession(address,bytes,bytes)": {
        "params": {
          "blsKey": "The BLS public key that the validator is using for consensus, should pass proof  of possession. 48 bytes.",
          "blsPop": "The BLS public key proof-of-possession, which consists of a signature on the  account address. 96 bytes.",
          "sender": "The address signed by the BLS key to generate the proof of possession."
        },
        "return": "True upon success."
      },
      "fractionMulExp(uint256,uint256,uint256,uint256,uint256,uint256)": {
        "params": {
          "_decimals": "precision",
          "aDenominator": "Denominator of first fraction",
          "aNumerator": "Numerator of first fraction",
          "bDenominator": "Denominator of exponentiated fraction",
          "bNumerator": "Numerator of exponentiated fraction",
          "exponent": "exponent to raise b to"
        },
        "return": "numerator/denominator of the computed quantity (not reduced)."
      },
      "getEpochSize()": {
        "return": "The current epoch size in blocks."
      },
      "getRewardsMultiplier()": {
        "return": "The rewards multiplier based on the current and target Gold supplies."
      },
      "getRewardsMultiplierParameters()": {
        "return": "The max multiplier and under/over spend adjustment factors."
      },
      "getTargetEpochRewards()": {
        "return": "the total target epoch rewards for voters."
      },
      "getTargetGoldTotalSupply()": {
        "return": "The target Gold supply according to the epoch rewards target schedule."
      },
      "getTargetTotalEpochPaymentsInGold()": {
        "return": "The total target epoch payments to validators, converted to Gold."
      },
      "getTargetVotingGoldFraction()": {
        "return": "The percentage of floating Gold voting to target."
      },
      "getTargetVotingYieldParameters()": {
        "return": "The target, max, and adjustment factor for target voting yield."
      },
      "getVotingGoldFraction()": {
        "return": "The fraction of floating Gold being used for voting in validator elections."
      },
      "initialize(address,uint256,uint256,uint256,uint256,uint256,uint256,uint256,uint256)": {
        "details": "Should be called only once.",
        "params": {
          "_targetValidatorEpochPayment": "The target validator epoch payment.",
          "_targetVotingGoldFraction": "The percentage of floating Gold voting to target.",
          "registryAddress": "The address of the registry contract.",
          "rewardsMultiplierMax": "The max multiplier on target epoch rewards.",
          "rewardsMultiplierOverspendAdjustmentFactor": "Adjusts the multiplier on target epoch  rewards when the protocol is running ahead of the target Gold supply.",
          "rewardsMultiplierUnderspendAdjustmentFactor": "Adjusts the multiplier on target epoch  rewards when the protocol is running behind the target Gold supply.",
          "targetVotingYieldAdjustmentFactor": "The target block reward adjustment factor for voters.",
          "targetVotingYieldInitial": "The initial relative target block reward for voters.",
          "targetVotingYieldMax": "The max relative target block reward for voters."
        }
      },
      "isOwner()": {
        "return": "true if `msg.sender` is the owner of the contract."
      },
      "numberValidatorsInCurrentSet()": {
        "return": "Size of the current elected validator set."
      },
      "owner()": {
        "return": "the address of the owner."
      },
      "renounceOwnership()": {
        "details": "Allows the current owner to relinquish control of the contract. It will not be possible to call the functions with the `onlyOwner` modifier anymore."
      },
      "setRegistry(address)": {
        "params": {
          "registryAddress": "The address of a registry contract for routing to other contracts."
        }
      },
      "setRewardsMultiplierParameters(uint256,uint256,uint256)": {
        "params": {
          "max": "The max multiplier on target epoch rewards.",
          "overspendAdjustmentFactor": "Adjusts the multiplier on target epoch rewards when the  protocol is running ahead of the target Gold supply.",
          "underspendAdjustmentFactor": "Adjusts the multiplier on target epoch rewards when the  protocol is running behind the target Gold supply."
        },
        "return": "True upon success."
      },
      "setTargetValidatorEpochPayment(uint256)": {
        "params": {
          "value": "The value in Celo Dollars."
        },
        "return": "True upon success."
      },
      "setTargetVotingGoldFraction(uint256)": {
        "params": {
          "value": "The percentage of floating Gold voting to target."
        },
        "return": "True upon success."
      },
      "setTargetVotingYieldParameters(uint256,uint256)": {
        "params": {
          "adjustmentFactor": "The target block reward adjustment factor for voters.",
          "max": "The max relative target block reward for voters."
        },
        "return": "True upon success."
      },
      "transferOwnership(address)": {
        "details": "Allows the current owner to transfer control of the contract to a newOwner.",
        "params": {
          "newOwner": "The address to transfer ownership to."
        }
      },
      "updateTargetVotingYield()": {
        "details": "Only called directly by the protocol."
      },
      "validatorAddressFromCurrentSet(uint256)": {
        "params": {
          "index": "Index of requested validator in the validator set as sorted by the election."
        },
        "return": "Address of validator at the requested index."
      }
    },
    "title": "Contract for calculating epoch rewards."
  },
  "userdoc": {
    "methods": {
      "calculateTargetEpochPaymentAndRewards()": {
        "notice": "Calculates the per validator epoch payment and the total rewards to voters."
      },
      "checkProofOfPossession(address,bytes,bytes)": {
        "notice": "Checks a BLS proof of possession."
      },
      "fractionMulExp(uint256,uint256,uint256,uint256,uint256,uint256)": {
        "notice": "calculate a * b^x for fractions a, b to `decimals` precision"
      },
      "getEpochSize()": {
        "notice": "Returns the current epoch size in blocks."
      },
      "getRewardsMultiplier()": {
        "notice": "Returns the rewards multiplier based on the current and target Gold supplies."
      },
      "getRewardsMultiplierParameters()": {
        "notice": "Returns the rewards multiplier parameters."
      },
      "getTargetEpochRewards()": {
        "notice": "Returns the total target epoch rewards for voters."
      },
      "getTargetGoldTotalSupply()": {
        "notice": "Returns the target Gold supply according to the epoch rewards target schedule."
      },
      "getTargetTotalEpochPaymentsInGold()": {
        "notice": "Returns the total target epoch payments to validators, converted to Gold."
      },
      "getTargetVotingGoldFraction()": {
        "notice": "Returns the target voting Gold fraction."
      },
      "getTargetVotingYieldParameters()": {
        "notice": "Returns the target voting yield parameters."
      },
      "getVotingGoldFraction()": {
        "notice": "Returns the fraction of floating Gold being used for voting in validator elections."
      },
      "initialize(address,uint256,uint256,uint256,uint256,uint256,uint256,uint256,uint256)": {
        "notice": "Initializes critical variables."
      },
      "numberValidatorsInCurrentSet()": {
        "notice": "Gets the size of the current elected validator set."
      },
      "renounceOwnership()": {
        "notice": "Renouncing ownership will leave the contract without an owner, thereby removing any functionality that is only available to the owner."
      },
      "setRegistry(address)": {
        "notice": "Updates the address pointing to a Registry contract."
      },
      "setRewardsMultiplierParameters(uint256,uint256,uint256)": {
        "notice": "Sets the rewards multiplier parameters."
      },
      "setTargetValidatorEpochPayment(uint256)": {
        "notice": "Sets the target per-epoch payment in Celo Dollars for validators."
      },
      "setTargetVotingGoldFraction(uint256)": {
        "notice": "Sets the target voting Gold fraction."
      },
      "setTargetVotingYieldParameters(uint256,uint256)": {
        "notice": "Sets the target voting yield parameters."
      },
      "updateTargetVotingYield()": {
        "notice": "Updates the target voting yield based on the difference between the target and current  voting Gold fraction."
      },
      "validatorAddressFromCurrentSet(uint256)": {
        "notice": "Gets a validator address from the current validator set."
      }
    }
  }
}