{
  "contractName": "EpochRewardsTest",
  "abi": [
    {
      "constant": true,
      "inputs": [],
      "name": "getTargetEpochRewards",
      "outputs": [
        {
          "name": "",
          "type": "uint256"
        }
      ],
      "payable": false,
      "stateMutability": "view",
      "type": "function"
    },
    {
      "constant": true,
      "inputs": [
        {
          "name": "index",
          "type": "uint256"
        }
      ],
      "name": "validatorAddressFromCurrentSet",
      "outputs": [
        {
          "name": "",
          "type": "address"
        }
      ],
      "payable": false,
      "stateMutability": "view",
      "type": "function"
    },
    {
      "constant": true,
      "inputs": [],
      "name": "initialized",
      "outputs": [
        {
          "name": "",
          "type": "bool"
        }
      ],
      "payable": false,
      "stateMutability": "view",
      "type": "function"
    },
    {
      "constant": true,
      "inputs": [],
      "name": "getTargetVotingYieldParameters",
      "outputs": [
        {
          "name": "",
          "type": "uint256"
        },
        {
          "name": "",
          "type": "uint256"
        },
        {
          "name": "",
          "type": "uint256"
        }
      ],
      "payable": false,
      "stateMutability": "view",
      "type": "function"
    },
    {
      "constant": false,
      "inputs": [
        {
          "name": "sender",
          "type": "address"
        },
        {
          "name": "blsKey",
          "type": "bytes"
        },
        {
          "name": "blsPop",
          "type": "bytes"
        }
      ],
      "name": "checkProofOfPossession",
      "outputs": [
        {
          "name": "",
          "type": "bool"
        }
      ],
      "payable": false,
      "stateMutability": "nonpayable",
      "type": "function"
    },
    {
      "constant": true,
      "inputs": [],
      "name": "getTargetTotalEpochPaymentsInGold",
      "outputs": [
        {
          "name": "",
          "type": "uint256"
        }
      ],
      "payable": false,
      "stateMutability": "view",
      "type": "function"
    },
    {
      "constant": true,
      "inputs": [],
      "name": "getTargetGoldTotalSupply",
      "outputs": [
        {
          "name": "",
          "type": "uint256"
        }
      ],
      "payable": false,
      "stateMutability": "view",
      "type": "function"
    },
    {
      "constant": false,
      "inputs": [
        {
          "name": "max",
          "type": "uint256"
        },
        {
          "name": "adjustmentFactor",
          "type": "uint256"
        }
      ],
      "name": "setTargetVotingYieldParameters",
      "outputs": [
        {
          "name": "",
          "type": "bool"
        }
      ],
      "payable": false,
      "stateMutability": "nonpayable",
      "type": "function"
    },
    {
      "constant": true,
      "inputs": [],
      "name": "getRewardsMultiplierParameters",
      "outputs": [
        {
          "name": "",
          "type": "uint256"
        },
        {
          "name": "",
          "type": "uint256"
        },
        {
          "name": "",
          "type": "uint256"
        }
      ],
      "payable": false,
      "stateMutability": "view",
      "type": "function"
    },
    {
      "constant": false,
      "inputs": [],
      "name": "renounceOwnership",
      "outputs": [],
      "payable": false,
      "stateMutability": "nonpayable",
      "type": "function"
    },
    {
      "constant": true,
      "inputs": [],
      "name": "startTime",
      "outputs": [
        {
          "name": "",
          "type": "uint256"
        }
      ],
      "payable": false,
      "stateMutability": "view",
      "type": "function"
    },
    {
      "constant": true,
      "inputs": [],
      "name": "registry",
      "outputs": [
        {
          "name": "",
          "type": "address"
        }
      ],
      "payable": false,
      "stateMutability": "view",
      "type": "function"
    },
    {
      "constant": false,
      "inputs": [
        {
          "name": "max",
          "type": "uint256"
        },
        {
          "name": "underspendAdjustmentFactor",
          "type": "uint256"
        },
        {
          "name": "overspendAdjustmentFactor",
          "type": "uint256"
        }
      ],
      "name": "setRewardsMultiplierParameters",
      "outputs": [
        {
          "name": "",
          "type": "bool"
        }
      ],
      "payable": false,
      "stateMutability": "nonpayable",
      "type": "function"
    },
    {
      "constant": true,
      "inputs": [],
      "name": "calculateTargetEpochPaymentAndRewards",
      "outputs": [
        {
          "name": "",
          "type": "uint256"
        },
        {
          "name": "",
          "type": "uint256"
        }
      ],
      "payable": false,
      "stateMutability": "view",
      "type": "function"
    },
    {
      "constant": true,
      "inputs": [],
      "name": "owner",
      "outputs": [
        {
          "name": "",
          "type": "address"
        }
      ],
      "payable": false,
      "stateMutability": "view",
      "type": "function"
    },
    {
      "constant": true,
      "inputs": [],
      "name": "isOwner",
      "outputs": [
        {
          "name": "",
          "type": "bool"
        }
      ],
      "payable": false,
      "stateMutability": "view",
      "type": "function"
    },
    {
      "constant": false,
      "inputs": [
        {
          "name": "value",
          "type": "uint256"
        }
      ],
      "name": "setTargetVotingGoldFraction",
      "outputs": [
        {
          "name": "",
          "type": "bool"
        }
      ],
      "payable": false,
      "stateMutability": "nonpayable",
      "type": "function"
    },
    {
      "constant": false,
      "inputs": [
        {
          "name": "value",
          "type": "uint256"
        }
      ],
      "name": "setTargetValidatorEpochPayment",
      "outputs": [
        {
          "name": "",
          "type": "bool"
        }
      ],
      "payable": false,
      "stateMutability": "nonpayable",
      "type": "function"
    },
    {
      "constant": true,
      "inputs": [],
      "name": "getEpochNumber",
      "outputs": [
        {
          "name": "",
          "type": "uint256"
        }
      ],
      "payable": false,
      "stateMutability": "view",
      "type": "function"
    },
    {
      "constant": true,
      "inputs": [],
      "name": "getVotingGoldFraction",
      "outputs": [
        {
          "name": "",
          "type": "uint256"
        }
      ],
      "payable": false,
      "stateMutability": "view",
      "type": "function"
    },
    {
      "constant": false,
      "inputs": [
        {
          "name": "registryAddress",
          "type": "address"
        }
      ],
      "name": "setRegistry",
      "outputs": [],
      "payable": false,
      "stateMutability": "nonpayable",
      "type": "function"
    },
    {
      "constant": true,
      "inputs": [],
      "name": "getTargetVotingGoldFraction",
      "outputs": [
        {
          "name": "",
          "type": "uint256"
        }
      ],
      "payable": false,
      "stateMutability": "view",
      "type": "function"
    },
    {
      "constant": false,
      "inputs": [
        {
          "name": "registryAddress",
          "type": "address"
        },
        {
          "name": "targetVotingYieldInitial",
          "type": "uint256"
        },
        {
          "name": "targetVotingYieldMax",
          "type": "uint256"
        },
        {
          "name": "targetVotingYieldAdjustmentFactor",
          "type": "uint256"
        },
        {
          "name": "rewardsMultiplierMax",
          "type": "uint256"
        },
        {
          "name": "rewardsMultiplierUnderspendAdjustmentFactor",
          "type": "uint256"
        },
        {
          "name": "rewardsMultiplierOverspendAdjustmentFactor",
          "type": "uint256"
        },
        {
          "name": "_targetVotingGoldFraction",
          "type": "uint256"
        },
        {
          "name": "_targetValidatorEpochPayment",
          "type": "uint256"
        }
      ],
      "name": "initialize",
      "outputs": [],
      "payable": false,
      "stateMutability": "nonpayable",
      "type": "function"
    },
    {
      "constant": true,
      "inputs": [],
      "name": "getEpochSize",
      "outputs": [
        {
          "name": "",
          "type": "uint256"
        }
      ],
      "payable": false,
      "stateMutability": "view",
      "type": "function"
    },
    {
      "constant": true,
      "inputs": [],
      "name": "targetValidatorEpochPayment",
      "outputs": [
        {
          "name": "",
          "type": "uint256"
        }
      ],
      "payable": false,
      "stateMutability": "view",
      "type": "function"
    },
    {
      "constant": true,
      "inputs": [
        {
          "name": "aNumerator",
          "type": "uint256"
        },
        {
          "name": "aDenominator",
          "type": "uint256"
        },
        {
          "name": "bNumerator",
          "type": "uint256"
        },
        {
          "name": "bDenominator",
          "type": "uint256"
        },
        {
          "name": "exponent",
          "type": "uint256"
        },
        {
          "name": "_decimals",
          "type": "uint256"
        }
      ],
      "name": "fractionMulExp",
      "outputs": [
        {
          "name": "",
          "type": "uint256"
        },
        {
          "name": "",
          "type": "uint256"
        }
      ],
      "payable": false,
      "stateMutability": "view",
      "type": "function"
    },
    {
      "constant": false,
      "inputs": [
        {
          "name": "newOwner",
          "type": "address"
        }
      ],
      "name": "transferOwnership",
      "outputs": [],
      "payable": false,
      "stateMutability": "nonpayable",
      "type": "function"
    },
    {
      "anonymous": false,
      "inputs": [
        {
          "indexed": false,
          "name": "fraction",
          "type": "uint256"
        }
      ],
      "name": "TargetVotingGoldFractionSet",
      "type": "event"
    },
    {
      "anonymous": false,
      "inputs": [
        {
          "indexed": false,
          "name": "payment",
          "type": "uint256"
        }
      ],
      "name": "TargetValidatorEpochPaymentSet",
      "type": "event"
    },
    {
      "anonymous": false,
      "inputs": [
        {
          "indexed": false,
          "name": "max",
          "type": "uint256"
        },
        {
          "indexed": false,
          "name": "adjustmentFactor",
          "type": "uint256"
        }
      ],
      "name": "TargetVotingYieldParametersSet",
      "type": "event"
    },
    {
      "anonymous": false,
      "inputs": [
        {
          "indexed": false,
          "name": "max",
          "type": "uint256"
        },
        {
          "indexed": false,
          "name": "underspendAdjustmentFactor",
          "type": "uint256"
        },
        {
          "indexed": false,
          "name": "overspendAdjustmentFactor",
          "type": "uint256"
        }
      ],
      "name": "RewardsMultiplierParametersSet",
      "type": "event"
    },
    {
      "anonymous": false,
      "inputs": [
        {
          "indexed": true,
          "name": "registryAddress",
          "type": "address"
        }
      ],
      "name": "RegistrySet",
      "type": "event"
    },
    {
      "anonymous": false,
      "inputs": [
        {
          "indexed": true,
          "name": "previousOwner",
          "type": "address"
        },
        {
          "indexed": true,
          "name": "newOwner",
          "type": "address"
        }
      ],
      "name": "OwnershipTransferred",
      "type": "event"
    },
    {
      "constant": true,
      "inputs": [],
      "name": "getRewardsMultiplier",
      "outputs": [
        {
          "name": "",
          "type": "uint256"
        }
      ],
      "payable": false,
      "stateMutability": "view",
      "type": "function"
    },
    {
      "constant": true,
      "inputs": [
        {
          "name": "targetGoldTotalSupplyIncrease",
          "type": "uint256"
        }
      ],
      "name": "getRewardsMultiplier",
      "outputs": [
        {
          "name": "",
          "type": "uint256"
        }
      ],
      "payable": false,
      "stateMutability": "view",
      "type": "function"
    },
    {
      "constant": false,
      "inputs": [],
      "name": "updateTargetVotingYield",
      "outputs": [],
      "payable": false,
      "stateMutability": "nonpayable",
      "type": "function"
    },
    {
      "constant": true,
      "inputs": [],
      "name": "numberValidatorsInCurrentSet",
      "outputs": [
        {
          "name": "",
          "type": "uint256"
        }
      ],
      "payable": false,
      "stateMutability": "view",
      "type": "function"
    },
    {
      "constant": false,
      "inputs": [
        {
          "name": "value",
          "type": "uint256"
        }
      ],
      "name": "setNumberValidatorsInCurrentSet",
      "outputs": [],
      "payable": false,
      "stateMutability": "nonpayable",
      "type": "function"
    }
  ],
  "bytecode": "0x60806040526000600255336000806101000a81548173ffffffffffffffffffffffffffffffffffffffff021916908373ffffffffffffffffffffffffffffffffffffffff1602179055506000809054906101000a900473ffffffffffffffffffffffffffffffffffffffff1673ffffffffffffffffffffffffffffffffffffffff16600073ffffffffffffffffffffffffffffffffffffffff167f8be0079c531659141344cd1fd0a4f28419497f9722a3daafe3b4186f6b6457e060405160405180910390a3612b7e806100d46000396000f3fe608060405234801561001057600080fd5b50600436106101f05760003560e01c80638aaf69941161010f578063a91ee0dc116100a2578063df4da46111610071578063df4da461146108e3578063e185aaa814610901578063ec6830721461091f578063f2fde38b1461099a576101f0565b8063a91ee0dc146107be578063ae098de214610802578063d114e6fc14610820578063d632994c146108b5576101f0565b806394028384116100de57806394028384146106f657806396c3d2fd1461073c5780639a7b3be714610782578063a1b95962146107a0576101f0565b80638aaf69941461065b5780638da5cb5b146106805780638f32d59b146106ca57806392ecd745146106ec576101f0565b80635918bb581161018757806378e979251161015657806378e979251461057b5780637b103999146105995780638331c1d7146105e357806387ee8a0f1461063d576101f0565b80635918bb58146104b35780635f396e4814610503578063715018a61461052f57806376d92bd214610539576101f0565b8063171af90f116101c3578063171af90f146102c157806323f0ab65146102ed5780634901c725146104775780635049890f14610495576101f0565b80630203ab24146101f5578063118beff11461021357806311fb9e8414610231578063158ef93e1461029f575b600080fd5b6101fd6109de565b6040518082815260200191505060405180910390f35b61021b610a27565b6040518082815260200191505060405180910390f35b61025d6004803603602081101561024757600080fd5b8101908080359060200190929190505050610af1565b604051808273ffffffffffffffffffffffffffffffffffffffff1673ffffffffffffffffffffffffffffffffffffffff16815260200191505060405180910390f35b6102a7610b21565b604051808215151515815260200191505060405180910390f35b6102c9610b34565b60405180848152602001838152602001828152602001935050505060405180910390f35b61045d6004803603606081101561030357600080fd5b81019080803573ffffffffffffffffffffffffffffffffffffffff1690602001909291908035906020019064010000000081111561034057600080fd5b82018360208201111561035257600080fd5b8035906020019184600183028401116401000000008311171561037457600080fd5b91908080601f016020809104026020016040519081016040528093929190818152602001838380828437600081840152601f19601f820116905080830192505050505050509192919290803590602001906401000000008111156103d757600080fd5b8201836020820111156103e957600080fd5b8035906020019184600183028401116401000000008311171561040b57600080fd5b91908080601f016020809104026020016040519081016040528093929190818152602001838380828437600081840152601f19601f820116905080830192505050505050509192919290505050610bad565b604051808215151515815260200191505060405180910390f35b61047f610d6d565b6040518082815260200191505060405180910390f35b61049d610f7d565b6040518082815260200191505060405180910390f35b6104e9600480360360408110156104c957600080fd5b81019080803590602001909291908035906020019092919050505061105b565b604051808215151515815260200191505060405180910390f35b61050b6111cf565b60405180848152602001838152602001828152602001935050505060405180910390f35b61053761124e565b005b6105656004803603602081101561054f57600080fd5b810190808035906020019092919050505061131e565b6040518082815260200191505060405180910390f35b610583611338565b6040518082815260200191505060405180910390f35b6105a161133e565b604051808273ffffffffffffffffffffffffffffffffffffffff1673ffffffffffffffffffffffffffffffffffffffff16815260200191505060405180910390f35b610623600480360360608110156105f957600080fd5b81019080803590602001909291908035906020019092919080359060200190929190505050611364565b604051808215151515815260200191505060405180910390f35b6106456114e5565b6040518082815260200191505060405180910390f35b6106636114ef565b604051808381526020018281526020019250505060405180910390f35b610688611588565b604051808273ffffffffffffffffffffffffffffffffffffffff1673ffffffffffffffffffffffffffffffffffffffff16815260200191505060405180910390f35b6106d26115b1565b604051808215151515815260200191505060405180910390f35b6106f4611608565b005b6107226004803603602081101561070c57600080fd5b8101908080359060200190929190505050611612565b604051808215151515815260200191505060405180910390f35b6107686004803603602081101561075257600080fd5b81019080803590602001909291905050506116c2565b604051808215151515815260200191505060405180910390f35b61078a61172b565b6040518082815260200191505060405180910390f35b6107a8611767565b6040518082815260200191505060405180910390f35b610800600480360360208110156107d457600080fd5b81019080803573ffffffffffffffffffffffffffffffffffffffff1690602001909291905050506119d4565b005b61080a611a6c565b6040518082815260200191505060405180910390f35b6108b3600480360361012081101561083757600080fd5b81019080803573ffffffffffffffffffffffffffffffffffffffff1690602001909291908035906020019092919080359060200190929190803590602001909291908035906020019092919080359060200190929190803590602001909291908035906020019092919080359060200190929190505050611a92565b005b6108e1600480360360208110156108cb57600080fd5b8101908080359060200190929190505050611b31565b005b6108eb611b3b565b6040518082815260200191505060405180910390f35b610909611b66565b6040518082815260200191505060405180910390f35b61097d600480360360c081101561093557600080fd5b81019080803590602001909291908035906020019092919080359060200190929190803590602001909291908035906020019092919080359060200190929190505050611b6c565b604051808381526020018281526020019250505060405180910390f35b6109dc600480360360208110156109b057600080fd5b81019080803573ffffffffffffffffffffffffffffffffffffffff169060200190929190505050611c07565b005b6000806109e9610a27565b905060006109f5610d6d565b90506000610a0c8284611c2490919063ffffffff16565b9050610a1f610a1a82611c43565b611f48565b935050505090565b6000610aec610ae76006600001604051806020016040529081600082015481525050610ad9610a54611f56565b73ffffffffffffffffffffffffffffffffffffffff16631f6042436040518163ffffffff1660e01b815260040160206040518083038186803b158015610a9957600080fd5b505afa158015610aad573d6000803e3d6000fd5b505050506040513d6020811015610ac357600080fd5b8101908080519060200190929190505050612051565b61208f90919063ffffffff16565b6122e1565b905090565b60008060405183815260008060208360fa611388fa60206000604084013e60408201519250505080915050919050565b600060149054906101000a900460ff1681565b60008060008060069050610b5f81600001604051806020016040529081600082015481525050611f48565b610b8082600201604051806020016040529081600082015481525050611f48565b610ba183600101604051806020016040529081600082015481525050611f48565b93509350935050909192565b60008060fb73ffffffffffffffffffffffffffffffffffffffff1660005a90878787604051602001808473ffffffffffffffffffffffffffffffffffffffff1673ffffffffffffffffffffffffffffffffffffffff1660601b815260140183805190602001908083835b60208310610c3a5780518252602082019150602081019050602083039250610c17565b6001836020036101000a03801982511681845116808217855250505050505090500182805190602001908083835b60208310610c8b5780518252602082019150602081019050602083039250610c68565b6001836020036101000a03801982511681845116808217855250505050505090500193505050506040516020818303038152906040526040518082805190602001908083835b60208310610cf45780518252602082019150602081019050602083039250610cd1565b6001836020036101000a038019825116818451168082178552505050505050905001915050600060405180830381858888f193505050503d8060008114610d57576040519150601f19603f3d011682016040523d82523d6000602084013e610d5c565b606091505b505080915050809150509392505050565b600080600160009054906101000a900473ffffffffffffffffffffffffffffffffffffffff1673ffffffffffffffffffffffffffffffffffffffff1663dcf0aaed60405160200180807f537461626c65546f6b656e000000000000000000000000000000000000000000815250600b019050604051602081830303815290604052805190602001206040518263ffffffff1660e01b81526004018082815260200191505060206040518083038186803b158015610e2957600080fd5b505afa158015610e3d573d6000803e3d6000fd5b505050506040513d6020811015610e5357600080fd5b81019080805190602001909291905050509050600080610e71612302565b73ffffffffffffffffffffffffffffffffffffffff1663ef90e1b0846040518263ffffffff1660e01b8152600401808273ffffffffffffffffffffffffffffffffffffffff1673ffffffffffffffffffffffffffffffffffffffff168152602001915050604080518083038186803b158015610eec57600080fd5b505afa158015610f00573d6000803e3d6000fd5b505050506040513d6040811015610f1657600080fd5b81019080805190602001909291908051906020019092919050505091509150610f7582610f6783610f59600a54610f4b6114e5565b6123fd90919063ffffffff16565b6123fd90919063ffffffff16565b61243790919063ffffffff16565b935050505090565b600080610f956002544261245d90919063ffffffff16565b90506201518061016d600f0202811015611047576000610fe96002610fdb6b01f04ef12cb04cf1580000006b033b2e3c9fd0803ce800000061245d90919063ffffffff16565b61243790919063ffffffff16565b9050600061101c6201518061016d600f020261100e85856123fd90919063ffffffff16565b61243790919063ffffffff16565b905061103d6b01f04ef12cb04cf15800000082611c2490919063ffffffff16565b9350505050611058565b600061105257600080fd5b60009150505b90565b60006110656115b1565b61106e57600080fd5b6110906006600201604051806020016040529081600082015481525050611f48565b831415806110bf57506110bb6006600101604051806020016040529081600082015481525050611f48565b8214155b6110c857600080fd5b6110d18361247d565b6006600201600082015181600001559050506110ec8261247d565b60066001016000820151816000015590505061113161110961249b565b60066002016040518060200160405290816000820154815250506124c190919063ffffffff16565b611186576040517f08c379a000000000000000000000000000000000000000000000000000000000815260040180806020018281038252602f815260200180612b24602f913960400191505060405180910390fd5b7f1b76e38f3fdd1f284ed4d47c9d50ff407748c516ff9761616ff638c2331076258383604051808381526020018281526020019250505060405180910390a16001905092915050565b600080600080600390506111fa81600201604051806020016040529081600082015481525050611f48565b61121e82600001600001604051806020016040529081600082015481525050611f48565b61124283600001600101604051806020016040529081600082015481525050611f48565b93509350935050909192565b6112566115b1565b61125f57600080fd5b600073ffffffffffffffffffffffffffffffffffffffff166000809054906101000a900473ffffffffffffffffffffffffffffffffffffffff1673ffffffffffffffffffffffffffffffffffffffff167f8be0079c531659141344cd1fd0a4f28419497f9722a3daafe3b4186f6b6457e060405160405180910390a360008060006101000a81548173ffffffffffffffffffffffffffffffffffffffff021916908373ffffffffffffffffffffffffffffffffffffffff160217905550565b600061133161132c83611c43565b611f48565b9050919050565b60025481565b600160009054906101000a900473ffffffffffffffffffffffffffffffffffffffff1681565b600061136e6115b1565b61137757600080fd5b6113996003600201604051806020016040529081600082015481525050611f48565b841415806113cb57506113c76003600001600101604051806020016040529081600082015481525050611f48565b8214155b806113fa57506113f66003600001600001604051806020016040529081600082015481525050611f48565b8314155b61140357600080fd5b604051806040016040528060405180604001604052806114228761247d565b81526020016114308661247d565b81525081526020016114418661247d565b815250600360008201518160000160008201518160000160008201518160000155505060208201518160010160008201518160000155505050506020820151816002016000820151816000015550509050507f191445ee0115396c9725b9c642b985d63820ca57d54e42e5eb38faec4022f05d84848460405180848152602001838152602001828152602001935050505060405180910390a1600190509392505050565b6000600b54905090565b60008060006114fc610a27565b90506000611508610d6d565b9050600061151f8284611c2490919063ffffffff16565b9050611529612b10565b61153282611c43565b905061155961155482611546600a54612051565b61208f90919063ffffffff16565b6122e1565b61157c6115778361156988612051565b61208f90919063ffffffff16565b6122e1565b95509550505050509091565b60008060009054906101000a900473ffffffffffffffffffffffffffffffffffffffff16905090565b60008060009054906101000a900473ffffffffffffffffffffffffffffffffffffffff1673ffffffffffffffffffffffffffffffffffffffff163373ffffffffffffffffffffffffffffffffffffffff1614905090565b6116106124d6565b565b600061161c6115b1565b61162557600080fd5b6116446009604051806020016040529081600082015481525050611f48565b8214158015611661575061165e61165961249b565b611f48565b82105b61166a57600080fd5b6116738261247d565b6009600082015181600001559050507fbae2f33c70949fbc7325c98655f3039e5e1c7f774874c99fd4f31ec5f432b159826040518082815260200191505060405180910390a160019050919050565b60006116cc6115b1565b6116d557600080fd5b600a548214156116e457600080fd5b81600a819055507fa21d141963bb2c1064b5376f762d22d3e9c4c51617edcf105bcec0f14e36800c826040518082815260200191505060405180910390a160019050919050565b600080611736611b3b565b9050600081438161174357fe5b049050600082438161175157fe5b06141561175f576001810390505b809250505090565b600080600160009054906101000a900473ffffffffffffffffffffffffffffffffffffffff1673ffffffffffffffffffffffffffffffffffffffff1663dcf0aaed60405160200180807f52657365727665000000000000000000000000000000000000000000000000008152506007019050604051602081830303815290604052805190602001206040518263ffffffff1660e01b81526004018082815260200191505060206040518083038186803b15801561182357600080fd5b505afa158015611837573d6000803e3d6000fd5b505050506040513d602081101561184d57600080fd5b8101908080519060200190929190505050905060006119138273ffffffffffffffffffffffffffffffffffffffff163161188561275d565b73ffffffffffffffffffffffffffffffffffffffff166318160ddd6040518163ffffffff1660e01b815260040160206040518083038186803b1580156118ca57600080fd5b505afa1580156118de573d6000803e3d6000fd5b505050506040513d60208110156118f457600080fd5b810190808051906020019092919050505061245d90919063ffffffff16565b9050600061191f611f56565b73ffffffffffffffffffffffffffffffffffffffff16639a0e7d666040518163ffffffff1660e01b815260040160206040518083038186803b15801561196457600080fd5b505afa158015611978573d6000803e3d6000fd5b505050506040513d602081101561198e57600080fd5b810190808051906020019092919050505090506119cc6119c76119b084612051565b6119b984612051565b61285890919063ffffffff16565b611f48565b935050505090565b6119dc6115b1565b6119e557600080fd5b80600160006101000a81548173ffffffffffffffffffffffffffffffffffffffff021916908373ffffffffffffffffffffffffffffffffffffffff1602179055508073ffffffffffffffffffffffffffffffffffffffff167f27fe5f0c1c3b1ed427cc63d0f05759ffdecf9aec9e18d31ef366fc8a6cb5dc3b60405160405180910390a250565b6000611a8d6009604051806020016040529081600082015481525050611f48565b905090565b600060149054906101000a900460ff1615611aac57600080fd5b6001600060146101000a81548160ff021916908315150217905550611ad0336128cf565b611ad9896119d4565b611ae3878761105b565b50611aef858585611364565b50611af982611612565b50611b03816116c2565b50611b0d8861247d565b60066000016000820151816000015590505042600281905550505050505050505050565b80600b8190555050565b60008060405160008060008360f86103e8fa60206000602084013e6020820151925050508091505090565b600a5481565b60008060008714158015611b81575060008514155b611b8a57600080fd5b6000806040513681016040528a81528960208201528860408201528760608201528660808201528560a082015260008060c48360fc61041afa3d604051818101604052816000823e8260008114611beb578151965060208201519550611bef565b8282fd5b50505050508181935093505050965096945050505050565b611c0f6115b1565b611c1857600080fd5b611c21816128cf565b50565b600080828401905083811015611c3957600080fd5b8091505092915050565b611c4b612b10565b6000611c55610f7d565b90506000611c6161275d565b73ffffffffffffffffffffffffffffffffffffffff166318160ddd6040518163ffffffff1660e01b815260040160206040518083038186803b158015611ca657600080fd5b505afa158015611cba573d6000803e3d6000fd5b505050506040513d6020811015611cd057600080fd5b810190808051906020019092919050505090506000611d16611cfb8684611c2490919063ffffffff16565b6b033b2e3c9fd0803ce800000061245d90919063ffffffff16565b90506000611d39846b033b2e3c9fd0803ce800000061245d90919063ffffffff16565b9050611d43612b10565b611d66611d4f83612051565b611d5885612051565b61285890919063ffffffff16565b9050611d82611d7361249b565b826129c790919063ffffffff16565b15611e6557611d8f612b10565b611dd76003600001600001604051806020016040529081600082015481525050611dc9611dba61249b565b856129dc90919063ffffffff16565b61208f90919063ffffffff16565b9050611de1612b10565b611dfb82611ded61249b565b612a1a90919063ffffffff16565b9050611e296003600201604051806020016040529081600082015481525050826124c190919063ffffffff16565b15611e3d5780975050505050505050611f43565b6003600201604051806020016040529081600082015481525050975050505050505050611f43565b611e7f611e7061249b565b826124c190919063ffffffff16565b15611f3357611e8c612b10565b611ed46003600001600101604051806020016040529081600082015481525050611ec684611eb861249b565b6129dc90919063ffffffff16565b61208f90919063ffffffff16565b9050611ef0611ee161249b565b826124c190919063ffffffff16565b15611f1c57611f0f81611f0161249b565b6129dc90919063ffffffff16565b9650505050505050611f43565b611f26600061247d565b9650505050505050611f43565b611f3b61249b565b955050505050505b919050565b600081600001519050919050565b6000600160009054906101000a900473ffffffffffffffffffffffffffffffffffffffff1673ffffffffffffffffffffffffffffffffffffffff1663dcf0aaed60405160200180807f456c656374696f6e0000000000000000000000000000000000000000000000008152506008019050604051602081830303815290604052805190602001206040518263ffffffff1660e01b81526004018082815260200191505060206040518083038186803b15801561201157600080fd5b505afa158015612025573d6000803e3d6000fd5b505050506040513d602081101561203b57600080fd5b8101908080519060200190929190505050905090565b612059612b10565b612061612a5a565b82111561206d57600080fd5b604051806020016040528069d3c21bcecceda100000084028152509050919050565b612097612b10565b6000836000015114806120ae575060008260000151145b156120ca576040518060200160405280600081525090506122db565b69d3c21bcecceda1000000826000015114156120e8578290506122db565b69d3c21bcecceda100000083600001511415612106578190506122db565b600069d3c21bcecceda100000061211c85612a79565b600001518161212757fe5b049050600061213585612ab0565b600001519050600069d3c21bcecceda100000061215186612a79565b600001518161215c57fe5b049050600061216a86612ab0565b6000015190506000828502905060008514612195578285828161218957fe5b041461219457600080fd5b5b600069d3c21bcecceda100000082029050600082146121ce5769d3c21bcecceda10000008282816121c257fe5b04146121cd57600080fd5b5b80915060008486029050600086146121f657848682816121ea57fe5b04146121f557600080fd5b5b600084880290506000881461221b578488828161220f57fe5b041461221a57600080fd5b5b612223612aed565b878161222b57fe5b049650612236612aed565b858161223e57fe5b0494506000858802905060008814612266578588828161225a57fe5b041461226557600080fd5b5b61226e612b10565b604051806020016040528087815250905061229781604051806020016040528087815250612a1a565b90506122b181604051806020016040528086815250612a1a565b90506122cb81604051806020016040528085815250612a1a565b9050809a50505050505050505050505b92915050565b600069d3c21bcecceda10000008260000151816122fa57fe5b049050919050565b6000600160009054906101000a900473ffffffffffffffffffffffffffffffffffffffff1673ffffffffffffffffffffffffffffffffffffffff1663dcf0aaed60405160200180807f536f727465644f7261636c657300000000000000000000000000000000000000815250600d019050604051602081830303815290604052805190602001206040518263ffffffff1660e01b81526004018082815260200191505060206040518083038186803b1580156123bd57600080fd5b505afa1580156123d1573d6000803e3d6000fd5b505050506040513d60208110156123e757600080fd5b8101908080519060200190929190505050905090565b6000808314156124105760009050612431565b600082840290508284828161242157fe5b041461242c57600080fd5b809150505b92915050565b600080821161244557600080fd5b600082848161245057fe5b0490508091505092915050565b60008282111561246c57600080fd5b600082840390508091505092915050565b612485612b10565b6040518060200160405280838152509050919050565b6124a3612b10565b604051806020016040528069d3c21bcecceda1000000815250905090565b60008160000151836000015110905092915050565b6124de612b10565b6124ee6124e9611767565b61247d565b90506125196009604051806020016040529081600082015481525050826129c790919063ffffffff16565b1561261f57612526612b10565b61254f6009604051806020016040529081600082015481525050836129dc90919063ffffffff16565b9050612559612b10565b61258560066001016040518060200160405290816000820154815250508361208f90919063ffffffff16565b90506125b3600660000160405180602001604052908160008201548152505082612afa90919063ffffffff16565b156125d9576125c26000612051565b600660000160008201518160000155905050612618565b6126058160066000016040518060200160405290816000820154815250506129dc90919063ffffffff16565b6006600001600082015181600001559050505b505061275a565b6126486009604051806020016040529081600082015481525050826124c190919063ffffffff16565b1561275957612655612b10565b61267e8260096040518060200160405290816000820154815250506129dc90919063ffffffff16565b9050612688612b10565b6126b460066001016040518060200160405290816000820154815250508361208f90919063ffffffff16565b90506126e2816006600001604051806020016040529081600082015481525050612a1a90919063ffffffff16565b600660000160008201518160000155905050612739600660020160405180602001604052908160008201548152505060066000016040518060200160405290816000820154815250506129c790919063ffffffff16565b156127565760066002016006600001600082015481600001559050505b50505b5b50565b6000600160009054906101000a900473ffffffffffffffffffffffffffffffffffffffff1673ffffffffffffffffffffffffffffffffffffffff1663dcf0aaed60405160200180807f476f6c64546f6b656e00000000000000000000000000000000000000000000008152506009019050604051602081830303815290604052805190602001206040518263ffffffff1660e01b81526004018082815260200191505060206040518083038186803b15801561281857600080fd5b505afa15801561282c573d6000803e3d6000fd5b505050506040513d602081101561284257600080fd5b8101908080519060200190929190505050905090565b612860612b10565b60008260000151141561287257600080fd5b600069d3c21bcecceda10000008460000151029050836000015169d3c21bcecceda1000000828161289f57fe5b04146128aa57600080fd5b6040518060200160405280846000015183816128c257fe5b0481525091505092915050565b600073ffffffffffffffffffffffffffffffffffffffff168173ffffffffffffffffffffffffffffffffffffffff16141561290957600080fd5b8073ffffffffffffffffffffffffffffffffffffffff166000809054906101000a900473ffffffffffffffffffffffffffffffffffffffff1673ffffffffffffffffffffffffffffffffffffffff167f8be0079c531659141344cd1fd0a4f28419497f9722a3daafe3b4186f6b6457e060405160405180910390a3806000806101000a81548173ffffffffffffffffffffffffffffffffffffffff021916908373ffffffffffffffffffffffffffffffffffffffff16021790555050565b60008160000151836000015111905092915050565b6129e4612b10565b8160000151836000015110156129f957600080fd5b60405180602001604052808360000151856000015103815250905092915050565b612a22612b10565b6000826000015184600001510190508360000151811015612a4257600080fd5b60405180602001604052808281525091505092915050565b60007601357c299a88ea76a58924d52ce4f26a85af186c2b9e74905090565b612a81612b10565b604051806020016040528069d3c21bcecceda100000080856000015181612aa457fe5b04028152509050919050565b612ab8612b10565b604051806020016040528069d3c21bcecceda100000080856000015181612adb57fe5b04028460000151038152509050919050565b600064e8d4a51000905090565b6000816000015183600001511015905092915050565b604051806020016040528060008152509056fe4d61782074617267657420766f74696e67207969656c64206d757374206265206c6f776572207468616e2031303025a165627a7a723058202cc3bcd667daee46d90304edb08eb305ae38cd5a0f12b5676266d16e441ec34e0029",
  "source": "pragma solidity ^0.5.8;\n\nimport \"../EpochRewards.sol\";\n\n/**\n * @title A wrapper around EpochRewards that exposes internal functions for testing.\n */\ncontract EpochRewardsTest is EpochRewards {\n  uint256 private numValidatorsInCurrentSet;\n  function getRewardsMultiplier(uint256 targetGoldTotalSupplyIncrease)\n    external\n    view\n    returns (uint256)\n  {\n    return _getRewardsMultiplier(targetGoldTotalSupplyIncrease).unwrap();\n  }\n\n  function updateTargetVotingYield() external {\n    _updateTargetVotingYield();\n  }\n\n  function numberValidatorsInCurrentSet() public view returns (uint256) {\n    return numValidatorsInCurrentSet;\n  }\n\n  function setNumberValidatorsInCurrentSet(uint256 value) external {\n    numValidatorsInCurrentSet = value;\n  }\n}\n",
  "sourcePath": "/Users/cmcewen/celo/celo-monorepo/packages/protocol/contracts/governance/test/EpochRewardsTest.sol",
  "compiler": {
    "name": "solc",
    "version": "0.5.8+commit.23d335f2.Emscripten.clang"
  },
  "schemaVersion": "3.0.10",
  "updatedAt": "2019-12-06T00:01:35.942Z",
  "devdoc": {
    "methods": {
      "calculateTargetEpochPaymentAndRewards()": {
        "return": "The per validator epoch payment and the total rewards to voters."
      },
      "checkProofOfPossession(address,bytes,bytes)": {
        "params": {
          "blsKey": "The BLS public key that the validator is using for consensus, should pass proof  of possession. 48 bytes.",
          "blsPop": "The BLS public key proof-of-possession, which consists of a signature on the  account address. 96 bytes.",
          "sender": "The address signed by the BLS key to generate the proof of possession."
        },
        "return": "True upon success."
      },
      "fractionMulExp(uint256,uint256,uint256,uint256,uint256,uint256)": {
        "params": {
          "_decimals": "precision",
          "aDenominator": "Denominator of first fraction",
          "aNumerator": "Numerator of first fraction",
          "bDenominator": "Denominator of exponentiated fraction",
          "bNumerator": "Numerator of exponentiated fraction",
          "exponent": "exponent to raise b to"
        },
        "return": "numerator/denominator of the computed quantity (not reduced)."
      },
      "getEpochSize()": {
        "return": "The current epoch size in blocks."
      },
      "getRewardsMultiplier()": {
        "return": "The rewards multiplier based on the current and target Gold supplies."
      },
      "getRewardsMultiplierParameters()": {
        "return": "The max multiplier and under/over spend adjustment factors."
      },
      "getTargetEpochRewards()": {
        "return": "the total target epoch rewards for voters."
      },
      "getTargetGoldTotalSupply()": {
        "return": "The target Gold supply according to the epoch rewards target schedule."
      },
      "getTargetTotalEpochPaymentsInGold()": {
        "return": "The total target epoch payments to validators, converted to Gold."
      },
      "getTargetVotingGoldFraction()": {
        "return": "The percentage of floating Gold voting to target."
      },
      "getTargetVotingYieldParameters()": {
        "return": "The target, max, and adjustment factor for target voting yield."
      },
      "getVotingGoldFraction()": {
        "return": "The fraction of floating Gold being used for voting in validator elections."
      },
      "initialize(address,uint256,uint256,uint256,uint256,uint256,uint256,uint256,uint256)": {
        "details": "Should be called only once.",
        "params": {
          "_targetValidatorEpochPayment": "The target validator epoch payment.",
          "_targetVotingGoldFraction": "The percentage of floating Gold voting to target.",
          "registryAddress": "The address of the registry contract.",
          "rewardsMultiplierMax": "The max multiplier on target epoch rewards.",
          "rewardsMultiplierOverspendAdjustmentFactor": "Adjusts the multiplier on target epoch  rewards when the protocol is running ahead of the target Gold supply.",
          "rewardsMultiplierUnderspendAdjustmentFactor": "Adjusts the multiplier on target epoch  rewards when the protocol is running behind the target Gold supply.",
          "targetVotingYieldAdjustmentFactor": "The target block reward adjustment factor for voters.",
          "targetVotingYieldInitial": "The initial relative target block reward for voters.",
          "targetVotingYieldMax": "The max relative target block reward for voters."
        }
      },
      "isOwner()": {
        "return": "true if `msg.sender` is the owner of the contract."
      },
      "owner()": {
        "return": "the address of the owner."
      },
      "renounceOwnership()": {
        "details": "Allows the current owner to relinquish control of the contract. It will not be possible to call the functions with the `onlyOwner` modifier anymore."
      },
      "setRegistry(address)": {
        "params": {
          "registryAddress": "The address of a registry contract for routing to other contracts."
        }
      },
      "setRewardsMultiplierParameters(uint256,uint256,uint256)": {
        "params": {
          "max": "The max multiplier on target epoch rewards.",
          "overspendAdjustmentFactor": "Adjusts the multiplier on target epoch rewards when the  protocol is running ahead of the target Gold supply.",
          "underspendAdjustmentFactor": "Adjusts the multiplier on target epoch rewards when the  protocol is running behind the target Gold supply."
        },
        "return": "True upon success."
      },
      "setTargetValidatorEpochPayment(uint256)": {
        "params": {
          "value": "The value in Celo Dollars."
        },
        "return": "True upon success."
      },
      "setTargetVotingGoldFraction(uint256)": {
        "params": {
          "value": "The percentage of floating Gold voting to target."
        },
        "return": "True upon success."
      },
      "setTargetVotingYieldParameters(uint256,uint256)": {
        "params": {
          "adjustmentFactor": "The target block reward adjustment factor for voters.",
          "max": "The max relative target block reward for voters."
        },
        "return": "True upon success."
      },
      "transferOwnership(address)": {
        "details": "Allows the current owner to transfer control of the contract to a newOwner.",
        "params": {
          "newOwner": "The address to transfer ownership to."
        }
      },
      "validatorAddressFromCurrentSet(uint256)": {
        "params": {
          "index": "Index of requested validator in the validator set as sorted by the election."
        },
        "return": "Address of validator at the requested index."
      }
    },
    "title": "A wrapper around EpochRewards that exposes internal functions for testing."
  },
  "userdoc": {
    "methods": {
      "calculateTargetEpochPaymentAndRewards()": {
        "notice": "Calculates the per validator epoch payment and the total rewards to voters."
      },
      "checkProofOfPossession(address,bytes,bytes)": {
        "notice": "Checks a BLS proof of possession."
      },
      "fractionMulExp(uint256,uint256,uint256,uint256,uint256,uint256)": {
        "notice": "calculate a * b^x for fractions a, b to `decimals` precision"
      },
      "getEpochSize()": {
        "notice": "Returns the current epoch size in blocks."
      },
      "getRewardsMultiplier()": {
        "notice": "Returns the rewards multiplier based on the current and target Gold supplies."
      },
      "getRewardsMultiplierParameters()": {
        "notice": "Returns the rewards multiplier parameters."
      },
      "getTargetEpochRewards()": {
        "notice": "Returns the total target epoch rewards for voters."
      },
      "getTargetGoldTotalSupply()": {
        "notice": "Returns the target Gold supply according to the epoch rewards target schedule."
      },
      "getTargetTotalEpochPaymentsInGold()": {
        "notice": "Returns the total target epoch payments to validators, converted to Gold."
      },
      "getTargetVotingGoldFraction()": {
        "notice": "Returns the target voting Gold fraction."
      },
      "getTargetVotingYieldParameters()": {
        "notice": "Returns the target voting yield parameters."
      },
      "getVotingGoldFraction()": {
        "notice": "Returns the fraction of floating Gold being used for voting in validator elections."
      },
      "initialize(address,uint256,uint256,uint256,uint256,uint256,uint256,uint256,uint256)": {
        "notice": "Initializes critical variables."
      },
      "renounceOwnership()": {
        "notice": "Renouncing ownership will leave the contract without an owner, thereby removing any functionality that is only available to the owner."
      },
      "setRegistry(address)": {
        "notice": "Updates the address pointing to a Registry contract."
      },
      "setRewardsMultiplierParameters(uint256,uint256,uint256)": {
        "notice": "Sets the rewards multiplier parameters."
      },
      "setTargetValidatorEpochPayment(uint256)": {
        "notice": "Sets the target per-epoch payment in Celo Dollars for validators."
      },
      "setTargetVotingGoldFraction(uint256)": {
        "notice": "Sets the target voting Gold fraction."
      },
      "setTargetVotingYieldParameters(uint256,uint256)": {
        "notice": "Sets the target voting yield parameters."
      },
      "validatorAddressFromCurrentSet(uint256)": {
        "notice": "Gets a validator address from the current validator set."
      }
    }
  }
}