{
  "contractName": "Escrow",
  "abi": [
    {
      "constant": true,
      "inputs": [],
      "name": "initialized",
      "outputs": [
        {
          "name": "",
          "type": "bool"
        }
      ],
      "payable": false,
      "stateMutability": "view",
      "type": "function"
    },
    {
      "constant": true,
      "inputs": [
        {
          "name": "",
          "type": "address"
        }
      ],
      "name": "escrowedPayments",
      "outputs": [
        {
          "name": "recipientIdentifier",
          "type": "bytes32"
        },
        {
          "name": "sender",
          "type": "address"
        },
        {
          "name": "token",
          "type": "address"
        },
        {
          "name": "value",
          "type": "uint256"
        },
        {
          "name": "sentIndex",
          "type": "uint256"
        },
        {
          "name": "receivedIndex",
          "type": "uint256"
        },
        {
          "name": "timestamp",
          "type": "uint256"
        },
        {
          "name": "expirySeconds",
          "type": "uint256"
        },
        {
          "name": "minAttestations",
          "type": "uint256"
        }
      ],
      "payable": false,
      "stateMutability": "view",
      "type": "function"
    },
    {
      "constant": false,
      "inputs": [],
      "name": "renounceOwnership",
      "outputs": [],
      "payable": false,
      "stateMutability": "nonpayable",
      "type": "function"
    },
    {
      "constant": true,
      "inputs": [],
      "name": "registry",
      "outputs": [
        {
          "name": "",
          "type": "address"
        }
      ],
      "payable": false,
      "stateMutability": "view",
      "type": "function"
    },
    {
      "constant": true,
      "inputs": [],
      "name": "owner",
      "outputs": [
        {
          "name": "",
          "type": "address"
        }
      ],
      "payable": false,
      "stateMutability": "view",
      "type": "function"
    },
    {
      "constant": true,
      "inputs": [],
      "name": "isOwner",
      "outputs": [
        {
          "name": "",
          "type": "bool"
        }
      ],
      "payable": false,
      "stateMutability": "view",
      "type": "function"
    },
    {
      "constant": true,
      "inputs": [
        {
          "name": "",
          "type": "bytes32"
        },
        {
          "name": "",
          "type": "uint256"
        }
      ],
      "name": "receivedPaymentIds",
      "outputs": [
        {
          "name": "",
          "type": "address"
        }
      ],
      "payable": false,
      "stateMutability": "view",
      "type": "function"
    },
    {
      "constant": false,
      "inputs": [
        {
          "name": "registryAddress",
          "type": "address"
        }
      ],
      "name": "setRegistry",
      "outputs": [],
      "payable": false,
      "stateMutability": "nonpayable",
      "type": "function"
    },
    {
      "constant": true,
      "inputs": [
        {
          "name": "",
          "type": "address"
        },
        {
          "name": "",
          "type": "uint256"
        }
      ],
      "name": "sentPaymentIds",
      "outputs": [
        {
          "name": "",
          "type": "address"
        }
      ],
      "payable": false,
      "stateMutability": "view",
      "type": "function"
    },
    {
      "constant": false,
      "inputs": [
        {
          "name": "newOwner",
          "type": "address"
        }
      ],
      "name": "transferOwnership",
      "outputs": [],
      "payable": false,
      "stateMutability": "nonpayable",
      "type": "function"
    },
    {
      "anonymous": false,
      "inputs": [
        {
          "indexed": true,
          "name": "from",
          "type": "address"
        },
        {
          "indexed": true,
          "name": "identifier",
          "type": "bytes32"
        },
        {
          "indexed": true,
          "name": "token",
          "type": "address"
        },
        {
          "indexed": false,
          "name": "value",
          "type": "uint256"
        },
        {
          "indexed": false,
          "name": "paymentId",
          "type": "address"
        },
        {
          "indexed": false,
          "name": "minAttestations",
          "type": "uint256"
        }
      ],
      "name": "Transfer",
      "type": "event"
    },
    {
      "anonymous": false,
      "inputs": [
        {
          "indexed": true,
          "name": "identifier",
          "type": "bytes32"
        },
        {
          "indexed": true,
          "name": "to",
          "type": "address"
        },
        {
          "indexed": true,
          "name": "token",
          "type": "address"
        },
        {
          "indexed": false,
          "name": "value",
          "type": "uint256"
        },
        {
          "indexed": false,
          "name": "paymentId",
          "type": "address"
        }
      ],
      "name": "Withdrawal",
      "type": "event"
    },
    {
      "anonymous": false,
      "inputs": [
        {
          "indexed": true,
          "name": "identifier",
          "type": "bytes32"
        },
        {
          "indexed": true,
          "name": "by",
          "type": "address"
        },
        {
          "indexed": true,
          "name": "token",
          "type": "address"
        },
        {
          "indexed": false,
          "name": "value",
          "type": "uint256"
        },
        {
          "indexed": false,
          "name": "paymentId",
          "type": "address"
        }
      ],
      "name": "Revocation",
      "type": "event"
    },
    {
      "anonymous": false,
      "inputs": [
        {
          "indexed": true,
          "name": "registryAddress",
          "type": "address"
        }
      ],
      "name": "RegistrySet",
      "type": "event"
    },
    {
      "anonymous": false,
      "inputs": [
        {
          "indexed": true,
          "name": "previousOwner",
          "type": "address"
        },
        {
          "indexed": true,
          "name": "newOwner",
          "type": "address"
        }
      ],
      "name": "OwnershipTransferred",
      "type": "event"
    },
    {
      "constant": false,
      "inputs": [
        {
          "name": "registryAddress",
          "type": "address"
        }
      ],
      "name": "initialize",
      "outputs": [],
      "payable": false,
      "stateMutability": "nonpayable",
      "type": "function"
    },
    {
      "constant": false,
      "inputs": [
        {
          "name": "identifier",
          "type": "bytes32"
        },
        {
          "name": "token",
          "type": "address"
        },
        {
          "name": "value",
          "type": "uint256"
        },
        {
          "name": "expirySeconds",
          "type": "uint256"
        },
        {
          "name": "paymentId",
          "type": "address"
        },
        {
          "name": "minAttestations",
          "type": "uint256"
        }
      ],
      "name": "transfer",
      "outputs": [
        {
          "name": "",
          "type": "bool"
        }
      ],
      "payable": false,
      "stateMutability": "nonpayable",
      "type": "function"
    },
    {
      "constant": false,
      "inputs": [
        {
          "name": "paymentId",
          "type": "address"
        },
        {
          "name": "v",
          "type": "uint8"
        },
        {
          "name": "r",
          "type": "bytes32"
        },
        {
          "name": "s",
          "type": "bytes32"
        }
      ],
      "name": "withdraw",
      "outputs": [
        {
          "name": "",
          "type": "bool"
        }
      ],
      "payable": false,
      "stateMutability": "nonpayable",
      "type": "function"
    },
    {
      "constant": false,
      "inputs": [
        {
          "name": "paymentId",
          "type": "address"
        }
      ],
      "name": "revoke",
      "outputs": [
        {
          "name": "",
          "type": "bool"
        }
      ],
      "payable": false,
      "stateMutability": "nonpayable",
      "type": "function"
    },
    {
      "constant": true,
      "inputs": [
        {
          "name": "identifier",
          "type": "bytes32"
        }
      ],
      "name": "getReceivedPaymentIds",
      "outputs": [
        {
          "name": "",
          "type": "address[]"
        }
      ],
      "payable": false,
      "stateMutability": "view",
      "type": "function"
    },
    {
      "constant": true,
      "inputs": [
        {
          "name": "sender",
          "type": "address"
        }
      ],
      "name": "getSentPaymentIds",
      "outputs": [
        {
          "name": "",
          "type": "address[]"
        }
      ],
      "payable": false,
      "stateMutability": "view",
      "type": "function"
    }
  ],
  "bytecode": "0x6080604052600160008190555033600160006101000a81548173ffffffffffffffffffffffffffffffffffffffff021916908373ffffffffffffffffffffffffffffffffffffffff160217905550600160009054906101000a900473ffffffffffffffffffffffffffffffffffffffff1673ffffffffffffffffffffffffffffffffffffffff16600073ffffffffffffffffffffffffffffffffffffffff167f8be0079c531659141344cd1fd0a4f28419497f9722a3daafe3b4186f6b6457e060405160405180910390a361256e806100d96000396000f3fe608060405234801561001057600080fd5b50600436106101005760003560e01c80637b10399911610097578063a91ee0dc11610066578063a91ee0dc146105e0578063c4d66de814610624578063e1d9a08014610668578063f2fde38b146106f657610100565b80637b103999146104b25780638da5cb5b146104fc5780638f32d59b146105465780638f80c33e1461056857610100565b8063680d782c116100d3578063680d782c146102c0578063702cb75d146103a8578063715018a61461044c57806374a8f1031461045657610100565b8063158ef93e1461010557806318d46532146101275780633e68d5d7146101c05780635b57b65b1461023d575b600080fd5b61010d61073a565b604051808215151515815260200191505060405180910390f35b6101696004803603602081101561013d57600080fd5b81019080803573ffffffffffffffffffffffffffffffffffffffff16906020019092919050505061074d565b6040518080602001828103825283818151815260200191508051906020019060200280838360005b838110156101ac578082015181840152602081019050610191565b505050509050019250505060405180910390f35b610223600480360360808110156101d657600080fd5b81019080803573ffffffffffffffffffffffffffffffffffffffff169060200190929190803560ff169060200190929190803590602001909291908035906020019092919050505061081a565b604051808215151515815260200191505060405180910390f35b6102696004803603602081101561025357600080fd5b8101908080359060200190929190505050610fe6565b6040518080602001828103825283818151815260200191508051906020019060200280838360005b838110156102ac578082015181840152602081019050610291565b505050509050019250505060405180910390f35b610302600480360360208110156102d657600080fd5b81019080803573ffffffffffffffffffffffffffffffffffffffff169060200190929190505050611087565b604051808a81526020018973ffffffffffffffffffffffffffffffffffffffff1673ffffffffffffffffffffffffffffffffffffffff1681526020018873ffffffffffffffffffffffffffffffffffffffff1673ffffffffffffffffffffffffffffffffffffffff168152602001878152602001868152602001858152602001848152602001838152602001828152602001995050505050505050505060405180910390f35b610432600480360360c08110156103be57600080fd5b8101908080359060200190929190803573ffffffffffffffffffffffffffffffffffffffff1690602001909291908035906020019092919080359060200190929190803573ffffffffffffffffffffffffffffffffffffffff16906020019092919080359060200190929190505050611115565b604051808215151515815260200191505060405180910390f35b6104546116cc565b005b6104986004803603602081101561046c57600080fd5b81019080803573ffffffffffffffffffffffffffffffffffffffff16906020019092919050505061179e565b604051808215151515815260200191505060405180910390f35b6104ba611bf0565b604051808273ffffffffffffffffffffffffffffffffffffffff1673ffffffffffffffffffffffffffffffffffffffff16815260200191505060405180910390f35b610504611c16565b604051808273ffffffffffffffffffffffffffffffffffffffff1673ffffffffffffffffffffffffffffffffffffffff16815260200191505060405180910390f35b61054e611c40565b604051808215151515815260200191505060405180910390f35b61059e6004803603604081101561057e57600080fd5b810190808035906020019092919080359060200190929190505050611c98565b604051808273ffffffffffffffffffffffffffffffffffffffff1673ffffffffffffffffffffffffffffffffffffffff16815260200191505060405180910390f35b610622600480360360208110156105f657600080fd5b81019080803573ffffffffffffffffffffffffffffffffffffffff169060200190929190505050611ce3565b005b6106666004803603602081101561063a57600080fd5b81019080803573ffffffffffffffffffffffffffffffffffffffff169060200190929190505050611d7b565b005b6106b46004803603604081101561067e57600080fd5b81019080803573ffffffffffffffffffffffffffffffffffffffff16906020019092919080359060200190929190505050611dc4565b604051808273ffffffffffffffffffffffffffffffffffffffff1673ffffffffffffffffffffffffffffffffffffffff16815260200191505060405180910390f35b6107386004803603602081101561070c57600080fd5b81019080803573ffffffffffffffffffffffffffffffffffffffff169060200190929190505050611e0f565b005b600160149054906101000a900460ff1681565b6060600560008373ffffffffffffffffffffffffffffffffffffffff1673ffffffffffffffffffffffffffffffffffffffff16815260200190815260200160002080548060200260200160405190810160405280929190818152602001828054801561080e57602002820191906000526020600020905b8160009054906101000a900473ffffffffffffffffffffffffffffffffffffffff1673ffffffffffffffffffffffffffffffffffffffff16815260200190600101908083116107c4575b50505050509050919050565b600060016000808282540192505081905550600080549050600073__Signatures____________________________6396ef41a1338888886040518563ffffffff1660e01b8152600401808573ffffffffffffffffffffffffffffffffffffffff1673ffffffffffffffffffffffffffffffffffffffff1681526020018460ff1660ff16815260200183815260200182815260200194505050505060206040518083038186803b1580156108cd57600080fd5b505af41580156108e1573d6000803e3d6000fd5b505050506040513d60208110156108f757600080fd5b810190808051906020019092919050505090508673ffffffffffffffffffffffffffffffffffffffff168173ffffffffffffffffffffffffffffffffffffffff161461098e576040517f08c379a000000000000000000000000000000000000000000000000000000000815260040180806020018281038252602d8152602001806124e1602d913960400191505060405180910390fd5b61099661235f565b600360008973ffffffffffffffffffffffffffffffffffffffff1673ffffffffffffffffffffffffffffffffffffffff16815260200190815260200160002060405180610120016040529081600082015481526020016001820160009054906101000a900473ffffffffffffffffffffffffffffffffffffffff1673ffffffffffffffffffffffffffffffffffffffff1673ffffffffffffffffffffffffffffffffffffffff1681526020016002820160009054906101000a900473ffffffffffffffffffffffffffffffffffffffff1673ffffffffffffffffffffffffffffffffffffffff1673ffffffffffffffffffffffffffffffffffffffff16815260200160038201548152602001600482015481526020016005820154815260200160068201548152602001600782015481526020016008820154815250509050600073ffffffffffffffffffffffffffffffffffffffff16816040015173ffffffffffffffffffffffffffffffffffffffff1614158015610b1a575060008160600151115b610b8c576040517f08c379a00000000000000000000000000000000000000000000000000000000081526004018080602001828103825260178152602001807f496e76616c69642077697468647261772076616c75652e00000000000000000081525060200191505060405180910390fd5b6000816000015150602060ff161115610dda576000600260009054906101000a900473ffffffffffffffffffffffffffffffffffffffff1673ffffffffffffffffffffffffffffffffffffffff1663dd92723360405160200180807f4174746573746174696f6e730000000000000000000000000000000000000000815250600c019050604051602081830303815290604052805190602001206040518263ffffffff1660e01b81526004018082815260200191505060206040518083038186803b158015610c5a57600080fd5b505afa158015610c6e573d6000803e3d6000fd5b505050506040513d6020811015610c8457600080fd5b8101908080519060200190929190505050905060008173ffffffffffffffffffffffffffffffffffffffff1663596abea58460000151336040518363ffffffff1660e01b8152600401808381526020018273ffffffffffffffffffffffffffffffffffffffff1673ffffffffffffffffffffffffffffffffffffffff16815260200192505050604080518083038186803b158015610d2157600080fd5b505afa158015610d35573d6000803e3d6000fd5b505050506040513d6040811015610d4b57600080fd5b8101908080519060200190929190805190602001909291905050505063ffffffff1690508261010001518167ffffffffffffffff161015610dd7576040517f08c379a00000000000000000000000000000000000000000000000000000000081526004018080602001828103825260488152602001806124996048913960600191505060405180910390fd5b50505b610de388611e2c565b806040015173ffffffffffffffffffffffffffffffffffffffff1663a9059cbb3383606001516040518363ffffffff1660e01b8152600401808373ffffffffffffffffffffffffffffffffffffffff1673ffffffffffffffffffffffffffffffffffffffff16815260200182815260200192505050602060405180830381600087803b158015610e7257600080fd5b505af1158015610e86573d6000803e3d6000fd5b505050506040513d6020811015610e9c57600080fd5b8101908080519060200190929190505050610f1f576040517f08c379a00000000000000000000000000000000000000000000000000000000081526004018080602001828103825260188152602001807f5472616e73666572206e6f74207375636365737366756c2e000000000000000081525060200191505060405180910390fd5b806040015173ffffffffffffffffffffffffffffffffffffffff16816020015173ffffffffffffffffffffffffffffffffffffffff1682600001517fab4f92d461fdbd1af5db2375223d65edb43bcb99129b19ab4954004883e5202584606001518c604051808381526020018273ffffffffffffffffffffffffffffffffffffffff1673ffffffffffffffffffffffffffffffffffffffff1681526020019250505060405180910390a46001935050506000548114610fdd57600080fd5b50949350505050565b60606004600083815260200190815260200160002080548060200260200160405190810160405280929190818152602001828054801561107b57602002820191906000526020600020905b8160009054906101000a900473ffffffffffffffffffffffffffffffffffffffff1673ffffffffffffffffffffffffffffffffffffffff1681526020019060010190808311611031575b50505050509050919050565b60036020528060005260406000206000915090508060000154908060010160009054906101000a900473ffffffffffffffffffffffffffffffffffffffff16908060020160009054906101000a900473ffffffffffffffffffffffffffffffffffffffff16908060030154908060040154908060050154908060060154908060070154908060080154905089565b600060016000808282540192505081905550600080549050600073ffffffffffffffffffffffffffffffffffffffff168773ffffffffffffffffffffffffffffffffffffffff161415801561116a5750600086115b80156111765750600085115b6111e8576040517f08c379a00000000000000000000000000000000000000000000000000000000081526004018080602001828103825260188152602001807f496e76616c6964207472616e7366657220696e707574732e000000000000000081525060200191505060405180910390fd5b6000602060ff16111580156111fe575060008314155b15611254576040517f08c379a00000000000000000000000000000000000000000000000000000000081526004018080602001828103825260438152602001806124566043913960600191505060405180910390fd5b600061130b6001600560003373ffffffffffffffffffffffffffffffffffffffff1673ffffffffffffffffffffffffffffffffffffffff1681526020019081526020016000208790806001815401808255809150509060018203906000526020600020016000909192909190916101000a81548173ffffffffffffffffffffffffffffffffffffffff021916908373ffffffffffffffffffffffffffffffffffffffff16021790555061224590919063ffffffff16565b905060006113986001600460008d81526020019081526020016000208890806001815401808255809150509060018203906000526020600020016000909192909190916101000a81548173ffffffffffffffffffffffffffffffffffffffff021916908373ffffffffffffffffffffffffffffffffffffffff16021790555061224590919063ffffffff16565b90506000600360008873ffffffffffffffffffffffffffffffffffffffff1673ffffffffffffffffffffffffffffffffffffffff16815260200190815260200160002090508a8160000181905550338160010160006101000a81548173ffffffffffffffffffffffffffffffffffffffff021916908373ffffffffffffffffffffffffffffffffffffffff160217905550898160020160006101000a81548173ffffffffffffffffffffffffffffffffffffffff021916908373ffffffffffffffffffffffffffffffffffffffff1602179055508881600301819055508281600401819055508181600501819055504281600601819055508781600701819055508581600801819055508973ffffffffffffffffffffffffffffffffffffffff166323b872dd33308c6040518463ffffffff1660e01b8152600401808473ffffffffffffffffffffffffffffffffffffffff1673ffffffffffffffffffffffffffffffffffffffff1681526020018373ffffffffffffffffffffffffffffffffffffffff1673ffffffffffffffffffffffffffffffffffffffff1681526020018281526020019350505050602060405180830381600087803b15801561155d57600080fd5b505af1158015611571573d6000803e3d6000fd5b505050506040513d602081101561158757600080fd5b810190808051906020019092919050505061160a576040517f08c379a00000000000000000000000000000000000000000000000000000000081526004018080602001828103825260168152602001807f5472616e7366657220756e7375636365737366756c2e0000000000000000000081525060200191505060405180910390fd5b8973ffffffffffffffffffffffffffffffffffffffff168b3373ffffffffffffffffffffffffffffffffffffffff167f0fc2463e82c3b8a7868e75b68a76a144816d772687e5b09f45c02db37eedf4f68c8b8b604051808481526020018373ffffffffffffffffffffffffffffffffffffffff1673ffffffffffffffffffffffffffffffffffffffff168152602001828152602001935050505060405180910390a46001945050505060005481146116c157600080fd5b509695505050505050565b6116d4611c40565b6116dd57600080fd5b600073ffffffffffffffffffffffffffffffffffffffff16600160009054906101000a900473ffffffffffffffffffffffffffffffffffffffff1673ffffffffffffffffffffffffffffffffffffffff167f8be0079c531659141344cd1fd0a4f28419497f9722a3daafe3b4186f6b6457e060405160405180910390a36000600160006101000a81548173ffffffffffffffffffffffffffffffffffffffff021916908373ffffffffffffffffffffffffffffffffffffffff160217905550565b6000600160008082825401925050819055506000805490506117be61235f565b600360008573ffffffffffffffffffffffffffffffffffffffff1673ffffffffffffffffffffffffffffffffffffffff16815260200190815260200160002060405180610120016040529081600082015481526020016001820160009054906101000a900473ffffffffffffffffffffffffffffffffffffffff1673ffffffffffffffffffffffffffffffffffffffff1673ffffffffffffffffffffffffffffffffffffffff1681526020016002820160009054906101000a900473ffffffffffffffffffffffffffffffffffffffff1673ffffffffffffffffffffffffffffffffffffffff1673ffffffffffffffffffffffffffffffffffffffff168152602001600382015481526020016004820154815260200160058201548152602001600682015481526020016007820154815260200160088201548152505090503373ffffffffffffffffffffffffffffffffffffffff16816020015173ffffffffffffffffffffffffffffffffffffffff1614611985576040517f08c379a000000000000000000000000000000000000000000000000000000000815260040180806020018281038252603581526020018061250e6035913960400191505060405180910390fd5b8060e001518160c00151014210156119e8576040517f08c379a000000000000000000000000000000000000000000000000000000000815260040180806020018281038252602a81526020018061242c602a913960400191505060405180910390fd5b6119f184611e2c565b806040015173ffffffffffffffffffffffffffffffffffffffff1663a9059cbb3383606001516040518363ffffffff1660e01b8152600401808373ffffffffffffffffffffffffffffffffffffffff1673ffffffffffffffffffffffffffffffffffffffff16815260200182815260200192505050602060405180830381600087803b158015611a8057600080fd5b505af1158015611a94573d6000803e3d6000fd5b505050506040513d6020811015611aaa57600080fd5b8101908080519060200190929190505050611b2d576040517f08c379a00000000000000000000000000000000000000000000000000000000081526004018080602001828103825260188152602001807f5472616e73666572206e6f74207375636365737366756c2e000000000000000081525060200191505060405180910390fd5b806040015173ffffffffffffffffffffffffffffffffffffffff16816020015173ffffffffffffffffffffffffffffffffffffffff1682600001517f6c464fad8039e6f09ec3a57a29f132cf2573d166833256960e2407eefff8f592846060015188604051808381526020018273ffffffffffffffffffffffffffffffffffffffff1673ffffffffffffffffffffffffffffffffffffffff1681526020019250505060405180910390a460019250506000548114611bea57600080fd5b50919050565b600260009054906101000a900473ffffffffffffffffffffffffffffffffffffffff1681565b6000600160009054906101000a900473ffffffffffffffffffffffffffffffffffffffff16905090565b6000600160009054906101000a900473ffffffffffffffffffffffffffffffffffffffff1673ffffffffffffffffffffffffffffffffffffffff163373ffffffffffffffffffffffffffffffffffffffff1614905090565b60046020528160005260406000208181548110611cb157fe5b906000526020600020016000915091509054906101000a900473ffffffffffffffffffffffffffffffffffffffff1681565b611ceb611c40565b611cf457600080fd5b80600260006101000a81548173ffffffffffffffffffffffffffffffffffffffff021916908373ffffffffffffffffffffffffffffffffffffffff1602179055508073ffffffffffffffffffffffffffffffffffffffff167f27fe5f0c1c3b1ed427cc63d0f05759ffdecf9aec9e18d31ef366fc8a6cb5dc3b60405160405180910390a250565b600160149054906101000a900460ff1615611d9557600080fd5b60018060146101000a81548160ff021916908315150217905550611db833612265565b611dc181611ce3565b50565b60056020528160005260406000208181548110611ddd57fe5b906000526020600020016000915091509054906101000a900473ffffffffffffffffffffffffffffffffffffffff1681565b611e17611c40565b611e2057600080fd5b611e2981612265565b50565b6000600360008373ffffffffffffffffffffffffffffffffffffffff1673ffffffffffffffffffffffffffffffffffffffff16815260200190815260200160002090506000600460008360000154815260200190815260200160002090506000600560008460010160009054906101000a900473ffffffffffffffffffffffffffffffffffffffff1673ffffffffffffffffffffffffffffffffffffffff1673ffffffffffffffffffffffffffffffffffffffff168152602001908152602001600020905082600501546003600084600186805490500381548110611f0d57fe5b9060005260206000200160009054906101000a900473ffffffffffffffffffffffffffffffffffffffff1673ffffffffffffffffffffffffffffffffffffffff1673ffffffffffffffffffffffffffffffffffffffff1681526020019081526020016000206005018190555081600183805490500381548110611f8c57fe5b9060005260206000200160009054906101000a900473ffffffffffffffffffffffffffffffffffffffff1682846005015481548110611fc757fe5b9060005260206000200160006101000a81548173ffffffffffffffffffffffffffffffffffffffff021916908373ffffffffffffffffffffffffffffffffffffffff1602179055506120276001838054905061224590919063ffffffff16565b828161203391906123da565b508260040154600360008360018580549050038154811061205057fe5b9060005260206000200160009054906101000a900473ffffffffffffffffffffffffffffffffffffffff1673ffffffffffffffffffffffffffffffffffffffff1673ffffffffffffffffffffffffffffffffffffffff16815260200190815260200160002060040181905550806001828054905003815481106120cf57fe5b9060005260206000200160009054906101000a900473ffffffffffffffffffffffffffffffffffffffff168184600401548154811061210a57fe5b9060005260206000200160006101000a81548173ffffffffffffffffffffffffffffffffffffffff021916908373ffffffffffffffffffffffffffffffffffffffff16021790555061216a6001828054905061224590919063ffffffff16565b818161217691906123da565b50600360008573ffffffffffffffffffffffffffffffffffffffff1673ffffffffffffffffffffffffffffffffffffffff1681526020019081526020016000206000808201600090556001820160006101000a81549073ffffffffffffffffffffffffffffffffffffffff02191690556002820160006101000a81549073ffffffffffffffffffffffffffffffffffffffff0219169055600382016000905560048201600090556005820160009055600682016000905560078201600090556008820160009055505050505050565b60008282111561225457600080fd5b600082840390508091505092915050565b600073ffffffffffffffffffffffffffffffffffffffff168173ffffffffffffffffffffffffffffffffffffffff16141561229f57600080fd5b8073ffffffffffffffffffffffffffffffffffffffff16600160009054906101000a900473ffffffffffffffffffffffffffffffffffffffff1673ffffffffffffffffffffffffffffffffffffffff167f8be0079c531659141344cd1fd0a4f28419497f9722a3daafe3b4186f6b6457e060405160405180910390a380600160006101000a81548173ffffffffffffffffffffffffffffffffffffffff021916908373ffffffffffffffffffffffffffffffffffffffff16021790555050565b60405180610120016040528060008019168152602001600073ffffffffffffffffffffffffffffffffffffffff168152602001600073ffffffffffffffffffffffffffffffffffffffff1681526020016000815260200160008152602001600081526020016000815260200160008152602001600081525090565b815481835581811115612401578183600052602060002091820191016124009190612406565b5b505050565b61242891905b8082111561242457600081600090555060010161240c565b5090565b9056fe5472616e73616374696f6e206e6f742072656465656d61626c6520666f722073656e646572207965742e496e76616c6964207072697661637920696e707574733a2043616e27742072657175697265206174746573746174696f6e73206966206e6f206964656e74696669657254686973206163636f756e7420646f6573206e6f74206861766520656e6f756768206174746573746174696f6e7320746f2077697468647261772074686973207061796d656e742e4661696c656420746f2070726f7665206f776e657273686970206f6620746865207769746864726177206b65794f6e6c792073656e646572206f66207061796d656e742063616e20617474656d707420746f207265766f6b65207061796d656e742ea165627a7a7230582006a73c20a0afa94aac4c9812ad038732cf97de5d9cdac3d8bec88dce75dec51f0029",
  "source": "pragma solidity ^0.5.3;\n\nimport \"openzeppelin-solidity/contracts/utils/ReentrancyGuard.sol\";\nimport \"openzeppelin-solidity/contracts/math/SafeMath.sol\";\nimport \"openzeppelin-solidity/contracts/ownership/Ownable.sol\";\nimport \"openzeppelin-solidity/contracts/token/ERC20/ERC20.sol\";\n\nimport \"./interfaces/IAttestations.sol\";\nimport \"./interfaces/IEscrow.sol\";\nimport \"../common/Initializable.sol\";\nimport \"../common/UsingRegistry.sol\";\nimport \"../common/Signatures.sol\";\n\ncontract Escrow is IEscrow, ReentrancyGuard, Ownable, Initializable, UsingRegistry {\n  using SafeMath for uint256;\n\n  event Transfer(\n    address indexed from,\n    bytes32 indexed identifier,\n    address indexed token,\n    uint256 value,\n    address paymentId,\n    uint256 minAttestations\n  );\n\n  event Withdrawal(\n    bytes32 indexed identifier,\n    address indexed to,\n    address indexed token,\n    uint256 value,\n    address paymentId\n  );\n\n  event Revocation(\n    bytes32 indexed identifier,\n    address indexed by,\n    address indexed token,\n    uint256 value,\n    address paymentId\n  );\n\n  struct EscrowedPayment {\n    bytes32 recipientIdentifier;\n    address sender;\n    address token;\n    uint256 value;\n    uint256 sentIndex; // Location of this payment in sender's list of sent payments.\n    uint256 receivedIndex; // Location of this payment in receivers's list of received payments.\n    uint256 timestamp;\n    uint256 expirySeconds;\n    uint256 minAttestations;\n  }\n\n  // Maps unique payment IDs to escrowed payments.\n  // These payment IDs are the temporary wallet addresses created with the escrowed payments.\n  mapping(address => EscrowedPayment) public escrowedPayments;\n\n  // Maps receivers' identifiers to a list of received escrowed payment IDs.\n  mapping(bytes32 => address[]) public receivedPaymentIds;\n\n  // Maps senders' addresses to a list of sent escrowed payment IDs.\n  mapping(address => address[]) public sentPaymentIds;\n\n  function initialize(address registryAddress) external initializer {\n    _transferOwnership(msg.sender);\n    setRegistry(registryAddress);\n  }\n\n  /**\n  * @notice Transfer tokens to a specific user. Supports both identity with privacy (an empty\n  *         identifier and 0 minAttestations) and without (with identifier and minAttestations).\n  * @param identifier The hashed identifier of a user to transfer to.\n  * @param token The token to be transferred.\n  * @param value The amount to be transferred.\n  * @param expirySeconds The number of seconds before the sender can revoke the payment.\n  * @param paymentId The address of the temporary wallet associated with this payment. Users must\n  *        prove ownership of the corresponding private key to withdraw from escrow.\n  * @param minAttestations The min number of attestations required to withdraw the payment.\n  * @dev Throws if 'token' or 'value' is 0.\n  * @dev msg.sender needs to have already approved this contract to transfer\n  * @dev If no identifier is given, then minAttestations must be 0.\n  */\n  // solhint-disable-next-line no-simple-event-func-name\n  function transfer(\n    bytes32 identifier,\n    address token,\n    uint256 value,\n    uint256 expirySeconds,\n    address paymentId,\n    uint256 minAttestations\n  ) external nonReentrant returns (bool) {\n    require(token != address(0) && value > 0 && expirySeconds > 0, \"Invalid transfer inputs.\");\n    require(\n      !(identifier.length <= 0 && !(minAttestations == 0)),\n      \"Invalid privacy inputs: Can't require attestations if no identifier\"\n    );\n\n    uint256 sentIndex = sentPaymentIds[msg.sender].push(paymentId).sub(1);\n    uint256 receivedIndex = receivedPaymentIds[identifier].push(paymentId).sub(1);\n\n    EscrowedPayment storage newPayment = escrowedPayments[paymentId];\n    newPayment.recipientIdentifier = identifier;\n    newPayment.sender = msg.sender;\n    newPayment.token = token;\n    newPayment.value = value;\n    newPayment.sentIndex = sentIndex;\n    newPayment.receivedIndex = receivedIndex;\n    // solhint-disable-next-line not-rely-on-time\n    newPayment.timestamp = now;\n    newPayment.expirySeconds = expirySeconds;\n    newPayment.minAttestations = minAttestations;\n\n    require(ERC20(token).transferFrom(msg.sender, address(this), value), \"Transfer unsuccessful.\");\n    emit Transfer(msg.sender, identifier, token, value, paymentId, minAttestations);\n    return true;\n  }\n\n  /**\n  * @notice Withdraws tokens for a verified user.\n  * @param paymentId The ID for the EscrowedPayment struct that contains all relevant information.\n  * @param v The recovery id of the incoming ECDSA signature.\n  * @param r Output value r of the ECDSA signature.\n  * @param s Output value s of the ECDSA signature.\n  * @dev Throws if 'token' or 'value' is 0.\n  * @dev Throws if msg.sender does not prove ownership of the withdraw key.\n  */\n  function withdraw(address paymentId, uint8 v, bytes32 r, bytes32 s)\n    external\n    nonReentrant\n    returns (bool)\n  {\n    address signer = Signatures.getSignerOfAddress(msg.sender, v, r, s);\n    require(signer == paymentId, \"Failed to prove ownership of the withdraw key\");\n    EscrowedPayment memory payment = escrowedPayments[paymentId];\n    require(payment.token != address(0) && payment.value > 0, \"Invalid withdraw value.\");\n\n    if (payment.recipientIdentifier.length > 0) {\n      IAttestations attestations = IAttestations(registry.getAddressFor(ATTESTATIONS_REGISTRY_ID));\n      (uint64 completedAttestations, ) = attestations.getAttestationStats(\n        payment.recipientIdentifier,\n        msg.sender\n      );\n      require(\n        uint256(completedAttestations) >= payment.minAttestations,\n        \"This account does not have enough attestations to withdraw this payment.\"\n      );\n    }\n\n    deletePayment(paymentId);\n\n    require(ERC20(payment.token).transfer(msg.sender, payment.value), \"Transfer not successful.\");\n\n    emit Withdrawal(\n      payment.recipientIdentifier,\n      payment.sender,\n      payment.token,\n      payment.value,\n      paymentId\n    );\n\n    return true;\n  }\n\n  /**\n  * @notice Revokes tokens for a sender who is redeeming a payment after it has expired.\n  * @param paymentId The ID for the EscrowedPayment struct that contains all relevant information.\n  * @dev Throws if 'token' or 'value' is 0.\n  * @dev Throws if msg.sender is not the sender of payment.\n  * @dev Throws if redeem time hasn't been reached yet.\n  */\n  function revoke(address paymentId) external nonReentrant returns (bool) {\n    EscrowedPayment memory payment = escrowedPayments[paymentId];\n    require(payment.sender == msg.sender, \"Only sender of payment can attempt to revoke payment.\");\n    require(\n      // solhint-disable-next-line not-rely-on-time\n      now >= (payment.timestamp + payment.expirySeconds),\n      \"Transaction not redeemable for sender yet.\"\n    );\n\n    deletePayment(paymentId);\n\n    require(ERC20(payment.token).transfer(msg.sender, payment.value), \"Transfer not successful.\");\n\n    emit Revocation(\n      payment.recipientIdentifier,\n      payment.sender,\n      payment.token,\n      payment.value,\n      paymentId\n    );\n\n    return true;\n\n  }\n\n  /**\n  * @notice Gets array of all Escrowed Payments received by identifier.\n  * @param identifier The hash of an identifier of the receiver of the escrowed payment.\n  * @return An array containing all the IDs of the Escrowed Payments that were received\n  * by the specified receiver.\n  */\n  function getReceivedPaymentIds(bytes32 identifier) external view returns (address[] memory) {\n    return receivedPaymentIds[identifier];\n  }\n\n  /**\n  * @notice Gets array of all Escrowed Payment IDs sent by sender.\n  * @param sender The address of the sender of the escrowed payments.\n  * @return An array containing all the IDs of the Escrowed Payments that were sent by the\n  * specified sender.\n  */\n  function getSentPaymentIds(address sender) external view returns (address[] memory) {\n    return sentPaymentIds[sender];\n  }\n\n  /**\n  * @notice Deletes the payment from its receiver's and sender's lists of payments,\n  * and zeroes out all the data in the struct.\n  * @param paymentId The ID of the payment to be deleted.\n  */\n  function deletePayment(address paymentId) private {\n    EscrowedPayment storage payment = escrowedPayments[paymentId];\n    address[] storage received = receivedPaymentIds[payment.recipientIdentifier];\n    address[] storage sent = sentPaymentIds[payment.sender];\n\n    escrowedPayments[received[received.length - 1]].receivedIndex = payment.receivedIndex;\n    received[payment.receivedIndex] = received[received.length - 1];\n    received.length = received.length.sub(1);\n\n    escrowedPayments[sent[sent.length - 1]].sentIndex = payment.sentIndex;\n    sent[payment.sentIndex] = sent[sent.length - 1];\n    sent.length = sent.length.sub(1);\n\n    delete escrowedPayments[paymentId];\n  }\n}\n",
  "sourcePath": "/Users/cmcewen/celo/celo-monorepo/packages/protocol/contracts/identity/Escrow.sol",
  "compiler": {
    "name": "solc",
    "version": "0.5.8+commit.23d335f2.Emscripten.clang"
  },
  "schemaVersion": "3.0.10",
  "updatedAt": "2019-12-06T00:12:55.083Z",
  "devdoc": {
    "methods": {
      "getReceivedPaymentIds(bytes32)": {
        "params": {
          "identifier": "The hash of an identifier of the receiver of the escrowed payment."
        },
        "return": "An array containing all the IDs of the Escrowed Payments that were received by the specified receiver."
      },
      "getSentPaymentIds(address)": {
        "params": {
          "sender": "The address of the sender of the escrowed payments."
        },
        "return": "An array containing all the IDs of the Escrowed Payments that were sent by the specified sender."
      },
      "isOwner()": {
        "return": "true if `msg.sender` is the owner of the contract."
      },
      "owner()": {
        "return": "the address of the owner."
      },
      "renounceOwnership()": {
        "details": "Allows the current owner to relinquish control of the contract. It will not be possible to call the functions with the `onlyOwner` modifier anymore."
      },
      "revoke(address)": {
        "details": "Throws if 'token' or 'value' is 0.Throws if msg.sender is not the sender of payment.Throws if redeem time hasn't been reached yet.",
        "params": {
          "paymentId": "The ID for the EscrowedPayment struct that contains all relevant information."
        }
      },
      "setRegistry(address)": {
        "params": {
          "registryAddress": "The address of a registry contract for routing to other contracts."
        }
      },
      "transfer(bytes32,address,uint256,uint256,address,uint256)": {
        "details": "Throws if 'token' or 'value' is 0.msg.sender needs to have already approved this contract to transferIf no identifier is given, then minAttestations must be 0.",
        "params": {
          "expirySeconds": "The number of seconds before the sender can revoke the payment.",
          "identifier": "The hashed identifier of a user to transfer to.",
          "minAttestations": "The min number of attestations required to withdraw the payment.",
          "paymentId": "The address of the temporary wallet associated with this payment. Users must       prove ownership of the corresponding private key to withdraw from escrow.",
          "token": "The token to be transferred.",
          "value": "The amount to be transferred."
        }
      },
      "transferOwnership(address)": {
        "details": "Allows the current owner to transfer control of the contract to a newOwner.",
        "params": {
          "newOwner": "The address to transfer ownership to."
        }
      },
      "withdraw(address,uint8,bytes32,bytes32)": {
        "details": "Throws if 'token' or 'value' is 0.Throws if msg.sender does not prove ownership of the withdraw key.",
        "params": {
          "paymentId": "The ID for the EscrowedPayment struct that contains all relevant information.",
          "r": "Output value r of the ECDSA signature.",
          "s": "Output value s of the ECDSA signature.",
          "v": "The recovery id of the incoming ECDSA signature."
        }
      }
    }
  },
  "userdoc": {
    "methods": {
      "getReceivedPaymentIds(bytes32)": {
        "notice": "Gets array of all Escrowed Payments received by identifier."
      },
      "getSentPaymentIds(address)": {
        "notice": "Gets array of all Escrowed Payment IDs sent by sender."
      },
      "renounceOwnership()": {
        "notice": "Renouncing ownership will leave the contract without an owner, thereby removing any functionality that is only available to the owner."
      },
      "revoke(address)": {
        "notice": "Revokes tokens for a sender who is redeeming a payment after it has expired."
      },
      "setRegistry(address)": {
        "notice": "Updates the address pointing to a Registry contract."
      },
      "transfer(bytes32,address,uint256,uint256,address,uint256)": {
        "notice": "Transfer tokens to a specific user. Supports both identity with privacy (an empty        identifier and 0 minAttestations) and without (with identifier and minAttestations)."
      },
      "withdraw(address,uint8,bytes32,bytes32)": {
        "notice": "Withdraws tokens for a verified user."
      }
    }
  }
}