{
  "contractName": "Exchange",
  "abi": [
    {
      "constant": true,
      "inputs": [],
      "name": "frozen",
      "outputs": [
        {
          "name": "",
          "type": "bool"
        }
      ],
      "payable": false,
      "stateMutability": "view",
      "type": "function"
    },
    {
      "constant": true,
      "inputs": [],
      "name": "initialized",
      "outputs": [
        {
          "name": "",
          "type": "bool"
        }
      ],
      "payable": false,
      "stateMutability": "view",
      "type": "function"
    },
    {
      "constant": true,
      "inputs": [],
      "name": "minimumReports",
      "outputs": [
        {
          "name": "",
          "type": "uint256"
        }
      ],
      "payable": false,
      "stateMutability": "view",
      "type": "function"
    },
    {
      "constant": true,
      "inputs": [],
      "name": "stable",
      "outputs": [
        {
          "name": "",
          "type": "address"
        }
      ],
      "payable": false,
      "stateMutability": "view",
      "type": "function"
    },
    {
      "constant": true,
      "inputs": [],
      "name": "stableBucket",
      "outputs": [
        {
          "name": "",
          "type": "uint256"
        }
      ],
      "payable": false,
      "stateMutability": "view",
      "type": "function"
    },
    {
      "constant": true,
      "inputs": [],
      "name": "spread",
      "outputs": [
        {
          "name": "value",
          "type": "uint256"
        }
      ],
      "payable": false,
      "stateMutability": "view",
      "type": "function"
    },
    {
      "constant": false,
      "inputs": [],
      "name": "freeze",
      "outputs": [],
      "payable": false,
      "stateMutability": "nonpayable",
      "type": "function"
    },
    {
      "constant": true,
      "inputs": [],
      "name": "goldBucket",
      "outputs": [
        {
          "name": "",
          "type": "uint256"
        }
      ],
      "payable": false,
      "stateMutability": "view",
      "type": "function"
    },
    {
      "constant": true,
      "inputs": [],
      "name": "updateFrequency",
      "outputs": [
        {
          "name": "",
          "type": "uint256"
        }
      ],
      "payable": false,
      "stateMutability": "view",
      "type": "function"
    },
    {
      "constant": false,
      "inputs": [],
      "name": "unfreeze",
      "outputs": [],
      "payable": false,
      "stateMutability": "nonpayable",
      "type": "function"
    },
    {
      "constant": false,
      "inputs": [],
      "name": "renounceOwnership",
      "outputs": [],
      "payable": false,
      "stateMutability": "nonpayable",
      "type": "function"
    },
    {
      "constant": true,
      "inputs": [],
      "name": "registry",
      "outputs": [
        {
          "name": "",
          "type": "address"
        }
      ],
      "payable": false,
      "stateMutability": "view",
      "type": "function"
    },
    {
      "constant": true,
      "inputs": [],
      "name": "owner",
      "outputs": [
        {
          "name": "",
          "type": "address"
        }
      ],
      "payable": false,
      "stateMutability": "view",
      "type": "function"
    },
    {
      "constant": true,
      "inputs": [],
      "name": "isOwner",
      "outputs": [
        {
          "name": "",
          "type": "bool"
        }
      ],
      "payable": false,
      "stateMutability": "view",
      "type": "function"
    },
    {
      "constant": true,
      "inputs": [],
      "name": "freezer",
      "outputs": [
        {
          "name": "",
          "type": "address"
        }
      ],
      "payable": false,
      "stateMutability": "view",
      "type": "function"
    },
    {
      "constant": false,
      "inputs": [
        {
          "name": "registryAddress",
          "type": "address"
        }
      ],
      "name": "setRegistry",
      "outputs": [],
      "payable": false,
      "stateMutability": "nonpayable",
      "type": "function"
    },
    {
      "constant": true,
      "inputs": [],
      "name": "reserveFraction",
      "outputs": [
        {
          "name": "value",
          "type": "uint256"
        }
      ],
      "payable": false,
      "stateMutability": "view",
      "type": "function"
    },
    {
      "constant": true,
      "inputs": [],
      "name": "lastBucketUpdate",
      "outputs": [
        {
          "name": "",
          "type": "uint256"
        }
      ],
      "payable": false,
      "stateMutability": "view",
      "type": "function"
    },
    {
      "constant": false,
      "inputs": [
        {
          "name": "newOwner",
          "type": "address"
        }
      ],
      "name": "transferOwnership",
      "outputs": [],
      "payable": false,
      "stateMutability": "nonpayable",
      "type": "function"
    },
    {
      "payable": true,
      "stateMutability": "payable",
      "type": "fallback"
    },
    {
      "anonymous": false,
      "inputs": [
        {
          "indexed": true,
          "name": "exchanger",
          "type": "address"
        },
        {
          "indexed": false,
          "name": "sellAmount",
          "type": "uint256"
        },
        {
          "indexed": false,
          "name": "buyAmount",
          "type": "uint256"
        },
        {
          "indexed": false,
          "name": "soldGold",
          "type": "bool"
        }
      ],
      "name": "Exchanged",
      "type": "event"
    },
    {
      "anonymous": false,
      "inputs": [
        {
          "indexed": false,
          "name": "updateFrequency",
          "type": "uint256"
        }
      ],
      "name": "UpdateFrequencySet",
      "type": "event"
    },
    {
      "anonymous": false,
      "inputs": [
        {
          "indexed": false,
          "name": "minimumReports",
          "type": "uint256"
        }
      ],
      "name": "MinimumReportsSet",
      "type": "event"
    },
    {
      "anonymous": false,
      "inputs": [
        {
          "indexed": false,
          "name": "stable",
          "type": "address"
        }
      ],
      "name": "StableTokenSet",
      "type": "event"
    },
    {
      "anonymous": false,
      "inputs": [
        {
          "indexed": false,
          "name": "spread",
          "type": "uint256"
        }
      ],
      "name": "SpreadSet",
      "type": "event"
    },
    {
      "anonymous": false,
      "inputs": [
        {
          "indexed": false,
          "name": "reserveFraction",
          "type": "uint256"
        }
      ],
      "name": "ReserveFractionSet",
      "type": "event"
    },
    {
      "anonymous": false,
      "inputs": [
        {
          "indexed": true,
          "name": "registryAddress",
          "type": "address"
        }
      ],
      "name": "RegistrySet",
      "type": "event"
    },
    {
      "anonymous": false,
      "inputs": [
        {
          "indexed": true,
          "name": "previousOwner",
          "type": "address"
        },
        {
          "indexed": true,
          "name": "newOwner",
          "type": "address"
        }
      ],
      "name": "OwnershipTransferred",
      "type": "event"
    },
    {
      "constant": false,
      "inputs": [
        {
          "name": "registryAddress",
          "type": "address"
        },
        {
          "name": "_freezer",
          "type": "address"
        },
        {
          "name": "stableToken",
          "type": "address"
        },
        {
          "name": "_spread",
          "type": "uint256"
        },
        {
          "name": "_reserveFraction",
          "type": "uint256"
        },
        {
          "name": "_updateFrequency",
          "type": "uint256"
        },
        {
          "name": "_minimumReports",
          "type": "uint256"
        }
      ],
      "name": "initialize",
      "outputs": [],
      "payable": false,
      "stateMutability": "nonpayable",
      "type": "function"
    },
    {
      "constant": false,
      "inputs": [
        {
          "name": "sellAmount",
          "type": "uint256"
        },
        {
          "name": "minBuyAmount",
          "type": "uint256"
        },
        {
          "name": "sellGold",
          "type": "bool"
        }
      ],
      "name": "exchange",
      "outputs": [
        {
          "name": "",
          "type": "uint256"
        }
      ],
      "payable": false,
      "stateMutability": "nonpayable",
      "type": "function"
    },
    {
      "constant": true,
      "inputs": [
        {
          "name": "sellAmount",
          "type": "uint256"
        },
        {
          "name": "sellGold",
          "type": "bool"
        }
      ],
      "name": "getBuyTokenAmount",
      "outputs": [
        {
          "name": "",
          "type": "uint256"
        }
      ],
      "payable": false,
      "stateMutability": "view",
      "type": "function"
    },
    {
      "constant": true,
      "inputs": [
        {
          "name": "buyAmount",
          "type": "uint256"
        },
        {
          "name": "sellGold",
          "type": "bool"
        }
      ],
      "name": "getSellTokenAmount",
      "outputs": [
        {
          "name": "",
          "type": "uint256"
        }
      ],
      "payable": false,
      "stateMutability": "view",
      "type": "function"
    },
    {
      "constant": true,
      "inputs": [
        {
          "name": "sellGold",
          "type": "bool"
        }
      ],
      "name": "getBuyAndSellBuckets",
      "outputs": [
        {
          "name": "",
          "type": "uint256"
        },
        {
          "name": "",
          "type": "uint256"
        }
      ],
      "payable": false,
      "stateMutability": "view",
      "type": "function"
    },
    {
      "constant": false,
      "inputs": [
        {
          "name": "newUpdateFrequency",
          "type": "uint256"
        }
      ],
      "name": "setUpdateFrequency",
      "outputs": [],
      "payable": false,
      "stateMutability": "nonpayable",
      "type": "function"
    },
    {
      "constant": false,
      "inputs": [
        {
          "name": "newMininumReports",
          "type": "uint256"
        }
      ],
      "name": "setMinimumReports",
      "outputs": [],
      "payable": false,
      "stateMutability": "nonpayable",
      "type": "function"
    },
    {
      "constant": false,
      "inputs": [
        {
          "name": "freezer",
          "type": "address"
        }
      ],
      "name": "setFreezer",
      "outputs": [],
      "payable": false,
      "stateMutability": "nonpayable",
      "type": "function"
    },
    {
      "constant": false,
      "inputs": [
        {
          "name": "newStableToken",
          "type": "address"
        }
      ],
      "name": "setStableToken",
      "outputs": [],
      "payable": false,
      "stateMutability": "nonpayable",
      "type": "function"
    },
    {
      "constant": false,
      "inputs": [
        {
          "name": "newSpread",
          "type": "uint256"
        }
      ],
      "name": "setSpread",
      "outputs": [],
      "payable": false,
      "stateMutability": "nonpayable",
      "type": "function"
    },
    {
      "constant": false,
      "inputs": [
        {
          "name": "newReserveFraction",
          "type": "uint256"
        }
      ],
      "name": "setReserveFraction",
      "outputs": [],
      "payable": false,
      "stateMutability": "nonpayable",
      "type": "function"
    }
  ],
  "bytecode": "0x6080604052600060095533600060016101000a81548173ffffffffffffffffffffffffffffffffffffffff021916908373ffffffffffffffffffffffffffffffffffffffff160217905550600060019054906101000a900473ffffffffffffffffffffffffffffffffffffffff1673ffffffffffffffffffffffffffffffffffffffff16600073ffffffffffffffffffffffffffffffffffffffff167f8be0079c531659141344cd1fd0a4f28419497f9722a3daafe3b4186f6b6457e060405160405180910390a36001600281905550612ad5806100de6000396000f3fe6080604052600436106101cd5760003560e01c80636a5eaf47116100f75780639ed02b5811610095578063db1bc87b11610064578063db1bc87b1461088e578063dda57b93146108df578063e0c8b50a1461090a578063f2fde38b14610935576101cd565b80639ed02b581461076c578063a91ee0dc146107c7578063b66a261c14610818578063d404f7f814610853576101cd565b80637b103999116100d15780637b103999146106385780638da5cb5b1461068f5780638f32d59b146106e65780639271605414610715576101cd565b80636a5eaf471461058e578063715018a6146105c957806378ba9cfd146105e0576101cd565b80632c341fe71161016f57806362a5af3b1161013e57806362a5af3b1461050a57806362f0908414610521578063673ea0861461054c5780636a28f00014610577576101cd565b80632c341fe7146103f85780634a1be6cb146104495780634c0226a2146104845780635c25c76c146104df576101cd565b806322be3de1116101ab57806322be3de11461025857806325ac2de6146102af5780632b4656c8146102da5780632bc7d67a14610393576101cd565b8063054f7d9c146101cf578063158ef93e146101fe57806322503ce51461022d575b005b3480156101db57600080fd5b506101e4610986565b604051808215151515815260200191505060405180910390f35b34801561020a57600080fd5b50610213610999565b604051808215151515815260200191505060405180910390f35b34801561023957600080fd5b506102426109ab565b6040518082815260200191505060405180910390f35b34801561026457600080fd5b5061026d6109b1565b604051808273ffffffffffffffffffffffffffffffffffffffff1673ffffffffffffffffffffffffffffffffffffffff16815260200191505060405180910390f35b3480156102bb57600080fd5b506102c46109d7565b6040518082815260200191505060405180910390f35b3480156102e657600080fd5b50610391600480360360e08110156102fd57600080fd5b81019080803573ffffffffffffffffffffffffffffffffffffffff169060200190929190803573ffffffffffffffffffffffffffffffffffffffff169060200190929190803573ffffffffffffffffffffffffffffffffffffffff169060200190929190803590602001909291908035906020019092919080359060200190929190803590602001909291905050506109dd565b005b34801561039f57600080fd5b506103e2600480360360608110156103b657600080fd5b810190808035906020019092919080359060200190929190803515159060200190929190505050610a69565b6040518082815260200191505060405180910390f35b34801561040457600080fd5b506104476004803603602081101561041b57600080fd5b81019080803573ffffffffffffffffffffffffffffffffffffffff16906020019092919050505061132d565b005b34801561045557600080fd5b506104826004803603602081101561046c57600080fd5b810190808035906020019092919050505061134a565b005b34801561049057600080fd5b506104c9600480360360408110156104a757600080fd5b810190808035906020019092919080351515906020019092919050505061139c565b6040518082815260200191505060405180910390f35b3480156104eb57600080fd5b506104f4611463565b6040518082815260200191505060405180910390f35b34801561051657600080fd5b5061051f61146f565b005b34801561052d57600080fd5b506105366114e6565b6040518082815260200191505060405180910390f35b34801561055857600080fd5b506105616114ec565b6040518082815260200191505060405180910390f35b34801561058357600080fd5b5061058c6114f2565b005b34801561059a57600080fd5b506105c7600480360360208110156105b157600080fd5b8101908080359060200190929190505050611569565b005b3480156105d557600080fd5b506105de6115cc565b005b3480156105ec57600080fd5b5061061b6004803603602081101561060357600080fd5b8101908080351515906020019092919050505061169d565b604051808381526020018281526020019250505060405180910390f35b34801561064457600080fd5b5061064d6116ed565b604051808273ffffffffffffffffffffffffffffffffffffffff1673ffffffffffffffffffffffffffffffffffffffff16815260200191505060405180910390f35b34801561069b57600080fd5b506106a4611713565b604051808273ffffffffffffffffffffffffffffffffffffffff1673ffffffffffffffffffffffffffffffffffffffff16815260200191505060405180910390f35b3480156106f257600080fd5b506106fb61173c565b604051808215151515815260200191505060405180910390f35b34801561072157600080fd5b5061072a611793565b604051808273ffffffffffffffffffffffffffffffffffffffff1673ffffffffffffffffffffffffffffffffffffffff16815260200191505060405180910390f35b34801561077857600080fd5b506107b16004803603604081101561078f57600080fd5b81019080803590602001909291908035151590602001909291905050506117b9565b6040518082815260200191505060405180910390f35b3480156107d357600080fd5b50610816600480360360208110156107ea57600080fd5b81019080803573ffffffffffffffffffffffffffffffffffffffff169060200190929190505050611853565b005b34801561082457600080fd5b506108516004803603602081101561083b57600080fd5b81019080803590602001909291905050506118eb565b005b34801561085f57600080fd5b5061088c6004803603602081101561087657600080fd5b810190808035906020019092919050505061194e565b005b34801561089a57600080fd5b506108dd600480360360208110156108b157600080fd5b81019080803573ffffffffffffffffffffffffffffffffffffffff1690602001909291905050506119a0565b005b3480156108eb57600080fd5b506108f4611a58565b6040518082815260200191505060405180910390f35b34801561091657600080fd5b5061091f611a64565b6040518082815260200191505060405180910390f35b34801561094157600080fd5b506109846004803603602081101561095857600080fd5b81019080803573ffffffffffffffffffffffffffffffffffffffff169060200190929190505050611a6a565b005b600360009054906101000a900460ff1681565b6000809054906101000a900460ff1681565b600b5481565b600660009054906101000a900473ffffffffffffffffffffffffffffffffffffffff1681565b60085481565b6000809054906101000a900460ff16156109f657600080fd5b60016000806101000a81548160ff021916908315150217905550610a1933611a87565b610a228661132d565b610a2b87611853565b610a34856119a0565b610a3d846118eb565b610a4683611569565b610a4f8261134a565b610a588161194e565b610a60611b81565b50505050505050565b6000600360009054906101000a900460ff1615610a8557600080fd5b610a8d611b81565b6001600260008282540192505081905550600060025490506000610ab18685611bb4565b905084811015610b0c576040517f08c379a0000000000000000000000000000000000000000000000000000000008152600401808060200182810382526039815260200180612a716039913960400191505060405180910390fd5b6000600160009054906101000a900473ffffffffffffffffffffffffffffffffffffffff1673ffffffffffffffffffffffffffffffffffffffff1663dcf0aaed60405160200180807f52657365727665000000000000000000000000000000000000000000000000008152506007019050604051602081830303815290604052805190602001206040518263ffffffff1660e01b81526004018082815260200191505060206040518083038186803b158015610bc757600080fd5b505afa158015610bdb573d6000803e3d6000fd5b505050506040513d6020811015610bf157600080fd5b810190808051906020019092919050505090508415610f0a57610c1f87600754611c4e90919063ffffffff16565b600781905550610c3a82600854611c6d90919063ffffffff16565b600881905550610c48611c8d565b73ffffffffffffffffffffffffffffffffffffffff166323b872dd33838a6040518463ffffffff1660e01b8152600401808473ffffffffffffffffffffffffffffffffffffffff1673ffffffffffffffffffffffffffffffffffffffff1681526020018373ffffffffffffffffffffffffffffffffffffffff1673ffffffffffffffffffffffffffffffffffffffff1681526020018281526020019350505050602060405180830381600087803b158015610d0257600080fd5b505af1158015610d16573d6000803e3d6000fd5b505050506040513d6020811015610d2c57600080fd5b8101908080519060200190929190505050610daf576040517f08c379a000000000000000000000000000000000000000000000000000000000815260040180806020018281038252601d8152602001807f5472616e73666572206f662073656c6c20746f6b656e206661696c656400000081525060200191505060405180910390fd5b600660009054906101000a900473ffffffffffffffffffffffffffffffffffffffff1673ffffffffffffffffffffffffffffffffffffffff166340c10f1933846040518363ffffffff1660e01b8152600401808373ffffffffffffffffffffffffffffffffffffffff1673ffffffffffffffffffffffffffffffffffffffff16815260200182815260200192505050602060405180830381600087803b158015610e5857600080fd5b505af1158015610e6c573d6000803e3d6000fd5b505050506040513d6020811015610e8257600080fd5b8101908080519060200190929190505050610f05576040517f08c379a000000000000000000000000000000000000000000000000000000000815260040180806020018281038252601b8152602001807f4d696e74206f6620737461626c6520746f6b656e206661696c6564000000000081525060200191505060405180910390fd5b6112b0565b610f1f87600854611c4e90919063ffffffff16565b600881905550610f3a82600754611c6d90919063ffffffff16565b600781905550600660009054906101000a900473ffffffffffffffffffffffffffffffffffffffff1673ffffffffffffffffffffffffffffffffffffffff166323b872dd33308a6040518463ffffffff1660e01b8152600401808473ffffffffffffffffffffffffffffffffffffffff1673ffffffffffffffffffffffffffffffffffffffff1681526020018373ffffffffffffffffffffffffffffffffffffffff1673ffffffffffffffffffffffffffffffffffffffff1681526020018281526020019350505050602060405180830381600087803b15801561101d57600080fd5b505af1158015611031573d6000803e3d6000fd5b505050506040513d602081101561104757600080fd5b81019080805190602001909291905050506110ca576040517f08c379a000000000000000000000000000000000000000000000000000000000815260040180806020018281038252601d8152602001807f5472616e73666572206f662073656c6c20746f6b656e206661696c656400000081525060200191505060405180910390fd5b600660009054906101000a900473ffffffffffffffffffffffffffffffffffffffff1673ffffffffffffffffffffffffffffffffffffffff166342966c68886040518263ffffffff1660e01b815260040180828152602001915050602060405180830381600087803b15801561113f57600080fd5b505af1158015611153573d6000803e3d6000fd5b505050506040513d602081101561116957600080fd5b8101908080519060200190929190505050508073ffffffffffffffffffffffffffffffffffffffff16631c39c7d533846040518363ffffffff1660e01b8152600401808373ffffffffffffffffffffffffffffffffffffffff1673ffffffffffffffffffffffffffffffffffffffff16815260200182815260200192505050602060405180830381600087803b15801561120257600080fd5b505af1158015611216573d6000803e3d6000fd5b505050506040513d602081101561122c57600080fd5b81019080805190602001909291905050506112af576040517f08c379a000000000000000000000000000000000000000000000000000000000815260040180806020018281038252601b8152602001807f5472616e73666572206f6620627579546f6b656e206661696c6564000000000081525060200191505060405180910390fd5b5b3373ffffffffffffffffffffffffffffffffffffffff167f402ac9185b4616422c2794bf5b118bfcc68ed496d52c0d9841dfa114fdeb05ba8884886040518084815260200183815260200182151515158152602001935050505060405180910390a28193505050600254811461132557600080fd5b509392505050565b61133561173c565b61133e57600080fd5b61134781611d88565b50565b61135261173c565b61135b57600080fd5b80600a819055507f90c0a4a142fbfbc2ae8c21f50729a2f4bc56e85a66c1a1b6654f1e85092a54a6816040518082815260200191505060405180910390a150565b60008060006113aa8461169d565b80935081925050506113ba612a43565b6113d56113d08488611dcc90919063ffffffff16565b611e06565b90506113df612a43565b61143b6114126004604051806020016040529081600082015481525050611404611e44565b611e6a90919063ffffffff16565b61142d6114288a87611c6d90919063ffffffff16565b611e06565b611ea890919063ffffffff16565b9050611446816120fa565b61144f836120fa565b8161145657fe5b0494505050505092915050565b60048060000154905081565b600360019054906101000a900473ffffffffffffffffffffffffffffffffffffffff1673ffffffffffffffffffffffffffffffffffffffff163373ffffffffffffffffffffffffffffffffffffffff16146114c957600080fd5b6001600360006101000a81548160ff021916908315150217905550565b60075481565b600a5481565b600360019054906101000a900473ffffffffffffffffffffffffffffffffffffffff1673ffffffffffffffffffffffffffffffffffffffff163373ffffffffffffffffffffffffffffffffffffffff161461154c57600080fd5b6000600360006101000a81548160ff021916908315150217905550565b61157161173c565b61157a57600080fd5b61158381612108565b6005600082015181600001559050507fb690f84efb1d9039c2834effb7bebc792a85bfec7ef84f4b269528454f363ccf816040518082815260200191505060405180910390a150565b6115d461173c565b6115dd57600080fd5b600073ffffffffffffffffffffffffffffffffffffffff16600060019054906101000a900473ffffffffffffffffffffffffffffffffffffffff1673ffffffffffffffffffffffffffffffffffffffff167f8be0079c531659141344cd1fd0a4f28419497f9722a3daafe3b4186f6b6457e060405160405180910390a360008060016101000a81548173ffffffffffffffffffffffffffffffffffffffff021916908373ffffffffffffffffffffffffffffffffffffffff160217905550565b60008060006007549050600060085490506116b6612126565b156116cc576116c3612430565b80925081935050505b84156116df5780829350935050506116e8565b81819350935050505b915091565b600160009054906101000a900473ffffffffffffffffffffffffffffffffffffffff1681565b60008060019054906101000a900473ffffffffffffffffffffffffffffffffffffffff16905090565b60008060019054906101000a900473ffffffffffffffffffffffffffffffffffffffff1673ffffffffffffffffffffffffffffffffffffffff163373ffffffffffffffffffffffffffffffffffffffff1614905090565b600360019054906101000a900473ffffffffffffffffffffffffffffffffffffffff1681565b60008060006117c78461169d565b80935081925050506117d7612a43565b6117e086612469565b90506117ea612a43565b6118056117f684611e06565b83611ea890919063ffffffff16565b905061180f612a43565b61182a8361181c87611e06565b6124c290919063ffffffff16565b9050611835816120fa565b61183e836120fa565b8161184557fe5b049550505050505092915050565b61185b61173c565b61186457600080fd5b80600160006101000a81548173ffffffffffffffffffffffffffffffffffffffff021916908373ffffffffffffffffffffffffffffffffffffffff1602179055508073ffffffffffffffffffffffffffffffffffffffff167f27fe5f0c1c3b1ed427cc63d0f05759ffdecf9aec9e18d31ef366fc8a6cb5dc3b60405160405180910390a250565b6118f361173c565b6118fc57600080fd5b61190581612108565b6004600082015181600001559050507f8946f328efcc515b5cc3282f6cd95e87a6c0d3508421af0b52d4d3620b3e2db3816040518082815260200191505060405180910390a150565b61195661173c565b61195f57600080fd5b80600b819055507f08523596abc266fb46d9c40ddf78fdfd3c08142252833ddce1a2b46f76521035816040518082815260200191505060405180910390a150565b6119a861173c565b6119b157600080fd5b80600660006101000a81548173ffffffffffffffffffffffffffffffffffffffff021916908373ffffffffffffffffffffffffffffffffffffffff1602179055507f119a23392e161a0bc5f9d5f3e2a6040c45b40d43a36973e10ea1de916f3d8a8a81604051808273ffffffffffffffffffffffffffffffffffffffff1673ffffffffffffffffffffffffffffffffffffffff16815260200191505060405180910390a150565b60058060000154905081565b60095481565b611a7261173c565b611a7b57600080fd5b611a8481611a87565b50565b600073ffffffffffffffffffffffffffffffffffffffff168173ffffffffffffffffffffffffffffffffffffffff161415611ac157600080fd5b8073ffffffffffffffffffffffffffffffffffffffff16600060019054906101000a900473ffffffffffffffffffffffffffffffffffffffff1673ffffffffffffffffffffffffffffffffffffffff167f8be0079c531659141344cd1fd0a4f28419497f9722a3daafe3b4186f6b6457e060405160405180910390a380600060016101000a81548173ffffffffffffffffffffffffffffffffffffffff021916908373ffffffffffffffffffffffffffffffffffffffff16021790555050565b611b89612126565b15611bb25742600981905550611b9d612430565b60076000600860008491905055839190505550505b565b6000806000611bc284612502565b8093508192505050611bd2612a43565b611bdb86612469565b9050611be5612a43565b611c00611bf184611e06565b83611ea890919063ffffffff16565b9050611c0a612a43565b611c2583611c1787611e06565b6124c290919063ffffffff16565b9050611c30816120fa565b611c39836120fa565b81611c4057fe5b049550505050505092915050565b600080828401905083811015611c6357600080fd5b8091505092915050565b600082821115611c7c57600080fd5b600082840390508091505092915050565b6000600160009054906101000a900473ffffffffffffffffffffffffffffffffffffffff1673ffffffffffffffffffffffffffffffffffffffff1663dcf0aaed60405160200180807f476f6c64546f6b656e00000000000000000000000000000000000000000000008152506009019050604051602081830303815290604052805190602001206040518263ffffffff1660e01b81526004018082815260200191505060206040518083038186803b158015611d4857600080fd5b505afa158015611d5c573d6000803e3d6000fd5b505050506040513d6020811015611d7257600080fd5b8101908080519060200190929190505050905090565b80600360016101000a81548173ffffffffffffffffffffffffffffffffffffffff021916908373ffffffffffffffffffffffffffffffffffffffff16021790555050565b600080831415611ddf5760009050611e00565b6000828402905082848281611df057fe5b0414611dfb57600080fd5b809150505b92915050565b611e0e612a43565b611e1661252a565b821115611e2257600080fd5b604051806020016040528069d3c21bcecceda100000084028152509050919050565b611e4c612a43565b604051806020016040528069d3c21bcecceda1000000815250905090565b611e72612a43565b816000015183600001511015611e8757600080fd5b60405180602001604052808360000151856000015103815250905092915050565b611eb0612a43565b600083600001511480611ec7575060008260000151145b15611ee3576040518060200160405280600081525090506120f4565b69d3c21bcecceda100000082600001511415611f01578290506120f4565b69d3c21bcecceda100000083600001511415611f1f578190506120f4565b600069d3c21bcecceda1000000611f3585612549565b6000015181611f4057fe5b0490506000611f4e85612580565b600001519050600069d3c21bcecceda1000000611f6a86612549565b6000015181611f7557fe5b0490506000611f8386612580565b6000015190506000828502905060008514611fae5782858281611fa257fe5b0414611fad57600080fd5b5b600069d3c21bcecceda10000008202905060008214611fe75769d3c21bcecceda1000000828281611fdb57fe5b0414611fe657600080fd5b5b809150600084860290506000861461200f578486828161200357fe5b041461200e57600080fd5b5b6000848802905060008814612034578488828161202857fe5b041461203357600080fd5b5b61203c6125bd565b878161204457fe5b04965061204f6125bd565b858161205757fe5b049450600085880290506000881461207f578588828161207357fe5b041461207e57600080fd5b5b612087612a43565b60405180602001604052808781525090506120b0816040518060200160405280878152506124c2565b90506120ca816040518060200160405280868152506124c2565b90506120e4816040518060200160405280858152506124c2565b9050809a50505050505050505050505b92915050565b600081600001519050919050565b612110612a43565b6040518060200160405280838152509050919050565b600080600160009054906101000a900473ffffffffffffffffffffffffffffffffffffffff1673ffffffffffffffffffffffffffffffffffffffff1663dcf0aaed60405160200180807f536f727465644f7261636c657300000000000000000000000000000000000000815250600d019050604051602081830303815290604052805190602001206040518263ffffffff1660e01b81526004018082815260200191505060206040518083038186803b1580156121e257600080fd5b505afa1580156121f6573d6000803e3d6000fd5b505050506040513d602081101561220c57600080fd5b810190808051906020019092919050505090506000612238600a54600954611c4e90919063ffffffff16565b42101590506000600b548373ffffffffffffffffffffffffffffffffffffffff1663bbc66a94600660009054906101000a900473ffffffffffffffffffffffffffffffffffffffff166040518263ffffffff1660e01b8152600401808273ffffffffffffffffffffffffffffffffffffffff1673ffffffffffffffffffffffffffffffffffffffff16815260200191505060206040518083038186803b1580156122e157600080fd5b505afa1580156122f5573d6000803e3d6000fd5b505050506040513d602081101561230b57600080fd5b8101908080519060200190929190505050101590506000612337600a5442611c6d90919063ffffffff16565b8473ffffffffffffffffffffffffffffffffffffffff1663071b48fc600660009054906101000a900473ffffffffffffffffffffffffffffffffffffffff166040518263ffffffff1660e01b8152600401808273ffffffffffffffffffffffffffffffffffffffff1673ffffffffffffffffffffffffffffffffffffffff16815260200191505060206040518083038186803b1580156123d657600080fd5b505afa1580156123ea573d6000803e3d6000fd5b505050506040513d602081101561240057600080fd5b810190808051906020019092919050505011905082801561241e5750815b80156124275750805b94505050505090565b600080600061243d6125ca565b9050600061245b8261244d6127c0565b6129c590919063ffffffff16565b905081819350935050509091565b612471612a43565b6124bb61247d83611e06565b6124ad600460405180602001604052908160008201548152505061249f611e44565b611e6a90919063ffffffff16565b611ea890919063ffffffff16565b9050919050565b6124ca612a43565b60008260000151846000015101905083600001518110156124ea57600080fd5b60405180602001604052808281525091505092915050565b600080821561251a5760085460075491509150612525565b600754600854915091505b915091565b60007601357c299a88ea76a58924d52ce4f26a85af186c2b9e74905090565b612551612a43565b604051806020016040528069d3c21bcecceda10000008085600001518161257457fe5b04028152509050919050565b612588612a43565b604051806020016040528069d3c21bcecceda1000000808560000151816125ab57fe5b04028460000151038152509050919050565b600064e8d4a51000905090565b6000806125d5611c8d565b73ffffffffffffffffffffffffffffffffffffffff166370a08231600160009054906101000a900473ffffffffffffffffffffffffffffffffffffffff1673ffffffffffffffffffffffffffffffffffffffff1663dcf0aaed60405160200180807f52657365727665000000000000000000000000000000000000000000000000008152506007019050604051602081830303815290604052805190602001206040518263ffffffff1660e01b81526004018082815260200191505060206040518083038186803b1580156126a957600080fd5b505afa1580156126bd573d6000803e3d6000fd5b505050506040513d60208110156126d357600080fd5b81019080805190602001909291905050506040518263ffffffff1660e01b8152600401808273ffffffffffffffffffffffffffffffffffffffff1673ffffffffffffffffffffffffffffffffffffffff16815260200191505060206040518083038186803b15801561274457600080fd5b505afa158015612758573d6000803e3d6000fd5b505050506040513d602081101561276e57600080fd5b810190808051906020019092919050505090506127ba6127b561279083611e06565b6005604051806020016040529081600082015481525050611ea890919063ffffffff16565b6129fc565b91505090565b6127c8612a56565b600080600160009054906101000a900473ffffffffffffffffffffffffffffffffffffffff1673ffffffffffffffffffffffffffffffffffffffff1663dcf0aaed60405160200180807f536f727465644f7261636c657300000000000000000000000000000000000000815250600d019050604051602081830303815290604052805190602001206040518263ffffffff1660e01b81526004018082815260200191505060206040518083038186803b15801561288457600080fd5b505afa158015612898573d6000803e3d6000fd5b505050506040513d60208110156128ae57600080fd5b810190808051906020019092919050505073ffffffffffffffffffffffffffffffffffffffff1663ef90e1b0600660009054906101000a900473ffffffffffffffffffffffffffffffffffffffff166040518263ffffffff1660e01b8152600401808273ffffffffffffffffffffffffffffffffffffffff1673ffffffffffffffffffffffffffffffffffffffff168152602001915050604080518083038186803b15801561295c57600080fd5b505afa158015612970573d6000803e3d6000fd5b505050506040513d604081101561298657600080fd5b81019080805190602001909291908051906020019092919050505080925081935050506040518060400160405280838152602001828152509250505090565b60006129f483602001516129e6848660000151611dcc90919063ffffffff16565b612a1d90919063ffffffff16565b905092915050565b600069d3c21bcecceda1000000826000015181612a1557fe5b049050919050565b6000808211612a2b57600080fd5b6000828481612a3657fe5b0490508091505092915050565b6040518060200160405280600081525090565b60405180604001604052806000815260200160008152509056fe43616c63756c6174656420627579416d6f756e7420776173206c657373207468616e20737065636966696564206d696e427579416d6f756e74a165627a7a72305820ffc614e8b873a321cbfdb763d573863ba934d5345bb51f607a96ac7108f78c050029",
  "source": "pragma solidity ^0.5.3;\n\nimport \"openzeppelin-solidity/contracts/utils/ReentrancyGuard.sol\";\nimport \"openzeppelin-solidity/contracts/math/SafeMath.sol\";\nimport \"openzeppelin-solidity/contracts/ownership/Ownable.sol\";\nimport \"./interfaces/IExchange.sol\";\nimport \"./interfaces/ISortedOracles.sol\";\nimport \"./interfaces/IReserve.sol\";\nimport \"./interfaces/IStableToken.sol\";\nimport \"../common/FractionUtil.sol\";\nimport \"../common/Initializable.sol\";\nimport \"../common/FixidityLib.sol\";\nimport \"../baklava/Freezable.sol\";\nimport \"../common/UsingRegistry.sol\";\n\n/**\n * @title Contract that allows to exchange StableToken for GoldToken and vice versa\n * using a Constant Product Market Maker Model\n */\ncontract Exchange is IExchange, Initializable, Ownable, UsingRegistry, ReentrancyGuard, Freezable {\n  using SafeMath for uint256;\n  using FractionUtil for FractionUtil.Fraction;\n  using FixidityLib for FixidityLib.Fraction;\n\n  event Exchanged(address indexed exchanger, uint256 sellAmount, uint256 buyAmount, bool soldGold);\n\n  event UpdateFrequencySet(uint256 updateFrequency);\n\n  event MinimumReportsSet(uint256 minimumReports);\n\n  event StableTokenSet(address stable);\n\n  event SpreadSet(uint256 spread);\n\n  event ReserveFractionSet(uint256 reserveFraction);\n\n  FixidityLib.Fraction public spread;\n\n  // Fraction of the Reserve that is committed to the gold bucket when updating\n  // buckets.\n  FixidityLib.Fraction public reserveFraction;\n\n  address public stable;\n\n  // Size of the Uniswap gold bucket\n  uint256 public goldBucket;\n  // Size of the Uniswap stable token bucket\n  uint256 public stableBucket;\n\n  uint256 public lastBucketUpdate = 0;\n  uint256 public updateFrequency;\n  uint256 public minimumReports;\n\n  modifier updateBucketsIfNecessary() {\n    _updateBucketsIfNecessary();\n    _;\n  }\n\n  // TODO: Remove this one with https://github.com/celo-org/celo-monorepo/issues/2000\n  // solhint-disable-next-line\n  function() external payable {}\n\n  /**\n   * @dev Initializes the exchange, setting initial bucket sizes\n   * @param registryAddress Address of the Registry contract\n   * @param stableToken Address of the stable token\n   * @param _spread Spread charged on exchanges\n   * @param _reserveFraction Fraction to commit to the gold bucket\n   * @param _updateFrequency The time period that needs to elapse between bucket\n   * updates\n   * @param _minimumReports The minimum number of fresh reports that need to be\n   * present in the oracle to update buckets\n   * commit to the gold bucket\n   */\n  function initialize(\n    address registryAddress,\n    address _freezer,\n    address stableToken,\n    uint256 _spread,\n    uint256 _reserveFraction,\n    uint256 _updateFrequency,\n    uint256 _minimumReports\n  ) external initializer {\n    _transferOwnership(msg.sender);\n    setFreezer(_freezer);\n    setRegistry(registryAddress);\n    setStableToken(stableToken);\n    setSpread(_spread);\n    setReserveFraction(_reserveFraction);\n    setUpdateFrequency(_updateFrequency);\n    setMinimumReports(_minimumReports);\n    _updateBucketsIfNecessary();\n  }\n\n  /**\n   * @dev Exchanges sellAmount of sellToken in exchange for at least minBuyAmount of buyToken\n   * Requires the sellAmount to have been approved to the exchange\n   * @param sellAmount The amount of sellToken the user is selling to the exchange\n   * @param minBuyAmount The minimum amount of buyToken the user has to receive for this\n   * transaction to succeed\n   * @param sellGold `true` if gold is the sell token\n   * @return The amount of buyToken that was transfered\n   * @dev This function can be frozen using the Freezable interface.\n   */\n  function exchange(uint256 sellAmount, uint256 minBuyAmount, bool sellGold)\n    external\n    onlyWhenNotFrozen\n    updateBucketsIfNecessary\n    nonReentrant\n    returns (uint256)\n  {\n    uint256 buyAmount = _getBuyTokenAmount(sellAmount, sellGold);\n\n    require(buyAmount >= minBuyAmount, \"Calculated buyAmount was less than specified minBuyAmount\");\n\n    IReserve reserve = IReserve(registry.getAddressForOrDie(RESERVE_REGISTRY_ID));\n\n    if (sellGold) {\n      goldBucket = goldBucket.add(sellAmount);\n      stableBucket = stableBucket.sub(buyAmount);\n      require(\n        getGoldToken().transferFrom(msg.sender, address(reserve), sellAmount),\n        \"Transfer of sell token failed\"\n      );\n      require(IStableToken(stable).mint(msg.sender, buyAmount), \"Mint of stable token failed\");\n    } else {\n      stableBucket = stableBucket.add(sellAmount);\n      goldBucket = goldBucket.sub(buyAmount);\n      require(\n        IERC20Token(stable).transferFrom(msg.sender, address(this), sellAmount),\n        \"Transfer of sell token failed\"\n      );\n      IStableToken(stable).burn(sellAmount);\n\n      require(reserve.transferGold(msg.sender, buyAmount), \"Transfer of buyToken failed\");\n    }\n\n    emit Exchanged(msg.sender, sellAmount, buyAmount, sellGold);\n    return buyAmount;\n  }\n\n  /**\n   * @dev Returns the amount of buyToken a user would get for sellAmount of sellToken\n   * @param sellAmount The amount of sellToken the user is selling to the exchange\n   * @param sellGold `true` if gold is the sell token\n   * @return The corresponding buyToken amount.\n   */\n  function getBuyTokenAmount(uint256 sellAmount, bool sellGold) external view returns (uint256) {\n    uint256 sellTokenBucket;\n    uint256 buyTokenBucket;\n    (buyTokenBucket, sellTokenBucket) = getBuyAndSellBuckets(sellGold);\n\n    FixidityLib.Fraction memory reducedSellAmount = getReducedSellAmount(sellAmount);\n    FixidityLib.Fraction memory numerator = reducedSellAmount.multiply(\n      FixidityLib.newFixed(buyTokenBucket)\n    );\n    FixidityLib.Fraction memory denominator = FixidityLib.newFixed(sellTokenBucket).add(\n      reducedSellAmount\n    );\n\n    // Can't use FixidityLib.divide because denominator can easily be greater\n    // than maxFixedDivisor.\n    // Fortunately, we expect an integer result, so integer division gives us as\n    // much precision as we could hope for.\n    return numerator.unwrap() / denominator.unwrap();\n  }\n\n  /**\n   * @dev Returns the amount of sellToken a user would need to exchange to receive buyAmount of\n   * buyToken.\n   * @param buyAmount The amount of buyToken the user would like to purchase.\n   * @param sellGold `true` if gold is the sell token\n   * @return The corresponding sellToken amount.\n   */\n  function getSellTokenAmount(uint256 buyAmount, bool sellGold) external view returns (uint256) {\n    uint256 sellTokenBucket;\n    uint256 buyTokenBucket;\n    (buyTokenBucket, sellTokenBucket) = getBuyAndSellBuckets(sellGold);\n\n    FixidityLib.Fraction memory numerator = FixidityLib.newFixed(buyAmount.mul(sellTokenBucket));\n    FixidityLib.Fraction memory denominator = FixidityLib\n      .newFixed(buyTokenBucket.sub(buyAmount))\n      .multiply(FixidityLib.fixed1().subtract(spread));\n\n    // See comment in getBuyTokenAmount\n    return numerator.unwrap() / denominator.unwrap();\n  }\n\n  /**\n   * @notice Returns the buy token and sell token bucket sizes, in order. The ratio of\n   * the two also represents the exchange rate between the two.\n   * @param sellGold `true` if gold is the sell token\n   * @return (buyTokenBucket, sellTokenBucket)\n   */\n  function getBuyAndSellBuckets(bool sellGold) public view returns (uint256, uint256) {\n    uint256 currentGoldBucket = goldBucket;\n    uint256 currentStableBucket = stableBucket;\n\n    if (shouldUpdateBuckets()) {\n      (currentGoldBucket, currentStableBucket) = getUpdatedBuckets();\n    }\n\n    if (sellGold) {\n      return (currentStableBucket, currentGoldBucket);\n    } else {\n      return (currentGoldBucket, currentStableBucket);\n    }\n  }\n\n  /**\n    * @notice Allows owner to set the update frequency\n    * @param newUpdateFrequency The new update frequency\n    */\n  function setUpdateFrequency(uint256 newUpdateFrequency) public onlyOwner {\n    updateFrequency = newUpdateFrequency;\n    emit UpdateFrequencySet(newUpdateFrequency);\n  }\n\n  /**\n    * @notice Allows owner to set the minimum number of reports required\n    * @param newMininumReports The new update minimum number of reports required\n    */\n  function setMinimumReports(uint256 newMininumReports) public onlyOwner {\n    minimumReports = newMininumReports;\n    emit MinimumReportsSet(newMininumReports);\n  }\n\n  function setFreezer(address freezer) public onlyOwner {\n    _setFreezer(freezer);\n  }\n\n  /**\n    * @notice Allows owner to set the Stable Token address\n    * @param newStableToken The new address for Stable Token\n    */\n  function setStableToken(address newStableToken) public onlyOwner {\n    stable = newStableToken;\n    emit StableTokenSet(newStableToken);\n  }\n\n  /**\n    * @notice Allows owner to set the spread\n    * @param newSpread The new value for the spread\n    */\n  function setSpread(uint256 newSpread) public onlyOwner {\n    spread = FixidityLib.wrap(newSpread);\n    emit SpreadSet(newSpread);\n  }\n\n  /**\n    * @notice Allows owner to set the Reserve Fraction\n    * @param newReserveFraction The new value for the reserve fraction\n    */\n  function setReserveFraction(uint256 newReserveFraction) public onlyOwner {\n    reserveFraction = FixidityLib.wrap(newReserveFraction);\n    emit ReserveFractionSet(newReserveFraction);\n  }\n\n  /**\n   * @notice Returns the sell token and buy token bucket sizes, in order. The ratio of\n   * the two also represents the exchange rate between the two.\n   * @param sellGold `true` if gold is the sell token\n   * @return (sellTokenBucket, buyTokenBucket)\n   */\n  function _getBuyAndSellBuckets(bool sellGold) private view returns (uint256, uint256) {\n    if (sellGold) {\n      return (stableBucket, goldBucket);\n    } else {\n      return (goldBucket, stableBucket);\n    }\n  }\n\n  /**\n   * @dev Returns the amount of buyToken a user would get for sellAmount of sellToken\n   * @param sellAmount The amount of sellToken the user is selling to the exchange\n   * @param sellGold `true` if gold is the sell token\n   * @return The corresponding buyToken amount.\n   */\n  function _getBuyTokenAmount(uint256 sellAmount, bool sellGold) private view returns (uint256) {\n    uint256 sellTokenBucket;\n    uint256 buyTokenBucket;\n    (buyTokenBucket, sellTokenBucket) = _getBuyAndSellBuckets(sellGold);\n\n    FixidityLib.Fraction memory reducedSellAmount = getReducedSellAmount(sellAmount);\n    FixidityLib.Fraction memory numerator = reducedSellAmount.multiply(\n      FixidityLib.newFixed(buyTokenBucket)\n    );\n    FixidityLib.Fraction memory denominator = FixidityLib.newFixed(sellTokenBucket).add(\n      reducedSellAmount\n    );\n\n    // See comment in getBuyTokenAmount\n    return numerator.unwrap() / denominator.unwrap();\n  }\n\n  function getUpdatedBuckets() private view returns (uint256, uint256) {\n    uint256 updatedGoldBucket = getUpdatedGoldBucket();\n    uint256 updatedStableBucket = getOracleExchangeRate().mul(updatedGoldBucket);\n\n    return (updatedGoldBucket, updatedStableBucket);\n  }\n\n  function getUpdatedGoldBucket() private view returns (uint256) {\n    uint256 reserveGoldBalance = getGoldToken().balanceOf(\n      registry.getAddressForOrDie(RESERVE_REGISTRY_ID)\n    );\n    return reserveFraction.multiply(FixidityLib.newFixed(reserveGoldBalance)).fromFixed();\n  }\n\n  /**\n   * @notice If conditions are met, updates the Uniswap bucket sizes to track\n   * the price reported by the Oracle.\n   */\n  function _updateBucketsIfNecessary() private {\n    if (shouldUpdateBuckets()) {\n      // solhint-disable-next-line not-rely-on-time\n      lastBucketUpdate = now;\n\n      (goldBucket, stableBucket) = getUpdatedBuckets();\n    }\n  }\n\n  /**\n   * @dev Calculates the sell amount reduced by the spread.\n   * @param sellAmount The original sell amount.\n   * @return The reduced sell amount, computed as (1 - spread) * sellAmount\n   */\n  function getReducedSellAmount(uint256 sellAmount)\n    private\n    view\n    returns (FixidityLib.Fraction memory)\n  {\n    return FixidityLib.fixed1().subtract(spread).multiply(FixidityLib.newFixed(sellAmount));\n  }\n\n  /*\n   * Checks conditions required for bucket updates.\n   * @return Whether or not buckets should be updated.\n   * TODO: check the oldest report isn't expired\n   */\n  function shouldUpdateBuckets() private view returns (bool) {\n    ISortedOracles sortedOracles = ISortedOracles(\n      registry.getAddressForOrDie(SORTED_ORACLES_REGISTRY_ID)\n    );\n    // solhint-disable-next-line not-rely-on-time\n    bool timePassed = now >= lastBucketUpdate.add(updateFrequency);\n    bool enoughReports = sortedOracles.numRates(stable) >= minimumReports;\n    // solhint-disable-next-line not-rely-on-time\n    bool medianReportRecent = sortedOracles.medianTimestamp(stable) > now.sub(updateFrequency);\n    return timePassed && enoughReports && medianReportRecent;\n  }\n\n  function getOracleExchangeRate() private view returns (FractionUtil.Fraction memory) {\n    uint256 rateNumerator;\n    uint256 rateDenominator;\n    (rateNumerator, rateDenominator) = ISortedOracles(\n      registry.getAddressForOrDie(SORTED_ORACLES_REGISTRY_ID)\n    )\n      .medianRate(stable);\n    return FractionUtil.Fraction(rateNumerator, rateDenominator);\n  }\n}\n",
  "sourcePath": "/Users/cmcewen/celo/celo-monorepo/packages/protocol/contracts/stability/Exchange.sol",
  "compiler": {
    "name": "solc",
    "version": "0.5.8+commit.23d335f2.Emscripten.clang"
  },
  "schemaVersion": "3.0.10",
  "updatedAt": "2019-12-06T00:12:55.103Z",
  "devdoc": {
    "methods": {
      "exchange(uint256,uint256,bool)": {
        "details": "Exchanges sellAmount of sellToken in exchange for at least minBuyAmount of buyToken Requires the sellAmount to have been approved to the exchangeThis function can be frozen using the Freezable interface.",
        "params": {
          "minBuyAmount": "The minimum amount of buyToken the user has to receive for this transaction to succeed",
          "sellAmount": "The amount of sellToken the user is selling to the exchange",
          "sellGold": "`true` if gold is the sell token"
        },
        "return": "The amount of buyToken that was transfered"
      },
      "getBuyAndSellBuckets(bool)": {
        "params": {
          "sellGold": "`true` if gold is the sell token"
        },
        "return": "(buyTokenBucket, sellTokenBucket)"
      },
      "getBuyTokenAmount(uint256,bool)": {
        "details": "Returns the amount of buyToken a user would get for sellAmount of sellToken",
        "params": {
          "sellAmount": "The amount of sellToken the user is selling to the exchange",
          "sellGold": "`true` if gold is the sell token"
        },
        "return": "The corresponding buyToken amount."
      },
      "getSellTokenAmount(uint256,bool)": {
        "details": "Returns the amount of sellToken a user would need to exchange to receive buyAmount of buyToken.",
        "params": {
          "buyAmount": "The amount of buyToken the user would like to purchase.",
          "sellGold": "`true` if gold is the sell token"
        },
        "return": "The corresponding sellToken amount."
      },
      "initialize(address,address,address,uint256,uint256,uint256,uint256)": {
        "details": "Initializes the exchange, setting initial bucket sizes",
        "params": {
          "_minimumReports": "The minimum number of fresh reports that need to be present in the oracle to update buckets commit to the gold bucket",
          "_reserveFraction": "Fraction to commit to the gold bucket",
          "_spread": "Spread charged on exchanges",
          "_updateFrequency": "The time period that needs to elapse between bucket updates",
          "registryAddress": "Address of the Registry contract",
          "stableToken": "Address of the stable token"
        }
      },
      "isOwner()": {
        "return": "true if `msg.sender` is the owner of the contract."
      },
      "owner()": {
        "return": "the address of the owner."
      },
      "renounceOwnership()": {
        "details": "Allows the current owner to relinquish control of the contract. It will not be possible to call the functions with the `onlyOwner` modifier anymore."
      },
      "setMinimumReports(uint256)": {
        "params": {
          "newMininumReports": "The new update minimum number of reports required"
        }
      },
      "setRegistry(address)": {
        "params": {
          "registryAddress": "The address of a registry contract for routing to other contracts."
        }
      },
      "setReserveFraction(uint256)": {
        "params": {
          "newReserveFraction": "The new value for the reserve fraction"
        }
      },
      "setSpread(uint256)": {
        "params": {
          "newSpread": "The new value for the spread"
        }
      },
      "setStableToken(address)": {
        "params": {
          "newStableToken": "The new address for Stable Token"
        }
      },
      "setUpdateFrequency(uint256)": {
        "params": {
          "newUpdateFrequency": "The new update frequency"
        }
      },
      "transferOwnership(address)": {
        "details": "Allows the current owner to transfer control of the contract to a newOwner.",
        "params": {
          "newOwner": "The address to transfer ownership to."
        }
      }
    },
    "title": "Contract that allows to exchange StableToken for GoldToken and vice versa using a Constant Product Market Maker Model"
  },
  "userdoc": {
    "methods": {
      "freeze()": {
        "notice": "Freezes the contract, disabling `onlyWhenNotFrozen` functions."
      },
      "getBuyAndSellBuckets(bool)": {
        "notice": "Returns the buy token and sell token bucket sizes, in order. The ratio of the two also represents the exchange rate between the two."
      },
      "renounceOwnership()": {
        "notice": "Renouncing ownership will leave the contract without an owner, thereby removing any functionality that is only available to the owner."
      },
      "setMinimumReports(uint256)": {
        "notice": "Allows owner to set the minimum number of reports required"
      },
      "setRegistry(address)": {
        "notice": "Updates the address pointing to a Registry contract."
      },
      "setReserveFraction(uint256)": {
        "notice": "Allows owner to set the Reserve Fraction"
      },
      "setSpread(uint256)": {
        "notice": "Allows owner to set the spread"
      },
      "setStableToken(address)": {
        "notice": "Allows owner to set the Stable Token address"
      },
      "setUpdateFrequency(uint256)": {
        "notice": "Allows owner to set the update frequency"
      },
      "unfreeze()": {
        "notice": "Unreezes the contract, enabling `onlyWhenNotFrozen` functions."
      }
    }
  }
}