{
  "contractName": "FixidityTest",
  "abi": [
    {
      "constant": true,
      "inputs": [
        {
          "name": "a",
          "type": "uint256"
        }
      ],
      "name": "newFixed",
      "outputs": [
        {
          "name": "",
          "type": "uint256"
        }
      ],
      "payable": false,
      "stateMutability": "pure",
      "type": "function"
    },
    {
      "constant": true,
      "inputs": [
        {
          "name": "a",
          "type": "uint256"
        },
        {
          "name": "b",
          "type": "uint256"
        }
      ],
      "name": "newFixedFraction",
      "outputs": [
        {
          "name": "",
          "type": "uint256"
        }
      ],
      "payable": false,
      "stateMutability": "pure",
      "type": "function"
    },
    {
      "constant": true,
      "inputs": [
        {
          "name": "a",
          "type": "uint256"
        },
        {
          "name": "b",
          "type": "uint256"
        }
      ],
      "name": "add",
      "outputs": [
        {
          "name": "",
          "type": "uint256"
        }
      ],
      "payable": false,
      "stateMutability": "pure",
      "type": "function"
    },
    {
      "constant": true,
      "inputs": [
        {
          "name": "a",
          "type": "uint256"
        },
        {
          "name": "b",
          "type": "uint256"
        }
      ],
      "name": "subtract",
      "outputs": [
        {
          "name": "",
          "type": "uint256"
        }
      ],
      "payable": false,
      "stateMutability": "pure",
      "type": "function"
    },
    {
      "constant": true,
      "inputs": [
        {
          "name": "a",
          "type": "uint256"
        },
        {
          "name": "b",
          "type": "uint256"
        }
      ],
      "name": "multiply",
      "outputs": [
        {
          "name": "",
          "type": "uint256"
        }
      ],
      "payable": false,
      "stateMutability": "pure",
      "type": "function"
    },
    {
      "constant": true,
      "inputs": [
        {
          "name": "a",
          "type": "uint256"
        }
      ],
      "name": "reciprocal",
      "outputs": [
        {
          "name": "",
          "type": "uint256"
        }
      ],
      "payable": false,
      "stateMutability": "pure",
      "type": "function"
    },
    {
      "constant": true,
      "inputs": [
        {
          "name": "a",
          "type": "uint256"
        },
        {
          "name": "b",
          "type": "uint256"
        }
      ],
      "name": "divide",
      "outputs": [
        {
          "name": "",
          "type": "uint256"
        }
      ],
      "payable": false,
      "stateMutability": "pure",
      "type": "function"
    },
    {
      "constant": true,
      "inputs": [
        {
          "name": "a",
          "type": "uint256"
        },
        {
          "name": "b",
          "type": "uint256"
        }
      ],
      "name": "gt",
      "outputs": [
        {
          "name": "",
          "type": "bool"
        }
      ],
      "payable": false,
      "stateMutability": "pure",
      "type": "function"
    },
    {
      "constant": true,
      "inputs": [
        {
          "name": "a",
          "type": "uint256"
        },
        {
          "name": "b",
          "type": "uint256"
        }
      ],
      "name": "gte",
      "outputs": [
        {
          "name": "",
          "type": "bool"
        }
      ],
      "payable": false,
      "stateMutability": "pure",
      "type": "function"
    },
    {
      "constant": true,
      "inputs": [
        {
          "name": "a",
          "type": "uint256"
        },
        {
          "name": "b",
          "type": "uint256"
        }
      ],
      "name": "lt",
      "outputs": [
        {
          "name": "",
          "type": "bool"
        }
      ],
      "payable": false,
      "stateMutability": "pure",
      "type": "function"
    },
    {
      "constant": true,
      "inputs": [
        {
          "name": "a",
          "type": "uint256"
        },
        {
          "name": "b",
          "type": "uint256"
        }
      ],
      "name": "lte",
      "outputs": [
        {
          "name": "",
          "type": "bool"
        }
      ],
      "payable": false,
      "stateMutability": "pure",
      "type": "function"
    }
  ],
  "bytecode": "0x608060405234801561001057600080fd5b50610b75806100206000396000f3fe608060405234801561001057600080fd5b50600436106100a95760003560e01c8063771602f711610071578063771602f714610232578063b47733291461027e578063b7573114146102ce578063ea6515c414610310578063f1e3bfe514610360578063f88e9fbf146103a2576100a9565b8063118fc88c146100ae578063165c4a16146100fe57806321e5749b1461014a57806332c709731461019a5780633ef5e445146101e6575b600080fd5b6100e4600480360360408110156100c457600080fd5b8101908080359060200190929190803590602001909291905050506103ee565b604051808215151515815260200191505060405180910390f35b6101346004803603604081101561011457600080fd5b81019080803590602001909291908035906020019092919050505061041b565b6040518082815260200191505060405180910390f35b6101806004803603604081101561016057600080fd5b810190808035906020019092919080359060200190929190505050610450565b604051808215151515815260200191505060405180910390f35b6101d0600480360360408110156101b057600080fd5b81019080803590602001909291908035906020019092919050505061047d565b6040518082815260200191505060405180910390f35b61021c600480360360408110156101fc57600080fd5b810190808035906020019092919080359060200190929190505050610499565b6040518082815260200191505060405180910390f35b6102686004803603604081101561024857600080fd5b8101908080359060200190929190803590602001909291905050506104ce565b6040518082815260200191505060405180910390f35b6102b46004803603604081101561029457600080fd5b810190808035906020019092919080359060200190929190505050610503565b604051808215151515815260200191505060405180910390f35b6102fa600480360360208110156102e457600080fd5b8101908080359060200190929190505050610530565b6040518082815260200191505060405180910390f35b6103466004803603604081101561032657600080fd5b81019080803590602001909291908035906020019092919050505061054a565b604051808215151515815260200191505060405180910390f35b61038c6004803603602081101561037657600080fd5b8101908080359060200190929190505050610577565b6040518082815260200191505060405180910390f35b6103d8600480360360408110156103b857600080fd5b810190808035906020019092919080359060200190929190505050610599565b6040518082815260200191505060405180910390f35b60006104136103fc836105ce565b610405856105ce565b6105ec90919063ffffffff16565b905092915050565b600061044861044361042c846105ce565b610435866105ce565b61060190919063ffffffff16565b610853565b905092915050565b600061047561045e836105ce565b610467856105ce565b61086190919063ffffffff16565b905092915050565b600061049161048c8484610876565b610853565b905092915050565b60006104c66104c16104aa846105ce565b6104b3866105ce565b6108ee90919063ffffffff16565b610853565b905092915050565b60006104fb6104f66104df846105ce565b6104e8866105ce565b61092c90919063ffffffff16565b610853565b905092915050565b6000610528610511836105ce565b61051a856105ce565b61096c90919063ffffffff16565b905092915050565b600061054361053e83610982565b610853565b9050919050565b600061056f610558836105ce565b610561856105ce565b6109c090919063ffffffff16565b905092915050565b600061059261058d610588846105ce565b6109d6565b610853565b9050919050565b60006105c66105c16105aa846105ce565b6105b3866105ce565b610a1f90919063ffffffff16565b610853565b905092915050565b6105d6610b36565b6040518060200160405280838152509050919050565b60008160000151836000015110905092915050565b610609610b36565b600083600001511480610620575060008260000151145b1561063c5760405180602001604052806000815250905061084d565b69d3c21bcecceda10000008260000151141561065a5782905061084d565b69d3c21bcecceda1000000836000015114156106785781905061084d565b600069d3c21bcecceda100000061068e85610a96565b600001518161069957fe5b04905060006106a785610acd565b600001519050600069d3c21bcecceda10000006106c386610a96565b60000151816106ce57fe5b04905060006106dc86610acd565b600001519050600082850290506000851461070757828582816106fb57fe5b041461070657600080fd5b5b600069d3c21bcecceda100000082029050600082146107405769d3c21bcecceda100000082828161073457fe5b041461073f57600080fd5b5b8091506000848602905060008614610768578486828161075c57fe5b041461076757600080fd5b5b600084880290506000881461078d578488828161078157fe5b041461078c57600080fd5b5b610795610b0a565b878161079d57fe5b0496506107a8610b0a565b85816107b057fe5b04945060008588029050600088146107d857858882816107cc57fe5b04146107d757600080fd5b5b6107e0610b36565b60405180602001604052808781525090506108098160405180602001604052808781525061092c565b90506108238160405180602001604052808681525061092c565b905061083d8160405180602001604052808581525061092c565b9050809a50505050505050505050505b92915050565b600081600001519050919050565b60008160000151836000015111905092915050565b61087e610b36565b610886610b17565b83111561089257600080fd5b61089a610b17565b8211156108a657600080fd5b60008214156108b457600080fd5b6108bc610b36565b6108c584610982565b90506108cf610b36565b6108d884610982565b90506108e48282610a1f565b9250505092915050565b6108f6610b36565b81600001518360000151101561090b57600080fd5b60405180602001604052808360000151856000015103815250905092915050565b610934610b36565b600082600001518460000151019050836000015181101561095457600080fd5b60405180602001604052808281525091505092915050565b6000816000015183600001511015905092915050565b61098a610b36565b610992610b17565b82111561099e57600080fd5b604051806020016040528069d3c21bcecceda100000084028152509050919050565b6000816000015183600001511115905092915050565b6109de610b36565b6000826000015114156109f057600080fd5b6040518060200160405280836000015169d3c21bcecceda1000000800281610a1457fe5b048152509050919050565b610a27610b36565b600082600001511415610a3957600080fd5b600069d3c21bcecceda10000008460000151029050836000015169d3c21bcecceda10000008281610a6657fe5b0414610a7157600080fd5b604051806020016040528084600001518381610a8957fe5b0481525091505092915050565b610a9e610b36565b604051806020016040528069d3c21bcecceda100000080856000015181610ac157fe5b04028152509050919050565b610ad5610b36565b604051806020016040528069d3c21bcecceda100000080856000015181610af857fe5b04028460000151038152509050919050565b600064e8d4a51000905090565b60007601357c299a88ea76a58924d52ce4f26a85af186c2b9e74905090565b604051806020016040528060008152509056fea165627a7a72305820b97f5649a56427e217da7b947f8c5460195eeca4e1612b5f940fd0cc6058b4bf0029",
  "source": "pragma solidity ^0.5.8;\n\nimport \"../FixidityLib.sol\";\n\ncontract FixidityTest {\n  using FixidityLib for FixidityLib.Fraction;\n\n  function newFixed(uint256 a) external pure returns (uint256) {\n    return FixidityLib.newFixed(a).unwrap();\n  }\n\n  function newFixedFraction(uint256 a, uint256 b) external pure returns (uint256) {\n    return FixidityLib.newFixedFraction(a, b).unwrap();\n  }\n\n  function add(uint256 a, uint256 b) external pure returns (uint256) {\n    return FixidityLib.wrap(a).add(FixidityLib.wrap(b)).unwrap();\n  }\n\n  function subtract(uint256 a, uint256 b) external pure returns (uint256) {\n    return FixidityLib.wrap(a).subtract(FixidityLib.wrap(b)).unwrap();\n  }\n\n  function multiply(uint256 a, uint256 b) external pure returns (uint256) {\n    return FixidityLib.wrap(a).multiply(FixidityLib.wrap(b)).unwrap();\n  }\n\n  function reciprocal(uint256 a) external pure returns (uint256) {\n    return FixidityLib.wrap(a).reciprocal().unwrap();\n  }\n\n  function divide(uint256 a, uint256 b) external pure returns (uint256) {\n    return FixidityLib.wrap(a).divide(FixidityLib.wrap(b)).unwrap();\n  }\n\n  function gt(uint256 a, uint256 b) external pure returns (bool) {\n    return FixidityLib.wrap(a).gt(FixidityLib.wrap(b));\n  }\n\n  function gte(uint256 a, uint256 b) external pure returns (bool) {\n    return FixidityLib.wrap(a).gte(FixidityLib.wrap(b));\n  }\n\n  function lt(uint256 a, uint256 b) external pure returns (bool) {\n    return FixidityLib.wrap(a).lt(FixidityLib.wrap(b));\n  }\n\n  function lte(uint256 a, uint256 b) external pure returns (bool) {\n    return FixidityLib.wrap(a).lte(FixidityLib.wrap(b));\n  }\n}\n",
  "sourcePath": "/Users/cmcewen/celo/celo-monorepo/packages/protocol/contracts/common/test/FixidityTest.sol",
  "compiler": {
    "name": "solc",
    "version": "0.5.8+commit.23d335f2.Emscripten.clang"
  },
  "schemaVersion": "3.0.10",
  "updatedAt": "2019-12-06T00:01:35.384Z",
  "devdoc": {
    "methods": {}
  },
  "userdoc": {
    "methods": {}
  }
}