{
  "contractName": "Freezable",
  "abi": [
    {
      "constant": true,
      "inputs": [],
      "name": "frozen",
      "outputs": [
        {
          "name": "",
          "type": "bool"
        }
      ],
      "payable": false,
      "stateMutability": "view",
      "type": "function"
    },
    {
      "constant": true,
      "inputs": [],
      "name": "freezer",
      "outputs": [
        {
          "name": "",
          "type": "address"
        }
      ],
      "payable": false,
      "stateMutability": "view",
      "type": "function"
    },
    {
      "constant": false,
      "inputs": [],
      "name": "freeze",
      "outputs": [],
      "payable": false,
      "stateMutability": "nonpayable",
      "type": "function"
    },
    {
      "constant": false,
      "inputs": [],
      "name": "unfreeze",
      "outputs": [],
      "payable": false,
      "stateMutability": "nonpayable",
      "type": "function"
    }
  ],
  "bytecode": "0x608060405234801561001057600080fd5b50610221806100206000396000f3fe608060405234801561001057600080fd5b506004361061004c5760003560e01c8063054f7d9c1461005157806362a5af3b146100735780636a28f0001461007d5780639271605414610087575b600080fd5b6100596100d1565b604051808215151515815260200191505060405180910390f35b61007b6100e3565b005b610085610159565b005b61008f6101cf565b604051808273ffffffffffffffffffffffffffffffffffffffff1673ffffffffffffffffffffffffffffffffffffffff16815260200191505060405180910390f35b6000809054906101000a900460ff1681565b600060019054906101000a900473ffffffffffffffffffffffffffffffffffffffff1673ffffffffffffffffffffffffffffffffffffffff163373ffffffffffffffffffffffffffffffffffffffff161461013d57600080fd5b60016000806101000a81548160ff021916908315150217905550565b600060019054906101000a900473ffffffffffffffffffffffffffffffffffffffff1673ffffffffffffffffffffffffffffffffffffffff163373ffffffffffffffffffffffffffffffffffffffff16146101b357600080fd5b60008060006101000a81548160ff021916908315150217905550565b600060019054906101000a900473ffffffffffffffffffffffffffffffffffffffff168156fea165627a7a723058209c43fc7cb4b4c90053c0dd487c29b06c27e9f13e1383697582cd5672b8943e4c0029",
  "source": "pragma solidity ^0.5.3;\n\ncontract Freezable {\n  bool public frozen;\n  address public freezer;\n\n  // onlyFreezer functions can only be called by the specified `freezer` address\n  modifier onlyFreezer() {\n    require(msg.sender == freezer);\n    _;\n  }\n\n  // onlyWhenNotFrozen functions can only be called when `frozen` is false, otherwise they will\n  // revert.\n  modifier onlyWhenNotFrozen() {\n    require(!frozen);\n    _;\n  }\n\n  /**\n   * @notice Sets the address that is allowed to freeze/unfreeze the contract.\n   * @param _freezer The address that is allowed to freeze/unfree the contract\n   * @dev This function is `internal` and leaves its permissioning up to the inheriting contract.\n   */\n  function _setFreezer(address _freezer) internal {\n    freezer = _freezer;\n  }\n\n  /**\n   * @notice Freezes the contract, disabling `onlyWhenNotFrozen` functions.\n   */\n  function freeze() external onlyFreezer {\n    frozen = true;\n  }\n\n  /**\n   * @notice Unreezes the contract, enabling `onlyWhenNotFrozen` functions.\n   */\n  function unfreeze() external onlyFreezer {\n    frozen = false;\n  }\n}\n",
  "sourcePath": "/Users/cmcewen/celo/celo-monorepo/packages/protocol/contracts/baklava/Freezable.sol",
  "compiler": {
    "name": "solc",
    "version": "0.5.8+commit.23d335f2.Emscripten.clang"
  },
  "schemaVersion": "3.0.10",
  "updatedAt": "2019-12-06T00:01:35.202Z",
  "devdoc": {
    "methods": {}
  },
  "userdoc": {
    "methods": {
      "freeze()": {
        "notice": "Freezes the contract, disabling `onlyWhenNotFrozen` functions."
      },
      "unfreeze()": {
        "notice": "Unreezes the contract, enabling `onlyWhenNotFrozen` functions."
      }
    }
  }
}