{
  "contractName": "GasPriceMinimum",
  "abi": [
    {
      "constant": true,
      "inputs": [],
      "name": "initialized",
      "outputs": [
        {
          "name": "",
          "type": "bool"
        }
      ],
      "payable": false,
      "stateMutability": "view",
      "type": "function"
    },
    {
      "constant": true,
      "inputs": [],
      "name": "gasPriceMinimum",
      "outputs": [
        {
          "name": "",
          "type": "uint256"
        }
      ],
      "payable": false,
      "stateMutability": "view",
      "type": "function"
    },
    {
      "constant": true,
      "inputs": [],
      "name": "targetDensity",
      "outputs": [
        {
          "name": "value",
          "type": "uint256"
        }
      ],
      "payable": false,
      "stateMutability": "view",
      "type": "function"
    },
    {
      "constant": false,
      "inputs": [],
      "name": "renounceOwnership",
      "outputs": [],
      "payable": false,
      "stateMutability": "nonpayable",
      "type": "function"
    },
    {
      "constant": true,
      "inputs": [],
      "name": "registry",
      "outputs": [
        {
          "name": "",
          "type": "address"
        }
      ],
      "payable": false,
      "stateMutability": "view",
      "type": "function"
    },
    {
      "constant": true,
      "inputs": [],
      "name": "owner",
      "outputs": [
        {
          "name": "",
          "type": "address"
        }
      ],
      "payable": false,
      "stateMutability": "view",
      "type": "function"
    },
    {
      "constant": true,
      "inputs": [],
      "name": "isOwner",
      "outputs": [
        {
          "name": "",
          "type": "bool"
        }
      ],
      "payable": false,
      "stateMutability": "view",
      "type": "function"
    },
    {
      "constant": true,
      "inputs": [],
      "name": "adjustmentSpeed",
      "outputs": [
        {
          "name": "value",
          "type": "uint256"
        }
      ],
      "payable": false,
      "stateMutability": "view",
      "type": "function"
    },
    {
      "constant": false,
      "inputs": [
        {
          "name": "registryAddress",
          "type": "address"
        }
      ],
      "name": "setRegistry",
      "outputs": [],
      "payable": false,
      "stateMutability": "nonpayable",
      "type": "function"
    },
    {
      "constant": false,
      "inputs": [
        {
          "name": "newOwner",
          "type": "address"
        }
      ],
      "name": "transferOwnership",
      "outputs": [],
      "payable": false,
      "stateMutability": "nonpayable",
      "type": "function"
    },
    {
      "anonymous": false,
      "inputs": [
        {
          "indexed": false,
          "name": "targetDensity",
          "type": "uint256"
        }
      ],
      "name": "TargetDensitySet",
      "type": "event"
    },
    {
      "anonymous": false,
      "inputs": [
        {
          "indexed": false,
          "name": "adjustmentSpeed",
          "type": "uint256"
        }
      ],
      "name": "AdjustmentSpeedSet",
      "type": "event"
    },
    {
      "anonymous": false,
      "inputs": [
        {
          "indexed": true,
          "name": "registryAddress",
          "type": "address"
        }
      ],
      "name": "RegistrySet",
      "type": "event"
    },
    {
      "anonymous": false,
      "inputs": [
        {
          "indexed": true,
          "name": "previousOwner",
          "type": "address"
        },
        {
          "indexed": true,
          "name": "newOwner",
          "type": "address"
        }
      ],
      "name": "OwnershipTransferred",
      "type": "event"
    },
    {
      "constant": false,
      "inputs": [
        {
          "name": "_registryAddress",
          "type": "address"
        },
        {
          "name": "initialGas",
          "type": "uint256"
        },
        {
          "name": "_targetDensity",
          "type": "uint256"
        },
        {
          "name": "_adjustmentSpeed",
          "type": "uint256"
        }
      ],
      "name": "initialize",
      "outputs": [],
      "payable": false,
      "stateMutability": "nonpayable",
      "type": "function"
    },
    {
      "constant": false,
      "inputs": [
        {
          "name": "_adjustmentSpeed",
          "type": "uint256"
        }
      ],
      "name": "setAdjustmentSpeed",
      "outputs": [],
      "payable": false,
      "stateMutability": "nonpayable",
      "type": "function"
    },
    {
      "constant": false,
      "inputs": [
        {
          "name": "_targetDensity",
          "type": "uint256"
        }
      ],
      "name": "setTargetDensity",
      "outputs": [],
      "payable": false,
      "stateMutability": "nonpayable",
      "type": "function"
    },
    {
      "constant": true,
      "inputs": [
        {
          "name": "tokenAddress",
          "type": "address"
        }
      ],
      "name": "getGasPriceMinimum",
      "outputs": [
        {
          "name": "",
          "type": "uint256"
        }
      ],
      "payable": false,
      "stateMutability": "view",
      "type": "function"
    },
    {
      "constant": false,
      "inputs": [
        {
          "name": "blockGasTotal",
          "type": "uint256"
        },
        {
          "name": "blockGasLimit",
          "type": "uint256"
        }
      ],
      "name": "updateGasPriceMinimum",
      "outputs": [
        {
          "name": "",
          "type": "uint256"
        }
      ],
      "payable": false,
      "stateMutability": "nonpayable",
      "type": "function"
    },
    {
      "constant": true,
      "inputs": [
        {
          "name": "blockGasTotal",
          "type": "uint256"
        },
        {
          "name": "blockGasLimit",
          "type": "uint256"
        }
      ],
      "name": "getUpdatedGasPriceMinimum",
      "outputs": [
        {
          "name": "",
          "type": "uint256"
        }
      ],
      "payable": false,
      "stateMutability": "view",
      "type": "function"
    }
  ],
  "bytecode": "0x6080604052336000806101000a81548173ffffffffffffffffffffffffffffffffffffffff021916908373ffffffffffffffffffffffffffffffffffffffff1602179055506000809054906101000a900473ffffffffffffffffffffffffffffffffffffffff1673ffffffffffffffffffffffffffffffffffffffff16600073ffffffffffffffffffffffffffffffffffffffff167f8be0079c531659141344cd1fd0a4f28419497f9722a3daafe3b4186f6b6457e060405160405180910390a3611472806100cf6000396000f3fe608060405234801561001057600080fd5b50600436106101005760003560e01c80638f32d59b11610097578063a91ee0dc11610066578063a91ee0dc14610357578063c12398b41461039b578063ef712c5b146103e7578063f2fde38b1461043357610100565b80638f32d59b1461029157806393ca6fc4146102b3578063a54b7fc0146102e1578063a68f548e1461033957610100565b80634ec81af1116100d35780634ec81af114610191578063715018a6146101f35780637b103999146101fd5780638da5cb5b1461024757610100565b8063158ef93e1461010557806330f726b91461012757806336945c2d146101555780634a3d5fe214610173575b600080fd5b61010d610477565b604051808215151515815260200191505060405180910390f35b6101536004803603602081101561013d57600080fd5b810190808035906020019092919050505061048a565b005b61015d610526565b6040518082815260200191505060405180910390f35b61017b61052c565b6040518082815260200191505060405180910390f35b6101f1600480360360808110156101a757600080fd5b81019080803573ffffffffffffffffffffffffffffffffffffffff169060200190929190803590602001909291908035906020019092919080359060200190929190505050610538565b005b6101fb61059e565b005b61020561066e565b604051808273ffffffffffffffffffffffffffffffffffffffff1673ffffffffffffffffffffffffffffffffffffffff16815260200191505060405180910390f35b61024f610694565b604051808273ffffffffffffffffffffffffffffffffffffffff1673ffffffffffffffffffffffffffffffffffffffff16815260200191505060405180910390f35b6102996106bd565b604051808215151515815260200191505060405180910390f35b6102df600480360360208110156102c957600080fd5b8101908080359060200190929190505050610714565b005b610323600480360360208110156102f757600080fd5b81019080803573ffffffffffffffffffffffffffffffffffffffff1690602001909291905050506107b0565b6040518082815260200191505060405180910390f35b610341610b0f565b6040518082815260200191505060405180910390f35b6103996004803603602081101561036d57600080fd5b81019080803573ffffffffffffffffffffffffffffffffffffffff169060200190929190505050610b1b565b005b6103d1600480360360408110156103b157600080fd5b810190808035906020019092919080359060200190929190505050610bb3565b6040518082815260200191505060405180910390f35b61041d600480360360408110156103fd57600080fd5b810190808035906020019092919080359060200190929190505050610c05565b6040518082815260200191505060405180910390f35b6104756004803603602081101561044957600080fd5b81019080803573ffffffffffffffffffffffffffffffffffffffff169060200190929190505050610d92565b005b600060149054906101000a900460ff1681565b6104926106bd565b61049b57600080fd5b6104a481610daf565b6004600082015181600001559050506104e36104be610dcd565b6004604051806020016040529081600082015481525050610df390919063ffffffff16565b6104ec57600080fd5b7fd2e71cd7012df1df07d4908ff75ae4b2bfbb6c49d39144404661f1fd47253283816040518082815260200191505060405180910390a150565b60025481565b60038060000154905081565b600060149054906101000a900460ff161561055257600080fd5b6001600060146101000a81548160ff02191690831515021790555061057633610e08565b61057f84610b1b565b8260028190555061058f82610714565b6105988161048a565b50505050565b6105a66106bd565b6105af57600080fd5b600073ffffffffffffffffffffffffffffffffffffffff166000809054906101000a900473ffffffffffffffffffffffffffffffffffffffff1673ffffffffffffffffffffffffffffffffffffffff167f8be0079c531659141344cd1fd0a4f28419497f9722a3daafe3b4186f6b6457e060405160405180910390a360008060006101000a81548173ffffffffffffffffffffffffffffffffffffffff021916908373ffffffffffffffffffffffffffffffffffffffff160217905550565b600160009054906101000a900473ffffffffffffffffffffffffffffffffffffffff1681565b60008060009054906101000a900473ffffffffffffffffffffffffffffffffffffffff16905090565b60008060009054906101000a900473ffffffffffffffffffffffffffffffffffffffff1673ffffffffffffffffffffffffffffffffffffffff163373ffffffffffffffffffffffffffffffffffffffff1614905090565b61071c6106bd565b61072557600080fd5b61072e81610daf565b60036000820151816000015590505061076d610748610dcd565b6003604051806020016040529081600082015481525050610df390919063ffffffff16565b61077657600080fd5b7f2a109bad06121312708ed2a3e9b3556ea85ef8eadd4d10d8181f50d114eb4fab816040518082815260200191505060405180910390a150565b60008073ffffffffffffffffffffffffffffffffffffffff168273ffffffffffffffffffffffffffffffffffffffff16148061090a5750600160009054906101000a900473ffffffffffffffffffffffffffffffffffffffff1673ffffffffffffffffffffffffffffffffffffffff1663dcf0aaed60405160200180807f476f6c64546f6b656e00000000000000000000000000000000000000000000008152506009019050604051602081830303815290604052805190602001206040518263ffffffff1660e01b81526004018082815260200191505060206040518083038186803b1580156108a057600080fd5b505afa1580156108b4573d6000803e3d6000fd5b505050506040513d60208110156108ca57600080fd5b810190808051906020019092919050505073ffffffffffffffffffffffffffffffffffffffff168273ffffffffffffffffffffffffffffffffffffffff16145b15610919576002549050610b0a565b6000600160009054906101000a900473ffffffffffffffffffffffffffffffffffffffff1673ffffffffffffffffffffffffffffffffffffffff1663dcf0aaed60405160200180807f536f727465644f7261636c657300000000000000000000000000000000000000815250600d019050604051602081830303815290604052805190602001206040518263ffffffff1660e01b81526004018082815260200191505060206040518083038186803b1580156109d457600080fd5b505afa1580156109e8573d6000803e3d6000fd5b505050506040513d60208110156109fe57600080fd5b810190808051906020019092919050505090506000808273ffffffffffffffffffffffffffffffffffffffff1663ef90e1b0866040518263ffffffff1660e01b8152600401808273ffffffffffffffffffffffffffffffffffffffff1673ffffffffffffffffffffffffffffffffffffffff168152602001915050604080518083038186803b158015610a9057600080fd5b505afa158015610aa4573d6000803e3d6000fd5b505050506040513d6040811015610aba57600080fd5b8101908080519060200190929190805190602001909291905050508092508193505050610b0481610af684600254610f0090919063ffffffff16565b610f3a90919063ffffffff16565b93505050505b919050565b60048060000154905081565b610b236106bd565b610b2c57600080fd5b80600160006101000a81548173ffffffffffffffffffffffffffffffffffffffff021916908373ffffffffffffffffffffffffffffffffffffffff1602179055508073ffffffffffffffffffffffffffffffffffffffff167f27fe5f0c1c3b1ed427cc63d0f05759ffdecf9aec9e18d31ef366fc8a6cb5dc3b60405160405180910390a250565b60008073ffffffffffffffffffffffffffffffffffffffff163373ffffffffffffffffffffffffffffffffffffffff1614610bea57fe5b610bf48383610c05565b600281905550600254905092915050565b6000610c0f611433565b610c198484610f60565b90506000610c46600360405180602001604052908160008201548152505083610fd890919063ffffffff16565b9050610c50611433565b81610c8357610c7e836003604051806020016040529081600082015481525050610fed90919063ffffffff16565b610cad565b610cac600360405180602001604052908160008201548152505084610fed90919063ffffffff16565b5b9050610cb7611433565b82610d0357610cfe610ce883600460405180602001604052908160008201548152505061102b90919063ffffffff16565b610cf0610dcd565b610fed90919063ffffffff16565b610d46565b610d45610d2f83600460405180602001604052908160008201548152505061102b90919063ffffffff16565b610d37610dcd565b61127d90919063ffffffff16565b5b9050610d86610d81610d56610dcd565b610d73610d646002546112bd565b8561102b90919063ffffffff16565b61127d90919063ffffffff16565b6112fb565b94505050505092915050565b610d9a6106bd565b610da357600080fd5b610dac81610e08565b50565b610db7611433565b6040518060200160405280838152509050919050565b610dd5611433565b604051806020016040528069d3c21bcecceda1000000815250905090565b60008160000151836000015110905092915050565b600073ffffffffffffffffffffffffffffffffffffffff168173ffffffffffffffffffffffffffffffffffffffff161415610e4257600080fd5b8073ffffffffffffffffffffffffffffffffffffffff166000809054906101000a900473ffffffffffffffffffffffffffffffffffffffff1673ffffffffffffffffffffffffffffffffffffffff167f8be0079c531659141344cd1fd0a4f28419497f9722a3daafe3b4186f6b6457e060405160405180910390a3806000806101000a81548173ffffffffffffffffffffffffffffffffffffffff021916908373ffffffffffffffffffffffffffffffffffffffff16021790555050565b600080831415610f135760009050610f34565b6000828402905082848281610f2457fe5b0414610f2f57600080fd5b809150505b92915050565b6000808211610f4857600080fd5b6000828481610f5357fe5b0490508091505092915050565b610f68611433565b610f7061131c565b831115610f7c57600080fd5b610f8461131c565b821115610f9057600080fd5b6000821415610f9e57600080fd5b610fa6611433565b610faf846112bd565b9050610fb9611433565b610fc2846112bd565b9050610fce828261133b565b9250505092915050565b60008160000151836000015111905092915050565b610ff5611433565b81600001518360000151101561100a57600080fd5b60405180602001604052808360000151856000015103815250905092915050565b611033611433565b60008360000151148061104a575060008260000151145b1561106657604051806020016040528060008152509050611277565b69d3c21bcecceda10000008260000151141561108457829050611277565b69d3c21bcecceda1000000836000015114156110a257819050611277565b600069d3c21bcecceda10000006110b8856113b2565b60000151816110c357fe5b04905060006110d1856113e9565b600001519050600069d3c21bcecceda10000006110ed866113b2565b60000151816110f857fe5b0490506000611106866113e9565b6000015190506000828502905060008514611131578285828161112557fe5b041461113057600080fd5b5b600069d3c21bcecceda1000000820290506000821461116a5769d3c21bcecceda100000082828161115e57fe5b041461116957600080fd5b5b8091506000848602905060008614611192578486828161118657fe5b041461119157600080fd5b5b60008488029050600088146111b757848882816111ab57fe5b04146111b657600080fd5b5b6111bf611426565b87816111c757fe5b0496506111d2611426565b85816111da57fe5b049450600085880290506000881461120257858882816111f657fe5b041461120157600080fd5b5b61120a611433565b60405180602001604052808781525090506112338160405180602001604052808781525061127d565b905061124d8160405180602001604052808681525061127d565b90506112678160405180602001604052808581525061127d565b9050809a50505050505050505050505b92915050565b611285611433565b60008260000151846000015101905083600001518110156112a557600080fd5b60405180602001604052808281525091505092915050565b6112c5611433565b6112cd61131c565b8211156112d957600080fd5b604051806020016040528069d3c21bcecceda100000084028152509050919050565b600069d3c21bcecceda100000082600001518161131457fe5b049050919050565b60007601357c299a88ea76a58924d52ce4f26a85af186c2b9e74905090565b611343611433565b60008260000151141561135557600080fd5b600069d3c21bcecceda10000008460000151029050836000015169d3c21bcecceda1000000828161138257fe5b041461138d57600080fd5b6040518060200160405280846000015183816113a557fe5b0481525091505092915050565b6113ba611433565b604051806020016040528069d3c21bcecceda1000000808560000151816113dd57fe5b04028152509050919050565b6113f1611433565b604051806020016040528069d3c21bcecceda10000008085600001518161141457fe5b04028460000151038152509050919050565b600064e8d4a51000905090565b604051806020016040528060008152509056fea165627a7a7230582057dd568ed4e5c698b98fa138d4a9d90e242dfa59cc9d632606abe891515eccec0029",
  "source": "pragma solidity ^0.5.3;\n\nimport \"openzeppelin-solidity/contracts/math/SafeMath.sol\";\nimport \"openzeppelin-solidity/contracts/ownership/Ownable.sol\";\nimport \"./Initializable.sol\";\nimport \"./UsingRegistry.sol\";\nimport \"./FixidityLib.sol\";\nimport \"../stability/interfaces/ISortedOracles.sol\";\n\n/**\n * @title Stores and provides gas price minimum for various currencies.\n */\ncontract GasPriceMinimum is Ownable, Initializable, UsingRegistry {\n  using FixidityLib for FixidityLib.Fraction;\n  using SafeMath for uint256;\n\n  event TargetDensitySet(uint256 targetDensity);\n\n  event AdjustmentSpeedSet(uint256 adjustmentSpeed);\n\n  uint256 public gasPriceMinimum;\n\n  // Block congestion level targeted by the gas price minimum calculation.\n  FixidityLib.Fraction public targetDensity;\n\n  // Speed of gas price minimum adjustment due to congestion.\n  FixidityLib.Fraction public adjustmentSpeed;\n\n  modifier onlyVm() {\n    assert(msg.sender == address(0x0));\n    _;\n  }\n\n  function initialize(\n    address _registryAddress,\n    uint256 initialGas,\n    uint256 _targetDensity,\n    uint256 _adjustmentSpeed\n  ) external initializer {\n    _transferOwnership(msg.sender);\n    setRegistry(_registryAddress);\n    gasPriceMinimum = initialGas;\n    setTargetDensity(_targetDensity);\n    setAdjustmentSpeed(_adjustmentSpeed);\n  }\n\n  /**\n   * @notice Set a multiplier that impacts how quickly gas price minimum is adjusted.\n   * @dev Value is expected to be < 1.\n   */\n  function setAdjustmentSpeed(uint256 _adjustmentSpeed) public onlyOwner {\n    adjustmentSpeed = FixidityLib.wrap(_adjustmentSpeed);\n    require(adjustmentSpeed.lt(FixidityLib.fixed1()));\n    emit AdjustmentSpeedSet(_adjustmentSpeed);\n  }\n\n  /**\n   * @notice Set the block density targeted by the gas price minimum algorithm.\n   * @dev Value is expected to be < 1.\n   */\n  function setTargetDensity(uint256 _targetDensity) public onlyOwner {\n    targetDensity = FixidityLib.wrap(_targetDensity);\n    require(targetDensity.lt(FixidityLib.fixed1()));\n    emit TargetDensitySet(_targetDensity);\n  }\n\n  /**\n   * @notice Retrieve the current gas price minimum for a currency.\n   * @param tokenAddress The currency the gas price should be in (defaults to gold).\n   * @return current gas price minimum in the requested currency\n   */\n  function getGasPriceMinimum(address tokenAddress) external view returns (uint256) {\n    if (\n      tokenAddress == address(0) ||\n      tokenAddress == registry.getAddressForOrDie(GOLD_TOKEN_REGISTRY_ID)\n    ) {\n      return gasPriceMinimum;\n    } else {\n      ISortedOracles sortedOracles = ISortedOracles(\n        registry.getAddressForOrDie(SORTED_ORACLES_REGISTRY_ID)\n      );\n      uint256 rateNumerator;\n      uint256 rateDenominator;\n      (rateNumerator, rateDenominator) = sortedOracles.medianRate(tokenAddress);\n      return (gasPriceMinimum.mul(rateNumerator).div(rateDenominator));\n    }\n  }\n\n  /**\n   * @notice Adjust the gas price minimum based on governable parameters\n   * and block congestion.\n   * @param blockGasTotal The amount of gas in the most recent block.\n   * @param blockGasLimit The maxBlockGasLimit of the past block.\n   * @return result of the calculation (new gas price minimum)\n   */\n  function updateGasPriceMinimum(uint256 blockGasTotal, uint256 blockGasLimit)\n    external\n    onlyVm\n    returns (uint256)\n  {\n    gasPriceMinimum = getUpdatedGasPriceMinimum(blockGasTotal, blockGasLimit);\n    return gasPriceMinimum;\n  }\n\n  /**\n   * @notice Calculates the gas price minimum based on governable parameters\n   * and block congestion.\n   * @param blockGasTotal The amount of gas in the most recent block.\n   * @param blockGasLimit The maxBlockGasLimit of the past block.\n   * @return result of the calculation (new gas price minimum)\n   * @dev Calculate using the following formula:\n   * oldGasPriceMinimum * (1 + (adjustmentSpeed * (blockDensity - targetDensity))) + 1.\n   */\n  function getUpdatedGasPriceMinimum(uint256 blockGasTotal, uint256 blockGasLimit)\n    public\n    view\n    returns (uint256)\n  {\n    FixidityLib.Fraction memory blockDensity = FixidityLib.newFixedFraction(\n      blockGasTotal,\n      blockGasLimit\n    );\n    bool densityGreaterThanTarget = blockDensity.gt(targetDensity);\n    FixidityLib.Fraction memory densityDelta = densityGreaterThanTarget\n      ? blockDensity.subtract(targetDensity)\n      : targetDensity.subtract(blockDensity);\n    FixidityLib.Fraction memory adjustment = densityGreaterThanTarget\n      ? FixidityLib.fixed1().add(adjustmentSpeed.multiply(densityDelta))\n      : FixidityLib.fixed1().subtract(adjustmentSpeed.multiply(densityDelta));\n\n    return\n      adjustment\n        .multiply(FixidityLib.newFixed(gasPriceMinimum))\n        .add(FixidityLib.fixed1())\n        .fromFixed();\n  }\n}\n",
  "sourcePath": "/Users/cmcewen/celo/celo-monorepo/packages/protocol/contracts/common/GasPriceMinimum.sol",
  "compiler": {
    "name": "solc",
    "version": "0.5.8+commit.23d335f2.Emscripten.clang"
  },
  "schemaVersion": "3.0.10",
  "updatedAt": "2019-12-06T00:12:55.145Z",
  "devdoc": {
    "methods": {
      "getGasPriceMinimum(address)": {
        "params": {
          "tokenAddress": "The currency the gas price should be in (defaults to gold)."
        },
        "return": "current gas price minimum in the requested currency"
      },
      "getUpdatedGasPriceMinimum(uint256,uint256)": {
        "details": "Calculate using the following formula: oldGasPriceMinimum * (1 + (adjustmentSpeed * (blockDensity - targetDensity))) + 1.",
        "params": {
          "blockGasLimit": "The maxBlockGasLimit of the past block.",
          "blockGasTotal": "The amount of gas in the most recent block."
        },
        "return": "result of the calculation (new gas price minimum)"
      },
      "isOwner()": {
        "return": "true if `msg.sender` is the owner of the contract."
      },
      "owner()": {
        "return": "the address of the owner."
      },
      "renounceOwnership()": {
        "details": "Allows the current owner to relinquish control of the contract. It will not be possible to call the functions with the `onlyOwner` modifier anymore."
      },
      "setAdjustmentSpeed(uint256)": {
        "details": "Value is expected to be < 1."
      },
      "setRegistry(address)": {
        "params": {
          "registryAddress": "The address of a registry contract for routing to other contracts."
        }
      },
      "setTargetDensity(uint256)": {
        "details": "Value is expected to be < 1."
      },
      "transferOwnership(address)": {
        "details": "Allows the current owner to transfer control of the contract to a newOwner.",
        "params": {
          "newOwner": "The address to transfer ownership to."
        }
      },
      "updateGasPriceMinimum(uint256,uint256)": {
        "params": {
          "blockGasLimit": "The maxBlockGasLimit of the past block.",
          "blockGasTotal": "The amount of gas in the most recent block."
        },
        "return": "result of the calculation (new gas price minimum)"
      }
    },
    "title": "Stores and provides gas price minimum for various currencies."
  },
  "userdoc": {
    "methods": {
      "getGasPriceMinimum(address)": {
        "notice": "Retrieve the current gas price minimum for a currency."
      },
      "getUpdatedGasPriceMinimum(uint256,uint256)": {
        "notice": "Calculates the gas price minimum based on governable parameters and block congestion."
      },
      "renounceOwnership()": {
        "notice": "Renouncing ownership will leave the contract without an owner, thereby removing any functionality that is only available to the owner."
      },
      "setAdjustmentSpeed(uint256)": {
        "notice": "Set a multiplier that impacts how quickly gas price minimum is adjusted."
      },
      "setRegistry(address)": {
        "notice": "Updates the address pointing to a Registry contract."
      },
      "setTargetDensity(uint256)": {
        "notice": "Set the block density targeted by the gas price minimum algorithm."
      },
      "updateGasPriceMinimum(uint256,uint256)": {
        "notice": "Adjust the gas price minimum based on governable parameters and block congestion."
      }
    }
  }
}