{
  "contractName": "GoldToken",
  "abi": [
    {
      "constant": true,
      "inputs": [],
      "name": "initialized",
      "outputs": [
        {
          "name": "",
          "type": "bool"
        }
      ],
      "payable": false,
      "stateMutability": "view",
      "type": "function"
    },
    {
      "anonymous": false,
      "inputs": [
        {
          "indexed": true,
          "name": "from",
          "type": "address"
        },
        {
          "indexed": true,
          "name": "to",
          "type": "address"
        },
        {
          "indexed": false,
          "name": "value",
          "type": "uint256"
        }
      ],
      "name": "Transfer",
      "type": "event"
    },
    {
      "anonymous": false,
      "inputs": [
        {
          "indexed": false,
          "name": "comment",
          "type": "string"
        }
      ],
      "name": "TransferComment",
      "type": "event"
    },
    {
      "anonymous": false,
      "inputs": [
        {
          "indexed": true,
          "name": "owner",
          "type": "address"
        },
        {
          "indexed": true,
          "name": "spender",
          "type": "address"
        },
        {
          "indexed": false,
          "name": "value",
          "type": "uint256"
        }
      ],
      "name": "Approval",
      "type": "event"
    },
    {
      "constant": false,
      "inputs": [],
      "name": "initialize",
      "outputs": [],
      "payable": false,
      "stateMutability": "nonpayable",
      "type": "function"
    },
    {
      "constant": false,
      "inputs": [
        {
          "name": "to",
          "type": "address"
        },
        {
          "name": "value",
          "type": "uint256"
        }
      ],
      "name": "transfer",
      "outputs": [
        {
          "name": "",
          "type": "bool"
        }
      ],
      "payable": false,
      "stateMutability": "nonpayable",
      "type": "function"
    },
    {
      "constant": false,
      "inputs": [
        {
          "name": "to",
          "type": "address"
        },
        {
          "name": "value",
          "type": "uint256"
        },
        {
          "name": "comment",
          "type": "string"
        }
      ],
      "name": "transferWithComment",
      "outputs": [
        {
          "name": "",
          "type": "bool"
        }
      ],
      "payable": false,
      "stateMutability": "nonpayable",
      "type": "function"
    },
    {
      "constant": false,
      "inputs": [
        {
          "name": "spender",
          "type": "address"
        },
        {
          "name": "value",
          "type": "uint256"
        }
      ],
      "name": "approve",
      "outputs": [
        {
          "name": "",
          "type": "bool"
        }
      ],
      "payable": false,
      "stateMutability": "nonpayable",
      "type": "function"
    },
    {
      "constant": false,
      "inputs": [
        {
          "name": "spender",
          "type": "address"
        },
        {
          "name": "value",
          "type": "uint256"
        }
      ],
      "name": "increaseAllowance",
      "outputs": [
        {
          "name": "",
          "type": "bool"
        }
      ],
      "payable": false,
      "stateMutability": "nonpayable",
      "type": "function"
    },
    {
      "constant": false,
      "inputs": [
        {
          "name": "spender",
          "type": "address"
        },
        {
          "name": "value",
          "type": "uint256"
        }
      ],
      "name": "decreaseAllowance",
      "outputs": [
        {
          "name": "",
          "type": "bool"
        }
      ],
      "payable": false,
      "stateMutability": "nonpayable",
      "type": "function"
    },
    {
      "constant": false,
      "inputs": [
        {
          "name": "from",
          "type": "address"
        },
        {
          "name": "to",
          "type": "address"
        },
        {
          "name": "value",
          "type": "uint256"
        }
      ],
      "name": "transferFrom",
      "outputs": [
        {
          "name": "",
          "type": "bool"
        }
      ],
      "payable": false,
      "stateMutability": "nonpayable",
      "type": "function"
    },
    {
      "constant": true,
      "inputs": [],
      "name": "name",
      "outputs": [
        {
          "name": "",
          "type": "string"
        }
      ],
      "payable": false,
      "stateMutability": "view",
      "type": "function"
    },
    {
      "constant": true,
      "inputs": [],
      "name": "symbol",
      "outputs": [
        {
          "name": "",
          "type": "string"
        }
      ],
      "payable": false,
      "stateMutability": "view",
      "type": "function"
    },
    {
      "constant": true,
      "inputs": [],
      "name": "decimals",
      "outputs": [
        {
          "name": "",
          "type": "uint8"
        }
      ],
      "payable": false,
      "stateMutability": "view",
      "type": "function"
    },
    {
      "constant": true,
      "inputs": [],
      "name": "totalSupply",
      "outputs": [
        {
          "name": "",
          "type": "uint256"
        }
      ],
      "payable": false,
      "stateMutability": "view",
      "type": "function"
    },
    {
      "constant": true,
      "inputs": [
        {
          "name": "owner",
          "type": "address"
        },
        {
          "name": "spender",
          "type": "address"
        }
      ],
      "name": "allowance",
      "outputs": [
        {
          "name": "",
          "type": "uint256"
        }
      ],
      "payable": false,
      "stateMutability": "view",
      "type": "function"
    },
    {
      "constant": false,
      "inputs": [
        {
          "name": "amount",
          "type": "uint256"
        }
      ],
      "name": "increaseSupply",
      "outputs": [],
      "payable": false,
      "stateMutability": "nonpayable",
      "type": "function"
    },
    {
      "constant": true,
      "inputs": [
        {
          "name": "owner",
          "type": "address"
        }
      ],
      "name": "balanceOf",
      "outputs": [
        {
          "name": "",
          "type": "uint256"
        }
      ],
      "payable": false,
      "stateMutability": "view",
      "type": "function"
    }
  ],
  "bytecode": "0x608060405234801561001057600080fd5b5061161f806100206000396000f3fe608060405234801561001057600080fd5b50600436106100f55760003560e01c806370a0823111610097578063a9059cbb11610066578063a9059cbb1461047e578063b921e163146104e4578063dd62ed3e14610512578063e1d6aceb1461058a576100f5565b806370a08231146103335780638129fc1c1461038b57806395d89b4114610395578063a457c2d714610418576100f5565b806318160ddd116100d357806318160ddd1461020557806323b872dd14610223578063313ce567146102a957806339509351146102cd576100f5565b806306fdde03146100fa578063095ea7b31461017d578063158ef93e146101e3575b600080fd5b610102610645565b6040518080602001828103825283818151815260200191508051906020019080838360005b83811015610142578082015181840152602081019050610127565b50505050905090810190601f16801561016f5780820380516001836020036101000a031916815260200191505b509250505060405180910390f35b6101c96004803603604081101561019357600080fd5b81019080803573ffffffffffffffffffffffffffffffffffffffff16906020019092919080359060200190929190505050610682565b604051808215151515815260200191505060405180910390f35b6101eb610774565b604051808215151515815260200191505060405180910390f35b61020d610786565b6040518082815260200191505060405180910390f35b61028f6004803603606081101561023957600080fd5b81019080803573ffffffffffffffffffffffffffffffffffffffff169060200190929190803573ffffffffffffffffffffffffffffffffffffffff16906020019092919080359060200190929190505050610790565b604051808215151515815260200191505060405180910390f35b6102b1610c87565b604051808260ff1660ff16815260200191505060405180910390f35b610319600480360360408110156102e357600080fd5b81019080803573ffffffffffffffffffffffffffffffffffffffff16906020019092919080359060200190929190505050610c90565b604051808215151515815260200191505060405180910390f35b6103756004803603602081101561034957600080fd5b81019080803573ffffffffffffffffffffffffffffffffffffffff169060200190929190505050610e1b565b6040518082815260200191505060405180910390f35b610393610e3c565b005b61039d610e79565b6040518080602001828103825283818151815260200191508051906020019080838360005b838110156103dd5780820151818401526020810190506103c2565b50505050905090810190601f16801561040a5780820380516001836020036101000a031916815260200191505b509250505060405180910390f35b6104646004803603604081101561042e57600080fd5b81019080803573ffffffffffffffffffffffffffffffffffffffff16906020019092919080359060200190929190505050610eb6565b604051808215151515815260200191505060405180910390f35b6104ca6004803603604081101561049457600080fd5b81019080803573ffffffffffffffffffffffffffffffffffffffff16906020019092919080359060200190929190505050611041565b604051808215151515815260200191505060405180910390f35b610510600480360360208110156104fa57600080fd5b8101908080359060200190929190505050611055565b005b6105746004803603604081101561052857600080fd5b81019080803573ffffffffffffffffffffffffffffffffffffffff169060200190929190803573ffffffffffffffffffffffffffffffffffffffff1690602001909291905050506110ed565b6040518082815260200191505060405180910390f35b61062b600480360360608110156105a057600080fd5b81019080803573ffffffffffffffffffffffffffffffffffffffff16906020019092919080359060200190929190803590602001906401000000008111156105e757600080fd5b8201836020820111156105f957600080fd5b8035906020019184600183028401116401000000008311171561061b57600080fd5b9091929391929390505050611174565b604051808215151515815260200191505060405180910390f35b60606040518060400160405280600981526020017f43656c6f20476f6c640000000000000000000000000000000000000000000000815250905090565b600081600260003373ffffffffffffffffffffffffffffffffffffffff1673ffffffffffffffffffffffffffffffffffffffff16815260200190815260200160002060008573ffffffffffffffffffffffffffffffffffffffff1673ffffffffffffffffffffffffffffffffffffffff168152602001908152602001600020819055508273ffffffffffffffffffffffffffffffffffffffff163373ffffffffffffffffffffffffffffffffffffffff167f8c5be1e5ebec7d5bd14f71427d1e84f3dd0314c0f7b2291e5b200ac8c7c3b925846040518082815260200191505060405180910390a36001905092915050565b6000809054906101000a900460ff1681565b6000600154905090565b60008073ffffffffffffffffffffffffffffffffffffffff168373ffffffffffffffffffffffffffffffffffffffff161415610817576040517f08c379a000000000000000000000000000000000000000000000000000000000815260040180806020018281038252602a8152602001806115ca602a913960400191505060405180910390fd5b61082084610e1b565b821115610878576040517f08c379a00000000000000000000000000000000000000000000000000000000081526004018080602001828103825260298152602001806115446029913960400191505060405180910390fd5b600260008573ffffffffffffffffffffffffffffffffffffffff1673ffffffffffffffffffffffffffffffffffffffff16815260200190815260200160002060003373ffffffffffffffffffffffffffffffffffffffff1673ffffffffffffffffffffffffffffffffffffffff1681526020019081526020016000205482111561094d576040517f08c379a000000000000000000000000000000000000000000000000000000000815260040180806020018281038252603881526020018061156d6038913960400191505060405180910390fd5b600060fd73ffffffffffffffffffffffffffffffffffffffff1660005a90878787604051602001808473ffffffffffffffffffffffffffffffffffffffff1673ffffffffffffffffffffffffffffffffffffffff1681526020018373ffffffffffffffffffffffffffffffffffffffff1673ffffffffffffffffffffffffffffffffffffffff16815260200182815260200193505050506040516020818303038152906040526040518082805190602001908083835b60208310610a265780518252602082019150602081019050602083039250610a03565b6001836020036101000a038019825116818451168082178552505050505050905001915050600060405180830381858888f193505050503d8060008114610a89576040519150601f19603f3d011682016040523d82523d6000602084013e610a8e565b606091505b50508091505080610b07576040517f08c379a00000000000000000000000000000000000000000000000000000000081526004018080602001828103825260198152602001807f43656c6f20476f6c64207472616e73666572206661696c65640000000000000081525060200191505060405180910390fd5b610b9683600260008873ffffffffffffffffffffffffffffffffffffffff1673ffffffffffffffffffffffffffffffffffffffff16815260200190815260200160002060003373ffffffffffffffffffffffffffffffffffffffff1673ffffffffffffffffffffffffffffffffffffffff168152602001908152602001600020546111f290919063ffffffff16565b600260008773ffffffffffffffffffffffffffffffffffffffff1673ffffffffffffffffffffffffffffffffffffffff16815260200190815260200160002060003373ffffffffffffffffffffffffffffffffffffffff1673ffffffffffffffffffffffffffffffffffffffff168152602001908152602001600020819055508373ffffffffffffffffffffffffffffffffffffffff168573ffffffffffffffffffffffffffffffffffffffff167fddf252ad1be2c89b69c2b068fc378daa952ba7f163c4a11628f55a4df523b3ef856040518082815260200191505060405180910390a360019150509392505050565b60006012905090565b600080600260003373ffffffffffffffffffffffffffffffffffffffff1673ffffffffffffffffffffffffffffffffffffffff16815260200190815260200160002060008573ffffffffffffffffffffffffffffffffffffffff1673ffffffffffffffffffffffffffffffffffffffff1681526020019081526020016000205490506000610d27848361121290919063ffffffff16565b905080600260003373ffffffffffffffffffffffffffffffffffffffff1673ffffffffffffffffffffffffffffffffffffffff16815260200190815260200160002060008773ffffffffffffffffffffffffffffffffffffffff1673ffffffffffffffffffffffffffffffffffffffff168152602001908152602001600020819055508473ffffffffffffffffffffffffffffffffffffffff163373ffffffffffffffffffffffffffffffffffffffff167f8c5be1e5ebec7d5bd14f71427d1e84f3dd0314c0f7b2291e5b200ac8c7c3b925836040518082815260200191505060405180910390a360019250505092915050565b60008173ffffffffffffffffffffffffffffffffffffffff16319050919050565b6000809054906101000a900460ff1615610e5557600080fd5b60016000806101000a81548160ff0219169083151502179055506000600181905550565b60606040518060400160405280600481526020017f63474c4400000000000000000000000000000000000000000000000000000000815250905090565b600080600260003373ffffffffffffffffffffffffffffffffffffffff1673ffffffffffffffffffffffffffffffffffffffff16815260200190815260200160002060008573ffffffffffffffffffffffffffffffffffffffff1673ffffffffffffffffffffffffffffffffffffffff1681526020019081526020016000205490506000610f4d84836111f290919063ffffffff16565b905080600260003373ffffffffffffffffffffffffffffffffffffffff1673ffffffffffffffffffffffffffffffffffffffff16815260200190815260200160002060008773ffffffffffffffffffffffffffffffffffffffff1673ffffffffffffffffffffffffffffffffffffffff168152602001908152602001600020819055508473ffffffffffffffffffffffffffffffffffffffff163373ffffffffffffffffffffffffffffffffffffffff167f8c5be1e5ebec7d5bd14f71427d1e84f3dd0314c0f7b2291e5b200ac8c7c3b925836040518082815260200191505060405180910390a360019250505092915050565b600061104d8383611231565b905092915050565b600073ffffffffffffffffffffffffffffffffffffffff163373ffffffffffffffffffffffffffffffffffffffff16146110da576040517f08c379a00000000000000000000000000000000000000000000000000000000081526004018080602001828103825260258152602001806115a56025913960400191505060405180910390fd5b8060016000828254019250508190555050565b6000600260008473ffffffffffffffffffffffffffffffffffffffff1673ffffffffffffffffffffffffffffffffffffffff16815260200190815260200160002060008373ffffffffffffffffffffffffffffffffffffffff1673ffffffffffffffffffffffffffffffffffffffff16815260200190815260200160002054905092915050565b6000806111818686611231565b90507fe5d4e30fb8364e57bc4d662a07d0cf36f4c34552004c4c3624620a2c1d1c03dc848460405180806020018281038252848482818152602001925080828437600081840152601f19601f820116905080830192505050935050505060405180910390a180915050949350505050565b60008282111561120157600080fd5b600082840390508091505092915050565b60008082840190508381101561122757600080fd5b8091505092915050565b60008073ffffffffffffffffffffffffffffffffffffffff168373ffffffffffffffffffffffffffffffffffffffff1614156112b8576040517f08c379a000000000000000000000000000000000000000000000000000000000815260040180806020018281038252602a8152602001806115ca602a913960400191505060405180910390fd5b6112c133610e1b565b821115611319576040517f08c379a00000000000000000000000000000000000000000000000000000000081526004018080602001828103825260298152602001806115446029913960400191505060405180910390fd5b600060fd73ffffffffffffffffffffffffffffffffffffffff1660005a90338787604051602001808473ffffffffffffffffffffffffffffffffffffffff1673ffffffffffffffffffffffffffffffffffffffff1681526020018373ffffffffffffffffffffffffffffffffffffffff1673ffffffffffffffffffffffffffffffffffffffff16815260200182815260200193505050506040516020818303038152906040526040518082805190602001908083835b602083106113f257805182526020820191506020810190506020830392506113cf565b6001836020036101000a038019825116818451168082178552505050505050905001915050600060405180830381858888f193505050503d8060008114611455576040519150601f19603f3d011682016040523d82523d6000602084013e61145a565b606091505b505080915050806114d3576040517f08c379a00000000000000000000000000000000000000000000000000000000081526004018080602001828103825260198152602001807f43656c6f20476f6c64207472616e73666572206661696c65640000000000000081525060200191505060405180910390fd5b8373ffffffffffffffffffffffffffffffffffffffff163373ffffffffffffffffffffffffffffffffffffffff167fddf252ad1be2c89b69c2b068fc378daa952ba7f163c4a11628f55a4df523b3ef856040518082815260200191505060405180910390a360019150509291505056fe7472616e736665722076616c75652065786365656465642062616c616e6365206f662073656e6465727472616e736665722076616c75652065786365656465642073656e646572277320616c6c6f77616e636520666f7220726563697069656e7473656e64657220776173206e6f7420766d20287265736572766564203078302061646472297472616e7366657220617474656d7074656420746f207265736572766564206164647265737320307830a165627a7a7230582042ee5335f15fb2aea4f79d61afe329b697cc89a5fd9d614c14b712a7665ff1690029",
  "source": "pragma solidity ^0.5.3;\n\nimport \"openzeppelin-solidity/contracts/math/SafeMath.sol\";\n\nimport \"./Initializable.sol\";\nimport \"./interfaces/IERC20Token.sol\";\nimport \"./interfaces/ICeloToken.sol\";\n\ncontract GoldToken is Initializable, IERC20Token, ICeloToken {\n  using SafeMath for uint256;\n\n  // Address of the TRANSFER precompiled contract.\n  // solhint-disable state-visibility\n  address constant TRANSFER = address(0xfd);\n  string constant NAME = \"Celo Gold\";\n  string constant SYMBOL = \"cGLD\";\n  uint8 constant DECIMALS = 18;\n  uint256 internal totalSupply_;\n  // solhint-enable state-visibility\n\n  mapping(address => mapping(address => uint256)) internal allowed;\n\n  event Transfer(address indexed from, address indexed to, uint256 value);\n\n  event TransferComment(string comment);\n\n  event Approval(address indexed owner, address indexed spender, uint256 value);\n\n  /**\n   * Only VM would be able to set the caller address to 0x0 unless someone\n   * really has the private key for 0x0\n   */\n  modifier onlyVm() {\n    require(msg.sender == address(0), \"sender was not vm (reserved 0x0 addr)\");\n    _;\n  }\n\n  /**\n   * @notice Sets 'initialized' to true.\n   */\n  // solhint-disable-next-line no-empty-blocks\n  function initialize() external initializer {\n    totalSupply_ = 0;\n  }\n\n  /**\n   * @notice Transfers Celo Gold from one address to another.\n   * @param to The address to transfer Celo Gold to.\n   * @param value The amount of Celo Gold to transfer.\n   * @return True if the transaction succeeds.\n   */\n  // solhint-disable-next-line no-simple-event-func-name\n  function transfer(address to, uint256 value) external returns (bool) {\n    return _transfer(to, value);\n  }\n\n  /**\n   * @notice Transfers Celo Gold from one address to another with a comment.\n   * @param to The address to transfer Celo Gold to.\n   * @param value The amount of Celo Gold to transfer.\n   * @param comment The transfer comment\n   * @return True if the transaction succeeds.\n   */\n  function transferWithComment(address to, uint256 value, string calldata comment)\n    external\n    returns (bool)\n  {\n    bool succeeded = _transfer(to, value);\n    emit TransferComment(comment);\n    return succeeded;\n  }\n\n  /**\n   * @notice Approve a user to transfer Celo Gold on behalf of another user.\n   * @param spender The address which is being approved to spend Celo Gold.\n   * @param value The amount of Celo Gold approved to the spender.\n   * @return True if the transaction succeeds.\n   */\n  function approve(address spender, uint256 value) external returns (bool) {\n    allowed[msg.sender][spender] = value;\n    emit Approval(msg.sender, spender, value);\n    return true;\n  }\n\n  /**\n   * @notice Increases the allowance of another user.\n   * @param spender The address which is being approved to spend Celo Gold.\n   * @param value The increment of the amount of Celo Gold approved to the spender.\n   * @return True if the transaction succeeds.\n   */\n  function increaseAllowance(address spender, uint256 value) external returns (bool) {\n    uint256 oldValue = allowed[msg.sender][spender];\n    uint256 newValue = oldValue.add(value);\n    allowed[msg.sender][spender] = newValue;\n    emit Approval(msg.sender, spender, newValue);\n    return true;\n  }\n\n  /**\n   * @notice Decreases the allowance of another user.\n   * @param spender The address which is being approved to spend Celo Gold.\n   * @param value The decrement of the amount of Celo Gold approved to the spender.\n   * @return True if the transaction succeeds.\n   */\n  function decreaseAllowance(address spender, uint256 value) external returns (bool) {\n    uint256 oldValue = allowed[msg.sender][spender];\n    uint256 newValue = oldValue.sub(value);\n    allowed[msg.sender][spender] = newValue;\n    emit Approval(msg.sender, spender, newValue);\n    return true;\n  }\n\n  /**\n   * @notice Transfers Celo Gold from one address to another on behalf of a user.\n   * @param from The address to transfer Celo Gold from.\n   * @param to The address to transfer Celo Gold to.\n   * @param value The amount of Celo Gold to transfer.\n   * @return True if the transaction succeeds.\n   */\n  function transferFrom(address from, address to, uint256 value) external returns (bool) {\n    require(to != address(0), \"transfer attempted to reserved address 0x0\");\n    require(value <= balanceOf(from), \"transfer value exceeded balance of sender\");\n    require(\n      value <= allowed[from][msg.sender],\n      \"transfer value exceeded sender's allowance for recipient\"\n    );\n\n    bool success;\n    (success, ) = TRANSFER.call.value(0).gas(gasleft())(abi.encode(from, to, value));\n    require(success, \"Celo Gold transfer failed\");\n\n    allowed[from][msg.sender] = allowed[from][msg.sender].sub(value);\n    emit Transfer(from, to, value);\n    return true;\n  }\n\n  /**\n   * @return The name of the Celo Gold token.\n   */\n  function name() external view returns (string memory) {\n    return NAME;\n  }\n\n  /**\n   * @return The symbol of the Celo Gold token.\n   */\n  function symbol() external view returns (string memory) {\n    return SYMBOL;\n  }\n\n  /**\n   * @return The number of decimal places to which Celo Gold is divisible.\n   */\n  function decimals() external view returns (uint8) {\n    return DECIMALS;\n  }\n\n  /**\n   * @return The total amount of Celo Gold in existence.\n   */\n  function totalSupply() external view returns (uint256) {\n    return totalSupply_;\n  }\n\n  /**\n   * @notice Gets the amount of owner's Celo Gold allowed to be spent by spender.\n   * @param owner The owner of the Celo Gold.\n   * @param spender The spender of the Celo Gold.\n   * @return The amount of Celo Gold owner is allowing spender to spend.\n   */\n  function allowance(address owner, address spender) external view returns (uint256) {\n    return allowed[owner][spender];\n  }\n\n  /**\n   * @notice Increases the variable for total amount of Celo Gold in existence.\n   * @param amount The amount to increase counter by\n   */\n  function increaseSupply(uint256 amount) external onlyVm {\n    totalSupply_ += amount;\n  }\n\n  /**\n   * @notice Gets the balance of the specified address.\n   * @param owner The address to query the balance of.\n   * @return The balance of the specified address.\n   */\n  function balanceOf(address owner) public view returns (uint256) {\n    return owner.balance;\n  }\n\n  /**\n   * @notice internal Celo Gold transfer from one address to another.\n   * @param to The address to transfer Celo Gold to.\n   * @param value The amount of Celo Gold to transfer.\n   * @return True if the transaction succeeds.\n   */\n  function _transfer(address to, uint256 value) internal returns (bool) {\n    require(to != address(0), \"transfer attempted to reserved address 0x0\");\n    require(value <= balanceOf(msg.sender), \"transfer value exceeded balance of sender\");\n\n    bool success;\n    (success, ) = TRANSFER.call.value(0).gas(gasleft())(abi.encode(msg.sender, to, value));\n    require(success, \"Celo Gold transfer failed\");\n    emit Transfer(msg.sender, to, value);\n    return true;\n  }\n}\n",
  "sourcePath": "/Users/cmcewen/celo/celo-monorepo/packages/protocol/contracts/common/GoldToken.sol",
  "compiler": {
    "name": "solc",
    "version": "0.5.8+commit.23d335f2.Emscripten.clang"
  },
  "schemaVersion": "3.0.10",
  "updatedAt": "2019-12-06T00:04:14.809Z",
  "devdoc": {
    "methods": {
      "allowance(address,address)": {
        "params": {
          "owner": "The owner of the Celo Gold.",
          "spender": "The spender of the Celo Gold."
        },
        "return": "The amount of Celo Gold owner is allowing spender to spend."
      },
      "approve(address,uint256)": {
        "params": {
          "spender": "The address which is being approved to spend Celo Gold.",
          "value": "The amount of Celo Gold approved to the spender."
        },
        "return": "True if the transaction succeeds."
      },
      "balanceOf(address)": {
        "params": {
          "owner": "The address to query the balance of."
        },
        "return": "The balance of the specified address."
      },
      "decimals()": {
        "return": "The number of decimal places to which Celo Gold is divisible."
      },
      "decreaseAllowance(address,uint256)": {
        "params": {
          "spender": "The address which is being approved to spend Celo Gold.",
          "value": "The decrement of the amount of Celo Gold approved to the spender."
        },
        "return": "True if the transaction succeeds."
      },
      "increaseAllowance(address,uint256)": {
        "params": {
          "spender": "The address which is being approved to spend Celo Gold.",
          "value": "The increment of the amount of Celo Gold approved to the spender."
        },
        "return": "True if the transaction succeeds."
      },
      "increaseSupply(uint256)": {
        "params": {
          "amount": "The amount to increase counter by"
        }
      },
      "name()": {
        "return": "The name of the Celo Gold token."
      },
      "symbol()": {
        "return": "The symbol of the Celo Gold token."
      },
      "totalSupply()": {
        "return": "The total amount of Celo Gold in existence."
      },
      "transfer(address,uint256)": {
        "params": {
          "to": "The address to transfer Celo Gold to.",
          "value": "The amount of Celo Gold to transfer."
        },
        "return": "True if the transaction succeeds."
      },
      "transferFrom(address,address,uint256)": {
        "params": {
          "from": "The address to transfer Celo Gold from.",
          "to": "The address to transfer Celo Gold to.",
          "value": "The amount of Celo Gold to transfer."
        },
        "return": "True if the transaction succeeds."
      },
      "transferWithComment(address,uint256,string)": {
        "params": {
          "comment": "The transfer comment",
          "to": "The address to transfer Celo Gold to.",
          "value": "The amount of Celo Gold to transfer."
        },
        "return": "True if the transaction succeeds."
      }
    }
  },
  "userdoc": {
    "methods": {
      "allowance(address,address)": {
        "notice": "Gets the amount of owner's Celo Gold allowed to be spent by spender."
      },
      "approve(address,uint256)": {
        "notice": "Approve a user to transfer Celo Gold on behalf of another user."
      },
      "balanceOf(address)": {
        "notice": "Gets the balance of the specified address."
      },
      "decreaseAllowance(address,uint256)": {
        "notice": "Decreases the allowance of another user."
      },
      "increaseAllowance(address,uint256)": {
        "notice": "Increases the allowance of another user."
      },
      "increaseSupply(uint256)": {
        "notice": "Increases the variable for total amount of Celo Gold in existence."
      },
      "initialize()": {
        "notice": "Sets 'initialized' to true."
      },
      "transfer(address,uint256)": {
        "notice": "Transfers Celo Gold from one address to another."
      },
      "transferFrom(address,address,uint256)": {
        "notice": "Transfers Celo Gold from one address to another on behalf of a user."
      },
      "transferWithComment(address,uint256,string)": {
        "notice": "Transfers Celo Gold from one address to another with a comment."
      }
    }
  }
}