{
  "contractName": "Governance",
  "abi": [
    {
      "constant": true,
      "inputs": [],
      "name": "stageDurations",
      "outputs": [
        {
          "name": "approval",
          "type": "uint256"
        },
        {
          "name": "referendum",
          "type": "uint256"
        },
        {
          "name": "execution",
          "type": "uint256"
        }
      ],
      "payable": false,
      "stateMutability": "view",
      "type": "function"
    },
    {
      "constant": true,
      "inputs": [
        {
          "name": "index",
          "type": "uint256"
        }
      ],
      "name": "validatorAddressFromCurrentSet",
      "outputs": [
        {
          "name": "",
          "type": "address"
        }
      ],
      "payable": false,
      "stateMutability": "view",
      "type": "function"
    },
    {
      "constant": true,
      "inputs": [],
      "name": "concurrentProposals",
      "outputs": [
        {
          "name": "",
          "type": "uint256"
        }
      ],
      "payable": false,
      "stateMutability": "view",
      "type": "function"
    },
    {
      "constant": true,
      "inputs": [],
      "name": "approver",
      "outputs": [
        {
          "name": "",
          "type": "address"
        }
      ],
      "payable": false,
      "stateMutability": "view",
      "type": "function"
    },
    {
      "constant": true,
      "inputs": [],
      "name": "initialized",
      "outputs": [
        {
          "name": "",
          "type": "bool"
        }
      ],
      "payable": false,
      "stateMutability": "view",
      "type": "function"
    },
    {
      "constant": false,
      "inputs": [
        {
          "name": "sender",
          "type": "address"
        },
        {
          "name": "blsKey",
          "type": "bytes"
        },
        {
          "name": "blsPop",
          "type": "bytes"
        }
      ],
      "name": "checkProofOfPossession",
      "outputs": [
        {
          "name": "",
          "type": "bool"
        }
      ],
      "payable": false,
      "stateMutability": "nonpayable",
      "type": "function"
    },
    {
      "constant": true,
      "inputs": [],
      "name": "minDeposit",
      "outputs": [
        {
          "name": "",
          "type": "uint256"
        }
      ],
      "payable": false,
      "stateMutability": "view",
      "type": "function"
    },
    {
      "constant": true,
      "inputs": [
        {
          "name": "",
          "type": "bytes32"
        }
      ],
      "name": "hotfixes",
      "outputs": [
        {
          "name": "executed",
          "type": "bool"
        },
        {
          "name": "approved",
          "type": "bool"
        },
        {
          "name": "preparedEpoch",
          "type": "uint256"
        }
      ],
      "payable": false,
      "stateMutability": "view",
      "type": "function"
    },
    {
      "constant": true,
      "inputs": [
        {
          "name": "",
          "type": "address"
        }
      ],
      "name": "refundedDeposits",
      "outputs": [
        {
          "name": "",
          "type": "uint256"
        }
      ],
      "payable": false,
      "stateMutability": "view",
      "type": "function"
    },
    {
      "constant": false,
      "inputs": [],
      "name": "renounceOwnership",
      "outputs": [],
      "payable": false,
      "stateMutability": "nonpayable",
      "type": "function"
    },
    {
      "constant": true,
      "inputs": [],
      "name": "dequeueFrequency",
      "outputs": [
        {
          "name": "",
          "type": "uint256"
        }
      ],
      "payable": false,
      "stateMutability": "view",
      "type": "function"
    },
    {
      "constant": true,
      "inputs": [],
      "name": "registry",
      "outputs": [
        {
          "name": "",
          "type": "address"
        }
      ],
      "payable": false,
      "stateMutability": "view",
      "type": "function"
    },
    {
      "constant": true,
      "inputs": [],
      "name": "numberValidatorsInCurrentSet",
      "outputs": [
        {
          "name": "",
          "type": "uint256"
        }
      ],
      "payable": false,
      "stateMutability": "view",
      "type": "function"
    },
    {
      "constant": true,
      "inputs": [],
      "name": "owner",
      "outputs": [
        {
          "name": "",
          "type": "address"
        }
      ],
      "payable": false,
      "stateMutability": "view",
      "type": "function"
    },
    {
      "constant": true,
      "inputs": [],
      "name": "queueExpiry",
      "outputs": [
        {
          "name": "",
          "type": "uint256"
        }
      ],
      "payable": false,
      "stateMutability": "view",
      "type": "function"
    },
    {
      "constant": true,
      "inputs": [],
      "name": "isOwner",
      "outputs": [
        {
          "name": "",
          "type": "bool"
        }
      ],
      "payable": false,
      "stateMutability": "view",
      "type": "function"
    },
    {
      "constant": true,
      "inputs": [],
      "name": "getEpochNumber",
      "outputs": [
        {
          "name": "",
          "type": "uint256"
        }
      ],
      "payable": false,
      "stateMutability": "view",
      "type": "function"
    },
    {
      "constant": false,
      "inputs": [
        {
          "name": "registryAddress",
          "type": "address"
        }
      ],
      "name": "setRegistry",
      "outputs": [],
      "payable": false,
      "stateMutability": "nonpayable",
      "type": "function"
    },
    {
      "constant": true,
      "inputs": [
        {
          "name": "",
          "type": "uint256"
        }
      ],
      "name": "emptyIndices",
      "outputs": [
        {
          "name": "",
          "type": "uint256"
        }
      ],
      "payable": false,
      "stateMutability": "view",
      "type": "function"
    },
    {
      "constant": true,
      "inputs": [
        {
          "name": "",
          "type": "uint256"
        }
      ],
      "name": "dequeued",
      "outputs": [
        {
          "name": "",
          "type": "uint256"
        }
      ],
      "payable": false,
      "stateMutability": "view",
      "type": "function"
    },
    {
      "constant": true,
      "inputs": [],
      "name": "lastDequeue",
      "outputs": [
        {
          "name": "",
          "type": "uint256"
        }
      ],
      "payable": false,
      "stateMutability": "view",
      "type": "function"
    },
    {
      "constant": true,
      "inputs": [],
      "name": "proposalCount",
      "outputs": [
        {
          "name": "",
          "type": "uint256"
        }
      ],
      "payable": false,
      "stateMutability": "view",
      "type": "function"
    },
    {
      "constant": true,
      "inputs": [],
      "name": "getEpochSize",
      "outputs": [
        {
          "name": "",
          "type": "uint256"
        }
      ],
      "payable": false,
      "stateMutability": "view",
      "type": "function"
    },
    {
      "constant": true,
      "inputs": [
        {
          "name": "aNumerator",
          "type": "uint256"
        },
        {
          "name": "aDenominator",
          "type": "uint256"
        },
        {
          "name": "bNumerator",
          "type": "uint256"
        },
        {
          "name": "bDenominator",
          "type": "uint256"
        },
        {
          "name": "exponent",
          "type": "uint256"
        },
        {
          "name": "_decimals",
          "type": "uint256"
        }
      ],
      "name": "fractionMulExp",
      "outputs": [
        {
          "name": "",
          "type": "uint256"
        },
        {
          "name": "",
          "type": "uint256"
        }
      ],
      "payable": false,
      "stateMutability": "view",
      "type": "function"
    },
    {
      "constant": false,
      "inputs": [
        {
          "name": "newOwner",
          "type": "address"
        }
      ],
      "name": "transferOwnership",
      "outputs": [],
      "payable": false,
      "stateMutability": "nonpayable",
      "type": "function"
    },
    {
      "payable": true,
      "stateMutability": "payable",
      "type": "fallback"
    },
    {
      "anonymous": false,
      "inputs": [
        {
          "indexed": false,
          "name": "approver",
          "type": "address"
        }
      ],
      "name": "ApproverSet",
      "type": "event"
    },
    {
      "anonymous": false,
      "inputs": [
        {
          "indexed": false,
          "name": "concurrentProposals",
          "type": "uint256"
        }
      ],
      "name": "ConcurrentProposalsSet",
      "type": "event"
    },
    {
      "anonymous": false,
      "inputs": [
        {
          "indexed": false,
          "name": "minDeposit",
          "type": "uint256"
        }
      ],
      "name": "MinDepositSet",
      "type": "event"
    },
    {
      "anonymous": false,
      "inputs": [
        {
          "indexed": false,
          "name": "queueExpiry",
          "type": "uint256"
        }
      ],
      "name": "QueueExpirySet",
      "type": "event"
    },
    {
      "anonymous": false,
      "inputs": [
        {
          "indexed": false,
          "name": "dequeueFrequency",
          "type": "uint256"
        }
      ],
      "name": "DequeueFrequencySet",
      "type": "event"
    },
    {
      "anonymous": false,
      "inputs": [
        {
          "indexed": false,
          "name": "approvalStageDuration",
          "type": "uint256"
        }
      ],
      "name": "ApprovalStageDurationSet",
      "type": "event"
    },
    {
      "anonymous": false,
      "inputs": [
        {
          "indexed": false,
          "name": "referendumStageDuration",
          "type": "uint256"
        }
      ],
      "name": "ReferendumStageDurationSet",
      "type": "event"
    },
    {
      "anonymous": false,
      "inputs": [
        {
          "indexed": false,
          "name": "executionStageDuration",
          "type": "uint256"
        }
      ],
      "name": "ExecutionStageDurationSet",
      "type": "event"
    },
    {
      "anonymous": false,
      "inputs": [
        {
          "indexed": true,
          "name": "destination",
          "type": "address"
        },
        {
          "indexed": true,
          "name": "functionId",
          "type": "bytes4"
        },
        {
          "indexed": false,
          "name": "threshold",
          "type": "uint256"
        }
      ],
      "name": "ConstitutionSet",
      "type": "event"
    },
    {
      "anonymous": false,
      "inputs": [
        {
          "indexed": true,
          "name": "proposalId",
          "type": "uint256"
        },
        {
          "indexed": true,
          "name": "proposer",
          "type": "address"
        },
        {
          "indexed": false,
          "name": "transactionCount",
          "type": "uint256"
        },
        {
          "indexed": false,
          "name": "deposit",
          "type": "uint256"
        },
        {
          "indexed": false,
          "name": "timestamp",
          "type": "uint256"
        }
      ],
      "name": "ProposalQueued",
      "type": "event"
    },
    {
      "anonymous": false,
      "inputs": [
        {
          "indexed": true,
          "name": "proposalId",
          "type": "uint256"
        },
        {
          "indexed": true,
          "name": "account",
          "type": "address"
        },
        {
          "indexed": false,
          "name": "upvotes",
          "type": "uint256"
        }
      ],
      "name": "ProposalUpvoted",
      "type": "event"
    },
    {
      "anonymous": false,
      "inputs": [
        {
          "indexed": true,
          "name": "proposalId",
          "type": "uint256"
        },
        {
          "indexed": true,
          "name": "account",
          "type": "address"
        },
        {
          "indexed": false,
          "name": "revokedUpvotes",
          "type": "uint256"
        }
      ],
      "name": "ProposalUpvoteRevoked",
      "type": "event"
    },
    {
      "anonymous": false,
      "inputs": [
        {
          "indexed": true,
          "name": "proposalId",
          "type": "uint256"
        },
        {
          "indexed": false,
          "name": "timestamp",
          "type": "uint256"
        }
      ],
      "name": "ProposalDequeued",
      "type": "event"
    },
    {
      "anonymous": false,
      "inputs": [
        {
          "indexed": true,
          "name": "proposalId",
          "type": "uint256"
        }
      ],
      "name": "ProposalApproved",
      "type": "event"
    },
    {
      "anonymous": false,
      "inputs": [
        {
          "indexed": true,
          "name": "proposalId",
          "type": "uint256"
        },
        {
          "indexed": true,
          "name": "account",
          "type": "address"
        },
        {
          "indexed": false,
          "name": "value",
          "type": "uint256"
        },
        {
          "indexed": false,
          "name": "weight",
          "type": "uint256"
        }
      ],
      "name": "ProposalVoted",
      "type": "event"
    },
    {
      "anonymous": false,
      "inputs": [
        {
          "indexed": true,
          "name": "proposalId",
          "type": "uint256"
        }
      ],
      "name": "ProposalExecuted",
      "type": "event"
    },
    {
      "anonymous": false,
      "inputs": [
        {
          "indexed": false,
          "name": "proposalId",
          "type": "uint256"
        }
      ],
      "name": "ProposalExpired",
      "type": "event"
    },
    {
      "anonymous": false,
      "inputs": [
        {
          "indexed": false,
          "name": "participationBaseline",
          "type": "uint256"
        }
      ],
      "name": "ParticipationBaselineUpdated",
      "type": "event"
    },
    {
      "anonymous": false,
      "inputs": [
        {
          "indexed": false,
          "name": "participationFloor",
          "type": "uint256"
        }
      ],
      "name": "ParticipationFloorSet",
      "type": "event"
    },
    {
      "anonymous": false,
      "inputs": [
        {
          "indexed": false,
          "name": "baselineUpdateFactor",
          "type": "uint256"
        }
      ],
      "name": "ParticipationBaselineUpdateFactorSet",
      "type": "event"
    },
    {
      "anonymous": false,
      "inputs": [
        {
          "indexed": false,
          "name": "baselineQuorumFactor",
          "type": "uint256"
        }
      ],
      "name": "ParticipationBaselineQuorumFactorSet",
      "type": "event"
    },
    {
      "anonymous": false,
      "inputs": [
        {
          "indexed": true,
          "name": "hash",
          "type": "bytes32"
        },
        {
          "indexed": false,
          "name": "whitelister",
          "type": "address"
        }
      ],
      "name": "HotfixWhitelisted",
      "type": "event"
    },
    {
      "anonymous": false,
      "inputs": [
        {
          "indexed": true,
          "name": "hash",
          "type": "bytes32"
        }
      ],
      "name": "HotfixApproved",
      "type": "event"
    },
    {
      "anonymous": false,
      "inputs": [
        {
          "indexed": true,
          "name": "hash",
          "type": "bytes32"
        },
        {
          "indexed": true,
          "name": "epoch",
          "type": "uint256"
        }
      ],
      "name": "HotfixPrepared",
      "type": "event"
    },
    {
      "anonymous": false,
      "inputs": [
        {
          "indexed": true,
          "name": "hash",
          "type": "bytes32"
        }
      ],
      "name": "HotfixExecuted",
      "type": "event"
    },
    {
      "anonymous": false,
      "inputs": [
        {
          "indexed": true,
          "name": "registryAddress",
          "type": "address"
        }
      ],
      "name": "RegistrySet",
      "type": "event"
    },
    {
      "anonymous": false,
      "inputs": [
        {
          "indexed": true,
          "name": "previousOwner",
          "type": "address"
        },
        {
          "indexed": true,
          "name": "newOwner",
          "type": "address"
        }
      ],
      "name": "OwnershipTransferred",
      "type": "event"
    },
    {
      "constant": false,
      "inputs": [
        {
          "name": "registryAddress",
          "type": "address"
        },
        {
          "name": "_approver",
          "type": "address"
        },
        {
          "name": "_concurrentProposals",
          "type": "uint256"
        },
        {
          "name": "_minDeposit",
          "type": "uint256"
        },
        {
          "name": "_queueExpiry",
          "type": "uint256"
        },
        {
          "name": "_dequeueFrequency",
          "type": "uint256"
        },
        {
          "name": "approvalStageDuration",
          "type": "uint256"
        },
        {
          "name": "referendumStageDuration",
          "type": "uint256"
        },
        {
          "name": "executionStageDuration",
          "type": "uint256"
        },
        {
          "name": "participationBaseline",
          "type": "uint256"
        },
        {
          "name": "participationFloor",
          "type": "uint256"
        },
        {
          "name": "baselineUpdateFactor",
          "type": "uint256"
        },
        {
          "name": "baselineQuorumFactor",
          "type": "uint256"
        }
      ],
      "name": "initialize",
      "outputs": [],
      "payable": false,
      "stateMutability": "nonpayable",
      "type": "function"
    },
    {
      "constant": false,
      "inputs": [
        {
          "name": "_approver",
          "type": "address"
        }
      ],
      "name": "setApprover",
      "outputs": [],
      "payable": false,
      "stateMutability": "nonpayable",
      "type": "function"
    },
    {
      "constant": false,
      "inputs": [
        {
          "name": "_concurrentProposals",
          "type": "uint256"
        }
      ],
      "name": "setConcurrentProposals",
      "outputs": [],
      "payable": false,
      "stateMutability": "nonpayable",
      "type": "function"
    },
    {
      "constant": false,
      "inputs": [
        {
          "name": "_minDeposit",
          "type": "uint256"
        }
      ],
      "name": "setMinDeposit",
      "outputs": [],
      "payable": false,
      "stateMutability": "nonpayable",
      "type": "function"
    },
    {
      "constant": false,
      "inputs": [
        {
          "name": "_queueExpiry",
          "type": "uint256"
        }
      ],
      "name": "setQueueExpiry",
      "outputs": [],
      "payable": false,
      "stateMutability": "nonpayable",
      "type": "function"
    },
    {
      "constant": false,
      "inputs": [
        {
          "name": "_dequeueFrequency",
          "type": "uint256"
        }
      ],
      "name": "setDequeueFrequency",
      "outputs": [],
      "payable": false,
      "stateMutability": "nonpayable",
      "type": "function"
    },
    {
      "constant": false,
      "inputs": [
        {
          "name": "approvalStageDuration",
          "type": "uint256"
        }
      ],
      "name": "setApprovalStageDuration",
      "outputs": [],
      "payable": false,
      "stateMutability": "nonpayable",
      "type": "function"
    },
    {
      "constant": false,
      "inputs": [
        {
          "name": "referendumStageDuration",
          "type": "uint256"
        }
      ],
      "name": "setReferendumStageDuration",
      "outputs": [],
      "payable": false,
      "stateMutability": "nonpayable",
      "type": "function"
    },
    {
      "constant": false,
      "inputs": [
        {
          "name": "executionStageDuration",
          "type": "uint256"
        }
      ],
      "name": "setExecutionStageDuration",
      "outputs": [],
      "payable": false,
      "stateMutability": "nonpayable",
      "type": "function"
    },
    {
      "constant": false,
      "inputs": [
        {
          "name": "participationBaseline",
          "type": "uint256"
        }
      ],
      "name": "setParticipationBaseline",
      "outputs": [],
      "payable": false,
      "stateMutability": "nonpayable",
      "type": "function"
    },
    {
      "constant": false,
      "inputs": [
        {
          "name": "participationFloor",
          "type": "uint256"
        }
      ],
      "name": "setParticipationFloor",
      "outputs": [],
      "payable": false,
      "stateMutability": "nonpayable",
      "type": "function"
    },
    {
      "constant": false,
      "inputs": [
        {
          "name": "baselineUpdateFactor",
          "type": "uint256"
        }
      ],
      "name": "setBaselineUpdateFactor",
      "outputs": [],
      "payable": false,
      "stateMutability": "nonpayable",
      "type": "function"
    },
    {
      "constant": false,
      "inputs": [
        {
          "name": "baselineQuorumFactor",
          "type": "uint256"
        }
      ],
      "name": "setBaselineQuorumFactor",
      "outputs": [],
      "payable": false,
      "stateMutability": "nonpayable",
      "type": "function"
    },
    {
      "constant": false,
      "inputs": [
        {
          "name": "destination",
          "type": "address"
        },
        {
          "name": "functionId",
          "type": "bytes4"
        },
        {
          "name": "threshold",
          "type": "uint256"
        }
      ],
      "name": "setConstitution",
      "outputs": [],
      "payable": false,
      "stateMutability": "nonpayable",
      "type": "function"
    },
    {
      "constant": false,
      "inputs": [
        {
          "name": "values",
          "type": "uint256[]"
        },
        {
          "name": "destinations",
          "type": "address[]"
        },
        {
          "name": "data",
          "type": "bytes"
        },
        {
          "name": "dataLengths",
          "type": "uint256[]"
        }
      ],
      "name": "propose",
      "outputs": [
        {
          "name": "",
          "type": "uint256"
        }
      ],
      "payable": true,
      "stateMutability": "payable",
      "type": "function"
    },
    {
      "constant": false,
      "inputs": [
        {
          "name": "proposalId",
          "type": "uint256"
        },
        {
          "name": "lesser",
          "type": "uint256"
        },
        {
          "name": "greater",
          "type": "uint256"
        }
      ],
      "name": "upvote",
      "outputs": [
        {
          "name": "",
          "type": "bool"
        }
      ],
      "payable": false,
      "stateMutability": "nonpayable",
      "type": "function"
    },
    {
      "constant": false,
      "inputs": [
        {
          "name": "lesser",
          "type": "uint256"
        },
        {
          "name": "greater",
          "type": "uint256"
        }
      ],
      "name": "revokeUpvote",
      "outputs": [
        {
          "name": "",
          "type": "bool"
        }
      ],
      "payable": false,
      "stateMutability": "nonpayable",
      "type": "function"
    },
    {
      "constant": false,
      "inputs": [
        {
          "name": "proposalId",
          "type": "uint256"
        },
        {
          "name": "index",
          "type": "uint256"
        }
      ],
      "name": "approve",
      "outputs": [
        {
          "name": "",
          "type": "bool"
        }
      ],
      "payable": false,
      "stateMutability": "nonpayable",
      "type": "function"
    },
    {
      "constant": false,
      "inputs": [
        {
          "name": "proposalId",
          "type": "uint256"
        },
        {
          "name": "index",
          "type": "uint256"
        },
        {
          "name": "value",
          "type": "uint8"
        }
      ],
      "name": "vote",
      "outputs": [
        {
          "name": "",
          "type": "bool"
        }
      ],
      "payable": false,
      "stateMutability": "nonpayable",
      "type": "function"
    },
    {
      "constant": false,
      "inputs": [
        {
          "name": "proposalId",
          "type": "uint256"
        },
        {
          "name": "index",
          "type": "uint256"
        }
      ],
      "name": "execute",
      "outputs": [
        {
          "name": "",
          "type": "bool"
        }
      ],
      "payable": false,
      "stateMutability": "nonpayable",
      "type": "function"
    },
    {
      "constant": false,
      "inputs": [
        {
          "name": "hash",
          "type": "bytes32"
        }
      ],
      "name": "approveHotfix",
      "outputs": [],
      "payable": false,
      "stateMutability": "nonpayable",
      "type": "function"
    },
    {
      "constant": false,
      "inputs": [
        {
          "name": "hash",
          "type": "bytes32"
        }
      ],
      "name": "whitelistHotfix",
      "outputs": [],
      "payable": false,
      "stateMutability": "nonpayable",
      "type": "function"
    },
    {
      "constant": false,
      "inputs": [
        {
          "name": "hash",
          "type": "bytes32"
        }
      ],
      "name": "prepareHotfix",
      "outputs": [],
      "payable": false,
      "stateMutability": "nonpayable",
      "type": "function"
    },
    {
      "constant": false,
      "inputs": [
        {
          "name": "values",
          "type": "uint256[]"
        },
        {
          "name": "destinations",
          "type": "address[]"
        },
        {
          "name": "data",
          "type": "bytes"
        },
        {
          "name": "dataLengths",
          "type": "uint256[]"
        }
      ],
      "name": "executeHotfix",
      "outputs": [],
      "payable": false,
      "stateMutability": "nonpayable",
      "type": "function"
    },
    {
      "constant": false,
      "inputs": [],
      "name": "withdraw",
      "outputs": [
        {
          "name": "",
          "type": "bool"
        }
      ],
      "payable": false,
      "stateMutability": "nonpayable",
      "type": "function"
    },
    {
      "constant": true,
      "inputs": [
        {
          "name": "account",
          "type": "address"
        }
      ],
      "name": "isVoting",
      "outputs": [
        {
          "name": "",
          "type": "bool"
        }
      ],
      "payable": false,
      "stateMutability": "view",
      "type": "function"
    },
    {
      "constant": true,
      "inputs": [],
      "name": "getApprovalStageDuration",
      "outputs": [
        {
          "name": "",
          "type": "uint256"
        }
      ],
      "payable": false,
      "stateMutability": "view",
      "type": "function"
    },
    {
      "constant": true,
      "inputs": [],
      "name": "getReferendumStageDuration",
      "outputs": [
        {
          "name": "",
          "type": "uint256"
        }
      ],
      "payable": false,
      "stateMutability": "view",
      "type": "function"
    },
    {
      "constant": true,
      "inputs": [],
      "name": "getExecutionStageDuration",
      "outputs": [
        {
          "name": "",
          "type": "uint256"
        }
      ],
      "payable": false,
      "stateMutability": "view",
      "type": "function"
    },
    {
      "constant": true,
      "inputs": [],
      "name": "getParticipationParameters",
      "outputs": [
        {
          "name": "",
          "type": "uint256"
        },
        {
          "name": "",
          "type": "uint256"
        },
        {
          "name": "",
          "type": "uint256"
        },
        {
          "name": "",
          "type": "uint256"
        }
      ],
      "payable": false,
      "stateMutability": "view",
      "type": "function"
    },
    {
      "constant": true,
      "inputs": [
        {
          "name": "proposalId",
          "type": "uint256"
        }
      ],
      "name": "proposalExists",
      "outputs": [
        {
          "name": "",
          "type": "bool"
        }
      ],
      "payable": false,
      "stateMutability": "view",
      "type": "function"
    },
    {
      "constant": true,
      "inputs": [
        {
          "name": "proposalId",
          "type": "uint256"
        }
      ],
      "name": "getProposal",
      "outputs": [
        {
          "name": "",
          "type": "address"
        },
        {
          "name": "",
          "type": "uint256"
        },
        {
          "name": "",
          "type": "uint256"
        },
        {
          "name": "",
          "type": "uint256"
        }
      ],
      "payable": false,
      "stateMutability": "view",
      "type": "function"
    },
    {
      "constant": true,
      "inputs": [
        {
          "name": "proposalId",
          "type": "uint256"
        },
        {
          "name": "index",
          "type": "uint256"
        }
      ],
      "name": "getProposalTransaction",
      "outputs": [
        {
          "name": "",
          "type": "uint256"
        },
        {
          "name": "",
          "type": "address"
        },
        {
          "name": "",
          "type": "bytes"
        }
      ],
      "payable": false,
      "stateMutability": "view",
      "type": "function"
    },
    {
      "constant": true,
      "inputs": [
        {
          "name": "proposalId",
          "type": "uint256"
        }
      ],
      "name": "isApproved",
      "outputs": [
        {
          "name": "",
          "type": "bool"
        }
      ],
      "payable": false,
      "stateMutability": "view",
      "type": "function"
    },
    {
      "constant": true,
      "inputs": [
        {
          "name": "proposalId",
          "type": "uint256"
        }
      ],
      "name": "getVoteTotals",
      "outputs": [
        {
          "name": "",
          "type": "uint256"
        },
        {
          "name": "",
          "type": "uint256"
        },
        {
          "name": "",
          "type": "uint256"
        }
      ],
      "payable": false,
      "stateMutability": "view",
      "type": "function"
    },
    {
      "constant": true,
      "inputs": [
        {
          "name": "account",
          "type": "address"
        },
        {
          "name": "index",
          "type": "uint256"
        }
      ],
      "name": "getVoteRecord",
      "outputs": [
        {
          "name": "",
          "type": "uint256"
        },
        {
          "name": "",
          "type": "uint256"
        }
      ],
      "payable": false,
      "stateMutability": "view",
      "type": "function"
    },
    {
      "constant": true,
      "inputs": [],
      "name": "getQueueLength",
      "outputs": [
        {
          "name": "",
          "type": "uint256"
        }
      ],
      "payable": false,
      "stateMutability": "view",
      "type": "function"
    },
    {
      "constant": true,
      "inputs": [
        {
          "name": "proposalId",
          "type": "uint256"
        }
      ],
      "name": "getUpvotes",
      "outputs": [
        {
          "name": "",
          "type": "uint256"
        }
      ],
      "payable": false,
      "stateMutability": "view",
      "type": "function"
    },
    {
      "constant": true,
      "inputs": [],
      "name": "getQueue",
      "outputs": [
        {
          "name": "",
          "type": "uint256[]"
        },
        {
          "name": "",
          "type": "uint256[]"
        }
      ],
      "payable": false,
      "stateMutability": "view",
      "type": "function"
    },
    {
      "constant": true,
      "inputs": [],
      "name": "getDequeue",
      "outputs": [
        {
          "name": "",
          "type": "uint256[]"
        }
      ],
      "payable": false,
      "stateMutability": "view",
      "type": "function"
    },
    {
      "constant": true,
      "inputs": [
        {
          "name": "account",
          "type": "address"
        }
      ],
      "name": "getUpvoteRecord",
      "outputs": [
        {
          "name": "",
          "type": "uint256"
        },
        {
          "name": "",
          "type": "uint256"
        }
      ],
      "payable": false,
      "stateMutability": "view",
      "type": "function"
    },
    {
      "constant": true,
      "inputs": [
        {
          "name": "account",
          "type": "address"
        }
      ],
      "name": "getMostRecentReferendumProposal",
      "outputs": [
        {
          "name": "",
          "type": "uint256"
        }
      ],
      "payable": false,
      "stateMutability": "view",
      "type": "function"
    },
    {
      "constant": true,
      "inputs": [
        {
          "name": "hash",
          "type": "bytes32"
        }
      ],
      "name": "isHotfixPassing",
      "outputs": [
        {
          "name": "",
          "type": "bool"
        }
      ],
      "payable": false,
      "stateMutability": "view",
      "type": "function"
    },
    {
      "constant": true,
      "inputs": [],
      "name": "byzantineQuorumValidatorsInCurrentSet",
      "outputs": [
        {
          "name": "",
          "type": "uint256"
        }
      ],
      "payable": false,
      "stateMutability": "view",
      "type": "function"
    },
    {
      "constant": true,
      "inputs": [
        {
          "name": "hash",
          "type": "bytes32"
        }
      ],
      "name": "getHotfixRecord",
      "outputs": [
        {
          "name": "",
          "type": "bool"
        },
        {
          "name": "",
          "type": "bool"
        },
        {
          "name": "",
          "type": "uint256"
        }
      ],
      "payable": false,
      "stateMutability": "view",
      "type": "function"
    },
    {
      "constant": false,
      "inputs": [],
      "name": "dequeueProposalsIfReady",
      "outputs": [],
      "payable": false,
      "stateMutability": "nonpayable",
      "type": "function"
    },
    {
      "constant": true,
      "inputs": [
        {
          "name": "proposalId",
          "type": "uint256"
        }
      ],
      "name": "isQueued",
      "outputs": [
        {
          "name": "",
          "type": "bool"
        }
      ],
      "payable": false,
      "stateMutability": "view",
      "type": "function"
    },
    {
      "constant": true,
      "inputs": [
        {
          "name": "proposalId",
          "type": "uint256"
        }
      ],
      "name": "isProposalPassing",
      "outputs": [
        {
          "name": "",
          "type": "bool"
        }
      ],
      "payable": false,
      "stateMutability": "view",
      "type": "function"
    },
    {
      "constant": true,
      "inputs": [
        {
          "name": "destination",
          "type": "address"
        },
        {
          "name": "functionId",
          "type": "bytes4"
        }
      ],
      "name": "getConstitution",
      "outputs": [
        {
          "name": "",
          "type": "uint256"
        }
      ],
      "payable": false,
      "stateMutability": "view",
      "type": "function"
    }
  ],
  "bytecode": "0x6080604052336000806101000a81548173ffffffffffffffffffffffffffffffffffffffff021916908373ffffffffffffffffffffffffffffffffffffffff1602179055506000809054906101000a900473ffffffffffffffffffffffffffffffffffffffff1673ffffffffffffffffffffffffffffffffffffffff16600073ffffffffffffffffffffffffffffffffffffffff167f8be0079c531659141344cd1fd0a4f28419497f9722a3daafe3b4186f6b6457e060405160405180910390a360018081905550617935806100d66000396000f3fe6080604052600436106104315760003560e01c80638018556e11610229578063b8f770051161012e578063cea69e74116100b6578063ec6830721161007a578063ec68307214611d35578063ed38527414611dbd578063f17fa86314611e41578063f2fde38b14611e6c578063ffea74c014611ebd57610431565b8063cea69e7414611b4f578063d704f0c514611b8a578063da35c66414611c82578063df4da46114611cad578063e41db45514611cd857610431565b8063c73a6d78116100fd578063c73a6d7814611985578063c7f758a8146119d8578063c805956d14611a68578063c8d8d2b514611aa8578063cd845a7614611ae357610431565b8063b8f77005146117e5578063bbb2eab914611810578063c0aee5f41461187a578063c1939b20146118a557610431565b80639a7b3be7116101b1578063ad78c10911610180578063ad78c10914611698578063add004df146116c3578063af108a0e14611712578063b0f998421461176f578063b15f0f58146117aa57610431565b80639a7b3be7146115925780639cb02dfc146115bd578063a91ee0dc146115f8578063aa2feb831461164957610431565b80638f32d59b116101f85780638f32d59b146114105780638fcc9cfb1461143f57806397b9eba61461147a57806398f42702146115085780639a6c3d831461155757610431565b80638018556e1461132857806387ee8a0f146113635780638da5cb5b1461138e5780638e905ed6146113e557610431565b80633ccfd60b1161033a5780635f8dd649116102c2578063715018a611610286578063715018a6146110b757806377d26a2a146110ce5780637910867b146110f95780637b1039991461114c5780637bdd3b2e146111a357610431565b80635f8dd64914610db657806360b4d34d14610e1f5780636643ac5814610e845780636c3b314b14610ebf5780636de8a63b1461104b57610431565b80635601eaea116103095780635601eaea14610be45780635733397814610c415780635c75939414610ca85780635d35a3d914610ce35780635f115a8514610d4057610431565b80633ccfd60b14610aea5780633db9dd9a14610b1957806341b3d18514610b5457806345a7849914610b7f57610431565b80631c65bc61116103bd5780632c0523551161038c5780632c052355146109c957806330a095d014610a045780633156560e14610a2f578063344944cf14610a805780633bb0ed2b14610ad357610431565b80631c65bc611461073f57806323f0ab651461077a5780632762132114610911578063283aaefb1461096457610431565b806311fb9e841161040457806311fb9e84146105c05780631201a0fb1461063b5780631374b22d14610666578063141a8dd8146106b9578063158ef93e1461071057610431565b806301fce27e1461043357806304acaec9146104e75780630e0b78ae146105225780630f717e4214610587575b005b34801561043f57600080fd5b50610448611ee8565b604051808060200180602001838103835285818151815260200191508051906020019060200280838360005b8381101561048f578082015181840152602081019050610474565b50505050905001838103825284818151815260200191508051906020019060200280838360005b838110156104d15780820151818401526020810190506104b6565b5050505090500194505050505060405180910390f35b3480156104f357600080fd5b506105206004803603602081101561050a57600080fd5b8101908080359060200190929190505050612025565b005b34801561052e57600080fd5b5061055b6004803603602081101561054557600080fd5b81019080803590602001909291905050506120de565b604051808415151515815260200183151515158152602001828152602001935050505060405180910390f35b34801561059357600080fd5b5061059c61214f565b60405180848152602001838152602001828152602001935050505060405180910390f35b3480156105cc57600080fd5b506105f9600480360360208110156105e357600080fd5b8101908080359060200190929190505050612167565b604051808273ffffffffffffffffffffffffffffffffffffffff1673ffffffffffffffffffffffffffffffffffffffff16815260200191505060405180910390f35b34801561064757600080fd5b50610650612197565b6040518082815260200191505060405180910390f35b34801561067257600080fd5b5061069f6004803603602081101561068957600080fd5b810190808035906020019092919050505061219d565b604051808215151515815260200191505060405180910390f35b3480156106c557600080fd5b506106ce6121c1565b604051808273ffffffffffffffffffffffffffffffffffffffff1673ffffffffffffffffffffffffffffffffffffffff16815260200191505060405180910390f35b34801561071c57600080fd5b506107256121e7565b604051808215151515815260200191505060405180910390f35b34801561074b57600080fd5b506107786004803603602081101561076257600080fd5b81019080803590602001909291905050506121fa565b005b34801561078657600080fd5b506108f76004803603606081101561079d57600080fd5b81019080803573ffffffffffffffffffffffffffffffffffffffff169060200190929190803590602001906401000000008111156107da57600080fd5b8201836020820111156107ec57600080fd5b8035906020019184600183028401116401000000008311171561080e57600080fd5b91908080601f016020809104026020016040519081016040528093929190818152602001838380828437600081840152601f19601f8201169050808301925050505050505091929192908035906020019064010000000081111561087157600080fd5b82018360208201111561088357600080fd5b803590602001918460018302840111640100000000831117156108a557600080fd5b91908080601f016020809104026020016040519081016040528093929190818152602001838380828437600081840152601f19601f8201169050808301925050505050505091929192905050506122b3565b604051808215151515815260200191505060405180910390f35b34801561091d57600080fd5b5061094a6004803603602081101561093457600080fd5b8101908080359060200190929190505050612473565b604051808215151515815260200191505060405180910390f35b34801561097057600080fd5b506109b36004803603602081101561098757600080fd5b81019080803573ffffffffffffffffffffffffffffffffffffffff169060200190929190505050612497565b6040518082815260200191505060405180910390f35b3480156109d557600080fd5b50610a02600480360360208110156109ec57600080fd5b81019080803590602001909291905050506124e3565b005b348015610a1057600080fd5b50610a19612550565b6040518082815260200191505060405180910390f35b348015610a3b57600080fd5b50610a7e60048036036020811015610a5257600080fd5b81019080803573ffffffffffffffffffffffffffffffffffffffff16906020019092919050505061255d565b005b348015610a8c57600080fd5b50610ab960048036036020811015610aa357600080fd5b81019080803590602001909291905050506126a9565b604051808215151515815260200191505060405180910390f35b348015610adf57600080fd5b50610ae8612777565b005b348015610af657600080fd5b50610aff612b3d565b604051808215151515815260200191505060405180910390f35b348015610b2557600080fd5b50610b5260048036036020811015610b3c57600080fd5b8101908080359060200190929190505050612c6d565b005b348015610b6057600080fd5b50610b69612d26565b6040518082815260200191505060405180910390f35b348015610b8b57600080fd5b50610bb860048036036020811015610ba257600080fd5b8101908080359060200190929190505050612d2c565b604051808415151515815260200183151515158152602001828152602001935050505060405180910390f35b348015610bf057600080fd5b50610c2760048036036040811015610c0757600080fd5b810190808035906020019092919080359060200190929190505050612d70565b604051808215151515815260200191505060405180910390f35b348015610c4d57600080fd5b50610c8e60048036036060811015610c6457600080fd5b81019080803590602001909291908035906020019092919080359060200190929190505050612ed9565b604051808215151515815260200191505060405180910390f35b348015610cb457600080fd5b50610ce160048036036020811015610ccb57600080fd5b810190808035906020019092919050505061376a565b005b348015610cef57600080fd5b50610d2660048036036040811015610d0657600080fd5b810190808035906020019092919080359060200190929190505050613823565b604051808215151515815260200191505060405180910390f35b348015610d4c57600080fd5b50610d9960048036036040811015610d6357600080fd5b81019080803573ffffffffffffffffffffffffffffffffffffffff16906020019092919080359060200190929190505050613a0a565b604051808381526020018281526020019250505060405180910390f35b348015610dc257600080fd5b50610e0560048036036020811015610dd957600080fd5b81019080803573ffffffffffffffffffffffffffffffffffffffff169060200190929190505050613a92565b604051808215151515815260200191505060405180910390f35b348015610e2b57600080fd5b50610e6e60048036036020811015610e4257600080fd5b81019080803573ffffffffffffffffffffffffffffffffffffffff169060200190929190505050613b5c565b6040518082815260200191505060405180910390f35b348015610e9057600080fd5b50610ebd60048036036020811015610ea757600080fd5b8101908080359060200190929190505050613b74565b005b61103560048036036080811015610ed557600080fd5b8101908080359060200190640100000000811115610ef257600080fd5b820183602082011115610f0457600080fd5b80359060200191846020830284011164010000000083111715610f2657600080fd5b909192939192939080359060200190640100000000811115610f4757600080fd5b820183602082011115610f5957600080fd5b80359060200191846020830284011164010000000083111715610f7b57600080fd5b909192939192939080359060200190640100000000811115610f9c57600080fd5b820183602082011115610fae57600080fd5b80359060200191846001830284011164010000000083111715610fd057600080fd5b909192939192939080359060200190640100000000811115610ff157600080fd5b82018360208201111561100357600080fd5b8035906020019184602083028401116401000000008311171561102557600080fd5b9091929391929390505050613be7565b6040518082815260200191505060405180910390f35b34801561105757600080fd5b50611060613ea1565b6040518080602001828103825283818151815260200191508051906020019060200280838360005b838110156110a3578082015181840152602081019050611088565b505050509050019250505060405180910390f35b3480156110c357600080fd5b506110cc613ef9565b005b3480156110da57600080fd5b506110e3613fc9565b6040518082815260200191505060405180910390f35b34801561110557600080fd5b506111326004803603602081101561111c57600080fd5b8101908080359060200190929190505050613fcf565b604051808215151515815260200191505060405180910390f35b34801561115857600080fd5b50611161613ff3565b604051808273ffffffffffffffffffffffffffffffffffffffff1673ffffffffffffffffffffffffffffffffffffffff16815260200191505060405180910390f35b3480156111af57600080fd5b50611326600480360360808110156111c657600080fd5b81019080803590602001906401000000008111156111e357600080fd5b8201836020820111156111f557600080fd5b8035906020019184602083028401116401000000008311171561121757600080fd5b90919293919293908035906020019064010000000081111561123857600080fd5b82018360208201111561124a57600080fd5b8035906020019184602083028401116401000000008311171561126c57600080fd5b90919293919293908035906020019064010000000081111561128d57600080fd5b82018360208201111561129f57600080fd5b803590602001918460018302840111640100000000831117156112c157600080fd5b9091929391929390803590602001906401000000008111156112e257600080fd5b8201836020820111156112f457600080fd5b8035906020019184602083028401116401000000008311171561131657600080fd5b9091929391929390505050614019565b005b34801561133457600080fd5b506113616004803603602081101561134b57600080fd5b81019080803590602001909291905050506143f7565b005b34801561136f57600080fd5b50611378614464565b6040518082815260200191505060405180910390f35b34801561139a57600080fd5b506113a3614489565b604051808273ffffffffffffffffffffffffffffffffffffffff1673ffffffffffffffffffffffffffffffffffffffff16815260200191505060405180910390f35b3480156113f157600080fd5b506113fa6144b2565b6040518082815260200191505060405180910390f35b34801561141c57600080fd5b506114256144b8565b604051808215151515815260200191505060405180910390f35b34801561144b57600080fd5b506114786004803603602081101561146257600080fd5b810190808035906020019092919050505061450f565b005b34801561148657600080fd5b506114f26004803603604081101561149d57600080fd5b81019080803573ffffffffffffffffffffffffffffffffffffffff16906020019092919080357bffffffffffffffffffffffffffffffffffffffffffffffffffffffff19169060200190929190505050614570565b6040518082815260200191505060405180910390f35b34801561151457600080fd5b506115416004803603602081101561152b57600080fd5b810190808035906020019092919050505061458c565b6040518082815260200191505060405180910390f35b34801561156357600080fd5b506115906004803603602081101561157a57600080fd5b810190808035906020019092919050505061463c565b005b34801561159e57600080fd5b506115a76146af565b6040518082815260200191505060405180910390f35b3480156115c957600080fd5b506115f6600480360360208110156115e057600080fd5b81019080803590602001909291905050506146eb565b005b34801561160457600080fd5b506116476004803603602081101561161b57600080fd5b81019080803573ffffffffffffffffffffffffffffffffffffffff169060200190929190505050614810565b005b34801561165557600080fd5b506116826004803603602081101561166c57600080fd5b81019080803590602001909291905050506148a8565b6040518082815260200191505060405180910390f35b3480156116a457600080fd5b506116ad6148c9565b6040518082815260200191505060405180910390f35b3480156116cf57600080fd5b506116fc600480360360208110156116e657600080fd5b81019080803590602001909291905050506148d6565b6040518082815260200191505060405180910390f35b34801561171e57600080fd5b506117556004803603604081101561173557600080fd5b8101908080359060200190929190803590602001909291905050506148f7565b604051808215151515815260200191505060405180910390f35b34801561177b57600080fd5b506117a86004803603602081101561179257600080fd5b8101908080359060200190929190505050614d98565b005b3480156117b657600080fd5b506117e3600480360360208110156117cd57600080fd5b8101908080359060200190929190505050614e51565b005b3480156117f157600080fd5b506117fa614f24565b6040518082815260200191505060405180910390f35b34801561181c57600080fd5b506118606004803603606081101561183357600080fd5b810190808035906020019092919080359060200190929190803560ff169060200190929190505050614f34565b604051808215151515815260200191505060405180910390f35b34801561188657600080fd5b5061188f615478565b6040518082815260200191505060405180910390f35b3480156118b157600080fd5b5061198360048036036101a08110156118c957600080fd5b81019080803573ffffffffffffffffffffffffffffffffffffffff169060200190929190803573ffffffffffffffffffffffffffffffffffffffff169060200190929190803590602001909291908035906020019092919080359060200190929190803590602001909291908035906020019092919080359060200190929190803590602001909291908035906020019092919080359060200190929190803590602001909291908035906020019092919050505061547e565b005b34801561199157600080fd5b506119be600480360360208110156119a857600080fd5b810190808035906020019092919050505061560f565b604051808215151515815260200191505060405180910390f35b3480156119e457600080fd5b50611a11600480360360208110156119fb57600080fd5b81019080803590602001909291905050506156e2565b604051808573ffffffffffffffffffffffffffffffffffffffff1673ffffffffffffffffffffffffffffffffffffffff16815260200184815260200183815260200182815260200194505050505060405180910390f35b348015611a7457600080fd5b50611a7d615712565b6040518085815260200184815260200183815260200182815260200194505050505060405180910390f35b348015611ab457600080fd5b50611ae160048036036020811015611acb57600080fd5b81019080803590602001909291905050506157ae565b005b348015611aef57600080fd5b50611b3260048036036020811015611b0657600080fd5b81019080803573ffffffffffffffffffffffffffffffffffffffff16906020019092919050505061581b565b604051808381526020018281526020019250505060405180910390f35b348015611b5b57600080fd5b50611b8860048036036020811015611b7257600080fd5b810190808035906020019092919050505061589d565b005b348015611b9657600080fd5b50611bcd60048036036040811015611bad57600080fd5b810190808035906020019092919080359060200190929190505050615910565b604051808481526020018373ffffffffffffffffffffffffffffffffffffffff1673ffffffffffffffffffffffffffffffffffffffff16815260200180602001828103825283818151815260200191508051906020019080838360005b83811015611c45578082015181840152602081019050611c2a565b50505050905090810190601f168015611c725780820380516001836020036101000a031916815260200191505b5094505050505060405180910390f35b348015611c8e57600080fd5b50611c97615a32565b6040518082815260200191505060405180910390f35b348015611cb957600080fd5b50611cc2615a38565b6040518082815260200191505060405180910390f35b348015611ce457600080fd5b50611d1160048036036020811015611cfb57600080fd5b8101908080359060200190929190505050615a63565b60405180848152602001838152602001828152602001935050505060405180910390f35b348015611d4157600080fd5b50611da0600480360360c0811015611d5857600080fd5b81019080803590602001909291908035906020019092919080359060200190929190803590602001909291908035906020019092919080359060200190929190505050615a90565b604051808381526020018281526020019250505060405180910390f35b348015611dc957600080fd5b50611e3f60048036036060811015611de057600080fd5b81019080803573ffffffffffffffffffffffffffffffffffffffff16906020019092919080357bffffffffffffffffffffffffffffffffffffffffffffffffffffffff1916906020019092919080359060200190929190505050615b2b565b005b348015611e4d57600080fd5b50611e56615d4a565b6040518082815260200191505060405180910390f35b348015611e7857600080fd5b50611ebb60048036036020811015611e8f57600080fd5b81019080803573ffffffffffffffffffffffffffffffffffffffff169060200190929190505050615d92565b005b348015611ec957600080fd5b50611ed2615daf565b6040518082815260200191505060405180910390f35b606080601273__IntegerSortedLinkedList_______________6369b317e390916040518263ffffffff1660e01b81526004018082815260200191505060006040518083038186803b158015611f3d57600080fd5b505af4158015611f51573d6000803e3d6000fd5b505050506040513d6000823e3d601f19601f820116820180604052506040811015611f7b57600080fd5b810190808051640100000000811115611f9357600080fd5b82810190506020810184811115611fa957600080fd5b8151856020820283011164010000000082111715611fc657600080fd5b50509291906020018051640100000000811115611fe257600080fd5b82810190506020810184811115611ff857600080fd5b815185602082028301116401000000008211171561201557600080fd5b5050929190505050915091509091565b61202d6144b8565b61203657600080fd5b61203e617622565b61204782615dbc565b905061205281615dda565b80156120875750612085601960030160405180602001604052908160008201548152505082615df490919063ffffffff16565b155b61209057600080fd5b806019600301600082015181600001559050507fddfdbe55eaaa70fe2b8bc82a9b0734c25cabe7cb6f1457f9644019f0b5ff91fc826040518082815260200191505060405180910390a15050565b60008060006011600085815260200190815260200160002060000160019054906101000a900460ff166011600086815260200190815260200160002060000160009054906101000a900460ff1660116000878152602001908152602001600020600101549250925092509193909250565b60038060000154908060010154908060020154905083565b60008060405183815260008060208360fa611388fa60206000604084013e60408201519250505080915050919050565b600a5481565b60006121ba600f6000848152602001908152602001600020615e09565b9050919050565b600860009054906101000a900473ffffffffffffffffffffffffffffffffffffffff1681565b600060149054906101000a900460ff1681565b6122026144b8565b61220b57600080fd5b612213617622565b61221c82615dbc565b905061222781615dda565b801561225c575061225a601960010160405180602001604052908160008201548152505082615df490919063ffffffff16565b155b61226557600080fd5b806019600101600082015181600001559050507f122a37b609e0f758b6a23c43506cb567017a4d18b21fa91312fb42b44975a5b5826040518082815260200191505060405180910390a15050565b60008060fb73ffffffffffffffffffffffffffffffffffffffff1660005a90878787604051602001808473ffffffffffffffffffffffffffffffffffffffff1673ffffffffffffffffffffffffffffffffffffffff1660601b815260140183805190602001908083835b60208310612340578051825260208201915060208101905060208303925061231d565b6001836020036101000a03801982511681845116808217855250505050505090500182805190602001908083835b60208310612391578051825260208201915060208101905060208303925061236e565b6001836020036101000a03801982511681845116808217855250505050505090500193505050506040516020818303038152906040526040518082805190602001908083835b602083106123fa57805182526020820191506020810190506020830392506123d7565b6001836020036101000a038019825116818451168082178552505050505050905001915050600060405180830381858888f193505050503d806000811461245d576040519150601f19603f3d011682016040523d82523d6000602084013e612462565b606091505b505080915050809150509392505050565b6000612490600f6000848152602001908152602001600020615e19565b9050919050565b6000601060008373ffffffffffffffffffffffffffffffffffffffff1673ffffffffffffffffffffffffffffffffffffffff168152602001908152602001600020600201549050919050565b6124eb6144b8565b6124f457600080fd5b60008111801561250657506006548114155b61250f57600080fd5b806006819055507f4ecbf0bb0701615e2d6f9b0a0996056c959fe359ce76aa7ce06c5f1d57dae4d7816040518082815260200191505060405180910390a150565b6000600360020154905090565b6125656144b8565b61256e57600080fd5b600073ffffffffffffffffffffffffffffffffffffffff168173ffffffffffffffffffffffffffffffffffffffff16141580156125f95750600860009054906101000a900473ffffffffffffffffffffffffffffffffffffffff1673ffffffffffffffffffffffffffffffffffffffff168173ffffffffffffffffffffffffffffffffffffffff1614155b61260257600080fd5b80600860006101000a81548173ffffffffffffffffffffffffffffffffffffffff021916908373ffffffffffffffffffffffffffffffffffffffff1602179055507fa03757d836cb0b61c0fbba2147f5d51d6071ff3dd5bf6963beb55563d64878e181604051808273ffffffffffffffffffffffffffffffffffffffff1673ffffffffffffffffffffffffffffffffffffffff16815260200191505060405180910390a150565b6000806000905060006126ba614464565b905060008090505b818110156127625760006126d582612167565b90506011600087815260200190815260200160002060020160008273ffffffffffffffffffffffffffffffffffffffff1673ffffffffffffffffffffffffffffffffffffffff16815260200190815260200160002060009054906101000a900460ff161561275457612751600185615ff890919063ffffffff16565b93505b5080806001019150506126c2565b5061276b615d4a565b82101592505050919050565b61278e600754600954615ff890919063ffffffff16565b4210612b3b5760006127aa600a54601260000160020154616017565b90506060601273__IntegerSortedLinkedList_______________6377b024799091846040518363ffffffff1660e01b8152600401808381526020018281526020019250505060006040518083038186803b15801561280857600080fd5b505af415801561281c573d6000803e3d6000fd5b505050506040513d6000823e3d601f19601f82011682018060405250602081101561284657600080fd5b81019080805164010000000081111561285e57600080fd5b8281019050602081018481111561287457600080fd5b815185602082028301116401000000008211171561289157600080fd5b5050929190505050905060008090505b82811015612b305760008282815181106128b757fe5b602002602001015190506000600f600083815260200190815260200160002090506128f16006548260020154615ff890919063ffffffff16565b4210612935577f88e53c486703527139dfc8d97a1e559d9bd93d3f9d52cda4e06564111e7a2643826040518082815260200191505060405180910390a15050612b15565b6129af8160010154600d60008460000160009054906101000a900473ffffffffffffffffffffffffffffffffffffffff1673ffffffffffffffffffffffffffffffffffffffff1673ffffffffffffffffffffffffffffffffffffffff16815260200190815260200160002054615ff890919063ffffffff16565b600d60008360000160009054906101000a900473ffffffffffffffffffffffffffffffffffffffff1673ffffffffffffffffffffffffffffffffffffffff1673ffffffffffffffffffffffffffffffffffffffff1681526020019081526020016000208190555042816002018190555060006018805490501115612aad576000612a48600160188054905061603090919063ffffffff16565b905082601760188381548110612a5a57fe5b906000526020600020015481548110612a6f57fe5b906000526020600020018190555060188181548110612a8a57fe5b906000526020600020016000905580601881612aa69190617635565b5050612ada565b60178290806001815401808255809150509060018203906000526020600020016000909192909190915055505b817f3e069fb74dcf5fbc07740b0d40d7f7fc48e9c0ca5dc3d19eb34d2e05d74c5543426040518082815260200191505060405180910390a250505b612b29600182615ff890919063ffffffff16565b90506128a1565b504260098190555050505b565b600060018060008282540192505081905550600060015490506000600d60003373ffffffffffffffffffffffffffffffffffffffff1673ffffffffffffffffffffffffffffffffffffffff168152602001908152602001600020549050600081118015612bc157503073ffffffffffffffffffffffffffffffffffffffff16318111155b612bca57600080fd5b6000600d60003373ffffffffffffffffffffffffffffffffffffffff1673ffffffffffffffffffffffffffffffffffffffff168152602001908152602001600020819055503373ffffffffffffffffffffffffffffffffffffffff166108fc829081150290604051600060405180830381858888f19350505050158015612c55573d6000803e3d6000fd5b5060019250506001548114612c6957600080fd5b5090565b612c756144b8565b612c7e57600080fd5b612c86617622565b612c8f82615dbc565b9050612c9a81615dda565b8015612ccf5750612ccd601960000160405180602001604052908160008201548152505082615df490919063ffffffff16565b155b612cd857600080fd5b806019600001600082015181600001559050507f51131d2820f04a6b6edd20e22a07d5bf847e265a3906e85256fca7d6043417c5826040518082815260200191505060405180910390a15050565b600c5481565b60116020528060005260406000206000915090508060000160009054906101000a900460ff16908060000160019054906101000a900460ff16908060010154905083565b60006001806000828254019250508190555060006001549050612d91612777565b6000600f60008681526020019081526020016000209050612db3818686616050565b612dbc57600080fd5b6000612dd260038361608690919063ffffffff16565b90506000612de08383616143565b905080612eb25760046005811115612df457fe5b826005811115612e0057fe5b148015612e125750612e1183615e19565b5b612e1b57600080fd5b8273__Proposals_____________________________63c67e7b4b90916040518263ffffffff1660e01b81526004018082815260200191505060006040518083038186803b158015612e6c57600080fd5b505af4158015612e80573d6000803e3d6000fd5b50505050867f712ae1383f79ac853f8d882153778e0260ef8f03b504e2866e0593e04d2b291f60405160405180910390a25b612ebd8388886161cd565b801594505050506001548114612ed257600080fd5b5092915050565b600060018060008282540192505081905550600060015490506000612efc6162db565b73ffffffffffffffffffffffffffffffffffffffff16636642d594336040518263ffffffff1660e01b8152600401808273ffffffffffffffffffffffffffffffffffffffff1673ffffffffffffffffffffffffffffffffffffffff16815260200191505060206040518083038186803b158015612f7857600080fd5b505afa158015612f8c573d6000803e3d6000fd5b505050506040513d6020811015612fa257600080fd5b81019080805190602001909291905050509050612fbd612777565b601273__IntegerSortedLinkedList_______________63bfc516389091886040518363ffffffff1660e01b8152600401808381526020018281526020019250505060206040518083038186803b15801561301757600080fd5b505af415801561302b573d6000803e3d6000fd5b505050506040513d602081101561304157600080fd5b810190808051906020019092919050505080156130885750613084600654600f600089815260200190815260200160002060020154615ff890919063ffffffff16565b4210155b1561314057601273__IntegerSortedLinkedList_______________63eed5f7be9091886040518363ffffffff1660e01b8152600401808381526020018281526020019250505060006040518083038186803b1580156130e757600080fd5b505af41580156130fb573d6000803e3d6000fd5b505050507f88e53c486703527139dfc8d97a1e559d9bd93d3f9d52cda4e06564111e7a2643866040518082815260200191505060405180910390a16000925050613754565b6000601060008373ffffffffffffffffffffffffffffffffffffffff1673ffffffffffffffffffffffffffffffffffffffff1681526020019081526020016000209050601273__IntegerSortedLinkedList_______________63bfc51638909183600001600001546040518363ffffffff1660e01b8152600401808381526020018281526020019250505060206040518083038186803b1580156131e457600080fd5b505af41580156131f8573d6000803e3d6000fd5b505050506040513d602081101561320e57600080fd5b8101908080519060200190929190505050801561325c5750613258600654600f60008460000160000154815260200190815260200160002060020154615ff890919063ffffffff16565b4210155b1561331957601273__IntegerSortedLinkedList_______________63eed5f7be909183600001600001546040518363ffffffff1660e01b8152600401808381526020018281526020019250505060006040518083038186803b1580156132c257600080fd5b505af41580156132d6573d6000803e3d6000fd5b505050507f88e53c486703527139dfc8d97a1e559d9bd93d3f9d52cda4e06564111e7a264381600001600001546040518082815260200191505060405180910390a15b60006133236163d6565b73ffffffffffffffffffffffffffffffffffffffff166330ec70f5846040518263ffffffff1660e01b8152600401808273ffffffffffffffffffffffffffffffffffffffff1673ffffffffffffffffffffffffffffffffffffffff16815260200191505060206040518083038186803b15801561339f57600080fd5b505afa1580156133b3573d6000803e3d6000fd5b505050506040513d60208110156133c957600080fd5b8101908080519060200190929190505050905060008111613435576040517f08c379a00000000000000000000000000000000000000000000000000000000081526004018080602001828103825260228152602001806178976022913960400191505060405180910390fd5b61343e8861560f565b613493576040517f08c379a00000000000000000000000000000000000000000000000000000000081526004018080602001828103825260298152602001806178456029913960400191505060405180910390fd5b6000826000016000015414806135425750601273__IntegerSortedLinkedList_______________63bfc51638909184600001600001546040518363ffffffff1660e01b8152600401808381526020018281526020019250505060206040518083038186803b15801561350557600080fd5b505af4158015613519573d6000803e3d6000fd5b505050506040513d602081101561352f57600080fd5b8101908080519060200190929190505050155b613597576040517f08c379a000000000000000000000000000000000000000000000000000000000815260040180806020018281038252602b8152602001806178df602b913960400191505060405180910390fd5b600061364082601273__IntegerSortedLinkedList_______________637577759990918d6040518363ffffffff1660e01b8152600401808381526020018281526020019250505060206040518083038186803b1580156135f757600080fd5b505af415801561360b573d6000803e3d6000fd5b505050506040513d602081101561362157600080fd5b8101908080519060200190929190505050615ff890919063ffffffff16565b9050601273__IntegerSortedLinkedList_______________63239491ba90918b848c8c6040518663ffffffff1660e01b8152600401808681526020018581526020018481526020018381526020018281526020019550505050505060006040518083038186803b1580156136b457600080fd5b505af41580156136c8573d6000803e3d6000fd5b5050505060405180604001604052808a8152602001838152508360000160008201518160000155602082015181600101559050508373ffffffffffffffffffffffffffffffffffffffff16897fd19965d25ef670a1e322fbf05475924b7b12d81fd6b96ab718b261782efb3d62846040518082815260200191505060405180910390a360019550505050505b600154811461376257600080fd5b509392505050565b6137726144b8565b61377b57600080fd5b613783617622565b61378c82615dbc565b905061379781615dda565b80156137cc57506137ca601960020160405180602001604052908160008201548152505082615df490919063ffffffff16565b155b6137d557600080fd5b806019600201600082015181600001559050507f8dedb4d995dd500718c7c5f6a077fba6153a7ee063da961d9fcab90ff528ac1f826040518082815260200191505060405180910390a15050565b600061382d612777565b6000600f6000858152602001908152602001600020905061384f818585616050565b61385857600080fd5b600061386e60038361608690919063ffffffff16565b905061387a8282616143565b156138955761388a8286866161cd565b600092505050613a04565b600860009054906101000a900473ffffffffffffffffffffffffffffffffffffffff1673ffffffffffffffffffffffffffffffffffffffff163373ffffffffffffffffffffffffffffffffffffffff161480156138f857506138f6826164d1565b155b801561391a57506002600581111561390c57fe5b81600581111561391857fe5b145b61392357600080fd5b60018260070160006101000a81548160ff0219169083151502179055506139486163d6565b73ffffffffffffffffffffffffffffffffffffffff166330a61d596040518163ffffffff1660e01b815260040160206040518083038186803b15801561398d57600080fd5b505afa1580156139a1573d6000803e3d6000fd5b505050506040513d60208110156139b757600080fd5b81019080805190602001909291905050508260080181905550847f28ec9e38ba73636ceb2f6c1574136f83bd46284a3c74734b711bf45e12f8d92960405160405180910390a26001925050505b92915050565b6000806000601060008673ffffffffffffffffffffffffffffffffffffffff1673ffffffffffffffffffffffffffffffffffffffff1681526020019081526020016000206003016000858152602001908152602001600020905080600101548160000160009054906101000a900460ff166003811115613a8657fe5b92509250509250929050565b600080601060008473ffffffffffffffffffffffffffffffffffffffff1673ffffffffffffffffffffffffffffffffffffffff16815260200190815260200160002090506000816000016000015490506000808214158015613af95750613af88261560f565b5b90506000600f6000856002015481526020019081526020016000209050600060036005811115613b2557fe5b613b3960038461608690919063ffffffff16565b6005811115613b4457fe5b1490508280613b505750805b95505050505050919050565b600d6020528060005260406000206000915090505481565b613b7c6144b8565b613b8557600080fd5b600081118015613b9a57506003600201548114155b613ba357600080fd5b806003600201819055507f7819c8059302d1d66abc7fe228ecc02214e0bc5c529956c13717aabefce937d8816040518082815260200191505060405180910390a150565b6000613bf1612777565b600c54341015613c0057600080fd5b613c166001600b54615ff890919063ffffffff16565b600b819055506000600f6000600b54815260200190815260200160002090508073__Proposals_____________________________633053123f90918c8c8c8c8c8c8c8c33346040518c63ffffffff1660e01b8152600401808c8152602001806020018060200180602001806020018773ffffffffffffffffffffffffffffffffffffffff1673ffffffffffffffffffffffffffffffffffffffff16815260200186815260200185810385528f8f82818152602001925060200280828437600081840152601f19601f82011690508083019250505085810384528d8d82818152602001925060200280828437600081840152601f19601f82011690508083019250505085810383528b8b82818152602001925080828437600081840152601f19601f8201169050808301925050508581038252898982818152602001925060200280828437600081840152601f19601f8201169050808301925050509f5050505050505050505050505050505060006040518083038186803b158015613d9b57600080fd5b505af4158015613daf573d6000803e3d6000fd5b50505050601273__IntegerSortedLinkedList_______________63d7a8acc19091600b546040518363ffffffff1660e01b8152600401808381526020018281526020019250505060006040518083038186803b158015613e0f57600080fd5b505af4158015613e23573d6000803e3d6000fd5b505050503373ffffffffffffffffffffffffffffffffffffffff16600b547f1bfe527f3548d9258c2512b6689f0acfccdd0557d80a53845db25fc57e93d8fe8360060180549050344260405180848152602001838152602001828152602001935050505060405180910390a3600b5491505098975050505050505050565b60606017805480602002602001604051908101604052809291908181526020018280548015613eef57602002820191906000526020600020905b815481526020019060010190808311613edb575b5050505050905090565b613f016144b8565b613f0a57600080fd5b600073ffffffffffffffffffffffffffffffffffffffff166000809054906101000a900473ffffffffffffffffffffffffffffffffffffffff1673ffffffffffffffffffffffffffffffffffffffff167f8be0079c531659141344cd1fd0a4f28419497f9722a3daafe3b4186f6b6457e060405160405180910390a360008060006101000a81548173ffffffffffffffffffffffffffffffffffffffff021916908373ffffffffffffffffffffffffffffffffffffffff160217905550565b60075481565b6000613fec600f60008481526020019081526020016000206164d1565b9050919050565b600260009054906101000a900473ffffffffffffffffffffffffffffffffffffffff1681565b60008888888888888888604051602001808060200180602001806020018060200185810385528d8d82818152602001925060200280828437600081840152601f19601f82011690508083019250505085810384528b8b82818152602001925060200280828437600081840152601f19601f8201169050808301925050508581038352898982818152602001925080828437600081840152601f19601f8201169050808301925050508581038252878782818152602001925060200280828437600081840152601f19601f8201169050808301925050509c505050505050505050505050506040516020818303038152906040528051906020012090506000806000614123846120de565b925092509250811561419d576040517f08c379a00000000000000000000000000000000000000000000000000000000081526004018080602001828103825260178152602001807f686f7466697820616c726561647920657865637574656400000000000000000081525060200191505060405180910390fd5b82614210576040517f08c379a00000000000000000000000000000000000000000000000000000000081526004018080602001828103825260138152602001807f686f74666978206e6f7420617070726f7665640000000000000000000000000081525060200191505060405180910390fd5b6142186146af565b811461426f576040517f08c379a000000000000000000000000000000000000000000000000000000000815260040180806020018281038252602681526020018061781f6026913960400191505060405180910390fd5b61438d6143888d8d80806020026020016040519081016040528093929190818152602001838360200280828437600081840152601f19601f820116905080830192505050505050508c8c80806020026020016040519081016040528093929190818152602001838360200280828437600081840152601f19601f820116905080830192505050505050508b8b8080601f016020809104026020016040519081016040528093929190818152602001838380828437600081840152601f19601f820116905080830192505050505050508a8a80806020026020016040519081016040528093929190818152602001838360200280828437600081840152601f19601f820116905080830192505050505050503360006164ec565b6166ac565b60016011600086815260200190815260200160002060000160006101000a81548160ff021916908315150217905550837f708a7934acb657a77a617b1fcd5f6d7d9ad592b72934841bff01acefd10f9b6360405160405180910390a2505050505050505050505050565b6143ff6144b8565b61440857600080fd5b60008111801561441a57506007548114155b61442357600080fd5b806007819055507f391e82aae76c653cd640ad1b6028e2ee39ca4f29b30152e3d0a9ddd7e1169c34816040518082815260200191505060405180910390a150565b60008060008060008060f9611388fa60405160206000823e8051925050508091505090565b60008060009054906101000a900473ffffffffffffffffffffffffffffffffffffffff16905090565b60065481565b60008060009054906101000a900473ffffffffffffffffffffffffffffffffffffffff1673ffffffffffffffffffffffffffffffffffffffff163373ffffffffffffffffffffffffffffffffffffffff1614905090565b6145176144b8565b61452057600080fd5b600c5481141561452f57600080fd5b80600c819055507fc50a7f0bdf88c216b2541b0bdea26f22305460e39ffc672ec1a7501732c5ba81816040518082815260200191505060405180910390a150565b600061458461457f84846166bc565b61690e565b905092915050565b60006145978261560f565b6145a057600080fd5b601273__IntegerSortedLinkedList_______________63757775999091846040518363ffffffff1660e01b8152600401808381526020018281526020019250505060206040518083038186803b1580156145fa57600080fd5b505af415801561460e573d6000803e3d6000fd5b505050506040513d602081101561462457600080fd5b81019080805190602001909291905050509050919050565b6146446144b8565b61464d57600080fd5b60008111801561466257506003600001548114155b61466b57600080fd5b806003600001819055507fbc44c003a66b841b48c220869efb738b265af305649ac8bafe8efe0c8130e313816040518082815260200191505060405180910390a150565b6000806146ba615a38565b905060008143816146c757fe5b04905060008243816146d557fe5b0614156146e3576001810390505b809250505090565b6146f4816126a9565b614749576040517f08c379a000000000000000000000000000000000000000000000000000000000815260040180806020018281038252602981526020018061786e6029913960400191505060405180910390fd5b60006147536146af565b9050806011600084815260200190815260200160002060010154106147c3576040517f08c379a00000000000000000000000000000000000000000000000000000000081526004018080602001828103825260268152602001806178b96026913960400191505060405180910390fd5b80601160008481526020019081526020016000206001018190555080827f6f184ec313435b3307a4fe59e2293381f08419a87214464c875a2a247e8af5e060405160405180910390a35050565b6148186144b8565b61482157600080fd5b80600260006101000a81548173ffffffffffffffffffffffffffffffffffffffff021916908373ffffffffffffffffffffffffffffffffffffffff1602179055508073ffffffffffffffffffffffffffffffffffffffff167f27fe5f0c1c3b1ed427cc63d0f05759ffdecf9aec9e18d31ef366fc8a6cb5dc3b60405160405180910390a250565b601881815481106148b557fe5b906000526020600020016000915090505481565b6000600360010154905090565b601781815481106148e357fe5b906000526020600020016000915090505481565b60006001806000828254019250508190555060006001549050614918612777565b60006149226162db565b73ffffffffffffffffffffffffffffffffffffffff16636642d594336040518263ffffffff1660e01b8152600401808273ffffffffffffffffffffffffffffffffffffffff1673ffffffffffffffffffffffffffffffffffffffff16815260200191505060206040518083038186803b15801561499e57600080fd5b505afa1580156149b2573d6000803e3d6000fd5b505050506040513d60208110156149c857600080fd5b810190808051906020019092919050505090506000601060008373ffffffffffffffffffffffffffffffffffffffff1673ffffffffffffffffffffffffffffffffffffffff16815260200190815260200160002090506000816000016000015490506000600f60008381526020019081526020016000209050614a4a81615e09565b614a5357600080fd5b601273__IntegerSortedLinkedList_______________63bfc516389091846040518363ffffffff1660e01b8152600401808381526020018281526020019250505060206040518083038186803b158015614aad57600080fd5b505af4158015614ac1573d6000803e3d6000fd5b505050506040513d6020811015614ad757600080fd5b810190808051906020019092919050505015614d4957614b066006548260020154615ff890919063ffffffff16565b4210614bba57601273__IntegerSortedLinkedList_______________63eed5f7be9091846040518363ffffffff1660e01b8152600401808381526020018281526020019250505060006040518083038186803b158015614b6657600080fd5b505af4158015614b7a573d6000803e3d6000fd5b505050507f88e53c486703527139dfc8d97a1e559d9bd93d3f9d52cda4e06564111e7a2643826040518082815260200191505060405180910390a1614d48565b601273__IntegerSortedLinkedList_______________63239491ba909184614c878760000160010154601273__IntegerSortedLinkedList_______________637577759990918a6040518363ffffffff1660e01b8152600401808381526020018281526020019250505060206040518083038186803b158015614c3e57600080fd5b505af4158015614c52573d6000803e3d6000fd5b505050506040513d6020811015614c6857600080fd5b810190808051906020019092919050505061603090919063ffffffff16565b8c8c6040518663ffffffff1660e01b8152600401808681526020018581526020018481526020018381526020018281526020019550505050505060006040518083038186803b158015614cd957600080fd5b505af4158015614ced573d6000803e3d6000fd5b505050508373ffffffffffffffffffffffffffffffffffffffff16827f7dc46237a819c9171a9c037ec98928e563892905c4d23373ca0f3f500f4ed11485600001600101546040518082815260200191505060405180910390a35b5b604051806040016040528060008152602001600081525083600001600082015181600001556020820151816001015590505060019550505050506001548114614d9157600080fd5b5092915050565b600860009054906101000a900473ffffffffffffffffffffffffffffffffffffffff1673ffffffffffffffffffffffffffffffffffffffff163373ffffffffffffffffffffffffffffffffffffffff1614614df257600080fd5b60016011600083815260200190815260200160002060000160016101000a81548160ff021916908315150217905550807f36bc158cba244a94dc9b8c08d327e8f7e3c2ab5f1925454c577527466f04851f60405160405180910390a250565b60016011600083815260200190815260200160002060020160003373ffffffffffffffffffffffffffffffffffffffff1673ffffffffffffffffffffffffffffffffffffffff16815260200190815260200160002060006101000a81548160ff021916908315150217905550807ff6d22d0b43a6753880b8f9511b82b86cd0fe349cd580bbe6a25b6dc063ef496f33604051808273ffffffffffffffffffffffffffffffffffffffff1673ffffffffffffffffffffffffffffffffffffffff16815260200191505060405180910390a250565b6000601260000160020154905090565b600060018060008282540192505081905550600060015490506000614f576162db565b73ffffffffffffffffffffffffffffffffffffffff16636642d594336040518263ffffffff1660e01b8152600401808273ffffffffffffffffffffffffffffffffffffffff1673ffffffffffffffffffffffffffffffffffffffff16815260200191505060206040518083038186803b158015614fd357600080fd5b505afa158015614fe7573d6000803e3d6000fd5b505050506040513d6020811015614ffd57600080fd5b81019080805190602001909291905050509050615018612777565b6000600f6000888152602001908152602001600020905061503a818888616050565b61504357600080fd5b600061505960038361608690919063ffffffff16565b90506150658282616143565b15615081576150758289896161cd565b60009450505050615462565b6000601060008573ffffffffffffffffffffffffffffffffffffffff1673ffffffffffffffffffffffffffffffffffffffff168152602001908152602001600020905060006150ce6163d6565b73ffffffffffffffffffffffffffffffffffffffff166330ec70f5866040518263ffffffff1660e01b8152600401808273ffffffffffffffffffffffffffffffffffffffff1673ffffffffffffffffffffffffffffffffffffffff16815260200191505060206040518083038186803b15801561514a57600080fd5b505afa15801561515e573d6000803e3d6000fd5b505050506040513d602081101561517457600080fd5b81019080805190602001909291905050509050615190846164d1565b80156151b25750600360058111156151a457fe5b8360058111156151b057fe5b145b80156151d55750600060038111156151c657fe5b8860038111156151d257fe5b14155b80156151e15750600081115b6151ea57600080fd5b60008260030160008b815260200190815260200160002090508473__Proposals_____________________________63b05cd27f90918360020154858f86600101541461523857600061524b565b8560000160009054906101000a900460ff165b8e6040518663ffffffff1660e01b81526004018086815260200185815260200184815260200183600381111561527d57fe5b60ff16815260200182600381111561529157fe5b60ff1681526020019550505050505060006040518083038186803b1580156152b857600080fd5b505af41580156152cc573d6000803e3d6000fd5b505050506152d86163d6565b73ffffffffffffffffffffffffffffffffffffffff166330a61d596040518163ffffffff1660e01b815260040160206040518083038186803b15801561531d57600080fd5b505afa158015615331573d6000803e3d6000fd5b505050506040513d602081101561534757600080fd5b8101908080519060200190929190505050856008018190555060405180606001604052808a600381111561537757fe5b81526020018c8152602001838152508360030160008c815260200190815260200160002060008201518160000160006101000a81548160ff021916908360038111156153bf57fe5b021790555060208201518160010155604082015181600201559050508260020154856002015411156153f5578a83600201819055505b8573ffffffffffffffffffffffffffffffffffffffff168b7ff3709dc32cf1356da6b8a12a5be1401aeb00989556be7b16ae566e65fef7a9df8b600381111561543a57fe5b85604051808381526020018281526020019250505060405180910390a3600197505050505050505b600154811461547057600080fd5b509392505050565b60095481565b600060149054906101000a900460ff161561549857600080fd5b6001600060146101000a81548160ff021916908315150217905550600073ffffffffffffffffffffffffffffffffffffffff168c73ffffffffffffffffffffffffffffffffffffffff16141580156154f1575060008b14155b80156154fe575060008a14155b801561550b575060008914155b8015615518575060008814155b8015615525575060008714155b8015615532575060008614155b801561553f575060008514155b61554857600080fd5b6155513361691c565b61555a8d614810565b8b600860006101000a81548173ffffffffffffffffffffffffffffffffffffffff021916908373ffffffffffffffffffffffffffffffffffffffff1602179055508a600a8190555089600c8190555088600681905550876007819055508660036000018190555085600360010181905550846003600201819055506155de84612c6d565b6155e7836121fa565b6155f08261376a565b6155f981612025565b4260098190555050505050505050505050505050565b6000601273__IntegerSortedLinkedList_______________63bfc516389091846040518363ffffffff1660e01b8152600401808381526020018281526020019250505060206040518083038186803b15801561566b57600080fd5b505af415801561567f573d6000803e3d6000fd5b505050506040513d602081101561569557600080fd5b810190808051906020019092919050505080156156db57506156d8600654600f600085815260200190815260200160002060020154615ff890919063ffffffff16565b42105b9050919050565b600080600080615703600f6000878152602001908152602001600020616a14565b93509350935093509193509193565b60008060008061573a601960000160405180602001604052908160008201548152505061690e565b61575c601960010160405180602001604052908160008201548152505061690e565b61577e601960020160405180602001604052908160008201548152505061690e565b6157a0601960030160405180602001604052908160008201548152505061690e565b935093509350935090919293565b6157b66144b8565b6157bf57600080fd5b6000811180156157d15750600a548114155b6157da57600080fd5b80600a819055507f85399b9b2595eb13c392e1638ca77730156cd8d48d4733df4db068e4aa6b93a6816040518082815260200191505060405180910390a150565b600080615826617661565b601060008573ffffffffffffffffffffffffffffffffffffffff1673ffffffffffffffffffffffffffffffffffffffff168152602001908152602001600020600001604051806040016040529081600082015481526020016001820154815250509050806000015181602001519250925050915091565b6158a56144b8565b6158ae57600080fd5b6000811180156158c357506003600101548114155b6158cc57600080fd5b806003600101819055507f90290eb9b27055e686a69fb810bada5381e544d07b8270021da2d355a6c96ed6816040518082815260200191505060405180910390a150565b6000806060600f600086815260200190815260200160002073__Proposals_____________________________63e6a5192f9091866040518363ffffffff1660e01b8152600401808381526020018281526020019250505060006040518083038186803b15801561598057600080fd5b505af4158015615994573d6000803e3d6000fd5b505050506040513d6000823e3d601f19601f8201168201806040525060608110156159be57600080fd5b81019080805190602001909291908051906020019092919080516401000000008111156159ea57600080fd5b82810190506020810184811115615a0057600080fd5b8151856001820283011164010000000082111715615a1d57600080fd5b50509291905050509250925092509250925092565b600b5481565b60008060405160008060008360f86103e8fa60206000602084013e6020820151925050508091505090565b6000806000615a83600f6000868152602001908152602001600020616a60565b9250925092509193909250565b60008060008714158015615aa5575060008514155b615aae57600080fd5b6000806040513681016040528a81528960208201528860408201528760608201528660808201528560a082015260008060c48360fc61041afa3d604051818101604052816000823e8260008114615b0f578151965060208201519550615b13565b8282fd5b50505050508181935093505050965096945050505050565b615b336144b8565b615b3c57600080fd5b600073ffffffffffffffffffffffffffffffffffffffff168373ffffffffffffffffffffffffffffffffffffffff161415615b7657600080fd5b6969e10de76676d080000081118015615b9e5750615b9a615b95616a8a565b61690e565b8111155b615ba757600080fd5b600060e01b827bffffffffffffffffffffffffffffffffffffffffffffffffffffffff19161415615c2f57615bdb81615dbc565b600e60008573ffffffffffffffffffffffffffffffffffffffff1673ffffffffffffffffffffffffffffffffffffffff16815260200190815260200160002060000160008201518160000155905050615cd7565b615c3881615dbc565b600e60008573ffffffffffffffffffffffffffffffffffffffff1673ffffffffffffffffffffffffffffffffffffffff1681526020019081526020016000206001016000847bffffffffffffffffffffffffffffffffffffffffffffffffffffffff19167bffffffffffffffffffffffffffffffffffffffffffffffffffffffff19168152602001908152602001600020600082015181600001559050505b817bffffffffffffffffffffffffffffffffffffffffffffffffffffffff19168373ffffffffffffffffffffffffffffffffffffffff167f60c5b4756af49d7b071b00dbf0f87af605cce11896ecd3b760d19f0f9d3fbcef836040518082815260200191505060405180910390a3505050565b6000615d8d6001615d7f6003615d716002615d63614464565b616ab090919063ffffffff16565b616aea90919063ffffffff16565b615ff890919063ffffffff16565b905090565b615d9a6144b8565b615da357600080fd5b615dac8161691c565b50565b6000600360000154905090565b615dc4617622565b6040518060200160405280838152509050919050565b6000615ded82615de8616a8a565b616b10565b9050919050565b60008160000151836000015114905092915050565b6000808260020154119050919050565b6000615e23617622565b615e7a615e6b60196003016040518060200160405290816000820154815250506019600001604051806020016040529081600082015481525050616b2690919063ffffffff16565b84616d7890919063ffffffff16565b905060008090505b8360060180549050811015615fec576000615f54856006018381548110615ea557fe5b90600052602060002090600302016002018054600181600116156101000203166002900480601f016020809104026020016040519081016040528092919081815260200182805460018160011615610100020316600290048015615f4a5780601f10615f1f57610100808354040283529160200191615f4a565b820191906000526020600020905b815481529060010190602001808311615f2d57829003601f168201915b5050505050616e67565b9050615f5e617622565b615fa8866006018481548110615f7057fe5b906000526020600020906003020160010160009054906101000a900473ffffffffffffffffffffffffffffffffffffffff16836166bc565b9050615fbd8185616b1090919063ffffffff16565b15615fcf576000945050505050615ff3565b5050615fe5600182615ff890919063ffffffff16565b9050615e82565b5060019150505b919050565b60008082840190508381101561600d57600080fd5b8091505092915050565b60008183106160265781616028565b825b905092915050565b60008282111561603f57600080fd5b600082840390508091505092915050565b600061605b84615e09565b801561607d5750826017838154811061607057fe5b9060005260206000200154145b90509392505050565b6000806160d083600201546160c285600101546160b487600001548960020154615ff890919063ffffffff16565b615ff890919063ffffffff16565b615ff890919063ffffffff16565b90508042106160e357600591505061613d565b6160fa83600201548261603090919063ffffffff16565b905080421061610d57600491505061613d565b61612483600101548261603090919063ffffffff16565b905080421061613757600391505061613d565b60029150505b92915050565b60006004600581111561615257fe5b82600581111561615e57fe5b118061619257506003600581111561617257fe5b82600581111561617e57fe5b118015616191575061618f83615e19565b155b5b806161c55750600260058111156161a557fe5b8260058111156161b157fe5b1180156161c457506161c2836164d1565b155b5b905092915050565b6161d6836164d1565b80156161e6575060008360080154115b156161f5576161f483616fc4565b5b60006017828154811061620457fe5b90600052602060002001819055506018819080600181540180825580915050906001820390600052602060002001600090919290919091505550600f6000838152602001908152602001600020600080820160006101000a81549073ffffffffffffffffffffffffffffffffffffffff021916905560018201600090556002820160009055600382016000808201600090556001820160009055600282016000905550506006820160006162b8919061767b565b6007820160006101000a81549060ff021916905560088201600090555050505050565b6000600260009054906101000a900473ffffffffffffffffffffffffffffffffffffffff1673ffffffffffffffffffffffffffffffffffffffff1663dcf0aaed60405160200180807f4163636f756e74730000000000000000000000000000000000000000000000008152506008019050604051602081830303815290604052805190602001206040518263ffffffff1660e01b81526004018082815260200191505060206040518083038186803b15801561639657600080fd5b505afa1580156163aa573d6000803e3d6000fd5b505050506040513d60208110156163c057600080fd5b8101908080519060200190929190505050905090565b6000600260009054906101000a900473ffffffffffffffffffffffffffffffffffffffff1673ffffffffffffffffffffffffffffffffffffffff1663dcf0aaed60405160200180807f4c6f636b6564476f6c6400000000000000000000000000000000000000000000815250600a019050604051602081830303815290604052805190602001206040518263ffffffff1660e01b81526004018082815260200191505060206040518083038186803b15801561649157600080fd5b505afa1580156164a5573d6000803e3d6000fd5b505050506040513d60208110156164bb57600080fd5b8101908080519060200190929190505050905090565b60008160070160009054906101000a900460ff169050919050565b6164f461769f565b85518751148015616506575083518651145b61650f57600080fd5b60008751905061651d61769f565b84816000019073ffffffffffffffffffffffffffffffffffffffff16908173ffffffffffffffffffffffffffffffffffffffff168152505083816020018181525050428160400181815250506000809050826040519080825280602002602001820160405280156165a857816020015b6165956176fb565b81526020019060019003908161658d5790505b50826080018190525060008090505b8381101561669b5760405180606001604052808c83815181106165d657fe5b602002602001015181526020018b83815181106165ef57fe5b602002602001015173ffffffffffffffffffffffffffffffffffffffff16815260200161663a848b858151811061662257fe5b60200260200101518d61715a9092919063ffffffff16565b8152508360800151828151811061664d57fe5b602002602001018190525061667e88828151811061666757fe5b602002602001015183615ff890919063ffffffff16565b9150616694600182615ff890919063ffffffff16565b90506165b7565b508193505050509695505050505050565b6166b981608001516171e6565b50565b6166c4617622565b6166cc617622565b6166df6969e10de76676d0800000615dbc565b90506000616791600e60008773ffffffffffffffffffffffffffffffffffffffff1673ffffffffffffffffffffffffffffffffffffffff1681526020019081526020016000206001016000867bffffffffffffffffffffffffffffffffffffffffffffffffffffffff19167bffffffffffffffffffffffffffffffffffffffffffffffffffffffff1916815260200190815260200160002060405180602001604052908160008201548152505061690e565b1461684357600e60008573ffffffffffffffffffffffffffffffffffffffff1673ffffffffffffffffffffffffffffffffffffffff1681526020019081526020016000206001016000847bffffffffffffffffffffffffffffffffffffffffffffffffffffffff19167bffffffffffffffffffffffffffffffffffffffffffffffffffffffff191681526020019081526020016000206040518060200160405290816000820154815250509050616904565b60006168a4600e60008773ffffffffffffffffffffffffffffffffffffffff1673ffffffffffffffffffffffffffffffffffffffff16815260200190815260200160002060000160405180602001604052908160008201548152505061690e565b1461690357600e60008573ffffffffffffffffffffffffffffffffffffffff1673ffffffffffffffffffffffffffffffffffffffff16815260200190815260200160002060000160405180602001604052908160008201548152505090505b5b8091505092915050565b600081600001519050919050565b600073ffffffffffffffffffffffffffffffffffffffff168173ffffffffffffffffffffffffffffffffffffffff16141561695657600080fd5b8073ffffffffffffffffffffffffffffffffffffffff166000809054906101000a900473ffffffffffffffffffffffffffffffffffffffff1673ffffffffffffffffffffffffffffffffffffffff167f8be0079c531659141344cd1fd0a4f28419497f9722a3daafe3b4186f6b6457e060405160405180910390a3806000806101000a81548173ffffffffffffffffffffffffffffffffffffffff021916908373ffffffffffffffffffffffffffffffffffffffff16021790555050565b6000806000808460000160009054906101000a900473ffffffffffffffffffffffffffffffffffffffff1685600101548660020154876006018054905093509350935093509193509193565b60008060008360030160000154846003016001015485600301600201549250925092509193909250565b616a92617622565b604051806020016040528069d3c21bcecceda1000000815250905090565b600080831415616ac35760009050616ae4565b6000828402905082848281616ad457fe5b0414616adf57600080fd5b809150505b92915050565b6000808211616af857600080fd5b6000828481616b0357fe5b0490508091505092915050565b6000816000015183600001511115905092915050565b616b2e617622565b600083600001511480616b45575060008260000151145b15616b6157604051806020016040528060008152509050616d72565b69d3c21bcecceda100000082600001511415616b7f57829050616d72565b69d3c21bcecceda100000083600001511415616b9d57819050616d72565b600069d3c21bcecceda1000000616bb385617286565b6000015181616bbe57fe5b0490506000616bcc856172bd565b600001519050600069d3c21bcecceda1000000616be886617286565b6000015181616bf357fe5b0490506000616c01866172bd565b6000015190506000828502905060008514616c2c5782858281616c2057fe5b0414616c2b57600080fd5b5b600069d3c21bcecceda10000008202905060008214616c655769d3c21bcecceda1000000828281616c5957fe5b0414616c6457600080fd5b5b8091506000848602905060008614616c8d5784868281616c8157fe5b0414616c8c57600080fd5b5b6000848802905060008814616cb25784888281616ca657fe5b0414616cb157600080fd5b5b616cba6172fa565b8781616cc257fe5b049650616ccd6172fa565b8581616cd557fe5b0494506000858802905060008814616cfd5785888281616cf157fe5b0414616cfc57600080fd5b5b616d05617622565b6040518060200160405280878152509050616d2e81604051806020016040528087815250617307565b9050616d4881604051806020016040528086815250617307565b9050616d6281604051806020016040528085815250617307565b9050809a50505050505050505050505b92915050565b616d80617622565b6000836003016000015490506000811415616da757616d9f6000617347565b915050616e61565b6000846003016001015490506000616de18660030160020154616dd38486615ff890919063ffffffff16565b615ff890919063ffffffff16565b90506000616e0c616e07616df88960080154617347565b88616b2690919063ffffffff16565b617385565b905081811115616e3e57616e3b616e2c838361603090919063ffffffff16565b84615ff890919063ffffffff16565b92505b616e5a84616e558587615ff890919063ffffffff16565b6173a6565b9450505050505b92915050565b6000601882600381518110616e7857fe5b602001015160f81c60f81b7effffffffffffffffffffffffffffffffffffffffffffffffffffffffffffff19167bffffffffffffffffffffffffffffffffffffffffffffffffffffffff1916901c601083600281518110616ed557fe5b602001015160f81c60f81b7effffffffffffffffffffffffffffffffffffffffffffffffffffffffffffff19167bffffffffffffffffffffffffffffffffffffffffffffffffffffffff1916901c600884600181518110616f3257fe5b602001015160f81c60f81b7effffffffffffffffffffffffffffffffffffffffffffffffffffffffffffff19167bffffffffffffffffffffffffffffffffffffffffffffffffffffffff1916901c84600081518110616f8d57fe5b602001015160f81c60f81b7effffffffffffffffffffffffffffffffffffffffffffffffffffffffffffff19161717179050919050565b616fcc617622565b616fd58261741e565b9050616fdf617622565b61700b601960020160405180602001604052908160008201548152505083616b2690919063ffffffff16565b9050617015617622565b61707361704b601960020160405180602001604052908160008201548152505061703d616a8a565b61747a90919063ffffffff16565b6019600001604051806020016040529081600082015481525050616b2690919063ffffffff16565b9050617088818361730790919063ffffffff16565b6019600001600082015181600001559050506170df601960010160405180602001604052908160008201548152505060196000016040518060200160405290816000820154815250506174b890919063ffffffff16565b156170fc5760196001016019600001600082015481600001559050505b7f51131d2820f04a6b6edd20e22a07d5bf847e265a3906e85256fca7d6043417c561713f601960000160405180602001604052908160008201548152505061690e565b6040518082815260200191505060405180910390a150505050565b60608183018451101561716c57600080fd5b6060821560008114617189576040519150602082016040526171da565b6040519150601f8416801560200281840101858101878315602002848b0101015b818310156171c757805183526020830192506020810190506171aa565b50868552601f19601f8301166040525050505b50809150509392505050565b60008090505b81518110156172825761725e82828151811061720457fe5b60200260200101516020015183838151811061721c57fe5b60200260200101516000015184848151811061723457fe5b6020026020010151604001515185858151811061724d57fe5b6020026020010151604001516174cd565b61726757600080fd5b61727b600182615ff890919063ffffffff16565b90506171ec565b5050565b61728e617622565b604051806020016040528069d3c21bcecceda1000000808560000151816172b157fe5b04028152509050919050565b6172c5617622565b604051806020016040528069d3c21bcecceda1000000808560000151816172e857fe5b04028460000151038152509050919050565b600064e8d4a51000905090565b61730f617622565b600082600001518460000151019050836000015181101561732f57600080fd5b60405180602001604052808281525091505092915050565b61734f617622565b617357617579565b82111561736357600080fd5b604051806020016040528069d3c21bcecceda100000084028152509050919050565b600069d3c21bcecceda100000082600001518161739e57fe5b049050919050565b6173ae617622565b6173b6617579565b8311156173c257600080fd5b6173ca617579565b8211156173d657600080fd5b60008214156173e457600080fd5b6173ec617622565b6173f584617347565b90506173ff617622565b61740884617347565b90506174148282617598565b9250505092915050565b617426617622565b6000617462836003016002015461745485600301600101548660030160000154615ff890919063ffffffff16565b615ff890919063ffffffff16565b90506174728184600801546173a6565b915050919050565b617482617622565b81600001518360000151101561749757600080fd5b60405180602001604052808360000151856000015103815250905092915050565b60008160000151836000015110905092915050565b6000806000841115617555576174e28661760f565b617554576040517f08c379a00000000000000000000000000000000000000000000000000000000081526004018080602001828103825260188152602001807f496e76616c696420636f6e74726163742061646472657373000000000000000081525060200191505060405180910390fd5b5b6040516020840160008287838a8c6187965a03f19250505080915050949350505050565b60007601357c299a88ea76a58924d52ce4f26a85af186c2b9e74905090565b6175a0617622565b6000826000015114156175b257600080fd5b600069d3c21bcecceda10000008460000151029050836000015169d3c21bcecceda100000082816175df57fe5b04146175ea57600080fd5b60405180602001604052808460000151838161760257fe5b0481525091505092915050565b600080823b905060008111915050919050565b6040518060200160405280600081525090565b81548183558181111561765c5781836000526020600020918201910161765b9190617732565b5b505050565b604051806040016040528060008152602001600081525090565b508054600082556003029060005260206000209081019061769c9190617757565b50565b604051806101200160405280600073ffffffffffffffffffffffffffffffffffffffff16815260200160008152602001600081526020016176de6177b5565b815260200160608152602001600015158152602001600081525090565b604051806060016040528060008152602001600073ffffffffffffffffffffffffffffffffffffffff168152602001606081525090565b61775491905b80821115617750576000816000905550600101617738565b5090565b90565b6177b291905b808211156177ae576000808201600090556001820160006101000a81549073ffffffffffffffffffffffffffffffffffffffff02191690556002820160006177a591906177d6565b5060030161775d565b5090565b90565b60405180606001604052806000815260200160008152602001600081525090565b50805460018160011615610100020316600290046000825580601f106177fc575061781b565b601f01602090049060005260206000209081019061781a9190617732565b5b5056fe686f74666978206d75737420626520707265706172656420666f7220746869732065706f636863616e6e6f74207570766f746520612070726f706f73616c206e6f7420696e20746865207175657565686f74666978206e6f742077686974656c69737465642062792032662b312076616c696461746f727363616e6e6f74207570766f746520776974686f7574206c6f636b696e6720676f6c64686f7466697820616c726561647920707265706172656420666f7220746869732065706f636863616e6e6f74207570766f7465206d6f7265207468616e206f6e65207175657565642070726f706f73616ca165627a7a723058204f5af75b4dc844263a56e77439138188eb63aa89485888d8646a6cc14e9c74300029",
  "source": "pragma solidity ^0.5.3;\n\nimport \"openzeppelin-solidity/contracts/utils/ReentrancyGuard.sol\";\nimport \"openzeppelin-solidity/contracts/ownership/Ownable.sol\";\nimport \"openzeppelin-solidity/contracts/math/Math.sol\";\nimport \"openzeppelin-solidity/contracts/math/SafeMath.sol\";\n\nimport \"./interfaces/IGovernance.sol\";\nimport \"./Proposals.sol\";\nimport \"../common/ExtractFunctionSignature.sol\";\nimport \"../common/Initializable.sol\";\nimport \"../common/FixidityLib.sol\";\nimport \"../common/linkedlists/IntegerSortedLinkedList.sol\";\nimport \"../common/UsingRegistry.sol\";\nimport \"../common/UsingPrecompiles.sol\";\n\n// TODO(asa): Hardcode minimum times for queueExpiry, etc.\n/**\n * @title A contract for making, passing, and executing on-chain governance proposals.\n */\ncontract Governance is\n  IGovernance,\n  Ownable,\n  Initializable,\n  ReentrancyGuard,\n  UsingRegistry,\n  UsingPrecompiles\n{\n  using Proposals for Proposals.Proposal;\n  using FixidityLib for FixidityLib.Fraction;\n  using SafeMath for uint256;\n  using IntegerSortedLinkedList for SortedLinkedList.List;\n  using BytesLib for bytes;\n\n  uint256 private constant FIXED_HALF = 500000000000000000000000;\n\n  // TODO(asa): Consider a delay stage.\n  enum ProposalStage { None, Queued, Approval, Referendum, Execution, Expiration }\n\n  enum VoteValue { None, Abstain, No, Yes }\n\n  struct UpvoteRecord {\n    uint256 proposalId;\n    uint256 weight;\n  }\n\n  struct VoteRecord {\n    Proposals.VoteValue value;\n    uint256 proposalId;\n    uint256 weight;\n  }\n\n  struct Voter {\n    // Key of the proposal voted for in the proposal queue\n    UpvoteRecord upvote;\n    uint256 mostRecentReferendumProposal;\n    // Maps a `dequeued` index to a voter's vote record.\n    mapping(uint256 => VoteRecord) referendumVotes;\n  }\n\n  struct ContractConstitution {\n    FixidityLib.Fraction defaultThreshold;\n    // Maps a function ID to a corresponding threshold, overriding the default.\n    mapping(bytes4 => FixidityLib.Fraction) functionThresholds;\n  }\n\n  struct HotfixRecord {\n    bool executed;\n    bool approved;\n    uint256 preparedEpoch;\n    mapping(address => bool) whitelisted;\n  }\n\n  // The baseline is updated as\n  // max{floor, (1 - baselineUpdateFactor) * baseline + baselineUpdateFactor * participation}\n  struct ParticipationParameters {\n    // The average network participation in governance, weighted toward recent proposals.\n    FixidityLib.Fraction baseline;\n    // The lower bound on the participation baseline.\n    FixidityLib.Fraction baselineFloor;\n    // The weight of the most recent proposal's participation on the baseline.\n    FixidityLib.Fraction baselineUpdateFactor;\n    // The proportion of the baseline that constitutes quorum.\n    FixidityLib.Fraction baselineQuorumFactor;\n  }\n\n  Proposals.StageDurations public stageDurations;\n  uint256 public queueExpiry;\n  uint256 public dequeueFrequency;\n  address public approver;\n  uint256 public lastDequeue;\n  uint256 public concurrentProposals;\n  uint256 public proposalCount;\n  uint256 public minDeposit;\n  mapping(address => uint256) public refundedDeposits;\n  mapping(address => ContractConstitution) private constitution;\n  mapping(uint256 => Proposals.Proposal) private proposals;\n  mapping(address => Voter) private voters;\n  mapping(bytes32 => HotfixRecord) public hotfixes;\n  SortedLinkedList.List private queue;\n  uint256[] public dequeued;\n  uint256[] public emptyIndices;\n  ParticipationParameters private participationParameters;\n\n  event ApproverSet(address approver);\n\n  event ConcurrentProposalsSet(uint256 concurrentProposals);\n\n  event MinDepositSet(uint256 minDeposit);\n\n  event QueueExpirySet(uint256 queueExpiry);\n\n  event DequeueFrequencySet(uint256 dequeueFrequency);\n\n  event ApprovalStageDurationSet(uint256 approvalStageDuration);\n\n  event ReferendumStageDurationSet(uint256 referendumStageDuration);\n\n  event ExecutionStageDurationSet(uint256 executionStageDuration);\n\n  event ConstitutionSet(address indexed destination, bytes4 indexed functionId, uint256 threshold);\n\n  event ProposalQueued(\n    uint256 indexed proposalId,\n    address indexed proposer,\n    uint256 transactionCount,\n    uint256 deposit,\n    uint256 timestamp\n  );\n\n  event ProposalUpvoted(uint256 indexed proposalId, address indexed account, uint256 upvotes);\n\n  event ProposalUpvoteRevoked(\n    uint256 indexed proposalId,\n    address indexed account,\n    uint256 revokedUpvotes\n  );\n\n  event ProposalDequeued(uint256 indexed proposalId, uint256 timestamp);\n\n  event ProposalApproved(uint256 indexed proposalId);\n\n  event ProposalVoted(\n    uint256 indexed proposalId,\n    address indexed account,\n    uint256 value,\n    uint256 weight\n  );\n\n  event ProposalExecuted(uint256 indexed proposalId);\n\n  event ProposalExpired(uint256 proposalId);\n\n  event ParticipationBaselineUpdated(uint256 participationBaseline);\n\n  event ParticipationFloorSet(uint256 participationFloor);\n\n  event ParticipationBaselineUpdateFactorSet(uint256 baselineUpdateFactor);\n\n  event ParticipationBaselineQuorumFactorSet(uint256 baselineQuorumFactor);\n\n  event HotfixWhitelisted(bytes32 indexed hash, address whitelister);\n\n  event HotfixApproved(bytes32 indexed hash);\n\n  event HotfixPrepared(bytes32 indexed hash, uint256 indexed epoch);\n\n  event HotfixExecuted(bytes32 indexed hash);\n\n  function() external payable {} // solhint-disable no-empty-blocks\n\n  /**\n   * @notice Initializes critical variables.\n   * @param registryAddress The address of the registry contract.\n   * @param _approver The address that needs to approve proposals to move to the referendum stage.\n   * @param _concurrentProposals The number of proposals to dequeue at once.\n   * @param _minDeposit The minimum Celo Gold deposit needed to make a proposal.\n   * @param _queueExpiry The number of seconds a proposal can stay in the queue before expiring.\n   * @param _dequeueFrequency The number of seconds before the next batch of proposals can be\n   *   dequeued.\n   * @param approvalStageDuration The number of seconds the approver has to approve a proposal\n   *   after it is dequeued.\n   * @param referendumStageDuration The number of seconds users have to vote on a dequeued proposal\n   *   after the approval stage ends.\n   * @param executionStageDuration The number of seconds users have to execute a passed proposal\n   *   after the referendum stage ends.\n   * @param participationBaseline The initial value of the participation baseline.\n   * @param participationFloor The participation floor.\n   * @param baselineUpdateFactor The weight of the new participation in the baseline update rule.\n   * @param baselineQuorumFactor The proportion of the baseline that constitutes quorum.\n   * @dev Should be called only once.\n   */\n  function initialize(\n    address registryAddress,\n    address _approver,\n    uint256 _concurrentProposals,\n    uint256 _minDeposit,\n    uint256 _queueExpiry,\n    uint256 _dequeueFrequency,\n    uint256 approvalStageDuration,\n    uint256 referendumStageDuration,\n    uint256 executionStageDuration,\n    uint256 participationBaseline,\n    uint256 participationFloor,\n    uint256 baselineUpdateFactor,\n    uint256 baselineQuorumFactor\n  ) external initializer {\n    require(\n      _approver != address(0) &&\n        _concurrentProposals != 0 &&\n        _minDeposit != 0 &&\n        _queueExpiry != 0 &&\n        _dequeueFrequency != 0 &&\n        approvalStageDuration != 0 &&\n        referendumStageDuration != 0 &&\n        executionStageDuration != 0\n    );\n    _transferOwnership(msg.sender);\n    setRegistry(registryAddress);\n    approver = _approver;\n    concurrentProposals = _concurrentProposals;\n    minDeposit = _minDeposit;\n    queueExpiry = _queueExpiry;\n    dequeueFrequency = _dequeueFrequency;\n    stageDurations.approval = approvalStageDuration;\n    stageDurations.referendum = referendumStageDuration;\n    stageDurations.execution = executionStageDuration;\n    setParticipationBaseline(participationBaseline);\n    setParticipationFloor(participationFloor);\n    setBaselineUpdateFactor(baselineUpdateFactor);\n    setBaselineQuorumFactor(baselineQuorumFactor);\n    // solhint-disable-next-line not-rely-on-time\n    lastDequeue = now;\n  }\n\n  /**\n   * @notice Updates the address that has permission to approve proposals in the approval stage.\n   * @param _approver The address that has permission to approve proposals in the approval stage.\n   */\n  function setApprover(address _approver) external onlyOwner {\n    require(_approver != address(0) && _approver != approver);\n    approver = _approver;\n    emit ApproverSet(_approver);\n  }\n\n  /**\n   * @notice Updates the number of proposals to dequeue at a time.\n   * @param _concurrentProposals The number of proposals to dequeue at at a time.\n   */\n  function setConcurrentProposals(uint256 _concurrentProposals) external onlyOwner {\n    require(_concurrentProposals > 0 && _concurrentProposals != concurrentProposals);\n    concurrentProposals = _concurrentProposals;\n    emit ConcurrentProposalsSet(_concurrentProposals);\n  }\n\n  /**\n   * @notice Updates the minimum deposit needed to make a proposal.\n   * @param _minDeposit The minimum Celo Gold deposit needed to make a proposal.\n   */\n  function setMinDeposit(uint256 _minDeposit) external onlyOwner {\n    require(_minDeposit != minDeposit);\n    minDeposit = _minDeposit;\n    emit MinDepositSet(_minDeposit);\n  }\n\n  /**\n   * @notice Updates the number of seconds before a queued proposal expires.\n   * @param _queueExpiry The number of seconds a proposal can stay in the queue before expiring.\n   */\n  function setQueueExpiry(uint256 _queueExpiry) external onlyOwner {\n    require(_queueExpiry > 0 && _queueExpiry != queueExpiry);\n    queueExpiry = _queueExpiry;\n    emit QueueExpirySet(_queueExpiry);\n  }\n\n  /**\n   * @notice Updates the minimum number of seconds before the next batch of proposals can be\n   *   dequeued.\n   * @param _dequeueFrequency The number of seconds before the next batch of proposals can be\n   *   dequeued.\n   */\n  function setDequeueFrequency(uint256 _dequeueFrequency) external onlyOwner {\n    require(_dequeueFrequency > 0 && _dequeueFrequency != dequeueFrequency);\n    dequeueFrequency = _dequeueFrequency;\n    emit DequeueFrequencySet(_dequeueFrequency);\n  }\n\n  /**\n   * @notice Updates the number of seconds proposals stay in the approval stage.\n   * @param approvalStageDuration The number of seconds proposals stay in the approval stage.\n   */\n  function setApprovalStageDuration(uint256 approvalStageDuration) external onlyOwner {\n    require(approvalStageDuration > 0 && approvalStageDuration != stageDurations.approval);\n    stageDurations.approval = approvalStageDuration;\n    emit ApprovalStageDurationSet(approvalStageDuration);\n  }\n\n  /**\n   * @notice Updates the number of seconds proposals stay in the referendum stage.\n   * @param referendumStageDuration The number of seconds proposals stay in the referendum stage.\n   */\n  function setReferendumStageDuration(uint256 referendumStageDuration) external onlyOwner {\n    require(referendumStageDuration > 0 && referendumStageDuration != stageDurations.referendum);\n    stageDurations.referendum = referendumStageDuration;\n    emit ReferendumStageDurationSet(referendumStageDuration);\n  }\n\n  /**\n   * @notice Updates the number of seconds proposals stay in the execution stage.\n   * @param executionStageDuration The number of seconds proposals stay in the execution stage.\n   */\n  function setExecutionStageDuration(uint256 executionStageDuration) external onlyOwner {\n    require(executionStageDuration > 0 && executionStageDuration != stageDurations.execution);\n    stageDurations.execution = executionStageDuration;\n    emit ExecutionStageDurationSet(executionStageDuration);\n  }\n\n  /**\n   * @notice Updates the participation baseline.\n   * @param participationBaseline The value of the baseline.\n   */\n  function setParticipationBaseline(uint256 participationBaseline) public onlyOwner {\n    FixidityLib.Fraction memory participationBaselineFrac = FixidityLib.wrap(participationBaseline);\n    require(\n      FixidityLib.isProperFraction(participationBaselineFrac) &&\n        !participationBaselineFrac.equals(participationParameters.baseline)\n    );\n    participationParameters.baseline = participationBaselineFrac;\n    emit ParticipationBaselineUpdated(participationBaseline);\n  }\n\n  /**\n   * @notice Updates the floor of the participation baseline.\n   * @param participationFloor The value at which the baseline is floored.\n   */\n  function setParticipationFloor(uint256 participationFloor) public onlyOwner {\n    FixidityLib.Fraction memory participationFloorFrac = FixidityLib.wrap(participationFloor);\n    require(\n      FixidityLib.isProperFraction(participationFloorFrac) &&\n        !participationFloorFrac.equals(participationParameters.baselineFloor)\n    );\n    participationParameters.baselineFloor = participationFloorFrac;\n    emit ParticipationFloorSet(participationFloor);\n  }\n\n  /**\n   * @notice Updates the weight of the new participation in the baseline update rule.\n   * @param baselineUpdateFactor The new baseline update factor.\n   */\n  function setBaselineUpdateFactor(uint256 baselineUpdateFactor) public onlyOwner {\n    FixidityLib.Fraction memory baselineUpdateFactorFrac = FixidityLib.wrap(baselineUpdateFactor);\n    require(\n      FixidityLib.isProperFraction(baselineUpdateFactorFrac) &&\n        !baselineUpdateFactorFrac.equals(participationParameters.baselineUpdateFactor)\n    );\n    participationParameters.baselineUpdateFactor = baselineUpdateFactorFrac;\n    emit ParticipationBaselineUpdateFactorSet(baselineUpdateFactor);\n  }\n\n  /**\n   * @notice Updates the proportion of the baseline that constitutes quorum.\n   * @param baselineQuorumFactor The new baseline quorum factor.\n   */\n  function setBaselineQuorumFactor(uint256 baselineQuorumFactor) public onlyOwner {\n    FixidityLib.Fraction memory baselineQuorumFactorFrac = FixidityLib.wrap(baselineQuorumFactor);\n    require(\n      FixidityLib.isProperFraction(baselineQuorumFactorFrac) &&\n        !baselineQuorumFactorFrac.equals(participationParameters.baselineQuorumFactor)\n    );\n    participationParameters.baselineQuorumFactor = baselineQuorumFactorFrac;\n    emit ParticipationBaselineQuorumFactorSet(baselineQuorumFactor);\n  }\n\n  /**\n   * @notice Updates the ratio of yes:yes+no votes needed for a specific class of proposals to pass.\n   * @param destination The destination of proposals for which this threshold should apply.\n   * @param functionId The function ID of proposals for which this threshold should apply. Zero\n   *   will set the default.\n   * @param threshold The threshold.\n   * @dev If no constitution is explicitly set the default is a simple majority, i.e. 1:2.\n   */\n  function setConstitution(address destination, bytes4 functionId, uint256 threshold)\n    external\n    onlyOwner\n  {\n    // TODO(asa): https://github.com/celo-org/celo-monorepo/pull/3414#discussion_r283588332\n    require(destination != address(0));\n    // Threshold has to be greater than majority and not greater than unaninimty\n    require(threshold > FIXED_HALF && threshold <= FixidityLib.fixed1().unwrap());\n    if (functionId == 0) {\n      constitution[destination].defaultThreshold = FixidityLib.wrap(threshold);\n    } else {\n      constitution[destination].functionThresholds[functionId] = FixidityLib.wrap(threshold);\n    }\n    emit ConstitutionSet(destination, functionId, threshold);\n  }\n\n  /**\n   * @notice Creates a new proposal and adds it to end of the queue with no upvotes.\n   * @param values The values of Celo Gold to be sent in the proposed transactions.\n   * @param destinations The destination addresses of the proposed transactions.\n   * @param data The concatenated data to be included in the proposed transactions.\n   * @param dataLengths The lengths of each transaction's data.\n   * @return The ID of the newly proposed proposal.\n   * @dev The minimum deposit must be included with the proposal, returned if/when the proposal is\n   *   dequeued.\n   */\n  function propose(\n    uint256[] calldata values,\n    address[] calldata destinations,\n    bytes calldata data,\n    uint256[] calldata dataLengths\n  ) external payable returns (uint256) {\n    dequeueProposalsIfReady();\n    require(msg.value >= minDeposit);\n\n    proposalCount = proposalCount.add(1);\n    Proposals.Proposal storage proposal = proposals[proposalCount];\n    proposal.make(values, destinations, data, dataLengths, msg.sender, msg.value);\n    queue.push(proposalCount);\n    // solhint-disable-next-line not-rely-on-time\n    emit ProposalQueued(proposalCount, msg.sender, proposal.transactions.length, msg.value, now);\n    return proposalCount;\n  }\n\n  /**\n   * @notice Upvotes a queued proposal.\n   * @param proposalId The ID of the proposal to upvote.\n   * @param lesser The ID of the proposal that will be just behind `proposalId` in the queue.\n   * @param greater The ID of the proposal that will be just ahead `proposalId` in the queue.\n   * @return Whether or not the upvote was made successfully.\n   * @dev Provide 0 for `lesser`/`greater` when the proposal will be at the tail/head of the queue.\n   * @dev Reverts if the account has already upvoted a proposal in the queue.\n   */\n  function upvote(uint256 proposalId, uint256 lesser, uint256 greater)\n    external\n    nonReentrant\n    returns (bool)\n  {\n    address account = getAccounts().voteSignerToAccount(msg.sender);\n    // TODO(asa): When upvoting a proposal that will get dequeued, should we let the tx succeed\n    // and return false?\n    dequeueProposalsIfReady();\n    // If acting on an expired proposal, expire the proposal and take no action.\n    // solhint-disable-next-line not-rely-on-time\n    if (queue.contains(proposalId) && now >= proposals[proposalId].timestamp.add(queueExpiry)) {\n      queue.remove(proposalId);\n      emit ProposalExpired(proposalId);\n      return false;\n    }\n    Voter storage voter = voters[account];\n    // If the previously upvoted proposal is still in the queue but has expired, expire the\n    // proposal from the queue.\n    if (\n      queue.contains(voter.upvote.proposalId) &&\n      now >= proposals[voter.upvote.proposalId].timestamp.add(queueExpiry)\n    ) {\n      queue.remove(voter.upvote.proposalId);\n      emit ProposalExpired(voter.upvote.proposalId);\n    }\n    // We can upvote a proposal in the queue if we're not already upvoting a proposal in the queue.\n    uint256 weight = getLockedGold().getAccountTotalLockedGold(account);\n    require(weight > 0, \"cannot upvote without locking gold\");\n    require(isQueued(proposalId), \"cannot upvote a proposal not in the queue\");\n    require(\n      voter.upvote.proposalId == 0 || !queue.contains(voter.upvote.proposalId),\n      \"cannot upvote more than one queued proposal\"\n    );\n    uint256 upvotes = queue.getValue(proposalId).add(weight);\n    queue.update(proposalId, upvotes, lesser, greater);\n    voter.upvote = UpvoteRecord(proposalId, weight);\n    emit ProposalUpvoted(proposalId, account, weight);\n    return true;\n  }\n\n  /**\n   * @notice Revokes an upvote on a queued proposal.\n   * @param lesser The ID of the proposal that will be just behind the previously upvoted proposal\n   *   in the queue.\n   * @param greater The ID of the proposal that will be just ahead of the previously upvoted\n   *   proposal in the queue.\n   * @return Whether or not the upvote was revoked successfully.\n   * @dev Provide 0 for `lesser`/`greater` when the proposal will be at the tail/head of the queue.\n   */\n  function revokeUpvote(uint256 lesser, uint256 greater) external nonReentrant returns (bool) {\n    dequeueProposalsIfReady();\n    address account = getAccounts().voteSignerToAccount(msg.sender);\n    Voter storage voter = voters[account];\n    uint256 proposalId = voter.upvote.proposalId;\n    Proposals.Proposal storage proposal = proposals[proposalId];\n    require(proposal.exists());\n    // If acting on an expired proposal, expire the proposal.\n    // TODO(asa): Break this out into a separate function.\n    if (queue.contains(proposalId)) {\n      // solhint-disable-next-line not-rely-on-time\n      if (now >= proposal.timestamp.add(queueExpiry)) {\n        queue.remove(proposalId);\n        emit ProposalExpired(proposalId);\n      } else {\n        queue.update(\n          proposalId,\n          queue.getValue(proposalId).sub(voter.upvote.weight),\n          lesser,\n          greater\n        );\n        emit ProposalUpvoteRevoked(proposalId, account, voter.upvote.weight);\n      }\n    }\n    voter.upvote = UpvoteRecord(0, 0);\n    return true;\n  }\n\n  // TODO(asa): Consider allowing approval to be revoked.\n  // TODO(asa): Everywhere we use an index, require it's less than the array length\n  /**\n   * @notice Approves a proposal in the approval stage.\n   * @param proposalId The ID of the proposal to approve.\n   * @param index The index of the proposal ID in `dequeued`.\n   * @return Whether or not the approval was made successfully.\n   */\n  function approve(uint256 proposalId, uint256 index) external returns (bool) {\n    dequeueProposalsIfReady();\n    Proposals.Proposal storage proposal = proposals[proposalId];\n    require(isDequeuedProposal(proposal, proposalId, index));\n    Proposals.Stage stage = proposal.getDequeuedStage(stageDurations);\n    if (isDequeuedProposalExpired(proposal, stage)) {\n      deleteDequeuedProposal(proposal, proposalId, index);\n      return false;\n    }\n    require(msg.sender == approver && !proposal.isApproved() && stage == Proposals.Stage.Approval);\n    proposal.approved = true;\n    // Ensures networkWeight is set by the end of the Referendum stage, even if 0 votes are cast.\n    proposal.networkWeight = getLockedGold().getTotalLockedGold();\n    emit ProposalApproved(proposalId);\n    return true;\n  }\n\n  /**\n   * @notice Votes on a proposal in the referendum stage.\n   * @param proposalId The ID of the proposal to vote on.\n   * @param index The index of the proposal ID in `dequeued`.\n   * @param value Whether to vote yes, no, or abstain.\n   * @return Whether or not the vote was cast successfully.\n   */\n  /* solhint-disable code-complexity */\n  function vote(uint256 proposalId, uint256 index, Proposals.VoteValue value)\n    external\n    nonReentrant\n    returns (bool)\n  {\n    address account = getAccounts().voteSignerToAccount(msg.sender);\n    dequeueProposalsIfReady();\n    Proposals.Proposal storage proposal = proposals[proposalId];\n    require(isDequeuedProposal(proposal, proposalId, index));\n    Proposals.Stage stage = proposal.getDequeuedStage(stageDurations);\n    if (isDequeuedProposalExpired(proposal, stage)) {\n      deleteDequeuedProposal(proposal, proposalId, index);\n      return false;\n    }\n    Voter storage voter = voters[account];\n    uint256 weight = getLockedGold().getAccountTotalLockedGold(account);\n    require(\n      proposal.isApproved() &&\n        stage == Proposals.Stage.Referendum &&\n        value != Proposals.VoteValue.None &&\n        weight > 0\n    );\n    VoteRecord storage voteRecord = voter.referendumVotes[index];\n    proposal.updateVote(\n      voteRecord.weight,\n      weight,\n      (voteRecord.proposalId == proposalId) ? voteRecord.value : Proposals.VoteValue.None,\n      value\n    );\n    proposal.networkWeight = getLockedGold().getTotalLockedGold();\n    voter.referendumVotes[index] = VoteRecord(value, proposalId, weight);\n    if (proposal.timestamp > voter.mostRecentReferendumProposal) {\n      voter.mostRecentReferendumProposal = proposalId;\n    }\n    emit ProposalVoted(proposalId, account, uint256(value), weight);\n    return true;\n  }\n  /* solhint-enable code-complexity */\n\n  /**\n   * @notice Executes a proposal in the execution stage, removing it from `dequeued`.\n   * @param proposalId The ID of the proposal to vote on.\n   * @param index The index of the proposal ID in `dequeued`.\n   * @return Whether or not the proposal was executed successfully.\n   * @dev Does not remove the proposal if the execution fails.\n   */\n  function execute(uint256 proposalId, uint256 index) external nonReentrant returns (bool) {\n    dequeueProposalsIfReady();\n    Proposals.Proposal storage proposal = proposals[proposalId];\n    require(isDequeuedProposal(proposal, proposalId, index));\n    Proposals.Stage stage = proposal.getDequeuedStage(stageDurations);\n    bool expired = isDequeuedProposalExpired(proposal, stage);\n    if (!expired) {\n      // TODO(asa): Think through the effects of changing the passing function\n      require(stage == Proposals.Stage.Execution && _isProposalPassing(proposal));\n      proposal.execute();\n      emit ProposalExecuted(proposalId);\n    }\n    // Proposal must have executed fully or expired if this point is reached.\n    deleteDequeuedProposal(proposal, proposalId, index);\n    return !expired;\n  }\n\n  /**\n   * @notice Whitelists the hash of a hotfix transaction(s).\n   * @param hash The abi encoded keccak256 hash of the hotfix transaction(s) to be whitelisted.\n   */\n  function approveHotfix(bytes32 hash) external {\n    require(msg.sender == approver);\n    hotfixes[hash].approved = true;\n    emit HotfixApproved(hash);\n  }\n\n  /**\n   * @notice Whitelists the hash of a hotfix transaction(s).\n   * @param hash The abi encoded keccak256 hash of the hotfix transaction(s) to be whitelisted.\n   */\n  function whitelistHotfix(bytes32 hash) external {\n    hotfixes[hash].whitelisted[msg.sender] = true;\n    emit HotfixWhitelisted(hash, msg.sender);\n  }\n\n  /**\n   * @notice Gives hotfix a prepared epoch for execution.\n   * @param hash The hash of the hotfix to be prepared.\n   */\n  function prepareHotfix(bytes32 hash) external {\n    require(isHotfixPassing(hash), \"hotfix not whitelisted by 2f+1 validators\");\n    uint256 epoch = getEpochNumber();\n    require(hotfixes[hash].preparedEpoch < epoch, \"hotfix already prepared for this epoch\");\n    hotfixes[hash].preparedEpoch = epoch;\n    emit HotfixPrepared(hash, epoch);\n  }\n\n  /**\n   * @notice Executes a whitelisted proposal.\n   * @param values The values of Celo Gold to be sent in the proposed transactions.\n   * @param destinations The destination addresses of the proposed transactions.\n   * @param data The concatenated data to be included in the proposed transactions.\n   * @param dataLengths The lengths of each transaction's data.\n   * @dev Reverts if hotfix is already executed, not approved, or not prepared for current epoch.\n   */\n  function executeHotfix(\n    uint256[] calldata values,\n    address[] calldata destinations,\n    bytes calldata data,\n    uint256[] calldata dataLengths\n  ) external {\n    bytes32 hash = keccak256(abi.encode(values, destinations, data, dataLengths));\n\n    (bool approved, bool executed, uint256 preparedEpoch) = getHotfixRecord(hash);\n    require(!executed, \"hotfix already executed\");\n    require(approved, \"hotfix not approved\");\n    require(preparedEpoch == getEpochNumber(), \"hotfix must be prepared for this epoch\");\n\n    Proposals.makeMem(values, destinations, data, dataLengths, msg.sender, 0).executeMem();\n\n    hotfixes[hash].executed = true;\n    emit HotfixExecuted(hash);\n  }\n\n  /**\n   * @notice Withdraws refunded Celo Gold deposits.\n   * @return Whether or not the withdraw was successful.\n   */\n  function withdraw() external nonReentrant returns (bool) {\n    uint256 value = refundedDeposits[msg.sender];\n    require(value > 0 && value <= address(this).balance);\n    refundedDeposits[msg.sender] = 0;\n    msg.sender.transfer(value);\n    return true;\n  }\n\n  /**\n   * @notice Returns whether or not a particular account is voting on proposals.\n   * @param account The address of the account.\n   * @return Whether or not the account is voting on proposals.\n   */\n  function isVoting(address account) external view returns (bool) {\n    Voter storage voter = voters[account];\n    uint256 upvotedProposal = voter.upvote.proposalId;\n    bool isVotingQueue = upvotedProposal != 0 && isQueued(upvotedProposal);\n    Proposals.Proposal storage proposal = proposals[voter.mostRecentReferendumProposal];\n    bool isVotingReferendum = (proposal.getDequeuedStage(stageDurations) ==\n      Proposals.Stage.Referendum);\n    return isVotingQueue || isVotingReferendum;\n  }\n\n  /**\n   * @notice Returns the number of seconds proposals stay in approval stage.\n   * @return The number of seconds proposals stay in approval stage.\n   */\n  function getApprovalStageDuration() external view returns (uint256) {\n    return stageDurations.approval;\n  }\n\n  /**\n   * @notice Returns the number of seconds proposals stay in the referendum stage.\n   * @return The number of seconds proposals stay in the referendum stage.\n   */\n  function getReferendumStageDuration() external view returns (uint256) {\n    return stageDurations.referendum;\n  }\n\n  /**\n   * @notice Returns the number of seconds proposals stay in the execution stage.\n   * @return The number of seconds proposals stay in the execution stage.\n   */\n  function getExecutionStageDuration() external view returns (uint256) {\n    return stageDurations.execution;\n  }\n\n  /**\n   * @notice Returns the participation parameters.\n   * @return The participation parameters.\n   */\n  function getParticipationParameters() external view returns (uint256, uint256, uint256, uint256) {\n    return (\n      participationParameters.baseline.unwrap(),\n      participationParameters.baselineFloor.unwrap(),\n      participationParameters.baselineUpdateFactor.unwrap(),\n      participationParameters.baselineQuorumFactor.unwrap()\n    );\n  }\n\n  /**\n   * @notice Returns whether or not a proposal exists.\n   * @param proposalId The ID of the proposal.\n   * @return Whether or not the proposal exists.\n   */\n  function proposalExists(uint256 proposalId) external view returns (bool) {\n    return proposals[proposalId].exists();\n  }\n\n  /**\n   * @notice Returns an unpacked proposal struct with its transaction count.\n   * @param proposalId The ID of the proposal to unpack.\n   * @return The unpacked proposal with its transaction count.\n   */\n  function getProposal(uint256 proposalId)\n    external\n    view\n    returns (address, uint256, uint256, uint256)\n  {\n    return proposals[proposalId].unpack();\n  }\n\n  /**\n   * @notice Returns a specified transaction in a proposal.\n   * @param proposalId The ID of the proposal to query.\n   * @param index The index of the specified transaction in the proposal's transaction list.\n   * @return The specified transaction.\n   */\n  function getProposalTransaction(uint256 proposalId, uint256 index)\n    external\n    view\n    returns (uint256, address, bytes memory)\n  {\n    return proposals[proposalId].getTransaction(index);\n  }\n\n  /**\n   * @notice Returns whether or not a proposal has been approved.\n   * @param proposalId The ID of the proposal.\n   * @return Whether or not the proposal has been approved.\n   */\n  function isApproved(uint256 proposalId) external view returns (bool) {\n    return proposals[proposalId].isApproved();\n  }\n\n  /**\n   * @notice Returns the referendum vote totals for a proposal.\n   * @param proposalId The ID of the proposal.\n   * @return The yes, no, and abstain vote totals.\n   */\n  function getVoteTotals(uint256 proposalId) external view returns (uint256, uint256, uint256) {\n    return proposals[proposalId].getVoteTotals();\n  }\n\n  /**\n   * @notice Returns an accounts vote record on a particular index in `dequeued`.\n   * @param account The address of the account to get the record for.\n   * @param index The index in `dequeued`.\n   * @return The corresponding proposal ID and vote value.\n   */\n  function getVoteRecord(address account, uint256 index) external view returns (uint256, uint256) {\n    VoteRecord storage record = voters[account].referendumVotes[index];\n    return (record.proposalId, uint256(record.value));\n  }\n\n  /**\n   * @notice Returns the number of proposals in the queue.\n   * @return The number of proposals in the queue.\n   */\n  function getQueueLength() external view returns (uint256) {\n    return queue.list.numElements;\n  }\n\n  /**\n   * @notice Returns the number of upvotes the queued proposal has received.\n   * @param proposalId The ID of the proposal.\n   * @return The number of upvotes a queued proposal has received.\n   */\n  function getUpvotes(uint256 proposalId) external view returns (uint256) {\n    require(isQueued(proposalId));\n    return queue.getValue(proposalId);\n  }\n\n  /**\n   * @notice Returns the proposal ID and upvote total for all queued proposals.\n   * @return The proposal ID and upvote total for all queued proposals.\n   * @dev Note that this includes expired proposals that have yet to be removed from the queue.\n   */\n  function getQueue() external view returns (uint256[] memory, uint256[] memory) {\n    return queue.getElements();\n  }\n\n  /**\n   * @notice Returns the dequeued proposal IDs.\n   * @return The dequeued proposal IDs.\n   */\n  function getDequeue() external view returns (uint256[] memory) {\n    return dequeued;\n  }\n\n  /**\n   * @notice Returns the ID of the proposal upvoted by `account` and the weight of that upvote.\n   * @param account The address of the account.\n   * @return The ID of the proposal upvoted by `account` and the weight of that upvote.\n   */\n  function getUpvoteRecord(address account) external view returns (uint256, uint256) {\n    UpvoteRecord memory upvoteRecord = voters[account].upvote;\n    return (upvoteRecord.proposalId, upvoteRecord.weight);\n  }\n\n  /**\n   * @notice Returns the ID of the most recently dequeued proposal voted on by `account`.\n   * @param account The address of the account.\n   * @return The ID of the most recently dequeued proposal voted on by `account`..\n   */\n  function getMostRecentReferendumProposal(address account) external view returns (uint256) {\n    return voters[account].mostRecentReferendumProposal;\n  }\n\n  /**\n   * @notice Checks if a byzantine quorum of validators has whitelisted the given hotfix.\n   * @param hash The abi encoded keccak256 hash of the hotfix transaction.\n   * @return Whether validator whitelist tally >= validator byztanine quorum (2f+1)\n   */\n  function isHotfixPassing(bytes32 hash) public view returns (bool) {\n    uint256 tally = 0;\n    uint256 n = numberValidatorsInCurrentSet();\n    for (uint256 idx = 0; idx < n; idx++) {\n      address validator = validatorAddressFromCurrentSet(idx);\n      if (hotfixes[hash].whitelisted[validator]) {\n        tally = tally.add(1);\n      }\n    }\n\n    return tally >= byzantineQuorumValidatorsInCurrentSet();\n  }\n\n  /**\n   * @notice Computes byzantine quorum from current validator set size\n   * @return Byzantine quorum of validators.\n   */\n  function byzantineQuorumValidatorsInCurrentSet() public view returns (uint256) {\n    return numberValidatorsInCurrentSet().mul(2).div(3).add(1);\n  }\n\n  /**\n   * @notice Gets information about a hotfix.\n   * @param hash The abi encoded keccak256 hash of the hotfix transaction.\n   * @return Hotfix tuple of (approved, executed, preparedEpoch)\n   */\n  function getHotfixRecord(bytes32 hash) public view returns (bool, bool, uint256) {\n    return (hotfixes[hash].approved, hotfixes[hash].executed, hotfixes[hash].preparedEpoch);\n  }\n\n  /**\n   * @notice Removes the proposals with the most upvotes from the queue, moving them to the\n   *   approval stage.\n   * @dev If any of the top proposals have expired, they are deleted.\n   */\n  function dequeueProposalsIfReady() public {\n    // solhint-disable-next-line not-rely-on-time\n    if (now >= lastDequeue.add(dequeueFrequency)) {\n      uint256 numProposalsToDequeue = Math.min(concurrentProposals, queue.list.numElements);\n      uint256[] memory dequeuedIds = queue.popN(numProposalsToDequeue);\n      for (uint256 i = 0; i < numProposalsToDequeue; i = i.add(1)) {\n        uint256 proposalId = dequeuedIds[i];\n        Proposals.Proposal storage proposal = proposals[proposalId];\n        // solhint-disable-next-line not-rely-on-time\n        if (now >= proposal.timestamp.add(queueExpiry)) {\n          emit ProposalExpired(proposalId);\n          continue;\n        }\n        refundedDeposits[proposal.proposer] = refundedDeposits[proposal.proposer].add(\n          proposal.deposit\n        );\n        // solhint-disable-next-line not-rely-on-time\n        proposal.timestamp = now;\n        if (emptyIndices.length > 0) {\n          uint256 indexOfLastEmptyIndex = emptyIndices.length.sub(1);\n          dequeued[emptyIndices[indexOfLastEmptyIndex]] = proposalId;\n          // TODO(asa): We can save gas by not deleting here\n          delete emptyIndices[indexOfLastEmptyIndex];\n          emptyIndices.length = indexOfLastEmptyIndex;\n        } else {\n          dequeued.push(proposalId);\n        }\n        // solhint-disable-next-line not-rely-on-time\n        emit ProposalDequeued(proposalId, now);\n      }\n      // solhint-disable-next-line not-rely-on-time\n      lastDequeue = now;\n    }\n  }\n\n  /**\n   * @notice Returns whether or not a proposal is in the queue.\n   * @param proposalId The ID of the proposal.\n   * @return Whether or not the proposal is in the queue.\n   */\n  function isQueued(uint256 proposalId) public view returns (bool) {\n    // solhint-disable-next-line not-rely-on-time\n    return queue.contains(proposalId) && now < proposals[proposalId].timestamp.add(queueExpiry);\n  }\n\n  /**\n   * @notice Returns whether or not a particular proposal is passing according to the constitution\n   *   and the participation levels.\n   * @param proposalId The ID of the proposal.\n   * @return Whether or not the proposal is passing.\n   */\n  function isProposalPassing(uint256 proposalId) external view returns (bool) {\n    return _isProposalPassing(proposals[proposalId]);\n  }\n\n  /**\n   * @notice Returns whether or not a particular proposal is passing according to the constitution\n   *   and the participation levels.\n   * @param proposal The proposal struct.\n   * @return Whether or not the proposal is passing.\n   */\n  function _isProposalPassing(Proposals.Proposal storage proposal) private view returns (bool) {\n    FixidityLib.Fraction memory support = proposal.getSupportWithQuorumPadding(\n      participationParameters.baseline.multiply(participationParameters.baselineQuorumFactor)\n    );\n    for (uint256 i = 0; i < proposal.transactions.length; i = i.add(1)) {\n      bytes4 functionId = ExtractFunctionSignature.extractFunctionSignature(\n        proposal.transactions[i].data\n      );\n      FixidityLib.Fraction memory threshold = _getConstitution(\n        proposal.transactions[i].destination,\n        functionId\n      );\n      if (support.lte(threshold)) {\n        return false;\n      }\n    }\n    return true;\n  }\n\n  /**\n   * @notice Returns whether a proposal is dequeued at the given index.\n   * @param proposal The proposal struct.\n   * @param proposalId The ID of the proposal.\n   * @param index The index of the proposal ID in `dequeued`.\n   */\n  function isDequeuedProposal(\n    Proposals.Proposal storage proposal,\n    uint256 proposalId,\n    uint256 index\n  ) private view returns (bool) {\n    return proposal.exists() && dequeued[index] == proposalId;\n  }\n\n  /**\n   * @notice Returns whether or not a dequeued proposal has expired.\n   * @param proposal The proposal struct.\n   * @return Whether or not the dequeued proposal has expired.\n   */\n  function isDequeuedProposalExpired(Proposals.Proposal storage proposal, Proposals.Stage stage)\n    private\n    view\n    returns (bool)\n  {\n    // The proposal is considered expired under the following conditions:\n    //   1. Past the approval stage and not approved.\n    //   2. Past the referendum stage and not passing.\n    //   3. Past the execution stage.\n    return ((stage > Proposals.Stage.Execution) ||\n      (stage > Proposals.Stage.Referendum && !_isProposalPassing(proposal)) ||\n      (stage > Proposals.Stage.Approval && !proposal.isApproved()));\n  }\n\n  /**\n   * @notice Deletes a dequeued proposal.\n   * @param proposal The proposal struct.\n   * @param proposalId The ID of the proposal to delete.\n   * @param index The index of the proposal ID in `dequeued`.\n   */\n  function deleteDequeuedProposal(\n    Proposals.Proposal storage proposal,\n    uint256 proposalId,\n    uint256 index\n  ) private {\n    if (proposal.isApproved() && proposal.networkWeight > 0) {\n      updateParticipationBaseline(proposal);\n    }\n    dequeued[index] = 0;\n    emptyIndices.push(index);\n    delete proposals[proposalId];\n  }\n\n  /**\n   * @notice Updates the participation baseline based on the proportion of BondedDeposit weight\n   *   that participated in the proposal's Referendum stage.\n   * @param proposal The proposal struct.\n   */\n  function updateParticipationBaseline(Proposals.Proposal storage proposal) private {\n    FixidityLib.Fraction memory participation = proposal.getParticipation();\n    FixidityLib.Fraction memory participationComponent = participation.multiply(\n      participationParameters.baselineUpdateFactor\n    );\n    FixidityLib.Fraction memory baselineComponent = participationParameters.baseline.multiply(\n      FixidityLib.fixed1().subtract(participationParameters.baselineUpdateFactor)\n    );\n    participationParameters.baseline = participationComponent.add(baselineComponent);\n    if (participationParameters.baseline.lt(participationParameters.baselineFloor)) {\n      participationParameters.baseline = participationParameters.baselineFloor;\n    }\n    emit ParticipationBaselineUpdated(participationParameters.baseline.unwrap());\n  }\n\n  function getConstitution(address destination, bytes4 functionId) external view returns (uint256) {\n    return _getConstitution(destination, functionId).unwrap();\n  }\n\n  /**\n   * @notice Returns the constitution for a particular destination and function ID.\n   * @param destination The destination address to get the constitution for.\n   * @param functionId The function ID to get the constitution for, zero for the destination\n   *   default.\n   * @return The ratio of yes:no votes needed to exceed in order to pass the proposal.\n   */\n  function _getConstitution(address destination, bytes4 functionId)\n    internal\n    view\n    returns (FixidityLib.Fraction memory)\n  {\n    // Default to a simple majority.\n    FixidityLib.Fraction memory threshold = FixidityLib.wrap(FIXED_HALF);\n    if (constitution[destination].functionThresholds[functionId].unwrap() != 0) {\n      threshold = constitution[destination].functionThresholds[functionId];\n    } else if (constitution[destination].defaultThreshold.unwrap() != 0) {\n      threshold = constitution[destination].defaultThreshold;\n    }\n    return threshold;\n  }\n}\n",
  "sourcePath": "/Users/cmcewen/celo/celo-monorepo/packages/protocol/contracts/governance/Governance.sol",
  "compiler": {
    "name": "solc",
    "version": "0.5.8+commit.23d335f2.Emscripten.clang"
  },
  "schemaVersion": "3.0.10",
  "updatedAt": "2019-12-06T00:12:54.890Z",
  "devdoc": {
    "methods": {
      "approve(uint256,uint256)": {
        "params": {
          "index": "The index of the proposal ID in `dequeued`.",
          "proposalId": "The ID of the proposal to approve."
        },
        "return": "Whether or not the approval was made successfully."
      },
      "approveHotfix(bytes32)": {
        "params": {
          "hash": "The abi encoded keccak256 hash of the hotfix transaction(s) to be whitelisted."
        }
      },
      "byzantineQuorumValidatorsInCurrentSet()": {
        "return": "Byzantine quorum of validators."
      },
      "checkProofOfPossession(address,bytes,bytes)": {
        "params": {
          "blsKey": "The BLS public key that the validator is using for consensus, should pass proof  of possession. 48 bytes.",
          "blsPop": "The BLS public key proof-of-possession, which consists of a signature on the  account address. 96 bytes.",
          "sender": "The address signed by the BLS key to generate the proof of possession."
        },
        "return": "True upon success."
      },
      "dequeueProposalsIfReady()": {
        "details": "If any of the top proposals have expired, they are deleted."
      },
      "execute(uint256,uint256)": {
        "details": "Does not remove the proposal if the execution fails.",
        "params": {
          "index": "The index of the proposal ID in `dequeued`.",
          "proposalId": "The ID of the proposal to vote on."
        },
        "return": "Whether or not the proposal was executed successfully."
      },
      "executeHotfix(uint256[],address[],bytes,uint256[])": {
        "details": "Reverts if hotfix is already executed, not approved, or not prepared for current epoch.",
        "params": {
          "data": "The concatenated data to be included in the proposed transactions.",
          "dataLengths": "The lengths of each transaction's data.",
          "destinations": "The destination addresses of the proposed transactions.",
          "values": "The values of Celo Gold to be sent in the proposed transactions."
        }
      },
      "fractionMulExp(uint256,uint256,uint256,uint256,uint256,uint256)": {
        "params": {
          "_decimals": "precision",
          "aDenominator": "Denominator of first fraction",
          "aNumerator": "Numerator of first fraction",
          "bDenominator": "Denominator of exponentiated fraction",
          "bNumerator": "Numerator of exponentiated fraction",
          "exponent": "exponent to raise b to"
        },
        "return": "numerator/denominator of the computed quantity (not reduced)."
      },
      "getApprovalStageDuration()": {
        "return": "The number of seconds proposals stay in approval stage."
      },
      "getDequeue()": {
        "return": "The dequeued proposal IDs."
      },
      "getEpochSize()": {
        "return": "The current epoch size in blocks."
      },
      "getExecutionStageDuration()": {
        "return": "The number of seconds proposals stay in the execution stage."
      },
      "getHotfixRecord(bytes32)": {
        "params": {
          "hash": "The abi encoded keccak256 hash of the hotfix transaction."
        },
        "return": "Hotfix tuple of (approved, executed, preparedEpoch)"
      },
      "getMostRecentReferendumProposal(address)": {
        "params": {
          "account": "The address of the account."
        },
        "return": "The ID of the most recently dequeued proposal voted on by `account`.."
      },
      "getParticipationParameters()": {
        "return": "The participation parameters."
      },
      "getProposal(uint256)": {
        "params": {
          "proposalId": "The ID of the proposal to unpack."
        },
        "return": "The unpacked proposal with its transaction count."
      },
      "getProposalTransaction(uint256,uint256)": {
        "params": {
          "index": "The index of the specified transaction in the proposal's transaction list.",
          "proposalId": "The ID of the proposal to query."
        },
        "return": "The specified transaction."
      },
      "getQueue()": {
        "details": "Note that this includes expired proposals that have yet to be removed from the queue.",
        "return": "The proposal ID and upvote total for all queued proposals."
      },
      "getQueueLength()": {
        "return": "The number of proposals in the queue."
      },
      "getReferendumStageDuration()": {
        "return": "The number of seconds proposals stay in the referendum stage."
      },
      "getUpvoteRecord(address)": {
        "params": {
          "account": "The address of the account."
        },
        "return": "The ID of the proposal upvoted by `account` and the weight of that upvote."
      },
      "getUpvotes(uint256)": {
        "params": {
          "proposalId": "The ID of the proposal."
        },
        "return": "The number of upvotes a queued proposal has received."
      },
      "getVoteRecord(address,uint256)": {
        "params": {
          "account": "The address of the account to get the record for.",
          "index": "The index in `dequeued`."
        },
        "return": "The corresponding proposal ID and vote value."
      },
      "getVoteTotals(uint256)": {
        "params": {
          "proposalId": "The ID of the proposal."
        },
        "return": "The yes, no, and abstain vote totals."
      },
      "initialize(address,address,uint256,uint256,uint256,uint256,uint256,uint256,uint256,uint256,uint256,uint256,uint256)": {
        "details": "Should be called only once.",
        "params": {
          "_approver": "The address that needs to approve proposals to move to the referendum stage.",
          "_concurrentProposals": "The number of proposals to dequeue at once.",
          "_dequeueFrequency": "The number of seconds before the next batch of proposals can be  dequeued.",
          "_minDeposit": "The minimum Celo Gold deposit needed to make a proposal.",
          "_queueExpiry": "The number of seconds a proposal can stay in the queue before expiring.",
          "approvalStageDuration": "The number of seconds the approver has to approve a proposal  after it is dequeued.",
          "baselineQuorumFactor": "The proportion of the baseline that constitutes quorum.",
          "baselineUpdateFactor": "The weight of the new participation in the baseline update rule.",
          "executionStageDuration": "The number of seconds users have to execute a passed proposal  after the referendum stage ends.",
          "participationBaseline": "The initial value of the participation baseline.",
          "participationFloor": "The participation floor.",
          "referendumStageDuration": "The number of seconds users have to vote on a dequeued proposal  after the approval stage ends.",
          "registryAddress": "The address of the registry contract."
        }
      },
      "isApproved(uint256)": {
        "params": {
          "proposalId": "The ID of the proposal."
        },
        "return": "Whether or not the proposal has been approved."
      },
      "isHotfixPassing(bytes32)": {
        "params": {
          "hash": "The abi encoded keccak256 hash of the hotfix transaction."
        },
        "return": "Whether validator whitelist tally >= validator byztanine quorum (2f+1)"
      },
      "isOwner()": {
        "return": "true if `msg.sender` is the owner of the contract."
      },
      "isProposalPassing(uint256)": {
        "params": {
          "proposalId": "The ID of the proposal."
        },
        "return": "Whether or not the proposal is passing."
      },
      "isQueued(uint256)": {
        "params": {
          "proposalId": "The ID of the proposal."
        },
        "return": "Whether or not the proposal is in the queue."
      },
      "isVoting(address)": {
        "params": {
          "account": "The address of the account."
        },
        "return": "Whether or not the account is voting on proposals."
      },
      "numberValidatorsInCurrentSet()": {
        "return": "Size of the current elected validator set."
      },
      "owner()": {
        "return": "the address of the owner."
      },
      "prepareHotfix(bytes32)": {
        "params": {
          "hash": "The hash of the hotfix to be prepared."
        }
      },
      "proposalExists(uint256)": {
        "params": {
          "proposalId": "The ID of the proposal."
        },
        "return": "Whether or not the proposal exists."
      },
      "propose(uint256[],address[],bytes,uint256[])": {
        "details": "The minimum deposit must be included with the proposal, returned if/when the proposal is  dequeued.",
        "params": {
          "data": "The concatenated data to be included in the proposed transactions.",
          "dataLengths": "The lengths of each transaction's data.",
          "destinations": "The destination addresses of the proposed transactions.",
          "values": "The values of Celo Gold to be sent in the proposed transactions."
        },
        "return": "The ID of the newly proposed proposal."
      },
      "renounceOwnership()": {
        "details": "Allows the current owner to relinquish control of the contract. It will not be possible to call the functions with the `onlyOwner` modifier anymore."
      },
      "revokeUpvote(uint256,uint256)": {
        "details": "Provide 0 for `lesser`/`greater` when the proposal will be at the tail/head of the queue.",
        "params": {
          "greater": "The ID of the proposal that will be just ahead of the previously upvoted  proposal in the queue.",
          "lesser": "The ID of the proposal that will be just behind the previously upvoted proposal  in the queue."
        },
        "return": "Whether or not the upvote was revoked successfully."
      },
      "setApprovalStageDuration(uint256)": {
        "params": {
          "approvalStageDuration": "The number of seconds proposals stay in the approval stage."
        }
      },
      "setApprover(address)": {
        "params": {
          "_approver": "The address that has permission to approve proposals in the approval stage."
        }
      },
      "setBaselineQuorumFactor(uint256)": {
        "params": {
          "baselineQuorumFactor": "The new baseline quorum factor."
        }
      },
      "setBaselineUpdateFactor(uint256)": {
        "params": {
          "baselineUpdateFactor": "The new baseline update factor."
        }
      },
      "setConcurrentProposals(uint256)": {
        "params": {
          "_concurrentProposals": "The number of proposals to dequeue at at a time."
        }
      },
      "setConstitution(address,bytes4,uint256)": {
        "details": "If no constitution is explicitly set the default is a simple majority, i.e. 1:2.",
        "params": {
          "destination": "The destination of proposals for which this threshold should apply.",
          "functionId": "The function ID of proposals for which this threshold should apply. Zero  will set the default.",
          "threshold": "The threshold."
        }
      },
      "setDequeueFrequency(uint256)": {
        "params": {
          "_dequeueFrequency": "The number of seconds before the next batch of proposals can be  dequeued."
        }
      },
      "setExecutionStageDuration(uint256)": {
        "params": {
          "executionStageDuration": "The number of seconds proposals stay in the execution stage."
        }
      },
      "setMinDeposit(uint256)": {
        "params": {
          "_minDeposit": "The minimum Celo Gold deposit needed to make a proposal."
        }
      },
      "setParticipationBaseline(uint256)": {
        "params": {
          "participationBaseline": "The value of the baseline."
        }
      },
      "setParticipationFloor(uint256)": {
        "params": {
          "participationFloor": "The value at which the baseline is floored."
        }
      },
      "setQueueExpiry(uint256)": {
        "params": {
          "_queueExpiry": "The number of seconds a proposal can stay in the queue before expiring."
        }
      },
      "setReferendumStageDuration(uint256)": {
        "params": {
          "referendumStageDuration": "The number of seconds proposals stay in the referendum stage."
        }
      },
      "setRegistry(address)": {
        "params": {
          "registryAddress": "The address of a registry contract for routing to other contracts."
        }
      },
      "transferOwnership(address)": {
        "details": "Allows the current owner to transfer control of the contract to a newOwner.",
        "params": {
          "newOwner": "The address to transfer ownership to."
        }
      },
      "upvote(uint256,uint256,uint256)": {
        "details": "Provide 0 for `lesser`/`greater` when the proposal will be at the tail/head of the queue.Reverts if the account has already upvoted a proposal in the queue.",
        "params": {
          "greater": "The ID of the proposal that will be just ahead `proposalId` in the queue.",
          "lesser": "The ID of the proposal that will be just behind `proposalId` in the queue.",
          "proposalId": "The ID of the proposal to upvote."
        },
        "return": "Whether or not the upvote was made successfully."
      },
      "validatorAddressFromCurrentSet(uint256)": {
        "params": {
          "index": "Index of requested validator in the validator set as sorted by the election."
        },
        "return": "Address of validator at the requested index."
      },
      "vote(uint256,uint256,uint8)": {
        "params": {
          "index": "The index of the proposal ID in `dequeued`.",
          "proposalId": "The ID of the proposal to vote on.",
          "value": "Whether to vote yes, no, or abstain."
        },
        "return": "Whether or not the vote was cast successfully."
      },
      "whitelistHotfix(bytes32)": {
        "params": {
          "hash": "The abi encoded keccak256 hash of the hotfix transaction(s) to be whitelisted."
        }
      },
      "withdraw()": {
        "return": "Whether or not the withdraw was successful."
      }
    },
    "title": "A contract for making, passing, and executing on-chain governance proposals."
  },
  "userdoc": {
    "methods": {
      "approve(uint256,uint256)": {
        "notice": "Approves a proposal in the approval stage."
      },
      "approveHotfix(bytes32)": {
        "notice": "Whitelists the hash of a hotfix transaction(s)."
      },
      "byzantineQuorumValidatorsInCurrentSet()": {
        "notice": "Computes byzantine quorum from current validator set size"
      },
      "checkProofOfPossession(address,bytes,bytes)": {
        "notice": "Checks a BLS proof of possession."
      },
      "dequeueProposalsIfReady()": {
        "notice": "Removes the proposals with the most upvotes from the queue, moving them to the  approval stage."
      },
      "execute(uint256,uint256)": {
        "notice": "Executes a proposal in the execution stage, removing it from `dequeued`."
      },
      "executeHotfix(uint256[],address[],bytes,uint256[])": {
        "notice": "Executes a whitelisted proposal."
      },
      "fractionMulExp(uint256,uint256,uint256,uint256,uint256,uint256)": {
        "notice": "calculate a * b^x for fractions a, b to `decimals` precision"
      },
      "getApprovalStageDuration()": {
        "notice": "Returns the number of seconds proposals stay in approval stage."
      },
      "getDequeue()": {
        "notice": "Returns the dequeued proposal IDs."
      },
      "getEpochSize()": {
        "notice": "Returns the current epoch size in blocks."
      },
      "getExecutionStageDuration()": {
        "notice": "Returns the number of seconds proposals stay in the execution stage."
      },
      "getHotfixRecord(bytes32)": {
        "notice": "Gets information about a hotfix."
      },
      "getMostRecentReferendumProposal(address)": {
        "notice": "Returns the ID of the most recently dequeued proposal voted on by `account`."
      },
      "getParticipationParameters()": {
        "notice": "Returns the participation parameters."
      },
      "getProposal(uint256)": {
        "notice": "Returns an unpacked proposal struct with its transaction count."
      },
      "getProposalTransaction(uint256,uint256)": {
        "notice": "Returns a specified transaction in a proposal."
      },
      "getQueue()": {
        "notice": "Returns the proposal ID and upvote total for all queued proposals."
      },
      "getQueueLength()": {
        "notice": "Returns the number of proposals in the queue."
      },
      "getReferendumStageDuration()": {
        "notice": "Returns the number of seconds proposals stay in the referendum stage."
      },
      "getUpvoteRecord(address)": {
        "notice": "Returns the ID of the proposal upvoted by `account` and the weight of that upvote."
      },
      "getUpvotes(uint256)": {
        "notice": "Returns the number of upvotes the queued proposal has received."
      },
      "getVoteRecord(address,uint256)": {
        "notice": "Returns an accounts vote record on a particular index in `dequeued`."
      },
      "getVoteTotals(uint256)": {
        "notice": "Returns the referendum vote totals for a proposal."
      },
      "initialize(address,address,uint256,uint256,uint256,uint256,uint256,uint256,uint256,uint256,uint256,uint256,uint256)": {
        "notice": "Initializes critical variables."
      },
      "isApproved(uint256)": {
        "notice": "Returns whether or not a proposal has been approved."
      },
      "isHotfixPassing(bytes32)": {
        "notice": "Checks if a byzantine quorum of validators has whitelisted the given hotfix."
      },
      "isProposalPassing(uint256)": {
        "notice": "Returns whether or not a particular proposal is passing according to the constitution  and the participation levels."
      },
      "isQueued(uint256)": {
        "notice": "Returns whether or not a proposal is in the queue."
      },
      "isVoting(address)": {
        "notice": "Returns whether or not a particular account is voting on proposals."
      },
      "numberValidatorsInCurrentSet()": {
        "notice": "Gets the size of the current elected validator set."
      },
      "prepareHotfix(bytes32)": {
        "notice": "Gives hotfix a prepared epoch for execution."
      },
      "proposalExists(uint256)": {
        "notice": "Returns whether or not a proposal exists."
      },
      "propose(uint256[],address[],bytes,uint256[])": {
        "notice": "Creates a new proposal and adds it to end of the queue with no upvotes."
      },
      "renounceOwnership()": {
        "notice": "Renouncing ownership will leave the contract without an owner, thereby removing any functionality that is only available to the owner."
      },
      "revokeUpvote(uint256,uint256)": {
        "notice": "Revokes an upvote on a queued proposal."
      },
      "setApprovalStageDuration(uint256)": {
        "notice": "Updates the number of seconds proposals stay in the approval stage."
      },
      "setApprover(address)": {
        "notice": "Updates the address that has permission to approve proposals in the approval stage."
      },
      "setBaselineQuorumFactor(uint256)": {
        "notice": "Updates the proportion of the baseline that constitutes quorum."
      },
      "setBaselineUpdateFactor(uint256)": {
        "notice": "Updates the weight of the new participation in the baseline update rule."
      },
      "setConcurrentProposals(uint256)": {
        "notice": "Updates the number of proposals to dequeue at a time."
      },
      "setConstitution(address,bytes4,uint256)": {
        "notice": "Updates the ratio of yes:yes+no votes needed for a specific class of proposals to pass."
      },
      "setDequeueFrequency(uint256)": {
        "notice": "Updates the minimum number of seconds before the next batch of proposals can be  dequeued."
      },
      "setExecutionStageDuration(uint256)": {
        "notice": "Updates the number of seconds proposals stay in the execution stage."
      },
      "setMinDeposit(uint256)": {
        "notice": "Updates the minimum deposit needed to make a proposal."
      },
      "setParticipationBaseline(uint256)": {
        "notice": "Updates the participation baseline."
      },
      "setParticipationFloor(uint256)": {
        "notice": "Updates the floor of the participation baseline."
      },
      "setQueueExpiry(uint256)": {
        "notice": "Updates the number of seconds before a queued proposal expires."
      },
      "setReferendumStageDuration(uint256)": {
        "notice": "Updates the number of seconds proposals stay in the referendum stage."
      },
      "setRegistry(address)": {
        "notice": "Updates the address pointing to a Registry contract."
      },
      "upvote(uint256,uint256,uint256)": {
        "notice": "Upvotes a queued proposal."
      },
      "validatorAddressFromCurrentSet(uint256)": {
        "notice": "Gets a validator address from the current validator set."
      },
      "vote(uint256,uint256,uint8)": {
        "notice": "Votes on a proposal in the referendum stage."
      },
      "whitelistHotfix(bytes32)": {
        "notice": "Whitelists the hash of a hotfix transaction(s)."
      },
      "withdraw()": {
        "notice": "Withdraws refunded Celo Gold deposits."
      }
    }
  }
}