{
  "contractName": "GovernanceTest",
  "abi": [
    {
      "constant": true,
      "inputs": [],
      "name": "getQueue",
      "outputs": [
        {
          "name": "",
          "type": "uint256[]"
        },
        {
          "name": "",
          "type": "uint256[]"
        }
      ],
      "payable": false,
      "stateMutability": "view",
      "type": "function"
    },
    {
      "constant": false,
      "inputs": [
        {
          "name": "baselineQuorumFactor",
          "type": "uint256"
        }
      ],
      "name": "setBaselineQuorumFactor",
      "outputs": [],
      "payable": false,
      "stateMutability": "nonpayable",
      "type": "function"
    },
    {
      "constant": true,
      "inputs": [
        {
          "name": "hash",
          "type": "bytes32"
        }
      ],
      "name": "getHotfixRecord",
      "outputs": [
        {
          "name": "",
          "type": "bool"
        },
        {
          "name": "",
          "type": "bool"
        },
        {
          "name": "",
          "type": "uint256"
        }
      ],
      "payable": false,
      "stateMutability": "view",
      "type": "function"
    },
    {
      "constant": true,
      "inputs": [],
      "name": "stageDurations",
      "outputs": [
        {
          "name": "approval",
          "type": "uint256"
        },
        {
          "name": "referendum",
          "type": "uint256"
        },
        {
          "name": "execution",
          "type": "uint256"
        }
      ],
      "payable": false,
      "stateMutability": "view",
      "type": "function"
    },
    {
      "constant": true,
      "inputs": [],
      "name": "concurrentProposals",
      "outputs": [
        {
          "name": "",
          "type": "uint256"
        }
      ],
      "payable": false,
      "stateMutability": "view",
      "type": "function"
    },
    {
      "constant": true,
      "inputs": [
        {
          "name": "proposalId",
          "type": "uint256"
        }
      ],
      "name": "proposalExists",
      "outputs": [
        {
          "name": "",
          "type": "bool"
        }
      ],
      "payable": false,
      "stateMutability": "view",
      "type": "function"
    },
    {
      "constant": true,
      "inputs": [],
      "name": "approver",
      "outputs": [
        {
          "name": "",
          "type": "address"
        }
      ],
      "payable": false,
      "stateMutability": "view",
      "type": "function"
    },
    {
      "constant": true,
      "inputs": [],
      "name": "initialized",
      "outputs": [
        {
          "name": "",
          "type": "bool"
        }
      ],
      "payable": false,
      "stateMutability": "view",
      "type": "function"
    },
    {
      "constant": false,
      "inputs": [
        {
          "name": "participationFloor",
          "type": "uint256"
        }
      ],
      "name": "setParticipationFloor",
      "outputs": [],
      "payable": false,
      "stateMutability": "nonpayable",
      "type": "function"
    },
    {
      "constant": false,
      "inputs": [
        {
          "name": "sender",
          "type": "address"
        },
        {
          "name": "blsKey",
          "type": "bytes"
        },
        {
          "name": "blsPop",
          "type": "bytes"
        }
      ],
      "name": "checkProofOfPossession",
      "outputs": [
        {
          "name": "",
          "type": "bool"
        }
      ],
      "payable": false,
      "stateMutability": "nonpayable",
      "type": "function"
    },
    {
      "constant": true,
      "inputs": [
        {
          "name": "proposalId",
          "type": "uint256"
        }
      ],
      "name": "isProposalPassing",
      "outputs": [
        {
          "name": "",
          "type": "bool"
        }
      ],
      "payable": false,
      "stateMutability": "view",
      "type": "function"
    },
    {
      "constant": true,
      "inputs": [
        {
          "name": "account",
          "type": "address"
        }
      ],
      "name": "getMostRecentReferendumProposal",
      "outputs": [
        {
          "name": "",
          "type": "uint256"
        }
      ],
      "payable": false,
      "stateMutability": "view",
      "type": "function"
    },
    {
      "constant": false,
      "inputs": [
        {
          "name": "_queueExpiry",
          "type": "uint256"
        }
      ],
      "name": "setQueueExpiry",
      "outputs": [],
      "payable": false,
      "stateMutability": "nonpayable",
      "type": "function"
    },
    {
      "constant": true,
      "inputs": [],
      "name": "getExecutionStageDuration",
      "outputs": [
        {
          "name": "",
          "type": "uint256"
        }
      ],
      "payable": false,
      "stateMutability": "view",
      "type": "function"
    },
    {
      "constant": false,
      "inputs": [
        {
          "name": "_approver",
          "type": "address"
        }
      ],
      "name": "setApprover",
      "outputs": [],
      "payable": false,
      "stateMutability": "nonpayable",
      "type": "function"
    },
    {
      "constant": true,
      "inputs": [
        {
          "name": "hash",
          "type": "bytes32"
        }
      ],
      "name": "isHotfixPassing",
      "outputs": [
        {
          "name": "",
          "type": "bool"
        }
      ],
      "payable": false,
      "stateMutability": "view",
      "type": "function"
    },
    {
      "constant": false,
      "inputs": [],
      "name": "dequeueProposalsIfReady",
      "outputs": [],
      "payable": false,
      "stateMutability": "nonpayable",
      "type": "function"
    },
    {
      "constant": false,
      "inputs": [],
      "name": "withdraw",
      "outputs": [
        {
          "name": "",
          "type": "bool"
        }
      ],
      "payable": false,
      "stateMutability": "nonpayable",
      "type": "function"
    },
    {
      "constant": false,
      "inputs": [
        {
          "name": "participationBaseline",
          "type": "uint256"
        }
      ],
      "name": "setParticipationBaseline",
      "outputs": [],
      "payable": false,
      "stateMutability": "nonpayable",
      "type": "function"
    },
    {
      "constant": true,
      "inputs": [],
      "name": "minDeposit",
      "outputs": [
        {
          "name": "",
          "type": "uint256"
        }
      ],
      "payable": false,
      "stateMutability": "view",
      "type": "function"
    },
    {
      "constant": true,
      "inputs": [
        {
          "name": "",
          "type": "bytes32"
        }
      ],
      "name": "hotfixes",
      "outputs": [
        {
          "name": "executed",
          "type": "bool"
        },
        {
          "name": "approved",
          "type": "bool"
        },
        {
          "name": "preparedEpoch",
          "type": "uint256"
        }
      ],
      "payable": false,
      "stateMutability": "view",
      "type": "function"
    },
    {
      "constant": false,
      "inputs": [
        {
          "name": "proposalId",
          "type": "uint256"
        },
        {
          "name": "index",
          "type": "uint256"
        }
      ],
      "name": "execute",
      "outputs": [
        {
          "name": "",
          "type": "bool"
        }
      ],
      "payable": false,
      "stateMutability": "nonpayable",
      "type": "function"
    },
    {
      "constant": false,
      "inputs": [
        {
          "name": "proposalId",
          "type": "uint256"
        },
        {
          "name": "lesser",
          "type": "uint256"
        },
        {
          "name": "greater",
          "type": "uint256"
        }
      ],
      "name": "upvote",
      "outputs": [
        {
          "name": "",
          "type": "bool"
        }
      ],
      "payable": false,
      "stateMutability": "nonpayable",
      "type": "function"
    },
    {
      "constant": false,
      "inputs": [
        {
          "name": "baselineUpdateFactor",
          "type": "uint256"
        }
      ],
      "name": "setBaselineUpdateFactor",
      "outputs": [],
      "payable": false,
      "stateMutability": "nonpayable",
      "type": "function"
    },
    {
      "constant": false,
      "inputs": [
        {
          "name": "proposalId",
          "type": "uint256"
        },
        {
          "name": "index",
          "type": "uint256"
        }
      ],
      "name": "approve",
      "outputs": [
        {
          "name": "",
          "type": "bool"
        }
      ],
      "payable": false,
      "stateMutability": "nonpayable",
      "type": "function"
    },
    {
      "constant": true,
      "inputs": [
        {
          "name": "account",
          "type": "address"
        },
        {
          "name": "index",
          "type": "uint256"
        }
      ],
      "name": "getVoteRecord",
      "outputs": [
        {
          "name": "",
          "type": "uint256"
        },
        {
          "name": "",
          "type": "uint256"
        }
      ],
      "payable": false,
      "stateMutability": "view",
      "type": "function"
    },
    {
      "constant": true,
      "inputs": [
        {
          "name": "account",
          "type": "address"
        }
      ],
      "name": "isVoting",
      "outputs": [
        {
          "name": "",
          "type": "bool"
        }
      ],
      "payable": false,
      "stateMutability": "view",
      "type": "function"
    },
    {
      "constant": true,
      "inputs": [
        {
          "name": "",
          "type": "address"
        }
      ],
      "name": "refundedDeposits",
      "outputs": [
        {
          "name": "",
          "type": "uint256"
        }
      ],
      "payable": false,
      "stateMutability": "view",
      "type": "function"
    },
    {
      "constant": false,
      "inputs": [
        {
          "name": "executionStageDuration",
          "type": "uint256"
        }
      ],
      "name": "setExecutionStageDuration",
      "outputs": [],
      "payable": false,
      "stateMutability": "nonpayable",
      "type": "function"
    },
    {
      "constant": false,
      "inputs": [
        {
          "name": "values",
          "type": "uint256[]"
        },
        {
          "name": "destinations",
          "type": "address[]"
        },
        {
          "name": "data",
          "type": "bytes"
        },
        {
          "name": "dataLengths",
          "type": "uint256[]"
        }
      ],
      "name": "propose",
      "outputs": [
        {
          "name": "",
          "type": "uint256"
        }
      ],
      "payable": true,
      "stateMutability": "payable",
      "type": "function"
    },
    {
      "constant": true,
      "inputs": [],
      "name": "getDequeue",
      "outputs": [
        {
          "name": "",
          "type": "uint256[]"
        }
      ],
      "payable": false,
      "stateMutability": "view",
      "type": "function"
    },
    {
      "constant": false,
      "inputs": [],
      "name": "renounceOwnership",
      "outputs": [],
      "payable": false,
      "stateMutability": "nonpayable",
      "type": "function"
    },
    {
      "constant": true,
      "inputs": [],
      "name": "dequeueFrequency",
      "outputs": [
        {
          "name": "",
          "type": "uint256"
        }
      ],
      "payable": false,
      "stateMutability": "view",
      "type": "function"
    },
    {
      "constant": true,
      "inputs": [
        {
          "name": "proposalId",
          "type": "uint256"
        }
      ],
      "name": "isApproved",
      "outputs": [
        {
          "name": "",
          "type": "bool"
        }
      ],
      "payable": false,
      "stateMutability": "view",
      "type": "function"
    },
    {
      "constant": true,
      "inputs": [],
      "name": "registry",
      "outputs": [
        {
          "name": "",
          "type": "address"
        }
      ],
      "payable": false,
      "stateMutability": "view",
      "type": "function"
    },
    {
      "constant": false,
      "inputs": [
        {
          "name": "values",
          "type": "uint256[]"
        },
        {
          "name": "destinations",
          "type": "address[]"
        },
        {
          "name": "data",
          "type": "bytes"
        },
        {
          "name": "dataLengths",
          "type": "uint256[]"
        }
      ],
      "name": "executeHotfix",
      "outputs": [],
      "payable": false,
      "stateMutability": "nonpayable",
      "type": "function"
    },
    {
      "constant": false,
      "inputs": [
        {
          "name": "_dequeueFrequency",
          "type": "uint256"
        }
      ],
      "name": "setDequeueFrequency",
      "outputs": [],
      "payable": false,
      "stateMutability": "nonpayable",
      "type": "function"
    },
    {
      "constant": true,
      "inputs": [],
      "name": "owner",
      "outputs": [
        {
          "name": "",
          "type": "address"
        }
      ],
      "payable": false,
      "stateMutability": "view",
      "type": "function"
    },
    {
      "constant": true,
      "inputs": [],
      "name": "queueExpiry",
      "outputs": [
        {
          "name": "",
          "type": "uint256"
        }
      ],
      "payable": false,
      "stateMutability": "view",
      "type": "function"
    },
    {
      "constant": true,
      "inputs": [],
      "name": "isOwner",
      "outputs": [
        {
          "name": "",
          "type": "bool"
        }
      ],
      "payable": false,
      "stateMutability": "view",
      "type": "function"
    },
    {
      "constant": false,
      "inputs": [
        {
          "name": "_minDeposit",
          "type": "uint256"
        }
      ],
      "name": "setMinDeposit",
      "outputs": [],
      "payable": false,
      "stateMutability": "nonpayable",
      "type": "function"
    },
    {
      "constant": true,
      "inputs": [
        {
          "name": "destination",
          "type": "address"
        },
        {
          "name": "functionId",
          "type": "bytes4"
        }
      ],
      "name": "getConstitution",
      "outputs": [
        {
          "name": "",
          "type": "uint256"
        }
      ],
      "payable": false,
      "stateMutability": "view",
      "type": "function"
    },
    {
      "constant": true,
      "inputs": [
        {
          "name": "proposalId",
          "type": "uint256"
        }
      ],
      "name": "getUpvotes",
      "outputs": [
        {
          "name": "",
          "type": "uint256"
        }
      ],
      "payable": false,
      "stateMutability": "view",
      "type": "function"
    },
    {
      "constant": false,
      "inputs": [
        {
          "name": "approvalStageDuration",
          "type": "uint256"
        }
      ],
      "name": "setApprovalStageDuration",
      "outputs": [],
      "payable": false,
      "stateMutability": "nonpayable",
      "type": "function"
    },
    {
      "constant": true,
      "inputs": [],
      "name": "getEpochNumber",
      "outputs": [
        {
          "name": "",
          "type": "uint256"
        }
      ],
      "payable": false,
      "stateMutability": "view",
      "type": "function"
    },
    {
      "constant": false,
      "inputs": [
        {
          "name": "hash",
          "type": "bytes32"
        }
      ],
      "name": "prepareHotfix",
      "outputs": [],
      "payable": false,
      "stateMutability": "nonpayable",
      "type": "function"
    },
    {
      "constant": false,
      "inputs": [
        {
          "name": "registryAddress",
          "type": "address"
        }
      ],
      "name": "setRegistry",
      "outputs": [],
      "payable": false,
      "stateMutability": "nonpayable",
      "type": "function"
    },
    {
      "constant": true,
      "inputs": [
        {
          "name": "",
          "type": "uint256"
        }
      ],
      "name": "emptyIndices",
      "outputs": [
        {
          "name": "",
          "type": "uint256"
        }
      ],
      "payable": false,
      "stateMutability": "view",
      "type": "function"
    },
    {
      "constant": true,
      "inputs": [],
      "name": "getReferendumStageDuration",
      "outputs": [
        {
          "name": "",
          "type": "uint256"
        }
      ],
      "payable": false,
      "stateMutability": "view",
      "type": "function"
    },
    {
      "constant": true,
      "inputs": [
        {
          "name": "",
          "type": "uint256"
        }
      ],
      "name": "dequeued",
      "outputs": [
        {
          "name": "",
          "type": "uint256"
        }
      ],
      "payable": false,
      "stateMutability": "view",
      "type": "function"
    },
    {
      "constant": false,
      "inputs": [
        {
          "name": "lesser",
          "type": "uint256"
        },
        {
          "name": "greater",
          "type": "uint256"
        }
      ],
      "name": "revokeUpvote",
      "outputs": [
        {
          "name": "",
          "type": "bool"
        }
      ],
      "payable": false,
      "stateMutability": "nonpayable",
      "type": "function"
    },
    {
      "constant": false,
      "inputs": [
        {
          "name": "hash",
          "type": "bytes32"
        }
      ],
      "name": "approveHotfix",
      "outputs": [],
      "payable": false,
      "stateMutability": "nonpayable",
      "type": "function"
    },
    {
      "constant": false,
      "inputs": [
        {
          "name": "hash",
          "type": "bytes32"
        }
      ],
      "name": "whitelistHotfix",
      "outputs": [],
      "payable": false,
      "stateMutability": "nonpayable",
      "type": "function"
    },
    {
      "constant": true,
      "inputs": [],
      "name": "getQueueLength",
      "outputs": [
        {
          "name": "",
          "type": "uint256"
        }
      ],
      "payable": false,
      "stateMutability": "view",
      "type": "function"
    },
    {
      "constant": false,
      "inputs": [
        {
          "name": "proposalId",
          "type": "uint256"
        },
        {
          "name": "index",
          "type": "uint256"
        },
        {
          "name": "value",
          "type": "uint8"
        }
      ],
      "name": "vote",
      "outputs": [
        {
          "name": "",
          "type": "bool"
        }
      ],
      "payable": false,
      "stateMutability": "nonpayable",
      "type": "function"
    },
    {
      "constant": true,
      "inputs": [],
      "name": "lastDequeue",
      "outputs": [
        {
          "name": "",
          "type": "uint256"
        }
      ],
      "payable": false,
      "stateMutability": "view",
      "type": "function"
    },
    {
      "constant": false,
      "inputs": [
        {
          "name": "registryAddress",
          "type": "address"
        },
        {
          "name": "_approver",
          "type": "address"
        },
        {
          "name": "_concurrentProposals",
          "type": "uint256"
        },
        {
          "name": "_minDeposit",
          "type": "uint256"
        },
        {
          "name": "_queueExpiry",
          "type": "uint256"
        },
        {
          "name": "_dequeueFrequency",
          "type": "uint256"
        },
        {
          "name": "approvalStageDuration",
          "type": "uint256"
        },
        {
          "name": "referendumStageDuration",
          "type": "uint256"
        },
        {
          "name": "executionStageDuration",
          "type": "uint256"
        },
        {
          "name": "participationBaseline",
          "type": "uint256"
        },
        {
          "name": "participationFloor",
          "type": "uint256"
        },
        {
          "name": "baselineUpdateFactor",
          "type": "uint256"
        },
        {
          "name": "baselineQuorumFactor",
          "type": "uint256"
        }
      ],
      "name": "initialize",
      "outputs": [],
      "payable": false,
      "stateMutability": "nonpayable",
      "type": "function"
    },
    {
      "constant": true,
      "inputs": [
        {
          "name": "proposalId",
          "type": "uint256"
        }
      ],
      "name": "isQueued",
      "outputs": [
        {
          "name": "",
          "type": "bool"
        }
      ],
      "payable": false,
      "stateMutability": "view",
      "type": "function"
    },
    {
      "constant": true,
      "inputs": [
        {
          "name": "proposalId",
          "type": "uint256"
        }
      ],
      "name": "getProposal",
      "outputs": [
        {
          "name": "",
          "type": "address"
        },
        {
          "name": "",
          "type": "uint256"
        },
        {
          "name": "",
          "type": "uint256"
        },
        {
          "name": "",
          "type": "uint256"
        }
      ],
      "payable": false,
      "stateMutability": "view",
      "type": "function"
    },
    {
      "constant": true,
      "inputs": [],
      "name": "getParticipationParameters",
      "outputs": [
        {
          "name": "",
          "type": "uint256"
        },
        {
          "name": "",
          "type": "uint256"
        },
        {
          "name": "",
          "type": "uint256"
        },
        {
          "name": "",
          "type": "uint256"
        }
      ],
      "payable": false,
      "stateMutability": "view",
      "type": "function"
    },
    {
      "constant": false,
      "inputs": [
        {
          "name": "_concurrentProposals",
          "type": "uint256"
        }
      ],
      "name": "setConcurrentProposals",
      "outputs": [],
      "payable": false,
      "stateMutability": "nonpayable",
      "type": "function"
    },
    {
      "constant": true,
      "inputs": [
        {
          "name": "account",
          "type": "address"
        }
      ],
      "name": "getUpvoteRecord",
      "outputs": [
        {
          "name": "",
          "type": "uint256"
        },
        {
          "name": "",
          "type": "uint256"
        }
      ],
      "payable": false,
      "stateMutability": "view",
      "type": "function"
    },
    {
      "constant": false,
      "inputs": [
        {
          "name": "referendumStageDuration",
          "type": "uint256"
        }
      ],
      "name": "setReferendumStageDuration",
      "outputs": [],
      "payable": false,
      "stateMutability": "nonpayable",
      "type": "function"
    },
    {
      "constant": true,
      "inputs": [
        {
          "name": "proposalId",
          "type": "uint256"
        },
        {
          "name": "index",
          "type": "uint256"
        }
      ],
      "name": "getProposalTransaction",
      "outputs": [
        {
          "name": "",
          "type": "uint256"
        },
        {
          "name": "",
          "type": "address"
        },
        {
          "name": "",
          "type": "bytes"
        }
      ],
      "payable": false,
      "stateMutability": "view",
      "type": "function"
    },
    {
      "constant": true,
      "inputs": [],
      "name": "proposalCount",
      "outputs": [
        {
          "name": "",
          "type": "uint256"
        }
      ],
      "payable": false,
      "stateMutability": "view",
      "type": "function"
    },
    {
      "constant": true,
      "inputs": [],
      "name": "getEpochSize",
      "outputs": [
        {
          "name": "",
          "type": "uint256"
        }
      ],
      "payable": false,
      "stateMutability": "view",
      "type": "function"
    },
    {
      "constant": true,
      "inputs": [
        {
          "name": "proposalId",
          "type": "uint256"
        }
      ],
      "name": "getVoteTotals",
      "outputs": [
        {
          "name": "",
          "type": "uint256"
        },
        {
          "name": "",
          "type": "uint256"
        },
        {
          "name": "",
          "type": "uint256"
        }
      ],
      "payable": false,
      "stateMutability": "view",
      "type": "function"
    },
    {
      "constant": true,
      "inputs": [
        {
          "name": "aNumerator",
          "type": "uint256"
        },
        {
          "name": "aDenominator",
          "type": "uint256"
        },
        {
          "name": "bNumerator",
          "type": "uint256"
        },
        {
          "name": "bDenominator",
          "type": "uint256"
        },
        {
          "name": "exponent",
          "type": "uint256"
        },
        {
          "name": "_decimals",
          "type": "uint256"
        }
      ],
      "name": "fractionMulExp",
      "outputs": [
        {
          "name": "",
          "type": "uint256"
        },
        {
          "name": "",
          "type": "uint256"
        }
      ],
      "payable": false,
      "stateMutability": "view",
      "type": "function"
    },
    {
      "constant": false,
      "inputs": [
        {
          "name": "destination",
          "type": "address"
        },
        {
          "name": "functionId",
          "type": "bytes4"
        },
        {
          "name": "threshold",
          "type": "uint256"
        }
      ],
      "name": "setConstitution",
      "outputs": [],
      "payable": false,
      "stateMutability": "nonpayable",
      "type": "function"
    },
    {
      "constant": true,
      "inputs": [],
      "name": "byzantineQuorumValidatorsInCurrentSet",
      "outputs": [
        {
          "name": "",
          "type": "uint256"
        }
      ],
      "payable": false,
      "stateMutability": "view",
      "type": "function"
    },
    {
      "constant": false,
      "inputs": [
        {
          "name": "newOwner",
          "type": "address"
        }
      ],
      "name": "transferOwnership",
      "outputs": [],
      "payable": false,
      "stateMutability": "nonpayable",
      "type": "function"
    },
    {
      "constant": true,
      "inputs": [],
      "name": "getApprovalStageDuration",
      "outputs": [
        {
          "name": "",
          "type": "uint256"
        }
      ],
      "payable": false,
      "stateMutability": "view",
      "type": "function"
    },
    {
      "payable": true,
      "stateMutability": "payable",
      "type": "fallback"
    },
    {
      "anonymous": false,
      "inputs": [
        {
          "indexed": false,
          "name": "approver",
          "type": "address"
        }
      ],
      "name": "ApproverSet",
      "type": "event"
    },
    {
      "anonymous": false,
      "inputs": [
        {
          "indexed": false,
          "name": "concurrentProposals",
          "type": "uint256"
        }
      ],
      "name": "ConcurrentProposalsSet",
      "type": "event"
    },
    {
      "anonymous": false,
      "inputs": [
        {
          "indexed": false,
          "name": "minDeposit",
          "type": "uint256"
        }
      ],
      "name": "MinDepositSet",
      "type": "event"
    },
    {
      "anonymous": false,
      "inputs": [
        {
          "indexed": false,
          "name": "queueExpiry",
          "type": "uint256"
        }
      ],
      "name": "QueueExpirySet",
      "type": "event"
    },
    {
      "anonymous": false,
      "inputs": [
        {
          "indexed": false,
          "name": "dequeueFrequency",
          "type": "uint256"
        }
      ],
      "name": "DequeueFrequencySet",
      "type": "event"
    },
    {
      "anonymous": false,
      "inputs": [
        {
          "indexed": false,
          "name": "approvalStageDuration",
          "type": "uint256"
        }
      ],
      "name": "ApprovalStageDurationSet",
      "type": "event"
    },
    {
      "anonymous": false,
      "inputs": [
        {
          "indexed": false,
          "name": "referendumStageDuration",
          "type": "uint256"
        }
      ],
      "name": "ReferendumStageDurationSet",
      "type": "event"
    },
    {
      "anonymous": false,
      "inputs": [
        {
          "indexed": false,
          "name": "executionStageDuration",
          "type": "uint256"
        }
      ],
      "name": "ExecutionStageDurationSet",
      "type": "event"
    },
    {
      "anonymous": false,
      "inputs": [
        {
          "indexed": true,
          "name": "destination",
          "type": "address"
        },
        {
          "indexed": true,
          "name": "functionId",
          "type": "bytes4"
        },
        {
          "indexed": false,
          "name": "threshold",
          "type": "uint256"
        }
      ],
      "name": "ConstitutionSet",
      "type": "event"
    },
    {
      "anonymous": false,
      "inputs": [
        {
          "indexed": true,
          "name": "proposalId",
          "type": "uint256"
        },
        {
          "indexed": true,
          "name": "proposer",
          "type": "address"
        },
        {
          "indexed": false,
          "name": "transactionCount",
          "type": "uint256"
        },
        {
          "indexed": false,
          "name": "deposit",
          "type": "uint256"
        },
        {
          "indexed": false,
          "name": "timestamp",
          "type": "uint256"
        }
      ],
      "name": "ProposalQueued",
      "type": "event"
    },
    {
      "anonymous": false,
      "inputs": [
        {
          "indexed": true,
          "name": "proposalId",
          "type": "uint256"
        },
        {
          "indexed": true,
          "name": "account",
          "type": "address"
        },
        {
          "indexed": false,
          "name": "upvotes",
          "type": "uint256"
        }
      ],
      "name": "ProposalUpvoted",
      "type": "event"
    },
    {
      "anonymous": false,
      "inputs": [
        {
          "indexed": true,
          "name": "proposalId",
          "type": "uint256"
        },
        {
          "indexed": true,
          "name": "account",
          "type": "address"
        },
        {
          "indexed": false,
          "name": "revokedUpvotes",
          "type": "uint256"
        }
      ],
      "name": "ProposalUpvoteRevoked",
      "type": "event"
    },
    {
      "anonymous": false,
      "inputs": [
        {
          "indexed": true,
          "name": "proposalId",
          "type": "uint256"
        },
        {
          "indexed": false,
          "name": "timestamp",
          "type": "uint256"
        }
      ],
      "name": "ProposalDequeued",
      "type": "event"
    },
    {
      "anonymous": false,
      "inputs": [
        {
          "indexed": true,
          "name": "proposalId",
          "type": "uint256"
        }
      ],
      "name": "ProposalApproved",
      "type": "event"
    },
    {
      "anonymous": false,
      "inputs": [
        {
          "indexed": true,
          "name": "proposalId",
          "type": "uint256"
        },
        {
          "indexed": true,
          "name": "account",
          "type": "address"
        },
        {
          "indexed": false,
          "name": "value",
          "type": "uint256"
        },
        {
          "indexed": false,
          "name": "weight",
          "type": "uint256"
        }
      ],
      "name": "ProposalVoted",
      "type": "event"
    },
    {
      "anonymous": false,
      "inputs": [
        {
          "indexed": true,
          "name": "proposalId",
          "type": "uint256"
        }
      ],
      "name": "ProposalExecuted",
      "type": "event"
    },
    {
      "anonymous": false,
      "inputs": [
        {
          "indexed": false,
          "name": "proposalId",
          "type": "uint256"
        }
      ],
      "name": "ProposalExpired",
      "type": "event"
    },
    {
      "anonymous": false,
      "inputs": [
        {
          "indexed": false,
          "name": "participationBaseline",
          "type": "uint256"
        }
      ],
      "name": "ParticipationBaselineUpdated",
      "type": "event"
    },
    {
      "anonymous": false,
      "inputs": [
        {
          "indexed": false,
          "name": "participationFloor",
          "type": "uint256"
        }
      ],
      "name": "ParticipationFloorSet",
      "type": "event"
    },
    {
      "anonymous": false,
      "inputs": [
        {
          "indexed": false,
          "name": "baselineUpdateFactor",
          "type": "uint256"
        }
      ],
      "name": "ParticipationBaselineUpdateFactorSet",
      "type": "event"
    },
    {
      "anonymous": false,
      "inputs": [
        {
          "indexed": false,
          "name": "baselineQuorumFactor",
          "type": "uint256"
        }
      ],
      "name": "ParticipationBaselineQuorumFactorSet",
      "type": "event"
    },
    {
      "anonymous": false,
      "inputs": [
        {
          "indexed": true,
          "name": "hash",
          "type": "bytes32"
        },
        {
          "indexed": false,
          "name": "whitelister",
          "type": "address"
        }
      ],
      "name": "HotfixWhitelisted",
      "type": "event"
    },
    {
      "anonymous": false,
      "inputs": [
        {
          "indexed": true,
          "name": "hash",
          "type": "bytes32"
        }
      ],
      "name": "HotfixApproved",
      "type": "event"
    },
    {
      "anonymous": false,
      "inputs": [
        {
          "indexed": true,
          "name": "hash",
          "type": "bytes32"
        },
        {
          "indexed": true,
          "name": "epoch",
          "type": "uint256"
        }
      ],
      "name": "HotfixPrepared",
      "type": "event"
    },
    {
      "anonymous": false,
      "inputs": [
        {
          "indexed": true,
          "name": "hash",
          "type": "bytes32"
        }
      ],
      "name": "HotfixExecuted",
      "type": "event"
    },
    {
      "anonymous": false,
      "inputs": [
        {
          "indexed": true,
          "name": "registryAddress",
          "type": "address"
        }
      ],
      "name": "RegistrySet",
      "type": "event"
    },
    {
      "anonymous": false,
      "inputs": [
        {
          "indexed": true,
          "name": "previousOwner",
          "type": "address"
        },
        {
          "indexed": true,
          "name": "newOwner",
          "type": "address"
        }
      ],
      "name": "OwnershipTransferred",
      "type": "event"
    },
    {
      "constant": true,
      "inputs": [],
      "name": "numberValidatorsInCurrentSet",
      "outputs": [
        {
          "name": "",
          "type": "uint256"
        }
      ],
      "payable": false,
      "stateMutability": "view",
      "type": "function"
    },
    {
      "constant": true,
      "inputs": [
        {
          "name": "index",
          "type": "uint256"
        }
      ],
      "name": "validatorAddressFromCurrentSet",
      "outputs": [
        {
          "name": "",
          "type": "address"
        }
      ],
      "payable": false,
      "stateMutability": "view",
      "type": "function"
    },
    {
      "constant": false,
      "inputs": [
        {
          "name": "validator",
          "type": "address"
        }
      ],
      "name": "addValidator",
      "outputs": [],
      "payable": false,
      "stateMutability": "nonpayable",
      "type": "function"
    }
  ],
  "bytecode": "0x6080604052336000806101000a81548173ffffffffffffffffffffffffffffffffffffffff021916908373ffffffffffffffffffffffffffffffffffffffff1602179055506000809054906101000a900473ffffffffffffffffffffffffffffffffffffffff1673ffffffffffffffffffffffffffffffffffffffff16600073ffffffffffffffffffffffffffffffffffffffff167f8be0079c531659141344cd1fd0a4f28419497f9722a3daafe3b4186f6b6457e060405160405180910390a3600180819055506179f3806100d66000396000f3fe60806040526004361061043c5760003560e01c80637bdd3b2e11610234578063b8f770051161012e578063cea69e74116100b6578063ec6830721161007a578063ec68307214611d91578063ed38527414611e19578063f17fa86314611e9d578063f2fde38b14611ec8578063ffea74c014611f195761043c565b8063cea69e7414611bab578063d704f0c514611be6578063da35c66414611cde578063df4da46114611d09578063e41db45514611d345761043c565b8063c73a6d78116100fd578063c73a6d78146119e1578063c7f758a814611a34578063c805956d14611ac4578063c8d8d2b514611b04578063cd845a7614611b3f5761043c565b8063b8f7700514611841578063bbb2eab91461186c578063c0aee5f4146118d6578063c1939b20146119015761043c565b80639a6c3d83116101bc578063ad78c10911610180578063ad78c109146116f4578063add004df1461171f578063af108a0e1461176e578063b0f99842146117cb578063b15f0f58146118065761043c565b80639a6c3d83146115b35780639a7b3be7146115ee5780639cb02dfc14611619578063a91ee0dc14611654578063aa2feb83146116a55761043c565b80638e905ed6116102035780638e905ed6146114415780638f32d59b1461146c5780638fcc9cfb1461149b57806397b9eba6146114d657806398f42702146115645761043c565b80637bdd3b2e146111ff5780638018556e1461138457806387ee8a0f146113bf5780638da5cb5b146113ea5761043c565b80633ccfd60b116103455780635f115a85116102cd5780636de8a63b116102915780636de8a63b146110a7578063715018a61461111357806377d26a2a1461112a5780637910867b146111555780637b103999146111a85761043c565b80635f115a8514610d9c5780635f8dd64914610e1257806360b4d34d14610e7b5780636643ac5814610ee05780636c3b314b14610f1b5761043c565b80634d238c8e116103145780634d238c8e14610bef5780635601eaea14610c405780635733397814610c9d5780635c75939414610d045780635d35a3d914610d3f5761043c565b80633ccfd60b14610af55780633db9dd9a14610b2457806341b3d18514610b5f57806345a7849914610b8a5761043c565b80631c65bc61116103c85780632c052355116103975780632c052355146109d457806330a095d014610a0f5780633156560e14610a3a578063344944cf14610a8b5780633bb0ed2b14610ade5761043c565b80631c65bc611461074a57806323f0ab6514610785578063276213211461091c578063283aaefb1461096f5761043c565b806311fb9e841161040f57806311fb9e84146105cb5780631201a0fb146106465780631374b22d14610671578063141a8dd8146106c4578063158ef93e1461071b5761043c565b806301fce27e1461043e57806304acaec9146104f25780630e0b78ae1461052d5780630f717e4214610592575b005b34801561044a57600080fd5b50610453611f44565b604051808060200180602001838103835285818151815260200191508051906020019060200280838360005b8381101561049a57808201518184015260208101905061047f565b50505050905001838103825284818151815260200191508051906020019060200280838360005b838110156104dc5780820151818401526020810190506104c1565b5050505090500194505050505060405180910390f35b3480156104fe57600080fd5b5061052b6004803603602081101561051557600080fd5b8101908080359060200190929190505050612081565b005b34801561053957600080fd5b506105666004803603602081101561055057600080fd5b810190808035906020019092919050505061213a565b604051808415151515815260200183151515158152602001828152602001935050505060405180910390f35b34801561059e57600080fd5b506105a76121ab565b60405180848152602001838152602001828152602001935050505060405180910390f35b3480156105d757600080fd5b50610604600480360360208110156105ee57600080fd5b81019080803590602001909291905050506121c3565b604051808273ffffffffffffffffffffffffffffffffffffffff1673ffffffffffffffffffffffffffffffffffffffff16815260200191505060405180910390f35b34801561065257600080fd5b5061065b612204565b6040518082815260200191505060405180910390f35b34801561067d57600080fd5b506106aa6004803603602081101561069457600080fd5b810190808035906020019092919050505061220a565b604051808215151515815260200191505060405180910390f35b3480156106d057600080fd5b506106d961222e565b604051808273ffffffffffffffffffffffffffffffffffffffff1673ffffffffffffffffffffffffffffffffffffffff16815260200191505060405180910390f35b34801561072757600080fd5b50610730612254565b604051808215151515815260200191505060405180910390f35b34801561075657600080fd5b506107836004803603602081101561076d57600080fd5b8101908080359060200190929190505050612267565b005b34801561079157600080fd5b50610902600480360360608110156107a857600080fd5b81019080803573ffffffffffffffffffffffffffffffffffffffff169060200190929190803590602001906401000000008111156107e557600080fd5b8201836020820111156107f757600080fd5b8035906020019184600183028401116401000000008311171561081957600080fd5b91908080601f016020809104026020016040519081016040528093929190818152602001838380828437600081840152601f19601f8201169050808301925050505050505091929192908035906020019064010000000081111561087c57600080fd5b82018360208201111561088e57600080fd5b803590602001918460018302840111640100000000831117156108b057600080fd5b91908080601f016020809104026020016040519081016040528093929190818152602001838380828437600081840152601f19601f820116905080830192505050505050509192919290505050612320565b604051808215151515815260200191505060405180910390f35b34801561092857600080fd5b506109556004803603602081101561093f57600080fd5b81019080803590602001909291905050506124e0565b604051808215151515815260200191505060405180910390f35b34801561097b57600080fd5b506109be6004803603602081101561099257600080fd5b81019080803573ffffffffffffffffffffffffffffffffffffffff169060200190929190505050612504565b6040518082815260200191505060405180910390f35b3480156109e057600080fd5b50610a0d600480360360208110156109f757600080fd5b8101908080359060200190929190505050612550565b005b348015610a1b57600080fd5b50610a246125bd565b6040518082815260200191505060405180910390f35b348015610a4657600080fd5b50610a8960048036036020811015610a5d57600080fd5b81019080803573ffffffffffffffffffffffffffffffffffffffff1690602001909291905050506125ca565b005b348015610a9757600080fd5b50610ac460048036036020811015610aae57600080fd5b8101908080359060200190929190505050612716565b604051808215151515815260200191505060405180910390f35b348015610aea57600080fd5b50610af36127e4565b005b348015610b0157600080fd5b50610b0a612baa565b604051808215151515815260200191505060405180910390f35b348015610b3057600080fd5b50610b5d60048036036020811015610b4757600080fd5b8101908080359060200190929190505050612cda565b005b348015610b6b57600080fd5b50610b74612d93565b6040518082815260200191505060405180910390f35b348015610b9657600080fd5b50610bc360048036036020811015610bad57600080fd5b8101908080359060200190929190505050612d99565b604051808415151515815260200183151515158152602001828152602001935050505060405180910390f35b348015610bfb57600080fd5b50610c3e60048036036020811015610c1257600080fd5b81019080803573ffffffffffffffffffffffffffffffffffffffff169060200190929190505050612ddd565b005b348015610c4c57600080fd5b50610c8360048036036040811015610c6357600080fd5b810190808035906020019092919080359060200190929190505050612e46565b604051808215151515815260200191505060405180910390f35b348015610ca957600080fd5b50610cea60048036036060811015610cc057600080fd5b81019080803590602001909291908035906020019092919080359060200190929190505050612faf565b604051808215151515815260200191505060405180910390f35b348015610d1057600080fd5b50610d3d60048036036020811015610d2757600080fd5b8101908080359060200190929190505050613840565b005b348015610d4b57600080fd5b50610d8260048036036040811015610d6257600080fd5b8101908080359060200190929190803590602001909291905050506138f9565b604051808215151515815260200191505060405180910390f35b348015610da857600080fd5b50610df560048036036040811015610dbf57600080fd5b81019080803573ffffffffffffffffffffffffffffffffffffffff16906020019092919080359060200190929190505050613ae0565b604051808381526020018281526020019250505060405180910390f35b348015610e1e57600080fd5b50610e6160048036036020811015610e3557600080fd5b81019080803573ffffffffffffffffffffffffffffffffffffffff169060200190929190505050613b68565b604051808215151515815260200191505060405180910390f35b348015610e8757600080fd5b50610eca60048036036020811015610e9e57600080fd5b81019080803573ffffffffffffffffffffffffffffffffffffffff169060200190929190505050613c32565b6040518082815260200191505060405180910390f35b348015610eec57600080fd5b50610f1960048036036020811015610f0357600080fd5b8101908080359060200190929190505050613c4a565b005b61109160048036036080811015610f3157600080fd5b8101908080359060200190640100000000811115610f4e57600080fd5b820183602082011115610f6057600080fd5b80359060200191846020830284011164010000000083111715610f8257600080fd5b909192939192939080359060200190640100000000811115610fa357600080fd5b820183602082011115610fb557600080fd5b80359060200191846020830284011164010000000083111715610fd757600080fd5b909192939192939080359060200190640100000000811115610ff857600080fd5b82018360208201111561100a57600080fd5b8035906020019184600183028401116401000000008311171561102c57600080fd5b90919293919293908035906020019064010000000081111561104d57600080fd5b82018360208201111561105f57600080fd5b8035906020019184602083028401116401000000008311171561108157600080fd5b9091929391929390505050613cbd565b6040518082815260200191505060405180910390f35b3480156110b357600080fd5b506110bc613f77565b6040518080602001828103825283818151815260200191508051906020019060200280838360005b838110156110ff5780820151818401526020810190506110e4565b505050509050019250505060405180910390f35b34801561111f57600080fd5b50611128613fcf565b005b34801561113657600080fd5b5061113f61409f565b6040518082815260200191505060405180910390f35b34801561116157600080fd5b5061118e6004803603602081101561117857600080fd5b81019080803590602001909291905050506140a5565b604051808215151515815260200191505060405180910390f35b3480156111b457600080fd5b506111bd6140c9565b604051808273ffffffffffffffffffffffffffffffffffffffff1673ffffffffffffffffffffffffffffffffffffffff16815260200191505060405180910390f35b34801561120b57600080fd5b506113826004803603608081101561122257600080fd5b810190808035906020019064010000000081111561123f57600080fd5b82018360208201111561125157600080fd5b8035906020019184602083028401116401000000008311171561127357600080fd5b90919293919293908035906020019064010000000081111561129457600080fd5b8201836020820111156112a657600080fd5b803590602001918460208302840111640100000000831117156112c857600080fd5b9091929391929390803590602001906401000000008111156112e957600080fd5b8201836020820111156112fb57600080fd5b8035906020019184600183028401116401000000008311171561131d57600080fd5b90919293919293908035906020019064010000000081111561133e57600080fd5b82018360208201111561135057600080fd5b8035906020019184602083028401116401000000008311171561137257600080fd5b90919293919293905050506140ef565b005b34801561139057600080fd5b506113bd600480360360208110156113a757600080fd5b81019080803590602001909291905050506144cd565b005b3480156113cb57600080fd5b506113d461453a565b6040518082815260200191505060405180910390f35b3480156113f657600080fd5b506113ff614547565b604051808273ffffffffffffffffffffffffffffffffffffffff1673ffffffffffffffffffffffffffffffffffffffff16815260200191505060405180910390f35b34801561144d57600080fd5b50611456614570565b6040518082815260200191505060405180910390f35b34801561147857600080fd5b50611481614576565b604051808215151515815260200191505060405180910390f35b3480156114a757600080fd5b506114d4600480360360208110156114be57600080fd5b81019080803590602001909291905050506145cd565b005b3480156114e257600080fd5b5061154e600480360360408110156114f957600080fd5b81019080803573ffffffffffffffffffffffffffffffffffffffff16906020019092919080357bffffffffffffffffffffffffffffffffffffffffffffffffffffffff1916906020019092919050505061462e565b6040518082815260200191505060405180910390f35b34801561157057600080fd5b5061159d6004803603602081101561158757600080fd5b810190808035906020019092919050505061464a565b6040518082815260200191505060405180910390f35b3480156115bf57600080fd5b506115ec600480360360208110156115d657600080fd5b81019080803590602001909291905050506146fa565b005b3480156115fa57600080fd5b5061160361476d565b6040518082815260200191505060405180910390f35b34801561162557600080fd5b506116526004803603602081101561163c57600080fd5b81019080803590602001909291905050506147a9565b005b34801561166057600080fd5b506116a36004803603602081101561167757600080fd5b81019080803573ffffffffffffffffffffffffffffffffffffffff1690602001909291905050506148ce565b005b3480156116b157600080fd5b506116de600480360360208110156116c857600080fd5b8101908080359060200190929190505050614966565b6040518082815260200191505060405180910390f35b34801561170057600080fd5b50611709614987565b6040518082815260200191505060405180910390f35b34801561172b57600080fd5b506117586004803603602081101561174257600080fd5b8101908080359060200190929190505050614994565b6040518082815260200191505060405180910390f35b34801561177a57600080fd5b506117b16004803603604081101561179157600080fd5b8101908080359060200190929190803590602001909291905050506149b5565b604051808215151515815260200191505060405180910390f35b3480156117d757600080fd5b50611804600480360360208110156117ee57600080fd5b8101908080359060200190929190505050614e56565b005b34801561181257600080fd5b5061183f6004803603602081101561182957600080fd5b8101908080359060200190929190505050614f0f565b005b34801561184d57600080fd5b50611856614fe2565b6040518082815260200191505060405180910390f35b34801561187857600080fd5b506118bc6004803603606081101561188f57600080fd5b810190808035906020019092919080359060200190929190803560ff169060200190929190505050614ff2565b604051808215151515815260200191505060405180910390f35b3480156118e257600080fd5b506118eb615536565b6040518082815260200191505060405180910390f35b34801561190d57600080fd5b506119df60048036036101a081101561192557600080fd5b81019080803573ffffffffffffffffffffffffffffffffffffffff169060200190929190803573ffffffffffffffffffffffffffffffffffffffff169060200190929190803590602001909291908035906020019092919080359060200190929190803590602001909291908035906020019092919080359060200190929190803590602001909291908035906020019092919080359060200190929190803590602001909291908035906020019092919050505061553c565b005b3480156119ed57600080fd5b50611a1a60048036036020811015611a0457600080fd5b81019080803590602001909291905050506156cd565b604051808215151515815260200191505060405180910390f35b348015611a4057600080fd5b50611a6d60048036036020811015611a5757600080fd5b81019080803590602001909291905050506157a0565b604051808573ffffffffffffffffffffffffffffffffffffffff1673ffffffffffffffffffffffffffffffffffffffff16815260200184815260200183815260200182815260200194505050505060405180910390f35b348015611ad057600080fd5b50611ad96157d0565b6040518085815260200184815260200183815260200182815260200194505050505060405180910390f35b348015611b1057600080fd5b50611b3d60048036036020811015611b2757600080fd5b810190808035906020019092919050505061586c565b005b348015611b4b57600080fd5b50611b8e60048036036020811015611b6257600080fd5b81019080803573ffffffffffffffffffffffffffffffffffffffff1690602001909291905050506158d9565b604051808381526020018281526020019250505060405180910390f35b348015611bb757600080fd5b50611be460048036036020811015611bce57600080fd5b810190808035906020019092919050505061595b565b005b348015611bf257600080fd5b50611c2960048036036040811015611c0957600080fd5b8101908080359060200190929190803590602001909291905050506159ce565b604051808481526020018373ffffffffffffffffffffffffffffffffffffffff1673ffffffffffffffffffffffffffffffffffffffff16815260200180602001828103825283818151815260200191508051906020019080838360005b83811015611ca1578082015181840152602081019050611c86565b50505050905090810190601f168015611cce5780820380516001836020036101000a031916815260200191505b5094505050505060405180910390f35b348015611cea57600080fd5b50611cf3615af0565b6040518082815260200191505060405180910390f35b348015611d1557600080fd5b50611d1e615af6565b6040518082815260200191505060405180910390f35b348015611d4057600080fd5b50611d6d60048036036020811015611d5757600080fd5b8101908080359060200190929190505050615b21565b60405180848152602001838152602001828152602001935050505060405180910390f35b348015611d9d57600080fd5b50611dfc600480360360c0811015611db457600080fd5b81019080803590602001909291908035906020019092919080359060200190929190803590602001909291908035906020019092919080359060200190929190505050615b4e565b604051808381526020018281526020019250505060405180910390f35b348015611e2557600080fd5b50611e9b60048036036060811015611e3c57600080fd5b81019080803573ffffffffffffffffffffffffffffffffffffffff16906020019092919080357bffffffffffffffffffffffffffffffffffffffffffffffffffffffff1916906020019092919080359060200190929190505050615be9565b005b348015611ea957600080fd5b50611eb2615e08565b6040518082815260200191505060405180910390f35b348015611ed457600080fd5b50611f1760048036036020811015611eeb57600080fd5b81019080803573ffffffffffffffffffffffffffffffffffffffff169060200190929190505050615e50565b005b348015611f2557600080fd5b50611f2e615e6d565b6040518082815260200191505060405180910390f35b606080601273__IntegerSortedLinkedList_______________6369b317e390916040518263ffffffff1660e01b81526004018082815260200191505060006040518083038186803b158015611f9957600080fd5b505af4158015611fad573d6000803e3d6000fd5b505050506040513d6000823e3d601f19601f820116820180604052506040811015611fd757600080fd5b810190808051640100000000811115611fef57600080fd5b8281019050602081018481111561200557600080fd5b815185602082028301116401000000008211171561202257600080fd5b5050929190602001805164010000000081111561203e57600080fd5b8281019050602081018481111561205457600080fd5b815185602082028301116401000000008211171561207157600080fd5b5050929190505050915091509091565b612089614576565b61209257600080fd5b61209a6176e0565b6120a382615e7a565b90506120ae81615e98565b80156120e357506120e1601960030160405180602001604052908160008201548152505082615eb290919063ffffffff16565b155b6120ec57600080fd5b806019600301600082015181600001559050507fddfdbe55eaaa70fe2b8bc82a9b0734c25cabe7cb6f1457f9644019f0b5ff91fc826040518082815260200191505060405180910390a15050565b60008060006011600085815260200190815260200160002060000160019054906101000a900460ff166011600086815260200190815260200160002060000160009054906101000a900460ff1660116000878152602001908152602001600020600101549250925092509193909250565b60038060000154908060010154908060020154905083565b6000601d82815481106121d257fe5b9060005260206000200160009054906101000a900473ffffffffffffffffffffffffffffffffffffffff169050919050565b600a5481565b6000612227600f6000848152602001908152602001600020615ec7565b9050919050565b600860009054906101000a900473ffffffffffffffffffffffffffffffffffffffff1681565b600060149054906101000a900460ff1681565b61226f614576565b61227857600080fd5b6122806176e0565b61228982615e7a565b905061229481615e98565b80156122c957506122c7601960010160405180602001604052908160008201548152505082615eb290919063ffffffff16565b155b6122d257600080fd5b806019600101600082015181600001559050507f122a37b609e0f758b6a23c43506cb567017a4d18b21fa91312fb42b44975a5b5826040518082815260200191505060405180910390a15050565b60008060fb73ffffffffffffffffffffffffffffffffffffffff1660005a90878787604051602001808473ffffffffffffffffffffffffffffffffffffffff1673ffffffffffffffffffffffffffffffffffffffff1660601b815260140183805190602001908083835b602083106123ad578051825260208201915060208101905060208303925061238a565b6001836020036101000a03801982511681845116808217855250505050505090500182805190602001908083835b602083106123fe57805182526020820191506020810190506020830392506123db565b6001836020036101000a03801982511681845116808217855250505050505090500193505050506040516020818303038152906040526040518082805190602001908083835b602083106124675780518252602082019150602081019050602083039250612444565b6001836020036101000a038019825116818451168082178552505050505050905001915050600060405180830381858888f193505050503d80600081146124ca576040519150601f19603f3d011682016040523d82523d6000602084013e6124cf565b606091505b505080915050809150509392505050565b60006124fd600f6000848152602001908152602001600020615ed7565b9050919050565b6000601060008373ffffffffffffffffffffffffffffffffffffffff1673ffffffffffffffffffffffffffffffffffffffff168152602001908152602001600020600201549050919050565b612558614576565b61256157600080fd5b60008111801561257357506006548114155b61257c57600080fd5b806006819055507f4ecbf0bb0701615e2d6f9b0a0996056c959fe359ce76aa7ce06c5f1d57dae4d7816040518082815260200191505060405180910390a150565b6000600360020154905090565b6125d2614576565b6125db57600080fd5b600073ffffffffffffffffffffffffffffffffffffffff168173ffffffffffffffffffffffffffffffffffffffff16141580156126665750600860009054906101000a900473ffffffffffffffffffffffffffffffffffffffff1673ffffffffffffffffffffffffffffffffffffffff168173ffffffffffffffffffffffffffffffffffffffff1614155b61266f57600080fd5b80600860006101000a81548173ffffffffffffffffffffffffffffffffffffffff021916908373ffffffffffffffffffffffffffffffffffffffff1602179055507fa03757d836cb0b61c0fbba2147f5d51d6071ff3dd5bf6963beb55563d64878e181604051808273ffffffffffffffffffffffffffffffffffffffff1673ffffffffffffffffffffffffffffffffffffffff16815260200191505060405180910390a150565b60008060009050600061272761453a565b905060008090505b818110156127cf576000612742826121c3565b90506011600087815260200190815260200160002060020160008273ffffffffffffffffffffffffffffffffffffffff1673ffffffffffffffffffffffffffffffffffffffff16815260200190815260200160002060009054906101000a900460ff16156127c1576127be6001856160b690919063ffffffff16565b93505b50808060010191505061272f565b506127d8615e08565b82101592505050919050565b6127fb6007546009546160b690919063ffffffff16565b4210612ba8576000612817600a546012600001600201546160d5565b90506060601273__IntegerSortedLinkedList_______________6377b024799091846040518363ffffffff1660e01b8152600401808381526020018281526020019250505060006040518083038186803b15801561287557600080fd5b505af4158015612889573d6000803e3d6000fd5b505050506040513d6000823e3d601f19601f8201168201806040525060208110156128b357600080fd5b8101908080516401000000008111156128cb57600080fd5b828101905060208101848111156128e157600080fd5b81518560208202830111640100000000821117156128fe57600080fd5b5050929190505050905060008090505b82811015612b9d57600082828151811061292457fe5b602002602001015190506000600f6000838152602001908152602001600020905061295e60065482600201546160b690919063ffffffff16565b42106129a2577f88e53c486703527139dfc8d97a1e559d9bd93d3f9d52cda4e06564111e7a2643826040518082815260200191505060405180910390a15050612b82565b612a1c8160010154600d60008460000160009054906101000a900473ffffffffffffffffffffffffffffffffffffffff1673ffffffffffffffffffffffffffffffffffffffff1673ffffffffffffffffffffffffffffffffffffffff168152602001908152602001600020546160b690919063ffffffff16565b600d60008360000160009054906101000a900473ffffffffffffffffffffffffffffffffffffffff1673ffffffffffffffffffffffffffffffffffffffff1673ffffffffffffffffffffffffffffffffffffffff1681526020019081526020016000208190555042816002018190555060006018805490501115612b1a576000612ab560016018805490506160ee90919063ffffffff16565b905082601760188381548110612ac757fe5b906000526020600020015481548110612adc57fe5b906000526020600020018190555060188181548110612af757fe5b906000526020600020016000905580601881612b1391906176f3565b5050612b47565b60178290806001815401808255809150509060018203906000526020600020016000909192909190915055505b817f3e069fb74dcf5fbc07740b0d40d7f7fc48e9c0ca5dc3d19eb34d2e05d74c5543426040518082815260200191505060405180910390a250505b612b966001826160b690919063ffffffff16565b905061290e565b504260098190555050505b565b600060018060008282540192505081905550600060015490506000600d60003373ffffffffffffffffffffffffffffffffffffffff1673ffffffffffffffffffffffffffffffffffffffff168152602001908152602001600020549050600081118015612c2e57503073ffffffffffffffffffffffffffffffffffffffff16318111155b612c3757600080fd5b6000600d60003373ffffffffffffffffffffffffffffffffffffffff1673ffffffffffffffffffffffffffffffffffffffff168152602001908152602001600020819055503373ffffffffffffffffffffffffffffffffffffffff166108fc829081150290604051600060405180830381858888f19350505050158015612cc2573d6000803e3d6000fd5b5060019250506001548114612cd657600080fd5b5090565b612ce2614576565b612ceb57600080fd5b612cf36176e0565b612cfc82615e7a565b9050612d0781615e98565b8015612d3c5750612d3a601960000160405180602001604052908160008201548152505082615eb290919063ffffffff16565b155b612d4557600080fd5b806019600001600082015181600001559050507f51131d2820f04a6b6edd20e22a07d5bf847e265a3906e85256fca7d6043417c5826040518082815260200191505060405180910390a15050565b600c5481565b60116020528060005260406000206000915090508060000160009054906101000a900460ff16908060000160019054906101000a900460ff16908060010154905083565b601d8190806001815401808255809150509060018203906000526020600020016000909192909190916101000a81548173ffffffffffffffffffffffffffffffffffffffff021916908373ffffffffffffffffffffffffffffffffffffffff1602179055505050565b60006001806000828254019250508190555060006001549050612e676127e4565b6000600f60008681526020019081526020016000209050612e8981868661610e565b612e9257600080fd5b6000612ea860038361614490919063ffffffff16565b90506000612eb68383616201565b905080612f885760046005811115612eca57fe5b826005811115612ed657fe5b148015612ee85750612ee783615ed7565b5b612ef157600080fd5b8273__Proposals_____________________________63c67e7b4b90916040518263ffffffff1660e01b81526004018082815260200191505060006040518083038186803b158015612f4257600080fd5b505af4158015612f56573d6000803e3d6000fd5b50505050867f712ae1383f79ac853f8d882153778e0260ef8f03b504e2866e0593e04d2b291f60405160405180910390a25b612f9383888861628b565b801594505050506001548114612fa857600080fd5b5092915050565b600060018060008282540192505081905550600060015490506000612fd2616399565b73ffffffffffffffffffffffffffffffffffffffff16636642d594336040518263ffffffff1660e01b8152600401808273ffffffffffffffffffffffffffffffffffffffff1673ffffffffffffffffffffffffffffffffffffffff16815260200191505060206040518083038186803b15801561304e57600080fd5b505afa158015613062573d6000803e3d6000fd5b505050506040513d602081101561307857600080fd5b810190808051906020019092919050505090506130936127e4565b601273__IntegerSortedLinkedList_______________63bfc516389091886040518363ffffffff1660e01b8152600401808381526020018281526020019250505060206040518083038186803b1580156130ed57600080fd5b505af4158015613101573d6000803e3d6000fd5b505050506040513d602081101561311757600080fd5b8101908080519060200190929190505050801561315e575061315a600654600f6000898152602001908152602001600020600201546160b690919063ffffffff16565b4210155b1561321657601273__IntegerSortedLinkedList_______________63eed5f7be9091886040518363ffffffff1660e01b8152600401808381526020018281526020019250505060006040518083038186803b1580156131bd57600080fd5b505af41580156131d1573d6000803e3d6000fd5b505050507f88e53c486703527139dfc8d97a1e559d9bd93d3f9d52cda4e06564111e7a2643866040518082815260200191505060405180910390a1600092505061382a565b6000601060008373ffffffffffffffffffffffffffffffffffffffff1673ffffffffffffffffffffffffffffffffffffffff1681526020019081526020016000209050601273__IntegerSortedLinkedList_______________63bfc51638909183600001600001546040518363ffffffff1660e01b8152600401808381526020018281526020019250505060206040518083038186803b1580156132ba57600080fd5b505af41580156132ce573d6000803e3d6000fd5b505050506040513d60208110156132e457600080fd5b81019080805190602001909291905050508015613332575061332e600654600f600084600001600001548152602001908152602001600020600201546160b690919063ffffffff16565b4210155b156133ef57601273__IntegerSortedLinkedList_______________63eed5f7be909183600001600001546040518363ffffffff1660e01b8152600401808381526020018281526020019250505060006040518083038186803b15801561339857600080fd5b505af41580156133ac573d6000803e3d6000fd5b505050507f88e53c486703527139dfc8d97a1e559d9bd93d3f9d52cda4e06564111e7a264381600001600001546040518082815260200191505060405180910390a15b60006133f9616494565b73ffffffffffffffffffffffffffffffffffffffff166330ec70f5846040518263ffffffff1660e01b8152600401808273ffffffffffffffffffffffffffffffffffffffff1673ffffffffffffffffffffffffffffffffffffffff16815260200191505060206040518083038186803b15801561347557600080fd5b505afa158015613489573d6000803e3d6000fd5b505050506040513d602081101561349f57600080fd5b810190808051906020019092919050505090506000811161350b576040517f08c379a00000000000000000000000000000000000000000000000000000000081526004018080602001828103825260228152602001806179556022913960400191505060405180910390fd5b613514886156cd565b613569576040517f08c379a00000000000000000000000000000000000000000000000000000000081526004018080602001828103825260298152602001806179036029913960400191505060405180910390fd5b6000826000016000015414806136185750601273__IntegerSortedLinkedList_______________63bfc51638909184600001600001546040518363ffffffff1660e01b8152600401808381526020018281526020019250505060206040518083038186803b1580156135db57600080fd5b505af41580156135ef573d6000803e3d6000fd5b505050506040513d602081101561360557600080fd5b8101908080519060200190929190505050155b61366d576040517f08c379a000000000000000000000000000000000000000000000000000000000815260040180806020018281038252602b81526020018061799d602b913960400191505060405180910390fd5b600061371682601273__IntegerSortedLinkedList_______________637577759990918d6040518363ffffffff1660e01b8152600401808381526020018281526020019250505060206040518083038186803b1580156136cd57600080fd5b505af41580156136e1573d6000803e3d6000fd5b505050506040513d60208110156136f757600080fd5b81019080805190602001909291905050506160b690919063ffffffff16565b9050601273__IntegerSortedLinkedList_______________63239491ba90918b848c8c6040518663ffffffff1660e01b8152600401808681526020018581526020018481526020018381526020018281526020019550505050505060006040518083038186803b15801561378a57600080fd5b505af415801561379e573d6000803e3d6000fd5b5050505060405180604001604052808a8152602001838152508360000160008201518160000155602082015181600101559050508373ffffffffffffffffffffffffffffffffffffffff16897fd19965d25ef670a1e322fbf05475924b7b12d81fd6b96ab718b261782efb3d62846040518082815260200191505060405180910390a360019550505050505b600154811461383857600080fd5b509392505050565b613848614576565b61385157600080fd5b6138596176e0565b61386282615e7a565b905061386d81615e98565b80156138a257506138a0601960020160405180602001604052908160008201548152505082615eb290919063ffffffff16565b155b6138ab57600080fd5b806019600201600082015181600001559050507f8dedb4d995dd500718c7c5f6a077fba6153a7ee063da961d9fcab90ff528ac1f826040518082815260200191505060405180910390a15050565b60006139036127e4565b6000600f6000858152602001908152602001600020905061392581858561610e565b61392e57600080fd5b600061394460038361614490919063ffffffff16565b90506139508282616201565b1561396b5761396082868661628b565b600092505050613ada565b600860009054906101000a900473ffffffffffffffffffffffffffffffffffffffff1673ffffffffffffffffffffffffffffffffffffffff163373ffffffffffffffffffffffffffffffffffffffff161480156139ce57506139cc8261658f565b155b80156139f05750600260058111156139e257fe5b8160058111156139ee57fe5b145b6139f957600080fd5b60018260070160006101000a81548160ff021916908315150217905550613a1e616494565b73ffffffffffffffffffffffffffffffffffffffff166330a61d596040518163ffffffff1660e01b815260040160206040518083038186803b158015613a6357600080fd5b505afa158015613a77573d6000803e3d6000fd5b505050506040513d6020811015613a8d57600080fd5b81019080805190602001909291905050508260080181905550847f28ec9e38ba73636ceb2f6c1574136f83bd46284a3c74734b711bf45e12f8d92960405160405180910390a26001925050505b92915050565b6000806000601060008673ffffffffffffffffffffffffffffffffffffffff1673ffffffffffffffffffffffffffffffffffffffff1681526020019081526020016000206003016000858152602001908152602001600020905080600101548160000160009054906101000a900460ff166003811115613b5c57fe5b92509250509250929050565b600080601060008473ffffffffffffffffffffffffffffffffffffffff1673ffffffffffffffffffffffffffffffffffffffff16815260200190815260200160002090506000816000016000015490506000808214158015613bcf5750613bce826156cd565b5b90506000600f6000856002015481526020019081526020016000209050600060036005811115613bfb57fe5b613c0f60038461614490919063ffffffff16565b6005811115613c1a57fe5b1490508280613c265750805b95505050505050919050565b600d6020528060005260406000206000915090505481565b613c52614576565b613c5b57600080fd5b600081118015613c7057506003600201548114155b613c7957600080fd5b806003600201819055507f7819c8059302d1d66abc7fe228ecc02214e0bc5c529956c13717aabefce937d8816040518082815260200191505060405180910390a150565b6000613cc76127e4565b600c54341015613cd657600080fd5b613cec6001600b546160b690919063ffffffff16565b600b819055506000600f6000600b54815260200190815260200160002090508073__Proposals_____________________________633053123f90918c8c8c8c8c8c8c8c33346040518c63ffffffff1660e01b8152600401808c8152602001806020018060200180602001806020018773ffffffffffffffffffffffffffffffffffffffff1673ffffffffffffffffffffffffffffffffffffffff16815260200186815260200185810385528f8f82818152602001925060200280828437600081840152601f19601f82011690508083019250505085810384528d8d82818152602001925060200280828437600081840152601f19601f82011690508083019250505085810383528b8b82818152602001925080828437600081840152601f19601f8201169050808301925050508581038252898982818152602001925060200280828437600081840152601f19601f8201169050808301925050509f5050505050505050505050505050505060006040518083038186803b158015613e7157600080fd5b505af4158015613e85573d6000803e3d6000fd5b50505050601273__IntegerSortedLinkedList_______________63d7a8acc19091600b546040518363ffffffff1660e01b8152600401808381526020018281526020019250505060006040518083038186803b158015613ee557600080fd5b505af4158015613ef9573d6000803e3d6000fd5b505050503373ffffffffffffffffffffffffffffffffffffffff16600b547f1bfe527f3548d9258c2512b6689f0acfccdd0557d80a53845db25fc57e93d8fe8360060180549050344260405180848152602001838152602001828152602001935050505060405180910390a3600b5491505098975050505050505050565b60606017805480602002602001604051908101604052809291908181526020018280548015613fc557602002820191906000526020600020905b815481526020019060010190808311613fb1575b5050505050905090565b613fd7614576565b613fe057600080fd5b600073ffffffffffffffffffffffffffffffffffffffff166000809054906101000a900473ffffffffffffffffffffffffffffffffffffffff1673ffffffffffffffffffffffffffffffffffffffff167f8be0079c531659141344cd1fd0a4f28419497f9722a3daafe3b4186f6b6457e060405160405180910390a360008060006101000a81548173ffffffffffffffffffffffffffffffffffffffff021916908373ffffffffffffffffffffffffffffffffffffffff160217905550565b60075481565b60006140c2600f600084815260200190815260200160002061658f565b9050919050565b600260009054906101000a900473ffffffffffffffffffffffffffffffffffffffff1681565b60008888888888888888604051602001808060200180602001806020018060200185810385528d8d82818152602001925060200280828437600081840152601f19601f82011690508083019250505085810384528b8b82818152602001925060200280828437600081840152601f19601f8201169050808301925050508581038352898982818152602001925080828437600081840152601f19601f8201169050808301925050508581038252878782818152602001925060200280828437600081840152601f19601f8201169050808301925050509c5050505050505050505050505060405160208183030381529060405280519060200120905060008060006141f98461213a565b9250925092508115614273576040517f08c379a00000000000000000000000000000000000000000000000000000000081526004018080602001828103825260178152602001807f686f7466697820616c726561647920657865637574656400000000000000000081525060200191505060405180910390fd5b826142e6576040517f08c379a00000000000000000000000000000000000000000000000000000000081526004018080602001828103825260138152602001807f686f74666978206e6f7420617070726f7665640000000000000000000000000081525060200191505060405180910390fd5b6142ee61476d565b8114614345576040517f08c379a00000000000000000000000000000000000000000000000000000000081526004018080602001828103825260268152602001806178dd6026913960400191505060405180910390fd5b61446361445e8d8d80806020026020016040519081016040528093929190818152602001838360200280828437600081840152601f19601f820116905080830192505050505050508c8c80806020026020016040519081016040528093929190818152602001838360200280828437600081840152601f19601f820116905080830192505050505050508b8b8080601f016020809104026020016040519081016040528093929190818152602001838380828437600081840152601f19601f820116905080830192505050505050508a8a80806020026020016040519081016040528093929190818152602001838360200280828437600081840152601f19601f820116905080830192505050505050503360006165aa565b61676a565b60016011600086815260200190815260200160002060000160006101000a81548160ff021916908315150217905550837f708a7934acb657a77a617b1fcd5f6d7d9ad592b72934841bff01acefd10f9b6360405160405180910390a2505050505050505050505050565b6144d5614576565b6144de57600080fd5b6000811180156144f057506007548114155b6144f957600080fd5b806007819055507f391e82aae76c653cd640ad1b6028e2ee39ca4f29b30152e3d0a9ddd7e1169c34816040518082815260200191505060405180910390a150565b6000601d80549050905090565b60008060009054906101000a900473ffffffffffffffffffffffffffffffffffffffff16905090565b60065481565b60008060009054906101000a900473ffffffffffffffffffffffffffffffffffffffff1673ffffffffffffffffffffffffffffffffffffffff163373ffffffffffffffffffffffffffffffffffffffff1614905090565b6145d5614576565b6145de57600080fd5b600c548114156145ed57600080fd5b80600c819055507fc50a7f0bdf88c216b2541b0bdea26f22305460e39ffc672ec1a7501732c5ba81816040518082815260200191505060405180910390a150565b600061464261463d848461677a565b6169cc565b905092915050565b6000614655826156cd565b61465e57600080fd5b601273__IntegerSortedLinkedList_______________63757775999091846040518363ffffffff1660e01b8152600401808381526020018281526020019250505060206040518083038186803b1580156146b857600080fd5b505af41580156146cc573d6000803e3d6000fd5b505050506040513d60208110156146e257600080fd5b81019080805190602001909291905050509050919050565b614702614576565b61470b57600080fd5b60008111801561472057506003600001548114155b61472957600080fd5b806003600001819055507fbc44c003a66b841b48c220869efb738b265af305649ac8bafe8efe0c8130e313816040518082815260200191505060405180910390a150565b600080614778615af6565b9050600081438161478557fe5b049050600082438161479357fe5b0614156147a1576001810390505b809250505090565b6147b281612716565b614807576040517f08c379a000000000000000000000000000000000000000000000000000000000815260040180806020018281038252602981526020018061792c6029913960400191505060405180910390fd5b600061481161476d565b905080601160008481526020019081526020016000206001015410614881576040517f08c379a00000000000000000000000000000000000000000000000000000000081526004018080602001828103825260268152602001806179776026913960400191505060405180910390fd5b80601160008481526020019081526020016000206001018190555080827f6f184ec313435b3307a4fe59e2293381f08419a87214464c875a2a247e8af5e060405160405180910390a35050565b6148d6614576565b6148df57600080fd5b80600260006101000a81548173ffffffffffffffffffffffffffffffffffffffff021916908373ffffffffffffffffffffffffffffffffffffffff1602179055508073ffffffffffffffffffffffffffffffffffffffff167f27fe5f0c1c3b1ed427cc63d0f05759ffdecf9aec9e18d31ef366fc8a6cb5dc3b60405160405180910390a250565b6018818154811061497357fe5b906000526020600020016000915090505481565b6000600360010154905090565b601781815481106149a157fe5b906000526020600020016000915090505481565b600060018060008282540192505081905550600060015490506149d66127e4565b60006149e0616399565b73ffffffffffffffffffffffffffffffffffffffff16636642d594336040518263ffffffff1660e01b8152600401808273ffffffffffffffffffffffffffffffffffffffff1673ffffffffffffffffffffffffffffffffffffffff16815260200191505060206040518083038186803b158015614a5c57600080fd5b505afa158015614a70573d6000803e3d6000fd5b505050506040513d6020811015614a8657600080fd5b810190808051906020019092919050505090506000601060008373ffffffffffffffffffffffffffffffffffffffff1673ffffffffffffffffffffffffffffffffffffffff16815260200190815260200160002090506000816000016000015490506000600f60008381526020019081526020016000209050614b0881615ec7565b614b1157600080fd5b601273__IntegerSortedLinkedList_______________63bfc516389091846040518363ffffffff1660e01b8152600401808381526020018281526020019250505060206040518083038186803b158015614b6b57600080fd5b505af4158015614b7f573d6000803e3d6000fd5b505050506040513d6020811015614b9557600080fd5b810190808051906020019092919050505015614e0757614bc460065482600201546160b690919063ffffffff16565b4210614c7857601273__IntegerSortedLinkedList_______________63eed5f7be9091846040518363ffffffff1660e01b8152600401808381526020018281526020019250505060006040518083038186803b158015614c2457600080fd5b505af4158015614c38573d6000803e3d6000fd5b505050507f88e53c486703527139dfc8d97a1e559d9bd93d3f9d52cda4e06564111e7a2643826040518082815260200191505060405180910390a1614e06565b601273__IntegerSortedLinkedList_______________63239491ba909184614d458760000160010154601273__IntegerSortedLinkedList_______________637577759990918a6040518363ffffffff1660e01b8152600401808381526020018281526020019250505060206040518083038186803b158015614cfc57600080fd5b505af4158015614d10573d6000803e3d6000fd5b505050506040513d6020811015614d2657600080fd5b81019080805190602001909291905050506160ee90919063ffffffff16565b8c8c6040518663ffffffff1660e01b8152600401808681526020018581526020018481526020018381526020018281526020019550505050505060006040518083038186803b158015614d9757600080fd5b505af4158015614dab573d6000803e3d6000fd5b505050508373ffffffffffffffffffffffffffffffffffffffff16827f7dc46237a819c9171a9c037ec98928e563892905c4d23373ca0f3f500f4ed11485600001600101546040518082815260200191505060405180910390a35b5b604051806040016040528060008152602001600081525083600001600082015181600001556020820151816001015590505060019550505050506001548114614e4f57600080fd5b5092915050565b600860009054906101000a900473ffffffffffffffffffffffffffffffffffffffff1673ffffffffffffffffffffffffffffffffffffffff163373ffffffffffffffffffffffffffffffffffffffff1614614eb057600080fd5b60016011600083815260200190815260200160002060000160016101000a81548160ff021916908315150217905550807f36bc158cba244a94dc9b8c08d327e8f7e3c2ab5f1925454c577527466f04851f60405160405180910390a250565b60016011600083815260200190815260200160002060020160003373ffffffffffffffffffffffffffffffffffffffff1673ffffffffffffffffffffffffffffffffffffffff16815260200190815260200160002060006101000a81548160ff021916908315150217905550807ff6d22d0b43a6753880b8f9511b82b86cd0fe349cd580bbe6a25b6dc063ef496f33604051808273ffffffffffffffffffffffffffffffffffffffff1673ffffffffffffffffffffffffffffffffffffffff16815260200191505060405180910390a250565b6000601260000160020154905090565b600060018060008282540192505081905550600060015490506000615015616399565b73ffffffffffffffffffffffffffffffffffffffff16636642d594336040518263ffffffff1660e01b8152600401808273ffffffffffffffffffffffffffffffffffffffff1673ffffffffffffffffffffffffffffffffffffffff16815260200191505060206040518083038186803b15801561509157600080fd5b505afa1580156150a5573d6000803e3d6000fd5b505050506040513d60208110156150bb57600080fd5b810190808051906020019092919050505090506150d66127e4565b6000600f600088815260200190815260200160002090506150f881888861610e565b61510157600080fd5b600061511760038361614490919063ffffffff16565b90506151238282616201565b1561513f5761513382898961628b565b60009450505050615520565b6000601060008573ffffffffffffffffffffffffffffffffffffffff1673ffffffffffffffffffffffffffffffffffffffff1681526020019081526020016000209050600061518c616494565b73ffffffffffffffffffffffffffffffffffffffff166330ec70f5866040518263ffffffff1660e01b8152600401808273ffffffffffffffffffffffffffffffffffffffff1673ffffffffffffffffffffffffffffffffffffffff16815260200191505060206040518083038186803b15801561520857600080fd5b505afa15801561521c573d6000803e3d6000fd5b505050506040513d602081101561523257600080fd5b8101908080519060200190929190505050905061524e8461658f565b801561527057506003600581111561526257fe5b83600581111561526e57fe5b145b801561529357506000600381111561528457fe5b88600381111561529057fe5b14155b801561529f5750600081115b6152a857600080fd5b60008260030160008b815260200190815260200160002090508473__Proposals_____________________________63b05cd27f90918360020154858f8660010154146152f6576000615309565b8560000160009054906101000a900460ff165b8e6040518663ffffffff1660e01b81526004018086815260200185815260200184815260200183600381111561533b57fe5b60ff16815260200182600381111561534f57fe5b60ff1681526020019550505050505060006040518083038186803b15801561537657600080fd5b505af415801561538a573d6000803e3d6000fd5b50505050615396616494565b73ffffffffffffffffffffffffffffffffffffffff166330a61d596040518163ffffffff1660e01b815260040160206040518083038186803b1580156153db57600080fd5b505afa1580156153ef573d6000803e3d6000fd5b505050506040513d602081101561540557600080fd5b8101908080519060200190929190505050856008018190555060405180606001604052808a600381111561543557fe5b81526020018c8152602001838152508360030160008c815260200190815260200160002060008201518160000160006101000a81548160ff0219169083600381111561547d57fe5b021790555060208201518160010155604082015181600201559050508260020154856002015411156154b3578a83600201819055505b8573ffffffffffffffffffffffffffffffffffffffff168b7ff3709dc32cf1356da6b8a12a5be1401aeb00989556be7b16ae566e65fef7a9df8b60038111156154f857fe5b85604051808381526020018281526020019250505060405180910390a3600197505050505050505b600154811461552e57600080fd5b509392505050565b60095481565b600060149054906101000a900460ff161561555657600080fd5b6001600060146101000a81548160ff021916908315150217905550600073ffffffffffffffffffffffffffffffffffffffff168c73ffffffffffffffffffffffffffffffffffffffff16141580156155af575060008b14155b80156155bc575060008a14155b80156155c9575060008914155b80156155d6575060008814155b80156155e3575060008714155b80156155f0575060008614155b80156155fd575060008514155b61560657600080fd5b61560f336169da565b6156188d6148ce565b8b600860006101000a81548173ffffffffffffffffffffffffffffffffffffffff021916908373ffffffffffffffffffffffffffffffffffffffff1602179055508a600a8190555089600c81905550886006819055508760078190555086600360000181905550856003600101819055508460036002018190555061569c84612cda565b6156a583612267565b6156ae82613840565b6156b781612081565b4260098190555050505050505050505050505050565b6000601273__IntegerSortedLinkedList_______________63bfc516389091846040518363ffffffff1660e01b8152600401808381526020018281526020019250505060206040518083038186803b15801561572957600080fd5b505af415801561573d573d6000803e3d6000fd5b505050506040513d602081101561575357600080fd5b810190808051906020019092919050505080156157995750615796600654600f6000858152602001908152602001600020600201546160b690919063ffffffff16565b42105b9050919050565b6000806000806157c1600f6000878152602001908152602001600020616ad2565b93509350935093509193509193565b6000806000806157f860196000016040518060200160405290816000820154815250506169cc565b61581a60196001016040518060200160405290816000820154815250506169cc565b61583c60196002016040518060200160405290816000820154815250506169cc565b61585e60196003016040518060200160405290816000820154815250506169cc565b935093509350935090919293565b615874614576565b61587d57600080fd5b60008111801561588f5750600a548114155b61589857600080fd5b80600a819055507f85399b9b2595eb13c392e1638ca77730156cd8d48d4733df4db068e4aa6b93a6816040518082815260200191505060405180910390a150565b6000806158e461771f565b601060008573ffffffffffffffffffffffffffffffffffffffff1673ffffffffffffffffffffffffffffffffffffffff168152602001908152602001600020600001604051806040016040529081600082015481526020016001820154815250509050806000015181602001519250925050915091565b615963614576565b61596c57600080fd5b60008111801561598157506003600101548114155b61598a57600080fd5b806003600101819055507f90290eb9b27055e686a69fb810bada5381e544d07b8270021da2d355a6c96ed6816040518082815260200191505060405180910390a150565b6000806060600f600086815260200190815260200160002073__Proposals_____________________________63e6a5192f9091866040518363ffffffff1660e01b8152600401808381526020018281526020019250505060006040518083038186803b158015615a3e57600080fd5b505af4158015615a52573d6000803e3d6000fd5b505050506040513d6000823e3d601f19601f820116820180604052506060811015615a7c57600080fd5b8101908080519060200190929190805190602001909291908051640100000000811115615aa857600080fd5b82810190506020810184811115615abe57600080fd5b8151856001820283011164010000000082111715615adb57600080fd5b50509291905050509250925092509250925092565b600b5481565b60008060405160008060008360f86103e8fa60206000602084013e6020820151925050508091505090565b6000806000615b41600f6000868152602001908152602001600020616b1e565b9250925092509193909250565b60008060008714158015615b63575060008514155b615b6c57600080fd5b6000806040513681016040528a81528960208201528860408201528760608201528660808201528560a082015260008060c48360fc61041afa3d604051818101604052816000823e8260008114615bcd578151965060208201519550615bd1565b8282fd5b50505050508181935093505050965096945050505050565b615bf1614576565b615bfa57600080fd5b600073ffffffffffffffffffffffffffffffffffffffff168373ffffffffffffffffffffffffffffffffffffffff161415615c3457600080fd5b6969e10de76676d080000081118015615c5c5750615c58615c53616b48565b6169cc565b8111155b615c6557600080fd5b600060e01b827bffffffffffffffffffffffffffffffffffffffffffffffffffffffff19161415615ced57615c9981615e7a565b600e60008573ffffffffffffffffffffffffffffffffffffffff1673ffffffffffffffffffffffffffffffffffffffff16815260200190815260200160002060000160008201518160000155905050615d95565b615cf681615e7a565b600e60008573ffffffffffffffffffffffffffffffffffffffff1673ffffffffffffffffffffffffffffffffffffffff1681526020019081526020016000206001016000847bffffffffffffffffffffffffffffffffffffffffffffffffffffffff19167bffffffffffffffffffffffffffffffffffffffffffffffffffffffff19168152602001908152602001600020600082015181600001559050505b817bffffffffffffffffffffffffffffffffffffffffffffffffffffffff19168373ffffffffffffffffffffffffffffffffffffffff167f60c5b4756af49d7b071b00dbf0f87af605cce11896ecd3b760d19f0f9d3fbcef836040518082815260200191505060405180910390a3505050565b6000615e4b6001615e3d6003615e2f6002615e2161453a565b616b6e90919063ffffffff16565b616ba890919063ffffffff16565b6160b690919063ffffffff16565b905090565b615e58614576565b615e6157600080fd5b615e6a816169da565b50565b6000600360000154905090565b615e826176e0565b6040518060200160405280838152509050919050565b6000615eab82615ea6616b48565b616bce565b9050919050565b60008160000151836000015114905092915050565b6000808260020154119050919050565b6000615ee16176e0565b615f38615f2960196003016040518060200160405290816000820154815250506019600001604051806020016040529081600082015481525050616be490919063ffffffff16565b84616e3690919063ffffffff16565b905060008090505b83600601805490508110156160aa576000616012856006018381548110615f6357fe5b90600052602060002090600302016002018054600181600116156101000203166002900480601f0160208091040260200160405190810160405280929190818152602001828054600181600116156101000203166002900480156160085780601f10615fdd57610100808354040283529160200191616008565b820191906000526020600020905b815481529060010190602001808311615feb57829003601f168201915b5050505050616f25565b905061601c6176e0565b61606686600601848154811061602e57fe5b906000526020600020906003020160010160009054906101000a900473ffffffffffffffffffffffffffffffffffffffff168361677a565b905061607b8185616bce90919063ffffffff16565b1561608d5760009450505050506160b1565b50506160a36001826160b690919063ffffffff16565b9050615f40565b5060019150505b919050565b6000808284019050838110156160cb57600080fd5b8091505092915050565b60008183106160e457816160e6565b825b905092915050565b6000828211156160fd57600080fd5b600082840390508091505092915050565b600061611984615ec7565b801561613b5750826017838154811061612e57fe5b9060005260206000200154145b90509392505050565b60008061618e83600201546161808560010154616172876000015489600201546160b690919063ffffffff16565b6160b690919063ffffffff16565b6160b690919063ffffffff16565b90508042106161a15760059150506161fb565b6161b88360020154826160ee90919063ffffffff16565b90508042106161cb5760049150506161fb565b6161e28360010154826160ee90919063ffffffff16565b90508042106161f55760039150506161fb565b60029150505b92915050565b60006004600581111561621057fe5b82600581111561621c57fe5b118061625057506003600581111561623057fe5b82600581111561623c57fe5b11801561624f575061624d83615ed7565b155b5b8061628357506002600581111561626357fe5b82600581111561626f57fe5b11801561628257506162808361658f565b155b5b905092915050565b6162948361658f565b80156162a4575060008360080154115b156162b3576162b283617082565b5b6000601782815481106162c257fe5b90600052602060002001819055506018819080600181540180825580915050906001820390600052602060002001600090919290919091505550600f6000838152602001908152602001600020600080820160006101000a81549073ffffffffffffffffffffffffffffffffffffffff021916905560018201600090556002820160009055600382016000808201600090556001820160009055600282016000905550506006820160006163769190617739565b6007820160006101000a81549060ff021916905560088201600090555050505050565b6000600260009054906101000a900473ffffffffffffffffffffffffffffffffffffffff1673ffffffffffffffffffffffffffffffffffffffff1663dcf0aaed60405160200180807f4163636f756e74730000000000000000000000000000000000000000000000008152506008019050604051602081830303815290604052805190602001206040518263ffffffff1660e01b81526004018082815260200191505060206040518083038186803b15801561645457600080fd5b505afa158015616468573d6000803e3d6000fd5b505050506040513d602081101561647e57600080fd5b8101908080519060200190929190505050905090565b6000600260009054906101000a900473ffffffffffffffffffffffffffffffffffffffff1673ffffffffffffffffffffffffffffffffffffffff1663dcf0aaed60405160200180807f4c6f636b6564476f6c6400000000000000000000000000000000000000000000815250600a019050604051602081830303815290604052805190602001206040518263ffffffff1660e01b81526004018082815260200191505060206040518083038186803b15801561654f57600080fd5b505afa158015616563573d6000803e3d6000fd5b505050506040513d602081101561657957600080fd5b8101908080519060200190929190505050905090565b60008160070160009054906101000a900460ff169050919050565b6165b261775d565b855187511480156165c4575083518651145b6165cd57600080fd5b6000875190506165db61775d565b84816000019073ffffffffffffffffffffffffffffffffffffffff16908173ffffffffffffffffffffffffffffffffffffffff1681525050838160200181815250504281604001818152505060008090508260405190808252806020026020018201604052801561666657816020015b6166536177b9565b81526020019060019003908161664b5790505b50826080018190525060008090505b838110156167595760405180606001604052808c838151811061669457fe5b602002602001015181526020018b83815181106166ad57fe5b602002602001015173ffffffffffffffffffffffffffffffffffffffff1681526020016166f8848b85815181106166e057fe5b60200260200101518d6172189092919063ffffffff16565b8152508360800151828151811061670b57fe5b602002602001018190525061673c88828151811061672557fe5b6020026020010151836160b690919063ffffffff16565b91506167526001826160b690919063ffffffff16565b9050616675565b508193505050509695505050505050565b61677781608001516172a4565b50565b6167826176e0565b61678a6176e0565b61679d6969e10de76676d0800000615e7a565b9050600061684f600e60008773ffffffffffffffffffffffffffffffffffffffff1673ffffffffffffffffffffffffffffffffffffffff1681526020019081526020016000206001016000867bffffffffffffffffffffffffffffffffffffffffffffffffffffffff19167bffffffffffffffffffffffffffffffffffffffffffffffffffffffff191681526020019081526020016000206040518060200160405290816000820154815250506169cc565b1461690157600e60008573ffffffffffffffffffffffffffffffffffffffff1673ffffffffffffffffffffffffffffffffffffffff1681526020019081526020016000206001016000847bffffffffffffffffffffffffffffffffffffffffffffffffffffffff19167bffffffffffffffffffffffffffffffffffffffffffffffffffffffff1916815260200190815260200160002060405180602001604052908160008201548152505090506169c2565b6000616962600e60008773ffffffffffffffffffffffffffffffffffffffff1673ffffffffffffffffffffffffffffffffffffffff1681526020019081526020016000206000016040518060200160405290816000820154815250506169cc565b146169c157600e60008573ffffffffffffffffffffffffffffffffffffffff1673ffffffffffffffffffffffffffffffffffffffff16815260200190815260200160002060000160405180602001604052908160008201548152505090505b5b8091505092915050565b600081600001519050919050565b600073ffffffffffffffffffffffffffffffffffffffff168173ffffffffffffffffffffffffffffffffffffffff161415616a1457600080fd5b8073ffffffffffffffffffffffffffffffffffffffff166000809054906101000a900473ffffffffffffffffffffffffffffffffffffffff1673ffffffffffffffffffffffffffffffffffffffff167f8be0079c531659141344cd1fd0a4f28419497f9722a3daafe3b4186f6b6457e060405160405180910390a3806000806101000a81548173ffffffffffffffffffffffffffffffffffffffff021916908373ffffffffffffffffffffffffffffffffffffffff16021790555050565b6000806000808460000160009054906101000a900473ffffffffffffffffffffffffffffffffffffffff1685600101548660020154876006018054905093509350935093509193509193565b60008060008360030160000154846003016001015485600301600201549250925092509193909250565b616b506176e0565b604051806020016040528069d3c21bcecceda1000000815250905090565b600080831415616b815760009050616ba2565b6000828402905082848281616b9257fe5b0414616b9d57600080fd5b809150505b92915050565b6000808211616bb657600080fd5b6000828481616bc157fe5b0490508091505092915050565b6000816000015183600001511115905092915050565b616bec6176e0565b600083600001511480616c03575060008260000151145b15616c1f57604051806020016040528060008152509050616e30565b69d3c21bcecceda100000082600001511415616c3d57829050616e30565b69d3c21bcecceda100000083600001511415616c5b57819050616e30565b600069d3c21bcecceda1000000616c7185617344565b6000015181616c7c57fe5b0490506000616c8a8561737b565b600001519050600069d3c21bcecceda1000000616ca686617344565b6000015181616cb157fe5b0490506000616cbf8661737b565b6000015190506000828502905060008514616cea5782858281616cde57fe5b0414616ce957600080fd5b5b600069d3c21bcecceda10000008202905060008214616d235769d3c21bcecceda1000000828281616d1757fe5b0414616d2257600080fd5b5b8091506000848602905060008614616d4b5784868281616d3f57fe5b0414616d4a57600080fd5b5b6000848802905060008814616d705784888281616d6457fe5b0414616d6f57600080fd5b5b616d786173b8565b8781616d8057fe5b049650616d8b6173b8565b8581616d9357fe5b0494506000858802905060008814616dbb5785888281616daf57fe5b0414616dba57600080fd5b5b616dc36176e0565b6040518060200160405280878152509050616dec816040518060200160405280878152506173c5565b9050616e06816040518060200160405280868152506173c5565b9050616e20816040518060200160405280858152506173c5565b9050809a50505050505050505050505b92915050565b616e3e6176e0565b6000836003016000015490506000811415616e6557616e5d6000617405565b915050616f1f565b6000846003016001015490506000616e9f8660030160020154616e9184866160b690919063ffffffff16565b6160b690919063ffffffff16565b90506000616eca616ec5616eb68960080154617405565b88616be490919063ffffffff16565b617443565b905081811115616efc57616ef9616eea83836160ee90919063ffffffff16565b846160b690919063ffffffff16565b92505b616f1884616f1385876160b690919063ffffffff16565b617464565b9450505050505b92915050565b6000601882600381518110616f3657fe5b602001015160f81c60f81b7effffffffffffffffffffffffffffffffffffffffffffffffffffffffffffff19167bffffffffffffffffffffffffffffffffffffffffffffffffffffffff1916901c601083600281518110616f9357fe5b602001015160f81c60f81b7effffffffffffffffffffffffffffffffffffffffffffffffffffffffffffff19167bffffffffffffffffffffffffffffffffffffffffffffffffffffffff1916901c600884600181518110616ff057fe5b602001015160f81c60f81b7effffffffffffffffffffffffffffffffffffffffffffffffffffffffffffff19167bffffffffffffffffffffffffffffffffffffffffffffffffffffffff1916901c8460008151811061704b57fe5b602001015160f81c60f81b7effffffffffffffffffffffffffffffffffffffffffffffffffffffffffffff19161717179050919050565b61708a6176e0565b617093826174dc565b905061709d6176e0565b6170c9601960020160405180602001604052908160008201548152505083616be490919063ffffffff16565b90506170d36176e0565b61713161710960196002016040518060200160405290816000820154815250506170fb616b48565b61753890919063ffffffff16565b6019600001604051806020016040529081600082015481525050616be490919063ffffffff16565b905061714681836173c590919063ffffffff16565b60196000016000820151816000015590505061719d6019600101604051806020016040529081600082015481525050601960000160405180602001604052908160008201548152505061757690919063ffffffff16565b156171ba5760196001016019600001600082015481600001559050505b7f51131d2820f04a6b6edd20e22a07d5bf847e265a3906e85256fca7d6043417c56171fd60196000016040518060200160405290816000820154815250506169cc565b6040518082815260200191505060405180910390a150505050565b60608183018451101561722a57600080fd5b606082156000811461724757604051915060208201604052617298565b6040519150601f8416801560200281840101858101878315602002848b0101015b818310156172855780518352602083019250602081019050617268565b50868552601f19601f8301166040525050505b50809150509392505050565b60008090505b81518110156173405761731c8282815181106172c257fe5b6020026020010151602001518383815181106172da57fe5b6020026020010151600001518484815181106172f257fe5b6020026020010151604001515185858151811061730b57fe5b60200260200101516040015161758b565b61732557600080fd5b6173396001826160b690919063ffffffff16565b90506172aa565b5050565b61734c6176e0565b604051806020016040528069d3c21bcecceda10000008085600001518161736f57fe5b04028152509050919050565b6173836176e0565b604051806020016040528069d3c21bcecceda1000000808560000151816173a657fe5b04028460000151038152509050919050565b600064e8d4a51000905090565b6173cd6176e0565b60008260000151846000015101905083600001518110156173ed57600080fd5b60405180602001604052808281525091505092915050565b61740d6176e0565b617415617637565b82111561742157600080fd5b604051806020016040528069d3c21bcecceda100000084028152509050919050565b600069d3c21bcecceda100000082600001518161745c57fe5b049050919050565b61746c6176e0565b617474617637565b83111561748057600080fd5b617488617637565b82111561749457600080fd5b60008214156174a257600080fd5b6174aa6176e0565b6174b384617405565b90506174bd6176e0565b6174c684617405565b90506174d28282617656565b9250505092915050565b6174e46176e0565b60006175208360030160020154617512856003016001015486600301600001546160b690919063ffffffff16565b6160b690919063ffffffff16565b9050617530818460080154617464565b915050919050565b6175406176e0565b81600001518360000151101561755557600080fd5b60405180602001604052808360000151856000015103815250905092915050565b60008160000151836000015110905092915050565b6000806000841115617613576175a0866176cd565b617612576040517f08c379a00000000000000000000000000000000000000000000000000000000081526004018080602001828103825260188152602001807f496e76616c696420636f6e74726163742061646472657373000000000000000081525060200191505060405180910390fd5b5b6040516020840160008287838a8c6187965a03f19250505080915050949350505050565b60007601357c299a88ea76a58924d52ce4f26a85af186c2b9e74905090565b61765e6176e0565b60008260000151141561767057600080fd5b600069d3c21bcecceda10000008460000151029050836000015169d3c21bcecceda1000000828161769d57fe5b04146176a857600080fd5b6040518060200160405280846000015183816176c057fe5b0481525091505092915050565b600080823b905060008111915050919050565b6040518060200160405280600081525090565b81548183558181111561771a5781836000526020600020918201910161771991906177f0565b5b505050565b604051806040016040528060008152602001600081525090565b508054600082556003029060005260206000209081019061775a9190617815565b50565b604051806101200160405280600073ffffffffffffffffffffffffffffffffffffffff168152602001600081526020016000815260200161779c617873565b815260200160608152602001600015158152602001600081525090565b604051806060016040528060008152602001600073ffffffffffffffffffffffffffffffffffffffff168152602001606081525090565b61781291905b8082111561780e5760008160009055506001016177f6565b5090565b90565b61787091905b8082111561786c576000808201600090556001820160006101000a81549073ffffffffffffffffffffffffffffffffffffffff02191690556002820160006178639190617894565b5060030161781b565b5090565b90565b60405180606001604052806000815260200160008152602001600081525090565b50805460018160011615610100020316600290046000825580601f106178ba57506178d9565b601f0160209004906000526020600020908101906178d891906177f0565b5b5056fe686f74666978206d75737420626520707265706172656420666f7220746869732065706f636863616e6e6f74207570766f746520612070726f706f73616c206e6f7420696e20746865207175657565686f74666978206e6f742077686974656c69737465642062792032662b312076616c696461746f727363616e6e6f74207570766f746520776974686f7574206c6f636b696e6720676f6c64686f7466697820616c726561647920707265706172656420666f7220746869732065706f636863616e6e6f74207570766f7465206d6f7265207468616e206f6e65207175657565642070726f706f73616ca165627a7a72305820a5377e4e2a0eb4b1f83041afcd8275bb8dafcb77d4dca30ee272e10f1361b3d50029",
  "source": "pragma solidity ^0.5.3;\n\nimport \"../Governance.sol\";\n\ncontract GovernanceTest is Governance {\n  address[] validatorSet;\n\n  // Minimally override core functions from UsingPrecompiles\n  function numberValidatorsInCurrentSet() public view returns (uint256) {\n    return validatorSet.length;\n  }\n\n  function validatorAddressFromCurrentSet(uint256 index) public view returns (address) {\n    return validatorSet[index];\n  }\n\n  // Expose test utilities\n  function addValidator(address validator) external {\n    validatorSet.push(validator);\n  }\n}\n",
  "sourcePath": "/Users/cmcewen/celo/celo-monorepo/packages/protocol/contracts/governance/test/GovernanceTest.sol",
  "compiler": {
    "name": "solc",
    "version": "0.5.8+commit.23d335f2.Emscripten.clang"
  },
  "schemaVersion": "3.0.10",
  "updatedAt": "2019-12-06T00:02:49.789Z",
  "devdoc": {
    "methods": {
      "approve(uint256,uint256)": {
        "params": {
          "index": "The index of the proposal ID in `dequeued`.",
          "proposalId": "The ID of the proposal to approve."
        },
        "return": "Whether or not the approval was made successfully."
      },
      "approveHotfix(bytes32)": {
        "params": {
          "hash": "The abi encoded keccak256 hash of the hotfix transaction(s) to be whitelisted."
        }
      },
      "byzantineQuorumValidatorsInCurrentSet()": {
        "return": "Byzantine quorum of validators."
      },
      "checkProofOfPossession(address,bytes,bytes)": {
        "params": {
          "blsKey": "The BLS public key that the validator is using for consensus, should pass proof  of possession. 48 bytes.",
          "blsPop": "The BLS public key proof-of-possession, which consists of a signature on the  account address. 96 bytes.",
          "sender": "The address signed by the BLS key to generate the proof of possession."
        },
        "return": "True upon success."
      },
      "dequeueProposalsIfReady()": {
        "details": "If any of the top proposals have expired, they are deleted."
      },
      "execute(uint256,uint256)": {
        "details": "Does not remove the proposal if the execution fails.",
        "params": {
          "index": "The index of the proposal ID in `dequeued`.",
          "proposalId": "The ID of the proposal to vote on."
        },
        "return": "Whether or not the proposal was executed successfully."
      },
      "executeHotfix(uint256[],address[],bytes,uint256[])": {
        "details": "Reverts if hotfix is already executed, not approved, or not prepared for current epoch.",
        "params": {
          "data": "The concatenated data to be included in the proposed transactions.",
          "dataLengths": "The lengths of each transaction's data.",
          "destinations": "The destination addresses of the proposed transactions.",
          "values": "The values of Celo Gold to be sent in the proposed transactions."
        }
      },
      "fractionMulExp(uint256,uint256,uint256,uint256,uint256,uint256)": {
        "params": {
          "_decimals": "precision",
          "aDenominator": "Denominator of first fraction",
          "aNumerator": "Numerator of first fraction",
          "bDenominator": "Denominator of exponentiated fraction",
          "bNumerator": "Numerator of exponentiated fraction",
          "exponent": "exponent to raise b to"
        },
        "return": "numerator/denominator of the computed quantity (not reduced)."
      },
      "getApprovalStageDuration()": {
        "return": "The number of seconds proposals stay in approval stage."
      },
      "getDequeue()": {
        "return": "The dequeued proposal IDs."
      },
      "getEpochSize()": {
        "return": "The current epoch size in blocks."
      },
      "getExecutionStageDuration()": {
        "return": "The number of seconds proposals stay in the execution stage."
      },
      "getHotfixRecord(bytes32)": {
        "params": {
          "hash": "The abi encoded keccak256 hash of the hotfix transaction."
        },
        "return": "Hotfix tuple of (approved, executed, preparedEpoch)"
      },
      "getMostRecentReferendumProposal(address)": {
        "params": {
          "account": "The address of the account."
        },
        "return": "The ID of the most recently dequeued proposal voted on by `account`.."
      },
      "getParticipationParameters()": {
        "return": "The participation parameters."
      },
      "getProposal(uint256)": {
        "params": {
          "proposalId": "The ID of the proposal to unpack."
        },
        "return": "The unpacked proposal with its transaction count."
      },
      "getProposalTransaction(uint256,uint256)": {
        "params": {
          "index": "The index of the specified transaction in the proposal's transaction list.",
          "proposalId": "The ID of the proposal to query."
        },
        "return": "The specified transaction."
      },
      "getQueue()": {
        "details": "Note that this includes expired proposals that have yet to be removed from the queue.",
        "return": "The proposal ID and upvote total for all queued proposals."
      },
      "getQueueLength()": {
        "return": "The number of proposals in the queue."
      },
      "getReferendumStageDuration()": {
        "return": "The number of seconds proposals stay in the referendum stage."
      },
      "getUpvoteRecord(address)": {
        "params": {
          "account": "The address of the account."
        },
        "return": "The ID of the proposal upvoted by `account` and the weight of that upvote."
      },
      "getUpvotes(uint256)": {
        "params": {
          "proposalId": "The ID of the proposal."
        },
        "return": "The number of upvotes a queued proposal has received."
      },
      "getVoteRecord(address,uint256)": {
        "params": {
          "account": "The address of the account to get the record for.",
          "index": "The index in `dequeued`."
        },
        "return": "The corresponding proposal ID and vote value."
      },
      "getVoteTotals(uint256)": {
        "params": {
          "proposalId": "The ID of the proposal."
        },
        "return": "The yes, no, and abstain vote totals."
      },
      "initialize(address,address,uint256,uint256,uint256,uint256,uint256,uint256,uint256,uint256,uint256,uint256,uint256)": {
        "details": "Should be called only once.",
        "params": {
          "_approver": "The address that needs to approve proposals to move to the referendum stage.",
          "_concurrentProposals": "The number of proposals to dequeue at once.",
          "_dequeueFrequency": "The number of seconds before the next batch of proposals can be  dequeued.",
          "_minDeposit": "The minimum Celo Gold deposit needed to make a proposal.",
          "_queueExpiry": "The number of seconds a proposal can stay in the queue before expiring.",
          "approvalStageDuration": "The number of seconds the approver has to approve a proposal  after it is dequeued.",
          "baselineQuorumFactor": "The proportion of the baseline that constitutes quorum.",
          "baselineUpdateFactor": "The weight of the new participation in the baseline update rule.",
          "executionStageDuration": "The number of seconds users have to execute a passed proposal  after the referendum stage ends.",
          "participationBaseline": "The initial value of the participation baseline.",
          "participationFloor": "The participation floor.",
          "referendumStageDuration": "The number of seconds users have to vote on a dequeued proposal  after the approval stage ends.",
          "registryAddress": "The address of the registry contract."
        }
      },
      "isApproved(uint256)": {
        "params": {
          "proposalId": "The ID of the proposal."
        },
        "return": "Whether or not the proposal has been approved."
      },
      "isHotfixPassing(bytes32)": {
        "params": {
          "hash": "The abi encoded keccak256 hash of the hotfix transaction."
        },
        "return": "Whether validator whitelist tally >= validator byztanine quorum (2f+1)"
      },
      "isOwner()": {
        "return": "true if `msg.sender` is the owner of the contract."
      },
      "isProposalPassing(uint256)": {
        "params": {
          "proposalId": "The ID of the proposal."
        },
        "return": "Whether or not the proposal is passing."
      },
      "isQueued(uint256)": {
        "params": {
          "proposalId": "The ID of the proposal."
        },
        "return": "Whether or not the proposal is in the queue."
      },
      "isVoting(address)": {
        "params": {
          "account": "The address of the account."
        },
        "return": "Whether or not the account is voting on proposals."
      },
      "owner()": {
        "return": "the address of the owner."
      },
      "prepareHotfix(bytes32)": {
        "params": {
          "hash": "The hash of the hotfix to be prepared."
        }
      },
      "proposalExists(uint256)": {
        "params": {
          "proposalId": "The ID of the proposal."
        },
        "return": "Whether or not the proposal exists."
      },
      "propose(uint256[],address[],bytes,uint256[])": {
        "details": "The minimum deposit must be included with the proposal, returned if/when the proposal is  dequeued.",
        "params": {
          "data": "The concatenated data to be included in the proposed transactions.",
          "dataLengths": "The lengths of each transaction's data.",
          "destinations": "The destination addresses of the proposed transactions.",
          "values": "The values of Celo Gold to be sent in the proposed transactions."
        },
        "return": "The ID of the newly proposed proposal."
      },
      "renounceOwnership()": {
        "details": "Allows the current owner to relinquish control of the contract. It will not be possible to call the functions with the `onlyOwner` modifier anymore."
      },
      "revokeUpvote(uint256,uint256)": {
        "details": "Provide 0 for `lesser`/`greater` when the proposal will be at the tail/head of the queue.",
        "params": {
          "greater": "The ID of the proposal that will be just ahead of the previously upvoted  proposal in the queue.",
          "lesser": "The ID of the proposal that will be just behind the previously upvoted proposal  in the queue."
        },
        "return": "Whether or not the upvote was revoked successfully."
      },
      "setApprovalStageDuration(uint256)": {
        "params": {
          "approvalStageDuration": "The number of seconds proposals stay in the approval stage."
        }
      },
      "setApprover(address)": {
        "params": {
          "_approver": "The address that has permission to approve proposals in the approval stage."
        }
      },
      "setBaselineQuorumFactor(uint256)": {
        "params": {
          "baselineQuorumFactor": "The new baseline quorum factor."
        }
      },
      "setBaselineUpdateFactor(uint256)": {
        "params": {
          "baselineUpdateFactor": "The new baseline update factor."
        }
      },
      "setConcurrentProposals(uint256)": {
        "params": {
          "_concurrentProposals": "The number of proposals to dequeue at at a time."
        }
      },
      "setConstitution(address,bytes4,uint256)": {
        "details": "If no constitution is explicitly set the default is a simple majority, i.e. 1:2.",
        "params": {
          "destination": "The destination of proposals for which this threshold should apply.",
          "functionId": "The function ID of proposals for which this threshold should apply. Zero  will set the default.",
          "threshold": "The threshold."
        }
      },
      "setDequeueFrequency(uint256)": {
        "params": {
          "_dequeueFrequency": "The number of seconds before the next batch of proposals can be  dequeued."
        }
      },
      "setExecutionStageDuration(uint256)": {
        "params": {
          "executionStageDuration": "The number of seconds proposals stay in the execution stage."
        }
      },
      "setMinDeposit(uint256)": {
        "params": {
          "_minDeposit": "The minimum Celo Gold deposit needed to make a proposal."
        }
      },
      "setParticipationBaseline(uint256)": {
        "params": {
          "participationBaseline": "The value of the baseline."
        }
      },
      "setParticipationFloor(uint256)": {
        "params": {
          "participationFloor": "The value at which the baseline is floored."
        }
      },
      "setQueueExpiry(uint256)": {
        "params": {
          "_queueExpiry": "The number of seconds a proposal can stay in the queue before expiring."
        }
      },
      "setReferendumStageDuration(uint256)": {
        "params": {
          "referendumStageDuration": "The number of seconds proposals stay in the referendum stage."
        }
      },
      "setRegistry(address)": {
        "params": {
          "registryAddress": "The address of a registry contract for routing to other contracts."
        }
      },
      "transferOwnership(address)": {
        "details": "Allows the current owner to transfer control of the contract to a newOwner.",
        "params": {
          "newOwner": "The address to transfer ownership to."
        }
      },
      "upvote(uint256,uint256,uint256)": {
        "details": "Provide 0 for `lesser`/`greater` when the proposal will be at the tail/head of the queue.Reverts if the account has already upvoted a proposal in the queue.",
        "params": {
          "greater": "The ID of the proposal that will be just ahead `proposalId` in the queue.",
          "lesser": "The ID of the proposal that will be just behind `proposalId` in the queue.",
          "proposalId": "The ID of the proposal to upvote."
        },
        "return": "Whether or not the upvote was made successfully."
      },
      "vote(uint256,uint256,uint8)": {
        "params": {
          "index": "The index of the proposal ID in `dequeued`.",
          "proposalId": "The ID of the proposal to vote on.",
          "value": "Whether to vote yes, no, or abstain."
        },
        "return": "Whether or not the vote was cast successfully."
      },
      "whitelistHotfix(bytes32)": {
        "params": {
          "hash": "The abi encoded keccak256 hash of the hotfix transaction(s) to be whitelisted."
        }
      },
      "withdraw()": {
        "return": "Whether or not the withdraw was successful."
      }
    }
  },
  "userdoc": {
    "methods": {
      "approve(uint256,uint256)": {
        "notice": "Approves a proposal in the approval stage."
      },
      "approveHotfix(bytes32)": {
        "notice": "Whitelists the hash of a hotfix transaction(s)."
      },
      "byzantineQuorumValidatorsInCurrentSet()": {
        "notice": "Computes byzantine quorum from current validator set size"
      },
      "checkProofOfPossession(address,bytes,bytes)": {
        "notice": "Checks a BLS proof of possession."
      },
      "dequeueProposalsIfReady()": {
        "notice": "Removes the proposals with the most upvotes from the queue, moving them to the  approval stage."
      },
      "execute(uint256,uint256)": {
        "notice": "Executes a proposal in the execution stage, removing it from `dequeued`."
      },
      "executeHotfix(uint256[],address[],bytes,uint256[])": {
        "notice": "Executes a whitelisted proposal."
      },
      "fractionMulExp(uint256,uint256,uint256,uint256,uint256,uint256)": {
        "notice": "calculate a * b^x for fractions a, b to `decimals` precision"
      },
      "getApprovalStageDuration()": {
        "notice": "Returns the number of seconds proposals stay in approval stage."
      },
      "getDequeue()": {
        "notice": "Returns the dequeued proposal IDs."
      },
      "getEpochSize()": {
        "notice": "Returns the current epoch size in blocks."
      },
      "getExecutionStageDuration()": {
        "notice": "Returns the number of seconds proposals stay in the execution stage."
      },
      "getHotfixRecord(bytes32)": {
        "notice": "Gets information about a hotfix."
      },
      "getMostRecentReferendumProposal(address)": {
        "notice": "Returns the ID of the most recently dequeued proposal voted on by `account`."
      },
      "getParticipationParameters()": {
        "notice": "Returns the participation parameters."
      },
      "getProposal(uint256)": {
        "notice": "Returns an unpacked proposal struct with its transaction count."
      },
      "getProposalTransaction(uint256,uint256)": {
        "notice": "Returns a specified transaction in a proposal."
      },
      "getQueue()": {
        "notice": "Returns the proposal ID and upvote total for all queued proposals."
      },
      "getQueueLength()": {
        "notice": "Returns the number of proposals in the queue."
      },
      "getReferendumStageDuration()": {
        "notice": "Returns the number of seconds proposals stay in the referendum stage."
      },
      "getUpvoteRecord(address)": {
        "notice": "Returns the ID of the proposal upvoted by `account` and the weight of that upvote."
      },
      "getUpvotes(uint256)": {
        "notice": "Returns the number of upvotes the queued proposal has received."
      },
      "getVoteRecord(address,uint256)": {
        "notice": "Returns an accounts vote record on a particular index in `dequeued`."
      },
      "getVoteTotals(uint256)": {
        "notice": "Returns the referendum vote totals for a proposal."
      },
      "initialize(address,address,uint256,uint256,uint256,uint256,uint256,uint256,uint256,uint256,uint256,uint256,uint256)": {
        "notice": "Initializes critical variables."
      },
      "isApproved(uint256)": {
        "notice": "Returns whether or not a proposal has been approved."
      },
      "isHotfixPassing(bytes32)": {
        "notice": "Checks if a byzantine quorum of validators has whitelisted the given hotfix."
      },
      "isProposalPassing(uint256)": {
        "notice": "Returns whether or not a particular proposal is passing according to the constitution  and the participation levels."
      },
      "isQueued(uint256)": {
        "notice": "Returns whether or not a proposal is in the queue."
      },
      "isVoting(address)": {
        "notice": "Returns whether or not a particular account is voting on proposals."
      },
      "prepareHotfix(bytes32)": {
        "notice": "Gives hotfix a prepared epoch for execution."
      },
      "proposalExists(uint256)": {
        "notice": "Returns whether or not a proposal exists."
      },
      "propose(uint256[],address[],bytes,uint256[])": {
        "notice": "Creates a new proposal and adds it to end of the queue with no upvotes."
      },
      "renounceOwnership()": {
        "notice": "Renouncing ownership will leave the contract without an owner, thereby removing any functionality that is only available to the owner."
      },
      "revokeUpvote(uint256,uint256)": {
        "notice": "Revokes an upvote on a queued proposal."
      },
      "setApprovalStageDuration(uint256)": {
        "notice": "Updates the number of seconds proposals stay in the approval stage."
      },
      "setApprover(address)": {
        "notice": "Updates the address that has permission to approve proposals in the approval stage."
      },
      "setBaselineQuorumFactor(uint256)": {
        "notice": "Updates the proportion of the baseline that constitutes quorum."
      },
      "setBaselineUpdateFactor(uint256)": {
        "notice": "Updates the weight of the new participation in the baseline update rule."
      },
      "setConcurrentProposals(uint256)": {
        "notice": "Updates the number of proposals to dequeue at a time."
      },
      "setConstitution(address,bytes4,uint256)": {
        "notice": "Updates the ratio of yes:yes+no votes needed for a specific class of proposals to pass."
      },
      "setDequeueFrequency(uint256)": {
        "notice": "Updates the minimum number of seconds before the next batch of proposals can be  dequeued."
      },
      "setExecutionStageDuration(uint256)": {
        "notice": "Updates the number of seconds proposals stay in the execution stage."
      },
      "setMinDeposit(uint256)": {
        "notice": "Updates the minimum deposit needed to make a proposal."
      },
      "setParticipationBaseline(uint256)": {
        "notice": "Updates the participation baseline."
      },
      "setParticipationFloor(uint256)": {
        "notice": "Updates the floor of the participation baseline."
      },
      "setQueueExpiry(uint256)": {
        "notice": "Updates the number of seconds before a queued proposal expires."
      },
      "setReferendumStageDuration(uint256)": {
        "notice": "Updates the number of seconds proposals stay in the referendum stage."
      },
      "setRegistry(address)": {
        "notice": "Updates the address pointing to a Registry contract."
      },
      "upvote(uint256,uint256,uint256)": {
        "notice": "Upvotes a queued proposal."
      },
      "vote(uint256,uint256,uint8)": {
        "notice": "Votes on a proposal in the referendum stage."
      },
      "whitelistHotfix(bytes32)": {
        "notice": "Whitelists the hash of a hotfix transaction(s)."
      },
      "withdraw()": {
        "notice": "Withdraws refunded Celo Gold deposits."
      }
    }
  }
}