{
  "contractName": "LockedGold",
  "abi": [
    {
      "constant": true,
      "inputs": [],
      "name": "initialized",
      "outputs": [
        {
          "name": "",
          "type": "bool"
        }
      ],
      "payable": false,
      "stateMutability": "view",
      "type": "function"
    },
    {
      "constant": true,
      "inputs": [],
      "name": "unlockingPeriod",
      "outputs": [
        {
          "name": "",
          "type": "uint256"
        }
      ],
      "payable": false,
      "stateMutability": "view",
      "type": "function"
    },
    {
      "constant": false,
      "inputs": [],
      "name": "renounceOwnership",
      "outputs": [],
      "payable": false,
      "stateMutability": "nonpayable",
      "type": "function"
    },
    {
      "constant": true,
      "inputs": [],
      "name": "registry",
      "outputs": [
        {
          "name": "",
          "type": "address"
        }
      ],
      "payable": false,
      "stateMutability": "view",
      "type": "function"
    },
    {
      "constant": true,
      "inputs": [],
      "name": "owner",
      "outputs": [
        {
          "name": "",
          "type": "address"
        }
      ],
      "payable": false,
      "stateMutability": "view",
      "type": "function"
    },
    {
      "constant": true,
      "inputs": [],
      "name": "isOwner",
      "outputs": [
        {
          "name": "",
          "type": "bool"
        }
      ],
      "payable": false,
      "stateMutability": "view",
      "type": "function"
    },
    {
      "constant": false,
      "inputs": [
        {
          "name": "registryAddress",
          "type": "address"
        }
      ],
      "name": "setRegistry",
      "outputs": [],
      "payable": false,
      "stateMutability": "nonpayable",
      "type": "function"
    },
    {
      "constant": true,
      "inputs": [],
      "name": "totalNonvoting",
      "outputs": [
        {
          "name": "",
          "type": "uint256"
        }
      ],
      "payable": false,
      "stateMutability": "view",
      "type": "function"
    },
    {
      "constant": false,
      "inputs": [
        {
          "name": "newOwner",
          "type": "address"
        }
      ],
      "name": "transferOwnership",
      "outputs": [],
      "payable": false,
      "stateMutability": "nonpayable",
      "type": "function"
    },
    {
      "anonymous": false,
      "inputs": [
        {
          "indexed": false,
          "name": "period",
          "type": "uint256"
        }
      ],
      "name": "UnlockingPeriodSet",
      "type": "event"
    },
    {
      "anonymous": false,
      "inputs": [
        {
          "indexed": true,
          "name": "account",
          "type": "address"
        },
        {
          "indexed": false,
          "name": "value",
          "type": "uint256"
        }
      ],
      "name": "GoldLocked",
      "type": "event"
    },
    {
      "anonymous": false,
      "inputs": [
        {
          "indexed": true,
          "name": "account",
          "type": "address"
        },
        {
          "indexed": false,
          "name": "value",
          "type": "uint256"
        },
        {
          "indexed": false,
          "name": "available",
          "type": "uint256"
        }
      ],
      "name": "GoldUnlocked",
      "type": "event"
    },
    {
      "anonymous": false,
      "inputs": [
        {
          "indexed": true,
          "name": "account",
          "type": "address"
        },
        {
          "indexed": false,
          "name": "value",
          "type": "uint256"
        }
      ],
      "name": "GoldWithdrawn",
      "type": "event"
    },
    {
      "anonymous": false,
      "inputs": [
        {
          "indexed": true,
          "name": "registryAddress",
          "type": "address"
        }
      ],
      "name": "RegistrySet",
      "type": "event"
    },
    {
      "anonymous": false,
      "inputs": [
        {
          "indexed": true,
          "name": "previousOwner",
          "type": "address"
        },
        {
          "indexed": true,
          "name": "newOwner",
          "type": "address"
        }
      ],
      "name": "OwnershipTransferred",
      "type": "event"
    },
    {
      "constant": false,
      "inputs": [
        {
          "name": "registryAddress",
          "type": "address"
        },
        {
          "name": "_unlockingPeriod",
          "type": "uint256"
        }
      ],
      "name": "initialize",
      "outputs": [],
      "payable": false,
      "stateMutability": "nonpayable",
      "type": "function"
    },
    {
      "constant": false,
      "inputs": [
        {
          "name": "value",
          "type": "uint256"
        }
      ],
      "name": "setUnlockingPeriod",
      "outputs": [],
      "payable": false,
      "stateMutability": "nonpayable",
      "type": "function"
    },
    {
      "constant": false,
      "inputs": [],
      "name": "lock",
      "outputs": [],
      "payable": true,
      "stateMutability": "payable",
      "type": "function"
    },
    {
      "constant": false,
      "inputs": [
        {
          "name": "account",
          "type": "address"
        },
        {
          "name": "value",
          "type": "uint256"
        }
      ],
      "name": "incrementNonvotingAccountBalance",
      "outputs": [],
      "payable": false,
      "stateMutability": "nonpayable",
      "type": "function"
    },
    {
      "constant": false,
      "inputs": [
        {
          "name": "account",
          "type": "address"
        },
        {
          "name": "value",
          "type": "uint256"
        }
      ],
      "name": "decrementNonvotingAccountBalance",
      "outputs": [],
      "payable": false,
      "stateMutability": "nonpayable",
      "type": "function"
    },
    {
      "constant": false,
      "inputs": [
        {
          "name": "value",
          "type": "uint256"
        }
      ],
      "name": "unlock",
      "outputs": [],
      "payable": false,
      "stateMutability": "nonpayable",
      "type": "function"
    },
    {
      "constant": false,
      "inputs": [
        {
          "name": "index",
          "type": "uint256"
        },
        {
          "name": "value",
          "type": "uint256"
        }
      ],
      "name": "relock",
      "outputs": [],
      "payable": false,
      "stateMutability": "nonpayable",
      "type": "function"
    },
    {
      "constant": false,
      "inputs": [
        {
          "name": "index",
          "type": "uint256"
        }
      ],
      "name": "withdraw",
      "outputs": [],
      "payable": false,
      "stateMutability": "nonpayable",
      "type": "function"
    },
    {
      "constant": true,
      "inputs": [],
      "name": "getTotalLockedGold",
      "outputs": [
        {
          "name": "",
          "type": "uint256"
        }
      ],
      "payable": false,
      "stateMutability": "view",
      "type": "function"
    },
    {
      "constant": true,
      "inputs": [],
      "name": "getNonvotingLockedGold",
      "outputs": [
        {
          "name": "",
          "type": "uint256"
        }
      ],
      "payable": false,
      "stateMutability": "view",
      "type": "function"
    },
    {
      "constant": true,
      "inputs": [
        {
          "name": "account",
          "type": "address"
        }
      ],
      "name": "getAccountTotalLockedGold",
      "outputs": [
        {
          "name": "",
          "type": "uint256"
        }
      ],
      "payable": false,
      "stateMutability": "view",
      "type": "function"
    },
    {
      "constant": true,
      "inputs": [
        {
          "name": "account",
          "type": "address"
        }
      ],
      "name": "getAccountNonvotingLockedGold",
      "outputs": [
        {
          "name": "",
          "type": "uint256"
        }
      ],
      "payable": false,
      "stateMutability": "view",
      "type": "function"
    },
    {
      "constant": true,
      "inputs": [
        {
          "name": "account",
          "type": "address"
        }
      ],
      "name": "getPendingWithdrawals",
      "outputs": [
        {
          "name": "",
          "type": "uint256[]"
        },
        {
          "name": "",
          "type": "uint256[]"
        }
      ],
      "payable": false,
      "stateMutability": "view",
      "type": "function"
    }
  ],
  "bytecode": "0x60806040526001600081905550336001806101000a81548173ffffffffffffffffffffffffffffffffffffffff021916908373ffffffffffffffffffffffffffffffffffffffff1602179055506001809054906101000a900473ffffffffffffffffffffffffffffffffffffffff1673ffffffffffffffffffffffffffffffffffffffff16600073ffffffffffffffffffffffffffffffffffffffff167f8be0079c531659141344cd1fd0a4f28419497f9722a3daafe3b4186f6b6457e060405160405180910390a36125c8806100d76000396000f3fe6080604052600436106101355760003560e01c80637b103999116100ab578063b2fb30cb1161006f578063b2fb30cb14610560578063c1867f6d146105a5578063cd6dc687146105d0578063f2fde38b1461062b578063f340c0d01461067c578063f83d08ba1461076a57610135565b80637b10399914610407578063807876b71461045e5780638da5cb5b146104895780638f32d59b146104e0578063a91ee0dc1461050f57610135565b806330ec70f5116100fd57806330ec70f5146102555780633f199b40146102ba5780636198e3391461031f57806366f0633b1461035a5780636edf77a514610395578063715018a6146103f057610135565b8063158ef93e1461013a57806318a4ff8c1461016957806320637d8e146101c45780632e1a7d4d146101ef57806330a61d591461022a575b600080fd5b34801561014657600080fd5b5061014f610774565b604051808215151515815260200191505060405180910390f35b34801561017557600080fd5b506101c26004803603604081101561018c57600080fd5b81019080803573ffffffffffffffffffffffffffffffffffffffff16906020019092919080359060200190929190505050610787565b005b3480156101d057600080fd5b506101d961092b565b6040518082815260200191505060405180910390f35b3480156101fb57600080fd5b506102286004803603602081101561021257600080fd5b8101908080359060200190929190505050610931565b005b34801561023657600080fd5b5061023f610beb565b6040518082815260200191505060405180910390f35b34801561026157600080fd5b506102a46004803603602081101561027857600080fd5b81019080803573ffffffffffffffffffffffffffffffffffffffff169060200190929190505050610c8e565b6040518082815260200191505060405180910390f35b3480156102c657600080fd5b50610309600480360360208110156102dd57600080fd5b81019080803573ffffffffffffffffffffffffffffffffffffffff169060200190929190505050610db2565b6040518082815260200191505060405180910390f35b34801561032b57600080fd5b506103586004803603602081101561034257600080fd5b8101908080359060200190929190505050610e01565b005b34801561036657600080fd5b506103936004803603602081101561037d57600080fd5b81019080803590602001909291905050506111cc565b005b3480156103a157600080fd5b506103ee600480360360408110156103b857600080fd5b81019080803573ffffffffffffffffffffffffffffffffffffffff1690602001909291908035906020019092919050505061122d565b005b3480156103fc57600080fd5b506104056113d1565b005b34801561041357600080fd5b5061041c6114a1565b604051808273ffffffffffffffffffffffffffffffffffffffff1673ffffffffffffffffffffffffffffffffffffffff16815260200191505060405180910390f35b34801561046a57600080fd5b506104736114c7565b6040518082815260200191505060405180910390f35b34801561049557600080fd5b5061049e6114d1565b604051808273ffffffffffffffffffffffffffffffffffffffff1673ffffffffffffffffffffffffffffffffffffffff16815260200191505060405180910390f35b3480156104ec57600080fd5b506104f56114fa565b604051808215151515815260200191505060405180910390f35b34801561051b57600080fd5b5061055e6004803603602081101561053257600080fd5b81019080803573ffffffffffffffffffffffffffffffffffffffff169060200190929190505050611551565b005b34801561056c57600080fd5b506105a36004803603604081101561058357600080fd5b8101908080359060200190929190803590602001909291905050506115e9565b005b3480156105b157600080fd5b506105ba611803565b6040518082815260200191505060405180910390f35b3480156105dc57600080fd5b50610629600480360360408110156105f357600080fd5b81019080803573ffffffffffffffffffffffffffffffffffffffff16906020019092919080359060200190929190505050611809565b005b34801561063757600080fd5b5061067a6004803603602081101561064e57600080fd5b81019080803573ffffffffffffffffffffffffffffffffffffffff16906020019092919050505061185a565b005b34801561068857600080fd5b506106cb6004803603602081101561069f57600080fd5b81019080803573ffffffffffffffffffffffffffffffffffffffff169060200190929190505050611877565b604051808060200180602001838103835285818151815260200191508051906020019060200280838360005b838110156107125780820151818401526020810190506106f7565b50505050905001838103825284818151815260200191508051906020019060200280838360005b83811015610754578082015181840152602081019050610739565b5050505090500194505050505060405180910390f35b610772611ae3565b005b600160009054906101000a900460ff1681565b60405160200180807f456c656374696f6e0000000000000000000000000000000000000000000000008152506008019050604051602081830303815290604052805190602001203373ffffffffffffffffffffffffffffffffffffffff16600260009054906101000a900473ffffffffffffffffffffffffffffffffffffffff1673ffffffffffffffffffffffffffffffffffffffff1663dcf0aaed836040518263ffffffff1660e01b81526004018082815260200191505060206040518083038186803b15801561085857600080fd5b505afa15801561086c573d6000803e3d6000fd5b505050506040513d602081101561088257600080fd5b810190808051906020019092919050505073ffffffffffffffffffffffffffffffffffffffff161461091c576040517f08c379a00000000000000000000000000000000000000000000000000000000081526004018080602001828103825260188152602001807f6f6e6c79207265676973746572656420636f6e7472616374000000000000000081525060200191505060405180910390fd5b6109268383611d09565b505050565b60065481565b6001600080828254019250508190555060008054905061094f611dc9565b73ffffffffffffffffffffffffffffffffffffffff166325ca4c9c336040518263ffffffff1660e01b8152600401808273ffffffffffffffffffffffffffffffffffffffff1673ffffffffffffffffffffffffffffffffffffffff16815260200191505060206040518083038186803b1580156109cb57600080fd5b505afa1580156109df573d6000803e3d6000fd5b505050506040513d60208110156109f557600080fd5b8101908080519060200190929190505050610a0f57600080fd5b6000600360003373ffffffffffffffffffffffffffffffffffffffff1673ffffffffffffffffffffffffffffffffffffffff168152602001908152602001600020905080600301600101805490508310610a6857600080fd5b6000816003016001018481548110610a7c57fe5b906000526020600020906002020190508060010154421015610a9d57600080fd5b600081600001549050610ab68360030160010186611ec4565b610abe611f3e565b73ffffffffffffffffffffffffffffffffffffffff1663a9059cbb33836040518363ffffffff1660e01b8152600401808373ffffffffffffffffffffffffffffffffffffffff1673ffffffffffffffffffffffffffffffffffffffff16815260200182815260200192505050602060405180830381600087803b158015610b4457600080fd5b505af1158015610b58573d6000803e3d6000fd5b505050506040513d6020811015610b6e57600080fd5b8101908080519060200190929190505050610b8857600080fd5b3373ffffffffffffffffffffffffffffffffffffffff167f292d39ba701489b7f640c83806d3eeabe0a32c9f0a61b49e95612ebad42211cd826040518082815260200191505060405180910390a25050506000548114610be757600080fd5b5050565b6000610c89610bf8612039565b73ffffffffffffffffffffffffffffffffffffffff16639a0e7d666040518163ffffffff1660e01b815260040160206040518083038186803b158015610c3d57600080fd5b505afa158015610c51573d6000803e3d6000fd5b505050506040513d6020811015610c6757600080fd5b810190808051906020019092919050505060055461213490919063ffffffff16565b905090565b600080600360008473ffffffffffffffffffffffffffffffffffffffff1673ffffffffffffffffffffffffffffffffffffffff168152602001908152602001600020600301600001549050610daa610ce4612039565b73ffffffffffffffffffffffffffffffffffffffff16636c781a2c856040518263ffffffff1660e01b8152600401808273ffffffffffffffffffffffffffffffffffffffff1673ffffffffffffffffffffffffffffffffffffffff16815260200191505060206040518083038186803b158015610d6057600080fd5b505afa158015610d74573d6000803e3d6000fd5b505050506040513d6020811015610d8a57600080fd5b81019080805190602001909291905050508261213490919063ffffffff16565b915050919050565b6000600360008373ffffffffffffffffffffffffffffffffffffffff1673ffffffffffffffffffffffffffffffffffffffff168152602001908152602001600020600301600001549050919050565b60016000808282540192505081905550600080549050610e1f611dc9565b73ffffffffffffffffffffffffffffffffffffffff166325ca4c9c336040518263ffffffff1660e01b8152600401808273ffffffffffffffffffffffffffffffffffffffff1673ffffffffffffffffffffffffffffffffffffffff16815260200191505060206040518083038186803b158015610e9b57600080fd5b505afa158015610eaf573d6000803e3d6000fd5b505050506040513d6020811015610ec557600080fd5b8101908080519060200190929190505050610edf57600080fd5b6000600360003373ffffffffffffffffffffffffffffffffffffffff1673ffffffffffffffffffffffffffffffffffffffff1681526020019081526020016000209050610f2a612153565b73ffffffffffffffffffffffffffffffffffffffff16635f8dd649336040518263ffffffff1660e01b8152600401808273ffffffffffffffffffffffffffffffffffffffff1673ffffffffffffffffffffffffffffffffffffffff16815260200191505060206040518083038186803b158015610fa657600080fd5b505afa158015610fba573d6000803e3d6000fd5b505050506040513d6020811015610fd057600080fd5b810190808051906020019092919050505015610feb57600080fd5b6000610ff561224e565b73ffffffffffffffffffffffffffffffffffffffff1663dcff4cf6336040518263ffffffff1660e01b8152600401808273ffffffffffffffffffffffffffffffffffffffff1673ffffffffffffffffffffffffffffffffffffffff16815260200191505060206040518083038186803b15801561107157600080fd5b505afa158015611085573d6000803e3d6000fd5b505050506040513d602081101561109b57600080fd5b8101908080519060200190929190505050905060008114806110d757506110d3846110c533610c8e565b61234990919063ffffffff16565b8111155b6110e057600080fd5b6110ea3385611d09565b60006111016006544261213490919063ffffffff16565b9050826003016001016040518060400160405280878152602001838152509080600181540180825580915050906001820390600052602060002090600202016000909192909190915060008201518160000155602082015181600101555050503373ffffffffffffffffffffffffffffffffffffffff167fb1a3aef2a332070da206ad1868a5e327f5aa5144e00e9a7b40717c153158a5888683604051808381526020018281526020019250505060405180910390a250505060005481146111c857600080fd5b5050565b6111d46114fa565b6111dd57600080fd5b6006548114156111ec57600080fd5b806006819055507fd9274a7c98edc7c66931fc71872764091e7023fe3867358f8504d4c21b161fc5816040518082815260200191505060405180910390a150565b60405160200180807f456c656374696f6e0000000000000000000000000000000000000000000000008152506008019050604051602081830303815290604052805190602001203373ffffffffffffffffffffffffffffffffffffffff16600260009054906101000a900473ffffffffffffffffffffffffffffffffffffffff1673ffffffffffffffffffffffffffffffffffffffff1663dcf0aaed836040518263ffffffff1660e01b81526004018082815260200191505060206040518083038186803b1580156112fe57600080fd5b505afa158015611312573d6000803e3d6000fd5b505050506040513d602081101561132857600080fd5b810190808051906020019092919050505073ffffffffffffffffffffffffffffffffffffffff16146113c2576040517f08c379a00000000000000000000000000000000000000000000000000000000081526004018080602001828103825260188152602001807f6f6e6c79207265676973746572656420636f6e7472616374000000000000000081525060200191505060405180910390fd5b6113cc8383612369565b505050565b6113d96114fa565b6113e257600080fd5b600073ffffffffffffffffffffffffffffffffffffffff166001809054906101000a900473ffffffffffffffffffffffffffffffffffffffff1673ffffffffffffffffffffffffffffffffffffffff167f8be0079c531659141344cd1fd0a4f28419497f9722a3daafe3b4186f6b6457e060405160405180910390a360006001806101000a81548173ffffffffffffffffffffffffffffffffffffffff021916908373ffffffffffffffffffffffffffffffffffffffff160217905550565b600260009054906101000a900473ffffffffffffffffffffffffffffffffffffffff1681565b6000600554905090565b60006001809054906101000a900473ffffffffffffffffffffffffffffffffffffffff16905090565b60006001809054906101000a900473ffffffffffffffffffffffffffffffffffffffff1673ffffffffffffffffffffffffffffffffffffffff163373ffffffffffffffffffffffffffffffffffffffff1614905090565b6115596114fa565b61156257600080fd5b80600260006101000a81548173ffffffffffffffffffffffffffffffffffffffff021916908373ffffffffffffffffffffffffffffffffffffffff1602179055508073ffffffffffffffffffffffffffffffffffffffff167f27fe5f0c1c3b1ed427cc63d0f05759ffdecf9aec9e18d31ef366fc8a6cb5dc3b60405160405180910390a250565b60016000808282540192505081905550600080549050611607611dc9565b73ffffffffffffffffffffffffffffffffffffffff166325ca4c9c336040518263ffffffff1660e01b8152600401808273ffffffffffffffffffffffffffffffffffffffff1673ffffffffffffffffffffffffffffffffffffffff16815260200191505060206040518083038186803b15801561168357600080fd5b505afa158015611697573d6000803e3d6000fd5b505050506040513d60208110156116ad57600080fd5b81019080805190602001909291905050506116c757600080fd5b6000600360003373ffffffffffffffffffffffffffffffffffffffff1673ffffffffffffffffffffffffffffffffffffffff16815260200190815260200160002090508060030160010180549050841061172057600080fd5b600081600301600101858154811061173457fe5b90600052602060002090600202019050806000015484111561175557600080fd5b8060000154841415611776576117718260030160010186611ec4565b611796565b61178d84826000015461234990919063ffffffff16565b81600001819055505b6117a03385612369565b3373ffffffffffffffffffffffffffffffffffffffff167f0f0f2fc5b4c987a49e1663ce2c2d65de12f3b701ff02b4d09461421e63e609e7856040518082815260200191505060405180910390a2505060005481146117fe57600080fd5b505050565b60055481565b600160009054906101000a900460ff161561182357600080fd5b60018060006101000a81548160ff02191690831515021790555061184633612429565b61184f82611551565b806006819055505050565b6118626114fa565b61186b57600080fd5b61187481612429565b50565b606080611882611dc9565b73ffffffffffffffffffffffffffffffffffffffff166325ca4c9c846040518263ffffffff1660e01b8152600401808273ffffffffffffffffffffffffffffffffffffffff1673ffffffffffffffffffffffffffffffffffffffff16815260200191505060206040518083038186803b1580156118fe57600080fd5b505afa158015611912573d6000803e3d6000fd5b505050506040513d602081101561192857600080fd5b810190808051906020019092919050505061194257600080fd5b6000600360008573ffffffffffffffffffffffffffffffffffffffff1673ffffffffffffffffffffffffffffffffffffffff1681526020019081526020016000206003016001018054905090506060816040519080825280602002602001820160405280156119c05781602001602082028038833980820191505090505b5090506060826040519080825280602002602001820160405280156119f45781602001602082028038833980820191505090505b50905060008090505b83811015611ad457611a0d612521565b600360008973ffffffffffffffffffffffffffffffffffffffff1673ffffffffffffffffffffffffffffffffffffffff1681526020019081526020016000206003016001018281548110611a5d57fe5b90600052602060002090600202016040518060400160405290816000820154815260200160018201548152505090508060000151848381518110611a9d57fe5b6020026020010181815250508060200151838381518110611aba57fe5b6020026020010181815250505080806001019150506119fd565b50818194509450505050915091565b60016000808282540192505081905550600080549050611b01611dc9565b73ffffffffffffffffffffffffffffffffffffffff166325ca4c9c336040518263ffffffff1660e01b8152600401808273ffffffffffffffffffffffffffffffffffffffff1673ffffffffffffffffffffffffffffffffffffffff16815260200191505060206040518083038186803b158015611b7d57600080fd5b505afa158015611b91573d6000803e3d6000fd5b505050506040513d6020811015611ba757600080fd5b8101908080519060200190929190505050611c2a576040517f08c379a000000000000000000000000000000000000000000000000000000000815260040180806020018281038252600b8152602001807f6e6f74206163636f756e7400000000000000000000000000000000000000000081525060200191505060405180910390fd5b60003411611ca0576040517f08c379a00000000000000000000000000000000000000000000000000000000081526004018080602001828103825260088152602001807f6e6f2076616c756500000000000000000000000000000000000000000000000081525060200191505060405180910390fd5b611caa3334612369565b3373ffffffffffffffffffffffffffffffffffffffff167f0f0f2fc5b4c987a49e1663ce2c2d65de12f3b701ff02b4d09461421e63e609e7346040518082815260200191505060405180910390a26000548114611d0657600080fd5b50565b611d6181600360008573ffffffffffffffffffffffffffffffffffffffff1673ffffffffffffffffffffffffffffffffffffffff1681526020019081526020016000206003016000015461234990919063ffffffff16565b600360008473ffffffffffffffffffffffffffffffffffffffff1673ffffffffffffffffffffffffffffffffffffffff16815260200190815260200160002060030160000181905550611dbf8160055461234990919063ffffffff16565b6005819055505050565b6000600260009054906101000a900473ffffffffffffffffffffffffffffffffffffffff1673ffffffffffffffffffffffffffffffffffffffff1663dcf0aaed60405160200180807f4163636f756e74730000000000000000000000000000000000000000000000008152506008019050604051602081830303815290604052805190602001206040518263ffffffff1660e01b81526004018082815260200191505060206040518083038186803b158015611e8457600080fd5b505afa158015611e98573d6000803e3d6000fd5b505050506040513d6020811015611eae57600080fd5b8101908080519060200190929190505050905090565b6000611ede6001848054905061234990919063ffffffff16565b9050828181548110611eec57fe5b9060005260206000209060020201838381548110611f0657fe5b90600052602060002090600202016000820154816000015560018201548160010155905050808381611f38919061253b565b50505050565b6000600260009054906101000a900473ffffffffffffffffffffffffffffffffffffffff1673ffffffffffffffffffffffffffffffffffffffff1663dcf0aaed60405160200180807f476f6c64546f6b656e00000000000000000000000000000000000000000000008152506009019050604051602081830303815290604052805190602001206040518263ffffffff1660e01b81526004018082815260200191505060206040518083038186803b158015611ff957600080fd5b505afa15801561200d573d6000803e3d6000fd5b505050506040513d602081101561202357600080fd5b8101908080519060200190929190505050905090565b6000600260009054906101000a900473ffffffffffffffffffffffffffffffffffffffff1673ffffffffffffffffffffffffffffffffffffffff1663dcf0aaed60405160200180807f456c656374696f6e0000000000000000000000000000000000000000000000008152506008019050604051602081830303815290604052805190602001206040518263ffffffff1660e01b81526004018082815260200191505060206040518083038186803b1580156120f457600080fd5b505afa158015612108573d6000803e3d6000fd5b505050506040513d602081101561211e57600080fd5b8101908080519060200190929190505050905090565b60008082840190508381101561214957600080fd5b8091505092915050565b6000600260009054906101000a900473ffffffffffffffffffffffffffffffffffffffff1673ffffffffffffffffffffffffffffffffffffffff1663dcf0aaed60405160200180807f476f7665726e616e636500000000000000000000000000000000000000000000815250600a019050604051602081830303815290604052805190602001206040518263ffffffff1660e01b81526004018082815260200191505060206040518083038186803b15801561220e57600080fd5b505afa158015612222573d6000803e3d6000fd5b505050506040513d602081101561223857600080fd5b8101908080519060200190929190505050905090565b6000600260009054906101000a900473ffffffffffffffffffffffffffffffffffffffff1673ffffffffffffffffffffffffffffffffffffffff1663dcf0aaed60405160200180807f56616c696461746f727300000000000000000000000000000000000000000000815250600a019050604051602081830303815290604052805190602001206040518263ffffffff1660e01b81526004018082815260200191505060206040518083038186803b15801561230957600080fd5b505afa15801561231d573d6000803e3d6000fd5b505050506040513d602081101561233357600080fd5b8101908080519060200190929190505050905090565b60008282111561235857600080fd5b600082840390508091505092915050565b6123c181600360008573ffffffffffffffffffffffffffffffffffffffff1673ffffffffffffffffffffffffffffffffffffffff1681526020019081526020016000206003016000015461213490919063ffffffff16565b600360008473ffffffffffffffffffffffffffffffffffffffff1673ffffffffffffffffffffffffffffffffffffffff1681526020019081526020016000206003016000018190555061241f8160055461213490919063ffffffff16565b6005819055505050565b600073ffffffffffffffffffffffffffffffffffffffff168173ffffffffffffffffffffffffffffffffffffffff16141561246357600080fd5b8073ffffffffffffffffffffffffffffffffffffffff166001809054906101000a900473ffffffffffffffffffffffffffffffffffffffff1673ffffffffffffffffffffffffffffffffffffffff167f8be0079c531659141344cd1fd0a4f28419497f9722a3daafe3b4186f6b6457e060405160405180910390a3806001806101000a81548173ffffffffffffffffffffffffffffffffffffffff021916908373ffffffffffffffffffffffffffffffffffffffff16021790555050565b604051806040016040528060008152602001600081525090565b81548183558181111561256857600202816002028360005260206000209182019101612567919061256d565b5b505050565b61259991905b8082111561259557600080820160009055600182016000905550600201612573565b5090565b9056fea165627a7a72305820c50d8c0dcd1b78fd0197cec45543bc847dc84b98ec2fa50acc3aac775687174c0029",
  "source": "pragma solidity ^0.5.3;\n\nimport \"openzeppelin-solidity/contracts/utils/ReentrancyGuard.sol\";\nimport \"openzeppelin-solidity/contracts/math/SafeMath.sol\";\nimport \"openzeppelin-solidity/contracts/ownership/Ownable.sol\";\n\nimport \"./interfaces/ILockedGold.sol\";\n\nimport \"../common/Initializable.sol\";\nimport \"../common/Signatures.sol\";\nimport \"../common/UsingRegistry.sol\";\n\ncontract LockedGold is ILockedGold, ReentrancyGuard, Initializable, UsingRegistry {\n  using SafeMath for uint256;\n\n  struct Authorizations {\n    // The address that is authorized to vote on behalf of the account.\n    // The account can vote as well, whether or not an authorized voter has been specified.\n    address voting;\n    // The address that is authorized to validate on behalf of the account.\n    // The account can manage the validator, whether or not an authorized validator has been\n    // specified. However if an authorized validator has been specified, only that key may actually\n    // participate in consensus.\n    address validating;\n  }\n\n  struct PendingWithdrawal {\n    // The value of the pending withdrawal.\n    uint256 value;\n    // The timestamp at which the pending withdrawal becomes available.\n    uint256 timestamp;\n  }\n\n  // NOTE: This contract does not store an account's locked gold that is being used in electing\n  // validators.\n  struct Balances {\n    // The amount of locked gold that this account has that is not currently participating in\n    // validator elections.\n    uint256 nonvoting;\n    // Gold that has been unlocked and will become available for withdrawal.\n    PendingWithdrawal[] pendingWithdrawals;\n  }\n\n  struct Account {\n    bool exists;\n    // Each account may authorize additional keys to use for voting or valdiating.\n    // These keys may not be keys of other accounts, and may not be authorized by any other\n    // account for any purpose.\n    Authorizations authorizations;\n    Balances balances;\n  }\n\n  mapping(address => Account) private accounts;\n  // Maps voting and validating keys to the account that provided the authorization.\n  // Authorized addresses may not be reused.\n  mapping(address => address) private authorizedBy;\n  uint256 public totalNonvoting;\n  uint256 public unlockingPeriod;\n\n  event UnlockingPeriodSet(uint256 period);\n  event GoldLocked(address indexed account, uint256 value);\n  event GoldUnlocked(address indexed account, uint256 value, uint256 available);\n  event GoldWithdrawn(address indexed account, uint256 value);\n\n  function initialize(address registryAddress, uint256 _unlockingPeriod) external initializer {\n    _transferOwnership(msg.sender);\n    setRegistry(registryAddress);\n    unlockingPeriod = _unlockingPeriod;\n  }\n\n  /**\n   * @notice Sets the duration in seconds users must wait before withdrawing gold after unlocking.\n   * @param value The unlocking period in seconds.\n   */\n  function setUnlockingPeriod(uint256 value) external onlyOwner {\n    require(value != unlockingPeriod);\n    unlockingPeriod = value;\n    emit UnlockingPeriodSet(value);\n  }\n\n  /**\n   * @notice Locks gold to be used for voting.\n   */\n  function lock() external payable nonReentrant {\n    require(getAccounts().isAccount(msg.sender), \"not account\");\n    require(msg.value > 0, \"no value\");\n    _incrementNonvotingAccountBalance(msg.sender, msg.value);\n    emit GoldLocked(msg.sender, msg.value);\n  }\n\n  /**\n   * @notice Increments the non-voting balance for an account.\n   * @param account The account whose non-voting balance should be incremented.\n   * @param value The amount by which to increment.\n   * @dev Can only be called by the registered Election smart contract.\n   */\n  function incrementNonvotingAccountBalance(address account, uint256 value)\n    external\n    onlyRegisteredContract(ELECTION_REGISTRY_ID)\n  {\n    _incrementNonvotingAccountBalance(account, value);\n  }\n\n  /**\n   * @notice Decrements the non-voting balance for an account.\n   * @param account The account whose non-voting balance should be decremented.\n   * @param value The amount by which to decrement.\n   * @dev Can only be called by the registered \"Election\" smart contract.\n   */\n  function decrementNonvotingAccountBalance(address account, uint256 value)\n    external\n    onlyRegisteredContract(ELECTION_REGISTRY_ID)\n  {\n    _decrementNonvotingAccountBalance(account, value);\n  }\n\n  /**\n   * @notice Increments the non-voting balance for an account.\n   * @param account The account whose non-voting balance should be incremented.\n   * @param value The amount by which to increment.\n   */\n  function _incrementNonvotingAccountBalance(address account, uint256 value) private {\n    accounts[account].balances.nonvoting = accounts[account].balances.nonvoting.add(value);\n    totalNonvoting = totalNonvoting.add(value);\n  }\n\n  /**\n   * @notice Decrements the non-voting balance for an account.\n   * @param account The account whose non-voting balance should be decremented.\n   * @param value The amount by which to decrement.\n   */\n  function _decrementNonvotingAccountBalance(address account, uint256 value) private {\n    accounts[account].balances.nonvoting = accounts[account].balances.nonvoting.sub(value);\n    totalNonvoting = totalNonvoting.sub(value);\n  }\n\n  /**\n   * @notice Unlocks gold that becomes withdrawable after the unlocking period.\n   * @param value The amount of gold to unlock.\n   */\n  function unlock(uint256 value) external nonReentrant {\n    require(getAccounts().isAccount(msg.sender));\n    Account storage account = accounts[msg.sender];\n    // Prevent unlocking gold when voting on governance proposals so that the gold cannot be\n    // used to vote more than once.\n    require(!getGovernance().isVoting(msg.sender));\n    uint256 balanceRequirement = getValidators().getAccountLockedGoldRequirement(msg.sender);\n    require(\n      balanceRequirement == 0 ||\n        balanceRequirement <= getAccountTotalLockedGold(msg.sender).sub(value)\n    );\n    _decrementNonvotingAccountBalance(msg.sender, value);\n    uint256 available = now.add(unlockingPeriod);\n    account.balances.pendingWithdrawals.push(PendingWithdrawal(value, available));\n    emit GoldUnlocked(msg.sender, value, available);\n  }\n\n  /**\n   * @notice Relocks gold that has been unlocked but not withdrawn.\n   * @param index The index of the pending withdrawal to relock from.\n   * @param value The value to relock from the specified pending withdrawal.\n   */\n  function relock(uint256 index, uint256 value) external nonReentrant {\n    require(getAccounts().isAccount(msg.sender));\n    Account storage account = accounts[msg.sender];\n    require(index < account.balances.pendingWithdrawals.length);\n    PendingWithdrawal storage pendingWithdrawal = account.balances.pendingWithdrawals[index];\n    require(value <= pendingWithdrawal.value);\n    if (value == pendingWithdrawal.value) {\n      deletePendingWithdrawal(account.balances.pendingWithdrawals, index);\n    } else {\n      pendingWithdrawal.value = pendingWithdrawal.value.sub(value);\n    }\n    _incrementNonvotingAccountBalance(msg.sender, value);\n    emit GoldLocked(msg.sender, value);\n  }\n\n  /**\n   * @notice Withdraws gold that has been unlocked after the unlocking period has passed.\n   * @param index The index of the pending withdrawal to withdraw.\n   */\n  function withdraw(uint256 index) external nonReentrant {\n    require(getAccounts().isAccount(msg.sender));\n    Account storage account = accounts[msg.sender];\n    require(index < account.balances.pendingWithdrawals.length);\n    PendingWithdrawal storage pendingWithdrawal = account.balances.pendingWithdrawals[index];\n    require(now >= pendingWithdrawal.timestamp);\n    uint256 value = pendingWithdrawal.value;\n    deletePendingWithdrawal(account.balances.pendingWithdrawals, index);\n    require(getGoldToken().transfer(msg.sender, value));\n    emit GoldWithdrawn(msg.sender, value);\n  }\n\n  /**\n   * @notice Returns the total amount of locked gold in the system. Note that this does not include\n   *   gold that has been unlocked but not yet withdrawn.\n   * @return The total amount of locked gold in the system.\n   */\n  function getTotalLockedGold() external view returns (uint256) {\n    return totalNonvoting.add(getElection().getTotalVotes());\n  }\n\n  /**\n   * @notice Returns the total amount of locked gold not being used to vote in elections.\n   * @return The total amount of locked gold not being used to vote in elections.\n   */\n  function getNonvotingLockedGold() external view returns (uint256) {\n    return totalNonvoting;\n  }\n\n  /**\n   * @notice Returns the total amount of locked gold for an account.\n   * @param account The account.\n   * @return The total amount of locked gold for an account.\n   */\n  function getAccountTotalLockedGold(address account) public view returns (uint256) {\n    uint256 total = accounts[account].balances.nonvoting;\n    return total.add(getElection().getTotalVotesByAccount(account));\n  }\n\n  /**\n   * @notice Returns the total amount of non-voting locked gold for an account.\n   * @param account The account.\n   * @return The total amount of non-voting locked gold for an account.\n   */\n  function getAccountNonvotingLockedGold(address account) external view returns (uint256) {\n    return accounts[account].balances.nonvoting;\n  }\n\n  /**\n   * @notice Returns the pending withdrawals from unlocked gold for an account.\n   * @param account The address of the account.\n   * @return The value and timestamp for each pending withdrawal.\n   */\n  function getPendingWithdrawals(address account)\n    external\n    view\n    returns (uint256[] memory, uint256[] memory)\n  {\n    require(getAccounts().isAccount(account));\n    uint256 length = accounts[account].balances.pendingWithdrawals.length;\n    uint256[] memory values = new uint256[](length);\n    uint256[] memory timestamps = new uint256[](length);\n    for (uint256 i = 0; i < length; i++) {\n      PendingWithdrawal memory pendingWithdrawal = (\n        accounts[account].balances.pendingWithdrawals[i]\n      );\n      values[i] = pendingWithdrawal.value;\n      timestamps[i] = pendingWithdrawal.timestamp;\n    }\n    return (values, timestamps);\n  }\n\n  /**\n   * @notice Deletes a pending withdrawal.\n   * @param list The list of pending withdrawals from which to delete.\n   * @param index The index of the pending withdrawal to delete.\n   */\n  function deletePendingWithdrawal(PendingWithdrawal[] storage list, uint256 index) private {\n    uint256 lastIndex = list.length.sub(1);\n    list[index] = list[lastIndex];\n    list.length = lastIndex;\n  }\n}\n",
  "sourcePath": "/Users/cmcewen/celo/celo-monorepo/packages/protocol/contracts/governance/LockedGold.sol",
  "compiler": {
    "name": "solc",
    "version": "0.5.8+commit.23d335f2.Emscripten.clang"
  },
  "schemaVersion": "3.0.10",
  "updatedAt": "2019-12-06T00:16:04.871Z",
  "devdoc": {
    "methods": {
      "decrementNonvotingAccountBalance(address,uint256)": {
        "details": "Can only be called by the registered \"Election\" smart contract.",
        "params": {
          "account": "The account whose non-voting balance should be decremented.",
          "value": "The amount by which to decrement."
        }
      },
      "getAccountNonvotingLockedGold(address)": {
        "params": {
          "account": "The account."
        },
        "return": "The total amount of non-voting locked gold for an account."
      },
      "getAccountTotalLockedGold(address)": {
        "params": {
          "account": "The account."
        },
        "return": "The total amount of locked gold for an account."
      },
      "getNonvotingLockedGold()": {
        "return": "The total amount of locked gold not being used to vote in elections."
      },
      "getPendingWithdrawals(address)": {
        "params": {
          "account": "The address of the account."
        },
        "return": "The value and timestamp for each pending withdrawal."
      },
      "getTotalLockedGold()": {
        "return": "The total amount of locked gold in the system."
      },
      "incrementNonvotingAccountBalance(address,uint256)": {
        "details": "Can only be called by the registered Election smart contract.",
        "params": {
          "account": "The account whose non-voting balance should be incremented.",
          "value": "The amount by which to increment."
        }
      },
      "isOwner()": {
        "return": "true if `msg.sender` is the owner of the contract."
      },
      "owner()": {
        "return": "the address of the owner."
      },
      "relock(uint256,uint256)": {
        "params": {
          "index": "The index of the pending withdrawal to relock from.",
          "value": "The value to relock from the specified pending withdrawal."
        }
      },
      "renounceOwnership()": {
        "details": "Allows the current owner to relinquish control of the contract. It will not be possible to call the functions with the `onlyOwner` modifier anymore."
      },
      "setRegistry(address)": {
        "params": {
          "registryAddress": "The address of a registry contract for routing to other contracts."
        }
      },
      "setUnlockingPeriod(uint256)": {
        "params": {
          "value": "The unlocking period in seconds."
        }
      },
      "transferOwnership(address)": {
        "details": "Allows the current owner to transfer control of the contract to a newOwner.",
        "params": {
          "newOwner": "The address to transfer ownership to."
        }
      },
      "unlock(uint256)": {
        "params": {
          "value": "The amount of gold to unlock."
        }
      },
      "withdraw(uint256)": {
        "params": {
          "index": "The index of the pending withdrawal to withdraw."
        }
      }
    }
  },
  "userdoc": {
    "methods": {
      "decrementNonvotingAccountBalance(address,uint256)": {
        "notice": "Decrements the non-voting balance for an account."
      },
      "getAccountNonvotingLockedGold(address)": {
        "notice": "Returns the total amount of non-voting locked gold for an account."
      },
      "getAccountTotalLockedGold(address)": {
        "notice": "Returns the total amount of locked gold for an account."
      },
      "getNonvotingLockedGold()": {
        "notice": "Returns the total amount of locked gold not being used to vote in elections."
      },
      "getPendingWithdrawals(address)": {
        "notice": "Returns the pending withdrawals from unlocked gold for an account."
      },
      "getTotalLockedGold()": {
        "notice": "Returns the total amount of locked gold in the system. Note that this does not include  gold that has been unlocked but not yet withdrawn."
      },
      "incrementNonvotingAccountBalance(address,uint256)": {
        "notice": "Increments the non-voting balance for an account."
      },
      "lock()": {
        "notice": "Locks gold to be used for voting."
      },
      "relock(uint256,uint256)": {
        "notice": "Relocks gold that has been unlocked but not withdrawn."
      },
      "renounceOwnership()": {
        "notice": "Renouncing ownership will leave the contract without an owner, thereby removing any functionality that is only available to the owner."
      },
      "setRegistry(address)": {
        "notice": "Updates the address pointing to a Registry contract."
      },
      "setUnlockingPeriod(uint256)": {
        "notice": "Sets the duration in seconds users must wait before withdrawing gold after unlocking."
      },
      "unlock(uint256)": {
        "notice": "Unlocks gold that becomes withdrawable after the unlocking period."
      },
      "withdraw(uint256)": {
        "notice": "Withdraws gold that has been unlocked after the unlocking period has passed."
      }
    }
  }
}