{
  "contractName": "MockAttestations",
  "abi": [
    {
      "constant": false,
      "inputs": [
        {
          "name": "identifier",
          "type": "bytes32"
        },
        {
          "name": "",
          "type": "uint8"
        },
        {
          "name": "",
          "type": "bytes32"
        },
        {
          "name": "",
          "type": "bytes32"
        }
      ],
      "name": "complete",
      "outputs": [],
      "payable": false,
      "stateMutability": "nonpayable",
      "type": "function"
    },
    {
      "constant": true,
      "inputs": [
        {
          "name": "identifier",
          "type": "bytes32"
        },
        {
          "name": "account",
          "type": "address"
        }
      ],
      "name": "getAttestationStats",
      "outputs": [
        {
          "name": "",
          "type": "uint64"
        },
        {
          "name": "",
          "type": "uint64"
        }
      ],
      "payable": false,
      "stateMutability": "view",
      "type": "function"
    }
  ],
  "bytecode": "0x608060405234801561001057600080fd5b506102b8806100206000396000f3fe608060405234801561001057600080fd5b50600436106100365760003560e01c8063596abea51461003b578063fb6a2e53146100cc575b600080fd5b6100876004803603604081101561005157600080fd5b8101908080359060200190929190803573ffffffffffffffffffffffffffffffffffffffff16906020019092919050505061011b565b604051808367ffffffffffffffff1667ffffffffffffffff1681526020018267ffffffffffffffff1667ffffffffffffffff1681526020019250505060405180910390f35b610119600480360360808110156100e257600080fd5b8101908080359060200190929190803560ff16906020019092919080359060200190929190803590602001909291905050506101ec565b005b60008060008085815260200190815260200160002060010160008473ffffffffffffffffffffffffffffffffffffffff1673ffffffffffffffffffffffffffffffffffffffff16815260200190815260200160002060000160009054906101000a900467ffffffffffffffff1660008086815260200190815260200160002060010160008573ffffffffffffffffffffffffffffffffffffffff1673ffffffffffffffffffffffffffffffffffffffff16815260200190815260200160002060010180549050915091509250929050565b60008085815260200190815260200160002060010160003373ffffffffffffffffffffffffffffffffffffffff1673ffffffffffffffffffffffffffffffffffffffff168152602001908152602001600020600001600081819054906101000a900467ffffffffffffffff168092919060010191906101000a81548167ffffffffffffffff021916908367ffffffffffffffff160217905550505050505056fea165627a7a72305820f90b72004d74f34e011dd9892449dedb08161651ae112e0b2da4e45a332867ac0029",
  "source": "pragma solidity ^0.5.3;\n\nimport \"openzeppelin-solidity/contracts/math/SafeMath.sol\";\n\n/**\n * @title A mock Attestations for testing.\n */\ncontract MockAttestations {\n  enum AttestationStatus { None, Incomplete, Complete }\n\n  struct Attestation {\n    AttestationStatus status;\n    uint128 time;\n  }\n\n  struct Attestations {\n    uint64 completed;\n    address[] issuers;\n    mapping(address => Attestation) issuedAttestations;\n  }\n\n  struct IdentifierState {\n    address[] accounts;\n    mapping(address => Attestations) attestations;\n  }\n\n  mapping(bytes32 => IdentifierState) identifiers;\n\n  function complete(bytes32 identifier, uint8, bytes32, bytes32) external {\n    identifiers[identifier].attestations[msg.sender].completed++;\n  }\n\n  function getAttestationStats(bytes32 identifier, address account)\n    external\n    view\n    returns (uint64, uint64)\n  {\n    return (\n      identifiers[identifier].attestations[account].completed,\n      uint64(identifiers[identifier].attestations[account].issuers.length)\n    );\n  }\n}\n",
  "sourcePath": "/Users/cmcewen/celo/celo-monorepo/packages/protocol/contracts/identity/test/MockAttestations.sol",
  "compiler": {
    "name": "solc",
    "version": "0.5.8+commit.23d335f2.Emscripten.clang"
  },
  "schemaVersion": "3.0.10",
  "updatedAt": "2019-12-06T00:01:36.119Z",
  "devdoc": {
    "methods": {},
    "title": "A mock Attestations for testing."
  },
  "userdoc": {
    "methods": {}
  }
}