{
  "contractName": "MockLockedGold",
  "abi": [
    {
      "constant": true,
      "inputs": [
        {
          "name": "",
          "type": "address"
        }
      ],
      "name": "accountTotalLockedGold",
      "outputs": [
        {
          "name": "",
          "type": "uint256"
        }
      ],
      "payable": false,
      "stateMutability": "view",
      "type": "function"
    },
    {
      "constant": true,
      "inputs": [
        {
          "name": "",
          "type": "address"
        }
      ],
      "name": "authorizedValidators",
      "outputs": [
        {
          "name": "",
          "type": "address"
        }
      ],
      "payable": false,
      "stateMutability": "view",
      "type": "function"
    },
    {
      "constant": true,
      "inputs": [
        {
          "name": "",
          "type": "address"
        }
      ],
      "name": "authorizedBy",
      "outputs": [
        {
          "name": "",
          "type": "address"
        }
      ],
      "payable": false,
      "stateMutability": "view",
      "type": "function"
    },
    {
      "constant": true,
      "inputs": [
        {
          "name": "",
          "type": "address"
        }
      ],
      "name": "nonvotingAccountBalance",
      "outputs": [
        {
          "name": "",
          "type": "uint256"
        }
      ],
      "payable": false,
      "stateMutability": "view",
      "type": "function"
    },
    {
      "constant": false,
      "inputs": [
        {
          "name": "account",
          "type": "address"
        },
        {
          "name": "value",
          "type": "uint256"
        }
      ],
      "name": "incrementNonvotingAccountBalance",
      "outputs": [],
      "payable": false,
      "stateMutability": "nonpayable",
      "type": "function"
    },
    {
      "constant": false,
      "inputs": [
        {
          "name": "account",
          "type": "address"
        },
        {
          "name": "value",
          "type": "uint256"
        }
      ],
      "name": "decrementNonvotingAccountBalance",
      "outputs": [],
      "payable": false,
      "stateMutability": "nonpayable",
      "type": "function"
    },
    {
      "constant": false,
      "inputs": [
        {
          "name": "account",
          "type": "address"
        },
        {
          "name": "value",
          "type": "uint256"
        }
      ],
      "name": "setAccountTotalLockedGold",
      "outputs": [],
      "payable": false,
      "stateMutability": "nonpayable",
      "type": "function"
    },
    {
      "constant": true,
      "inputs": [
        {
          "name": "account",
          "type": "address"
        }
      ],
      "name": "getAccountTotalLockedGold",
      "outputs": [
        {
          "name": "",
          "type": "uint256"
        }
      ],
      "payable": false,
      "stateMutability": "view",
      "type": "function"
    },
    {
      "constant": false,
      "inputs": [
        {
          "name": "value",
          "type": "uint256"
        }
      ],
      "name": "setTotalLockedGold",
      "outputs": [],
      "payable": false,
      "stateMutability": "nonpayable",
      "type": "function"
    },
    {
      "constant": true,
      "inputs": [],
      "name": "getTotalLockedGold",
      "outputs": [
        {
          "name": "",
          "type": "uint256"
        }
      ],
      "payable": false,
      "stateMutability": "view",
      "type": "function"
    }
  ],
  "bytecode": "0x608060405234801561001057600080fd5b506106bf806100206000396000f3fe608060405234801561001057600080fd5b506004361061009e5760003560e01c80636edf77a5116100665780636edf77a514610243578063b5a664c214610291578063dca0afc114610315578063f0f8b02f1461036d578063ff7cb832146103bb5761009e565b806318a4ff8c146100a35780631ea3eba7146100f157806330a61d591461014957806330ec70f51461016757806358714163146101bf575b600080fd5b6100ef600480360360408110156100b957600080fd5b81019080803573ffffffffffffffffffffffffffffffffffffffff169060200190929190803590602001909291905050506103e9565b005b6101336004803603602081101561010757600080fd5b81019080803573ffffffffffffffffffffffffffffffffffffffff169060200190929190505050610482565b6040518082815260200191505060405180910390f35b61015161049a565b6040518082815260200191505060405180910390f35b6101a96004803603602081101561017d57600080fd5b81019080803573ffffffffffffffffffffffffffffffffffffffff1690602001909291905050506104a4565b6040518082815260200191505060405180910390f35b610201600480360360208110156101d557600080fd5b81019080803573ffffffffffffffffffffffffffffffffffffffff1690602001909291905050506104ec565b604051808273ffffffffffffffffffffffffffffffffffffffff1673ffffffffffffffffffffffffffffffffffffffff16815260200191505060405180910390f35b61028f6004803603604081101561025957600080fd5b81019080803573ffffffffffffffffffffffffffffffffffffffff1690602001909291908035906020019092919050505061051f565b005b6102d3600480360360208110156102a757600080fd5b81019080803573ffffffffffffffffffffffffffffffffffffffff1690602001909291905050506105b8565b604051808273ffffffffffffffffffffffffffffffffffffffff1673ffffffffffffffffffffffffffffffffffffffff16815260200191505060405180910390f35b6103576004803603602081101561032b57600080fd5b81019080803573ffffffffffffffffffffffffffffffffffffffff1690602001909291905050506105eb565b6040518082815260200191505060405180910390f35b6103b96004803603604081101561038357600080fd5b81019080803573ffffffffffffffffffffffffffffffffffffffff16906020019092919080359060200190929190505050610603565b005b6103e7600480360360208110156103d157600080fd5b810190808035906020019092919050505061064a565b005b61043b81600160008573ffffffffffffffffffffffffffffffffffffffff1673ffffffffffffffffffffffffffffffffffffffff1681526020019081526020016000205461065490919063ffffffff16565b600160008473ffffffffffffffffffffffffffffffffffffffff1673ffffffffffffffffffffffffffffffffffffffff168152602001908152602001600020819055505050565b60006020528060005260406000206000915090505481565b6000600454905090565b60008060008373ffffffffffffffffffffffffffffffffffffffff1673ffffffffffffffffffffffffffffffffffffffff168152602001908152602001600020549050919050565b60026020528060005260406000206000915054906101000a900473ffffffffffffffffffffffffffffffffffffffff1681565b61057181600160008573ffffffffffffffffffffffffffffffffffffffff1673ffffffffffffffffffffffffffffffffffffffff1681526020019081526020016000205461067490919063ffffffff16565b600160008473ffffffffffffffffffffffffffffffffffffffff1673ffffffffffffffffffffffffffffffffffffffff168152602001908152602001600020819055505050565b60036020528060005260406000206000915054906101000a900473ffffffffffffffffffffffffffffffffffffffff1681565b60016020528060005260406000206000915090505481565b806000808473ffffffffffffffffffffffffffffffffffffffff1673ffffffffffffffffffffffffffffffffffffffff168152602001908152602001600020819055505050565b8060048190555050565b60008282111561066357600080fd5b600082840390508091505092915050565b60008082840190508381101561068957600080fd5b809150509291505056fea165627a7a723058209d723595ca0a731a77afb07be2327733aa0a3fab61a04406e208c7e7db4cf6dd0029",
  "source": "pragma solidity ^0.5.3;\n\nimport \"openzeppelin-solidity/contracts/math/SafeMath.sol\";\n\nimport \"../interfaces/ILockedGold.sol\";\n\n/**\n * @title A mock LockedGold for testing.\n */\ncontract MockLockedGold is ILockedGold {\n  using SafeMath for uint256;\n\n  struct Authorizations {\n    address validator;\n    address voter;\n  }\n\n  mapping(address => uint256) public accountTotalLockedGold;\n  mapping(address => uint256) public nonvotingAccountBalance;\n  mapping(address => address) public authorizedValidators;\n  mapping(address => address) public authorizedBy;\n  uint256 private totalLockedGold;\n\n  function incrementNonvotingAccountBalance(address account, uint256 value) external {\n    nonvotingAccountBalance[account] = nonvotingAccountBalance[account].add(value);\n  }\n\n  function decrementNonvotingAccountBalance(address account, uint256 value) external {\n    nonvotingAccountBalance[account] = nonvotingAccountBalance[account].sub(value);\n  }\n\n  function setAccountTotalLockedGold(address account, uint256 value) external {\n    accountTotalLockedGold[account] = value;\n  }\n\n  function getAccountTotalLockedGold(address account) external view returns (uint256) {\n    return accountTotalLockedGold[account];\n  }\n\n  function setTotalLockedGold(uint256 value) external {\n    totalLockedGold = value;\n  }\n  function getTotalLockedGold() external view returns (uint256) {\n    return totalLockedGold;\n  }\n}\n",
  "sourcePath": "/Users/cmcewen/celo/celo-monorepo/packages/protocol/contracts/governance/test/MockLockedGold.sol",
  "compiler": {
    "name": "solc",
    "version": "0.5.8+commit.23d335f2.Emscripten.clang"
  },
  "schemaVersion": "3.0.10",
  "updatedAt": "2019-12-06T00:01:35.969Z",
  "devdoc": {
    "methods": {},
    "title": "A mock LockedGold for testing."
  },
  "userdoc": {
    "methods": {}
  }
}