{
  "contractName": "MockElection",
  "abi": [
    {
      "constant": true,
      "inputs": [
        {
          "name": "",
          "type": "uint256"
        }
      ],
      "name": "electedValidators",
      "outputs": [
        {
          "name": "",
          "type": "address"
        }
      ],
      "payable": false,
      "stateMutability": "view",
      "type": "function"
    },
    {
      "constant": true,
      "inputs": [
        {
          "name": "",
          "type": "address"
        }
      ],
      "name": "isEligible",
      "outputs": [
        {
          "name": "",
          "type": "bool"
        }
      ],
      "payable": false,
      "stateMutability": "view",
      "type": "function"
    },
    {
      "constant": true,
      "inputs": [
        {
          "name": "",
          "type": "address"
        }
      ],
      "name": "isIneligible",
      "outputs": [
        {
          "name": "",
          "type": "bool"
        }
      ],
      "payable": false,
      "stateMutability": "view",
      "type": "function"
    },
    {
      "constant": false,
      "inputs": [
        {
          "name": "account",
          "type": "address"
        }
      ],
      "name": "markGroupIneligible",
      "outputs": [],
      "payable": false,
      "stateMutability": "nonpayable",
      "type": "function"
    },
    {
      "constant": false,
      "inputs": [
        {
          "name": "account",
          "type": "address"
        },
        {
          "name": "",
          "type": "address"
        },
        {
          "name": "",
          "type": "address"
        }
      ],
      "name": "markGroupEligible",
      "outputs": [],
      "payable": false,
      "stateMutability": "nonpayable",
      "type": "function"
    },
    {
      "constant": true,
      "inputs": [],
      "name": "getTotalVotes",
      "outputs": [
        {
          "name": "",
          "type": "uint256"
        }
      ],
      "payable": false,
      "stateMutability": "view",
      "type": "function"
    },
    {
      "constant": true,
      "inputs": [],
      "name": "getActiveVotes",
      "outputs": [
        {
          "name": "",
          "type": "uint256"
        }
      ],
      "payable": false,
      "stateMutability": "view",
      "type": "function"
    },
    {
      "constant": true,
      "inputs": [
        {
          "name": "",
          "type": "address"
        }
      ],
      "name": "getTotalVotesByAccount",
      "outputs": [
        {
          "name": "",
          "type": "uint256"
        }
      ],
      "payable": false,
      "stateMutability": "view",
      "type": "function"
    },
    {
      "constant": false,
      "inputs": [
        {
          "name": "value",
          "type": "uint256"
        }
      ],
      "name": "setActiveVotes",
      "outputs": [],
      "payable": false,
      "stateMutability": "nonpayable",
      "type": "function"
    },
    {
      "constant": false,
      "inputs": [
        {
          "name": "value",
          "type": "uint256"
        }
      ],
      "name": "setTotalVotes",
      "outputs": [],
      "payable": false,
      "stateMutability": "nonpayable",
      "type": "function"
    },
    {
      "constant": false,
      "inputs": [
        {
          "name": "_electedValidators",
          "type": "address[]"
        }
      ],
      "name": "setElectedValidators",
      "outputs": [],
      "payable": false,
      "stateMutability": "nonpayable",
      "type": "function"
    },
    {
      "constant": true,
      "inputs": [],
      "name": "electValidatorSigners",
      "outputs": [
        {
          "name": "",
          "type": "address[]"
        }
      ],
      "payable": false,
      "stateMutability": "view",
      "type": "function"
    }
  ],
  "bytecode": "0x608060405234801561001057600080fd5b50610786806100206000396000f3fe608060405234801561001057600080fd5b50600436106100b45760003560e01c80636c781a2c116100715780636c781a2c1461025c5780639a0e7d66146102b4578063a18fb2db146102d2578063a8e4587114610356578063b801cf781461039a578063bcbf308e146103f6576100b4565b806307bd88b3146100b95780631c9c6636146100e75780631f604243146101155780632ba38e69146101335780632d85246a1461019257806366e305fd14610200575b600080fd5b6100e5600480360360208110156100cf57600080fd5b810190808035906020019092919050505061046f565b005b610113600480360360208110156100fd57600080fd5b8101908080359060200190929190505050610479565b005b61011d610483565b6040518082815260200191505060405180910390f35b61013b61048d565b6040518080602001828103825283818151815260200191508051906020019060200280838360005b8381101561017e578082015181840152602081019050610163565b505050509050019250505060405180910390f35b6101be600480360360208110156101a857600080fd5b810190808035906020019092919050505061051b565b604051808273ffffffffffffffffffffffffffffffffffffffff1673ffffffffffffffffffffffffffffffffffffffff16815260200191505060405180910390f35b6102426004803603602081101561021657600080fd5b81019080803573ffffffffffffffffffffffffffffffffffffffff169060200190929190505050610557565b604051808215151515815260200191505060405180910390f35b61029e6004803603602081101561027257600080fd5b81019080803573ffffffffffffffffffffffffffffffffffffffff169060200190929190505050610577565b6040518082815260200191505060405180910390f35b6102bc610581565b6040518082815260200191505060405180910390f35b610354600480360360608110156102e857600080fd5b81019080803573ffffffffffffffffffffffffffffffffffffffff169060200190929190803573ffffffffffffffffffffffffffffffffffffffff169060200190929190803573ffffffffffffffffffffffffffffffffffffffff16906020019092919050505061058b565b005b6103986004803603602081101561036c57600080fd5b81019080803573ffffffffffffffffffffffffffffffffffffffff1690602001909291905050506105e7565b005b6103dc600480360360208110156103b057600080fd5b81019080803573ffffffffffffffffffffffffffffffffffffffff169060200190929190505050610641565b604051808215151515815260200191505060405180910390f35b61046d6004803603602081101561040c57600080fd5b810190808035906020019064010000000081111561042957600080fd5b82018360208201111561043b57600080fd5b8035906020019184602083028401116401000000008311171561045d57600080fd5b9091929391929390505050610661565b005b8060048190555050565b8060038190555050565b6000600354905090565b6060600280548060200260200160405190810160405280929190818152602001828054801561051157602002820191906000526020600020905b8160009054906101000a900473ffffffffffffffffffffffffffffffffffffffff1673ffffffffffffffffffffffffffffffffffffffff16815260200190600101908083116104c7575b5050505050905090565b6002818154811061052857fe5b906000526020600020016000915054906101000a900473ffffffffffffffffffffffffffffffffffffffff1681565b60016020528060005260406000206000915054906101000a900460ff1681565b6000809050919050565b6000600454905090565b60018060008573ffffffffffffffffffffffffffffffffffffffff1673ffffffffffffffffffffffffffffffffffffffff16815260200190815260200160002060006101000a81548160ff021916908315150217905550505050565b60016000808373ffffffffffffffffffffffffffffffffffffffff1673ffffffffffffffffffffffffffffffffffffffff16815260200190815260200160002060006101000a81548160ff02191690831515021790555050565b60006020528060005260406000206000915054906101000a900460ff1681565b818160029190610672929190610677565b505050565b828054828255906000526020600020908101928215610706579160200282015b8281111561070557823573ffffffffffffffffffffffffffffffffffffffff168260006101000a81548173ffffffffffffffffffffffffffffffffffffffff021916908373ffffffffffffffffffffffffffffffffffffffff16021790555091602001919060010190610697565b5b5090506107139190610717565b5090565b61075791905b8082111561075357600081816101000a81549073ffffffffffffffffffffffffffffffffffffffff02191690555060010161071d565b5090565b9056fea165627a7a72305820da312e5e1720ac124a0a1a72771425237124219b2b14eaee85d887e4272d5c560029",
  "source": "pragma solidity ^0.5.3;\n\nimport \"../interfaces/IElection.sol\";\n\n/**\n * @title Holds a list of addresses of validators\n */\ncontract MockElection is IElection {\n  mapping(address => bool) public isIneligible;\n  mapping(address => bool) public isEligible;\n  address[] public electedValidators;\n  uint256 active;\n  uint256 total;\n\n  function markGroupIneligible(address account) external {\n    isIneligible[account] = true;\n  }\n\n  function markGroupEligible(address account, address, address) external {\n    isEligible[account] = true;\n  }\n\n  function getTotalVotes() external view returns (uint256) {\n    return total;\n  }\n\n  function getActiveVotes() external view returns (uint256) {\n    return active;\n  }\n\n  function getTotalVotesByAccount(address) external view returns (uint256) {\n    return 0;\n  }\n\n  function setActiveVotes(uint256 value) external {\n    active = value;\n  }\n\n  function setTotalVotes(uint256 value) external {\n    total = value;\n  }\n\n  function setElectedValidators(address[] calldata _electedValidators) external {\n    electedValidators = _electedValidators;\n  }\n\n  function electValidatorSigners() external view returns (address[] memory) {\n    return electedValidators;\n  }\n}\n",
  "sourcePath": "/Users/cmcewen/celo/celo-monorepo/packages/protocol/contracts/governance/test/MockElection.sol",
  "compiler": {
    "name": "solc",
    "version": "0.5.8+commit.23d335f2.Emscripten.clang"
  },
  "schemaVersion": "3.0.10",
  "updatedAt": "2019-12-06T00:01:35.950Z",
  "devdoc": {
    "methods": {},
    "title": "Holds a list of addresses of validators"
  },
  "userdoc": {
    "methods": {}
  }
}