{
  "contractName": "MockGoldToken",
  "abi": [
    {
      "constant": true,
      "inputs": [],
      "name": "totalSupply",
      "outputs": [
        {
          "name": "",
          "type": "uint256"
        }
      ],
      "payable": false,
      "stateMutability": "view",
      "type": "function"
    },
    {
      "constant": true,
      "inputs": [],
      "name": "decimals",
      "outputs": [
        {
          "name": "",
          "type": "uint8"
        }
      ],
      "payable": false,
      "stateMutability": "view",
      "type": "function"
    },
    {
      "constant": false,
      "inputs": [
        {
          "name": "value",
          "type": "uint256"
        }
      ],
      "name": "setTotalSupply",
      "outputs": [],
      "payable": false,
      "stateMutability": "nonpayable",
      "type": "function"
    },
    {
      "constant": true,
      "inputs": [
        {
          "name": "",
          "type": "address"
        },
        {
          "name": "",
          "type": "uint256"
        }
      ],
      "name": "transfer",
      "outputs": [
        {
          "name": "",
          "type": "bool"
        }
      ],
      "payable": false,
      "stateMutability": "pure",
      "type": "function"
    },
    {
      "constant": true,
      "inputs": [
        {
          "name": "",
          "type": "address"
        },
        {
          "name": "",
          "type": "address"
        },
        {
          "name": "",
          "type": "uint256"
        }
      ],
      "name": "transferFrom",
      "outputs": [
        {
          "name": "",
          "type": "bool"
        }
      ],
      "payable": false,
      "stateMutability": "pure",
      "type": "function"
    }
  ],
  "bytecode": "0x608060405234801561001057600080fd5b50610212806100206000396000f3fe608060405234801561001057600080fd5b50600436106100575760003560e01c806318160ddd1461005c57806323b872dd1461007a578063313ce56714610100578063a9059cbb14610124578063f7ea7a3d1461018a575b600080fd5b6100646101b8565b6040518082815260200191505060405180910390f35b6100e66004803603606081101561009057600080fd5b81019080803573ffffffffffffffffffffffffffffffffffffffff169060200190929190803573ffffffffffffffffffffffffffffffffffffffff169060200190929190803590602001909291905050506101be565b604051808215151515815260200191505060405180910390f35b6101086101cb565b604051808260ff1660ff16815260200191505060405180910390f35b6101706004803603604081101561013a57600080fd5b81019080803573ffffffffffffffffffffffffffffffffffffffff169060200190929190803590602001909291905050506101d0565b604051808215151515815260200191505060405180910390f35b6101b6600480360360208110156101a057600080fd5b81019080803590602001909291905050506101dc565b005b60005481565b6000600190509392505050565b601281565b60006001905092915050565b806000819055505056fea165627a7a7230582090c87acd382765c0859cf37fdd517d539d8c081c1a11bbdc1dc1bfa9d1ac43e30029",
  "source": "pragma solidity ^0.5.3;\n// solhint-disable no-unused-vars\n\n/**\n * @title A mock GoldToken for testing.\n */\ncontract MockGoldToken {\n  uint8 public constant decimals = 18;\n  uint256 public totalSupply;\n\n  function setTotalSupply(uint256 value) external {\n    totalSupply = value;\n  }\n\n  function transfer(address, uint256) external pure returns (bool) {\n    return true;\n  }\n\n  function transferFrom(address, address, uint256) external pure returns (bool) {\n    return true;\n  }\n}\n",
  "sourcePath": "/Users/cmcewen/celo/celo-monorepo/packages/protocol/contracts/common/test/MockGoldToken.sol",
  "compiler": {
    "name": "solc",
    "version": "0.5.8+commit.23d335f2.Emscripten.clang"
  },
  "schemaVersion": "3.0.10",
  "updatedAt": "2019-12-06T00:01:35.414Z",
  "devdoc": {
    "methods": {},
    "title": "A mock GoldToken for testing."
  },
  "userdoc": {
    "methods": {}
  }
}