{
  "contractName": "MockValidators",
  "abi": [
    {
      "constant": true,
      "inputs": [
        {
          "name": "",
          "type": "address"
        }
      ],
      "name": "isValidator",
      "outputs": [
        {
          "name": "",
          "type": "bool"
        }
      ],
      "payable": false,
      "stateMutability": "view",
      "type": "function"
    },
    {
      "constant": false,
      "inputs": [
        {
          "name": "",
          "type": "address"
        },
        {
          "name": "",
          "type": "address"
        },
        {
          "name": "",
          "type": "bytes"
        }
      ],
      "name": "updateEcdsaPublicKey",
      "outputs": [
        {
          "name": "",
          "type": "bool"
        }
      ],
      "payable": false,
      "stateMutability": "nonpayable",
      "type": "function"
    },
    {
      "constant": false,
      "inputs": [
        {
          "name": "account",
          "type": "address"
        }
      ],
      "name": "setValidator",
      "outputs": [],
      "payable": false,
      "stateMutability": "nonpayable",
      "type": "function"
    },
    {
      "constant": false,
      "inputs": [
        {
          "name": "account",
          "type": "address"
        }
      ],
      "name": "setDoesNotMeetAccountLockedGoldRequirements",
      "outputs": [],
      "payable": false,
      "stateMutability": "nonpayable",
      "type": "function"
    },
    {
      "constant": true,
      "inputs": [
        {
          "name": "account",
          "type": "address"
        }
      ],
      "name": "meetsAccountLockedGoldRequirements",
      "outputs": [
        {
          "name": "",
          "type": "bool"
        }
      ],
      "payable": false,
      "stateMutability": "view",
      "type": "function"
    },
    {
      "constant": true,
      "inputs": [
        {
          "name": "group",
          "type": "address"
        }
      ],
      "name": "getGroupNumMembers",
      "outputs": [
        {
          "name": "",
          "type": "uint256"
        }
      ],
      "payable": false,
      "stateMutability": "view",
      "type": "function"
    },
    {
      "constant": false,
      "inputs": [
        {
          "name": "value",
          "type": "uint256"
        }
      ],
      "name": "setNumRegisteredValidators",
      "outputs": [],
      "payable": false,
      "stateMutability": "nonpayable",
      "type": "function"
    },
    {
      "constant": true,
      "inputs": [],
      "name": "getNumRegisteredValidators",
      "outputs": [
        {
          "name": "",
          "type": "uint256"
        }
      ],
      "payable": false,
      "stateMutability": "view",
      "type": "function"
    },
    {
      "constant": false,
      "inputs": [
        {
          "name": "group",
          "type": "address"
        },
        {
          "name": "_members",
          "type": "address[]"
        }
      ],
      "name": "setMembers",
      "outputs": [],
      "payable": false,
      "stateMutability": "nonpayable",
      "type": "function"
    },
    {
      "constant": false,
      "inputs": [
        {
          "name": "account",
          "type": "address"
        },
        {
          "name": "value",
          "type": "uint256"
        }
      ],
      "name": "setAccountLockedGoldRequirement",
      "outputs": [],
      "payable": false,
      "stateMutability": "nonpayable",
      "type": "function"
    },
    {
      "constant": true,
      "inputs": [
        {
          "name": "account",
          "type": "address"
        }
      ],
      "name": "getAccountLockedGoldRequirement",
      "outputs": [
        {
          "name": "",
          "type": "uint256"
        }
      ],
      "payable": false,
      "stateMutability": "view",
      "type": "function"
    },
    {
      "constant": true,
      "inputs": [
        {
          "name": "group",
          "type": "address"
        },
        {
          "name": "n",
          "type": "uint256"
        }
      ],
      "name": "getTopGroupValidators",
      "outputs": [
        {
          "name": "",
          "type": "address[]"
        }
      ],
      "payable": false,
      "stateMutability": "view",
      "type": "function"
    },
    {
      "constant": true,
      "inputs": [
        {
          "name": "groups",
          "type": "address[]"
        }
      ],
      "name": "getGroupsNumMembers",
      "outputs": [
        {
          "name": "",
          "type": "uint256[]"
        }
      ],
      "payable": false,
      "stateMutability": "view",
      "type": "function"
    }
  ],
  "bytecode": "0x608060405234801561001057600080fd5b50610bd7806100206000396000f3fe608060405234801561001057600080fd5b50600436106100cf5760003560e01c80637a9b92211161008c578063c54c1cd411610066578063c54c1cd414610490578063dcff4cf6146104ec578063f7cf032b14610544578063facd743b146105dd576100cf565b80637a9b92211461037b5780637d895e5a146103bf5780638dd31e39146103ed576100cf565b80631327d3d8146100d45780632300f4821461011857806339e618e8146101665780634e06fd8a146101be578063517f6d331461028f57806370447754146102ad575b600080fd5b610116600480360360208110156100ea57600080fd5b81019080803573ffffffffffffffffffffffffffffffffffffffff169060200190929190505050610639565b005b6101646004803603604081101561012e57600080fd5b81019080803573ffffffffffffffffffffffffffffffffffffffff16906020019092919080359060200190929190505050610693565b005b6101a86004803603602081101561017c57600080fd5b81019080803573ffffffffffffffffffffffffffffffffffffffff1690602001909291905050506106db565b6040518082815260200191505060405180910390f35b610275600480360360608110156101d457600080fd5b81019080803573ffffffffffffffffffffffffffffffffffffffff169060200190929190803573ffffffffffffffffffffffffffffffffffffffff1690602001909291908035906020019064010000000081111561023157600080fd5b82018360208201111561024357600080fd5b8035906020019184600183028401116401000000008311171561026557600080fd5b9091929391929390505050610727565b604051808215151515815260200191505060405180910390f35b610297610735565b6040518082815260200191505060405180910390f35b610324600480360360208110156102c357600080fd5b81019080803590602001906401000000008111156102e057600080fd5b8201836020820111156102f257600080fd5b8035906020019184602083028401116401000000008311171561031457600080fd5b909192939192939050505061073f565b6040518080602001828103825283818151815260200191508051906020019060200280838360005b8381101561036757808201518184015260208101905061034c565b505050509050019250505060405180910390f35b6103bd6004803603602081101561039157600080fd5b81019080803573ffffffffffffffffffffffffffffffffffffffff1690602001909291905050506107e9565b005b6103eb600480360360208110156103d557600080fd5b8101908080359060200190929190505050610844565b005b6104396004803603604081101561040357600080fd5b81019080803573ffffffffffffffffffffffffffffffffffffffff1690602001909291908035906020019092919050505061084e565b6040518080602001828103825283818151815260200191508051906020019060200280838360005b8381101561047c578082015181840152602081019050610461565b505050509050019250505060405180910390f35b6104d2600480360360208110156104a657600080fd5b81019080803573ffffffffffffffffffffffffffffffffffffffff1690602001909291905050506109b4565b604051808215151515815260200191505060405180910390f35b61052e6004803603602081101561050257600080fd5b81019080803573ffffffffffffffffffffffffffffffffffffffff169060200190929190505050610a0b565b6040518082815260200191505060405180910390f35b6105db6004803603604081101561055a57600080fd5b81019080803573ffffffffffffffffffffffffffffffffffffffff1690602001909291908035906020019064010000000081111561059757600080fd5b8201836020820111156105a957600080fd5b803590602001918460208302840111640100000000831117156105cb57600080fd5b9091929391929390505050610a54565b005b61061f600480360360208110156105f357600080fd5b81019080803573ffffffffffffffffffffffffffffffffffffffff169060200190929190505050610aa8565b604051808215151515815260200191505060405180910390f35b60016000808373ffffffffffffffffffffffffffffffffffffffff1673ffffffffffffffffffffffffffffffffffffffff16815260200190815260200160002060006101000a81548160ff02191690831515021790555050565b80600260008473ffffffffffffffffffffffffffffffffffffffff1673ffffffffffffffffffffffffffffffffffffffff168152602001908152602001600020819055505050565b6000600460008373ffffffffffffffffffffffffffffffffffffffff1673ffffffffffffffffffffffffffffffffffffffff168152602001908152602001600020805490509050919050565b600060019050949350505050565b6000600554905090565b606080838390506040519080825280602002602001820160405280156107745781602001602082028038833980820191505090505b50905060008090505b848490508110156107de576107b985858381811061079757fe5b9050602002013573ffffffffffffffffffffffffffffffffffffffff166106db565b8282815181106107c557fe5b602002602001018181525050808060010191505061077d565b508091505092915050565b6001600360008373ffffffffffffffffffffffffffffffffffffffff1673ffffffffffffffffffffffffffffffffffffffff16815260200190815260200160002060006101000a81548160ff02191690831515021790555050565b8060058190555050565b6060600460008473ffffffffffffffffffffffffffffffffffffffff1673ffffffffffffffffffffffffffffffffffffffff1681526020019081526020016000208054905082111561089f57600080fd5b6060826040519080825280602002602001820160405280156108d05781602001602082028038833980820191505090505b50905060008090505b838110156109a957600460008673ffffffffffffffffffffffffffffffffffffffff1673ffffffffffffffffffffffffffffffffffffffff168152602001908152602001600020818154811061092b57fe5b9060005260206000200160009054906101000a900473ffffffffffffffffffffffffffffffffffffffff1682828151811061096257fe5b602002602001019073ffffffffffffffffffffffffffffffffffffffff16908173ffffffffffffffffffffffffffffffffffffffff168152505080806001019150506108d9565b508091505092915050565b6000600360008373ffffffffffffffffffffffffffffffffffffffff1673ffffffffffffffffffffffffffffffffffffffff16815260200190815260200160002060009054906101000a900460ff16159050919050565b6000600260008373ffffffffffffffffffffffffffffffffffffffff1673ffffffffffffffffffffffffffffffffffffffff168152602001908152602001600020549050919050565b8181600460008673ffffffffffffffffffffffffffffffffffffffff1673ffffffffffffffffffffffffffffffffffffffff1681526020019081526020016000209190610aa2929190610ac8565b50505050565b60006020528060005260406000206000915054906101000a900460ff1681565b828054828255906000526020600020908101928215610b57579160200282015b82811115610b5657823573ffffffffffffffffffffffffffffffffffffffff168260006101000a81548173ffffffffffffffffffffffffffffffffffffffff021916908373ffffffffffffffffffffffffffffffffffffffff16021790555091602001919060010190610ae8565b5b509050610b649190610b68565b5090565b610ba891905b80821115610ba457600081816101000a81549073ffffffffffffffffffffffffffffffffffffffff021916905550600101610b6e565b5090565b9056fea165627a7a72305820790dc6659f4a657c5a93d494538a59a171f41caf8bacf09f8724aebad9072c670029",
  "source": "pragma solidity ^0.5.3;\n\nimport \"../interfaces/IValidators.sol\";\n\n/**\n * @title Holds a list of addresses of validators\n */\ncontract MockValidators is IValidators {\n  mapping(address => bool) public isValidator;\n  mapping(address => uint256) private numGroupMembers;\n  mapping(address => uint256) private lockedGoldRequirements;\n  mapping(address => bool) private doesNotMeetAccountLockedGoldRequirements;\n  mapping(address => address[]) private members;\n  uint256 private numRegisteredValidators;\n\n  function updateEcdsaPublicKey(address, address, bytes calldata) external returns (bool) {\n    return true;\n  }\n\n  function setValidator(address account) external {\n    isValidator[account] = true;\n  }\n\n  function setDoesNotMeetAccountLockedGoldRequirements(address account) external {\n    doesNotMeetAccountLockedGoldRequirements[account] = true;\n  }\n\n  function meetsAccountLockedGoldRequirements(address account) external view returns (bool) {\n    return !doesNotMeetAccountLockedGoldRequirements[account];\n  }\n\n  function getGroupNumMembers(address group) public view returns (uint256) {\n    return members[group].length;\n  }\n\n  function setNumRegisteredValidators(uint256 value) external {\n    numRegisteredValidators = value;\n  }\n\n  function getNumRegisteredValidators() external view returns (uint256) {\n    return numRegisteredValidators;\n  }\n\n  function setMembers(address group, address[] calldata _members) external {\n    members[group] = _members;\n  }\n\n  function setAccountLockedGoldRequirement(address account, uint256 value) external {\n    lockedGoldRequirements[account] = value;\n  }\n\n  function getAccountLockedGoldRequirement(address account) external view returns (uint256) {\n    return lockedGoldRequirements[account];\n  }\n\n  function getTopGroupValidators(address group, uint256 n)\n    external\n    view\n    returns (address[] memory)\n  {\n    require(n <= members[group].length);\n    address[] memory validators = new address[](n);\n    for (uint256 i = 0; i < n; i++) {\n      validators[i] = members[group][i];\n    }\n    return validators;\n  }\n\n  function getGroupsNumMembers(address[] calldata groups) external view returns (uint256[] memory) {\n    uint256[] memory numMembers = new uint256[](groups.length);\n    for (uint256 i = 0; i < groups.length; i++) {\n      numMembers[i] = getGroupNumMembers(groups[i]);\n    }\n    return numMembers;\n  }\n}\n",
  "sourcePath": "/Users/cmcewen/celo/celo-monorepo/packages/protocol/contracts/governance/test/MockValidators.sol",
  "compiler": {
    "name": "solc",
    "version": "0.5.8+commit.23d335f2.Emscripten.clang"
  },
  "schemaVersion": "3.0.10",
  "updatedAt": "2019-12-06T00:01:35.972Z",
  "devdoc": {
    "methods": {},
    "title": "Holds a list of addresses of validators"
  },
  "userdoc": {
    "methods": {}
  }
}