{
  "contractName": "MockReserve",
  "abi": [
    {
      "constant": true,
      "inputs": [],
      "name": "goldToken",
      "outputs": [
        {
          "name": "",
          "type": "address"
        }
      ],
      "payable": false,
      "stateMutability": "view",
      "type": "function"
    },
    {
      "constant": true,
      "inputs": [
        {
          "name": "",
          "type": "address"
        }
      ],
      "name": "tokens",
      "outputs": [
        {
          "name": "",
          "type": "bool"
        }
      ],
      "payable": false,
      "stateMutability": "view",
      "type": "function"
    },
    {
      "payable": true,
      "stateMutability": "payable",
      "type": "fallback"
    },
    {
      "constant": false,
      "inputs": [
        {
          "name": "goldTokenAddress",
          "type": "address"
        }
      ],
      "name": "setGoldToken",
      "outputs": [],
      "payable": false,
      "stateMutability": "nonpayable",
      "type": "function"
    },
    {
      "constant": false,
      "inputs": [
        {
          "name": "to",
          "type": "address"
        },
        {
          "name": "value",
          "type": "uint256"
        }
      ],
      "name": "transferGold",
      "outputs": [
        {
          "name": "",
          "type": "bool"
        }
      ],
      "payable": false,
      "stateMutability": "nonpayable",
      "type": "function"
    },
    {
      "constant": false,
      "inputs": [
        {
          "name": "token",
          "type": "address"
        }
      ],
      "name": "addToken",
      "outputs": [
        {
          "name": "",
          "type": "bool"
        }
      ],
      "payable": false,
      "stateMutability": "nonpayable",
      "type": "function"
    },
    {
      "constant": true,
      "inputs": [
        {
          "name": "",
          "type": "address"
        }
      ],
      "name": "burnToken",
      "outputs": [
        {
          "name": "",
          "type": "bool"
        }
      ],
      "payable": false,
      "stateMutability": "pure",
      "type": "function"
    },
    {
      "constant": true,
      "inputs": [
        {
          "name": "",
          "type": "address"
        },
        {
          "name": "",
          "type": "address"
        },
        {
          "name": "",
          "type": "uint256"
        }
      ],
      "name": "mintToken",
      "outputs": [
        {
          "name": "",
          "type": "bool"
        }
      ],
      "payable": false,
      "stateMutability": "pure",
      "type": "function"
    }
  ],
  "bytecode": "0x608060405234801561001057600080fd5b506105ed806100206000396000f3fe6080604052600436106100705760003560e01c8063950dad191161004e578063950dad19146101cf578063d06816a114610238578063d48bfca714610289578063e4860339146102f257610070565b80631c39c7d5146100725780636bec32da146100e557806394002b5714610178575b005b34801561007e57600080fd5b506100cb6004803603604081101561009557600080fd5b81019080803573ffffffffffffffffffffffffffffffffffffffff1690602001909291908035906020019092919050505061035b565b604051808215151515815260200191505060405180910390f35b3480156100f157600080fd5b5061015e6004803603606081101561010857600080fd5b81019080803573ffffffffffffffffffffffffffffffffffffffff169060200190929190803573ffffffffffffffffffffffffffffffffffffffff169060200190929190803590602001909291905050506104bd565b604051808215151515815260200191505060405180910390f35b34801561018457600080fd5b5061018d6104ca565b604051808273ffffffffffffffffffffffffffffffffffffffff1673ffffffffffffffffffffffffffffffffffffffff16815260200191505060405180910390f35b3480156101db57600080fd5b5061021e600480360360208110156101f257600080fd5b81019080803573ffffffffffffffffffffffffffffffffffffffff1690602001909291905050506104f0565b604051808215151515815260200191505060405180910390f35b34801561024457600080fd5b506102876004803603602081101561025b57600080fd5b81019080803573ffffffffffffffffffffffffffffffffffffffff1690602001909291905050506104fb565b005b34801561029557600080fd5b506102d8600480360360208110156102ac57600080fd5b81019080803573ffffffffffffffffffffffffffffffffffffffff16906020019092919050505061053f565b604051808215151515815260200191505060405180910390f35b3480156102fe57600080fd5b506103416004803603602081101561031557600080fd5b81019080803573ffffffffffffffffffffffffffffffffffffffff1690602001909291905050506105a1565b604051808215151515815260200191505060405180910390f35b6000600160009054906101000a900473ffffffffffffffffffffffffffffffffffffffff1673ffffffffffffffffffffffffffffffffffffffff1663a9059cbb84846040518363ffffffff1660e01b8152600401808373ffffffffffffffffffffffffffffffffffffffff1673ffffffffffffffffffffffffffffffffffffffff16815260200182815260200192505050602060405180830381600087803b15801561040657600080fd5b505af115801561041a573d6000803e3d6000fd5b505050506040513d602081101561043057600080fd5b81019080805190602001909291905050506104b3576040517f08c379a000000000000000000000000000000000000000000000000000000000815260040180806020018281038252601a8152602001807f676f6c6420746f6b656e207472616e73666572206661696c656400000000000081525060200191505060405180910390fd5b6001905092915050565b6000600190509392505050565b600160009054906101000a900473ffffffffffffffffffffffffffffffffffffffff1681565b600060019050919050565b80600160006101000a81548173ffffffffffffffffffffffffffffffffffffffff021916908373ffffffffffffffffffffffffffffffffffffffff16021790555050565b600060016000808473ffffffffffffffffffffffffffffffffffffffff1673ffffffffffffffffffffffffffffffffffffffff16815260200190815260200160002060006101000a81548160ff02191690831515021790555060019050919050565b60006020528060005260406000206000915054906101000a900460ff168156fea165627a7a72305820cff828cd1ecd38353f2d36cc8c6eb610be7a9c3ac679ea24ab82e1278c964e110029",
  "source": "pragma solidity ^0.5.3;\n// solhint-disable no-unused-vars\n\nimport \"../../common/interfaces/IERC20Token.sol\";\n\n/**\n * @title A mock Reserve for testing.\n */\ncontract MockReserve {\n  mapping(address => bool) public tokens;\n\n  IERC20Token public goldToken;\n\n  // solhint-disable-next-line no-empty-blocks\n  function() external payable {}\n\n  function setGoldToken(address goldTokenAddress) external {\n    goldToken = IERC20Token(goldTokenAddress);\n  }\n\n  function transferGold(address to, uint256 value) external returns (bool) {\n    require(goldToken.transfer(to, value), \"gold token transfer failed\");\n    return true;\n  }\n\n  function addToken(address token) external returns (bool) {\n    tokens[token] = true;\n    return true;\n  }\n\n  function burnToken(address) external pure returns (bool) {\n    return true;\n  }\n\n  function mintToken(address, address, uint256) external pure returns (bool) {\n    return true;\n  }\n}\n",
  "sourcePath": "/Users/cmcewen/celo/celo-monorepo/packages/protocol/contracts/stability/test/MockReserve.sol",
  "compiler": {
    "name": "solc",
    "version": "0.5.8+commit.23d335f2.Emscripten.clang"
  },
  "schemaVersion": "3.0.10",
  "updatedAt": "2019-12-06T00:01:36.337Z",
  "devdoc": {
    "methods": {},
    "title": "A mock Reserve for testing."
  },
  "userdoc": {
    "methods": {}
  }
}