{
  "contractName": "MultiSig",
  "abi": [
    {
      "constant": true,
      "inputs": [
        {
          "name": "",
          "type": "uint256"
        }
      ],
      "name": "owners",
      "outputs": [
        {
          "name": "",
          "type": "address"
        }
      ],
      "payable": false,
      "stateMutability": "view",
      "type": "function"
    },
    {
      "constant": true,
      "inputs": [],
      "name": "initialized",
      "outputs": [
        {
          "name": "",
          "type": "bool"
        }
      ],
      "payable": false,
      "stateMutability": "view",
      "type": "function"
    },
    {
      "constant": true,
      "inputs": [
        {
          "name": "",
          "type": "address"
        }
      ],
      "name": "isOwner",
      "outputs": [
        {
          "name": "",
          "type": "bool"
        }
      ],
      "payable": false,
      "stateMutability": "view",
      "type": "function"
    },
    {
      "constant": true,
      "inputs": [
        {
          "name": "",
          "type": "uint256"
        },
        {
          "name": "",
          "type": "address"
        }
      ],
      "name": "confirmations",
      "outputs": [
        {
          "name": "",
          "type": "bool"
        }
      ],
      "payable": false,
      "stateMutability": "view",
      "type": "function"
    },
    {
      "constant": true,
      "inputs": [
        {
          "name": "",
          "type": "uint256"
        }
      ],
      "name": "transactions",
      "outputs": [
        {
          "name": "destination",
          "type": "address"
        },
        {
          "name": "value",
          "type": "uint256"
        },
        {
          "name": "data",
          "type": "bytes"
        },
        {
          "name": "executed",
          "type": "bool"
        }
      ],
      "payable": false,
      "stateMutability": "view",
      "type": "function"
    },
    {
      "constant": true,
      "inputs": [],
      "name": "transactionCount",
      "outputs": [
        {
          "name": "",
          "type": "uint256"
        }
      ],
      "payable": false,
      "stateMutability": "view",
      "type": "function"
    },
    {
      "constant": true,
      "inputs": [],
      "name": "MAX_OWNER_COUNT",
      "outputs": [
        {
          "name": "",
          "type": "uint256"
        }
      ],
      "payable": false,
      "stateMutability": "view",
      "type": "function"
    },
    {
      "constant": true,
      "inputs": [],
      "name": "required",
      "outputs": [
        {
          "name": "",
          "type": "uint256"
        }
      ],
      "payable": false,
      "stateMutability": "view",
      "type": "function"
    },
    {
      "payable": true,
      "stateMutability": "payable",
      "type": "fallback"
    },
    {
      "anonymous": false,
      "inputs": [
        {
          "indexed": true,
          "name": "sender",
          "type": "address"
        },
        {
          "indexed": true,
          "name": "transactionId",
          "type": "uint256"
        }
      ],
      "name": "Confirmation",
      "type": "event"
    },
    {
      "anonymous": false,
      "inputs": [
        {
          "indexed": true,
          "name": "sender",
          "type": "address"
        },
        {
          "indexed": true,
          "name": "transactionId",
          "type": "uint256"
        }
      ],
      "name": "Revocation",
      "type": "event"
    },
    {
      "anonymous": false,
      "inputs": [
        {
          "indexed": true,
          "name": "transactionId",
          "type": "uint256"
        }
      ],
      "name": "Submission",
      "type": "event"
    },
    {
      "anonymous": false,
      "inputs": [
        {
          "indexed": true,
          "name": "transactionId",
          "type": "uint256"
        }
      ],
      "name": "Execution",
      "type": "event"
    },
    {
      "anonymous": false,
      "inputs": [
        {
          "indexed": true,
          "name": "transactionId",
          "type": "uint256"
        }
      ],
      "name": "ExecutionFailure",
      "type": "event"
    },
    {
      "anonymous": false,
      "inputs": [
        {
          "indexed": true,
          "name": "sender",
          "type": "address"
        },
        {
          "indexed": false,
          "name": "value",
          "type": "uint256"
        }
      ],
      "name": "Deposit",
      "type": "event"
    },
    {
      "anonymous": false,
      "inputs": [
        {
          "indexed": true,
          "name": "owner",
          "type": "address"
        }
      ],
      "name": "OwnerAddition",
      "type": "event"
    },
    {
      "anonymous": false,
      "inputs": [
        {
          "indexed": true,
          "name": "owner",
          "type": "address"
        }
      ],
      "name": "OwnerRemoval",
      "type": "event"
    },
    {
      "anonymous": false,
      "inputs": [
        {
          "indexed": false,
          "name": "required",
          "type": "uint256"
        }
      ],
      "name": "RequirementChange",
      "type": "event"
    },
    {
      "constant": false,
      "inputs": [
        {
          "name": "_owners",
          "type": "address[]"
        },
        {
          "name": "_required",
          "type": "uint256"
        }
      ],
      "name": "initialize",
      "outputs": [],
      "payable": false,
      "stateMutability": "nonpayable",
      "type": "function"
    },
    {
      "constant": false,
      "inputs": [
        {
          "name": "owner",
          "type": "address"
        }
      ],
      "name": "addOwner",
      "outputs": [],
      "payable": false,
      "stateMutability": "nonpayable",
      "type": "function"
    },
    {
      "constant": false,
      "inputs": [
        {
          "name": "owner",
          "type": "address"
        }
      ],
      "name": "removeOwner",
      "outputs": [],
      "payable": false,
      "stateMutability": "nonpayable",
      "type": "function"
    },
    {
      "constant": false,
      "inputs": [
        {
          "name": "owner",
          "type": "address"
        },
        {
          "name": "newOwner",
          "type": "address"
        }
      ],
      "name": "replaceOwner",
      "outputs": [],
      "payable": false,
      "stateMutability": "nonpayable",
      "type": "function"
    },
    {
      "constant": false,
      "inputs": [
        {
          "name": "_required",
          "type": "uint256"
        }
      ],
      "name": "changeRequirement",
      "outputs": [],
      "payable": false,
      "stateMutability": "nonpayable",
      "type": "function"
    },
    {
      "constant": false,
      "inputs": [
        {
          "name": "destination",
          "type": "address"
        },
        {
          "name": "value",
          "type": "uint256"
        },
        {
          "name": "data",
          "type": "bytes"
        }
      ],
      "name": "submitTransaction",
      "outputs": [
        {
          "name": "transactionId",
          "type": "uint256"
        }
      ],
      "payable": false,
      "stateMutability": "nonpayable",
      "type": "function"
    },
    {
      "constant": false,
      "inputs": [
        {
          "name": "transactionId",
          "type": "uint256"
        }
      ],
      "name": "confirmTransaction",
      "outputs": [],
      "payable": false,
      "stateMutability": "nonpayable",
      "type": "function"
    },
    {
      "constant": false,
      "inputs": [
        {
          "name": "transactionId",
          "type": "uint256"
        }
      ],
      "name": "revokeConfirmation",
      "outputs": [],
      "payable": false,
      "stateMutability": "nonpayable",
      "type": "function"
    },
    {
      "constant": false,
      "inputs": [
        {
          "name": "transactionId",
          "type": "uint256"
        }
      ],
      "name": "executeTransaction",
      "outputs": [],
      "payable": false,
      "stateMutability": "nonpayable",
      "type": "function"
    },
    {
      "constant": true,
      "inputs": [
        {
          "name": "transactionId",
          "type": "uint256"
        }
      ],
      "name": "isConfirmed",
      "outputs": [
        {
          "name": "",
          "type": "bool"
        }
      ],
      "payable": false,
      "stateMutability": "view",
      "type": "function"
    },
    {
      "constant": true,
      "inputs": [
        {
          "name": "transactionId",
          "type": "uint256"
        }
      ],
      "name": "getConfirmationCount",
      "outputs": [
        {
          "name": "count",
          "type": "uint256"
        }
      ],
      "payable": false,
      "stateMutability": "view",
      "type": "function"
    },
    {
      "constant": true,
      "inputs": [
        {
          "name": "pending",
          "type": "bool"
        },
        {
          "name": "executed",
          "type": "bool"
        }
      ],
      "name": "getTransactionCount",
      "outputs": [
        {
          "name": "count",
          "type": "uint256"
        }
      ],
      "payable": false,
      "stateMutability": "view",
      "type": "function"
    },
    {
      "constant": true,
      "inputs": [],
      "name": "getOwners",
      "outputs": [
        {
          "name": "",
          "type": "address[]"
        }
      ],
      "payable": false,
      "stateMutability": "view",
      "type": "function"
    },
    {
      "constant": true,
      "inputs": [
        {
          "name": "transactionId",
          "type": "uint256"
        }
      ],
      "name": "getConfirmations",
      "outputs": [
        {
          "name": "_confirmations",
          "type": "address[]"
        }
      ],
      "payable": false,
      "stateMutability": "view",
      "type": "function"
    },
    {
      "constant": true,
      "inputs": [
        {
          "name": "from",
          "type": "uint256"
        },
        {
          "name": "to",
          "type": "uint256"
        },
        {
          "name": "pending",
          "type": "bool"
        },
        {
          "name": "executed",
          "type": "bool"
        }
      ],
      "name": "getTransactionIds",
      "outputs": [
        {
          "name": "_transactionIds",
          "type": "uint256[]"
        }
      ],
      "payable": false,
      "stateMutability": "view",
      "type": "function"
    }
  ],
  "bytecode": "0x608060405234801561001057600080fd5b50612f99806100206000396000f3fe6080604052600436106101405760003560e01c80639ace38c2116100b6578063c01a8c841161006f578063c01a8c8414610899578063c6427474146108d4578063d74f8edd14610998578063dc8452cd146109c3578063e20056e6146109ee578063ee22610b14610a5f57610140565b80639ace38c21461058c578063a0e67e2b14610685578063a8abe69a146106f1578063b5dc40c3146107a3578063b77bf60014610833578063ba51a6df1461085e57610140565b80633411c81c116101085780633411c81c1461033957806354741525146103ac57806360b5bb3f146104095780637065cb4814610499578063784547a7146104ea5780638b51d13f1461053d57610140565b8063025e7c271461019a578063158ef93e14610215578063173825d91461024457806320ea8d86146102955780632f54bf6e146102d0575b6000341115610198573373ffffffffffffffffffffffffffffffffffffffff167fe1fffcc4923d04b559f4d29a8bfc6cda04eb5b0d3c460751c2402c5c5cc9109c346040518082815260200191505060405180910390a25b005b3480156101a657600080fd5b506101d3600480360360208110156101bd57600080fd5b8101908080359060200190929190505050610a9a565b604051808273ffffffffffffffffffffffffffffffffffffffff1673ffffffffffffffffffffffffffffffffffffffff16815260200191505060405180910390f35b34801561022157600080fd5b5061022a610ad6565b604051808215151515815260200191505060405180910390f35b34801561025057600080fd5b506102936004803603602081101561026757600080fd5b81019080803573ffffffffffffffffffffffffffffffffffffffff169060200190929190505050610ae8565b005b3480156102a157600080fd5b506102ce600480360360208110156102b857600080fd5b8101908080359060200190929190505050610e2b565b005b3480156102dc57600080fd5b5061031f600480360360208110156102f357600080fd5b81019080803573ffffffffffffffffffffffffffffffffffffffff1690602001909291905050506110ec565b604051808215151515815260200191505060405180910390f35b34801561034557600080fd5b506103926004803603604081101561035c57600080fd5b8101908080359060200190929190803573ffffffffffffffffffffffffffffffffffffffff16906020019092919050505061110c565b604051808215151515815260200191505060405180910390f35b3480156103b857600080fd5b506103f3600480360360408110156103cf57600080fd5b8101908080351515906020019092919080351515906020019092919050505061113b565b6040518082815260200191505060405180910390f35b34801561041557600080fd5b506104976004803603604081101561042c57600080fd5b810190808035906020019064010000000081111561044957600080fd5b82018360208201111561045b57600080fd5b8035906020019184602083028401116401000000008311171561047d57600080fd5b9091929391929390803590602001909291905050506111cf565b005b3480156104a557600080fd5b506104e8600480360360208110156104bc57600080fd5b81019080803573ffffffffffffffffffffffffffffffffffffffff169060200190929190505050611426565b005b3480156104f657600080fd5b506105236004803603602081101561050d57600080fd5b8101908080359060200190929190505050611757565b604051808215151515815260200191505060405180910390f35b34801561054957600080fd5b506105766004803603602081101561056057600080fd5b810190808035906020019092919050505061183c565b6040518082815260200191505060405180910390f35b34801561059857600080fd5b506105c5600480360360208110156105af57600080fd5b8101908080359060200190929190505050611905565b604051808573ffffffffffffffffffffffffffffffffffffffff1673ffffffffffffffffffffffffffffffffffffffff1681526020018481526020018060200183151515158152602001828103825284818151815260200191508051906020019080838360005b8381101561064757808201518184015260208101905061062c565b50505050905090810190601f1680156106745780820380516001836020036101000a031916815260200191505b509550505050505060405180910390f35b34801561069157600080fd5b5061069a6119fa565b6040518080602001828103825283818151815260200191508051906020019060200280838360005b838110156106dd5780820151818401526020810190506106c2565b505050509050019250505060405180910390f35b3480156106fd57600080fd5b5061074c6004803603608081101561071457600080fd5b810190808035906020019092919080359060200190929190803515159060200190929190803515159060200190929190505050611a88565b6040518080602001828103825283818151815260200191508051906020019060200280838360005b8381101561078f578082015181840152602081019050610774565b505050509050019250505060405180910390f35b3480156107af57600080fd5b506107dc600480360360208110156107c657600080fd5b8101908080359060200190929190505050611bee565b6040518080602001828103825283818151815260200191508051906020019060200280838360005b8381101561081f578082015181840152602081019050610804565b505050509050019250505060405180910390f35b34801561083f57600080fd5b50610848611e1a565b6040518082815260200191505060405180910390f35b34801561086a57600080fd5b506108976004803603602081101561088157600080fd5b8101908080359060200190929190505050611e20565b005b3480156108a557600080fd5b506108d2600480360360208110156108bc57600080fd5b8101908080359060200190929190505050611f22565b005b3480156108e057600080fd5b50610982600480360360608110156108f757600080fd5b81019080803573ffffffffffffffffffffffffffffffffffffffff169060200190929190803590602001909291908035906020019064010000000081111561093e57600080fd5b82018360208201111561095057600080fd5b8035906020019184600183028401116401000000008311171561097257600080fd5b909192939192939050505061222f565b6040518082815260200191505060405180910390f35b3480156109a457600080fd5b506109ad612293565b6040518082815260200191505060405180910390f35b3480156109cf57600080fd5b506109d8612298565b6040518082815260200191505060405180910390f35b3480156109fa57600080fd5b50610a5d60048036036040811015610a1157600080fd5b81019080803573ffffffffffffffffffffffffffffffffffffffff169060200190929190803573ffffffffffffffffffffffffffffffffffffffff16906020019092919050505061229e565b005b348015610a6b57600080fd5b50610a9860048036036020811015610a8257600080fd5b81019080803590602001909291905050506126c9565b005b60048181548110610aa757fe5b906000526020600020016000915054906101000a900473ffffffffffffffffffffffffffffffffffffffff1681565b6000809054906101000a900460ff1681565b3073ffffffffffffffffffffffffffffffffffffffff163373ffffffffffffffffffffffffffffffffffffffff1614610b6c576040517f08c379a0000000000000000000000000000000000000000000000000000000008152600401808060200182810382526022815260200180612f206022913960400191505060405180910390fd5b80600360008273ffffffffffffffffffffffffffffffffffffffff1673ffffffffffffffffffffffffffffffffffffffff16815260200190815260200160002060009054906101000a900460ff16610c2c576040517f08c379a00000000000000000000000000000000000000000000000000000000081526004018080602001828103825260148152602001807f6f776e657220646f6573206e6f7420657869737400000000000000000000000081525060200191505060405180910390fd5b6000600360008473ffffffffffffffffffffffffffffffffffffffff1673ffffffffffffffffffffffffffffffffffffffff16815260200190815260200160002060006101000a81548160ff02191690831515021790555060008090505b600160048054905003811015610dac578273ffffffffffffffffffffffffffffffffffffffff1660048281548110610cbe57fe5b9060005260206000200160009054906101000a900473ffffffffffffffffffffffffffffffffffffffff1673ffffffffffffffffffffffffffffffffffffffff161415610d9f57600460016004805490500381548110610d1a57fe5b9060005260206000200160009054906101000a900473ffffffffffffffffffffffffffffffffffffffff1660048281548110610d5257fe5b9060005260206000200160006101000a81548173ffffffffffffffffffffffffffffffffffffffff021916908373ffffffffffffffffffffffffffffffffffffffff160217905550610dac565b8080600101915050610c8a565b506001600481818054905003915081610dc59190612d19565b506004805490506005541115610de457610de3600480549050611e20565b5b8173ffffffffffffffffffffffffffffffffffffffff167f8001553a916ef2f495d26a907cc54d96ed840d7bda71e73194bf5a9df7a76b9060405160405180910390a25050565b33600360008273ffffffffffffffffffffffffffffffffffffffff1673ffffffffffffffffffffffffffffffffffffffff16815260200190815260200160002060009054906101000a900460ff16610eeb576040517f08c379a00000000000000000000000000000000000000000000000000000000081526004018080602001828103825260148152602001807f6f776e657220646f6573206e6f7420657869737400000000000000000000000081525060200191505060405180910390fd5b81336002600083815260200190815260200160002060008273ffffffffffffffffffffffffffffffffffffffff1673ffffffffffffffffffffffffffffffffffffffff16815260200190815260200160002060009054906101000a900460ff16610fa0576040517f08c379a0000000000000000000000000000000000000000000000000000000008152600401808060200182810382526027815260200180612ef96027913960400191505060405180910390fd5b836001600082815260200190815260200160002060030160009054906101000a900460ff1615611038576040517f08c379a00000000000000000000000000000000000000000000000000000000081526004018080602001828103825260208152602001807f7472616e73616374696f6e2077617320657865637574656420616c726561647981525060200191505060405180910390fd5b60006002600087815260200190815260200160002060003373ffffffffffffffffffffffffffffffffffffffff1673ffffffffffffffffffffffffffffffffffffffff16815260200190815260200160002060006101000a81548160ff021916908315150217905550843373ffffffffffffffffffffffffffffffffffffffff167ff6a317157440607f36269043eb55f1287a5a19ba2216afeab88cd46cbcfb88e960405160405180910390a35050505050565b60036020528060005260406000206000915054906101000a900460ff1681565b60026020528160005260406000206020528060005260406000206000915091509054906101000a900460ff1681565b600080600090505b6006548110156111c85783801561117b57506001600082815260200190815260200160002060030160009054906101000a900460ff16155b806111af57508280156111ae57506001600082815260200190815260200160002060030160009054906101000a900460ff165b5b156111bb576001820191505b8080600101915050611143565b5092915050565b6000809054906101000a900460ff16156111e857600080fd5b60016000806101000a81548160ff0219169083151502179055508282905081603282111580156112185750818111155b8015611225575060008114155b8015611232575060008214155b61123b57600080fd5b60008090505b85859050811015611405576003600087878481811061125c57fe5b9050602002013573ffffffffffffffffffffffffffffffffffffffff1673ffffffffffffffffffffffffffffffffffffffff1673ffffffffffffffffffffffffffffffffffffffff16815260200190815260200160002060009054906101000a900460ff161580156113235750600073ffffffffffffffffffffffffffffffffffffffff168686838181106112ed57fe5b9050602002013573ffffffffffffffffffffffffffffffffffffffff1673ffffffffffffffffffffffffffffffffffffffff1614155b611378576040517f08c379a000000000000000000000000000000000000000000000000000000000815260040180806020018281038252602c815260200180612f42602c913960400191505060405180910390fd5b60016003600088888581811061138a57fe5b9050602002013573ffffffffffffffffffffffffffffffffffffffff1673ffffffffffffffffffffffffffffffffffffffff1673ffffffffffffffffffffffffffffffffffffffff16815260200190815260200160002060006101000a81548160ff0219169083151502179055508080600101915050611241565b50848460049190611417929190612d45565b50826005819055505050505050565b3073ffffffffffffffffffffffffffffffffffffffff163373ffffffffffffffffffffffffffffffffffffffff16146114aa576040517f08c379a0000000000000000000000000000000000000000000000000000000008152600401808060200182810382526022815260200180612f206022913960400191505060405180910390fd5b80600360008273ffffffffffffffffffffffffffffffffffffffff1673ffffffffffffffffffffffffffffffffffffffff16815260200190815260200160002060009054906101000a900460ff161561156b576040517f08c379a00000000000000000000000000000000000000000000000000000000081526004018080602001828103825260158152602001807f6f776e657220616c72656164792065786973746564000000000000000000000081525060200191505060405180910390fd5b81600073ffffffffffffffffffffffffffffffffffffffff168173ffffffffffffffffffffffffffffffffffffffff16141561160f576040517f08c379a00000000000000000000000000000000000000000000000000000000081526004018080602001828103825260108152602001807f6164647265737320776173206e756c6c0000000000000000000000000000000081525060200191505060405180910390fd5b6001600480549050016005546032821115801561162c5750818111155b8015611639575060008114155b8015611646575060008214155b61164f57600080fd5b6001600360008773ffffffffffffffffffffffffffffffffffffffff1673ffffffffffffffffffffffffffffffffffffffff16815260200190815260200160002060006101000a81548160ff02191690831515021790555060048590806001815401808255809150509060018203906000526020600020016000909192909190916101000a81548173ffffffffffffffffffffffffffffffffffffffff021916908373ffffffffffffffffffffffffffffffffffffffff160217905550508473ffffffffffffffffffffffffffffffffffffffff167ff39e6e1eb0edcf53c221607b54b00cd28f3196fed0a24994dc308b8f611b682d60405160405180910390a25050505050565b6000806000905060008090505b600480549050811015611834576002600085815260200190815260200160002060006004838154811061179357fe5b9060005260206000200160009054906101000a900473ffffffffffffffffffffffffffffffffffffffff1673ffffffffffffffffffffffffffffffffffffffff1673ffffffffffffffffffffffffffffffffffffffff16815260200190815260200160002060009054906101000a900460ff1615611812576001820191505b60055482141561182757600192505050611837565b8080600101915050611764565b50505b919050565b600080600090505b6004805490508110156118ff576002600084815260200190815260200160002060006004838154811061187357fe5b9060005260206000200160009054906101000a900473ffffffffffffffffffffffffffffffffffffffff1673ffffffffffffffffffffffffffffffffffffffff1673ffffffffffffffffffffffffffffffffffffffff16815260200190815260200160002060009054906101000a900460ff16156118f2576001820191505b8080600101915050611844565b50919050565b60016020528060005260406000206000915090508060000160009054906101000a900473ffffffffffffffffffffffffffffffffffffffff1690806001015490806002018054600181600116156101000203166002900480601f0160208091040260200160405190810160405280929190818152602001828054600181600116156101000203166002900480156119dd5780601f106119b2576101008083540402835291602001916119dd565b820191906000526020600020905b8154815290600101906020018083116119c057829003601f168201915b5050505050908060030160009054906101000a900460ff16905084565b60606004805480602002602001604051908101604052809291908181526020018280548015611a7e57602002820191906000526020600020905b8160009054906101000a900473ffffffffffffffffffffffffffffffffffffffff1673ffffffffffffffffffffffffffffffffffffffff1681526020019060010190808311611a34575b5050505050905090565b606080600654604051908082528060200260200182016040528015611abc5781602001602082028038833980820191505090505b509050600080905060008090505b600654811015611b6857858015611b0257506001600082815260200190815260200160002060030160009054906101000a900460ff16155b80611b365750848015611b3557506001600082815260200190815260200160002060030160009054906101000a900460ff165b5b15611b5b5780838381518110611b4857fe5b6020026020010181815250506001820191505b8080600101915050611aca565b878703604051908082528060200260200182016040528015611b995781602001602082028038833980820191505090505b5093508790505b86811015611be357828181518110611bb457fe5b60200260200101518489830381518110611bca57fe5b6020026020010181815250508080600101915050611ba0565b505050949350505050565b606080600480549050604051908082528060200260200182016040528015611c255781602001602082028038833980820191505090505b509050600080905060008090505b600480549050811015611d6c5760026000868152602001908152602001600020600060048381548110611c6257fe5b9060005260206000200160009054906101000a900473ffffffffffffffffffffffffffffffffffffffff1673ffffffffffffffffffffffffffffffffffffffff1673ffffffffffffffffffffffffffffffffffffffff16815260200190815260200160002060009054906101000a900460ff1615611d5f5760048181548110611ce757fe5b9060005260206000200160009054906101000a900473ffffffffffffffffffffffffffffffffffffffff16838381518110611d1e57fe5b602002602001019073ffffffffffffffffffffffffffffffffffffffff16908173ffffffffffffffffffffffffffffffffffffffff16815250506001820191505b8080600101915050611c33565b81604051908082528060200260200182016040528015611d9b5781602001602082028038833980820191505090505b509350600090505b81811015611e1257828181518110611db757fe5b6020026020010151848281518110611dcb57fe5b602002602001019073ffffffffffffffffffffffffffffffffffffffff16908173ffffffffffffffffffffffffffffffffffffffff16815250508080600101915050611da3565b505050919050565b60065481565b3073ffffffffffffffffffffffffffffffffffffffff163373ffffffffffffffffffffffffffffffffffffffff1614611ea4576040517f08c379a0000000000000000000000000000000000000000000000000000000008152600401808060200182810382526022815260200180612f206022913960400191505060405180910390fd5b6004805490508160328211158015611ebc5750818111155b8015611ec9575060008114155b8015611ed6575060008214155b611edf57600080fd5b826005819055507fa3f1ee9126a074d9326c682f561767f710e927faa811f7a99829d49dc421797a836040518082815260200191505060405180910390a1505050565b33600360008273ffffffffffffffffffffffffffffffffffffffff1673ffffffffffffffffffffffffffffffffffffffff16815260200190815260200160002060009054906101000a900460ff16611fe2576040517f08c379a00000000000000000000000000000000000000000000000000000000081526004018080602001828103825260148152602001807f6f776e657220646f6573206e6f7420657869737400000000000000000000000081525060200191505060405180910390fd5b81600073ffffffffffffffffffffffffffffffffffffffff166001600083815260200190815260200160002060000160009054906101000a900473ffffffffffffffffffffffffffffffffffffffff1673ffffffffffffffffffffffffffffffffffffffff1614156120bc576040517f08c379a000000000000000000000000000000000000000000000000000000000815260040180806020018281038252601a8152602001807f7472616e73616374696f6e20646f6573206e6f7420657869737400000000000081525060200191505060405180910390fd5b82336002600083815260200190815260200160002060008273ffffffffffffffffffffffffffffffffffffffff1673ffffffffffffffffffffffffffffffffffffffff16815260200190815260200160002060009054906101000a900460ff1615612172576040517f08c379a000000000000000000000000000000000000000000000000000000000815260040180806020018281038252602b815260200180612ece602b913960400191505060405180910390fd5b60016002600087815260200190815260200160002060003373ffffffffffffffffffffffffffffffffffffffff1673ffffffffffffffffffffffffffffffffffffffff16815260200190815260200160002060006101000a81548160ff021916908315150217905550843373ffffffffffffffffffffffffffffffffffffffff167f4a504a94899432a9846e1aa406dceb1bcfd538bb839071d49d1e5e23f5be30ef60405160405180910390a3612228856126c9565b5050505050565b6000612280858585858080601f016020809104026020016040519081016040528093929190818152602001838380828437600081840152601f19601f82011690508083019250505050505050612a8b565b905061228b81611f22565b949350505050565b603281565b60055481565b3073ffffffffffffffffffffffffffffffffffffffff163373ffffffffffffffffffffffffffffffffffffffff1614612322576040517f08c379a0000000000000000000000000000000000000000000000000000000008152600401808060200182810382526022815260200180612f206022913960400191505060405180910390fd5b81600360008273ffffffffffffffffffffffffffffffffffffffff1673ffffffffffffffffffffffffffffffffffffffff16815260200190815260200160002060009054906101000a900460ff166123e2576040517f08c379a00000000000000000000000000000000000000000000000000000000081526004018080602001828103825260148152602001807f6f776e657220646f6573206e6f7420657869737400000000000000000000000081525060200191505060405180910390fd5b81600360008273ffffffffffffffffffffffffffffffffffffffff1673ffffffffffffffffffffffffffffffffffffffff16815260200190815260200160002060009054906101000a900460ff16156124a3576040517f08c379a00000000000000000000000000000000000000000000000000000000081526004018080602001828103825260158152602001807f6f776e657220616c72656164792065786973746564000000000000000000000081525060200191505060405180910390fd5b60008090505b60016004805490500381101561258c578473ffffffffffffffffffffffffffffffffffffffff16600482815481106124dd57fe5b9060005260206000200160009054906101000a900473ffffffffffffffffffffffffffffffffffffffff1673ffffffffffffffffffffffffffffffffffffffff16141561257f57836004828154811061253257fe5b9060005260206000200160006101000a81548173ffffffffffffffffffffffffffffffffffffffff021916908373ffffffffffffffffffffffffffffffffffffffff16021790555061258c565b80806001019150506124a9565b506000600360008673ffffffffffffffffffffffffffffffffffffffff1673ffffffffffffffffffffffffffffffffffffffff16815260200190815260200160002060006101000a81548160ff0219169083151502179055506001600360008573ffffffffffffffffffffffffffffffffffffffff1673ffffffffffffffffffffffffffffffffffffffff16815260200190815260200160002060006101000a81548160ff0219169083151502179055508373ffffffffffffffffffffffffffffffffffffffff167f8001553a916ef2f495d26a907cc54d96ed840d7bda71e73194bf5a9df7a76b9060405160405180910390a28273ffffffffffffffffffffffffffffffffffffffff167ff39e6e1eb0edcf53c221607b54b00cd28f3196fed0a24994dc308b8f611b682d60405160405180910390a250505050565b33600360008273ffffffffffffffffffffffffffffffffffffffff1673ffffffffffffffffffffffffffffffffffffffff16815260200190815260200160002060009054906101000a900460ff16612789576040517f08c379a00000000000000000000000000000000000000000000000000000000081526004018080602001828103825260148152602001807f6f776e657220646f6573206e6f7420657869737400000000000000000000000081525060200191505060405180910390fd5b81336002600083815260200190815260200160002060008273ffffffffffffffffffffffffffffffffffffffff1673ffffffffffffffffffffffffffffffffffffffff16815260200190815260200160002060009054906101000a900460ff1661283e576040517f08c379a0000000000000000000000000000000000000000000000000000000008152600401808060200182810382526027815260200180612ef96027913960400191505060405180910390fd5b836001600082815260200190815260200160002060030160009054906101000a900460ff16156128d6576040517f08c379a00000000000000000000000000000000000000000000000000000000081526004018080602001828103825260208152602001807f7472616e73616374696f6e2077617320657865637574656420616c726561647981525060200191505060405180910390fd5b6128df85611757565b15612a8457600060016000878152602001908152602001600020905060018160030160006101000a81548160ff021916908315150217905550612a008160000160009054906101000a900473ffffffffffffffffffffffffffffffffffffffff16826001015483600201805460018160011615610100020316600290049050846002018054600181600116156101000203166002900480601f0160208091040260200160405190810160405280929190818152602001828054600181600116156101000203166002900480156129f65780601f106129cb576101008083540402835291602001916129f6565b820191906000526020600020905b8154815290600101906020018083116129d957829003601f168201915b5050505050612c5a565b15612a3757857f33e13ecb54c3076d8e8bb8c2881800a4d972b792045ffae98fdf46df365fed7560405160405180910390a2612a82565b857f526441bb6c1aba3c9a4a6ca1d6545da9c2333c8c48343ef398eb858d72b7923660405160405180910390a260008160030160006101000a81548160ff0219169083151502179055505b505b5050505050565b600083600073ffffffffffffffffffffffffffffffffffffffff168173ffffffffffffffffffffffffffffffffffffffff161415612b31576040517f08c379a00000000000000000000000000000000000000000000000000000000081526004018080602001828103825260108152602001807f6164647265737320776173206e756c6c0000000000000000000000000000000081525060200191505060405180910390fd5b600654915060405180608001604052808673ffffffffffffffffffffffffffffffffffffffff168152602001858152602001848152602001600015158152506001600084815260200190815260200160002060008201518160000160006101000a81548173ffffffffffffffffffffffffffffffffffffffff021916908373ffffffffffffffffffffffffffffffffffffffff160217905550602082015181600101556040820151816002019080519060200190612bf0929190612de5565b5060608201518160030160006101000a81548160ff0219169083151502179055509050506001600660008282540192505081905550817fc0ba8fe4b176c1714197d43b9cc6bcf797a4a7461c5fe8d0ef6e184ae7601e5160405160405180910390a2509392505050565b6000806000841115612ce257612c6f86612d06565b612ce1576040517f08c379a00000000000000000000000000000000000000000000000000000000081526004018080602001828103825260188152602001807f496e76616c696420636f6e74726163742061646472657373000000000000000081525060200191505060405180910390fd5b5b6040516020840160008287838a8c6187965a03f19250505080915050949350505050565b600080823b905060008111915050919050565b815481835581811115612d4057818360005260206000209182019101612d3f9190612e65565b5b505050565b828054828255906000526020600020908101928215612dd4579160200282015b82811115612dd357823573ffffffffffffffffffffffffffffffffffffffff168260006101000a81548173ffffffffffffffffffffffffffffffffffffffff021916908373ffffffffffffffffffffffffffffffffffffffff16021790555091602001919060010190612d65565b5b509050612de19190612e8a565b5090565b828054600181600116156101000203166002900490600052602060002090601f016020900481019282601f10612e2657805160ff1916838001178555612e54565b82800160010185558215612e54579182015b82811115612e53578251825591602001919060010190612e38565b5b509050612e619190612e65565b5090565b612e8791905b80821115612e83576000816000905550600101612e6b565b5090565b90565b612eca91905b80821115612ec657600081816101000a81549073ffffffffffffffffffffffffffffffffffffffff021916905550600101612e90565b5090565b9056fe7472616e73616374696f6e2077617320616c726561647920636f6e6669726d656420666f72206f776e65727472616e73616374696f6e20776173206e6f7420636f6e6669726d656420666f72206f776e65726d73672e73656e64657220776173206e6f74206d756c74697369672077616c6c65746f776e657220776173206e756c6c206f7220616c726561647920676976656e206f776e657220737461747573a165627a7a72305820d719c9fbc8ccb2690a2931c6d5a69142d80a5fd1255d12c437b3f7bec09c93970029",
  "source": "pragma solidity ^0.5.3;\n/* solhint-disable no-inline-assembly, avoid-low-level-calls, func-name-mixedcase, func-order */\n\nimport \"./Initializable.sol\";\nimport \"./libraries/AddressesHelper.sol\";\n\n/// @title Multisignature wallet - Allows multiple parties to agree on transactions before\n/// execution.\n/// @author Stefan George - <stefan.george@consensys.net>\ncontract MultiSig is Initializable {\n  /*\n   *  Events\n   */\n  event Confirmation(address indexed sender, uint256 indexed transactionId);\n  event Revocation(address indexed sender, uint256 indexed transactionId);\n  event Submission(uint256 indexed transactionId);\n  event Execution(uint256 indexed transactionId);\n  event ExecutionFailure(uint256 indexed transactionId);\n  event Deposit(address indexed sender, uint256 value);\n  event OwnerAddition(address indexed owner);\n  event OwnerRemoval(address indexed owner);\n  event RequirementChange(uint256 required);\n\n  /*\n   *  Constants\n   */\n  uint256 public constant MAX_OWNER_COUNT = 50;\n\n  /*\n   *  Storage\n   */\n  mapping(uint256 => Transaction) public transactions;\n  mapping(uint256 => mapping(address => bool)) public confirmations;\n  mapping(address => bool) public isOwner;\n  address[] public owners;\n  uint256 public required;\n  uint256 public transactionCount;\n\n  struct Transaction {\n    address destination;\n    uint256 value;\n    bytes data;\n    bool executed;\n  }\n\n  /*\n   *  Modifiers\n   */\n  modifier onlyWallet() {\n    require(msg.sender == address(this), \"msg.sender was not multisig wallet\");\n    _;\n  }\n\n  modifier ownerDoesNotExist(address owner) {\n    require(!isOwner[owner], \"owner already existed\");\n    _;\n  }\n\n  modifier ownerExists(address owner) {\n    require(isOwner[owner], \"owner does not exist\");\n    _;\n  }\n\n  modifier transactionExists(uint256 transactionId) {\n    require(transactions[transactionId].destination != address(0), \"transaction does not exist\");\n    _;\n  }\n\n  modifier confirmed(uint256 transactionId, address owner) {\n    require(confirmations[transactionId][owner], \"transaction was not confirmed for owner\");\n    _;\n  }\n\n  modifier notConfirmed(uint256 transactionId, address owner) {\n    require(!confirmations[transactionId][owner], \"transaction was already confirmed for owner\");\n    _;\n  }\n\n  modifier notExecuted(uint256 transactionId) {\n    require(!transactions[transactionId].executed, \"transaction was executed already\");\n    _;\n  }\n\n  modifier notNull(address _address) {\n    require(_address != address(0), \"address was null\");\n    _;\n  }\n\n  modifier validRequirement(uint256 ownerCount, uint256 _required) {\n    require(\n      ownerCount <= MAX_OWNER_COUNT && _required <= ownerCount && _required != 0 && ownerCount != 0\n    );\n    _;\n  }\n\n  /// @dev Fallback function allows to deposit ether.\n  function() external payable {\n    if (msg.value > 0) emit Deposit(msg.sender, msg.value);\n  }\n\n  /*\n   * Public functions\n   */\n  /// @dev Contract constructor sets initial owners and required number of confirmations.\n  /// @param _owners List of initial owners.\n  /// @param _required Number of required confirmations.\n  function initialize(address[] calldata _owners, uint256 _required)\n    external\n    initializer\n    validRequirement(_owners.length, _required)\n  {\n    for (uint256 i = 0; i < _owners.length; i++) {\n      require(\n        !isOwner[_owners[i]] && _owners[i] != address(0),\n        \"owner was null or already given owner status\"\n      );\n      isOwner[_owners[i]] = true;\n    }\n    owners = _owners;\n    required = _required;\n  }\n\n  /// @dev Allows to add a new owner. Transaction has to be sent by wallet.\n  /// @param owner Address of new owner.\n  function addOwner(address owner)\n    external\n    onlyWallet\n    ownerDoesNotExist(owner)\n    notNull(owner)\n    validRequirement(owners.length + 1, required)\n  {\n    isOwner[owner] = true;\n    owners.push(owner);\n    emit OwnerAddition(owner);\n  }\n\n  /// @dev Allows to remove an owner. Transaction has to be sent by wallet.\n  /// @param owner Address of owner.\n  function removeOwner(address owner) external onlyWallet ownerExists(owner) {\n    isOwner[owner] = false;\n    for (uint256 i = 0; i < owners.length - 1; i++)\n      if (owners[i] == owner) {\n        owners[i] = owners[owners.length - 1];\n        break;\n      }\n    owners.length -= 1;\n    if (required > owners.length) changeRequirement(owners.length);\n    emit OwnerRemoval(owner);\n  }\n\n  /// @dev Allows to replace an owner with a new owner. Transaction has to be sent by wallet.\n  /// @param owner Address of owner to be replaced.\n  /// @param newOwner Address of new owner.\n  function replaceOwner(address owner, address newOwner)\n    external\n    onlyWallet\n    ownerExists(owner)\n    ownerDoesNotExist(newOwner)\n  {\n    for (uint256 i = 0; i < owners.length - 1; i++)\n      if (owners[i] == owner) {\n        owners[i] = newOwner;\n        break;\n      }\n    isOwner[owner] = false;\n    isOwner[newOwner] = true;\n    emit OwnerRemoval(owner);\n    emit OwnerAddition(newOwner);\n  }\n\n  /// @dev Allows to change the number of required confirmations. Transaction has to be sent by\n  /// wallet.\n  /// @param _required Number of required confirmations.\n  function changeRequirement(uint256 _required)\n    public\n    onlyWallet\n    validRequirement(owners.length, _required)\n  {\n    required = _required;\n    emit RequirementChange(_required);\n  }\n\n  /// @dev Allows an owner to submit and confirm a transaction.\n  /// @param destination Transaction target address.\n  /// @param value Transaction ether value.\n  /// @param data Transaction data payload.\n  /// @return Returns transaction ID.\n  function submitTransaction(address destination, uint256 value, bytes calldata data)\n    external\n    returns (uint256 transactionId)\n  {\n    transactionId = addTransaction(destination, value, data);\n    confirmTransaction(transactionId);\n  }\n\n  /// @dev Allows an owner to confirm a transaction.\n  /// @param transactionId Transaction ID.\n  function confirmTransaction(uint256 transactionId)\n    public\n    ownerExists(msg.sender)\n    transactionExists(transactionId)\n    notConfirmed(transactionId, msg.sender)\n  {\n    confirmations[transactionId][msg.sender] = true;\n    emit Confirmation(msg.sender, transactionId);\n    executeTransaction(transactionId);\n  }\n\n  /// @dev Allows an owner to revoke a confirmation for a transaction.\n  /// @param transactionId Transaction ID.\n  function revokeConfirmation(uint256 transactionId)\n    external\n    ownerExists(msg.sender)\n    confirmed(transactionId, msg.sender)\n    notExecuted(transactionId)\n  {\n    confirmations[transactionId][msg.sender] = false;\n    emit Revocation(msg.sender, transactionId);\n  }\n\n  /// @dev Allows anyone to execute a confirmed transaction.\n  /// @param transactionId Transaction ID.\n  function executeTransaction(uint256 transactionId)\n    public\n    ownerExists(msg.sender)\n    confirmed(transactionId, msg.sender)\n    notExecuted(transactionId)\n  {\n    if (isConfirmed(transactionId)) {\n      Transaction storage txn = transactions[transactionId];\n      txn.executed = true;\n      if (external_call(txn.destination, txn.value, txn.data.length, txn.data))\n        emit Execution(transactionId);\n      else {\n        emit ExecutionFailure(transactionId);\n        txn.executed = false;\n      }\n    }\n  }\n\n  // call has been separated into its own function in order to take advantage\n  // of the Solidity's code generator to produce a loop that copies tx.data into memory.\n  function external_call(address destination, uint256 value, uint256 dataLength, bytes memory data)\n    private\n    returns (bool)\n  {\n    bool result;\n\n    if (dataLength > 0)\n      require(AddressesHelper.isContract(destination), \"Invalid contract address\");\n\n    /* solhint-disable max-line-length */\n    assembly {\n      let x := mload(0x40) // \"Allocate\" memory for output (0x40 is where \"free memory\" pointer is stored by convention)\n      let d := add(data, 32) // First 32 bytes are the padded length of data, so exclude that\n      result := call(\n        sub(gas, 34710), // 34710 is the value that solidity is currently emitting\n        // It includes callGas (700) + callVeryLow (3, to pay for SUB) + callValueTransferGas (9000) +\n        // callNewAccountGas (25000, in case the destination address does not exist and needs creating)\n        destination,\n        value,\n        d,\n        dataLength, // Size of the input (in bytes) - this is what fixes the padding problem\n        x,\n        0 // Output is ignored, therefore the output size is zero\n      )\n    }\n    /* solhint-enable max-line-length */\n    return result;\n  }\n\n  /// @dev Returns the confirmation status of a transaction.\n  /// @param transactionId Transaction ID.\n  /// @return Confirmation status.\n  function isConfirmed(uint256 transactionId) public view returns (bool) {\n    uint256 count = 0;\n    for (uint256 i = 0; i < owners.length; i++) {\n      if (confirmations[transactionId][owners[i]]) count += 1;\n      if (count == required) return true;\n    }\n  }\n\n  /*\n   * Internal functions\n   */\n  /// @dev Adds a new transaction to the transaction mapping, if transaction does not exist yet.\n  /// @param destination Transaction target address.\n  /// @param value Transaction ether value.\n  /// @param data Transaction data payload.\n  /// @return Returns transaction ID.\n  function addTransaction(address destination, uint256 value, bytes memory data)\n    internal\n    notNull(destination)\n    returns (uint256 transactionId)\n  {\n    transactionId = transactionCount;\n    transactions[transactionId] = Transaction({\n      destination: destination,\n      value: value,\n      data: data,\n      executed: false\n    });\n    transactionCount += 1;\n    emit Submission(transactionId);\n  }\n\n  /*\n   * Web3 call functions\n   */\n  /// @dev Returns number of confirmations of a transaction.\n  /// @param transactionId Transaction ID.\n  /// @return Number of confirmations.\n  function getConfirmationCount(uint256 transactionId) external view returns (uint256 count) {\n    for (uint256 i = 0; i < owners.length; i++)\n      if (confirmations[transactionId][owners[i]]) count += 1;\n  }\n\n  /// @dev Returns total number of transactions after filers are applied.\n  /// @param pending Include pending transactions.\n  /// @param executed Include executed transactions.\n  /// @return Total number of transactions after filters are applied.\n  function getTransactionCount(bool pending, bool executed) external view returns (uint256 count) {\n    for (uint256 i = 0; i < transactionCount; i++)\n      if ((pending && !transactions[i].executed) || (executed && transactions[i].executed))\n        count += 1;\n  }\n\n  /// @dev Returns list of owners.\n  /// @return List of owner addresses.\n  function getOwners() external view returns (address[] memory) {\n    return owners;\n  }\n\n  /// @dev Returns array with owner addresses, which confirmed transaction.\n  /// @param transactionId Transaction ID.\n  /// @return Returns array of owner addresses.\n  function getConfirmations(uint256 transactionId)\n    external\n    view\n    returns (address[] memory _confirmations)\n  {\n    address[] memory confirmationsTemp = new address[](owners.length);\n    uint256 count = 0;\n    uint256 i;\n    for (i = 0; i < owners.length; i++)\n      if (confirmations[transactionId][owners[i]]) {\n        confirmationsTemp[count] = owners[i];\n        count += 1;\n      }\n    _confirmations = new address[](count);\n    for (i = 0; i < count; i++) _confirmations[i] = confirmationsTemp[i];\n  }\n\n  /// @dev Returns list of transaction IDs in defined range.\n  /// @param from Index start position of transaction array.\n  /// @param to Index end position of transaction array.\n  /// @param pending Include pending transactions.\n  /// @param executed Include executed transactions.\n  /// @return Returns array of transaction IDs.\n  function getTransactionIds(uint256 from, uint256 to, bool pending, bool executed)\n    external\n    view\n    returns (uint256[] memory _transactionIds)\n  {\n    uint256[] memory transactionIdsTemp = new uint256[](transactionCount);\n    uint256 count = 0;\n    uint256 i;\n    for (i = 0; i < transactionCount; i++)\n      if ((pending && !transactions[i].executed) || (executed && transactions[i].executed)) {\n        transactionIdsTemp[count] = i;\n        count += 1;\n      }\n    _transactionIds = new uint256[](to - from);\n    for (i = from; i < to; i++) _transactionIds[i - from] = transactionIdsTemp[i];\n  }\n}\n",
  "sourcePath": "/Users/cmcewen/celo/celo-monorepo/packages/protocol/contracts/common/MultiSig.sol",
  "compiler": {
    "name": "solc",
    "version": "0.5.8+commit.23d335f2.Emscripten.clang"
  },
  "schemaVersion": "3.0.10",
  "updatedAt": "2019-12-06T00:01:35.258Z",
  "devdoc": {
    "author": "Stefan George - <stefan.george@consensys.net>",
    "methods": {
      "addOwner(address)": {
        "details": "Allows to add a new owner. Transaction has to be sent by wallet.",
        "params": {
          "owner": "Address of new owner."
        }
      },
      "changeRequirement(uint256)": {
        "details": "Allows to change the number of required confirmations. Transaction has to be sent by wallet.",
        "params": {
          "_required": "Number of required confirmations."
        }
      },
      "confirmTransaction(uint256)": {
        "details": "Allows an owner to confirm a transaction.",
        "params": {
          "transactionId": "Transaction ID."
        }
      },
      "executeTransaction(uint256)": {
        "details": "Allows anyone to execute a confirmed transaction.",
        "params": {
          "transactionId": "Transaction ID."
        }
      },
      "getConfirmationCount(uint256)": {
        "details": "Returns number of confirmations of a transaction.",
        "params": {
          "transactionId": "Transaction ID."
        },
        "return": "Number of confirmations."
      },
      "getConfirmations(uint256)": {
        "details": "Returns array with owner addresses, which confirmed transaction.",
        "params": {
          "transactionId": "Transaction ID."
        },
        "return": "Returns array of owner addresses."
      },
      "getOwners()": {
        "details": "Returns list of owners.",
        "return": "List of owner addresses."
      },
      "getTransactionCount(bool,bool)": {
        "details": "Returns total number of transactions after filers are applied.",
        "params": {
          "executed": "Include executed transactions.",
          "pending": "Include pending transactions."
        },
        "return": "Total number of transactions after filters are applied."
      },
      "getTransactionIds(uint256,uint256,bool,bool)": {
        "details": "Returns list of transaction IDs in defined range.",
        "params": {
          "executed": "Include executed transactions.",
          "from": "Index start position of transaction array.",
          "pending": "Include pending transactions.",
          "to": "Index end position of transaction array."
        },
        "return": "Returns array of transaction IDs."
      },
      "initialize(address[],uint256)": {
        "details": "Contract constructor sets initial owners and required number of confirmations.",
        "params": {
          "_owners": "List of initial owners.",
          "_required": "Number of required confirmations."
        }
      },
      "isConfirmed(uint256)": {
        "details": "Returns the confirmation status of a transaction.",
        "params": {
          "transactionId": "Transaction ID."
        },
        "return": "Confirmation status."
      },
      "removeOwner(address)": {
        "details": "Allows to remove an owner. Transaction has to be sent by wallet.",
        "params": {
          "owner": "Address of owner."
        }
      },
      "replaceOwner(address,address)": {
        "details": "Allows to replace an owner with a new owner. Transaction has to be sent by wallet.",
        "params": {
          "newOwner": "Address of new owner.",
          "owner": "Address of owner to be replaced."
        }
      },
      "revokeConfirmation(uint256)": {
        "details": "Allows an owner to revoke a confirmation for a transaction.",
        "params": {
          "transactionId": "Transaction ID."
        }
      },
      "submitTransaction(address,uint256,bytes)": {
        "details": "Allows an owner to submit and confirm a transaction.",
        "params": {
          "data": "Transaction data payload.",
          "destination": "Transaction target address.",
          "value": "Transaction ether value."
        },
        "return": "Returns transaction ID."
      }
    },
    "title": "Multisignature wallet - Allows multiple parties to agree on transactions before execution."
  },
  "userdoc": {
    "methods": {}
  }
}