{
  "contractName": "ProposalsTest",
  "abi": [
    {
      "constant": false,
      "inputs": [
        {
          "name": "networkWeight",
          "type": "uint256"
        }
      ],
      "name": "setNetworkWeight",
      "outputs": [],
      "payable": false,
      "stateMutability": "nonpayable",
      "type": "function"
    },
    {
      "constant": false,
      "inputs": [
        {
          "name": "yes",
          "type": "uint256"
        },
        {
          "name": "no",
          "type": "uint256"
        },
        {
          "name": "abstain",
          "type": "uint256"
        }
      ],
      "name": "setVotes",
      "outputs": [],
      "payable": false,
      "stateMutability": "nonpayable",
      "type": "function"
    },
    {
      "constant": true,
      "inputs": [
        {
          "name": "criticalBaseline",
          "type": "uint256"
        }
      ],
      "name": "getSupportWithQuorumPadding",
      "outputs": [
        {
          "name": "",
          "type": "uint256"
        }
      ],
      "payable": false,
      "stateMutability": "view",
      "type": "function"
    }
  ],
  "bytecode": "0x608060405234801561001057600080fd5b50610777806100206000396000f3fe608060405234801561001057600080fd5b50600436106100415760003560e01c80631d3bee681461004657806347dffa9314610074578063f2ed1728146100b6575b600080fd5b6100726004803603602081101561005c57600080fd5b81019080803590602001909291905050506100f8565b005b6100b46004803603606081101561008a57600080fd5b81019080803590602001909291908035906020019092919080359060200190929190505050610105565b005b6100e2600480360360208110156100cc57600080fd5b8101908080359060200190929190505050610131565b6040518082815260200191505060405180910390f35b8060006008018190555050565b826000600301600001819055508160006003016001018190555080600060030160020181905550505050565b60006101576101526101428461015e565b600061017c90919063ffffffff16565b61026b565b9050919050565b610166610738565b6040518060200160405280838152509050919050565b610184610738565b60008360030160000154905060008114156101ab576101a36000610279565b915050610265565b60008460030160010154905060006101e586600301600201546101d784866102b790919063ffffffff16565b6102b790919063ffffffff16565b9050600061021061020b6101fc8960080154610279565b886102d690919063ffffffff16565b610528565b9050818111156102425761023f610230838361054990919063ffffffff16565b846102b790919063ffffffff16565b92505b61025e8461025985876102b790919063ffffffff16565b610569565b9450505050505b92915050565b600081600001519050919050565b610281610738565b6102896105e1565b82111561029557600080fd5b604051806020016040528069d3c21bcecceda100000084028152509050919050565b6000808284019050838110156102cc57600080fd5b8091505092915050565b6102de610738565b6000836000015114806102f5575060008260000151145b1561031157604051806020016040528060008152509050610522565b69d3c21bcecceda10000008260000151141561032f57829050610522565b69d3c21bcecceda10000008360000151141561034d57819050610522565b600069d3c21bcecceda100000061036385610600565b600001518161036e57fe5b049050600061037c85610637565b600001519050600069d3c21bcecceda100000061039886610600565b60000151816103a357fe5b04905060006103b186610637565b60000151905060008285029050600085146103dc57828582816103d057fe5b04146103db57600080fd5b5b600069d3c21bcecceda100000082029050600082146104155769d3c21bcecceda100000082828161040957fe5b041461041457600080fd5b5b809150600084860290506000861461043d578486828161043157fe5b041461043c57600080fd5b5b6000848802905060008814610462578488828161045657fe5b041461046157600080fd5b5b61046a610674565b878161047257fe5b04965061047d610674565b858161048557fe5b04945060008588029050600088146104ad57858882816104a157fe5b04146104ac57600080fd5b5b6104b5610738565b60405180602001604052808781525090506104de81604051806020016040528087815250610681565b90506104f881604051806020016040528086815250610681565b905061051281604051806020016040528085815250610681565b9050809a50505050505050505050505b92915050565b600069d3c21bcecceda100000082600001518161054157fe5b049050919050565b60008282111561055857600080fd5b600082840390508091505092915050565b610571610738565b6105796105e1565b83111561058557600080fd5b61058d6105e1565b82111561059957600080fd5b60008214156105a757600080fd5b6105af610738565b6105b884610279565b90506105c2610738565b6105cb84610279565b90506105d782826106c1565b9250505092915050565b60007601357c299a88ea76a58924d52ce4f26a85af186c2b9e74905090565b610608610738565b604051806020016040528069d3c21bcecceda10000008085600001518161062b57fe5b04028152509050919050565b61063f610738565b604051806020016040528069d3c21bcecceda10000008085600001518161066257fe5b04028460000151038152509050919050565b600064e8d4a51000905090565b610689610738565b60008260000151846000015101905083600001518110156106a957600080fd5b60405180602001604052808281525091505092915050565b6106c9610738565b6000826000015114156106db57600080fd5b600069d3c21bcecceda10000008460000151029050836000015169d3c21bcecceda1000000828161070857fe5b041461071357600080fd5b60405180602001604052808460000151838161072b57fe5b0481525091505092915050565b604051806020016040528060008152509056fea165627a7a7230582035d8bee5fed357b0a4afd859d69485c70057907e1f120297f94fb70c59cd55b90029",
  "source": "pragma solidity ^0.5.8;\n\nimport \"../Proposals.sol\";\nimport \"../../common/FixidityLib.sol\";\n\ncontract ProposalsTest {\n  using Proposals for Proposals.Proposal;\n\n  Proposals.Proposal private proposal;\n\n  function setNetworkWeight(uint256 networkWeight) external {\n    proposal.networkWeight = networkWeight;\n  }\n\n  function setVotes(uint256 yes, uint256 no, uint256 abstain) external {\n    proposal.votes.yes = yes;\n    proposal.votes.no = no;\n    proposal.votes.abstain = abstain;\n  }\n\n  function getSupportWithQuorumPadding(uint256 criticalBaseline) external view returns (uint256) {\n    return\n      FixidityLib.unwrap(proposal.getSupportWithQuorumPadding(FixidityLib.wrap(criticalBaseline)));\n  }\n}\n",
  "sourcePath": "/Users/cmcewen/celo/celo-monorepo/packages/protocol/contracts/governance/test/ProposalsTest.sol",
  "compiler": {
    "name": "solc",
    "version": "0.5.8+commit.23d335f2.Emscripten.clang"
  },
  "schemaVersion": "3.0.10",
  "updatedAt": "2019-12-06T00:02:49.927Z",
  "devdoc": {
    "methods": {}
  },
  "userdoc": {
    "methods": {}
  }
}