{
  "contractName": "Random",
  "abi": [
    {
      "constant": true,
      "inputs": [],
      "name": "initialized",
      "outputs": [
        {
          "name": "",
          "type": "bool"
        }
      ],
      "payable": false,
      "stateMutability": "view",
      "type": "function"
    },
    {
      "constant": false,
      "inputs": [],
      "name": "renounceOwnership",
      "outputs": [],
      "payable": false,
      "stateMutability": "nonpayable",
      "type": "function"
    },
    {
      "constant": true,
      "inputs": [],
      "name": "owner",
      "outputs": [
        {
          "name": "",
          "type": "address"
        }
      ],
      "payable": false,
      "stateMutability": "view",
      "type": "function"
    },
    {
      "constant": true,
      "inputs": [],
      "name": "isOwner",
      "outputs": [
        {
          "name": "",
          "type": "bool"
        }
      ],
      "payable": false,
      "stateMutability": "view",
      "type": "function"
    },
    {
      "constant": true,
      "inputs": [],
      "name": "randomnessBlockRetentionWindow",
      "outputs": [
        {
          "name": "",
          "type": "uint256"
        }
      ],
      "payable": false,
      "stateMutability": "view",
      "type": "function"
    },
    {
      "constant": true,
      "inputs": [
        {
          "name": "",
          "type": "address"
        }
      ],
      "name": "commitments",
      "outputs": [
        {
          "name": "",
          "type": "bytes32"
        }
      ],
      "payable": false,
      "stateMutability": "view",
      "type": "function"
    },
    {
      "constant": false,
      "inputs": [
        {
          "name": "newOwner",
          "type": "address"
        }
      ],
      "name": "transferOwnership",
      "outputs": [],
      "payable": false,
      "stateMutability": "nonpayable",
      "type": "function"
    },
    {
      "anonymous": false,
      "inputs": [
        {
          "indexed": false,
          "name": "value",
          "type": "uint256"
        }
      ],
      "name": "RandomnessBlockRetentionWindowSet",
      "type": "event"
    },
    {
      "anonymous": false,
      "inputs": [
        {
          "indexed": true,
          "name": "previousOwner",
          "type": "address"
        },
        {
          "indexed": true,
          "name": "newOwner",
          "type": "address"
        }
      ],
      "name": "OwnershipTransferred",
      "type": "event"
    },
    {
      "constant": false,
      "inputs": [
        {
          "name": "_randomnessBlockRetentionWindow",
          "type": "uint256"
        }
      ],
      "name": "initialize",
      "outputs": [],
      "payable": false,
      "stateMutability": "nonpayable",
      "type": "function"
    },
    {
      "constant": false,
      "inputs": [
        {
          "name": "value",
          "type": "uint256"
        }
      ],
      "name": "setRandomnessBlockRetentionWindow",
      "outputs": [],
      "payable": false,
      "stateMutability": "nonpayable",
      "type": "function"
    },
    {
      "constant": false,
      "inputs": [
        {
          "name": "randomness",
          "type": "bytes32"
        },
        {
          "name": "newCommitment",
          "type": "bytes32"
        },
        {
          "name": "proposer",
          "type": "address"
        }
      ],
      "name": "revealAndCommit",
      "outputs": [],
      "payable": false,
      "stateMutability": "nonpayable",
      "type": "function"
    },
    {
      "constant": true,
      "inputs": [
        {
          "name": "randomness",
          "type": "bytes32"
        }
      ],
      "name": "computeCommitment",
      "outputs": [
        {
          "name": "",
          "type": "bytes32"
        }
      ],
      "payable": false,
      "stateMutability": "pure",
      "type": "function"
    },
    {
      "constant": true,
      "inputs": [],
      "name": "random",
      "outputs": [
        {
          "name": "",
          "type": "bytes32"
        }
      ],
      "payable": false,
      "stateMutability": "view",
      "type": "function"
    },
    {
      "constant": true,
      "inputs": [
        {
          "name": "blockNumber",
          "type": "uint256"
        }
      ],
      "name": "getBlockRandomness",
      "outputs": [
        {
          "name": "",
          "type": "bytes32"
        }
      ],
      "payable": false,
      "stateMutability": "view",
      "type": "function"
    }
  ],
  "bytecode": "0x6080604052610100600255336000806101000a81548173ffffffffffffffffffffffffffffffffffffffff021916908373ffffffffffffffffffffffffffffffffffffffff1602179055506000809054906101000a900473ffffffffffffffffffffffffffffffffffffffff1673ffffffffffffffffffffffffffffffffffffffff16600073ffffffffffffffffffffffffffffffffffffffff167f8be0079c531659141344cd1fd0a4f28419497f9722a3daafe3b4186f6b6457e060405160405180910390a3610df2806100d56000396000f3fe608060405234801561001057600080fd5b50600436106100cf5760003560e01c806392e5d98f1161008c578063e8fcf72311610066578063e8fcf72314610270578063f2fde38b146102c8578063fc4847261461030c578063fe4b84df1461034e576100cf565b806392e5d98f146101e2578063c387742b14610210578063e45def9514610252576100cf565b8063158ef93e146100d45780635ec01e4d146100f6578063715018a61461011457806375832efc1461011e5780638da5cb5b146101765780638f32d59b146101c0575b600080fd5b6100dc61037c565b604051808215151515815260200191505060405180910390f35b6100fe61038f565b6040518082815260200191505060405180910390f35b61011c6103a0565b005b6101746004803603606081101561013457600080fd5b810190808035906020019092919080359060200190929190803573ffffffffffffffffffffffffffffffffffffffff169060200190929190505050610470565b005b61017e610522565b604051808273ffffffffffffffffffffffffffffffffffffffff1673ffffffffffffffffffffffffffffffffffffffff16815260200191505060405180910390f35b6101c861054b565b604051808215151515815260200191505060405180910390f35b61020e600480360360208110156101f857600080fd5b81019080803590602001909291905050506105a2565b005b61023c6004803603602081101561022657600080fd5b810190808035906020019092919050505061064d565b6040518082815260200191505060405180910390f35b61025a61067d565b6040518082815260200191505060405180910390f35b6102b26004803603602081101561028657600080fd5b81019080803573ffffffffffffffffffffffffffffffffffffffff169060200190929190505050610683565b6040518082815260200191505060405180910390f35b61030a600480360360208110156102de57600080fd5b81019080803573ffffffffffffffffffffffffffffffffffffffff16906020019092919050505061069b565b005b6103386004803603602081101561032257600080fd5b81019080803590602001909291905050506106b8565b6040518082815260200191505060405180910390f35b61037a6004803603602081101561036457600080fd5b81019080803590602001909291905050506106cb565b005b600060149054906101000a900460ff1681565b600061039b4343610715565b905090565b6103a861054b565b6103b157600080fd5b600073ffffffffffffffffffffffffffffffffffffffff166000809054906101000a900473ffffffffffffffffffffffffffffffffffffffff1673ffffffffffffffffffffffffffffffffffffffff167f8be0079c531659141344cd1fd0a4f28419497f9722a3daafe3b4186f6b6457e060405160405180910390a360008060006101000a81548173ffffffffffffffffffffffffffffffffffffffff021916908373ffffffffffffffffffffffffffffffffffffffff160217905550565b600073ffffffffffffffffffffffffffffffffffffffff163373ffffffffffffffffffffffffffffffffffffffff1614610512576040517f08c379a00000000000000000000000000000000000000000000000000000000081526004018080602001828103825260108152602001807f6f6e6c7920564d2063616e2063616c6c0000000000000000000000000000000081525060200191505060405180910390fd5b61051d838383610824565b505050565b60008060009054906101000a900473ffffffffffffffffffffffffffffffffffffffff16905090565b60008060009054906101000a900473ffffffffffffffffffffffffffffffffffffffff1673ffffffffffffffffffffffffffffffffffffffff163373ffffffffffffffffffffffffffffffffffffffff1614905090565b6105aa61054b565b6105b357600080fd5b6000811161060c576040517f08c379a000000000000000000000000000000000000000000000000000000000815260040180806020018281038252602c815260200180610cd6602c913960400191505060405180910390fd5b806002819055507f337b24e614d34558109f3dee80fbcb3c5a4b08a6611bee45581772f64d1681e5816040518082815260200191505060405180910390a150565b60008160405160200180828152602001915050604051602081830303815290604052805190602001209050919050565b60025481565b60016020528060005260406000206000915090505481565b6106a361054b565b6106ac57600080fd5b6106b581610a8b565b50565b60006106c48243610715565b9050919050565b600060149054906101000a900460ff16156106e557600080fd5b6001600060146101000a81548160ff02191690831515021790555061070933610a8b565b610712816105a2565b50565b600081831115610770576040517f08c379a0000000000000000000000000000000000000000000000000000000008152600401808060200182810382526028815260200180610d2f6028913960400191505060405180910390fd5b61078560055483610b8390919063ffffffff16565b831180156107b35750816002541015806107b257506107af60025483610b8390919063ffffffff16565b83115b5b610808576040517f08c379a0000000000000000000000000000000000000000000000000000000008152600401808060200182810382526035815260200180610d926035913960400191505060405180910390fd5b6003600084815260200190815260200160002054905092915050565b6000801b600160008373ffffffffffffffffffffffffffffffffffffffff1673ffffffffffffffffffffffffffffffffffffffff1681526020019081526020016000205414610973576000801b8314156108c9576040517f08c379a000000000000000000000000000000000000000000000000000000000815260040180806020018281038252603b815260200180610d57603b913960400191505060405180910390fd5b60006108d48461064d565b9050600160008373ffffffffffffffffffffffffffffffffffffffff1673ffffffffffffffffffffffffffffffffffffffff16815260200190815260200160002054811461096d576040517f08c379a000000000000000000000000000000000000000000000000000000000815260040180806020018281038252602d815260200180610d02602d913960400191505060405180910390fd5b506109cf565b6000801b83146109ce576040517f08c379a000000000000000000000000000000000000000000000000000000000815260040180806020018281038252603c815260200180610c9a603c913960400191505060405180910390fd5b5b60008043146109f1576109ec600143610b8390919063ffffffff16565b6109f4565b60005b9050610a4143600360008481526020019081526020016000205486604051602001808381526020018281526020019250505060405160208183030381529060405280519060200120610ba3565b82600160008473ffffffffffffffffffffffffffffffffffffffff1673ffffffffffffffffffffffffffffffffffffffff1681526020019081526020016000208190555050505050565b600073ffffffffffffffffffffffffffffffffffffffff168173ffffffffffffffffffffffffffffffffffffffff161415610ac557600080fd5b8073ffffffffffffffffffffffffffffffffffffffff166000809054906101000a900473ffffffffffffffffffffffffffffffffffffffff1673ffffffffffffffffffffffffffffffffffffffff167f8be0079c531659141344cd1fd0a4f28419497f9722a3daafe3b4186f6b6457e060405160405180910390a3806000806101000a81548173ffffffffffffffffffffffffffffffffffffffff021916908373ffffffffffffffffffffffffffffffffffffffff16021790555050565b600082821115610b9257600080fd5b600082840390508091505092915050565b80600360008481526020019081526020016000208190555060006005541415610bda57436004819055506001600581905550610c95565b6002546005541115610c44576003600060045481526020019081526020016000206000905560036000600160045401815260200190815260200160002060009055600260046000828254019250508190555060056000815480929190600190039190505550610c94565b6002546005541415610c805760036000600454815260200190815260200160002060009055600460008154809291906001019190505550610c93565b6005600081548092919060010191905055505b5b5b505056fe72616e646f6d6e6573732073686f756c64206265207a65726f206966207468657265206973206e6f2070726576696f757320636f6d6d69746d656e7472616e646f6d6e657373426c6f636b5265746574696f6e57696e646f772063616e6e6f74206265207a65726f636f6d6d69746d656e74206469646e2774206d617463682074686520706f737465642072616e646f6d6e65737343616e6e6f742071756572792072616e646f6d6e657373206f662066757475726520626c6f636b7372616e646f6d6e6573732063616e6e6f74206265207a65726f20696620746865726520697320612070726576696f757320636f6d6d69746d656e7443616e6e6f742071756572792072616e646f6d6e657373206f6c646572207468616e207468652073746f72656420686973746f7279a165627a7a723058205e78c5b62e08e910b3820d847f0ef06a746acad2b769adabb093e3a149068b870029",
  "source": "pragma solidity ^0.5.3;\n\nimport \"./interfaces/IRandom.sol\";\nimport \"openzeppelin-solidity/contracts/math/SafeMath.sol\";\nimport \"openzeppelin-solidity/contracts/ownership/Ownable.sol\";\n\nimport \"../common/Initializable.sol\";\n\n/**\n * @title Provides randomness for verifier selection\n */\ncontract Random is IRandom, Ownable, Initializable {\n  using SafeMath for uint256;\n\n  /* Stores most recent commitment per address */\n  mapping(address => bytes32) public commitments;\n\n  uint256 public randomnessBlockRetentionWindow = 256;\n\n  mapping(uint256 => bytes32) private history;\n  uint256 private historyFirst;\n  uint256 private historySize;\n\n  event RandomnessBlockRetentionWindowSet(uint256 value);\n\n  /**\n   * @notice Initializes the contract with initial parameters.\n   * @param _randomnessBlockRetentionWindow Number of old random blocks whose randomness\n   * values can be queried.\n   */\n  function initialize(uint256 _randomnessBlockRetentionWindow) external initializer {\n    _transferOwnership(msg.sender);\n    setRandomnessBlockRetentionWindow(_randomnessBlockRetentionWindow);\n  }\n\n  /**\n   * @notice Sets the number of old random blocks whose randomness values can be queried.\n   * @param value Number of old random blocks whose randomness values can be queried.\n   */\n  function setRandomnessBlockRetentionWindow(uint256 value) public onlyOwner {\n    require(value > 0, \"randomnessBlockRetetionWindow cannot be zero\");\n    randomnessBlockRetentionWindow = value;\n    emit RandomnessBlockRetentionWindowSet(value);\n  }\n\n  /**\n   * @notice Implements step of the randomness protocol.\n   * @param randomness Bytes that will be added to the entropy pool.\n   * @param newCommitment The hash of randomness that will be revealed in the future.\n   * @param proposer Address of the block proposer.\n   * @dev If the Random contract is pointed to by the Registry, the first transaction in a block\n   * should be a special transaction to address 0x0 with 64 bytes of data - the concatenated\n   * `randomness` and `newCommitment`. Before running regular transactions, this function should be\n   * called.\n   */\n  function revealAndCommit(bytes32 randomness, bytes32 newCommitment, address proposer) external {\n    require(msg.sender == address(0), \"only VM can call\");\n    _revealAndCommit(randomness, newCommitment, proposer);\n  }\n\n  /**\n   * @notice Implements step of the randomness protocol.\n   * @param randomness Bytes that will be added to the entropy pool.\n   * @param newCommitment The hash of randomness that will be revealed in the future.\n   * @param proposer Address of the block proposer.\n   */\n  function _revealAndCommit(bytes32 randomness, bytes32 newCommitment, address proposer) internal {\n    // ensure revealed randomness matches previous commitment\n    if (commitments[proposer] != 0) {\n      require(randomness != 0, \"randomness cannot be zero if there is a previous commitment\");\n      bytes32 expectedCommitment = computeCommitment(randomness);\n      require(\n        expectedCommitment == commitments[proposer],\n        \"commitment didn't match the posted randomness\"\n      );\n    } else {\n      require(randomness == 0, \"randomness should be zero if there is no previous commitment\");\n    }\n\n    // add entropy\n    uint256 blockNumber = block.number == 0 ? 0 : block.number.sub(1);\n    addRandomness(block.number, keccak256(abi.encodePacked(history[blockNumber], randomness)));\n\n    commitments[proposer] = newCommitment;\n  }\n\n  /**\n   * @notice Add a value to the randomness history.\n   * @param blockNumber Current block number.\n   * @param randomness The new randomness added to history.\n   * @dev The calls to this function should be made so that on the next call, blockNumber will\n   * be the previous one, incremented by one.\n   */\n  function addRandomness(uint256 blockNumber, bytes32 randomness) internal {\n    history[blockNumber] = randomness;\n    if (historySize == 0) {\n      historyFirst = block.number;\n      historySize = 1;\n    } else if (historySize > randomnessBlockRetentionWindow) {\n      delete history[historyFirst];\n      delete history[historyFirst + 1];\n      historyFirst += 2;\n      historySize--;\n    } else if (historySize == randomnessBlockRetentionWindow) {\n      delete history[historyFirst];\n      historyFirst++;\n    } else {\n      // historySize < randomnessBlockRetentionWindow\n      historySize++;\n    }\n  }\n\n  /**\n   * @notice Compute the commitment hash for a given randomness value.\n   * @param randomness The value for which the commitment hash is computed.\n   * @return Commitment parameter.\n   */\n  function computeCommitment(bytes32 randomness) public pure returns (bytes32) {\n    return keccak256(abi.encodePacked(randomness));\n  }\n\n  /**\n   * @notice Querying the current randomness value.\n   * @return Returns the current randomness value.\n   */\n  function random() external view returns (bytes32) {\n    return _getBlockRandomness(block.number, block.number);\n  }\n\n  /**\n   * @notice Get randomness values of previous blocks.\n   * @param blockNumber The number of block whose randomness value we want to know.\n   * @return The associated randomness value.\n   */\n  function getBlockRandomness(uint256 blockNumber) external view returns (bytes32) {\n    return _getBlockRandomness(blockNumber, block.number);\n  }\n\n  /**\n   * @notice Get randomness values of previous blocks.\n   * @param blockNumber The number of block whose randomness value we want to know.\n   * @param cur Number of the current block.\n   * @return The associated randomness value.\n   */\n  function _getBlockRandomness(uint256 blockNumber, uint256 cur) internal view returns (bytes32) {\n    require(blockNumber <= cur, \"Cannot query randomness of future blocks\");\n    require(\n      blockNumber > cur.sub(historySize) &&\n        (randomnessBlockRetentionWindow >= cur ||\n          blockNumber > cur.sub(randomnessBlockRetentionWindow)),\n      \"Cannot query randomness older than the stored history\"\n    );\n    return history[blockNumber];\n  }\n}\n",
  "sourcePath": "/Users/cmcewen/celo/celo-monorepo/packages/protocol/contracts/identity/Random.sol",
  "compiler": {
    "name": "solc",
    "version": "0.5.8+commit.23d335f2.Emscripten.clang"
  },
  "schemaVersion": "3.0.10",
  "updatedAt": "2019-12-06T00:12:55.170Z",
  "devdoc": {
    "methods": {
      "computeCommitment(bytes32)": {
        "params": {
          "randomness": "The value for which the commitment hash is computed."
        },
        "return": "Commitment parameter."
      },
      "getBlockRandomness(uint256)": {
        "params": {
          "blockNumber": "The number of block whose randomness value we want to know."
        },
        "return": "The associated randomness value."
      },
      "initialize(uint256)": {
        "params": {
          "_randomnessBlockRetentionWindow": "Number of old random blocks whose randomness values can be queried."
        }
      },
      "isOwner()": {
        "return": "true if `msg.sender` is the owner of the contract."
      },
      "owner()": {
        "return": "the address of the owner."
      },
      "random()": {
        "return": "Returns the current randomness value."
      },
      "renounceOwnership()": {
        "details": "Allows the current owner to relinquish control of the contract. It will not be possible to call the functions with the `onlyOwner` modifier anymore."
      },
      "revealAndCommit(bytes32,bytes32,address)": {
        "details": "If the Random contract is pointed to by the Registry, the first transaction in a block should be a special transaction to address 0x0 with 64 bytes of data - the concatenated `randomness` and `newCommitment`. Before running regular transactions, this function should be called.",
        "params": {
          "newCommitment": "The hash of randomness that will be revealed in the future.",
          "proposer": "Address of the block proposer.",
          "randomness": "Bytes that will be added to the entropy pool."
        }
      },
      "setRandomnessBlockRetentionWindow(uint256)": {
        "params": {
          "value": "Number of old random blocks whose randomness values can be queried."
        }
      },
      "transferOwnership(address)": {
        "details": "Allows the current owner to transfer control of the contract to a newOwner.",
        "params": {
          "newOwner": "The address to transfer ownership to."
        }
      }
    },
    "title": "Provides randomness for verifier selection"
  },
  "userdoc": {
    "methods": {
      "computeCommitment(bytes32)": {
        "notice": "Compute the commitment hash for a given randomness value."
      },
      "getBlockRandomness(uint256)": {
        "notice": "Get randomness values of previous blocks."
      },
      "initialize(uint256)": {
        "notice": "Initializes the contract with initial parameters."
      },
      "random()": {
        "notice": "Querying the current randomness value."
      },
      "renounceOwnership()": {
        "notice": "Renouncing ownership will leave the contract without an owner, thereby removing any functionality that is only available to the owner."
      },
      "revealAndCommit(bytes32,bytes32,address)": {
        "notice": "Implements step of the randomness protocol."
      },
      "setRandomnessBlockRetentionWindow(uint256)": {
        "notice": "Sets the number of old random blocks whose randomness values can be queried."
      }
    }
  }
}