{
  "contractName": "Registry",
  "abi": [
    {
      "constant": true,
      "inputs": [],
      "name": "initialized",
      "outputs": [
        {
          "name": "",
          "type": "bool"
        }
      ],
      "payable": false,
      "stateMutability": "view",
      "type": "function"
    },
    {
      "constant": false,
      "inputs": [],
      "name": "renounceOwnership",
      "outputs": [],
      "payable": false,
      "stateMutability": "nonpayable",
      "type": "function"
    },
    {
      "constant": true,
      "inputs": [
        {
          "name": "",
          "type": "bytes32"
        }
      ],
      "name": "registry",
      "outputs": [
        {
          "name": "",
          "type": "address"
        }
      ],
      "payable": false,
      "stateMutability": "view",
      "type": "function"
    },
    {
      "constant": true,
      "inputs": [],
      "name": "owner",
      "outputs": [
        {
          "name": "",
          "type": "address"
        }
      ],
      "payable": false,
      "stateMutability": "view",
      "type": "function"
    },
    {
      "constant": true,
      "inputs": [],
      "name": "isOwner",
      "outputs": [
        {
          "name": "",
          "type": "bool"
        }
      ],
      "payable": false,
      "stateMutability": "view",
      "type": "function"
    },
    {
      "constant": false,
      "inputs": [
        {
          "name": "newOwner",
          "type": "address"
        }
      ],
      "name": "transferOwnership",
      "outputs": [],
      "payable": false,
      "stateMutability": "nonpayable",
      "type": "function"
    },
    {
      "anonymous": false,
      "inputs": [
        {
          "indexed": false,
          "name": "identifier",
          "type": "string"
        },
        {
          "indexed": true,
          "name": "identifierHash",
          "type": "bytes32"
        },
        {
          "indexed": false,
          "name": "addr",
          "type": "address"
        }
      ],
      "name": "RegistryUpdated",
      "type": "event"
    },
    {
      "anonymous": false,
      "inputs": [
        {
          "indexed": true,
          "name": "previousOwner",
          "type": "address"
        },
        {
          "indexed": true,
          "name": "newOwner",
          "type": "address"
        }
      ],
      "name": "OwnershipTransferred",
      "type": "event"
    },
    {
      "constant": false,
      "inputs": [],
      "name": "initialize",
      "outputs": [],
      "payable": false,
      "stateMutability": "nonpayable",
      "type": "function"
    },
    {
      "constant": false,
      "inputs": [
        {
          "name": "identifier",
          "type": "string"
        },
        {
          "name": "addr",
          "type": "address"
        }
      ],
      "name": "setAddressFor",
      "outputs": [],
      "payable": false,
      "stateMutability": "nonpayable",
      "type": "function"
    },
    {
      "constant": true,
      "inputs": [
        {
          "name": "identifierHash",
          "type": "bytes32"
        }
      ],
      "name": "getAddressForOrDie",
      "outputs": [
        {
          "name": "",
          "type": "address"
        }
      ],
      "payable": false,
      "stateMutability": "view",
      "type": "function"
    },
    {
      "constant": true,
      "inputs": [
        {
          "name": "identifierHash",
          "type": "bytes32"
        }
      ],
      "name": "getAddressFor",
      "outputs": [
        {
          "name": "",
          "type": "address"
        }
      ],
      "payable": false,
      "stateMutability": "view",
      "type": "function"
    },
    {
      "constant": true,
      "inputs": [
        {
          "name": "identifier",
          "type": "string"
        }
      ],
      "name": "getAddressForStringOrDie",
      "outputs": [
        {
          "name": "",
          "type": "address"
        }
      ],
      "payable": false,
      "stateMutability": "view",
      "type": "function"
    },
    {
      "constant": true,
      "inputs": [
        {
          "name": "identifier",
          "type": "string"
        }
      ],
      "name": "getAddressForString",
      "outputs": [
        {
          "name": "",
          "type": "address"
        }
      ],
      "payable": false,
      "stateMutability": "view",
      "type": "function"
    }
  ],
  "bytecode": "0x6080604052336000806101000a81548173ffffffffffffffffffffffffffffffffffffffff021916908373ffffffffffffffffffffffffffffffffffffffff1602179055506000809054906101000a900473ffffffffffffffffffffffffffffffffffffffff1673ffffffffffffffffffffffffffffffffffffffff16600073ffffffffffffffffffffffffffffffffffffffff167f8be0079c531659141344cd1fd0a4f28419497f9722a3daafe3b4186f6b6457e060405160405180910390a3610c49806100cf6000396000f3fe608060405234801561001057600080fd5b50600436106100b45760003560e01c80638da5cb5b116100715780638da5cb5b146102cf5780638f32d59b14610319578063c58657931461033b578063dcf0aaed146103d4578063dd92723314610442578063f2fde38b146104b0576100b4565b8063158ef93e146100b9578063715018a6146100db5780637ef50298146100e55780638129fc1c14610153578063853db3231461015d5780638932cbf414610216575b600080fd5b6100c16104f4565b604051808215151515815260200191505060405180910390f35b6100e3610507565b005b610111600480360360208110156100fb57600080fd5b81019080803590602001909291905050506105d7565b604051808273ffffffffffffffffffffffffffffffffffffffff1673ffffffffffffffffffffffffffffffffffffffff16815260200191505060405180910390f35b61015b61060a565b005b6101d46004803603602081101561017357600080fd5b810190808035906020019064010000000081111561019057600080fd5b8201836020820111156101a257600080fd5b803590602001918460018302840111640100000000831117156101c457600080fd5b909192939192939050505061064a565b604051808273ffffffffffffffffffffffffffffffffffffffff1673ffffffffffffffffffffffffffffffffffffffff16815260200191505060405180910390f35b61028d6004803603602081101561022c57600080fd5b810190808035906020019064010000000081111561024957600080fd5b82018360208201111561025b57600080fd5b8035906020019184600183028401116401000000008311171561027d57600080fd5b90919293919293905050506106bc565b604051808273ffffffffffffffffffffffffffffffffffffffff1673ffffffffffffffffffffffffffffffffffffffff16815260200191505060405180910390f35b6102d7610804565b604051808273ffffffffffffffffffffffffffffffffffffffff1673ffffffffffffffffffffffffffffffffffffffff16815260200191505060405180910390f35b61032161082d565b604051808215151515815260200191505060405180910390f35b6103d26004803603604081101561035157600080fd5b810190808035906020019064010000000081111561036e57600080fd5b82018360208201111561038057600080fd5b803590602001918460018302840111640100000000831117156103a257600080fd5b9091929391929390803573ffffffffffffffffffffffffffffffffffffffff169060200190929190505050610884565b005b610400600480360360208110156103ea57600080fd5b81019080803590602001909291905050506109b9565b604051808273ffffffffffffffffffffffffffffffffffffffff1673ffffffffffffffffffffffffffffffffffffffff16815260200191505060405180910390f35b61046e6004803603602081101561045857600080fd5b8101908080359060200190929190505050610acb565b604051808273ffffffffffffffffffffffffffffffffffffffff1673ffffffffffffffffffffffffffffffffffffffff16815260200191505060405180910390f35b6104f2600480360360208110156104c657600080fd5b81019080803573ffffffffffffffffffffffffffffffffffffffff169060200190929190505050610b08565b005b600060149054906101000a900460ff1681565b61050f61082d565b61051857600080fd5b600073ffffffffffffffffffffffffffffffffffffffff166000809054906101000a900473ffffffffffffffffffffffffffffffffffffffff1673ffffffffffffffffffffffffffffffffffffffff167f8be0079c531659141344cd1fd0a4f28419497f9722a3daafe3b4186f6b6457e060405160405180910390a360008060006101000a81548173ffffffffffffffffffffffffffffffffffffffff021916908373ffffffffffffffffffffffffffffffffffffffff160217905550565b60016020528060005260406000206000915054906101000a900473ffffffffffffffffffffffffffffffffffffffff1681565b600060149054906101000a900460ff161561062457600080fd5b6001600060146101000a81548160ff02191690831515021790555061064833610b25565b565b60008083836040516020018083838082843780830192505050925050506040516020818303038152906040528051906020012090506001600082815260200190815260200160002060009054906101000a900473ffffffffffffffffffffffffffffffffffffffff1691505092915050565b6000808383604051602001808383808284378083019250505092505050604051602081830303815290604052805190602001209050600073ffffffffffffffffffffffffffffffffffffffff166001600083815260200190815260200160002060009054906101000a900473ffffffffffffffffffffffffffffffffffffffff1673ffffffffffffffffffffffffffffffffffffffff1614156107c7576040517f08c379a00000000000000000000000000000000000000000000000000000000081526004018080602001828103825260208152602001807f6964656e74696669657220686173206e6f20726567697374727920656e74727981525060200191505060405180910390fd5b6001600082815260200190815260200160002060009054906101000a900473ffffffffffffffffffffffffffffffffffffffff1691505092915050565b60008060009054906101000a900473ffffffffffffffffffffffffffffffffffffffff16905090565b60008060009054906101000a900473ffffffffffffffffffffffffffffffffffffffff1673ffffffffffffffffffffffffffffffffffffffff163373ffffffffffffffffffffffffffffffffffffffff1614905090565b61088c61082d565b61089557600080fd5b60008383604051602001808383808284378083019250505092505050604051602081830303815290604052805190602001209050816001600083815260200190815260200160002060006101000a81548173ffffffffffffffffffffffffffffffffffffffff021916908373ffffffffffffffffffffffffffffffffffffffff160217905550807f4166d073a7a5e704ce0db7113320f88da2457f872d46dc020c805c562c1582a085858560405180806020018373ffffffffffffffffffffffffffffffffffffffff1673ffffffffffffffffffffffffffffffffffffffff1681526020018281038252858582818152602001925080828437600081840152601f19601f82011690508083019250505094505050505060405180910390a250505050565b60008073ffffffffffffffffffffffffffffffffffffffff166001600084815260200190815260200160002060009054906101000a900473ffffffffffffffffffffffffffffffffffffffff1673ffffffffffffffffffffffffffffffffffffffff161415610a90576040517f08c379a00000000000000000000000000000000000000000000000000000000081526004018080602001828103825260208152602001807f6964656e74696669657220686173206e6f20726567697374727920656e74727981525060200191505060405180910390fd5b6001600083815260200190815260200160002060009054906101000a900473ffffffffffffffffffffffffffffffffffffffff169050919050565b60006001600083815260200190815260200160002060009054906101000a900473ffffffffffffffffffffffffffffffffffffffff169050919050565b610b1061082d565b610b1957600080fd5b610b2281610b25565b50565b600073ffffffffffffffffffffffffffffffffffffffff168173ffffffffffffffffffffffffffffffffffffffff161415610b5f57600080fd5b8073ffffffffffffffffffffffffffffffffffffffff166000809054906101000a900473ffffffffffffffffffffffffffffffffffffffff1673ffffffffffffffffffffffffffffffffffffffff167f8be0079c531659141344cd1fd0a4f28419497f9722a3daafe3b4186f6b6457e060405160405180910390a3806000806101000a81548173ffffffffffffffffffffffffffffffffffffffff021916908373ffffffffffffffffffffffffffffffffffffffff1602179055505056fea165627a7a72305820b220dd887ca3112c28e3c99f706731bc1faed09d6af378dd51a18ad4080a4f6e0029",
  "source": "pragma solidity ^0.5.3;\n\nimport \"openzeppelin-solidity/contracts/ownership/Ownable.sol\";\n\nimport \"./interfaces/IRegistry.sol\";\nimport \"./Initializable.sol\";\n\n/**\n * @title Routes identifiers to addresses.\n */\ncontract Registry is IRegistry, Ownable, Initializable {\n  mapping(bytes32 => address) public registry;\n\n  event RegistryUpdated(string identifier, bytes32 indexed identifierHash, address addr);\n\n  function initialize() external initializer {\n    _transferOwnership(msg.sender);\n  }\n\n  /**\n   * @notice Associates the given address with the given identifier.\n   * @param identifier Identifier of contract whose address we want to set.\n   * @param addr Address of contract.\n   */\n  function setAddressFor(string calldata identifier, address addr) external onlyOwner {\n    bytes32 identifierHash = keccak256(abi.encodePacked(identifier));\n    registry[identifierHash] = addr;\n    emit RegistryUpdated(identifier, identifierHash, addr);\n  }\n\n  /**\n   * @notice Gets address associated with the given identifierHash.\n   * @param identifierHash Identifier hash of contract whose address we want to look up.\n   * @dev Throws if address not set.\n   */\n  function getAddressForOrDie(bytes32 identifierHash) external view returns (address) {\n    require(registry[identifierHash] != address(0), \"identifier has no registry entry\");\n    return registry[identifierHash];\n  }\n\n  /**\n   * @notice Gets address associated with the given identifierHash.\n   * @param identifierHash Identifier hash of contract whose address we want to look up.\n   */\n  function getAddressFor(bytes32 identifierHash) external view returns (address) {\n    return registry[identifierHash];\n  }\n\n  /**\n   * @notice Gets address associated with the given identifier.\n   * @param identifier Identifier of contract whose address we want to look up.\n   * @dev Throws if address not set.\n   */\n  function getAddressForStringOrDie(string calldata identifier) external view returns (address) {\n    bytes32 identifierHash = keccak256(abi.encodePacked(identifier));\n    require(registry[identifierHash] != address(0), \"identifier has no registry entry\");\n    return registry[identifierHash];\n  }\n\n  /**\n   * @notice Gets address associated with the given identifier.\n   * @param identifier Identifier of contract whose address we want to look up.\n   */\n  function getAddressForString(string calldata identifier) external view returns (address) {\n    bytes32 identifierHash = keccak256(abi.encodePacked(identifier));\n    return registry[identifierHash];\n  }\n}\n",
  "sourcePath": "/Users/cmcewen/celo/celo-monorepo/packages/protocol/contracts/common/Registry.sol",
  "compiler": {
    "name": "solc",
    "version": "0.5.8+commit.23d335f2.Emscripten.clang"
  },
  "schemaVersion": "3.0.10",
  "updatedAt": "2019-12-06T00:12:54.922Z",
  "devdoc": {
    "methods": {
      "getAddressFor(bytes32)": {
        "params": {
          "identifierHash": "Identifier hash of contract whose address we want to look up."
        }
      },
      "getAddressForOrDie(bytes32)": {
        "details": "Throws if address not set.",
        "params": {
          "identifierHash": "Identifier hash of contract whose address we want to look up."
        }
      },
      "getAddressForString(string)": {
        "params": {
          "identifier": "Identifier of contract whose address we want to look up."
        }
      },
      "getAddressForStringOrDie(string)": {
        "details": "Throws if address not set.",
        "params": {
          "identifier": "Identifier of contract whose address we want to look up."
        }
      },
      "isOwner()": {
        "return": "true if `msg.sender` is the owner of the contract."
      },
      "owner()": {
        "return": "the address of the owner."
      },
      "renounceOwnership()": {
        "details": "Allows the current owner to relinquish control of the contract. It will not be possible to call the functions with the `onlyOwner` modifier anymore."
      },
      "setAddressFor(string,address)": {
        "params": {
          "addr": "Address of contract.",
          "identifier": "Identifier of contract whose address we want to set."
        }
      },
      "transferOwnership(address)": {
        "details": "Allows the current owner to transfer control of the contract to a newOwner.",
        "params": {
          "newOwner": "The address to transfer ownership to."
        }
      }
    },
    "title": "Routes identifiers to addresses."
  },
  "userdoc": {
    "methods": {
      "getAddressFor(bytes32)": {
        "notice": "Gets address associated with the given identifierHash."
      },
      "getAddressForOrDie(bytes32)": {
        "notice": "Gets address associated with the given identifierHash."
      },
      "getAddressForString(string)": {
        "notice": "Gets address associated with the given identifier."
      },
      "getAddressForStringOrDie(string)": {
        "notice": "Gets address associated with the given identifier."
      },
      "renounceOwnership()": {
        "notice": "Renouncing ownership will leave the contract without an owner, thereby removing any functionality that is only available to the owner."
      },
      "setAddressFor(string,address)": {
        "notice": "Associates the given address with the given identifier."
      }
    }
  }
}