{
  "contractName": "Reserve",
  "abi": [
    {
      "constant": true,
      "inputs": [],
      "name": "TOBIN_TAX_DENOMINATOR",
      "outputs": [
        {
          "name": "",
          "type": "uint256"
        }
      ],
      "payable": false,
      "stateMutability": "view",
      "type": "function"
    },
    {
      "constant": true,
      "inputs": [],
      "name": "initialized",
      "outputs": [
        {
          "name": "",
          "type": "bool"
        }
      ],
      "payable": false,
      "stateMutability": "view",
      "type": "function"
    },
    {
      "constant": true,
      "inputs": [
        {
          "name": "",
          "type": "address"
        }
      ],
      "name": "isToken",
      "outputs": [
        {
          "name": "",
          "type": "bool"
        }
      ],
      "payable": false,
      "stateMutability": "view",
      "type": "function"
    },
    {
      "constant": true,
      "inputs": [],
      "name": "tobinTaxCache",
      "outputs": [
        {
          "name": "numerator",
          "type": "uint128"
        },
        {
          "name": "timestamp",
          "type": "uint128"
        }
      ],
      "payable": false,
      "stateMutability": "view",
      "type": "function"
    },
    {
      "constant": false,
      "inputs": [],
      "name": "renounceOwnership",
      "outputs": [],
      "payable": false,
      "stateMutability": "nonpayable",
      "type": "function"
    },
    {
      "constant": true,
      "inputs": [],
      "name": "registry",
      "outputs": [
        {
          "name": "",
          "type": "address"
        }
      ],
      "payable": false,
      "stateMutability": "view",
      "type": "function"
    },
    {
      "constant": true,
      "inputs": [],
      "name": "owner",
      "outputs": [
        {
          "name": "",
          "type": "address"
        }
      ],
      "payable": false,
      "stateMutability": "view",
      "type": "function"
    },
    {
      "constant": true,
      "inputs": [],
      "name": "isOwner",
      "outputs": [
        {
          "name": "",
          "type": "bool"
        }
      ],
      "payable": false,
      "stateMutability": "view",
      "type": "function"
    },
    {
      "constant": true,
      "inputs": [
        {
          "name": "",
          "type": "address"
        }
      ],
      "name": "isSpender",
      "outputs": [
        {
          "name": "",
          "type": "bool"
        }
      ],
      "payable": false,
      "stateMutability": "view",
      "type": "function"
    },
    {
      "constant": false,
      "inputs": [
        {
          "name": "registryAddress",
          "type": "address"
        }
      ],
      "name": "setRegistry",
      "outputs": [],
      "payable": false,
      "stateMutability": "nonpayable",
      "type": "function"
    },
    {
      "constant": true,
      "inputs": [],
      "name": "tobinTaxStalenessThreshold",
      "outputs": [
        {
          "name": "",
          "type": "uint256"
        }
      ],
      "payable": false,
      "stateMutability": "view",
      "type": "function"
    },
    {
      "constant": false,
      "inputs": [
        {
          "name": "newOwner",
          "type": "address"
        }
      ],
      "name": "transferOwnership",
      "outputs": [],
      "payable": false,
      "stateMutability": "nonpayable",
      "type": "function"
    },
    {
      "payable": true,
      "stateMutability": "payable",
      "type": "fallback"
    },
    {
      "anonymous": false,
      "inputs": [
        {
          "indexed": false,
          "name": "value",
          "type": "uint256"
        }
      ],
      "name": "TobinTaxStalenessThresholdSet",
      "type": "event"
    },
    {
      "anonymous": false,
      "inputs": [
        {
          "indexed": false,
          "name": "token",
          "type": "address"
        }
      ],
      "name": "TokenAdded",
      "type": "event"
    },
    {
      "anonymous": false,
      "inputs": [
        {
          "indexed": false,
          "name": "token",
          "type": "address"
        },
        {
          "indexed": false,
          "name": "index",
          "type": "uint256"
        }
      ],
      "name": "TokenRemoved",
      "type": "event"
    },
    {
      "anonymous": false,
      "inputs": [
        {
          "indexed": false,
          "name": "spender",
          "type": "address"
        }
      ],
      "name": "SpenderAdded",
      "type": "event"
    },
    {
      "anonymous": false,
      "inputs": [
        {
          "indexed": false,
          "name": "spender",
          "type": "address"
        }
      ],
      "name": "SpenderRemoved",
      "type": "event"
    },
    {
      "anonymous": false,
      "inputs": [
        {
          "indexed": true,
          "name": "registryAddress",
          "type": "address"
        }
      ],
      "name": "RegistrySet",
      "type": "event"
    },
    {
      "anonymous": false,
      "inputs": [
        {
          "indexed": true,
          "name": "previousOwner",
          "type": "address"
        },
        {
          "indexed": true,
          "name": "newOwner",
          "type": "address"
        }
      ],
      "name": "OwnershipTransferred",
      "type": "event"
    },
    {
      "constant": false,
      "inputs": [
        {
          "name": "registryAddress",
          "type": "address"
        },
        {
          "name": "_tobinTaxStalenessThreshold",
          "type": "uint256"
        }
      ],
      "name": "initialize",
      "outputs": [],
      "payable": false,
      "stateMutability": "nonpayable",
      "type": "function"
    },
    {
      "constant": false,
      "inputs": [
        {
          "name": "value",
          "type": "uint256"
        }
      ],
      "name": "setTobinTaxStalenessThreshold",
      "outputs": [],
      "payable": false,
      "stateMutability": "nonpayable",
      "type": "function"
    },
    {
      "constant": false,
      "inputs": [
        {
          "name": "token",
          "type": "address"
        }
      ],
      "name": "addToken",
      "outputs": [
        {
          "name": "",
          "type": "bool"
        }
      ],
      "payable": false,
      "stateMutability": "nonpayable",
      "type": "function"
    },
    {
      "constant": false,
      "inputs": [
        {
          "name": "token",
          "type": "address"
        },
        {
          "name": "index",
          "type": "uint256"
        }
      ],
      "name": "removeToken",
      "outputs": [
        {
          "name": "",
          "type": "bool"
        }
      ],
      "payable": false,
      "stateMutability": "nonpayable",
      "type": "function"
    },
    {
      "constant": false,
      "inputs": [
        {
          "name": "spender",
          "type": "address"
        }
      ],
      "name": "addSpender",
      "outputs": [],
      "payable": false,
      "stateMutability": "nonpayable",
      "type": "function"
    },
    {
      "constant": false,
      "inputs": [
        {
          "name": "spender",
          "type": "address"
        }
      ],
      "name": "removeSpender",
      "outputs": [],
      "payable": false,
      "stateMutability": "nonpayable",
      "type": "function"
    },
    {
      "constant": false,
      "inputs": [
        {
          "name": "to",
          "type": "address"
        },
        {
          "name": "value",
          "type": "uint256"
        }
      ],
      "name": "transferGold",
      "outputs": [
        {
          "name": "",
          "type": "bool"
        }
      ],
      "payable": false,
      "stateMutability": "nonpayable",
      "type": "function"
    },
    {
      "constant": false,
      "inputs": [],
      "name": "getOrComputeTobinTax",
      "outputs": [
        {
          "name": "",
          "type": "uint256"
        },
        {
          "name": "",
          "type": "uint256"
        }
      ],
      "payable": false,
      "stateMutability": "nonpayable",
      "type": "function"
    },
    {
      "constant": true,
      "inputs": [],
      "name": "getTokens",
      "outputs": [
        {
          "name": "",
          "type": "address[]"
        }
      ],
      "payable": false,
      "stateMutability": "view",
      "type": "function"
    }
  ],
  "bytecode": "0x6080604052336000806101000a81548173ffffffffffffffffffffffffffffffffffffffff021916908373ffffffffffffffffffffffffffffffffffffffff1602179055506000809054906101000a900473ffffffffffffffffffffffffffffffffffffffff1673ffffffffffffffffffffffffffffffffffffffff16600073ffffffffffffffffffffffffffffffffffffffff167f8be0079c531659141344cd1fd0a4f28419497f9722a3daafe3b4186f6b6457e060405160405180910390a36001600281905550611f3d806100d76000396000f3fe60806040526004361061012a5760003560e01c80638da5cb5b116100ab578063aa6ca8081161006f578063aa6ca808146105bb578063cd6dc68714610627578063d48bfca714610682578063e33a88e7146106eb578063e7e31e7a14610716578063f2fde38b146107675761012a565b80638da5cb5b146104405780638f32d59b146104975780639a206ece146104c6578063a1ab55b31461052f578063a91ee0dc1461056a5761012a565b80631c39c7d5116100f25780631c39c7d51461029457806322796e8314610307578063715018a6146103815780637b103999146103985780638ce5877c146103ef5761012a565b806304831bb71461012c57806313baf1e614610157578063158ef93e146101ca57806317f9a6f7146101f957806319f373611461022b575b005b34801561013857600080fd5b506101416107b8565b6040518082815260200191505060405180910390f35b34801561016357600080fd5b506101b06004803603604081101561017a57600080fd5b81019080803573ffffffffffffffffffffffffffffffffffffffff169060200190929190803590602001909291905050506107be565b604051808215151515815260200191505060405180910390f35b3480156101d657600080fd5b506101df610adb565b604051808215151515815260200191505060405180910390f35b34801561020557600080fd5b5061020e610aee565b604051808381526020018281526020019250505060405180910390f35b34801561023757600080fd5b5061027a6004803603602081101561024e57600080fd5b81019080803573ffffffffffffffffffffffffffffffffffffffff169060200190929190505050610c26565b604051808215151515815260200191505060405180910390f35b3480156102a057600080fd5b506102ed600480360360408110156102b757600080fd5b81019080803573ffffffffffffffffffffffffffffffffffffffff16906020019092919080359060200190929190505050610c46565b604051808215151515815260200191505060405180910390f35b34801561031357600080fd5b5061031c610e2f565b60405180836fffffffffffffffffffffffffffffffff166fffffffffffffffffffffffffffffffff168152602001826fffffffffffffffffffffffffffffffff166fffffffffffffffffffffffffffffffff1681526020019250505060405180910390f35b34801561038d57600080fd5b50610396610e79565b005b3480156103a457600080fd5b506103ad610f49565b604051808273ffffffffffffffffffffffffffffffffffffffff1673ffffffffffffffffffffffffffffffffffffffff16815260200191505060405180910390f35b3480156103fb57600080fd5b5061043e6004803603602081101561041257600080fd5b81019080803573ffffffffffffffffffffffffffffffffffffffff169060200190929190505050610f6f565b005b34801561044c57600080fd5b5061045561103e565b604051808273ffffffffffffffffffffffffffffffffffffffff1673ffffffffffffffffffffffffffffffffffffffff16815260200191505060405180910390f35b3480156104a357600080fd5b506104ac611067565b604051808215151515815260200191505060405180910390f35b3480156104d257600080fd5b50610515600480360360208110156104e957600080fd5b81019080803573ffffffffffffffffffffffffffffffffffffffff1690602001909291905050506110be565b604051808215151515815260200191505060405180910390f35b34801561053b57600080fd5b506105686004803603602081101561055257600080fd5b81019080803590602001909291905050506110de565b005b34801561057657600080fd5b506105b96004803603602081101561058d57600080fd5b81019080803573ffffffffffffffffffffffffffffffffffffffff1690602001909291905050506111a6565b005b3480156105c757600080fd5b506105d061123e565b6040518080602001828103825283818151815260200191508051906020019060200280838360005b838110156106135780820151818401526020810190506105f8565b505050509050019250505060405180910390f35b34801561063357600080fd5b506106806004803603604081101561064a57600080fd5b81019080803573ffffffffffffffffffffffffffffffffffffffff169060200190929190803590602001909291905050506112cc565b005b34801561068e57600080fd5b506106d1600480360360208110156106a557600080fd5b81019080803573ffffffffffffffffffffffffffffffffffffffff16906020019092919050505061131e565b604051808215151515815260200191505060405180910390f35b3480156106f757600080fd5b50610700611785565b6040518082815260200191505060405180910390f35b34801561072257600080fd5b506107656004803603602081101561073957600080fd5b81019080803573ffffffffffffffffffffffffffffffffffffffff16906020019092919050505061178b565b005b34801561077357600080fd5b506107b66004803603602081101561078a57600080fd5b81019080803573ffffffffffffffffffffffffffffffffffffffff16906020019092919050505061185a565b005b6103e881565b60006107c8611067565b6107d157600080fd5b82600360008273ffffffffffffffffffffffffffffffffffffffff1673ffffffffffffffffffffffffffffffffffffffff16815260200190815260200160002060009054906101000a900460ff16610891576040517f08c379a000000000000000000000000000000000000000000000000000000000815260040180806020018281038252601f8152602001807f746f6b656e206164647220776173206e6576657220726567697374657265640081525060200191505060405180910390fd5b6004805490508310801561090757508373ffffffffffffffffffffffffffffffffffffffff16600484815481106108c457fe5b9060005260206000200160009054906101000a900473ffffffffffffffffffffffffffffffffffffffff1673ffffffffffffffffffffffffffffffffffffffff16145b61095c576040517f08c379a000000000000000000000000000000000000000000000000000000000815260040180806020018281038252602a815260200180611ebc602a913960400191505060405180910390fd5b6000600360008673ffffffffffffffffffffffffffffffffffffffff1673ffffffffffffffffffffffffffffffffffffffff16815260200190815260200160002060006101000a81548160ff02191690831515021790555060006004600160048054905003815481106109cb57fe5b9060005260206000200160009054906101000a900473ffffffffffffffffffffffffffffffffffffffff1690508060048581548110610a0657fe5b9060005260206000200160006101000a81548173ffffffffffffffffffffffffffffffffffffffff021916908373ffffffffffffffffffffffffffffffffffffffff1602179055506004805480919060019003610a639190611e6a565b507fbe9bb4bdca0a094babd75e3a98b1d2e2390633430d0a2f6e2b9970e2ee03fb2e8585604051808373ffffffffffffffffffffffffffffffffffffffff1673ffffffffffffffffffffffffffffffffffffffff1681526020018281526020019250505060405180910390a160019250505092915050565b600060149054906101000a900460ff1681565b600080600160026000828254019250508190555060006002549050600654610b52600560000160109054906101000a90046fffffffffffffffffffffffffffffffff166fffffffffffffffffffffffffffffffff164261187790919063ffffffff16565b1115610bd857610b60611897565b600560000160006101000a8154816fffffffffffffffffffffffffffffffff02191690836fffffffffffffffffffffffffffffffff16021790555042600560000160106101000a8154816fffffffffffffffffffffffffffffffff02191690836fffffffffffffffffffffffffffffffff1602179055505b600560000160009054906101000a90046fffffffffffffffffffffffffffffffff166fffffffffffffffffffffffffffffffff166103e8925092506002548114610c2157600080fd5b509091565b60036020528060005260406000206000915054906101000a900460ff1681565b6000600760003373ffffffffffffffffffffffffffffffffffffffff1673ffffffffffffffffffffffffffffffffffffffff16815260200190815260200160002060009054906101000a900460ff16610cea576040517f08c379a000000000000000000000000000000000000000000000000000000000815260040180806020018281038252602c815260200180611ee6602c913960400191505060405180910390fd5b610cf2611bf8565b73ffffffffffffffffffffffffffffffffffffffff1663a9059cbb84846040518363ffffffff1660e01b8152600401808373ffffffffffffffffffffffffffffffffffffffff1673ffffffffffffffffffffffffffffffffffffffff16815260200182815260200192505050602060405180830381600087803b158015610d7857600080fd5b505af1158015610d8c573d6000803e3d6000fd5b505050506040513d6020811015610da257600080fd5b8101908080519060200190929190505050610e25576040517f08c379a000000000000000000000000000000000000000000000000000000000815260040180806020018281038252601d8152602001807f7472616e73666572206f6620676f6c6420746f6b656e206661696c656400000081525060200191505060405180910390fd5b6001905092915050565b60058060000160009054906101000a90046fffffffffffffffffffffffffffffffff16908060000160109054906101000a90046fffffffffffffffffffffffffffffffff16905082565b610e81611067565b610e8a57600080fd5b600073ffffffffffffffffffffffffffffffffffffffff166000809054906101000a900473ffffffffffffffffffffffffffffffffffffffff1673ffffffffffffffffffffffffffffffffffffffff167f8be0079c531659141344cd1fd0a4f28419497f9722a3daafe3b4186f6b6457e060405160405180910390a360008060006101000a81548173ffffffffffffffffffffffffffffffffffffffff021916908373ffffffffffffffffffffffffffffffffffffffff160217905550565b600160009054906101000a900473ffffffffffffffffffffffffffffffffffffffff1681565b610f77611067565b610f8057600080fd5b6000600760008373ffffffffffffffffffffffffffffffffffffffff1673ffffffffffffffffffffffffffffffffffffffff16815260200190815260200160002060006101000a81548160ff0219169083151502179055507fab8cff50266d80b9c9d9703af934ca455b9218286bf4fcaa05653a564c499e4b81604051808273ffffffffffffffffffffffffffffffffffffffff1673ffffffffffffffffffffffffffffffffffffffff16815260200191505060405180910390a150565b60008060009054906101000a900473ffffffffffffffffffffffffffffffffffffffff16905090565b60008060009054906101000a900473ffffffffffffffffffffffffffffffffffffffff1673ffffffffffffffffffffffffffffffffffffffff163373ffffffffffffffffffffffffffffffffffffffff1614905090565b60076020528060005260406000206000915054906101000a900460ff1681565b6110e6611067565b6110ef57600080fd5b60008111611165576040517f08c379a000000000000000000000000000000000000000000000000000000000815260040180806020018281038252600e8152602001807f76616c756520776173207a65726f00000000000000000000000000000000000081525060200191505060405180910390fd5b806006819055507f7bfe94ca3147f135fcd6d94ebf61d33fa34fbe904f933ccae66911b9548544f2816040518082815260200191505060405180910390a150565b6111ae611067565b6111b757600080fd5b80600160006101000a81548173ffffffffffffffffffffffffffffffffffffffff021916908373ffffffffffffffffffffffffffffffffffffffff1602179055508073ffffffffffffffffffffffffffffffffffffffff167f27fe5f0c1c3b1ed427cc63d0f05759ffdecf9aec9e18d31ef366fc8a6cb5dc3b60405160405180910390a250565b606060048054806020026020016040519081016040528092919081815260200182805480156112c257602002820191906000526020600020905b8160009054906101000a900473ffffffffffffffffffffffffffffffffffffffff1673ffffffffffffffffffffffffffffffffffffffff1681526020019060010190808311611278575b5050505050905090565b600060149054906101000a900460ff16156112e657600080fd5b6001600060146101000a81548160ff02191690831515021790555061130a33611cf3565b611313826111a6565b806006819055505050565b6000611328611067565b61133157600080fd5b600160026000828254019250508190555060006002549050600360008473ffffffffffffffffffffffffffffffffffffffff1673ffffffffffffffffffffffffffffffffffffffff16815260200190815260200160002060009054906101000a900460ff1615611409576040517f08c379a000000000000000000000000000000000000000000000000000000000815260040180806020018281038252601d8152602001807f746f6b656e206164647220616c7265616479207265676973746572656400000081525060200191505060405180910390fd5b6000600160009054906101000a900473ffffffffffffffffffffffffffffffffffffffff1673ffffffffffffffffffffffffffffffffffffffff1663dcf0aaed60405160200180807f536f727465644f7261636c657300000000000000000000000000000000000000815250600d019050604051602081830303815290604052805190602001206040518263ffffffff1660e01b81526004018082815260200191505060206040518083038186803b1580156114c457600080fd5b505afa1580156114d8573d6000803e3d6000fd5b505050506040513d60208110156114ee57600080fd5b8101908080519060200190929190505050905060008190506000808273ffffffffffffffffffffffffffffffffffffffff1663ef90e1b0886040518263ffffffff1660e01b8152600401808273ffffffffffffffffffffffffffffffffffffffff1673ffffffffffffffffffffffffffffffffffffffff168152602001915050604080518083038186803b15801561158557600080fd5b505afa158015611599573d6000803e3d6000fd5b505050506040513d60408110156115af57600080fd5b810190808051906020019092919080519060200190929190505050809250819350505060008111611648576040517f08c379a000000000000000000000000000000000000000000000000000000000815260040180806020018281038252601b8152602001807f6d656469616e20726174652072657475726e6564203020676f6c64000000000081525060200191505060405180910390fd5b6001600360008973ffffffffffffffffffffffffffffffffffffffff1673ffffffffffffffffffffffffffffffffffffffff16815260200190815260200160002060006101000a81548160ff02191690831515021790555060048790806001815401808255809150509060018203906000526020600020016000909192909190916101000a81548173ffffffffffffffffffffffffffffffffffffffff021916908373ffffffffffffffffffffffffffffffffffffffff160217905550507f784c8f4dbf0ffedd6e72c76501c545a70f8b203b30a26ce542bf92ba87c248a487604051808273ffffffffffffffffffffffffffffffffffffffff1673ffffffffffffffffffffffffffffffffffffffff16815260200191505060405180910390a16001955050505050600254811461177f57600080fd5b50919050565b60065481565b611793611067565b61179c57600080fd5b6001600760008373ffffffffffffffffffffffffffffffffffffffff1673ffffffffffffffffffffffffffffffffffffffff16815260200190815260200160002060006101000a81548160ff0219169083151502179055507f3139419c41cdd7abca84fa19dd21118cd285d3e2ce1a9444e8161ce9fa62fdcd81604051808273ffffffffffffffffffffffffffffffffffffffff1673ffffffffffffffffffffffffffffffffffffffff16815260200191505060405180910390a150565b611862611067565b61186b57600080fd5b61187481611cf3565b50565b60008282111561188657600080fd5b600082840390508091505092915050565b600080600160009054906101000a900473ffffffffffffffffffffffffffffffffffffffff1673ffffffffffffffffffffffffffffffffffffffff1663dcf0aaed60405160200180807f536f727465644f7261636c657300000000000000000000000000000000000000815250600d019050604051602081830303815290604052805190602001206040518263ffffffff1660e01b81526004018082815260200191505060206040518083038186803b15801561195357600080fd5b505afa158015611967573d6000803e3d6000fd5b505050506040513d602081101561197d57600080fd5b81019080805190602001909291905050509050600081905060003073ffffffffffffffffffffffffffffffffffffffff16319050600080905060008090505b600480549050811015611bd7576000808573ffffffffffffffffffffffffffffffffffffffff1663ef90e1b0600485815481106119f557fe5b9060005260206000200160009054906101000a900473ffffffffffffffffffffffffffffffffffffffff166040518263ffffffff1660e01b8152600401808273ffffffffffffffffffffffffffffffffffffffff1673ffffffffffffffffffffffffffffffffffffffff168152602001915050604080518083038186803b158015611a7f57600080fd5b505afa158015611a93573d6000803e3d6000fd5b505050506040513d6040811015611aa957600080fd5b8101908080519060200190929190805190602001909291905050508092508193505050600060048481548110611adb57fe5b9060005260206000200160009054906101000a900473ffffffffffffffffffffffffffffffffffffffff1673ffffffffffffffffffffffffffffffffffffffff166318160ddd6040518163ffffffff1660e01b815260040160206040518083038186803b158015611b4b57600080fd5b505afa158015611b5f573d6000803e3d6000fd5b505050506040513d6020811015611b7557600080fd5b810190808051906020019092919050505090506000611baf84611ba18585611deb90919063ffffffff16565b611e2590919063ffffffff16565b9050611bc48187611e4b90919063ffffffff16565b95505050505080806001019150506119bc565b50808210611bec576000945050505050611bf5565b60059450505050505b90565b6000600160009054906101000a900473ffffffffffffffffffffffffffffffffffffffff1673ffffffffffffffffffffffffffffffffffffffff1663dcf0aaed60405160200180807f476f6c64546f6b656e00000000000000000000000000000000000000000000008152506009019050604051602081830303815290604052805190602001206040518263ffffffff1660e01b81526004018082815260200191505060206040518083038186803b158015611cb357600080fd5b505afa158015611cc7573d6000803e3d6000fd5b505050506040513d6020811015611cdd57600080fd5b8101908080519060200190929190505050905090565b600073ffffffffffffffffffffffffffffffffffffffff168173ffffffffffffffffffffffffffffffffffffffff161415611d2d57600080fd5b8073ffffffffffffffffffffffffffffffffffffffff166000809054906101000a900473ffffffffffffffffffffffffffffffffffffffff1673ffffffffffffffffffffffffffffffffffffffff167f8be0079c531659141344cd1fd0a4f28419497f9722a3daafe3b4186f6b6457e060405160405180910390a3806000806101000a81548173ffffffffffffffffffffffffffffffffffffffff021916908373ffffffffffffffffffffffffffffffffffffffff16021790555050565b600080831415611dfe5760009050611e1f565b6000828402905082848281611e0f57fe5b0414611e1a57600080fd5b809150505b92915050565b6000808211611e3357600080fd5b6000828481611e3e57fe5b0490508091505092915050565b600080828401905083811015611e6057600080fd5b8091505092915050565b815481835581811115611e9157818360005260206000209182019101611e909190611e96565b5b505050565b611eb891905b80821115611eb4576000816000905550600101611e9c565b5090565b9056fe696e64657820696e746f20746f6b656e73206c697374206e6f74206d617070656420746f20746f6b656e73656e646572206e6f7420616c6c6f77656420746f207472616e7366657220526573657276652066756e6473a165627a7a72305820345661e8ad09b557d0cd8b59151a0c84fad8f98394057a98def5241101539c190029",
  "source": "pragma solidity ^0.5.3;\n\nimport \"openzeppelin-solidity/contracts/utils/ReentrancyGuard.sol\";\nimport \"openzeppelin-solidity/contracts/math/SafeMath.sol\";\nimport \"openzeppelin-solidity/contracts/ownership/Ownable.sol\";\n\nimport \"./interfaces/IReserve.sol\";\nimport \"./interfaces/ISortedOracles.sol\";\nimport \"./interfaces/IStableToken.sol\";\n\nimport \"../common/Initializable.sol\";\nimport \"../common/UsingRegistry.sol\";\n\n/**\n * @title Ensures price stability of StableTokens with respect to their pegs\n */\ncontract Reserve is IReserve, Ownable, Initializable, UsingRegistry, ReentrancyGuard {\n  using SafeMath for uint256;\n\n  struct TobinTaxCache {\n    uint128 numerator;\n    uint128 timestamp;\n  }\n\n  mapping(address => bool) public isToken;\n  address[] private _tokens;\n  TobinTaxCache public tobinTaxCache;\n  uint256 public tobinTaxStalenessThreshold;\n  uint256 public constant TOBIN_TAX_DENOMINATOR = 1000;\n  mapping(address => bool) public isSpender;\n\n  event TobinTaxStalenessThresholdSet(uint256 value);\n  event TokenAdded(address token);\n  event TokenRemoved(address token, uint256 index);\n  event SpenderAdded(address spender);\n  event SpenderRemoved(address spender);\n\n  modifier isStableToken(address token) {\n    require(isToken[token], \"token addr was never registered\");\n    _;\n  }\n\n  function() external payable {} // solhint-disable no-empty-blocks\n\n  function initialize(address registryAddress, uint256 _tobinTaxStalenessThreshold)\n    external\n    initializer\n  {\n    _transferOwnership(msg.sender);\n    setRegistry(registryAddress);\n    tobinTaxStalenessThreshold = _tobinTaxStalenessThreshold;\n  }\n\n  /**\n   * @notice Sets the number of seconds to cache the tobin tax value for.\n   * @param value The number of seconds to cache the tobin tax value for.\n   */\n  function setTobinTaxStalenessThreshold(uint256 value) external onlyOwner {\n    require(value > 0, \"value was zero\");\n    tobinTaxStalenessThreshold = value;\n    emit TobinTaxStalenessThresholdSet(value);\n  }\n\n  /**\n   * @notice Add a token that the reserve will stablize.\n   * @param token The address of the token being stabilized.\n   */\n  function addToken(address token) external onlyOwner nonReentrant returns (bool) {\n    require(!isToken[token], \"token addr already registered\");\n    // Require an exchange rate between the new token and Gold exists.\n    address sortedOraclesAddress = registry.getAddressForOrDie(SORTED_ORACLES_REGISTRY_ID);\n    ISortedOracles sortedOracles = ISortedOracles(sortedOraclesAddress);\n    uint256 tokenAmount;\n    uint256 goldAmount;\n    (tokenAmount, goldAmount) = sortedOracles.medianRate(token);\n    require(goldAmount > 0, \"median rate returned 0 gold\");\n    isToken[token] = true;\n    _tokens.push(token);\n    emit TokenAdded(token);\n    return true;\n  }\n\n  /**\n   * @notice Remove a token that the reserve will no longer stabilize.\n   * @param token The address of the token no longer being stabilized.\n   * @param index The index of the token in _tokens.\n   */\n  function removeToken(address token, uint256 index)\n    external\n    onlyOwner\n    isStableToken(token)\n    returns (bool)\n  {\n    require(\n      index < _tokens.length && _tokens[index] == token,\n      \"index into tokens list not mapped to token\"\n    );\n    isToken[token] = false;\n    address lastItem = _tokens[_tokens.length - 1];\n    _tokens[index] = lastItem;\n    _tokens.length--;\n    emit TokenRemoved(token, index);\n    return true;\n  }\n\n  /**\n   * @notice Gives an address permission to spend Reserve funds.\n   * @param spender The address that is allowed to spend Reserve funds.\n   */\n  function addSpender(address spender) external onlyOwner {\n    isSpender[spender] = true;\n    emit SpenderAdded(spender);\n  }\n\n  /**\n   * @notice Takes away an address's permission to spend Reserve funds.\n   * @param spender The address that is to be no longer allowed to spend Reserve funds.\n   */\n  function removeSpender(address spender) external onlyOwner {\n    isSpender[spender] = false;\n    emit SpenderRemoved(spender);\n  }\n\n  /**\n   * @notice Transfer gold.\n   * @param to The address that will receive the gold.\n   * @param value The amount of gold to transfer.\n   */\n  function transferGold(address to, uint256 value) external returns (bool) {\n    require(isSpender[msg.sender], \"sender not allowed to transfer Reserve funds\");\n    require(getGoldToken().transfer(to, value), \"transfer of gold token failed\");\n    return true;\n  }\n\n  /**\n   * @notice Returns the tobin tax, recomputing it if it's stale.\n   * @return The tobin tax amount as a fraction.\n   */\n  function getOrComputeTobinTax() external nonReentrant returns (uint256, uint256) {\n    // solhint-disable-next-line not-rely-on-time\n    if (now.sub(tobinTaxCache.timestamp) > tobinTaxStalenessThreshold) {\n      tobinTaxCache.numerator = uint128(computeTobinTax());\n      tobinTaxCache.timestamp = uint128(now); // solhint-disable-line not-rely-on-time\n    }\n    return (uint256(tobinTaxCache.numerator), TOBIN_TAX_DENOMINATOR);\n  }\n\n  function getTokens() external view returns (address[] memory) {\n    return _tokens;\n  }\n\n  /*\n   * Internal functions\n   */\n  /**\n   * @notice Computes a tobin tax based on the reserve ratio.\n   * @return The numerator of the tobin tax amount, where the denominator is 1000.\n   */\n  function computeTobinTax() private view returns (uint256) {\n    address sortedOraclesAddress = registry.getAddressForOrDie(SORTED_ORACLES_REGISTRY_ID);\n    ISortedOracles sortedOracles = ISortedOracles(sortedOraclesAddress);\n    uint256 reserveGoldBalance = address(this).balance;\n    uint256 stableTokensValueInGold = 0;\n\n    for (uint256 i = 0; i < _tokens.length; i++) {\n      uint256 stableAmount;\n      uint256 goldAmount;\n      (stableAmount, goldAmount) = sortedOracles.medianRate(_tokens[i]);\n      uint256 stableTokenSupply = IERC20Token(_tokens[i]).totalSupply();\n      uint256 aStableTokenValueInGold = stableTokenSupply.mul(goldAmount).div(stableAmount);\n      stableTokensValueInGold = stableTokensValueInGold.add(aStableTokenValueInGold);\n    }\n\n    // The protocol calls for a 0.5% transfer tax on Celo Gold when the reserve ratio < 2.\n    // The protocol aims to keep half of the reserve value in gold, thus the reserve ratio\n    // is two when the value of gold in the reserve is equal to the total supply of stable tokens.\n    if (reserveGoldBalance >= stableTokensValueInGold) {\n      return 0;\n    } else {\n      return 5;\n    }\n  }\n\n  /**\n   * @notice Mint tokens.\n   * @param to The address that will receive the minted tokens.\n   * @param token The address of the token to mint.\n   * @param value The amount of tokens to mint.\n   */\n  function mintToken(address to, address token, uint256 value)\n    private\n    isStableToken(token)\n    returns (bool)\n  {\n    IStableToken stableToken = IStableToken(token);\n    stableToken.mint(to, value);\n    return true;\n  }\n}\n",
  "sourcePath": "/Users/cmcewen/celo/celo-monorepo/packages/protocol/contracts/stability/Reserve.sol",
  "compiler": {
    "name": "solc",
    "version": "0.5.8+commit.23d335f2.Emscripten.clang"
  },
  "schemaVersion": "3.0.10",
  "updatedAt": "2019-12-06T00:12:54.928Z",
  "devdoc": {
    "methods": {
      "addSpender(address)": {
        "params": {
          "spender": "The address that is allowed to spend Reserve funds."
        }
      },
      "addToken(address)": {
        "params": {
          "token": "The address of the token being stabilized."
        }
      },
      "getOrComputeTobinTax()": {
        "return": "The tobin tax amount as a fraction."
      },
      "isOwner()": {
        "return": "true if `msg.sender` is the owner of the contract."
      },
      "owner()": {
        "return": "the address of the owner."
      },
      "removeSpender(address)": {
        "params": {
          "spender": "The address that is to be no longer allowed to spend Reserve funds."
        }
      },
      "removeToken(address,uint256)": {
        "params": {
          "index": "The index of the token in _tokens.",
          "token": "The address of the token no longer being stabilized."
        }
      },
      "renounceOwnership()": {
        "details": "Allows the current owner to relinquish control of the contract. It will not be possible to call the functions with the `onlyOwner` modifier anymore."
      },
      "setRegistry(address)": {
        "params": {
          "registryAddress": "The address of a registry contract for routing to other contracts."
        }
      },
      "setTobinTaxStalenessThreshold(uint256)": {
        "params": {
          "value": "The number of seconds to cache the tobin tax value for."
        }
      },
      "transferGold(address,uint256)": {
        "params": {
          "to": "The address that will receive the gold.",
          "value": "The amount of gold to transfer."
        }
      },
      "transferOwnership(address)": {
        "details": "Allows the current owner to transfer control of the contract to a newOwner.",
        "params": {
          "newOwner": "The address to transfer ownership to."
        }
      }
    },
    "title": "Ensures price stability of StableTokens with respect to their pegs"
  },
  "userdoc": {
    "methods": {
      "addSpender(address)": {
        "notice": "Gives an address permission to spend Reserve funds."
      },
      "addToken(address)": {
        "notice": "Add a token that the reserve will stablize."
      },
      "getOrComputeTobinTax()": {
        "notice": "Returns the tobin tax, recomputing it if it's stale."
      },
      "removeSpender(address)": {
        "notice": "Takes away an address's permission to spend Reserve funds."
      },
      "removeToken(address,uint256)": {
        "notice": "Remove a token that the reserve will no longer stabilize."
      },
      "renounceOwnership()": {
        "notice": "Renouncing ownership will leave the contract without an owner, thereby removing any functionality that is only available to the owner."
      },
      "setRegistry(address)": {
        "notice": "Updates the address pointing to a Registry contract."
      },
      "setTobinTaxStalenessThreshold(uint256)": {
        "notice": "Sets the number of seconds to cache the tobin tax value for."
      },
      "transferGold(address,uint256)": {
        "notice": "Transfer gold."
      }
    }
  }
}