{
  "contractName": "Signatures",
  "abi": [
    {
      "constant": true,
      "inputs": [
        {
          "name": "message",
          "type": "address"
        },
        {
          "name": "v",
          "type": "uint8"
        },
        {
          "name": "r",
          "type": "bytes32"
        },
        {
          "name": "s",
          "type": "bytes32"
        }
      ],
      "name": "getSignerOfAddress",
      "outputs": [
        {
          "name": "",
          "type": "address"
        }
      ],
      "payable": false,
      "stateMutability": "pure",
      "type": "function"
    },
    {
      "constant": true,
      "inputs": [
        {
          "name": "messageHash",
          "type": "bytes32"
        },
        {
          "name": "v",
          "type": "uint8"
        },
        {
          "name": "r",
          "type": "bytes32"
        },
        {
          "name": "s",
          "type": "bytes32"
        }
      ],
      "name": "getSignerOfMessageHash",
      "outputs": [
        {
          "name": "",
          "type": "address"
        }
      ],
      "payable": false,
      "stateMutability": "pure",
      "type": "function"
    }
  ],
  "bytecode": "0x610344610026600b82828239805160001a60731461001957fe5b30600052607381538281f3fe73000000000000000000000000000000000000000030146080604052600436106100405760003560e01c806396ef41a114610045578063b3abdb0c146100ea575b600080fd5b6100a86004803603608081101561005b57600080fd5b81019080803573ffffffffffffffffffffffffffffffffffffffff169060200190929190803560ff1690602001909291908035906020019092919080359060200190929190505050610179565b604051808273ffffffffffffffffffffffffffffffffffffffff1673ffffffffffffffffffffffffffffffffffffffff16815260200191505060405180910390f35b6101376004803603608081101561010057600080fd5b8101908080359060200190929190803560ff16906020019092919080359060200190929190803590602001909291905050506101eb565b604051808273ffffffffffffffffffffffffffffffffffffffff1673ffffffffffffffffffffffffffffffffffffffff16815260200191505060405180910390f35b60008085604051602001808273ffffffffffffffffffffffffffffffffffffffff1673ffffffffffffffffffffffffffffffffffffffff1660601b81526014019150506040516020818303038152906040528051906020012090506101e0818686866101eb565b915050949350505050565b600060606040518060400160405280601c81526020017f19457468657265756d205369676e6564204d6573736167653a0a3332000000008152509050600081876040516020018083805190602001908083835b60208310610261578051825260208201915060208101905060208303925061023e565b6001836020036101000a0380198251168184511680821785525050505050509050018281526020019250505060405160208183030381529060405280519060200120905060018187878760405160008152602001604052604051808581526020018460ff1660ff1681526020018381526020018281526020019450505050506020604051602081039080840390855afa158015610302573d6000803e3d6000fd5b505050602060405103519250505094935050505056fea165627a7a7230582013309b6dae045866408244d699809757c682bcc70d2b36beeafc89417128149c0029",
  "source": "pragma solidity ^0.5.3;\n\nlibrary Signatures {\n  /**\n  * @notice Given a signed address, returns the signer of the address.\n  * @param message The address that was signed.\n  * @param v The recovery id of the incoming ECDSA signature.\n  * @param r Output value r of the ECDSA signature.\n  * @param s Output value s of the ECDSA signature.\n  */\n  function getSignerOfAddress(address message, uint8 v, bytes32 r, bytes32 s)\n    public\n    pure\n    returns (address)\n  {\n    bytes32 hash = keccak256(abi.encodePacked(message));\n    return getSignerOfMessageHash(hash, v, r, s);\n  }\n\n  /**\n  * @notice Given a signed address, returns the signer of the address.\n  * @param messageHash The hash of a message.\n  * @param v The recovery id of the incoming ECDSA signature.\n  * @param r Output value r of the ECDSA signature.\n  * @param s Output value s of the ECDSA signature.\n  */\n  function getSignerOfMessageHash(bytes32 messageHash, uint8 v, bytes32 r, bytes32 s)\n    public\n    pure\n    returns (address)\n  {\n    bytes memory prefix = \"\\x19Ethereum Signed Message:\\n32\";\n    bytes32 prefixedHash = keccak256(abi.encodePacked(prefix, messageHash));\n    return ecrecover(prefixedHash, v, r, s);\n  }\n}\n",
  "sourcePath": "/Users/cmcewen/celo/celo-monorepo/packages/protocol/contracts/common/Signatures.sol",
  "compiler": {
    "name": "solc",
    "version": "0.5.8+commit.23d335f2.Emscripten.clang"
  },
  "schemaVersion": "3.0.10",
  "updatedAt": "2019-12-06T00:02:50.177Z",
  "devdoc": {
    "methods": {
      "getSignerOfAddress(address,uint8,bytes32,bytes32)": {
        "params": {
          "message": "The address that was signed.",
          "r": "Output value r of the ECDSA signature.",
          "s": "Output value s of the ECDSA signature.",
          "v": "The recovery id of the incoming ECDSA signature."
        }
      },
      "getSignerOfMessageHash(bytes32,uint8,bytes32,bytes32)": {
        "params": {
          "messageHash": "The hash of a message.",
          "r": "Output value r of the ECDSA signature.",
          "s": "Output value s of the ECDSA signature.",
          "v": "The recovery id of the incoming ECDSA signature."
        }
      }
    }
  },
  "userdoc": {
    "methods": {
      "getSignerOfAddress(address,uint8,bytes32,bytes32)": {
        "notice": "Given a signed address, returns the signer of the address."
      },
      "getSignerOfMessageHash(bytes32,uint8,bytes32,bytes32)": {
        "notice": "Given a signed address, returns the signer of the address."
      }
    }
  }
}