{
  "contractName": "SortedOracles",
  "abi": [
    {
      "constant": true,
      "inputs": [],
      "name": "initialized",
      "outputs": [
        {
          "name": "",
          "type": "bool"
        }
      ],
      "payable": false,
      "stateMutability": "view",
      "type": "function"
    },
    {
      "constant": true,
      "inputs": [
        {
          "name": "",
          "type": "address"
        },
        {
          "name": "",
          "type": "address"
        }
      ],
      "name": "isOracle",
      "outputs": [
        {
          "name": "",
          "type": "bool"
        }
      ],
      "payable": false,
      "stateMutability": "view",
      "type": "function"
    },
    {
      "constant": true,
      "inputs": [],
      "name": "reportExpirySeconds",
      "outputs": [
        {
          "name": "",
          "type": "uint256"
        }
      ],
      "payable": false,
      "stateMutability": "view",
      "type": "function"
    },
    {
      "constant": false,
      "inputs": [],
      "name": "renounceOwnership",
      "outputs": [],
      "payable": false,
      "stateMutability": "nonpayable",
      "type": "function"
    },
    {
      "constant": true,
      "inputs": [],
      "name": "owner",
      "outputs": [
        {
          "name": "",
          "type": "address"
        }
      ],
      "payable": false,
      "stateMutability": "view",
      "type": "function"
    },
    {
      "constant": true,
      "inputs": [],
      "name": "isOwner",
      "outputs": [
        {
          "name": "",
          "type": "bool"
        }
      ],
      "payable": false,
      "stateMutability": "view",
      "type": "function"
    },
    {
      "constant": true,
      "inputs": [],
      "name": "DENOMINATOR",
      "outputs": [
        {
          "name": "",
          "type": "uint256"
        }
      ],
      "payable": false,
      "stateMutability": "view",
      "type": "function"
    },
    {
      "constant": true,
      "inputs": [
        {
          "name": "",
          "type": "address"
        },
        {
          "name": "",
          "type": "uint256"
        }
      ],
      "name": "oracles",
      "outputs": [
        {
          "name": "",
          "type": "address"
        }
      ],
      "payable": false,
      "stateMutability": "view",
      "type": "function"
    },
    {
      "constant": false,
      "inputs": [
        {
          "name": "newOwner",
          "type": "address"
        }
      ],
      "name": "transferOwnership",
      "outputs": [],
      "payable": false,
      "stateMutability": "nonpayable",
      "type": "function"
    },
    {
      "anonymous": false,
      "inputs": [
        {
          "indexed": true,
          "name": "token",
          "type": "address"
        },
        {
          "indexed": true,
          "name": "oracleAddress",
          "type": "address"
        }
      ],
      "name": "OracleAdded",
      "type": "event"
    },
    {
      "anonymous": false,
      "inputs": [
        {
          "indexed": true,
          "name": "token",
          "type": "address"
        },
        {
          "indexed": true,
          "name": "oracleAddress",
          "type": "address"
        }
      ],
      "name": "OracleRemoved",
      "type": "event"
    },
    {
      "anonymous": false,
      "inputs": [
        {
          "indexed": false,
          "name": "token",
          "type": "address"
        },
        {
          "indexed": false,
          "name": "oracle",
          "type": "address"
        },
        {
          "indexed": false,
          "name": "timestamp",
          "type": "uint256"
        },
        {
          "indexed": false,
          "name": "numerator",
          "type": "uint256"
        },
        {
          "indexed": false,
          "name": "denominator",
          "type": "uint256"
        }
      ],
      "name": "OracleReported",
      "type": "event"
    },
    {
      "anonymous": false,
      "inputs": [
        {
          "indexed": true,
          "name": "token",
          "type": "address"
        },
        {
          "indexed": true,
          "name": "oracle",
          "type": "address"
        }
      ],
      "name": "OracleReportRemoved",
      "type": "event"
    },
    {
      "anonymous": false,
      "inputs": [
        {
          "indexed": false,
          "name": "token",
          "type": "address"
        },
        {
          "indexed": false,
          "name": "numerator",
          "type": "uint256"
        },
        {
          "indexed": false,
          "name": "denominator",
          "type": "uint256"
        }
      ],
      "name": "MedianUpdated",
      "type": "event"
    },
    {
      "anonymous": false,
      "inputs": [
        {
          "indexed": false,
          "name": "reportExpiry",
          "type": "uint256"
        }
      ],
      "name": "ReportExpirySet",
      "type": "event"
    },
    {
      "anonymous": false,
      "inputs": [
        {
          "indexed": true,
          "name": "previousOwner",
          "type": "address"
        },
        {
          "indexed": true,
          "name": "newOwner",
          "type": "address"
        }
      ],
      "name": "OwnershipTransferred",
      "type": "event"
    },
    {
      "constant": false,
      "inputs": [
        {
          "name": "_reportExpirySeconds",
          "type": "uint256"
        }
      ],
      "name": "initialize",
      "outputs": [],
      "payable": false,
      "stateMutability": "nonpayable",
      "type": "function"
    },
    {
      "constant": false,
      "inputs": [
        {
          "name": "_reportExpirySeconds",
          "type": "uint256"
        }
      ],
      "name": "setReportExpiry",
      "outputs": [],
      "payable": false,
      "stateMutability": "nonpayable",
      "type": "function"
    },
    {
      "constant": false,
      "inputs": [
        {
          "name": "token",
          "type": "address"
        },
        {
          "name": "oracleAddress",
          "type": "address"
        }
      ],
      "name": "addOracle",
      "outputs": [],
      "payable": false,
      "stateMutability": "nonpayable",
      "type": "function"
    },
    {
      "constant": false,
      "inputs": [
        {
          "name": "token",
          "type": "address"
        },
        {
          "name": "oracleAddress",
          "type": "address"
        },
        {
          "name": "index",
          "type": "uint256"
        }
      ],
      "name": "removeOracle",
      "outputs": [],
      "payable": false,
      "stateMutability": "nonpayable",
      "type": "function"
    },
    {
      "constant": false,
      "inputs": [
        {
          "name": "token",
          "type": "address"
        },
        {
          "name": "n",
          "type": "uint256"
        }
      ],
      "name": "removeExpiredReports",
      "outputs": [],
      "payable": false,
      "stateMutability": "nonpayable",
      "type": "function"
    },
    {
      "constant": false,
      "inputs": [
        {
          "name": "token",
          "type": "address"
        },
        {
          "name": "numerator",
          "type": "uint256"
        },
        {
          "name": "denominator",
          "type": "uint256"
        },
        {
          "name": "lesserKey",
          "type": "address"
        },
        {
          "name": "greaterKey",
          "type": "address"
        }
      ],
      "name": "report",
      "outputs": [],
      "payable": false,
      "stateMutability": "nonpayable",
      "type": "function"
    },
    {
      "constant": true,
      "inputs": [
        {
          "name": "token",
          "type": "address"
        }
      ],
      "name": "numRates",
      "outputs": [
        {
          "name": "",
          "type": "uint256"
        }
      ],
      "payable": false,
      "stateMutability": "view",
      "type": "function"
    },
    {
      "constant": true,
      "inputs": [
        {
          "name": "token",
          "type": "address"
        }
      ],
      "name": "medianRate",
      "outputs": [
        {
          "name": "",
          "type": "uint256"
        },
        {
          "name": "",
          "type": "uint256"
        }
      ],
      "payable": false,
      "stateMutability": "view",
      "type": "function"
    },
    {
      "constant": true,
      "inputs": [
        {
          "name": "token",
          "type": "address"
        }
      ],
      "name": "getRates",
      "outputs": [
        {
          "name": "",
          "type": "address[]"
        },
        {
          "name": "",
          "type": "uint256[]"
        },
        {
          "name": "",
          "type": "uint8[]"
        }
      ],
      "payable": false,
      "stateMutability": "view",
      "type": "function"
    },
    {
      "constant": true,
      "inputs": [
        {
          "name": "token",
          "type": "address"
        }
      ],
      "name": "numTimestamps",
      "outputs": [
        {
          "name": "",
          "type": "uint256"
        }
      ],
      "payable": false,
      "stateMutability": "view",
      "type": "function"
    },
    {
      "constant": true,
      "inputs": [
        {
          "name": "token",
          "type": "address"
        }
      ],
      "name": "medianTimestamp",
      "outputs": [
        {
          "name": "",
          "type": "uint256"
        }
      ],
      "payable": false,
      "stateMutability": "view",
      "type": "function"
    },
    {
      "constant": true,
      "inputs": [
        {
          "name": "token",
          "type": "address"
        }
      ],
      "name": "getTimestamps",
      "outputs": [
        {
          "name": "",
          "type": "address[]"
        },
        {
          "name": "",
          "type": "uint256[]"
        },
        {
          "name": "",
          "type": "uint8[]"
        }
      ],
      "payable": false,
      "stateMutability": "view",
      "type": "function"
    }
  ],
  "bytecode": "0x6080604052336000806101000a81548173ffffffffffffffffffffffffffffffffffffffff021916908373ffffffffffffffffffffffffffffffffffffffff1602179055506000809054906101000a900473ffffffffffffffffffffffffffffffffffffffff1673ffffffffffffffffffffffffffffffffffffffff16600073ffffffffffffffffffffffffffffffffffffffff167f8be0079c531659141344cd1fd0a4f28419497f9722a3daafe3b4186f6b6457e060405160405180910390a361318c806100cf6000396000f3fe608060405234801561001057600080fd5b50600436106101375760003560e01c80638f32d59b116100b8578063dd34ca3b1161007c578063dd34ca3b1461077a578063ebc1d6bb146107c8578063ef90e1b0146107f6578063f0ca4adb14610855578063f2fde38b146108b9578063fe4b84df146108fd57610137565b80638f32d59b1461052b578063918f86741461054d578063a00a8b2c1461056b578063b9292158146105f9578063bbc66a941461072257610137565b806353a57297116100ff57806353a57297146103795780636dd6ef0c146103e7578063715018a61461043f57806389240936146104495780638da5cb5b146104e157610137565b806302f55b611461013c578063071b48fc14610265578063158ef93e146102bd578063370c998e146102df578063493a353c1461035b575b600080fd5b61017e6004803603602081101561015257600080fd5b81019080803573ffffffffffffffffffffffffffffffffffffffff16906020019092919050505061092b565b60405180806020018060200180602001848103845287818151815260200191508051906020019060200280838360005b838110156101c95780820151818401526020810190506101ae565b50505050905001848103835286818151815260200191508051906020019060200280838360005b8381101561020b5780820151818401526020810190506101f0565b50505050905001848103825285818151815260200191508051906020019060200280838360005b8381101561024d578082015181840152602081019050610232565b50505050905001965050505050505060405180910390f35b6102a76004803603602081101561027b57600080fd5b81019080803573ffffffffffffffffffffffffffffffffffffffff169060200190929190505050610afb565b6040518082815260200191505060405180910390f35b6102c5610bce565b604051808215151515815260200191505060405180910390f35b610341600480360360408110156102f557600080fd5b81019080803573ffffffffffffffffffffffffffffffffffffffff169060200190929190803573ffffffffffffffffffffffffffffffffffffffff169060200190929190505050610be1565b604051808215151515815260200191505060405180910390f35b610363610c10565b6040518082815260200191505060405180910390f35b6103e56004803603606081101561038f57600080fd5b81019080803573ffffffffffffffffffffffffffffffffffffffff169060200190929190803573ffffffffffffffffffffffffffffffffffffffff16906020019092919080359060200190929190505050610c16565b005b610429600480360360208110156103fd57600080fd5b81019080803573ffffffffffffffffffffffffffffffffffffffff1690602001909291905050506110e9565b6040518082815260200191505060405180910390f35b6104476111bc565b005b6104df600480360360a081101561045f57600080fd5b81019080803573ffffffffffffffffffffffffffffffffffffffff1690602001909291908035906020019092919080359060200190929190803573ffffffffffffffffffffffffffffffffffffffff169060200190929190803573ffffffffffffffffffffffffffffffffffffffff16906020019092919050505061128c565b005b6104e9611d10565b604051808273ffffffffffffffffffffffffffffffffffffffff1673ffffffffffffffffffffffffffffffffffffffff16815260200191505060405180910390f35b610533611d39565b604051808215151515815260200191505060405180910390f35b610555611d90565b6040518082815260200191505060405180910390f35b6105b76004803603604081101561058157600080fd5b81019080803573ffffffffffffffffffffffffffffffffffffffff16906020019092919080359060200190929190505050611d9d565b604051808273ffffffffffffffffffffffffffffffffffffffff1673ffffffffffffffffffffffffffffffffffffffff16815260200191505060405180910390f35b61063b6004803603602081101561060f57600080fd5b81019080803573ffffffffffffffffffffffffffffffffffffffff169060200190929190505050611de8565b60405180806020018060200180602001848103845287818151815260200191508051906020019060200280838360005b8381101561068657808201518184015260208101905061066b565b50505050905001848103835286818151815260200191508051906020019060200280838360005b838110156106c85780820151818401526020810190506106ad565b50505050905001848103825285818151815260200191508051906020019060200280838360005b8381101561070a5780820151818401526020810190506106ef565b50505050905001965050505050505060405180910390f35b6107646004803603602081101561073857600080fd5b81019080803573ffffffffffffffffffffffffffffffffffffffff169060200190929190505050611fb8565b6040518082815260200191505060405180910390f35b6107c66004803603604081101561079057600080fd5b81019080803573ffffffffffffffffffffffffffffffffffffffff1690602001909291908035906020019092919050505061208b565b005b6107f4600480360360208110156107de57600080fd5b81019080803590602001909291905050506123bc565b005b6108386004803603602081101561080c57600080fd5b81019080803573ffffffffffffffffffffffffffffffffffffffff16906020019092919050505061240e565b604051808381526020018281526020019250505060405180910390f35b6108b76004803603604081101561086b57600080fd5b81019080803573ffffffffffffffffffffffffffffffffffffffff169060200190929190803573ffffffffffffffffffffffffffffffffffffffff169060200190929190505050612506565b005b6108fb600480360360208110156108cf57600080fd5b81019080803573ffffffffffffffffffffffffffffffffffffffff1690602001909291905050506127ff565b005b6109296004803603602081101561091357600080fd5b810190808035906020019092919050505061281c565b005b6060806060600160008573ffffffffffffffffffffffffffffffffffffffff1673ffffffffffffffffffffffffffffffffffffffff16815260200190815260200160002073__AddressSortedLinkedListWithMedian_____636cfa387390916040518263ffffffff1660e01b81526004018082815260200191505060006040518083038186803b1580156109bf57600080fd5b505af41580156109d3573d6000803e3d6000fd5b505050506040513d6000823e3d601f19601f8201168201806040525060608110156109fd57600080fd5b810190808051640100000000811115610a1557600080fd5b82810190506020810184811115610a2b57600080fd5b8151856020820283011164010000000082111715610a4857600080fd5b50509291906020018051640100000000811115610a6457600080fd5b82810190506020810184811115610a7a57600080fd5b8151856020820283011164010000000082111715610a9757600080fd5b50509291906020018051640100000000811115610ab357600080fd5b82810190506020810184811115610ac957600080fd5b8151856020820283011164010000000082111715610ae657600080fd5b50509291905050509250925092509193909250565b6000600260008373ffffffffffffffffffffffffffffffffffffffff1673ffffffffffffffffffffffffffffffffffffffff16815260200190815260200160002073__AddressSortedLinkedListWithMedian_____6359d556a890916040518263ffffffff1660e01b81526004018082815260200191505060206040518083038186803b158015610b8c57600080fd5b505af4158015610ba0573d6000803e3d6000fd5b505050506040513d6020811015610bb657600080fd5b81019080805190602001909291905050509050919050565b600060149054906101000a900460ff1681565b60036020528160005260406000206020528060005260406000206000915091509054906101000a900460ff1681565b60055481565b610c1e611d39565b610c2757600080fd5b600073ffffffffffffffffffffffffffffffffffffffff168373ffffffffffffffffffffffffffffffffffffffff1614158015610c915750600073ffffffffffffffffffffffffffffffffffffffff168273ffffffffffffffffffffffffffffffffffffffff1614155b8015610cde575080600460008573ffffffffffffffffffffffffffffffffffffffff1673ffffffffffffffffffffffffffffffffffffffff16815260200190815260200160002080549050115b8015610d8957508173ffffffffffffffffffffffffffffffffffffffff16600460008573ffffffffffffffffffffffffffffffffffffffff1673ffffffffffffffffffffffffffffffffffffffff1681526020019081526020016000208281548110610d4657fe5b9060005260206000200160009054906101000a900473ffffffffffffffffffffffffffffffffffffffff1673ffffffffffffffffffffffffffffffffffffffff16145b610dde576040517f08c379a000000000000000000000000000000000000000000000000000000000815260040180806020018281038252605681526020018061308a6056913960600191505060405180910390fd5b6000600360008573ffffffffffffffffffffffffffffffffffffffff1673ffffffffffffffffffffffffffffffffffffffff16815260200190815260200160002060008473ffffffffffffffffffffffffffffffffffffffff1673ffffffffffffffffffffffffffffffffffffffff16815260200190815260200160002060006101000a81548160ff021916908315150217905550600460008473ffffffffffffffffffffffffffffffffffffffff1673ffffffffffffffffffffffffffffffffffffffff168152602001908152602001600020610f086001600460008773ffffffffffffffffffffffffffffffffffffffff1673ffffffffffffffffffffffffffffffffffffffff1681526020019081526020016000208054905061286490919063ffffffff16565b81548110610f1257fe5b9060005260206000200160009054906101000a900473ffffffffffffffffffffffffffffffffffffffff16600460008573ffffffffffffffffffffffffffffffffffffffff1673ffffffffffffffffffffffffffffffffffffffff1681526020019081526020016000208281548110610f8757fe5b9060005260206000200160006101000a81548173ffffffffffffffffffffffffffffffffffffffff021916908373ffffffffffffffffffffffffffffffffffffffff1602179055506110256001600460008673ffffffffffffffffffffffffffffffffffffffff1673ffffffffffffffffffffffffffffffffffffffff1681526020019081526020016000208054905061286490919063ffffffff16565b600460008573ffffffffffffffffffffffffffffffffffffffff1673ffffffffffffffffffffffffffffffffffffffff1681526020019081526020016000208161106f9190613038565b5061107a8383612884565b1561108a576110898383612a92565b5b8173ffffffffffffffffffffffffffffffffffffffff168373ffffffffffffffffffffffffffffffffffffffff167f6dc84b66cc948d847632b9d829f7cb1cb904fbf2c084554a9bc22ad9d845334060405160405180910390a3505050565b6000600260008373ffffffffffffffffffffffffffffffffffffffff1673ffffffffffffffffffffffffffffffffffffffff16815260200190815260200160002073__AddressSortedLinkedListWithMedian_____636eafa6c390916040518263ffffffff1660e01b81526004018082815260200191505060206040518083038186803b15801561117a57600080fd5b505af415801561118e573d6000803e3d6000fd5b505050506040513d60208110156111a457600080fd5b81019080805190602001909291905050509050919050565b6111c4611d39565b6111cd57600080fd5b600073ffffffffffffffffffffffffffffffffffffffff166000809054906101000a900473ffffffffffffffffffffffffffffffffffffffff1673ffffffffffffffffffffffffffffffffffffffff167f8be0079c531659141344cd1fd0a4f28419497f9722a3daafe3b4186f6b6457e060405160405180910390a360008060006101000a81548173ffffffffffffffffffffffffffffffffffffffff021916908373ffffffffffffffffffffffffffffffffffffffff160217905550565b84600360008273ffffffffffffffffffffffffffffffffffffffff1673ffffffffffffffffffffffffffffffffffffffff16815260200190815260200160002060003373ffffffffffffffffffffffffffffffffffffffff1673ffffffffffffffffffffffffffffffffffffffff16815260200190815260200160002060009054906101000a900460ff1661136c576040517f08c379a000000000000000000000000000000000000000000000000000000000815260040180806020018281038252602781526020018061313a6027913960400191505060405180910390fd5b6000600160008873ffffffffffffffffffffffffffffffffffffffff1673ffffffffffffffffffffffffffffffffffffffff16815260200190815260200160002073__AddressSortedLinkedListWithMedian_____6359d556a890916040518263ffffffff1660e01b81526004018082815260200191505060206040518083038186803b1580156113fd57600080fd5b505af4158015611411573d6000803e3d6000fd5b505050506040513d602081101561142757600080fd5b81019080805190602001909291905050509050600061146a8661145c680100000000000000008a612ee090919063ffffffff16565b612f1a90919063ffffffff16565b9050600160008973ffffffffffffffffffffffffffffffffffffffff1673ffffffffffffffffffffffffffffffffffffffff16815260200190815260200160002073__AddressSortedLinkedListWithMedian_____6395073a799091336040518363ffffffff1660e01b8152600401808381526020018273ffffffffffffffffffffffffffffffffffffffff1673ffffffffffffffffffffffffffffffffffffffff1681526020019250505060206040518083038186803b15801561152f57600080fd5b505af4158015611543573d6000803e3d6000fd5b505050506040513d602081101561155957600080fd5b81019080805190602001909291905050501561179a57600160008973ffffffffffffffffffffffffffffffffffffffff1673ffffffffffffffffffffffffffffffffffffffff16815260200190815260200160002073__AddressSortedLinkedListWithMedian_____63832a21479091338489896040518663ffffffff1660e01b8152600401808681526020018573ffffffffffffffffffffffffffffffffffffffff1673ffffffffffffffffffffffffffffffffffffffff1681526020018481526020018373ffffffffffffffffffffffffffffffffffffffff1673ffffffffffffffffffffffffffffffffffffffff1681526020018273ffffffffffffffffffffffffffffffffffffffff1673ffffffffffffffffffffffffffffffffffffffff1681526020019550505050505060006040518083038186803b1580156116a257600080fd5b505af41580156116b6573d6000803e3d6000fd5b50505050600260008973ffffffffffffffffffffffffffffffffffffffff1673ffffffffffffffffffffffffffffffffffffffff16815260200190815260200160002073__AddressSortedLinkedListWithMedian_____63c1e728e99091336040518363ffffffff1660e01b8152600401808381526020018273ffffffffffffffffffffffffffffffffffffffff1673ffffffffffffffffffffffffffffffffffffffff1681526020019250505060006040518083038186803b15801561177d57600080fd5b505af4158015611791573d6000803e3d6000fd5b505050506118e6565b600160008973ffffffffffffffffffffffffffffffffffffffff1673ffffffffffffffffffffffffffffffffffffffff16815260200190815260200160002073__AddressSortedLinkedListWithMedian_____63d4a092729091338489896040518663ffffffff1660e01b8152600401808681526020018573ffffffffffffffffffffffffffffffffffffffff1673ffffffffffffffffffffffffffffffffffffffff1681526020018481526020018373ffffffffffffffffffffffffffffffffffffffff1673ffffffffffffffffffffffffffffffffffffffff1681526020018273ffffffffffffffffffffffffffffffffffffffff1673ffffffffffffffffffffffffffffffffffffffff1681526020019550505050505060006040518083038186803b1580156118cd57600080fd5b505af41580156118e1573d6000803e3d6000fd5b505050505b600260008973ffffffffffffffffffffffffffffffffffffffff1673ffffffffffffffffffffffffffffffffffffffff16815260200190815260200160002073__AddressSortedLinkedListWithMedian_____63d4a0927290913342600260008e73ffffffffffffffffffffffffffffffffffffffff1673ffffffffffffffffffffffffffffffffffffffff16815260200190815260200160002073__AddressSortedLinkedListWithMedian_____630944c59490916040518263ffffffff1660e01b81526004018082815260200191505060206040518083038186803b1580156119d257600080fd5b505af41580156119e6573d6000803e3d6000fd5b505050506040513d60208110156119fc57600080fd5b810190808051906020019092919050505060006040518663ffffffff1660e01b8152600401808681526020018573ffffffffffffffffffffffffffffffffffffffff1673ffffffffffffffffffffffffffffffffffffffff1681526020018481526020018373ffffffffffffffffffffffffffffffffffffffff1673ffffffffffffffffffffffffffffffffffffffff1681526020018273ffffffffffffffffffffffffffffffffffffffff1673ffffffffffffffffffffffffffffffffffffffff1681526020019550505050505060006040518083038186803b158015611ae357600080fd5b505af4158015611af7573d6000803e3d6000fd5b505050507fdbf09271932e018b9c31e9988e4fbe3109fdd79d78f5d19a764dfb56035ed7758833428468010000000000000000604051808673ffffffffffffffffffffffffffffffffffffffff1673ffffffffffffffffffffffffffffffffffffffff1681526020018573ffffffffffffffffffffffffffffffffffffffff1673ffffffffffffffffffffffffffffffffffffffff1681526020018481526020018381526020018281526020019550505050505060405180910390a16000600160008a73ffffffffffffffffffffffffffffffffffffffff1673ffffffffffffffffffffffffffffffffffffffff16815260200190815260200160002073__AddressSortedLinkedListWithMedian_____6359d556a890916040518263ffffffff1660e01b81526004018082815260200191505060206040518083038186803b158015611c4457600080fd5b505af4158015611c58573d6000803e3d6000fd5b505050506040513d6020811015611c6e57600080fd5b81019080805190602001909291905050509050828114611d05577f01f3db74cdcb3b158f2144fb78c5ab54e9e8a8c09d3d3b7713050cdb6b6bcb97898268010000000000000000604051808473ffffffffffffffffffffffffffffffffffffffff1673ffffffffffffffffffffffffffffffffffffffff168152602001838152602001828152602001935050505060405180910390a15b505050505050505050565b60008060009054906101000a900473ffffffffffffffffffffffffffffffffffffffff16905090565b60008060009054906101000a900473ffffffffffffffffffffffffffffffffffffffff1673ffffffffffffffffffffffffffffffffffffffff163373ffffffffffffffffffffffffffffffffffffffff1614905090565b6801000000000000000081565b60046020528160005260406000208181548110611db657fe5b906000526020600020016000915091509054906101000a900473ffffffffffffffffffffffffffffffffffffffff1681565b6060806060600260008573ffffffffffffffffffffffffffffffffffffffff1673ffffffffffffffffffffffffffffffffffffffff16815260200190815260200160002073__AddressSortedLinkedListWithMedian_____636cfa387390916040518263ffffffff1660e01b81526004018082815260200191505060006040518083038186803b158015611e7c57600080fd5b505af4158015611e90573d6000803e3d6000fd5b505050506040513d6000823e3d601f19601f820116820180604052506060811015611eba57600080fd5b810190808051640100000000811115611ed257600080fd5b82810190506020810184811115611ee857600080fd5b8151856020820283011164010000000082111715611f0557600080fd5b50509291906020018051640100000000811115611f2157600080fd5b82810190506020810184811115611f3757600080fd5b8151856020820283011164010000000082111715611f5457600080fd5b50509291906020018051640100000000811115611f7057600080fd5b82810190506020810184811115611f8657600080fd5b8151856020820283011164010000000082111715611fa357600080fd5b50509291905050509250925092509193909250565b6000600160008373ffffffffffffffffffffffffffffffffffffffff1673ffffffffffffffffffffffffffffffffffffffff16815260200190815260200160002073__AddressSortedLinkedListWithMedian_____636eafa6c390916040518263ffffffff1660e01b81526004018082815260200191505060206040518083038186803b15801561204957600080fd5b505af415801561205d573d6000803e3d6000fd5b505050506040513d602081101561207357600080fd5b81019080805190602001909291905050509050919050565b600073ffffffffffffffffffffffffffffffffffffffff168273ffffffffffffffffffffffffffffffffffffffff16141580156121905750600260008373ffffffffffffffffffffffffffffffffffffffff1673ffffffffffffffffffffffffffffffffffffffff16815260200190815260200160002073__AddressSortedLinkedListWithMedian_____636eafa6c390916040518263ffffffff1660e01b81526004018082815260200191505060206040518083038186803b15801561215257600080fd5b505af4158015612166573d6000803e3d6000fd5b505050506040513d602081101561217c57600080fd5b810190808051906020019092919050505081105b61219957600080fd5b60008090505b818110156123b7576000600260008573ffffffffffffffffffffffffffffffffffffffff1673ffffffffffffffffffffffffffffffffffffffff16815260200190815260200160002073__AddressSortedLinkedListWithMedian_____63d938ec7b90916040518263ffffffff1660e01b81526004018082815260200191505060206040518083038186803b15801561223857600080fd5b505af415801561224c573d6000803e3d6000fd5b505050506040513d602081101561226257600080fd5b810190808051906020019092919050505090506000600260008673ffffffffffffffffffffffffffffffffffffffff1673ffffffffffffffffffffffffffffffffffffffff16815260200190815260200160002073__AddressSortedLinkedListWithMedian_____637c6bb8629091846040518363ffffffff1660e01b8152600401808381526020018273ffffffffffffffffffffffffffffffffffffffff1673ffffffffffffffffffffffffffffffffffffffff1681526020019250505060206040518083038186803b15801561233a57600080fd5b505af415801561234e573d6000803e3d6000fd5b505050506040513d602081101561236457600080fd5b8101908080519060200190929190505050905060055461238d824261286490919063ffffffff16565b106123a15761239c8583612a92565b6123a8565b50506123b7565b5050808060010191505061219f565b505050565b6123c4611d39565b6123cd57600080fd5b806005819055507fc68a9b88effd8a11611ff410efbc83569f0031b7bc70dd455b61344c7f0a042f816040518082815260200191505060405180910390a150565b600080600160008473ffffffffffffffffffffffffffffffffffffffff1673ffffffffffffffffffffffffffffffffffffffff16815260200190815260200160002073__AddressSortedLinkedListWithMedian_____6359d556a890916040518263ffffffff1660e01b81526004018082815260200191505060206040518083038186803b1580156124a057600080fd5b505af41580156124b4573d6000803e3d6000fd5b505050506040513d60208110156124ca57600080fd5b810190808051906020019092919050505060006124e685611fb8565b146124fa57680100000000000000006124fd565b60005b91509150915091565b61250e611d39565b61251757600080fd5b600073ffffffffffffffffffffffffffffffffffffffff168273ffffffffffffffffffffffffffffffffffffffff16141580156125815750600073ffffffffffffffffffffffffffffffffffffffff168173ffffffffffffffffffffffffffffffffffffffff1614155b80156126145750600360008373ffffffffffffffffffffffffffffffffffffffff1673ffffffffffffffffffffffffffffffffffffffff16815260200190815260200160002060008273ffffffffffffffffffffffffffffffffffffffff1673ffffffffffffffffffffffffffffffffffffffff16815260200190815260200160002060009054906101000a900460ff16155b612669576040517f08c379a000000000000000000000000000000000000000000000000000000000815260040180806020018281038252605a8152602001806130e0605a913960600191505060405180910390fd5b6001600360008473ffffffffffffffffffffffffffffffffffffffff1673ffffffffffffffffffffffffffffffffffffffff16815260200190815260200160002060008373ffffffffffffffffffffffffffffffffffffffff1673ffffffffffffffffffffffffffffffffffffffff16815260200190815260200160002060006101000a81548160ff021916908315150217905550600460008373ffffffffffffffffffffffffffffffffffffffff1673ffffffffffffffffffffffffffffffffffffffff1681526020019081526020016000208190806001815401808255809150509060018203906000526020600020016000909192909190916101000a81548173ffffffffffffffffffffffffffffffffffffffff021916908373ffffffffffffffffffffffffffffffffffffffff160217905550508073ffffffffffffffffffffffffffffffffffffffff168273ffffffffffffffffffffffffffffffffffffffff167f828d2be040dede7698182e08dfa8bfbd663c879aee772509c4a2bd961d0ed43f60405160405180910390a35050565b612807611d39565b61281057600080fd5b61281981612f40565b50565b600060149054906101000a900460ff161561283657600080fd5b6001600060146101000a81548160ff02191690831515021790555061285a33612f40565b8060058190555050565b60008282111561287357600080fd5b600082840390508091505092915050565b6000600160008473ffffffffffffffffffffffffffffffffffffffff1673ffffffffffffffffffffffffffffffffffffffff16815260200190815260200160002073__AddressSortedLinkedListWithMedian_____6395073a799091846040518363ffffffff1660e01b8152600401808381526020018273ffffffffffffffffffffffffffffffffffffffff1673ffffffffffffffffffffffffffffffffffffffff1681526020019250505060206040518083038186803b15801561294957600080fd5b505af415801561295d573d6000803e3d6000fd5b505050506040513d602081101561297357600080fd5b81019080805190602001909291905050508015612a8a5750600260008473ffffffffffffffffffffffffffffffffffffffff1673ffffffffffffffffffffffffffffffffffffffff16815260200190815260200160002073__AddressSortedLinkedListWithMedian_____6395073a799091846040518363ffffffff1660e01b8152600401808381526020018273ffffffffffffffffffffffffffffffffffffffff1673ffffffffffffffffffffffffffffffffffffffff1681526020019250505060206040518083038186803b158015612a4e57600080fd5b505af4158015612a62573d6000803e3d6000fd5b505050506040513d6020811015612a7857600080fd5b81019080805190602001909291905050505b905092915050565b6000600160008473ffffffffffffffffffffffffffffffffffffffff1673ffffffffffffffffffffffffffffffffffffffff16815260200190815260200160002073__AddressSortedLinkedListWithMedian_____6359d556a890916040518263ffffffff1660e01b81526004018082815260200191505060206040518083038186803b158015612b2357600080fd5b505af4158015612b37573d6000803e3d6000fd5b505050506040513d6020811015612b4d57600080fd5b81019080805190602001909291905050509050600160008473ffffffffffffffffffffffffffffffffffffffff1673ffffffffffffffffffffffffffffffffffffffff16815260200190815260200160002073__AddressSortedLinkedListWithMedian_____63c1e728e99091846040518363ffffffff1660e01b8152600401808381526020018273ffffffffffffffffffffffffffffffffffffffff1673ffffffffffffffffffffffffffffffffffffffff1681526020019250505060006040518083038186803b158015612c2357600080fd5b505af4158015612c37573d6000803e3d6000fd5b50505050600260008473ffffffffffffffffffffffffffffffffffffffff1673ffffffffffffffffffffffffffffffffffffffff16815260200190815260200160002073__AddressSortedLinkedListWithMedian_____63c1e728e99091846040518363ffffffff1660e01b8152600401808381526020018273ffffffffffffffffffffffffffffffffffffffff1673ffffffffffffffffffffffffffffffffffffffff1681526020019250505060006040518083038186803b158015612cfe57600080fd5b505af4158015612d12573d6000803e3d6000fd5b505050508173ffffffffffffffffffffffffffffffffffffffff168373ffffffffffffffffffffffffffffffffffffffff167fe21a44017b6fa1658d84e937d56ff408501facdb4ff7427c479ac460d76f789360405160405180910390a36000600160008573ffffffffffffffffffffffffffffffffffffffff1673ffffffffffffffffffffffffffffffffffffffff16815260200190815260200160002073__AddressSortedLinkedListWithMedian_____6359d556a890916040518263ffffffff1660e01b81526004018082815260200191505060206040518083038186803b158015612e0157600080fd5b505af4158015612e15573d6000803e3d6000fd5b505050506040513d6020811015612e2b57600080fd5b81019080805190602001909291905050509050818114612eda577f01f3db74cdcb3b158f2144fb78c5ab54e9e8a8c09d3d3b7713050cdb6b6bcb9784826000612e7388611fb8565b14612e875768010000000000000000612e8a565b60005b604051808473ffffffffffffffffffffffffffffffffffffffff1673ffffffffffffffffffffffffffffffffffffffff168152602001838152602001828152602001935050505060405180910390a15b50505050565b600080831415612ef35760009050612f14565b6000828402905082848281612f0457fe5b0414612f0f57600080fd5b809150505b92915050565b6000808211612f2857600080fd5b6000828481612f3357fe5b0490508091505092915050565b600073ffffffffffffffffffffffffffffffffffffffff168173ffffffffffffffffffffffffffffffffffffffff161415612f7a57600080fd5b8073ffffffffffffffffffffffffffffffffffffffff166000809054906101000a900473ffffffffffffffffffffffffffffffffffffffff1673ffffffffffffffffffffffffffffffffffffffff167f8be0079c531659141344cd1fd0a4f28419497f9722a3daafe3b4186f6b6457e060405160405180910390a3806000806101000a81548173ffffffffffffffffffffffffffffffffffffffff021916908373ffffffffffffffffffffffffffffffffffffffff16021790555050565b81548183558181111561305f5781836000526020600020918201910161305e9190613064565b5b505050565b61308691905b8082111561308257600081600090555060010161306a565b5090565b9056fe746f6b656e2061646472206e756c6c206f72206f7261636c652061646472206e756c6c206f7220696e646578206f6620746f6b656e206f7261636c65206e6f74206d617070656420746f206f7261636c652061646472746f6b656e206164647220776173206e756c6c206f72206f7261636c65206164647220776173206e756c6c206f72206f7261636c652061646472206973206e6f7420616e206f7261636c6520666f7220746f6b656e206164647273656e64657220776173206e6f7420616e206f7261636c6520666f7220746f6b656e2061646472a165627a7a7230582034514ef2734be0b760ef183df64e5d90a10d6a623f329fa381062531cbe3b7330029",
  "source": "pragma solidity ^0.5.3;\n\nimport \"openzeppelin-solidity/contracts/math/SafeMath.sol\";\nimport \"openzeppelin-solidity/contracts/ownership/Ownable.sol\";\nimport \"./interfaces/ISortedOracles.sol\";\nimport \"../common/Initializable.sol\";\nimport \"../common/linkedlists/AddressSortedLinkedListWithMedian.sol\";\nimport \"../common/linkedlists/SortedLinkedListWithMedian.sol\";\n\n// TODO: Move SortedOracles to Fixidity\n/**\n * @title Maintains a sorted list of oracle exchange rates between Celo Gold and other currencies.\n */\ncontract SortedOracles is ISortedOracles, Ownable, Initializable {\n  using SafeMath for uint256;\n  using AddressSortedLinkedListWithMedian for SortedLinkedListWithMedian.List;\n  // All oracle rates are assumed to have a denominator of 2 ^ 64.\n  uint256 public constant DENOMINATOR = 0x10000000000000000;\n\n  // Maps a token address to a sorted list of report values.\n  mapping(address => SortedLinkedListWithMedian.List) private rates;\n  // Maps a token address to a sorted list of report timestamps.\n  mapping(address => SortedLinkedListWithMedian.List) private timestamps;\n  mapping(address => mapping(address => bool)) public isOracle;\n  mapping(address => address[]) public oracles;\n\n  uint256 public reportExpirySeconds;\n\n  event OracleAdded(address indexed token, address indexed oracleAddress);\n\n  event OracleRemoved(address indexed token, address indexed oracleAddress);\n\n  event OracleReported(\n    address token,\n    address oracle,\n    uint256 timestamp,\n    uint256 numerator,\n    uint256 denominator\n  );\n\n  event OracleReportRemoved(address indexed token, address indexed oracle);\n\n  event MedianUpdated(address token, uint256 numerator, uint256 denominator);\n\n  event ReportExpirySet(uint256 reportExpiry);\n\n  modifier onlyOracle(address token) {\n    require(isOracle[token][msg.sender], \"sender was not an oracle for token addr\");\n    _;\n  }\n\n  function initialize(uint256 _reportExpirySeconds) external initializer {\n    _transferOwnership(msg.sender);\n    reportExpirySeconds = _reportExpirySeconds;\n  }\n\n  /**\n   * @notice Sets the report expiry parameter.\n   * @param _reportExpirySeconds Desired value of report expiry.\n   */\n  function setReportExpiry(uint256 _reportExpirySeconds) external onlyOwner {\n    reportExpirySeconds = _reportExpirySeconds;\n    emit ReportExpirySet(_reportExpirySeconds);\n  }\n\n  /**\n   * @notice Adds a new Oracle.\n   * @param token The address of the token.\n   * @param oracleAddress The address of the oracle.\n   */\n  function addOracle(address token, address oracleAddress) external onlyOwner {\n    require(\n      token != address(0) && oracleAddress != address(0) && !isOracle[token][oracleAddress],\n      \"token addr was null or oracle addr was null or oracle addr is not an oracle for token addr\"\n    );\n    isOracle[token][oracleAddress] = true;\n    oracles[token].push(oracleAddress);\n    emit OracleAdded(token, oracleAddress);\n  }\n\n  /**\n   * @notice Removes an Oracle.\n   * @param oracleAddress The address of the oracle.\n   */\n  function removeOracle(address token, address oracleAddress, uint256 index) external onlyOwner {\n    require(\n      token != address(0) &&\n        oracleAddress != address(0) &&\n        oracles[token].length > index &&\n        oracles[token][index] == oracleAddress,\n      \"token addr null or oracle addr null or index of token oracle not mapped to oracle addr\"\n    );\n    isOracle[token][oracleAddress] = false;\n    oracles[token][index] = oracles[token][oracles[token].length.sub(1)];\n    oracles[token].length = oracles[token].length.sub(1);\n    if (reportExists(token, oracleAddress)) {\n      removeReport(token, oracleAddress);\n    }\n    emit OracleRemoved(token, oracleAddress);\n  }\n\n  /**\n   * @notice Removes a report that is expired.\n   * @param token The address of the token for which the Celo Gold exchange rate is being reported.\n   * @param n The number of expired reports to remove, at most (deterministic upper gas bound).\n   */\n  function removeExpiredReports(address token, uint256 n) external {\n    require(token != address(0) && n < timestamps[token].getNumElements());\n    for (uint256 i = 0; i < n; i++) {\n      address oldest = timestamps[token].getTail();\n      uint256 timestamp = timestamps[token].getValue(oldest);\n      // solhint-disable-next-line not-rely-on-time\n      if (now.sub(timestamp) >= reportExpirySeconds) {\n        removeReport(token, oldest);\n      } else {\n        break;\n      }\n    }\n  }\n\n  /**\n   * @notice Updates an oracle value and the median.\n   * @param token The address of the token for which the Celo Gold exchange rate is being reported.\n   * @param numerator The amount of tokens equal to `denominator` Celo Gold.\n   * @param denominator The amount of Celo Gold equal to `numerator` tokens.\n   * @param lesserKey The element which should be just left of the new oracle value.\n   * @param greaterKey The element which should be just right of the new oracle value.\n   * @dev Note that only one of `lesserKey` or `greaterKey` needs to be correct to reduce friction.\n   */\n  function report(\n    address token,\n    uint256 numerator,\n    uint256 denominator,\n    address lesserKey,\n    address greaterKey\n  ) external onlyOracle(token) {\n    uint256 originalMedian = rates[token].getMedianValue();\n    uint256 value = numerator.mul(DENOMINATOR).div(denominator);\n    if (rates[token].contains(msg.sender)) {\n      rates[token].update(msg.sender, value, lesserKey, greaterKey);\n\n      // Rather than update the timestamp, we remove it and re-add it at the\n      // head of the list later. The reason for this is that we need to handle\n      // a few different cases:\n      //   1. This oracle is the only one to report so far. lesserKey = address(0)\n      //   2. Other oracles have reported since this one's last report. lesserKey = getHead()\n      //   3. Other oracles have reported, but the most recent is this one.\n      //      lesserKey = key immediately after getHead()\n      //\n      // However, if we just remove this timestamp, timestamps[token].getHead()\n      // does the right thing in all cases.\n      timestamps[token].remove(msg.sender);\n    } else {\n      rates[token].insert(msg.sender, value, lesserKey, greaterKey);\n    }\n    timestamps[token].insert(\n      msg.sender,\n      // solhint-disable-next-line not-rely-on-time\n      now,\n      timestamps[token].getHead(),\n      address(0)\n    );\n    emit OracleReported(token, msg.sender, now, value, DENOMINATOR);\n    uint256 newMedian = rates[token].getMedianValue();\n    if (newMedian != originalMedian) {\n      emit MedianUpdated(token, newMedian, DENOMINATOR);\n    }\n  }\n\n  /**\n   * @notice Returns the number of rates.\n   * @param token The address of the token for which the Celo Gold exchange rate is being reported.\n   * @return The number of reported oracle rates for `token`.\n   */\n  function numRates(address token) public view returns (uint256) {\n    return rates[token].getNumElements();\n  }\n\n  /**\n   * @notice Returns the median rate.\n   * @param token The address of the token for which the Celo Gold exchange rate is being reported.\n   * @return The median exchange rate for `token`.\n   */\n  function medianRate(address token) external view returns (uint256, uint256) {\n    return (rates[token].getMedianValue(), numRates(token) == 0 ? 0 : DENOMINATOR);\n  }\n\n  /**\n   * @notice Gets all elements from the doubly linked list.\n   * @param token The address of the token for which the Celo Gold exchange rate is being reported.\n   * @return An unpacked list of elements from largest to smallest.\n   */\n  function getRates(address token)\n    external\n    view\n    returns (address[] memory, uint256[] memory, SortedLinkedListWithMedian.MedianRelation[] memory)\n  {\n    return rates[token].getElements();\n  }\n\n  /**\n   * @notice Returns the number of timestamps.\n   * @param token The address of the token for which the Celo Gold exchange rate is being reported.\n   * @return The number of oracle report timestamps for `token`.\n   */\n  function numTimestamps(address token) external view returns (uint256) {\n    return timestamps[token].getNumElements();\n  }\n\n  /**\n   * @notice Returns the median timestamp.\n   * @param token The address of the token for which the Celo Gold exchange rate is being reported.\n   * @return The median report timestamp for `token`.\n   */\n  function medianTimestamp(address token) external view returns (uint256) {\n    return timestamps[token].getMedianValue();\n  }\n\n  /**\n   * @notice Gets all elements from the doubly linked list.\n   * @param token The address of the token for which the Celo Gold exchange rate is being reported.\n   * @return An unpacked list of elements from largest to smallest.\n   */\n  function getTimestamps(address token)\n    external\n    view\n    returns (address[] memory, uint256[] memory, SortedLinkedListWithMedian.MedianRelation[] memory)\n  {\n    return timestamps[token].getElements();\n  }\n\n  /**\n   * @notice Returns whether a report exists on token from oracle.\n   * @param token The address of the token for which the Celo Gold exchange rate is being reported.\n   * @param oracle The oracle whose report should be checked.\n   */\n  function reportExists(address token, address oracle) internal view returns (bool) {\n    return rates[token].contains(oracle) && timestamps[token].contains(oracle);\n  }\n\n  /**\n   * @notice Removes an oracle value and updates the median.\n   * @param token The address of the token for which the Celo Gold exchange rate is being reported.\n   * @param oracle The oracle whose value should be removed.\n   * @dev This can be used to delete elements for oracles that have been removed.\n   */\n  function removeReport(address token, address oracle) private {\n    uint256 originalMedian = rates[token].getMedianValue();\n    rates[token].remove(oracle);\n    timestamps[token].remove(oracle);\n    emit OracleReportRemoved(token, oracle);\n    uint256 newMedian = rates[token].getMedianValue();\n    if (newMedian != originalMedian) {\n      emit MedianUpdated(token, newMedian, numRates(token) == 0 ? 0 : DENOMINATOR);\n    }\n  }\n}\n",
  "sourcePath": "/Users/cmcewen/celo/celo-monorepo/packages/protocol/contracts/stability/SortedOracles.sol",
  "compiler": {
    "name": "solc",
    "version": "0.5.8+commit.23d335f2.Emscripten.clang"
  },
  "schemaVersion": "3.0.10",
  "updatedAt": "2019-12-06T00:12:55.188Z",
  "devdoc": {
    "methods": {
      "addOracle(address,address)": {
        "params": {
          "oracleAddress": "The address of the oracle.",
          "token": "The address of the token."
        }
      },
      "getRates(address)": {
        "params": {
          "token": "The address of the token for which the Celo Gold exchange rate is being reported."
        },
        "return": "An unpacked list of elements from largest to smallest."
      },
      "getTimestamps(address)": {
        "params": {
          "token": "The address of the token for which the Celo Gold exchange rate is being reported."
        },
        "return": "An unpacked list of elements from largest to smallest."
      },
      "isOwner()": {
        "return": "true if `msg.sender` is the owner of the contract."
      },
      "medianRate(address)": {
        "params": {
          "token": "The address of the token for which the Celo Gold exchange rate is being reported."
        },
        "return": "The median exchange rate for `token`."
      },
      "medianTimestamp(address)": {
        "params": {
          "token": "The address of the token for which the Celo Gold exchange rate is being reported."
        },
        "return": "The median report timestamp for `token`."
      },
      "numRates(address)": {
        "params": {
          "token": "The address of the token for which the Celo Gold exchange rate is being reported."
        },
        "return": "The number of reported oracle rates for `token`."
      },
      "numTimestamps(address)": {
        "params": {
          "token": "The address of the token for which the Celo Gold exchange rate is being reported."
        },
        "return": "The number of oracle report timestamps for `token`."
      },
      "owner()": {
        "return": "the address of the owner."
      },
      "removeExpiredReports(address,uint256)": {
        "params": {
          "n": "The number of expired reports to remove, at most (deterministic upper gas bound).",
          "token": "The address of the token for which the Celo Gold exchange rate is being reported."
        }
      },
      "removeOracle(address,address,uint256)": {
        "params": {
          "oracleAddress": "The address of the oracle."
        }
      },
      "renounceOwnership()": {
        "details": "Allows the current owner to relinquish control of the contract. It will not be possible to call the functions with the `onlyOwner` modifier anymore."
      },
      "report(address,uint256,uint256,address,address)": {
        "details": "Note that only one of `lesserKey` or `greaterKey` needs to be correct to reduce friction.",
        "params": {
          "denominator": "The amount of Celo Gold equal to `numerator` tokens.",
          "greaterKey": "The element which should be just right of the new oracle value.",
          "lesserKey": "The element which should be just left of the new oracle value.",
          "numerator": "The amount of tokens equal to `denominator` Celo Gold.",
          "token": "The address of the token for which the Celo Gold exchange rate is being reported."
        }
      },
      "setReportExpiry(uint256)": {
        "params": {
          "_reportExpirySeconds": "Desired value of report expiry."
        }
      },
      "transferOwnership(address)": {
        "details": "Allows the current owner to transfer control of the contract to a newOwner.",
        "params": {
          "newOwner": "The address to transfer ownership to."
        }
      }
    },
    "title": "Maintains a sorted list of oracle exchange rates between Celo Gold and other currencies."
  },
  "userdoc": {
    "methods": {
      "addOracle(address,address)": {
        "notice": "Adds a new Oracle."
      },
      "getRates(address)": {
        "notice": "Gets all elements from the doubly linked list."
      },
      "getTimestamps(address)": {
        "notice": "Gets all elements from the doubly linked list."
      },
      "medianRate(address)": {
        "notice": "Returns the median rate."
      },
      "medianTimestamp(address)": {
        "notice": "Returns the median timestamp."
      },
      "numRates(address)": {
        "notice": "Returns the number of rates."
      },
      "numTimestamps(address)": {
        "notice": "Returns the number of timestamps."
      },
      "removeExpiredReports(address,uint256)": {
        "notice": "Removes a report that is expired."
      },
      "removeOracle(address,address,uint256)": {
        "notice": "Removes an Oracle."
      },
      "renounceOwnership()": {
        "notice": "Renouncing ownership will leave the contract without an owner, thereby removing any functionality that is only available to the owner."
      },
      "report(address,uint256,uint256,address,address)": {
        "notice": "Updates an oracle value and the median."
      },
      "setReportExpiry(uint256)": {
        "notice": "Sets the report expiry parameter."
      }
    }
  }
}