{
  "contractName": "StableToken",
  "abi": [
    {
      "constant": true,
      "inputs": [
        {
          "name": "index",
          "type": "uint256"
        }
      ],
      "name": "validatorAddressFromCurrentSet",
      "outputs": [
        {
          "name": "",
          "type": "address"
        }
      ],
      "payable": false,
      "stateMutability": "view",
      "type": "function"
    },
    {
      "constant": true,
      "inputs": [],
      "name": "initialized",
      "outputs": [
        {
          "name": "",
          "type": "bool"
        }
      ],
      "payable": false,
      "stateMutability": "view",
      "type": "function"
    },
    {
      "constant": false,
      "inputs": [
        {
          "name": "sender",
          "type": "address"
        },
        {
          "name": "blsKey",
          "type": "bytes"
        },
        {
          "name": "blsPop",
          "type": "bytes"
        }
      ],
      "name": "checkProofOfPossession",
      "outputs": [
        {
          "name": "",
          "type": "bool"
        }
      ],
      "payable": false,
      "stateMutability": "nonpayable",
      "type": "function"
    },
    {
      "constant": false,
      "inputs": [],
      "name": "renounceOwnership",
      "outputs": [],
      "payable": false,
      "stateMutability": "nonpayable",
      "type": "function"
    },
    {
      "constant": true,
      "inputs": [],
      "name": "registry",
      "outputs": [
        {
          "name": "",
          "type": "address"
        }
      ],
      "payable": false,
      "stateMutability": "view",
      "type": "function"
    },
    {
      "constant": true,
      "inputs": [],
      "name": "numberValidatorsInCurrentSet",
      "outputs": [
        {
          "name": "",
          "type": "uint256"
        }
      ],
      "payable": false,
      "stateMutability": "view",
      "type": "function"
    },
    {
      "constant": true,
      "inputs": [],
      "name": "owner",
      "outputs": [
        {
          "name": "",
          "type": "address"
        }
      ],
      "payable": false,
      "stateMutability": "view",
      "type": "function"
    },
    {
      "constant": true,
      "inputs": [],
      "name": "isOwner",
      "outputs": [
        {
          "name": "",
          "type": "bool"
        }
      ],
      "payable": false,
      "stateMutability": "view",
      "type": "function"
    },
    {
      "constant": true,
      "inputs": [],
      "name": "getEpochNumber",
      "outputs": [
        {
          "name": "",
          "type": "uint256"
        }
      ],
      "payable": false,
      "stateMutability": "view",
      "type": "function"
    },
    {
      "constant": false,
      "inputs": [
        {
          "name": "registryAddress",
          "type": "address"
        }
      ],
      "name": "setRegistry",
      "outputs": [],
      "payable": false,
      "stateMutability": "nonpayable",
      "type": "function"
    },
    {
      "constant": true,
      "inputs": [],
      "name": "getEpochSize",
      "outputs": [
        {
          "name": "",
          "type": "uint256"
        }
      ],
      "payable": false,
      "stateMutability": "view",
      "type": "function"
    },
    {
      "constant": true,
      "inputs": [
        {
          "name": "aNumerator",
          "type": "uint256"
        },
        {
          "name": "aDenominator",
          "type": "uint256"
        },
        {
          "name": "bNumerator",
          "type": "uint256"
        },
        {
          "name": "bDenominator",
          "type": "uint256"
        },
        {
          "name": "exponent",
          "type": "uint256"
        },
        {
          "name": "_decimals",
          "type": "uint256"
        }
      ],
      "name": "fractionMulExp",
      "outputs": [
        {
          "name": "",
          "type": "uint256"
        },
        {
          "name": "",
          "type": "uint256"
        }
      ],
      "payable": false,
      "stateMutability": "view",
      "type": "function"
    },
    {
      "constant": false,
      "inputs": [
        {
          "name": "newOwner",
          "type": "address"
        }
      ],
      "name": "transferOwnership",
      "outputs": [],
      "payable": false,
      "stateMutability": "nonpayable",
      "type": "function"
    },
    {
      "anonymous": false,
      "inputs": [
        {
          "indexed": false,
          "name": "factor",
          "type": "uint256"
        },
        {
          "indexed": false,
          "name": "lastUpdated",
          "type": "uint256"
        }
      ],
      "name": "InflationFactorUpdated",
      "type": "event"
    },
    {
      "anonymous": false,
      "inputs": [
        {
          "indexed": false,
          "name": "rate",
          "type": "uint256"
        },
        {
          "indexed": false,
          "name": "updatePeriod",
          "type": "uint256"
        },
        {
          "indexed": false,
          "name": "lastUpdated",
          "type": "uint256"
        }
      ],
      "name": "InflationParametersUpdated",
      "type": "event"
    },
    {
      "anonymous": false,
      "inputs": [
        {
          "indexed": true,
          "name": "from",
          "type": "address"
        },
        {
          "indexed": true,
          "name": "to",
          "type": "address"
        },
        {
          "indexed": false,
          "name": "value",
          "type": "uint256"
        }
      ],
      "name": "Transfer",
      "type": "event"
    },
    {
      "anonymous": false,
      "inputs": [
        {
          "indexed": false,
          "name": "comment",
          "type": "string"
        }
      ],
      "name": "TransferComment",
      "type": "event"
    },
    {
      "anonymous": false,
      "inputs": [
        {
          "indexed": true,
          "name": "registryAddress",
          "type": "address"
        }
      ],
      "name": "RegistrySet",
      "type": "event"
    },
    {
      "anonymous": false,
      "inputs": [
        {
          "indexed": true,
          "name": "previousOwner",
          "type": "address"
        },
        {
          "indexed": true,
          "name": "newOwner",
          "type": "address"
        }
      ],
      "name": "OwnershipTransferred",
      "type": "event"
    },
    {
      "anonymous": false,
      "inputs": [
        {
          "indexed": true,
          "name": "owner",
          "type": "address"
        },
        {
          "indexed": true,
          "name": "spender",
          "type": "address"
        },
        {
          "indexed": false,
          "name": "value",
          "type": "uint256"
        }
      ],
      "name": "Approval",
      "type": "event"
    },
    {
      "constant": false,
      "inputs": [
        {
          "name": "_name",
          "type": "string"
        },
        {
          "name": "_symbol",
          "type": "string"
        },
        {
          "name": "_decimals",
          "type": "uint8"
        },
        {
          "name": "registryAddress",
          "type": "address"
        },
        {
          "name": "inflationRate",
          "type": "uint256"
        },
        {
          "name": "inflationFactorUpdatePeriod",
          "type": "uint256"
        },
        {
          "name": "initialBalanceAddresses",
          "type": "address[]"
        },
        {
          "name": "initialBalanceValues",
          "type": "uint256[]"
        }
      ],
      "name": "initialize",
      "outputs": [],
      "payable": false,
      "stateMutability": "nonpayable",
      "type": "function"
    },
    {
      "constant": false,
      "inputs": [
        {
          "name": "rate",
          "type": "uint256"
        },
        {
          "name": "updatePeriod",
          "type": "uint256"
        }
      ],
      "name": "setInflationParameters",
      "outputs": [],
      "payable": false,
      "stateMutability": "nonpayable",
      "type": "function"
    },
    {
      "constant": false,
      "inputs": [
        {
          "name": "spender",
          "type": "address"
        },
        {
          "name": "value",
          "type": "uint256"
        }
      ],
      "name": "increaseAllowance",
      "outputs": [
        {
          "name": "",
          "type": "bool"
        }
      ],
      "payable": false,
      "stateMutability": "nonpayable",
      "type": "function"
    },
    {
      "constant": false,
      "inputs": [
        {
          "name": "spender",
          "type": "address"
        },
        {
          "name": "value",
          "type": "uint256"
        }
      ],
      "name": "decreaseAllowance",
      "outputs": [
        {
          "name": "",
          "type": "bool"
        }
      ],
      "payable": false,
      "stateMutability": "nonpayable",
      "type": "function"
    },
    {
      "constant": false,
      "inputs": [
        {
          "name": "spender",
          "type": "address"
        },
        {
          "name": "value",
          "type": "uint256"
        }
      ],
      "name": "approve",
      "outputs": [
        {
          "name": "",
          "type": "bool"
        }
      ],
      "payable": false,
      "stateMutability": "nonpayable",
      "type": "function"
    },
    {
      "constant": false,
      "inputs": [
        {
          "name": "to",
          "type": "address"
        },
        {
          "name": "value",
          "type": "uint256"
        }
      ],
      "name": "mint",
      "outputs": [
        {
          "name": "",
          "type": "bool"
        }
      ],
      "payable": false,
      "stateMutability": "nonpayable",
      "type": "function"
    },
    {
      "constant": false,
      "inputs": [
        {
          "name": "to",
          "type": "address"
        },
        {
          "name": "value",
          "type": "uint256"
        },
        {
          "name": "comment",
          "type": "string"
        }
      ],
      "name": "transferWithComment",
      "outputs": [
        {
          "name": "",
          "type": "bool"
        }
      ],
      "payable": false,
      "stateMutability": "nonpayable",
      "type": "function"
    },
    {
      "constant": false,
      "inputs": [
        {
          "name": "value",
          "type": "uint256"
        }
      ],
      "name": "burn",
      "outputs": [
        {
          "name": "",
          "type": "bool"
        }
      ],
      "payable": false,
      "stateMutability": "nonpayable",
      "type": "function"
    },
    {
      "constant": false,
      "inputs": [
        {
          "name": "from",
          "type": "address"
        },
        {
          "name": "to",
          "type": "address"
        },
        {
          "name": "value",
          "type": "uint256"
        }
      ],
      "name": "transferFrom",
      "outputs": [
        {
          "name": "",
          "type": "bool"
        }
      ],
      "payable": false,
      "stateMutability": "nonpayable",
      "type": "function"
    },
    {
      "constant": true,
      "inputs": [],
      "name": "name",
      "outputs": [
        {
          "name": "",
          "type": "string"
        }
      ],
      "payable": false,
      "stateMutability": "view",
      "type": "function"
    },
    {
      "constant": true,
      "inputs": [],
      "name": "symbol",
      "outputs": [
        {
          "name": "",
          "type": "string"
        }
      ],
      "payable": false,
      "stateMutability": "view",
      "type": "function"
    },
    {
      "constant": true,
      "inputs": [],
      "name": "decimals",
      "outputs": [
        {
          "name": "",
          "type": "uint8"
        }
      ],
      "payable": false,
      "stateMutability": "view",
      "type": "function"
    },
    {
      "constant": true,
      "inputs": [
        {
          "name": "accountOwner",
          "type": "address"
        },
        {
          "name": "spender",
          "type": "address"
        }
      ],
      "name": "allowance",
      "outputs": [
        {
          "name": "",
          "type": "uint256"
        }
      ],
      "payable": false,
      "stateMutability": "view",
      "type": "function"
    },
    {
      "constant": true,
      "inputs": [
        {
          "name": "accountOwner",
          "type": "address"
        }
      ],
      "name": "balanceOf",
      "outputs": [
        {
          "name": "",
          "type": "uint256"
        }
      ],
      "payable": false,
      "stateMutability": "view",
      "type": "function"
    },
    {
      "constant": true,
      "inputs": [],
      "name": "totalSupply",
      "outputs": [
        {
          "name": "",
          "type": "uint256"
        }
      ],
      "payable": false,
      "stateMutability": "view",
      "type": "function"
    },
    {
      "constant": true,
      "inputs": [],
      "name": "getInflationParameters",
      "outputs": [
        {
          "name": "",
          "type": "uint256"
        },
        {
          "name": "",
          "type": "uint256"
        },
        {
          "name": "",
          "type": "uint256"
        },
        {
          "name": "",
          "type": "uint256"
        }
      ],
      "payable": false,
      "stateMutability": "view",
      "type": "function"
    },
    {
      "constant": true,
      "inputs": [
        {
          "name": "value",
          "type": "uint256"
        }
      ],
      "name": "valueToUnits",
      "outputs": [
        {
          "name": "",
          "type": "uint256"
        }
      ],
      "payable": false,
      "stateMutability": "view",
      "type": "function"
    },
    {
      "constant": true,
      "inputs": [
        {
          "name": "units",
          "type": "uint256"
        }
      ],
      "name": "unitsToValue",
      "outputs": [
        {
          "name": "",
          "type": "uint256"
        }
      ],
      "payable": false,
      "stateMutability": "view",
      "type": "function"
    },
    {
      "constant": false,
      "inputs": [
        {
          "name": "to",
          "type": "address"
        },
        {
          "name": "value",
          "type": "uint256"
        }
      ],
      "name": "transfer",
      "outputs": [
        {
          "name": "",
          "type": "bool"
        }
      ],
      "payable": false,
      "stateMutability": "nonpayable",
      "type": "function"
    },
    {
      "constant": false,
      "inputs": [
        {
          "name": "from",
          "type": "address"
        },
        {
          "name": "value",
          "type": "uint256"
        }
      ],
      "name": "debitFrom",
      "outputs": [],
      "payable": false,
      "stateMutability": "nonpayable",
      "type": "function"
    },
    {
      "constant": false,
      "inputs": [
        {
          "name": "to",
          "type": "address"
        },
        {
          "name": "value",
          "type": "uint256"
        }
      ],
      "name": "creditTo",
      "outputs": [],
      "payable": false,
      "stateMutability": "nonpayable",
      "type": "function"
    }
  ],
  "bytecode": "0x6080604052336000806101000a81548173ffffffffffffffffffffffffffffffffffffffff021916908373ffffffffffffffffffffffffffffffffffffffff1602179055506000809054906101000a900473ffffffffffffffffffffffffffffffffffffffff1673ffffffffffffffffffffffffffffffffffffffff16600073ffffffffffffffffffffffffffffffffffffffff167f8be0079c531659141344cd1fd0a4f28419497f9722a3daafe3b4186f6b6457e060405160405180910390a3614115806100cf6000396000f3fe608060405234801561001057600080fd5b50600436106102065760003560e01c806382b935161161011a578063a67f8747116100ad578063dd62ed3e1161007c578063dd62ed3e14610d14578063df4da46114610d8c578063e1d6aceb14610daa578063ec68307214610e65578063f2fde38b14610ee057610206565b8063a67f874714610bf5578063a9059cbb14610c28578063a91ee0dc14610c8e578063af31f58714610cd257610206565b806395d89b41116100e957806395d89b4114610aa05780639951b90c14610b235780639a7b3be714610b71578063a457c2d714610b8f57610206565b806382b935161461085c57806387ee8a0f14610a165780638da5cb5b14610a345780638f32d59b14610a7e57610206565b806323f0ab651161019d57806340c10f191161016c57806340c10f191461070457806342966c681461076a57806370a08231146107b0578063715018a6146108085780637b1039991461081257610206565b806323f0ab65146104a2578063313ce5671461062c578063362a5f8014610650578063395093511461069e57610206565b8063158ef93e116101d9578063158ef93e146103a457806318160ddd146103c6578063222836ad146103e457806323b872dd1461041c57610206565b806306fdde031461020b578063095ea7b31461028e57806311fb9e84146102f457806312c6c09914610362575b600080fd5b610213610f24565b6040518080602001828103825283818151815260200191508051906020019080838360005b83811015610253578082015181840152602081019050610238565b50505050905090810190601f1680156102805780820380516001836020036101000a031916815260200191505b509250505060405180910390f35b6102da600480360360408110156102a457600080fd5b81019080803573ffffffffffffffffffffffffffffffffffffffff16906020019092919080359060200190929190505050610fc6565b604051808215151515815260200191505060405180910390f35b6103206004803603602081101561030a57600080fd5b8101908080359060200190929190505050611163565b604051808273ffffffffffffffffffffffffffffffffffffffff1673ffffffffffffffffffffffffffffffffffffffff16815260200191505060405180910390f35b61038e6004803603602081101561037857600080fd5b8101908080359060200190929190505050611193565b6040518082815260200191505060405180910390f35b6103ac6111bc565b604051808215151515815260200191505060405180910390f35b6103ce6111cf565b6040518082815260200191505060405180910390f35b61041a600480360360408110156103fa57600080fd5b8101908080359060200190929190803590602001909291905050506111e1565b005b6104886004803603606081101561043257600080fd5b81019080803573ffffffffffffffffffffffffffffffffffffffff169060200190929190803573ffffffffffffffffffffffffffffffffffffffff16906020019092919080359060200190929190505050611367565b604051808215151515815260200191505060405180910390f35b610612600480360360608110156104b857600080fd5b81019080803573ffffffffffffffffffffffffffffffffffffffff169060200190929190803590602001906401000000008111156104f557600080fd5b82018360208201111561050757600080fd5b8035906020019184600183028401116401000000008311171561052957600080fd5b91908080601f016020809104026020016040519081016040528093929190818152602001838380828437600081840152601f19601f8201169050808301925050505050505091929192908035906020019064010000000081111561058c57600080fd5b82018360208201111561059e57600080fd5b803590602001918460018302840111640100000000831117156105c057600080fd5b91908080601f016020809104026020016040519081016040528093929190818152602001838380828437600081840152601f19601f8201169050808301925050505050505091929192905050506118d8565b604051808215151515815260200191505060405180910390f35b610634611a98565b604051808260ff1660ff16815260200191505060405180910390f35b61069c6004803603604081101561066657600080fd5b81019080803573ffffffffffffffffffffffffffffffffffffffff16906020019092919080359060200190929190505050611aaf565b005b6106ea600480360360408110156106b457600080fd5b81019080803573ffffffffffffffffffffffffffffffffffffffff16906020019092919080359060200190929190505050611cbb565b604051808215151515815260200191505060405180910390f35b6107506004803603604081101561071a57600080fd5b81019080803573ffffffffffffffffffffffffffffffffffffffff16906020019092919080359060200190929190505050611ef2565b604051808215151515815260200191505060405180910390f35b6107966004803603602081101561078057600080fd5b8101908080359060200190929190505050612205565b604051808215151515815260200191505060405180910390f35b6107f2600480360360208110156107c657600080fd5b81019080803573ffffffffffffffffffffffffffffffffffffffff1690602001909291905050506125de565b6040518082815260200191505060405180910390f35b61081061262f565b005b61081a6126ff565b604051808273ffffffffffffffffffffffffffffffffffffffff1673ffffffffffffffffffffffffffffffffffffffff16815260200191505060405180910390f35b610a14600480360361010081101561087357600080fd5b810190808035906020019064010000000081111561089057600080fd5b8201836020820111156108a257600080fd5b803590602001918460018302840111640100000000831117156108c457600080fd5b9091929391929390803590602001906401000000008111156108e557600080fd5b8201836020820111156108f757600080fd5b8035906020019184600183028401116401000000008311171561091957600080fd5b9091929391929390803560ff169060200190929190803573ffffffffffffffffffffffffffffffffffffffff16906020019092919080359060200190929190803590602001909291908035906020019064010000000081111561097b57600080fd5b82018360208201111561098d57600080fd5b803590602001918460208302840111640100000000831117156109af57600080fd5b9091929391929390803590602001906401000000008111156109d057600080fd5b8201836020820111156109e257600080fd5b80359060200191846020830284011164010000000083111715610a0457600080fd5b9091929391929390505050612725565b005b610a1e6128f0565b6040518082815260200191505060405180910390f35b610a3c612915565b604051808273ffffffffffffffffffffffffffffffffffffffff1673ffffffffffffffffffffffffffffffffffffffff16815260200191505060405180910390f35b610a8661293e565b604051808215151515815260200191505060405180910390f35b610aa8612995565b6040518080602001828103825283818151815260200191508051906020019080838360005b83811015610ae8578082015181840152602081019050610acd565b50505050905090810190601f168015610b155780820380516001836020036101000a031916815260200191505b509250505060405180910390f35b610b6f60048036036040811015610b3957600080fd5b81019080803573ffffffffffffffffffffffffffffffffffffffff16906020019092919080359060200190929190505050612a37565b005b610b79612b98565b6040518082815260200191505060405180910390f35b610bdb60048036036040811015610ba557600080fd5b81019080803573ffffffffffffffffffffffffffffffffffffffff16906020019092919080359060200190929190505050612bd4565b604051808215151515815260200191505060405180910390f35b610bfd612e0b565b6040518085815260200184815260200183815260200182815260200194505050505060405180910390f35b610c7460048036036040811015610c3e57600080fd5b81019080803573ffffffffffffffffffffffffffffffffffffffff16906020019092919080359060200190929190505050612e6f565b604051808215151515815260200191505060405180910390f35b610cd060048036036020811015610ca457600080fd5b81019080803573ffffffffffffffffffffffffffffffffffffffff169060200190929190505050612f2e565b005b610cfe60048036036020811015610ce857600080fd5b8101908080359060200190929190505050612fc6565b6040518082815260200191505060405180910390f35b610d7660048036036040811015610d2a57600080fd5b81019080803573ffffffffffffffffffffffffffffffffffffffff169060200190929190803573ffffffffffffffffffffffffffffffffffffffff169060200190929190505050613008565b6040518082815260200191505060405180910390f35b610d9461308f565b6040518082815260200191505060405180910390f35b610e4b60048036036060811015610dc057600080fd5b81019080803573ffffffffffffffffffffffffffffffffffffffff1690602001909291908035906020019092919080359060200190640100000000811115610e0757600080fd5b820183602082011115610e1957600080fd5b80359060200191846001830284011164010000000083111715610e3b57600080fd5b90919293919293905050506130ba565b604051808215151515815260200191505060405180910390f35b610ec3600480360360c0811015610e7b57600080fd5b810190808035906020019092919080359060200190929190803590602001909291908035906020019092919080359060200190929190803590602001909291905050506131e4565b604051808381526020018281526020019250505060405180910390f35b610f2260048036036020811015610ef657600080fd5b81019080803573ffffffffffffffffffffffffffffffffffffffff16906020019092919050505061327f565b005b606060028054600181600116156101000203166002900480601f016020809104026020016040519081016040528092919081815260200182805460018160011615610100020316600290048015610fbc5780601f10610f9157610100808354040283529160200191610fbc565b820191906000526020600020905b815481529060010190602001808311610f9f57829003601f168201915b5050505050905090565b6000610fd0613f5a565b6000610fda61329c565b809250819350505060086003015481146110715781600860010160008201518160000155905050806008600301819055507f08f3ed03ec9e579d1f6ab2f9e0d3dc661704696deabe37a6b6df7014f1b30a9761104e6008600101604051806020016040529081600082015481525050613467565b600860030154604051808381526020018281526020019250505060405180910390a15b83600760003373ffffffffffffffffffffffffffffffffffffffff1673ffffffffffffffffffffffffffffffffffffffff16815260200190815260200160002060008773ffffffffffffffffffffffffffffffffffffffff1673ffffffffffffffffffffffffffffffffffffffff168152602001908152602001600020819055508473ffffffffffffffffffffffffffffffffffffffff163373ffffffffffffffffffffffffffffffffffffffff167f8c5be1e5ebec7d5bd14f71427d1e84f3dd0314c0f7b2291e5b200ac8c7c3b925866040518082815260200191505060405180910390a360019250505092915050565b60008060405183815260008060208360fa611388fa60206000604084013e60408201519250505080915050919050565b600061119d613f5a565b6111a561329c565b50809150506111b48184613475565b915050919050565b600060149054906101000a900460ff1681565b60006111dc600654612fc6565b905090565b6111e961293e565b6111f257600080fd5b6111fa613f5a565b600061120461329c565b8092508193505050600860030154811461129b5781600860010160008201518160000155905050806008600301819055507f08f3ed03ec9e579d1f6ab2f9e0d3dc661704696deabe37a6b6df7014f1b30a976112786008600101604051806020016040529081600082015481525050613467565b600860030154604051808381526020018281526020019250505060405180910390a15b60008414156112f5576040517f08c379a00000000000000000000000000000000000000000000000000000000081526004018080602001828103825260278152602001806140136027913960400191505060405180910390fd5b6112fe846134a2565b600860000160008201518160000155905050826008600201819055507fa0035d6667ffb7d387c86c7228141c4a877e8ed831b267ac928a2f5b651c155d84844260405180848152602001838152602001828152602001935050505060405180910390a150505050565b6000611371613f5a565b600061137b61329c565b809250819350505060086003015481146114125781600860010160008201518160000155905050806008600301819055507f08f3ed03ec9e579d1f6ab2f9e0d3dc661704696deabe37a6b6df7014f1b30a976113ef6008600101604051806020016040529081600082015481525050613467565b600860030154604051808381526020018281526020019250505060405180910390a15b6000611437600860010160405180602001604052908160008201548152505086613475565b9050600073ffffffffffffffffffffffffffffffffffffffff168673ffffffffffffffffffffffffffffffffffffffff1614156114bf576040517f08c379a000000000000000000000000000000000000000000000000000000000815260040180806020018281038252602a8152602001806140c0602a913960400191505060405180910390fd5b600560008873ffffffffffffffffffffffffffffffffffffffff1673ffffffffffffffffffffffffffffffffffffffff16815260200190815260200160002054811115611557576040517f08c379a000000000000000000000000000000000000000000000000000000000815260040180806020018281038252602981526020018061403a6029913960400191505060405180910390fd5b600760008873ffffffffffffffffffffffffffffffffffffffff1673ffffffffffffffffffffffffffffffffffffffff16815260200190815260200160002060003373ffffffffffffffffffffffffffffffffffffffff1673ffffffffffffffffffffffffffffffffffffffff1681526020019081526020016000205485111561162c576040517f08c379a00000000000000000000000000000000000000000000000000000000081526004018080602001828103825260388152602001806140636038913960400191505060405180910390fd5b61167e81600560008973ffffffffffffffffffffffffffffffffffffffff1673ffffffffffffffffffffffffffffffffffffffff168152602001908152602001600020546134c090919063ffffffff16565b600560008873ffffffffffffffffffffffffffffffffffffffff1673ffffffffffffffffffffffffffffffffffffffff1681526020019081526020016000208190555061171381600560008a73ffffffffffffffffffffffffffffffffffffffff1673ffffffffffffffffffffffffffffffffffffffff168152602001908152602001600020546134df90919063ffffffff16565b600560008973ffffffffffffffffffffffffffffffffffffffff1673ffffffffffffffffffffffffffffffffffffffff168152602001908152602001600020819055506117e585600760008a73ffffffffffffffffffffffffffffffffffffffff1673ffffffffffffffffffffffffffffffffffffffff16815260200190815260200160002060003373ffffffffffffffffffffffffffffffffffffffff1673ffffffffffffffffffffffffffffffffffffffff168152602001908152602001600020546134df90919063ffffffff16565b600760008973ffffffffffffffffffffffffffffffffffffffff1673ffffffffffffffffffffffffffffffffffffffff16815260200190815260200160002060003373ffffffffffffffffffffffffffffffffffffffff1673ffffffffffffffffffffffffffffffffffffffff168152602001908152602001600020819055508573ffffffffffffffffffffffffffffffffffffffff168773ffffffffffffffffffffffffffffffffffffffff167fddf252ad1be2c89b69c2b068fc378daa952ba7f163c4a11628f55a4df523b3ef876040518082815260200191505060405180910390a3600193505050509392505050565b60008060fb73ffffffffffffffffffffffffffffffffffffffff1660005a90878787604051602001808473ffffffffffffffffffffffffffffffffffffffff1673ffffffffffffffffffffffffffffffffffffffff1660601b815260140183805190602001908083835b602083106119655780518252602082019150602081019050602083039250611942565b6001836020036101000a03801982511681845116808217855250505050505090500182805190602001908083835b602083106119b65780518252602082019150602081019050602083039250611993565b6001836020036101000a03801982511681845116808217855250505050505090500193505050506040516020818303038152906040526040518082805190602001908083835b60208310611a1f57805182526020820191506020810190506020830392506119fc565b6001836020036101000a038019825116818451168082178552505050505050905001915050600060405180830381858888f193505050503d8060008114611a82576040519150601f19603f3d011682016040523d82523d6000602084013e611a87565b606091505b505080915050809150509392505050565b6000600460009054906101000a900460ff16905090565b600073ffffffffffffffffffffffffffffffffffffffff163373ffffffffffffffffffffffffffffffffffffffff1614611b34576040517f08c379a000000000000000000000000000000000000000000000000000000000815260040180806020018281038252602581526020018061409b6025913960400191505060405180910390fd5b611b3c613f5a565b6000611b4661329c565b80925081935050506008600301548114611bdd5781600860010160008201518160000155905050806008600301819055507f08f3ed03ec9e579d1f6ab2f9e0d3dc661704696deabe37a6b6df7014f1b30a97611bba6008600101604051806020016040529081600082015481525050613467565b600860030154604051808381526020018281526020019250505060405180910390a15b6000611c02600860010160405180602001604052908160008201548152505085613475565b9050611c19816006546134df90919063ffffffff16565b600681905550611c7181600560008873ffffffffffffffffffffffffffffffffffffffff1673ffffffffffffffffffffffffffffffffffffffff168152602001908152602001600020546134df90919063ffffffff16565b600560008773ffffffffffffffffffffffffffffffffffffffff1673ffffffffffffffffffffffffffffffffffffffff168152602001908152602001600020819055505050505050565b6000611cc5613f5a565b6000611ccf61329c565b80925081935050506008600301548114611d665781600860010160008201518160000155905050806008600301819055507f08f3ed03ec9e579d1f6ab2f9e0d3dc661704696deabe37a6b6df7014f1b30a97611d436008600101604051806020016040529081600082015481525050613467565b600860030154604051808381526020018281526020019250505060405180910390a15b6000600760003373ffffffffffffffffffffffffffffffffffffffff1673ffffffffffffffffffffffffffffffffffffffff16815260200190815260200160002060008773ffffffffffffffffffffffffffffffffffffffff1673ffffffffffffffffffffffffffffffffffffffff1681526020019081526020016000205490506000611dfc86836134c090919063ffffffff16565b905080600760003373ffffffffffffffffffffffffffffffffffffffff1673ffffffffffffffffffffffffffffffffffffffff16815260200190815260200160002060008973ffffffffffffffffffffffffffffffffffffffff1673ffffffffffffffffffffffffffffffffffffffff168152602001908152602001600020819055508673ffffffffffffffffffffffffffffffffffffffff163373ffffffffffffffffffffffffffffffffffffffff167f8c5be1e5ebec7d5bd14f71427d1e84f3dd0314c0f7b2291e5b200ac8c7c3b925836040518082815260200191505060405180910390a3600194505050505092915050565b6000611efc613f5a565b6000611f0661329c565b80925081935050506008600301548114611f9d5781600860010160008201518160000155905050806008600301819055507f08f3ed03ec9e579d1f6ab2f9e0d3dc661704696deabe37a6b6df7014f1b30a97611f7a6008600101604051806020016040529081600082015481525050613467565b600860030154604051808381526020018281526020019250505060405180910390a15b600160009054906101000a900473ffffffffffffffffffffffffffffffffffffffff1673ffffffffffffffffffffffffffffffffffffffff1663dd92723360405160200180807f45786368616e67650000000000000000000000000000000000000000000000008152506008019050604051602081830303815290604052805190602001206040518263ffffffff1660e01b81526004018082815260200191505060206040518083038186803b15801561205657600080fd5b505afa15801561206a573d6000803e3d6000fd5b505050506040513d602081101561208057600080fd5b810190808051906020019092919050505073ffffffffffffffffffffffffffffffffffffffff163373ffffffffffffffffffffffffffffffffffffffff1614806121e85750600160009054906101000a900473ffffffffffffffffffffffffffffffffffffffff1673ffffffffffffffffffffffffffffffffffffffff1663dd92723360405160200180807f56616c696461746f727300000000000000000000000000000000000000000000815250600a019050604051602081830303815290604052805190602001206040518263ffffffff1660e01b81526004018082815260200191505060206040518083038186803b15801561217e57600080fd5b505afa158015612192573d6000803e3d6000fd5b505050506040513d60208110156121a857600080fd5b810190808051906020019092919050505073ffffffffffffffffffffffffffffffffffffffff163373ffffffffffffffffffffffffffffffffffffffff16145b6121f157600080fd5b6121fb85856134ff565b9250505092915050565b600060405160200180807f45786368616e67650000000000000000000000000000000000000000000000008152506008019050604051602081830303815290604052805190602001203373ffffffffffffffffffffffffffffffffffffffff16600160009054906101000a900473ffffffffffffffffffffffffffffffffffffffff1673ffffffffffffffffffffffffffffffffffffffff1663dcf0aaed836040518263ffffffff1660e01b81526004018082815260200191505060206040518083038186803b1580156122d857600080fd5b505afa1580156122ec573d6000803e3d6000fd5b505050506040513d602081101561230257600080fd5b810190808051906020019092919050505073ffffffffffffffffffffffffffffffffffffffff161461239c576040517f08c379a00000000000000000000000000000000000000000000000000000000081526004018080602001828103825260188152602001807f6f6e6c79207265676973746572656420636f6e7472616374000000000000000081525060200191505060405180910390fd5b6123a4613f5a565b60006123ae61329c565b809250819350505060086003015481146124455781600860010160008201518160000155905050806008600301819055507f08f3ed03ec9e579d1f6ab2f9e0d3dc661704696deabe37a6b6df7014f1b30a976124226008600101604051806020016040529081600082015481525050613467565b600860030154604051808381526020018281526020019250505060405180910390a15b600061246a600860010160405180602001604052908160008201548152505087613475565b9050600560003373ffffffffffffffffffffffffffffffffffffffff1673ffffffffffffffffffffffffffffffffffffffff16815260200190815260200160002054811115612521576040517f08c379a00000000000000000000000000000000000000000000000000000000081526004018080602001828103825260208152602001807f76616c75652065786365656465642062616c616e6365206f662073656e64657281525060200191505060405180910390fd5b612536816006546134df90919063ffffffff16565b60068190555061258e81600560003373ffffffffffffffffffffffffffffffffffffffff1673ffffffffffffffffffffffffffffffffffffffff168152602001908152602001600020546134df90919063ffffffff16565b600560003373ffffffffffffffffffffffffffffffffffffffff1673ffffffffffffffffffffffffffffffffffffffff168152602001908152602001600020819055506001945050505050919050565b6000612628600560008473ffffffffffffffffffffffffffffffffffffffff1673ffffffffffffffffffffffffffffffffffffffff16815260200190815260200160002054612fc6565b9050919050565b61263761293e565b61264057600080fd5b600073ffffffffffffffffffffffffffffffffffffffff166000809054906101000a900473ffffffffffffffffffffffffffffffffffffffff1673ffffffffffffffffffffffffffffffffffffffff167f8be0079c531659141344cd1fd0a4f28419497f9722a3daafe3b4186f6b6457e060405160405180910390a360008060006101000a81548173ffffffffffffffffffffffffffffffffffffffff021916908373ffffffffffffffffffffffffffffffffffffffff160217905550565b600160009054906101000a900473ffffffffffffffffffffffffffffffffffffffff1681565b600060149054906101000a900460ff161561273f57600080fd5b6001600060146101000a81548160ff02191690831515021790555060008614156127b4576040517f08c379a00000000000000000000000000000000000000000000000000000000081526004018080602001828103825260278152602001806140136027913960400191505060405180910390fd5b6127bd336136f4565b60006006819055508b8b600291906127d6929190613f6d565b508989600391906127e8929190613f6d565b5087600460006101000a81548160ff021916908360ff16021790555061280d866134a2565b6008600001600082015181600001559050506128276137ec565b600860010160008201518160000155905050846008600201819055504260086003018190555081819050848490501461285f57600080fd5b60008090505b848490508110156128d8576128b485858381811061287f57fe5b9050602002013573ffffffffffffffffffffffffffffffffffffffff168484848181106128a857fe5b905060200201356134ff565b6128bd57600080fd5b6128d16001826134c090919063ffffffff16565b9050612865565b506128e287612f2e565b505050505050505050505050565b60008060008060008060f9611388fa60405160206000823e8051925050508091505090565b60008060009054906101000a900473ffffffffffffffffffffffffffffffffffffffff16905090565b60008060009054906101000a900473ffffffffffffffffffffffffffffffffffffffff1673ffffffffffffffffffffffffffffffffffffffff163373ffffffffffffffffffffffffffffffffffffffff1614905090565b606060038054600181600116156101000203166002900480601f016020809104026020016040519081016040528092919081815260200182805460018160011615610100020316600290048015612a2d5780601f10612a0257610100808354040283529160200191612a2d565b820191906000526020600020905b815481529060010190602001808311612a1057829003601f168201915b5050505050905090565b600073ffffffffffffffffffffffffffffffffffffffff163373ffffffffffffffffffffffffffffffffffffffff1614612abc576040517f08c379a000000000000000000000000000000000000000000000000000000000815260040180806020018281038252602581526020018061409b6025913960400191505060405180910390fd5b6000612ae1600860010160405180602001604052908160008201548152505083613475565b9050612af8816006546134c090919063ffffffff16565b600681905550612b5081600560008673ffffffffffffffffffffffffffffffffffffffff1673ffffffffffffffffffffffffffffffffffffffff168152602001908152602001600020546134c090919063ffffffff16565b600560008573ffffffffffffffffffffffffffffffffffffffff1673ffffffffffffffffffffffffffffffffffffffff16815260200190815260200160002081905550505050565b600080612ba361308f565b90506000814381612bb057fe5b0490506000824381612bbe57fe5b061415612bcc576001810390505b809250505090565b6000612bde613f5a565b6000612be861329c565b80925081935050506008600301548114612c7f5781600860010160008201518160000155905050806008600301819055507f08f3ed03ec9e579d1f6ab2f9e0d3dc661704696deabe37a6b6df7014f1b30a97612c5c6008600101604051806020016040529081600082015481525050613467565b600860030154604051808381526020018281526020019250505060405180910390a15b6000600760003373ffffffffffffffffffffffffffffffffffffffff1673ffffffffffffffffffffffffffffffffffffffff16815260200190815260200160002060008773ffffffffffffffffffffffffffffffffffffffff1673ffffffffffffffffffffffffffffffffffffffff1681526020019081526020016000205490506000612d1586836134df90919063ffffffff16565b905080600760003373ffffffffffffffffffffffffffffffffffffffff1673ffffffffffffffffffffffffffffffffffffffff16815260200190815260200160002060008973ffffffffffffffffffffffffffffffffffffffff1673ffffffffffffffffffffffffffffffffffffffff168152602001908152602001600020819055508673ffffffffffffffffffffffffffffffffffffffff163373ffffffffffffffffffffffffffffffffffffffff167f8c5be1e5ebec7d5bd14f71427d1e84f3dd0314c0f7b2291e5b200ac8c7c3b925836040518082815260200191505060405180910390a3600194505050505092915050565b600080600080612e336008600001604051806020016040529081600082015481525050613467565b612e556008600101604051806020016040529081600082015481525050613467565b600860020154600860030154935093509350935090919293565b6000612e79613f5a565b6000612e8361329c565b80925081935050506008600301548114612f1a5781600860010160008201518160000155905050806008600301819055507f08f3ed03ec9e579d1f6ab2f9e0d3dc661704696deabe37a6b6df7014f1b30a97612ef76008600101604051806020016040529081600082015481525050613467565b600860030154604051808381526020018281526020019250505060405180910390a15b612f248585613812565b9250505092915050565b612f3661293e565b612f3f57600080fd5b80600160006101000a81548173ffffffffffffffffffffffffffffffffffffffff021916908373ffffffffffffffffffffffffffffffffffffffff1602179055508073ffffffffffffffffffffffffffffffffffffffff167f27fe5f0c1c3b1ed427cc63d0f05759ffdecf9aec9e18d31ef366fc8a6cb5dc3b60405160405180910390a250565b6000612fd0613f5a565b612fd861329c565b5080915050613000612ffb82612fed86613af2565b613b3090919063ffffffff16565b613ba7565b915050919050565b6000600760008473ffffffffffffffffffffffffffffffffffffffff1673ffffffffffffffffffffffffffffffffffffffff16815260200190815260200160002060008373ffffffffffffffffffffffffffffffffffffffff1673ffffffffffffffffffffffffffffffffffffffff16815260200190815260200160002054905092915050565b60008060405160008060008360f86103e8fa60206000602084013e6020820151925050508091505090565b60006130c4613f5a565b60006130ce61329c565b809250819350505060086003015481146131655781600860010160008201518160000155905050806008600301819055507f08f3ed03ec9e579d1f6ab2f9e0d3dc661704696deabe37a6b6df7014f1b30a976131426008600101604051806020016040529081600082015481525050613467565b600860030154604051808381526020018281526020019250505060405180910390a15b60006131718888612e6f565b90507fe5d4e30fb8364e57bc4d662a07d0cf36f4c34552004c4c3624620a2c1d1c03dc868660405180806020018281038252848482818152602001925080828437600081840152601f19601f820116905080830192505050935050505060405180910390a1809350505050949350505050565b600080600087141580156131f9575060008514155b61320257600080fd5b6000806040513681016040528a81528960208201528860408201528760608201528660808201528560a082015260008060c48360fc61041afa3d604051818101604052816000823e8260008114613263578151965060208201519550613267565b8282fd5b50505050508181935093505050965096945050505050565b61328761293e565b61329057600080fd5b613299816136f4565b50565b6132a4613f5a565b60006132c36008600201546008600301546134c090919063ffffffff16565b4210156132f657600860010160086003015481604051806020016040529081600082015481525050915091509150613463565b600080600061332a60086002015461331c600860030154426134df90919063ffffffff16565b613bc890919063ffffffff16565b90506133ac6133516008600101604051806020016040529081600082015481525050613467565b61336161335c6137ec565b613467565b6133836008600001604051806020016040529081600082015481525050613467565b61339361338e6137ec565b613467565b85600460009054906101000a900460ff1660ff166131e4565b809350819450505060008314806133c35750600082145b156133f757600860010160086003015481604051806020016040529081600082015481525050915094509450505050613463565b6133ff613f5a565b61342261340b846134a2565b613414866134a2565b613b3090919063ffffffff16565b9050600061345561344184600860020154613bee90919063ffffffff16565b6008600301546134c090919063ffffffff16565b905081819650965050505050505b9091565b600081600001519050919050565b600061349a61349561348684613af2565b85613c2890919063ffffffff16565b613ba7565b905092915050565b6134aa613f5a565b6040518060200160405280838152509050919050565b6000808284019050838110156134d557600080fd5b8091505092915050565b6000828211156134ee57600080fd5b600082840390508091505092915050565b6000613509613f5a565b600061351361329c565b809250819350505060086003015481146135aa5781600860010160008201518160000155905050806008600301819055507f08f3ed03ec9e579d1f6ab2f9e0d3dc661704696deabe37a6b6df7014f1b30a976135876008600101604051806020016040529081600082015481525050613467565b600860030154604051808381526020018281526020019250505060405180910390a15b60006135cf600860010160405180602001604052908160008201548152505086613475565b90506135e6816006546134c090919063ffffffff16565b60068190555061363e81600560008973ffffffffffffffffffffffffffffffffffffffff1673ffffffffffffffffffffffffffffffffffffffff168152602001908152602001600020546134c090919063ffffffff16565b600560008873ffffffffffffffffffffffffffffffffffffffff1673ffffffffffffffffffffffffffffffffffffffff168152602001908152602001600020819055508573ffffffffffffffffffffffffffffffffffffffff16600073ffffffffffffffffffffffffffffffffffffffff167fddf252ad1be2c89b69c2b068fc378daa952ba7f163c4a11628f55a4df523b3ef876040518082815260200191505060405180910390a36001935050505092915050565b600073ffffffffffffffffffffffffffffffffffffffff168173ffffffffffffffffffffffffffffffffffffffff16141561372e57600080fd5b8073ffffffffffffffffffffffffffffffffffffffff166000809054906101000a900473ffffffffffffffffffffffffffffffffffffffff1673ffffffffffffffffffffffffffffffffffffffff167f8be0079c531659141344cd1fd0a4f28419497f9722a3daafe3b4186f6b6457e060405160405180910390a3806000806101000a81548173ffffffffffffffffffffffffffffffffffffffff021916908373ffffffffffffffffffffffffffffffffffffffff16021790555050565b6137f4613f5a565b604051806020016040528069d3c21bcecceda1000000815250905090565b60008073ffffffffffffffffffffffffffffffffffffffff168373ffffffffffffffffffffffffffffffffffffffff161415613899576040517f08c379a000000000000000000000000000000000000000000000000000000000815260040180806020018281038252602a8152602001806140c0602a913960400191505060405180910390fd5b60006138be600860010160405180602001604052908160008201548152505084613475565b905080600560003373ffffffffffffffffffffffffffffffffffffffff1673ffffffffffffffffffffffffffffffffffffffff168152602001908152602001600020541015613958576040517f08c379a000000000000000000000000000000000000000000000000000000000815260040180806020018281038252602981526020018061403a6029913960400191505060405180910390fd5b6139aa81600560003373ffffffffffffffffffffffffffffffffffffffff1673ffffffffffffffffffffffffffffffffffffffff168152602001908152602001600020546134df90919063ffffffff16565b600560003373ffffffffffffffffffffffffffffffffffffffff1673ffffffffffffffffffffffffffffffffffffffff16815260200190815260200160002081905550613a3f81600560008773ffffffffffffffffffffffffffffffffffffffff1673ffffffffffffffffffffffffffffffffffffffff168152602001908152602001600020546134c090919063ffffffff16565b600560008673ffffffffffffffffffffffffffffffffffffffff1673ffffffffffffffffffffffffffffffffffffffff168152602001908152602001600020819055508373ffffffffffffffffffffffffffffffffffffffff163373ffffffffffffffffffffffffffffffffffffffff167fddf252ad1be2c89b69c2b068fc378daa952ba7f163c4a11628f55a4df523b3ef856040518082815260200191505060405180910390a3600191505092915050565b613afa613f5a565b613b02613e7a565b821115613b0e57600080fd5b604051806020016040528069d3c21bcecceda100000084028152509050919050565b613b38613f5a565b600082600001511415613b4a57600080fd5b600069d3c21bcecceda10000008460000151029050836000015169d3c21bcecceda10000008281613b7757fe5b0414613b8257600080fd5b604051806020016040528084600001518381613b9a57fe5b0481525091505092915050565b600069d3c21bcecceda1000000826000015181613bc057fe5b049050919050565b6000808211613bd657600080fd5b6000828481613be157fe5b0490508091505092915050565b600080831415613c015760009050613c22565b6000828402905082848281613c1257fe5b0414613c1d57600080fd5b809150505b92915050565b613c30613f5a565b600083600001511480613c47575060008260000151145b15613c6357604051806020016040528060008152509050613e74565b69d3c21bcecceda100000082600001511415613c8157829050613e74565b69d3c21bcecceda100000083600001511415613c9f57819050613e74565b600069d3c21bcecceda1000000613cb585613e99565b6000015181613cc057fe5b0490506000613cce85613ed0565b600001519050600069d3c21bcecceda1000000613cea86613e99565b6000015181613cf557fe5b0490506000613d0386613ed0565b6000015190506000828502905060008514613d2e5782858281613d2257fe5b0414613d2d57600080fd5b5b600069d3c21bcecceda10000008202905060008214613d675769d3c21bcecceda1000000828281613d5b57fe5b0414613d6657600080fd5b5b8091506000848602905060008614613d8f5784868281613d8357fe5b0414613d8e57600080fd5b5b6000848802905060008814613db45784888281613da857fe5b0414613db357600080fd5b5b613dbc613f0d565b8781613dc457fe5b049650613dcf613f0d565b8581613dd757fe5b0494506000858802905060008814613dff5785888281613df357fe5b0414613dfe57600080fd5b5b613e07613f5a565b6040518060200160405280878152509050613e3081604051806020016040528087815250613f1a565b9050613e4a81604051806020016040528086815250613f1a565b9050613e6481604051806020016040528085815250613f1a565b9050809a50505050505050505050505b92915050565b60007601357c299a88ea76a58924d52ce4f26a85af186c2b9e74905090565b613ea1613f5a565b604051806020016040528069d3c21bcecceda100000080856000015181613ec457fe5b04028152509050919050565b613ed8613f5a565b604051806020016040528069d3c21bcecceda100000080856000015181613efb57fe5b04028460000151038152509050919050565b600064e8d4a51000905090565b613f22613f5a565b6000826000015184600001510190508360000151811015613f4257600080fd5b60405180602001604052808281525091505092915050565b6040518060200160405280600081525090565b828054600181600116156101000203166002900490600052602060002090601f016020900481019282601f10613fae57803560ff1916838001178555613fdc565b82800160010185558215613fdc579182015b82811115613fdb578235825591602001919060010190613fc0565b5b509050613fe99190613fed565b5090565b61400f91905b8082111561400b576000816000905550600101613ff3565b5090565b9056fe4d7573742070726f766964652061206e6f6e2d7a65726f20696e666c6174696f6e20726174652e7472616e736665722076616c75652065786365656465642062616c616e6365206f662073656e6465727472616e736665722076616c75652065786365656465642073656e646572277320616c6c6f77616e636520666f7220726563697069656e7473656e64657220776173206e6f7420766d20287265736572766564203078302061646472297472616e7366657220617474656d7074656420746f207265736572766564206164647265737320307830a165627a7a72305820fd4253e615f7ba060f56e8438fa7c65c528795ed8a65171013846b67c0cb9d560029",
  "source": "pragma solidity ^0.5.3;\n\nimport \"openzeppelin-solidity/contracts/ownership/Ownable.sol\";\nimport \"openzeppelin-solidity/contracts/math/SafeMath.sol\";\n\nimport \"./interfaces/IStableToken.sol\";\nimport \"../common/interfaces/IERC20Token.sol\";\nimport \"../common/interfaces/ICeloToken.sol\";\nimport \"../common/Initializable.sol\";\nimport \"../common/FixidityLib.sol\";\nimport \"../common/UsingRegistry.sol\";\nimport \"../common/UsingPrecompiles.sol\";\n\n/**\n * @title An ERC20 compliant token with adjustable supply.\n */\n// solhint-disable-next-line max-line-length\ncontract StableToken is\n  IStableToken,\n  IERC20Token,\n  ICeloToken,\n  Ownable,\n  Initializable,\n  UsingRegistry,\n  UsingPrecompiles\n{\n  using FixidityLib for FixidityLib.Fraction;\n  using SafeMath for uint256;\n\n  event InflationFactorUpdated(uint256 factor, uint256 lastUpdated);\n\n  event InflationParametersUpdated(uint256 rate, uint256 updatePeriod, uint256 lastUpdated);\n\n  event Transfer(address indexed from, address indexed to, uint256 value);\n\n  event TransferComment(string comment);\n\n  string internal name_;\n  string internal symbol_;\n  uint8 internal decimals_;\n\n  // Stored as units. Value can be found using unitsToValue().\n  mapping(address => uint256) internal balances;\n  uint256 internal totalSupply_;\n\n  // Stored as values. Units can be found using valueToUnits().\n  mapping(address => mapping(address => uint256)) internal allowed;\n\n  // STABILITY FEE PARAMETERS\n\n  // The `rate` is how much the `factor` is adjusted by per `updatePeriod`.\n  // The `factor` describes units/value of StableToken, and is greater than or equal to 1.\n  // The `updatePeriod` governs how often the `factor` is updated.\n  // `factorLastUpdated` indicates when the inflation factor was last updated.\n  struct InflationState {\n    FixidityLib.Fraction rate;\n    FixidityLib.Fraction factor;\n    uint256 updatePeriod;\n    uint256 factorLastUpdated;\n  }\n\n  InflationState inflationState;\n\n  /**\n   * Only VM would be able to set the caller address to 0x0 unless someone\n   * really has the private key for 0x0\n   */\n  modifier onlyVm() {\n    require(msg.sender == address(0), \"sender was not vm (reserved 0x0 addr)\");\n    _;\n  }\n\n  /**\n   * @notice recomputes and updates inflation factor if more than `updatePeriod`\n   * has passed since last update.\n   */\n  modifier updateInflationFactor() {\n    FixidityLib.Fraction memory updatedInflationFactor;\n    uint256 lastUpdated;\n\n    (updatedInflationFactor, lastUpdated) = getUpdatedInflationFactor();\n\n    if (lastUpdated != inflationState.factorLastUpdated) {\n      inflationState.factor = updatedInflationFactor;\n      inflationState.factorLastUpdated = lastUpdated;\n      emit InflationFactorUpdated(inflationState.factor.unwrap(), inflationState.factorLastUpdated);\n    }\n    _;\n  }\n\n  /**\n   * @param _name The name of the stable token (English)\n   * @param _symbol A short symbol identifying the token (e.g. \"cUSD\")\n   * @param _decimals Tokens are divisible to this many decimal places.\n   * @param registryAddress Address of the Registry contract.\n   * @param inflationRate weekly inflation rate.\n   * @param inflationFactorUpdatePeriod how often the inflation factor is updated.\n   */\n  function initialize(\n    string calldata _name,\n    string calldata _symbol,\n    uint8 _decimals,\n    address registryAddress,\n    uint256 inflationRate,\n    uint256 inflationFactorUpdatePeriod,\n    address[] calldata initialBalanceAddresses,\n    uint256[] calldata initialBalanceValues\n  ) external initializer {\n    require(inflationRate != 0, \"Must provide a non-zero inflation rate.\");\n\n    _transferOwnership(msg.sender);\n    totalSupply_ = 0;\n    name_ = _name;\n    symbol_ = _symbol;\n    decimals_ = _decimals;\n\n    inflationState.rate = FixidityLib.wrap(inflationRate);\n    inflationState.factor = FixidityLib.fixed1();\n    inflationState.updatePeriod = inflationFactorUpdatePeriod;\n    // solhint-disable-next-line not-rely-on-time\n    inflationState.factorLastUpdated = now;\n\n    require(initialBalanceAddresses.length == initialBalanceValues.length);\n    for (uint256 i = 0; i < initialBalanceAddresses.length; i = i.add(1)) {\n      require(_mint(initialBalanceAddresses[i], initialBalanceValues[i]));\n    }\n    setRegistry(registryAddress);\n  }\n\n  /**\n   * @notice Updates Inflation Parameters.\n   * @param rate new rate.\n   * @param updatePeriod how often inflationFactor is updated.\n   */\n  function setInflationParameters(uint256 rate, uint256 updatePeriod)\n    external\n    onlyOwner\n    updateInflationFactor\n  {\n    require(rate != 0, \"Must provide a non-zero inflation rate.\");\n    inflationState.rate = FixidityLib.wrap(rate);\n    inflationState.updatePeriod = updatePeriod;\n\n    emit InflationParametersUpdated(\n      rate,\n      updatePeriod,\n      // solhint-disable-next-line not-rely-on-time\n      now\n    );\n  }\n\n  /**\n   * @notice Increase the allowance of another user.\n   * @param spender The address which is being approved to spend StableToken.\n   * @param value The increment of the amount of StableToken approved to the spender.\n   * @return True if the transaction succeeds.\n   */\n  function increaseAllowance(address spender, uint256 value)\n    external\n    updateInflationFactor\n    returns (bool)\n  {\n    uint256 oldValue = allowed[msg.sender][spender];\n    uint256 newValue = oldValue.add(value);\n    allowed[msg.sender][spender] = newValue;\n    emit Approval(msg.sender, spender, newValue);\n    return true;\n  }\n\n  /**\n   * @notice Decrease the allowance of another user.\n   * @param spender The address which is being approved to spend StableToken.\n   * @param value The decrement of the amount of StableToken approved to the spender.\n   * @return True if the transaction succeeds.\n   */\n  function decreaseAllowance(address spender, uint256 value)\n    external\n    updateInflationFactor\n    returns (bool)\n  {\n    uint256 oldValue = allowed[msg.sender][spender];\n    uint256 newValue = oldValue.sub(value);\n    allowed[msg.sender][spender] = newValue;\n    emit Approval(msg.sender, spender, newValue);\n    return true;\n  }\n\n  /**\n   * @notice Approve a user to transfer StableToken on behalf of another user.\n   * @param spender The address which is being approved to spend StableToken.\n   * @param value The amount of StableToken approved to the spender.\n   * @return True if the transaction succeeds.\n   */\n  function approve(address spender, uint256 value) external updateInflationFactor returns (bool) {\n    allowed[msg.sender][spender] = value;\n    emit Approval(msg.sender, spender, value);\n    return true;\n  }\n\n  /**\n   * @notice Mints new StableToken and gives it to 'to'.\n   * @param to The account for which to mint tokens.\n   * @param value The amount of StableToken to mint.\n   */\n  function mint(address to, uint256 value) external updateInflationFactor returns (bool) {\n    // Only the Exchange and Validators contracts are authorized to mint.\n    require(\n      msg.sender == registry.getAddressFor(EXCHANGE_REGISTRY_ID) ||\n        msg.sender == registry.getAddressFor(VALIDATORS_REGISTRY_ID)\n    );\n    return _mint(to, value);\n  }\n\n  /**\n   * @notice Mints new StableToken and gives it to 'to'.\n   * @param to The account for which to mint tokens.\n   * @param value The amount of StableToken to mint.\n   */\n  function _mint(address to, uint256 value) private updateInflationFactor returns (bool) {\n    uint256 units = _valueToUnits(inflationState.factor, value);\n    totalSupply_ = totalSupply_.add(units);\n    balances[to] = balances[to].add(units);\n    emit Transfer(address(0), to, value);\n    return true;\n  }\n\n  /**\n   * @notice Transfer token for a specified address\n   * @param to The address to transfer to.\n   * @param value The amount to be transferred.\n   * @param comment The transfer comment.\n   * @return True if the transaction succeeds.\n   */\n  function transferWithComment(address to, uint256 value, string calldata comment)\n    external\n    updateInflationFactor\n    returns (bool)\n  {\n    bool succeeded = transfer(to, value);\n    emit TransferComment(comment);\n    return succeeded;\n  }\n\n  /**\n   * @notice Burns StableToken from the balance of msg.sender.\n   * @param value The amount of StableToken to burn.\n   */\n  function burn(uint256 value)\n    external\n    onlyRegisteredContract(EXCHANGE_REGISTRY_ID)\n    updateInflationFactor\n    returns (bool)\n  {\n    uint256 units = _valueToUnits(inflationState.factor, value);\n    require(units <= balances[msg.sender], \"value exceeded balance of sender\");\n    totalSupply_ = totalSupply_.sub(units);\n    balances[msg.sender] = balances[msg.sender].sub(units);\n    return true;\n  }\n\n  /**\n   * @notice Transfers StableToken from one address to another on behalf of a user.\n   * @param from The address to transfer StableToken from.\n   * @param to The address to transfer StableToken to.\n   * @param value The amount of StableToken to transfer.\n   * @return True if the transaction succeeds.\n   */\n  function transferFrom(address from, address to, uint256 value)\n    external\n    updateInflationFactor\n    returns (bool)\n  {\n    uint256 units = _valueToUnits(inflationState.factor, value);\n    require(to != address(0), \"transfer attempted to reserved address 0x0\");\n    require(units <= balances[from], \"transfer value exceeded balance of sender\");\n    require(\n      value <= allowed[from][msg.sender],\n      \"transfer value exceeded sender's allowance for recipient\"\n    );\n\n    balances[to] = balances[to].add(units);\n    balances[from] = balances[from].sub(units);\n    allowed[from][msg.sender] = allowed[from][msg.sender].sub(value);\n    emit Transfer(from, to, value);\n    return true;\n  }\n\n  /**\n   * @return The name of the stable token.\n   */\n  function name() external view returns (string memory) {\n    return name_;\n  }\n\n  /**\n   * @return The symbol of the stable token.\n   */\n  function symbol() external view returns (string memory) {\n    return symbol_;\n  }\n\n  /**\n   * @return The number of decimal places to which StableToken is divisible.\n   */\n  function decimals() external view returns (uint8) {\n    return decimals_;\n  }\n\n  /**\n   * @notice Gets the amount of owner's StableToken allowed to be spent by spender.\n   * @param accountOwner The owner of the StableToken.\n   * @param spender The spender of the StableToken.\n   * @return The amount of StableToken owner is allowing spender to spend.\n   */\n  function allowance(address accountOwner, address spender) external view returns (uint256) {\n    return allowed[accountOwner][spender];\n  }\n\n  /**\n   * @notice Gets the balance of the specified address using the presently stored inflation factor.\n   * @param accountOwner The address to query the balance of.\n   * @return The balance of the specified address.\n   */\n  function balanceOf(address accountOwner) external view returns (uint256) {\n    return unitsToValue(balances[accountOwner]);\n  }\n\n  /**\n   * @return The total value of StableToken in existence\n   * @dev Though totalSupply_ is stored in units, this returns value.\n   */\n  function totalSupply() external view returns (uint256) {\n    return unitsToValue(totalSupply_);\n  }\n\n  /**\n   * @notice gets inflation parameters.\n   * @return rate\n   * @return factor\n   * @return updatePeriod\n   * @return factorLastUpdated\n   */\n  function getInflationParameters() external view returns (uint256, uint256, uint256, uint256) {\n    return (\n      inflationState.rate.unwrap(),\n      inflationState.factor.unwrap(),\n      inflationState.updatePeriod,\n      inflationState.factorLastUpdated\n    );\n  }\n\n  /**\n   * @notice Returns the units for a given value given the current inflation factor.\n   * @param value The value to convert to units.\n   * @return The units corresponding to `value` given the current inflation factor.\n   * @dev We don't compute the updated inflationFactor here because\n   * we assume any function calling this will have updated the inflation factor.\n   */\n  function valueToUnits(uint256 value) external view returns (uint256) {\n    FixidityLib.Fraction memory updatedInflationFactor;\n\n    (updatedInflationFactor, ) = getUpdatedInflationFactor();\n    return _valueToUnits(updatedInflationFactor, value);\n  }\n\n  /**\n   * @notice Returns the value of a given number of units given the current inflation factor.\n   * @param units The units to convert to value.\n   * @return The value corresponding to `units` given the current inflation factor.\n   */\n  function unitsToValue(uint256 units) public view returns (uint256) {\n    FixidityLib.Fraction memory updatedInflationFactor;\n\n    (updatedInflationFactor, ) = getUpdatedInflationFactor();\n\n    // We're ok using FixidityLib.divide here because updatedInflationFactor is\n    // not going to surpass maxFixedDivisor any time soon.\n    // Quick upper-bound estimation: if annual inflation were 5% (an order of\n    // magnitude more than the initial proposal of 0.5%), in 500 years, the\n    // inflation factor would be on the order of 10**10, which is still a safe\n    // divisor.\n    return FixidityLib.newFixed(units).divide(updatedInflationFactor).fromFixed();\n  }\n\n  /**\n   * @notice Returns the units for a given value given the current inflation factor.\n   * @param value The value to convert to units.\n   * @return The units corresponding to `value` given the current inflation factor.\n   * @dev we assume any function calling this will have updated the inflation factor.\n   */\n  function _valueToUnits(FixidityLib.Fraction memory inflationFactor, uint256 value)\n    private\n    pure\n    returns (uint256)\n  {\n    return inflationFactor.multiply(FixidityLib.newFixed(value)).fromFixed();\n  }\n\n  /**\n   * @notice Computes the up-to-date inflation factor.\n   * @return current inflation factor.\n   * @return lastUpdated time when the returned inflation factor went into effect.\n   */\n  function getUpdatedInflationFactor() private view returns (FixidityLib.Fraction memory, uint256) {\n    /* solhint-disable not-rely-on-time */\n    if (now < inflationState.factorLastUpdated.add(inflationState.updatePeriod)) {\n      return (inflationState.factor, inflationState.factorLastUpdated);\n    }\n\n    uint256 numerator;\n    uint256 denominator;\n\n    // TODO: handle retroactive updates given decreases to updatePeriod:\n    // https://github.com/celo-org/celo-monorepo/issues/3929\n    uint256 timesToApplyInflation = now.sub(inflationState.factorLastUpdated).div(\n      inflationState.updatePeriod\n    );\n\n    (numerator, denominator) = fractionMulExp(\n      inflationState.factor.unwrap(),\n      FixidityLib.fixed1().unwrap(),\n      inflationState.rate.unwrap(),\n      FixidityLib.fixed1().unwrap(),\n      timesToApplyInflation,\n      decimals_\n    );\n\n    // This should never happen. If something went wrong updating the\n    // inflation factor, keep the previous factor\n    if (numerator == 0 || denominator == 0) {\n      return (inflationState.factor, inflationState.factorLastUpdated);\n    }\n\n    FixidityLib.Fraction memory currentInflationFactor = FixidityLib.wrap(numerator).divide(\n      FixidityLib.wrap(denominator)\n    );\n    uint256 lastUpdated = inflationState.factorLastUpdated.add(\n      inflationState.updatePeriod.mul(timesToApplyInflation)\n    );\n\n    return (currentInflationFactor, lastUpdated);\n    /* solhint-enable not-rely-on-time */\n  }\n\n  /**\n   * @notice Transfers `value` from `msg.sender` to `to`\n   * @param to The address to transfer to.\n   * @param value The amount to be transferred.\n   */\n  // solhint-disable-next-line no-simple-event-func-name\n  function transfer(address to, uint256 value) public updateInflationFactor returns (bool) {\n    return _transfer(to, value);\n  }\n\n  /**\n   * @notice Deduct balance for making payments for gas in this StableToken currency.\n   * @param from The account to debit balance from\n   * @param value The value of balance to debit\n   */\n  function debitFrom(address from, uint256 value) external onlyVm updateInflationFactor {\n    uint256 units = _valueToUnits(inflationState.factor, value);\n    totalSupply_ = totalSupply_.sub(units);\n    balances[from] = balances[from].sub(units);\n  }\n\n  /**\n   * @notice Refund balance after making payments for gas in this StableToken currency.\n   * @param to The account to credit balance to\n   * @param value The amount of balance to credit\n   * @dev We can assume that the inflation factor is up to date as `debitFrom`\n   * will have been called in the same transaction\n   */\n  function creditTo(address to, uint256 value) external onlyVm {\n    uint256 units = _valueToUnits(inflationState.factor, value);\n    totalSupply_ = totalSupply_.add(units);\n    balances[to] = balances[to].add(units);\n  }\n\n  /**\n   * @notice Transfers StableToken from one address to another\n   * @param to The address to transfer StableToken to.\n   * @param value The amount of StableToken to be transferred.\n   */\n  function _transfer(address to, uint256 value) internal returns (bool) {\n    require(to != address(0), \"transfer attempted to reserved address 0x0\");\n    uint256 units = _valueToUnits(inflationState.factor, value);\n    require(balances[msg.sender] >= units, \"transfer value exceeded balance of sender\");\n    balances[msg.sender] = balances[msg.sender].sub(units);\n    balances[to] = balances[to].add(units);\n    emit Transfer(msg.sender, to, value);\n    return true;\n  }\n\n}\n",
  "sourcePath": "/Users/cmcewen/celo/celo-monorepo/packages/protocol/contracts/stability/StableToken.sol",
  "compiler": {
    "name": "solc",
    "version": "0.5.8+commit.23d335f2.Emscripten.clang"
  },
  "schemaVersion": "3.0.10",
  "updatedAt": "2019-12-06T00:12:55.203Z",
  "devdoc": {
    "methods": {
      "allowance(address,address)": {
        "params": {
          "accountOwner": "The owner of the StableToken.",
          "spender": "The spender of the StableToken."
        },
        "return": "The amount of StableToken owner is allowing spender to spend."
      },
      "approve(address,uint256)": {
        "params": {
          "spender": "The address which is being approved to spend StableToken.",
          "value": "The amount of StableToken approved to the spender."
        },
        "return": "True if the transaction succeeds."
      },
      "balanceOf(address)": {
        "params": {
          "accountOwner": "The address to query the balance of."
        },
        "return": "The balance of the specified address."
      },
      "burn(uint256)": {
        "params": {
          "value": "The amount of StableToken to burn."
        }
      },
      "checkProofOfPossession(address,bytes,bytes)": {
        "params": {
          "blsKey": "The BLS public key that the validator is using for consensus, should pass proof  of possession. 48 bytes.",
          "blsPop": "The BLS public key proof-of-possession, which consists of a signature on the  account address. 96 bytes.",
          "sender": "The address signed by the BLS key to generate the proof of possession."
        },
        "return": "True upon success."
      },
      "creditTo(address,uint256)": {
        "details": "We can assume that the inflation factor is up to date as `debitFrom` will have been called in the same transaction",
        "params": {
          "to": "The account to credit balance to",
          "value": "The amount of balance to credit"
        }
      },
      "debitFrom(address,uint256)": {
        "params": {
          "from": "The account to debit balance from",
          "value": "The value of balance to debit"
        }
      },
      "decimals()": {
        "return": "The number of decimal places to which StableToken is divisible."
      },
      "decreaseAllowance(address,uint256)": {
        "params": {
          "spender": "The address which is being approved to spend StableToken.",
          "value": "The decrement of the amount of StableToken approved to the spender."
        },
        "return": "True if the transaction succeeds."
      },
      "fractionMulExp(uint256,uint256,uint256,uint256,uint256,uint256)": {
        "params": {
          "_decimals": "precision",
          "aDenominator": "Denominator of first fraction",
          "aNumerator": "Numerator of first fraction",
          "bDenominator": "Denominator of exponentiated fraction",
          "bNumerator": "Numerator of exponentiated fraction",
          "exponent": "exponent to raise b to"
        },
        "return": "numerator/denominator of the computed quantity (not reduced)."
      },
      "getEpochSize()": {
        "return": "The current epoch size in blocks."
      },
      "getInflationParameters()": {
        "return": "ratefactorupdatePeriodfactorLastUpdated"
      },
      "increaseAllowance(address,uint256)": {
        "params": {
          "spender": "The address which is being approved to spend StableToken.",
          "value": "The increment of the amount of StableToken approved to the spender."
        },
        "return": "True if the transaction succeeds."
      },
      "initialize(string,string,uint8,address,uint256,uint256,address[],uint256[])": {
        "params": {
          "_decimals": "Tokens are divisible to this many decimal places.",
          "_name": "The name of the stable token (English)",
          "_symbol": "A short symbol identifying the token (e.g. \"cUSD\")",
          "inflationFactorUpdatePeriod": "how often the inflation factor is updated.",
          "inflationRate": "weekly inflation rate.",
          "registryAddress": "Address of the Registry contract."
        }
      },
      "isOwner()": {
        "return": "true if `msg.sender` is the owner of the contract."
      },
      "mint(address,uint256)": {
        "params": {
          "to": "The account for which to mint tokens.",
          "value": "The amount of StableToken to mint."
        }
      },
      "name()": {
        "return": "The name of the stable token."
      },
      "numberValidatorsInCurrentSet()": {
        "return": "Size of the current elected validator set."
      },
      "owner()": {
        "return": "the address of the owner."
      },
      "renounceOwnership()": {
        "details": "Allows the current owner to relinquish control of the contract. It will not be possible to call the functions with the `onlyOwner` modifier anymore."
      },
      "setInflationParameters(uint256,uint256)": {
        "params": {
          "rate": "new rate.",
          "updatePeriod": "how often inflationFactor is updated."
        }
      },
      "setRegistry(address)": {
        "params": {
          "registryAddress": "The address of a registry contract for routing to other contracts."
        }
      },
      "symbol()": {
        "return": "The symbol of the stable token."
      },
      "totalSupply()": {
        "details": "Though totalSupply_ is stored in units, this returns value.",
        "return": "The total value of StableToken in existence"
      },
      "transfer(address,uint256)": {
        "params": {
          "to": "The address to transfer to.",
          "value": "The amount to be transferred."
        }
      },
      "transferFrom(address,address,uint256)": {
        "params": {
          "from": "The address to transfer StableToken from.",
          "to": "The address to transfer StableToken to.",
          "value": "The amount of StableToken to transfer."
        },
        "return": "True if the transaction succeeds."
      },
      "transferOwnership(address)": {
        "details": "Allows the current owner to transfer control of the contract to a newOwner.",
        "params": {
          "newOwner": "The address to transfer ownership to."
        }
      },
      "transferWithComment(address,uint256,string)": {
        "params": {
          "comment": "The transfer comment.",
          "to": "The address to transfer to.",
          "value": "The amount to be transferred."
        },
        "return": "True if the transaction succeeds."
      },
      "unitsToValue(uint256)": {
        "params": {
          "units": "The units to convert to value."
        },
        "return": "The value corresponding to `units` given the current inflation factor."
      },
      "validatorAddressFromCurrentSet(uint256)": {
        "params": {
          "index": "Index of requested validator in the validator set as sorted by the election."
        },
        "return": "Address of validator at the requested index."
      },
      "valueToUnits(uint256)": {
        "details": "We don't compute the updated inflationFactor here because we assume any function calling this will have updated the inflation factor.",
        "params": {
          "value": "The value to convert to units."
        },
        "return": "The units corresponding to `value` given the current inflation factor."
      }
    },
    "title": "An ERC20 compliant token with adjustable supply."
  },
  "userdoc": {
    "methods": {
      "allowance(address,address)": {
        "notice": "Gets the amount of owner's StableToken allowed to be spent by spender."
      },
      "approve(address,uint256)": {
        "notice": "Approve a user to transfer StableToken on behalf of another user."
      },
      "balanceOf(address)": {
        "notice": "Gets the balance of the specified address using the presently stored inflation factor."
      },
      "burn(uint256)": {
        "notice": "Burns StableToken from the balance of msg.sender."
      },
      "checkProofOfPossession(address,bytes,bytes)": {
        "notice": "Checks a BLS proof of possession."
      },
      "creditTo(address,uint256)": {
        "notice": "Refund balance after making payments for gas in this StableToken currency."
      },
      "debitFrom(address,uint256)": {
        "notice": "Deduct balance for making payments for gas in this StableToken currency."
      },
      "decreaseAllowance(address,uint256)": {
        "notice": "Decrease the allowance of another user."
      },
      "fractionMulExp(uint256,uint256,uint256,uint256,uint256,uint256)": {
        "notice": "calculate a * b^x for fractions a, b to `decimals` precision"
      },
      "getEpochSize()": {
        "notice": "Returns the current epoch size in blocks."
      },
      "getInflationParameters()": {
        "notice": "gets inflation parameters."
      },
      "increaseAllowance(address,uint256)": {
        "notice": "Increase the allowance of another user."
      },
      "mint(address,uint256)": {
        "notice": "Mints new StableToken and gives it to 'to'."
      },
      "numberValidatorsInCurrentSet()": {
        "notice": "Gets the size of the current elected validator set."
      },
      "renounceOwnership()": {
        "notice": "Renouncing ownership will leave the contract without an owner, thereby removing any functionality that is only available to the owner."
      },
      "setInflationParameters(uint256,uint256)": {
        "notice": "Updates Inflation Parameters."
      },
      "setRegistry(address)": {
        "notice": "Updates the address pointing to a Registry contract."
      },
      "transfer(address,uint256)": {
        "notice": "Transfers `value` from `msg.sender` to `to`"
      },
      "transferFrom(address,address,uint256)": {
        "notice": "Transfers StableToken from one address to another on behalf of a user."
      },
      "transferWithComment(address,uint256,string)": {
        "notice": "Transfer token for a specified address"
      },
      "unitsToValue(uint256)": {
        "notice": "Returns the value of a given number of units given the current inflation factor."
      },
      "validatorAddressFromCurrentSet(uint256)": {
        "notice": "Gets a validator address from the current validator set."
      },
      "valueToUnits(uint256)": {
        "notice": "Returns the units for a given value given the current inflation factor."
      }
    }
  }
}