{
  "contractName": "TestAttestations",
  "abi": [
    {
      "constant": true,
      "inputs": [
        {
          "name": "identifier",
          "type": "bytes32"
        }
      ],
      "name": "lookupAccountsForIdentifier",
      "outputs": [
        {
          "name": "",
          "type": "address[]"
        }
      ],
      "payable": false,
      "stateMutability": "view",
      "type": "function"
    },
    {
      "constant": true,
      "inputs": [],
      "name": "initialized",
      "outputs": [
        {
          "name": "",
          "type": "bool"
        }
      ],
      "payable": false,
      "stateMutability": "view",
      "type": "function"
    },
    {
      "constant": false,
      "inputs": [
        {
          "name": "sender",
          "type": "address"
        },
        {
          "name": "blsKey",
          "type": "bytes"
        },
        {
          "name": "blsPop",
          "type": "bytes"
        }
      ],
      "name": "checkProofOfPossession",
      "outputs": [
        {
          "name": "",
          "type": "bool"
        }
      ],
      "payable": false,
      "stateMutability": "nonpayable",
      "type": "function"
    },
    {
      "constant": true,
      "inputs": [
        {
          "name": "identifier",
          "type": "bytes32"
        },
        {
          "name": "account",
          "type": "address"
        }
      ],
      "name": "getCompletableAttestations",
      "outputs": [
        {
          "name": "",
          "type": "uint32[]"
        },
        {
          "name": "",
          "type": "address[]"
        },
        {
          "name": "",
          "type": "uint256[]"
        },
        {
          "name": "",
          "type": "bytes"
        }
      ],
      "payable": false,
      "stateMutability": "view",
      "type": "function"
    },
    {
      "constant": false,
      "inputs": [
        {
          "name": "token",
          "type": "address"
        }
      ],
      "name": "withdraw",
      "outputs": [],
      "payable": false,
      "stateMutability": "nonpayable",
      "type": "function"
    },
    {
      "constant": true,
      "inputs": [
        {
          "name": "identifier",
          "type": "bytes32"
        },
        {
          "name": "account",
          "type": "address"
        }
      ],
      "name": "getAttestationStats",
      "outputs": [
        {
          "name": "",
          "type": "uint32"
        },
        {
          "name": "",
          "type": "uint32"
        }
      ],
      "payable": false,
      "stateMutability": "view",
      "type": "function"
    },
    {
      "constant": true,
      "inputs": [
        {
          "name": "identifier",
          "type": "bytes32"
        },
        {
          "name": "account",
          "type": "address"
        },
        {
          "name": "v",
          "type": "uint8"
        },
        {
          "name": "r",
          "type": "bytes32"
        },
        {
          "name": "s",
          "type": "bytes32"
        }
      ],
      "name": "validateAttestationCode",
      "outputs": [
        {
          "name": "",
          "type": "address"
        }
      ],
      "payable": false,
      "stateMutability": "view",
      "type": "function"
    },
    {
      "constant": true,
      "inputs": [
        {
          "name": "identifier",
          "type": "bytes32"
        },
        {
          "name": "account",
          "type": "address"
        }
      ],
      "name": "getAttestationIssuers",
      "outputs": [
        {
          "name": "",
          "type": "address[]"
        }
      ],
      "payable": false,
      "stateMutability": "view",
      "type": "function"
    },
    {
      "constant": true,
      "inputs": [
        {
          "name": "token",
          "type": "address"
        }
      ],
      "name": "getAttestationRequestFee",
      "outputs": [
        {
          "name": "",
          "type": "uint256"
        }
      ],
      "payable": false,
      "stateMutability": "view",
      "type": "function"
    },
    {
      "constant": false,
      "inputs": [],
      "name": "renounceOwnership",
      "outputs": [],
      "payable": false,
      "stateMutability": "nonpayable",
      "type": "function"
    },
    {
      "constant": true,
      "inputs": [],
      "name": "registry",
      "outputs": [
        {
          "name": "",
          "type": "address"
        }
      ],
      "payable": false,
      "stateMutability": "view",
      "type": "function"
    },
    {
      "constant": true,
      "inputs": [],
      "name": "selectIssuersWaitBlocks",
      "outputs": [
        {
          "name": "",
          "type": "uint256"
        }
      ],
      "payable": false,
      "stateMutability": "view",
      "type": "function"
    },
    {
      "constant": true,
      "inputs": [],
      "name": "owner",
      "outputs": [
        {
          "name": "",
          "type": "address"
        }
      ],
      "payable": false,
      "stateMutability": "view",
      "type": "function"
    },
    {
      "constant": true,
      "inputs": [],
      "name": "isOwner",
      "outputs": [
        {
          "name": "",
          "type": "bool"
        }
      ],
      "payable": false,
      "stateMutability": "view",
      "type": "function"
    },
    {
      "constant": true,
      "inputs": [
        {
          "name": "identifiersToLookup",
          "type": "bytes32[]"
        }
      ],
      "name": "batchGetAttestationStats",
      "outputs": [
        {
          "name": "",
          "type": "uint256[]"
        },
        {
          "name": "",
          "type": "address[]"
        },
        {
          "name": "",
          "type": "uint64[]"
        },
        {
          "name": "",
          "type": "uint64[]"
        }
      ],
      "payable": false,
      "stateMutability": "view",
      "type": "function"
    },
    {
      "constant": true,
      "inputs": [],
      "name": "getEpochNumber",
      "outputs": [
        {
          "name": "",
          "type": "uint256"
        }
      ],
      "payable": false,
      "stateMutability": "view",
      "type": "function"
    },
    {
      "constant": false,
      "inputs": [
        {
          "name": "_attestationExpiryBlocks",
          "type": "uint256"
        }
      ],
      "name": "setAttestationExpiryBlocks",
      "outputs": [],
      "payable": false,
      "stateMutability": "nonpayable",
      "type": "function"
    },
    {
      "constant": false,
      "inputs": [
        {
          "name": "registryAddress",
          "type": "address"
        }
      ],
      "name": "setRegistry",
      "outputs": [],
      "payable": false,
      "stateMutability": "nonpayable",
      "type": "function"
    },
    {
      "constant": true,
      "inputs": [],
      "name": "attestationExpiryBlocks",
      "outputs": [
        {
          "name": "",
          "type": "uint256"
        }
      ],
      "payable": false,
      "stateMutability": "view",
      "type": "function"
    },
    {
      "constant": true,
      "inputs": [
        {
          "name": "identifier",
          "type": "bytes32"
        },
        {
          "name": "account",
          "type": "address"
        },
        {
          "name": "issuer",
          "type": "address"
        }
      ],
      "name": "getAttestationState",
      "outputs": [
        {
          "name": "",
          "type": "uint8"
        },
        {
          "name": "",
          "type": "uint32"
        },
        {
          "name": "",
          "type": "address"
        }
      ],
      "payable": false,
      "stateMutability": "view",
      "type": "function"
    },
    {
      "constant": false,
      "inputs": [
        {
          "name": "registryAddress",
          "type": "address"
        },
        {
          "name": "_attestationExpiryBlocks",
          "type": "uint256"
        },
        {
          "name": "_selectIssuersWaitBlocks",
          "type": "uint256"
        },
        {
          "name": "attestationRequestFeeTokens",
          "type": "address[]"
        },
        {
          "name": "attestationRequestFeeValues",
          "type": "uint256[]"
        }
      ],
      "name": "initialize",
      "outputs": [],
      "payable": false,
      "stateMutability": "nonpayable",
      "type": "function"
    },
    {
      "constant": false,
      "inputs": [
        {
          "name": "identifier",
          "type": "bytes32"
        },
        {
          "name": "index",
          "type": "uint256"
        }
      ],
      "name": "revoke",
      "outputs": [],
      "payable": false,
      "stateMutability": "nonpayable",
      "type": "function"
    },
    {
      "constant": true,
      "inputs": [
        {
          "name": "",
          "type": "address"
        }
      ],
      "name": "attestationRequestFees",
      "outputs": [
        {
          "name": "",
          "type": "uint256"
        }
      ],
      "payable": false,
      "stateMutability": "view",
      "type": "function"
    },
    {
      "constant": false,
      "inputs": [
        {
          "name": "identifier",
          "type": "bytes32"
        },
        {
          "name": "attestationsRequested",
          "type": "uint256"
        },
        {
          "name": "attestationRequestFeeToken",
          "type": "address"
        }
      ],
      "name": "request",
      "outputs": [],
      "payable": false,
      "stateMutability": "nonpayable",
      "type": "function"
    },
    {
      "constant": true,
      "inputs": [],
      "name": "getEpochSize",
      "outputs": [
        {
          "name": "",
          "type": "uint256"
        }
      ],
      "payable": false,
      "stateMutability": "view",
      "type": "function"
    },
    {
      "constant": false,
      "inputs": [
        {
          "name": "_selectIssuersWaitBlocks",
          "type": "uint256"
        }
      ],
      "name": "setSelectIssuersWaitBlocks",
      "outputs": [],
      "payable": false,
      "stateMutability": "nonpayable",
      "type": "function"
    },
    {
      "constant": false,
      "inputs": [
        {
          "name": "identifier",
          "type": "bytes32"
        }
      ],
      "name": "selectIssuers",
      "outputs": [],
      "payable": false,
      "stateMutability": "nonpayable",
      "type": "function"
    },
    {
      "constant": true,
      "inputs": [
        {
          "name": "identifier",
          "type": "bytes32"
        },
        {
          "name": "account",
          "type": "address"
        }
      ],
      "name": "getUnselectedRequest",
      "outputs": [
        {
          "name": "",
          "type": "uint32"
        },
        {
          "name": "",
          "type": "uint32"
        },
        {
          "name": "",
          "type": "address"
        }
      ],
      "payable": false,
      "stateMutability": "view",
      "type": "function"
    },
    {
      "constant": true,
      "inputs": [
        {
          "name": "",
          "type": "address"
        },
        {
          "name": "",
          "type": "address"
        }
      ],
      "name": "pendingWithdrawals",
      "outputs": [
        {
          "name": "",
          "type": "uint256"
        }
      ],
      "payable": false,
      "stateMutability": "view",
      "type": "function"
    },
    {
      "constant": true,
      "inputs": [
        {
          "name": "aNumerator",
          "type": "uint256"
        },
        {
          "name": "aDenominator",
          "type": "uint256"
        },
        {
          "name": "bNumerator",
          "type": "uint256"
        },
        {
          "name": "bDenominator",
          "type": "uint256"
        },
        {
          "name": "exponent",
          "type": "uint256"
        },
        {
          "name": "_decimals",
          "type": "uint256"
        }
      ],
      "name": "fractionMulExp",
      "outputs": [
        {
          "name": "",
          "type": "uint256"
        },
        {
          "name": "",
          "type": "uint256"
        }
      ],
      "payable": false,
      "stateMutability": "view",
      "type": "function"
    },
    {
      "constant": false,
      "inputs": [
        {
          "name": "newOwner",
          "type": "address"
        }
      ],
      "name": "transferOwnership",
      "outputs": [],
      "payable": false,
      "stateMutability": "nonpayable",
      "type": "function"
    },
    {
      "constant": false,
      "inputs": [
        {
          "name": "token",
          "type": "address"
        },
        {
          "name": "fee",
          "type": "uint256"
        }
      ],
      "name": "setAttestationRequestFee",
      "outputs": [],
      "payable": false,
      "stateMutability": "nonpayable",
      "type": "function"
    },
    {
      "constant": false,
      "inputs": [
        {
          "name": "identifier",
          "type": "bytes32"
        },
        {
          "name": "v",
          "type": "uint8"
        },
        {
          "name": "r",
          "type": "bytes32"
        },
        {
          "name": "s",
          "type": "bytes32"
        }
      ],
      "name": "complete",
      "outputs": [],
      "payable": false,
      "stateMutability": "nonpayable",
      "type": "function"
    },
    {
      "anonymous": false,
      "inputs": [
        {
          "indexed": true,
          "name": "identifier",
          "type": "bytes32"
        },
        {
          "indexed": true,
          "name": "account",
          "type": "address"
        },
        {
          "indexed": false,
          "name": "attestationsRequested",
          "type": "uint256"
        },
        {
          "indexed": false,
          "name": "attestationRequestFeeToken",
          "type": "address"
        }
      ],
      "name": "AttestationsRequested",
      "type": "event"
    },
    {
      "anonymous": false,
      "inputs": [
        {
          "indexed": true,
          "name": "identifier",
          "type": "bytes32"
        },
        {
          "indexed": true,
          "name": "account",
          "type": "address"
        },
        {
          "indexed": true,
          "name": "issuer",
          "type": "address"
        },
        {
          "indexed": false,
          "name": "attestationRequestFeeToken",
          "type": "address"
        }
      ],
      "name": "AttestationIssuerSelected",
      "type": "event"
    },
    {
      "anonymous": false,
      "inputs": [
        {
          "indexed": true,
          "name": "identifier",
          "type": "bytes32"
        },
        {
          "indexed": true,
          "name": "account",
          "type": "address"
        },
        {
          "indexed": true,
          "name": "issuer",
          "type": "address"
        }
      ],
      "name": "AttestationCompleted",
      "type": "event"
    },
    {
      "anonymous": false,
      "inputs": [
        {
          "indexed": true,
          "name": "account",
          "type": "address"
        },
        {
          "indexed": true,
          "name": "token",
          "type": "address"
        },
        {
          "indexed": false,
          "name": "amount",
          "type": "uint256"
        }
      ],
      "name": "Withdrawal",
      "type": "event"
    },
    {
      "anonymous": false,
      "inputs": [
        {
          "indexed": false,
          "name": "value",
          "type": "uint256"
        }
      ],
      "name": "AttestationExpiryBlocksSet",
      "type": "event"
    },
    {
      "anonymous": false,
      "inputs": [
        {
          "indexed": true,
          "name": "token",
          "type": "address"
        },
        {
          "indexed": false,
          "name": "value",
          "type": "uint256"
        }
      ],
      "name": "AttestationRequestFeeSet",
      "type": "event"
    },
    {
      "anonymous": false,
      "inputs": [
        {
          "indexed": false,
          "name": "value",
          "type": "uint256"
        }
      ],
      "name": "SelectIssuersWaitBlocksSet",
      "type": "event"
    },
    {
      "anonymous": false,
      "inputs": [
        {
          "indexed": true,
          "name": "registryAddress",
          "type": "address"
        }
      ],
      "name": "RegistrySet",
      "type": "event"
    },
    {
      "anonymous": false,
      "inputs": [
        {
          "indexed": true,
          "name": "previousOwner",
          "type": "address"
        },
        {
          "indexed": true,
          "name": "newOwner",
          "type": "address"
        }
      ],
      "name": "OwnershipTransferred",
      "type": "event"
    },
    {
      "constant": false,
      "inputs": [
        {
          "name": "validators",
          "type": "address[]"
        }
      ],
      "name": "__setValidators",
      "outputs": [],
      "payable": false,
      "stateMutability": "nonpayable",
      "type": "function"
    },
    {
      "constant": true,
      "inputs": [],
      "name": "numberValidatorsInCurrentSet",
      "outputs": [
        {
          "name": "",
          "type": "uint256"
        }
      ],
      "payable": false,
      "stateMutability": "view",
      "type": "function"
    },
    {
      "constant": true,
      "inputs": [
        {
          "name": "index",
          "type": "uint256"
        }
      ],
      "name": "validatorAddressFromCurrentSet",
      "outputs": [
        {
          "name": "",
          "type": "address"
        }
      ],
      "payable": false,
      "stateMutability": "view",
      "type": "function"
    }
  ],
  "bytecode": "0x6080604052336000806101000a81548173ffffffffffffffffffffffffffffffffffffffff021916908373ffffffffffffffffffffffffffffffffffffffff1602179055506000809054906101000a900473ffffffffffffffffffffffffffffffffffffffff1673ffffffffffffffffffffffffffffffffffffffff16600073ffffffffffffffffffffffffffffffffffffffff167f8be0079c531659141344cd1fd0a4f28419497f9722a3daafe3b4186f6b6457e060405160405180910390a3600160028190555061514d806100d76000396000f3fe608060405234801561001057600080fd5b506004361061021c5760003560e01c80639a7b3be711610125578063df4da461116100ad578063e831be581161007c578063e831be58146110ba578063ec68307214611132578063f2fde38b146111ad578063f3ff26c6146111f1578063fb6a2e531461123f5761021c565b8063df4da46114610f8c578063e02659ce14610faa578063e221932e14610fd8578063e3d0f66f146110065761021c565b8063b5599cc6116100f4578063b5599cc614610cd4578063b71fb9cc14610da2578063bb46942f14610ea4578063bd93f99814610edc578063d02e0f0c14610f345761021c565b80639a7b3be714610c26578063a6437e7314610c44578063a91ee0dc14610c72578063b45eb7da14610cb65761021c565b80635fc5c916116101a857806387ee8a0f1161017757806387ee8a0f146109d857806389d35286146109f65780638da5cb5b14610a145780638f32d59b14610a5e57806396357c0a14610a805761021c565b80635fc5c91614610889578063623d59311461092c578063715018a6146109845780637b1039991461098e5761021c565b806323f0ab65116101ef57806323f0ab65146103ec5780634eef7e851461057657806351cff8d914610715578063596abea5146107595780635ce9bc07146107da5761021c565b806303cc1aff1461022157806306cbc788146102a457806311fb9e841461035c578063158ef93e146103ca575b600080fd5b61024d6004803603602081101561023757600080fd5b810190808035906020019092919050505061128e565b6040518080602001828103825283818151815260200191508051906020019060200280838360005b83811015610290578082015181840152602081019050610275565b505050509050019250505060405180910390f35b61035a600480360360208110156102ba57600080fd5b81019080803590602001906401000000008111156102d757600080fd5b8201836020820111156102e957600080fd5b8035906020019184602083028401116401000000008311171561030b57600080fd5b919080806020026020016040519081016040528093929190818152602001838360200280828437600081840152601f19601f820116905080830192505050505050509192919290505050611332565b005b6103886004803603602081101561037257600080fd5b810190808035906020019092919050505061134c565b604051808273ffffffffffffffffffffffffffffffffffffffff1673ffffffffffffffffffffffffffffffffffffffff16815260200191505060405180910390f35b6103d261138d565b604051808215151515815260200191505060405180910390f35b61055c6004803603606081101561040257600080fd5b81019080803573ffffffffffffffffffffffffffffffffffffffff1690602001909291908035906020019064010000000081111561043f57600080fd5b82018360208201111561045157600080fd5b8035906020019184600183028401116401000000008311171561047357600080fd5b91908080601f016020809104026020016040519081016040528093929190818152602001838380828437600081840152601f19601f820116905080830192505050505050509192919290803590602001906401000000008111156104d657600080fd5b8201836020820111156104e857600080fd5b8035906020019184600183028401116401000000008311171561050a57600080fd5b91908080601f016020809104026020016040519081016040528093929190818152602001838380828437600081840152601f19601f8201169050808301925050505050505091929192905050506113a0565b604051808215151515815260200191505060405180910390f35b6105c26004803603604081101561058c57600080fd5b8101908080359060200190929190803573ffffffffffffffffffffffffffffffffffffffff169060200190929190505050611560565b6040518080602001806020018060200180602001858103855289818151815260200191508051906020019060200280838360005b838110156106115780820151818401526020810190506105f6565b50505050905001858103845288818151815260200191508051906020019060200280838360005b83811015610653578082015181840152602081019050610638565b50505050905001858103835287818151815260200191508051906020019060200280838360005b8381101561069557808201518184015260208101905061067a565b50505050905001858103825286818151815260200191508051906020019080838360005b838110156106d45780820151818401526020810190506106b9565b50505050905090810190601f1680156107015780820380516001836020036101000a031916815260200191505b509850505050505050505060405180910390f35b6107576004803603602081101561072b57600080fd5b81019080803573ffffffffffffffffffffffffffffffffffffffff169060200190929190505050611a98565b005b6107a56004803603604081101561076f57600080fd5b8101908080359060200190929190803573ffffffffffffffffffffffffffffffffffffffff169060200190929190505050611dae565b604051808363ffffffff1663ffffffff1681526020018263ffffffff1663ffffffff1681526020019250505060405180910390f35b610847600480360360a08110156107f057600080fd5b8101908080359060200190929190803573ffffffffffffffffffffffffffffffffffffffff169060200190929190803560ff1690602001909291908035906020019092919080359060200190929190505050611e8a565b604051808273ffffffffffffffffffffffffffffffffffffffff1673ffffffffffffffffffffffffffffffffffffffff16815260200191505060405180910390f35b6108d56004803603604081101561089f57600080fd5b8101908080359060200190929190803573ffffffffffffffffffffffffffffffffffffffff169060200190929190505050612219565b6040518080602001828103825283818151815260200191508051906020019060200280838360005b838110156109185780820151818401526020810190506108fd565b505050509050019250505060405180910390f35b61096e6004803603602081101561094257600080fd5b81019080803573ffffffffffffffffffffffffffffffffffffffff1690602001909291905050506122fe565b6040518082815260200191505060405180910390f35b61098c612347565b005b610996612417565b604051808273ffffffffffffffffffffffffffffffffffffffff1673ffffffffffffffffffffffffffffffffffffffff16815260200191505060405180910390f35b6109e061243d565b6040518082815260200191505060405180910390f35b6109fe61244a565b6040518082815260200191505060405180910390f35b610a1c612450565b604051808273ffffffffffffffffffffffffffffffffffffffff1673ffffffffffffffffffffffffffffffffffffffff16815260200191505060405180910390f35b610a66612479565b604051808215151515815260200191505060405180910390f35b610af760048036036020811015610a9657600080fd5b8101908080359060200190640100000000811115610ab357600080fd5b820183602082011115610ac557600080fd5b80359060200191846020830284011164010000000083111715610ae757600080fd5b90919293919293905050506124d0565b6040518080602001806020018060200180602001858103855289818151815260200191508051906020019060200280838360005b83811015610b46578082015181840152602081019050610b2b565b50505050905001858103845288818151815260200191508051906020019060200280838360005b83811015610b88578082015181840152602081019050610b6d565b50505050905001858103835287818151815260200191508051906020019060200280838360005b83811015610bca578082015181840152602081019050610baf565b50505050905001858103825286818151815260200191508051906020019060200280838360005b83811015610c0c578082015181840152602081019050610bf1565b505050509050019850505050505050505060405180910390f35b610c2e6129b0565b6040518082815260200191505060405180910390f35b610c7060048036036020811015610c5a57600080fd5b81019080803590602001909291905050506129ec565b005b610cb460048036036020811015610c8857600080fd5b81019080803573ffffffffffffffffffffffffffffffffffffffff169060200190929190505050612a97565b005b610cbe612b2f565b6040518082815260200191505060405180910390f35b610d4060048036036060811015610cea57600080fd5b8101908080359060200190929190803573ffffffffffffffffffffffffffffffffffffffff169060200190929190803573ffffffffffffffffffffffffffffffffffffffff169060200190929190505050612b35565b604051808460ff1660ff1681526020018363ffffffff1663ffffffff1681526020018273ffffffffffffffffffffffffffffffffffffffff1673ffffffffffffffffffffffffffffffffffffffff168152602001935050505060405180910390f35b610ea2600480360360a0811015610db857600080fd5b81019080803573ffffffffffffffffffffffffffffffffffffffff169060200190929190803590602001909291908035906020019092919080359060200190640100000000811115610e0957600080fd5b820183602082011115610e1b57600080fd5b80359060200191846020830284011164010000000083111715610e3d57600080fd5b909192939192939080359060200190640100000000811115610e5e57600080fd5b820183602082011115610e7057600080fd5b80359060200191846020830284011164010000000083111715610e9257600080fd5b9091929391929390505050612c37565b005b610eda60048036036040811015610eba57600080fd5b810190808035906020019092919080359060200190929190505050612d77565b005b610f1e60048036036020811015610ef257600080fd5b81019080803573ffffffffffffffffffffffffffffffffffffffff169060200190929190505050613066565b6040518082815260200191505060405180910390f35b610f8a60048036036060811015610f4a57600080fd5b810190808035906020019092919080359060200190929190803573ffffffffffffffffffffffffffffffffffffffff16906020019092919050505061307e565b005b610f9461378a565b6040518082815260200191505060405180910390f35b610fd660048036036020811015610fc057600080fd5b81019080803590602001909291905050506137b5565b005b61100460048036036020811015610fee57600080fd5b8101908080359060200190929190505050613860565b005b6110526004803603604081101561101c57600080fd5b8101908080359060200190929190803573ffffffffffffffffffffffffffffffffffffffff169060200190929190505050613a89565b604051808463ffffffff1663ffffffff1681526020018363ffffffff1663ffffffff1681526020018273ffffffffffffffffffffffffffffffffffffffff1673ffffffffffffffffffffffffffffffffffffffff168152602001935050505060405180910390f35b61111c600480360360408110156110d057600080fd5b81019080803573ffffffffffffffffffffffffffffffffffffffff169060200190929190803573ffffffffffffffffffffffffffffffffffffffff169060200190929190505050613be0565b6040518082815260200191505060405180910390f35b611190600480360360c081101561114857600080fd5b81019080803590602001909291908035906020019092919080359060200190929190803590602001909291908035906020019092919080359060200190929190505050613c05565b604051808381526020018281526020019250505060405180910390f35b6111ef600480360360208110156111c357600080fd5b81019080803573ffffffffffffffffffffffffffffffffffffffff169060200190929190505050613ca0565b005b61123d6004803603604081101561120757600080fd5b81019080803573ffffffffffffffffffffffffffffffffffffffff16906020019092919080359060200190929190505050613cbd565b005b61128c6004803603608081101561125557600080fd5b8101908080359060200190929190803560ff1690602001909291908035906020019092919080359060200190929190505050613dbd565b005b60606003600083815260200190815260200160002060000180548060200260200160405190810160405280929190818152602001828054801561132657602002820191906000526020600020905b8160009054906101000a900473ffffffffffffffffffffffffffffffffffffffff1673ffffffffffffffffffffffffffffffffffffffff16815260200190600101908083116112dc575b50505050509050919050565b8060089080519060200190611348929190614db3565b5050565b60006008828154811061135b57fe5b9060005260206000200160009054906101000a900473ffffffffffffffffffffffffffffffffffffffff169050919050565b600060149054906101000a900460ff1681565b60008060fb73ffffffffffffffffffffffffffffffffffffffff1660005a90878787604051602001808473ffffffffffffffffffffffffffffffffffffffff1673ffffffffffffffffffffffffffffffffffffffff1660601b815260140183805190602001908083835b6020831061142d578051825260208201915060208101905060208303925061140a565b6001836020036101000a03801982511681845116808217855250505050505090500182805190602001908083835b6020831061147e578051825260208201915060208101905060208303925061145b565b6001836020036101000a03801982511681845116808217855250505050505090500193505050506040516020818303038152906040526040518082805190602001908083835b602083106114e757805182526020820191506020810190506020830392506114c4565b6001836020036101000a038019825116818451168082178552505050505050905001915050600060405180830381858888f193505050503d806000811461154a576040519150601f19603f3d011682016040523d82523d6000602084013e61154f565b606091505b505080915050809150509392505050565b60608060608060006003600088815260200190815260200160002060010160008773ffffffffffffffffffffffffffffffffffffffff1673ffffffffffffffffffffffffffffffffffffffff16815260200190815260200160002090506000816001019050600080905060008090505b82805490508110156116925761165b8460020160008584815481106115f157fe5b9060005260206000200160009054906101000a900473ffffffffffffffffffffffffffffffffffffffff1673ffffffffffffffffffffffffffffffffffffffff1673ffffffffffffffffffffffffffffffffffffffff16815260200190815260200160002061423d565b156116775761167460018361429d90919063ffffffff16565b91505b61168b60018261429d90919063ffffffff16565b90506115d0565b506060816040519080825280602002602001820160405280156116c45781602001602082028038833980820191505090505b5090506060826040519080825280602002602001820160405280156116f85781602001602082028038833980820191505090505b509050600080905060008090505b85805490508110156118f65761179187600201600088848154811061172757fe5b9060005260206000200160009054906101000a900473ffffffffffffffffffffffffffffffffffffffff1673ffffffffffffffffffffffffffffffffffffffff1673ffffffffffffffffffffffffffffffffffffffff16815260200190815260200160002061423d565b156118db578660020160008783815481106117a857fe5b9060005260206000200160009054906101000a900473ffffffffffffffffffffffffffffffffffffffff1673ffffffffffffffffffffffffffffffffffffffff1673ffffffffffffffffffffffffffffffffffffffff16815260200190815260200160002060000160019054906101000a900463ffffffff1684838151811061182d57fe5b602002602001019063ffffffff16908163ffffffff168152505085818154811061185357fe5b9060005260206000200160009054906101000a900473ffffffffffffffffffffffffffffffffffffffff1683838151811061188a57fe5b602002602001019073ffffffffffffffffffffffffffffffffffffffff16908173ffffffffffffffffffffffffffffffffffffffff16815250506118d860018361429d90919063ffffffff16565b91505b6118ef60018261429d90919063ffffffff16565b9050611706565b506060806119026142bc565b73ffffffffffffffffffffffffffffffffffffffff16638adaf96f856040518263ffffffff1660e01b81526004018080602001828103825283818151815260200191508051906020019060200280838360005b83811015611970578082015181840152602081019050611955565b505050509050019250505060006040518083038186803b15801561199357600080fd5b505afa1580156119a7573d6000803e3d6000fd5b505050506040513d6000823e3d601f19601f8201168201806040525060408110156119d157600080fd5b8101908080516401000000008111156119e957600080fd5b828101905060208101848111156119ff57600080fd5b8151856020820283011164010000000082111715611a1c57600080fd5b50509291906020018051640100000000811115611a3857600080fd5b82810190506020810184811115611a4e57600080fd5b8151856001820283011164010000000082111715611a6b57600080fd5b50509291905050508092508193505050848483839b509b509b509b50505050505050505092959194509250565b6000600760008373ffffffffffffffffffffffffffffffffffffffff1673ffffffffffffffffffffffffffffffffffffffff16815260200190815260200160002060003373ffffffffffffffffffffffffffffffffffffffff1673ffffffffffffffffffffffffffffffffffffffff16815260200190815260200160002054905060008111611b8f576040517f08c379a00000000000000000000000000000000000000000000000000000000081526004018080602001828103825260178152602001807f76616c756520776173206e656761746976652f7a65726f00000000000000000081525060200191505060405180910390fd5b6000600760008473ffffffffffffffffffffffffffffffffffffffff1673ffffffffffffffffffffffffffffffffffffffff16815260200190815260200160002060003373ffffffffffffffffffffffffffffffffffffffff1673ffffffffffffffffffffffffffffffffffffffff168152602001908152602001600020819055508173ffffffffffffffffffffffffffffffffffffffff1663a9059cbb33836040518363ffffffff1660e01b8152600401808373ffffffffffffffffffffffffffffffffffffffff1673ffffffffffffffffffffffffffffffffffffffff16815260200182815260200192505050602060405180830381600087803b158015611c9857600080fd5b505af1158015611cac573d6000803e3d6000fd5b505050506040513d6020811015611cc257600080fd5b8101908080519060200190929190505050611d45576040517f08c379a00000000000000000000000000000000000000000000000000000000081526004018080602001828103825260158152602001807f746f6b656e207472616e73666572206661696c6564000000000000000000000081525060200191505060405180910390fd5b8173ffffffffffffffffffffffffffffffffffffffff163373ffffffffffffffffffffffffffffffffffffffff167f2717ead6b9200dd235aad468c9809ea400fe33ac69b5bfaa6d3e90fc922b6398836040518082815260200191505060405180910390a35050565b6000806003600085815260200190815260200160002060010160008473ffffffffffffffffffffffffffffffffffffffff1673ffffffffffffffffffffffffffffffffffffffff16815260200190815260200160002060000160049054906101000a900463ffffffff166003600086815260200190815260200160002060010160008573ffffffffffffffffffffffffffffffffffffffff1673ffffffffffffffffffffffffffffffffffffffff16815260200190815260200160002060000160009054906101000a900463ffffffff16915091509250929050565b6000808686604051602001808381526020018273ffffffffffffffffffffffffffffffffffffffff1673ffffffffffffffffffffffffffffffffffffffff1660601b815260140192505050604051602081830303815290604052805190602001209050600073__Signatures____________________________63b3abdb0c838888886040518563ffffffff1660e01b8152600401808581526020018460ff1660ff16815260200183815260200182815260200194505050505060206040518083038186803b158015611f5c57600080fd5b505af4158015611f70573d6000803e3d6000fd5b505050506040513d6020811015611f8657600080fd5b810190808051906020019092919050505090506000611fa36142bc565b73ffffffffffffffffffffffffffffffffffffffff16637b2434cb836040518263ffffffff1660e01b8152600401808273ffffffffffffffffffffffffffffffffffffffff1673ffffffffffffffffffffffffffffffffffffffff16815260200191505060206040518083038186803b15801561201f57600080fd5b505afa158015612033573d6000803e3d6000fd5b505050506040513d602081101561204957600080fd5b810190808051906020019092919050505090506000600360008b815260200190815260200160002060010160008a73ffffffffffffffffffffffffffffffffffffffff1673ffffffffffffffffffffffffffffffffffffffff16815260200190815260200160002060020160008373ffffffffffffffffffffffffffffffffffffffff1673ffffffffffffffffffffffffffffffffffffffff16815260200190815260200160002090506001600281111561210057fe5b8160000160009054906101000a900460ff16600281111561211d57fe5b14612173576040517f08c379a000000000000000000000000000000000000000000000000000000000815260040180806020018281038252603b815260200180614fdf603b913960400191505060405180910390fd5b6121968160000160019054906101000a900463ffffffff1663ffffffff166143b7565b15612209576040517f08c379a00000000000000000000000000000000000000000000000000000000081526004018080602001828103825260158152602001807f4174746573746174696f6e2074696d6564206f7574000000000000000000000081525060200191505060405180910390fd5b8194505050505095945050505050565b60606003600084815260200190815260200160002060010160008373ffffffffffffffffffffffffffffffffffffffff1673ffffffffffffffffffffffffffffffffffffffff1681526020019081526020016000206001018054806020026020016040519081016040528092919081815260200182805480156122f157602002820191906000526020600020905b8160009054906101000a900473ffffffffffffffffffffffffffffffffffffffff1673ffffffffffffffffffffffffffffffffffffffff16815260200190600101908083116122a7575b5050505050905092915050565b6000600660008373ffffffffffffffffffffffffffffffffffffffff1673ffffffffffffffffffffffffffffffffffffffff168152602001908152602001600020549050919050565b61234f612479565b61235857600080fd5b600073ffffffffffffffffffffffffffffffffffffffff166000809054906101000a900473ffffffffffffffffffffffffffffffffffffffff1673ffffffffffffffffffffffffffffffffffffffff167f8be0079c531659141344cd1fd0a4f28419497f9722a3daafe3b4186f6b6457e060405160405180910390a360008060006101000a81548173ffffffffffffffffffffffffffffffffffffffff021916908373ffffffffffffffffffffffffffffffffffffffff160217905550565b600160009054906101000a900473ffffffffffffffffffffffffffffffffffffffff1681565b6000600880549050905090565b60055481565b60008060009054906101000a900473ffffffffffffffffffffffffffffffffffffffff16905090565b60008060009054906101000a900473ffffffffffffffffffffffffffffffffffffffff1673ffffffffffffffffffffffffffffffffffffffff163373ffffffffffffffffffffffffffffffffffffffff1614905090565b60608060608060008686905011612532576040517f08c379a00000000000000000000000000000000000000000000000000000000081526004018080602001828103825260288152602001806150456028913960400191505060405180910390fd5b60608061257f888880806020026020016040519081016040528093929190818152602001838360200280828437600081840152601f19601f820116905080830192505050505050506143ea565b8092508193505050606081516040519080825280602002602001820160405280156125b95781602001602082028038833980820191505090505b509050606082516040519080825280602002602001820160405280156125ee5781602001602082028038833980820191505090505b509050600080905060008090505b8b8b9050811015612995576060600360008e8e8581811061261957fe5b9050602002013581526020019081526020016000206000018054806020026020016040519081016040528092919081815260200182805480156126b157602002820191906000526020600020905b8160009054906101000a900473ffffffffffffffffffffffffffffffffffffffff1673ffffffffffffffffffffffffffffffffffffffff1681526020019060010190808311612667575b5050505050905060008090505b8783815181106126ca57fe5b6020026020010151811015612986576126e16142bc565b73ffffffffffffffffffffffffffffffffffffffff16631fd9afa583838151811061270857fe5b60200260200101516040518263ffffffff1660e01b8152600401808273ffffffffffffffffffffffffffffffffffffffff1673ffffffffffffffffffffffffffffffffffffffff16815260200191505060206040518083038186803b15801561277057600080fd5b505afa158015612784573d6000803e3d6000fd5b505050506040513d602081101561279a57600080fd5b81019080805190602001909291905050508785815181106127b757fe5b602002602001019073ffffffffffffffffffffffffffffffffffffffff16908173ffffffffffffffffffffffffffffffffffffffff1681525050600360008f8f8681811061280157fe5b905060200201358152602001908152602001600020600101600083838151811061282757fe5b602002602001015173ffffffffffffffffffffffffffffffffffffffff1673ffffffffffffffffffffffffffffffffffffffff16815260200190815260200160002060000160049054906101000a900463ffffffff1663ffffffff1686858151811061288f57fe5b602002602001019067ffffffffffffffff16908167ffffffffffffffff1681525050600360008f8f868181106128c157fe5b90506020020135815260200190815260200160002060010160008383815181106128e757fe5b602002602001015173ffffffffffffffffffffffffffffffffffffffff1673ffffffffffffffffffffffffffffffffffffffff16815260200190815260200160002060000160009054906101000a900463ffffffff1663ffffffff1685858151811061294f57fe5b602002602001019067ffffffffffffffff16908167ffffffffffffffff1681525050838060010194505080806001019150506126be565b505080806001019150506125fc565b50848484849850985098509850505050505092959194509250565b6000806129bb61378a565b905060008143816129c857fe5b04905060008243816129d657fe5b0614156129e4576001810390505b809250505090565b6129f4612479565b6129fd57600080fd5b60008111612a56576040517f08c379a0000000000000000000000000000000000000000000000000000000008152600401808060200182810382526030815260200180614f856030913960400191505060405180910390fd5b806004819055507f4fbe976a07a9260091c2d347f8780c4bc636392e34d5b249b367baf8a5c7ca69816040518082815260200191505060405180910390a150565b612a9f612479565b612aa857600080fd5b80600160006101000a81548173ffffffffffffffffffffffffffffffffffffffff021916908373ffffffffffffffffffffffffffffffffffffffff1602179055508073ffffffffffffffffffffffffffffffffffffffff167f27fe5f0c1c3b1ed427cc63d0f05759ffdecf9aec9e18d31ef366fc8a6cb5dc3b60405160405180910390a250565b60045481565b6000806000806003600088815260200190815260200160002060010160008773ffffffffffffffffffffffffffffffffffffffff1673ffffffffffffffffffffffffffffffffffffffff16815260200190815260200160002060020160008673ffffffffffffffffffffffffffffffffffffffff1673ffffffffffffffffffffffffffffffffffffffff16815260200190815260200160002090508060000160009054906101000a900460ff166002811115612bed57fe5b8160000160019054906101000a900463ffffffff168260000160059054906101000a900473ffffffffffffffffffffffffffffffffffffffff169350935093505093509350939050565b600060149054906101000a900460ff1615612c5157600080fd5b6001600060146101000a81548160ff021916908315150217905550612c753361452d565b612c7e87612a97565b612c87866129ec565b612c90856137b5565b600084849050118015612ca857508181905084849050145b612cfd576040517f08c379a000000000000000000000000000000000000000000000000000000000815260040180806020018281038252603581526020018061506d6035913960400191505060405180910390fd5b60008090505b84849050811015612d6d57612d52858583818110612d1d57fe5b9050602002013573ffffffffffffffffffffffffffffffffffffffff16848484818110612d4657fe5b90506020020135613cbd565b612d6660018261429d90919063ffffffff16565b9050612d03565b5050505050505050565b600060036000848152602001908152602001600020600001805490509050808210612e0a576040517f08c379a00000000000000000000000000000000000000000000000000000000081526004018080602001828103825260108152602001807f496e64657820697320696e76616c69640000000000000000000000000000000081525060200191505060405180910390fd5b600360008481526020019081526020016000206000018281548110612e2b57fe5b9060005260206000200160009054906101000a900473ffffffffffffffffffffffffffffffffffffffff1673ffffffffffffffffffffffffffffffffffffffff163373ffffffffffffffffffffffffffffffffffffffff1614612ef6576040517f08c379a000000000000000000000000000000000000000000000000000000000815260040180806020018281038252601f8152602001807f496e64657820646f6573206e6f74206d61746368206d73672e73656e6465720081525060200191505060405180910390fd5b6000612f0c60018361462590919063ffffffff16565b9050808314612fcb57600360008581526020019081526020016000206000018181548110612f3657fe5b9060005260206000200160009054906101000a900473ffffffffffffffffffffffffffffffffffffffff16600360008681526020019081526020016000206000018481548110612f8257fe5b9060005260206000200160006101000a81548173ffffffffffffffffffffffffffffffffffffffff021916908373ffffffffffffffffffffffffffffffffffffffff1602179055505b6000600360008681526020019081526020016000206000018281548110612fee57fe5b9060005260206000200160006101000a81548173ffffffffffffffffffffffffffffffffffffffff021916908373ffffffffffffffffffffffffffffffffffffffff1602179055506003600085815260200190815260200160002060000180548091906001900361305f9190614e3d565b5050505050565b60066020528060005260406000206000915090505481565b6001600260008282540192505081905550600060025490506000600660008473ffffffffffffffffffffffffffffffffffffffff1673ffffffffffffffffffffffffffffffffffffffff168152602001908152602001600020541161312e576040517f08c379a0000000000000000000000000000000000000000000000000000000008152600401808060200182810382526022815260200180614ed26022913960400191505060405180910390fd5b8173ffffffffffffffffffffffffffffffffffffffff166323b872dd333061319e87600660008973ffffffffffffffffffffffffffffffffffffffff1673ffffffffffffffffffffffffffffffffffffffff1681526020019081526020016000205461464590919063ffffffff16565b6040518463ffffffff1660e01b8152600401808473ffffffffffffffffffffffffffffffffffffffff1673ffffffffffffffffffffffffffffffffffffffff1681526020018373ffffffffffffffffffffffffffffffffffffffff1673ffffffffffffffffffffffffffffffffffffffff1681526020018281526020019350505050602060405180830381600087803b15801561323a57600080fd5b505af115801561324e573d6000803e3d6000fd5b505050506040513d602081101561326457600080fd5b81019080805190602001909291905050506132ca576040517f08c379a000000000000000000000000000000000000000000000000000000000815260040180806020018281038252602b81526020018061501a602b913960400191505060405180910390fd5b60008311613323576040517f08c379a000000000000000000000000000000000000000000000000000000000815260040180806020018281038252602a815260200180614fb5602a913960400191505060405180910390fd5b600060036000868152602001908152602001600020905060008160020160003373ffffffffffffffffffffffffffffffffffffffff1673ffffffffffffffffffffffffffffffffffffffff16815260200190815260200160002060000160009054906101000a900463ffffffff1663ffffffff16148061340257506134018160020160003373ffffffffffffffffffffffffffffffffffffffff1673ffffffffffffffffffffffffffffffffffffffff16815260200190815260200160002060000160009054906101000a900463ffffffff1663ffffffff166143b7565b5b8061346d575061346b8160020160003373ffffffffffffffffffffffffffffffffffffffff1673ffffffffffffffffffffffffffffffffffffffff16815260200190815260200160002060000160009054906101000a900463ffffffff1663ffffffff1661467f565b155b6134c2576040517f08c379a0000000000000000000000000000000000000000000000000000000008152600401808060200182810382526039815260200180614f246039913960400191505060405180910390fd5b6134cb43614724565b8160020160003373ffffffffffffffffffffffffffffffffffffffff1673ffffffffffffffffffffffffffffffffffffffff16815260200190815260200160002060000160006101000a81548163ffffffff021916908363ffffffff16021790555061353684614724565b8160020160003373ffffffffffffffffffffffffffffffffffffffff1673ffffffffffffffffffffffffffffffffffffffff16815260200190815260200160002060000160046101000a81548163ffffffff021916908363ffffffff160217905550828160020160003373ffffffffffffffffffffffffffffffffffffffff1673ffffffffffffffffffffffffffffffffffffffff16815260200190815260200160002060000160086101000a81548173ffffffffffffffffffffffffffffffffffffffff021916908373ffffffffffffffffffffffffffffffffffffffff16021790555061369061368b858360010160003373ffffffffffffffffffffffffffffffffffffffff1673ffffffffffffffffffffffffffffffffffffffff16815260200190815260200160002060000160009054906101000a900463ffffffff1663ffffffff1661429d90919063ffffffff16565b614724565b8160010160003373ffffffffffffffffffffffffffffffffffffffff1673ffffffffffffffffffffffffffffffffffffffff16815260200190815260200160002060000160006101000a81548163ffffffff021916908363ffffffff1602179055503373ffffffffffffffffffffffffffffffffffffffff16857f381545d9b1fffcb94ffbbd0bccfff9f1fb3acd474d34f7d59112a5c9973fee498686604051808381526020018273ffffffffffffffffffffffffffffffffffffffff1673ffffffffffffffffffffffffffffffffffffffff1681526020019250505060405180910390a350600254811461378457600080fd5b50505050565b60008060405160008060008360f86103e8fa60206000602084013e6020820151925050508091505090565b6137bd612479565b6137c657600080fd5b6000811161381f576040517f08c379a0000000000000000000000000000000000000000000000000000000008152600401808060200182810382526030815260200180614ef46030913960400191505060405180910390fd5b806005819055507f954fa47fa6f4e8017b99f93c73f4fbe599d786f9f5da73fe9086ab473fb455d8816040518082815260200191505060405180910390a150565b600060036000838152602001908152602001600020905060008160020160003373ffffffffffffffffffffffffffffffffffffffff1673ffffffffffffffffffffffffffffffffffffffff16815260200190815260200160002060000160009054906101000a900463ffffffff1663ffffffff161161392a576040517f08c379a00000000000000000000000000000000000000000000000000000000081526004018080602001828103825260378152602001806150c56037913960400191505060405180910390fd5b61398d8160020160003373ffffffffffffffffffffffffffffffffffffffff1673ffffffffffffffffffffffffffffffffffffffff16815260200190815260200160002060000160009054906101000a900463ffffffff1663ffffffff166143b7565b156139e3576040517f08c379a00000000000000000000000000000000000000000000000000000000081526004018080602001828103825260238152602001806150a26023913960400191505060405180910390fd5b6139ec8261478b565b8060020160003373ffffffffffffffffffffffffffffffffffffffff1673ffffffffffffffffffffffffffffffffffffffff168152602001908152602001600020600080820160006101000a81549063ffffffff02191690556000820160046101000a81549063ffffffff02191690556000820160086101000a81549073ffffffffffffffffffffffffffffffffffffffff021916905550505050565b60008060006003600086815260200190815260200160002060020160008573ffffffffffffffffffffffffffffffffffffffff1673ffffffffffffffffffffffffffffffffffffffff16815260200190815260200160002060000160009054906101000a900463ffffffff166003600087815260200190815260200160002060020160008673ffffffffffffffffffffffffffffffffffffffff1673ffffffffffffffffffffffffffffffffffffffff16815260200190815260200160002060000160049054906101000a900463ffffffff166003600088815260200190815260200160002060020160008773ffffffffffffffffffffffffffffffffffffffff1673ffffffffffffffffffffffffffffffffffffffff16815260200190815260200160002060000160089054906101000a900473ffffffffffffffffffffffffffffffffffffffff169250925092509250925092565b6007602052816000526040600020602052806000526040600020600091509150505481565b60008060008714158015613c1a575060008514155b613c2357600080fd5b6000806040513681016040528a81528960208201528860408201528760608201528660808201528560a082015260008060c48360fc61041afa3d604051818101604052816000823e8260008114613c84578151965060208201519550613c88565b8282fd5b50505050508181935093505050965096945050505050565b613ca8612479565b613cb157600080fd5b613cba8161452d565b50565b613cc5612479565b613cce57600080fd5b60008111613d27576040517f08c379a0000000000000000000000000000000000000000000000000000000008152600401808060200182810382526028815260200180614f5d6028913960400191505060405180910390fd5b80600660008473ffffffffffffffffffffffffffffffffffffffff1673ffffffffffffffffffffffffffffffffffffffff168152602001908152602001600020819055508173ffffffffffffffffffffffffffffffffffffffff167f7cf8b633f218e9f9bc2c06107bcaddcfee6b90580863768acdcfd4f05d7af394826040518082815260200191505060405180910390a25050565b6000613dcc8533868686611e8a565b905060006003600087815260200190815260200160002060010160003373ffffffffffffffffffffffffffffffffffffffff1673ffffffffffffffffffffffffffffffffffffffff16815260200190815260200160002060020160008373ffffffffffffffffffffffffffffffffffffffff1673ffffffffffffffffffffffffffffffffffffffff168152602001908152602001600020905060008160000160059054906101000a900473ffffffffffffffffffffffffffffffffffffffff169050613e9743614724565b8260000160016101000a81548163ffffffff021916908363ffffffff16021790555060028260000160006101000a81548160ff02191690836002811115613eda57fe5b02179055508160000160056101000a81549073ffffffffffffffffffffffffffffffffffffffff02191690556003600088815260200190815260200160002060010160003373ffffffffffffffffffffffffffffffffffffffff1673ffffffffffffffffffffffffffffffffffffffff168152602001908152602001600020600001600481819054906101000a900463ffffffff168092919060010191906101000a81548163ffffffff021916908363ffffffff16021790555050614063600660008373ffffffffffffffffffffffffffffffffffffffff1673ffffffffffffffffffffffffffffffffffffffff16815260200190815260200160002054600760008473ffffffffffffffffffffffffffffffffffffffff1673ffffffffffffffffffffffffffffffffffffffff16815260200190815260200160002060008673ffffffffffffffffffffffffffffffffffffffff1673ffffffffffffffffffffffffffffffffffffffff1681526020019081526020016000205461429d90919063ffffffff16565b600760008373ffffffffffffffffffffffffffffffffffffffff1673ffffffffffffffffffffffffffffffffffffffff16815260200190815260200160002060008573ffffffffffffffffffffffffffffffffffffffff1673ffffffffffffffffffffffffffffffffffffffff1681526020019081526020016000208190555060006003600089815260200190815260200160002090506001600360008a815260200190815260200160002060010160003373ffffffffffffffffffffffffffffffffffffffff1673ffffffffffffffffffffffffffffffffffffffff16815260200190815260200160002060000160049054906101000a900463ffffffff1663ffffffff1614156141d857806000013390806001815401808255809150509060018203906000526020600020016000909192909190916101000a81548173ffffffffffffffffffffffffffffffffffffffff021916908373ffffffffffffffffffffffffffffffffffffffff160217905550505b8373ffffffffffffffffffffffffffffffffffffffff163373ffffffffffffffffffffffffffffffffffffffff16897f414ff2c18c092697c4b8de49f515ac44f8bebc19b24553cf58ace913a6ac639d60405160405180910390a45050505050505050565b60006001600281111561424c57fe5b8260000160009054906101000a900460ff16600281111561426957fe5b14801561429657506142948260000160019054906101000a900463ffffffff1663ffffffff166143b7565b155b9050919050565b6000808284019050838110156142b257600080fd5b8091505092915050565b6000600160009054906101000a900473ffffffffffffffffffffffffffffffffffffffff1673ffffffffffffffffffffffffffffffffffffffff1663dcf0aaed60405160200180807f4163636f756e74730000000000000000000000000000000000000000000000008152506008019050604051602081830303815290604052805190602001206040518263ffffffff1660e01b81526004018082815260200191505060206040518083038186803b15801561437757600080fd5b505afa15801561438b573d6000803e3d6000fd5b505050506040513d60208110156143a157600080fd5b8101908080519060200190929190505050905090565b60006143e0600454836fffffffffffffffffffffffffffffffff1661429d90919063ffffffff16565b4310159050919050565b6060806000835111614447576040517f08c379a00000000000000000000000000000000000000000000000000000000081526004018080602001828103825260288152602001806150456028913960400191505060405180910390fd5b60008090506060845160405190808252806020026020018201604052801561447e5781602001602082028038833980820191505090505b50905060008090505b85518110156144ed576000600360008884815181106144a257fe5b602002602001015181526020019081526020016000206000018054905090508084019350808383815181106144d357fe5b602002602001018181525050508080600101915050614487565b50808260405190808252806020026020018201604052801561451e5781602001602082028038833980820191505090505b50809050935093505050915091565b600073ffffffffffffffffffffffffffffffffffffffff168173ffffffffffffffffffffffffffffffffffffffff16141561456757600080fd5b8073ffffffffffffffffffffffffffffffffffffffff166000809054906101000a900473ffffffffffffffffffffffffffffffffffffffff1673ffffffffffffffffffffffffffffffffffffffff167f8be0079c531659141344cd1fd0a4f28419497f9722a3daafe3b4186f6b6457e060405160405180910390a3806000806101000a81548173ffffffffffffffffffffffffffffffffffffffff021916908373ffffffffffffffffffffffffffffffffffffffff16021790555050565b60008282111561463457600080fd5b600082840390508091505092915050565b6000808314156146585760009050614679565b600082840290508284828161466957fe5b041461467457600080fd5b809150505b92915050565b600061471b61468c614cb8565b73ffffffffffffffffffffffffffffffffffffffff1663e45def956040518163ffffffff1660e01b815260040160206040518083038186803b1580156146d157600080fd5b505afa1580156146e5573d6000803e3d6000fd5b505050506040513d60208110156146fb57600080fd5b81019080805190602001909291905050508361429d90919063ffffffff16565b43109050919050565b60006401000000008210614783576040517f08c379a00000000000000000000000000000000000000000000000000000000081526004018080602001828103825260268152602001806150fc6026913960400191505060405180910390fd5b819050919050565b60006003600083815260200190815260200160002060010160003373ffffffffffffffffffffffffffffffffffffffff1673ffffffffffffffffffffffffffffffffffffffff168152602001908152602001600020905060006003600084815260200190815260200160002060020160003373ffffffffffffffffffffffffffffffffffffffff1673ffffffffffffffffffffffffffffffffffffffff16815260200190815260200160002090506000614843614cb8565b73ffffffffffffffffffffffffffffffffffffffff1663fc48472661488d6005548560000160009054906101000a900463ffffffff1663ffffffff1661429d90919063ffffffff16565b6040518263ffffffff1660e01b81526004018082815260200191505060206040518083038186803b1580156148c157600080fd5b505afa1580156148d5573d6000803e3d6000fd5b505050506040513d60208110156148eb57600080fd5b81019080805190602001909291905050509050600061490861243d565b905060008090506000805b8560000160049054906101000a900463ffffffff1663ffffffff16831015614cae578460405160200180828152602001915050604051602081830303815290604052805190602001209450614973848660001c8161496d57fe5b0661134c565b915061497d6142bc565b73ffffffffffffffffffffffffffffffffffffffff166364439b43836040518263ffffffff1660e01b8152600401808273ffffffffffffffffffffffffffffffffffffffff1673ffffffffffffffffffffffffffffffffffffffff16815260200191505060206040518083038186803b1580156149f957600080fd5b505afa158015614a0d573d6000803e3d6000fd5b505050506040513d6020811015614a2357600080fd5b8101908080519060200190929190505050905060008760020160008373ffffffffffffffffffffffffffffffffffffffff1673ffffffffffffffffffffffffffffffffffffffff168152602001908152602001600020905060006002811115614a8857fe5b8160000160009054906101000a900460ff166002811115614aa557fe5b14614ab05750614913565b614ac460018561429d90919063ffffffff16565b935060018160000160006101000a81548160ff02191690836002811115614ae757fe5b02179055508660000160009054906101000a900463ffffffff168160000160016101000a81548163ffffffff021916908363ffffffff1602179055508660000160089054906101000a900473ffffffffffffffffffffffffffffffffffffffff168160000160056101000a81548173ffffffffffffffffffffffffffffffffffffffff021916908373ffffffffffffffffffffffffffffffffffffffff160217905550876001018290806001815401808255809150509060018203906000526020600020016000909192909190916101000a81548173ffffffffffffffffffffffffffffffffffffffff021916908373ffffffffffffffffffffffffffffffffffffffff160217905550508173ffffffffffffffffffffffffffffffffffffffff163373ffffffffffffffffffffffffffffffffffffffff168a7faf7f470b643316cf44c1f2898328a075e7602945b4f8584f48ba4ad2d8a2ea9d8a60000160089054906101000a900473ffffffffffffffffffffffffffffffffffffffff16604051808273ffffffffffffffffffffffffffffffffffffffff1673ffffffffffffffffffffffffffffffffffffffff16815260200191505060405180910390a450614913565b5050505050505050565b6000600160009054906101000a900473ffffffffffffffffffffffffffffffffffffffff1673ffffffffffffffffffffffffffffffffffffffff1663dcf0aaed60405160200180807f52616e646f6d00000000000000000000000000000000000000000000000000008152506006019050604051602081830303815290604052805190602001206040518263ffffffff1660e01b81526004018082815260200191505060206040518083038186803b158015614d7357600080fd5b505afa158015614d87573d6000803e3d6000fd5b505050506040513d6020811015614d9d57600080fd5b8101908080519060200190929190505050905090565b828054828255906000526020600020908101928215614e2c579160200282015b82811115614e2b5782518260006101000a81548173ffffffffffffffffffffffffffffffffffffffff021916908373ffffffffffffffffffffffffffffffffffffffff16021790555091602001919060010190614dd3565b5b509050614e399190614e69565b5090565b815481835581811115614e6457818360005260206000209182019101614e639190614eac565b5b505050565b614ea991905b80821115614ea557600081816101000a81549073ffffffffffffffffffffffffffffffffffffffff021916905550600101614e6f565b5090565b90565b614ece91905b80821115614eca576000816000905550600101614eb2565b5090565b9056fe496e76616c6964206174746573746174696f6e52657175657374466565546f6b656e73656c6563744973737565727357616974426c6f636b732068617320746f2062652067726561746572207468616e203054686572652065786973747320616e20756e657870697265642c20756e73656c6563746564206174746573746174696f6e2072657175657374596f75206861766520746f20737065636966792061206665652067726561746572207468616e20306174746573746174696f6e457870697279426c6f636b732068617320746f2062652067726561746572207468616e2030596f75206861766520746f2072657175657374206174206c656173742031206174746573746174696f6e4174746573746174696f6e20636f646520646f6573206e6f74206d6174636820616e79206f75747374616e64696e67206174746573746174696f6e5472616e73666572206f66206174746573746174696f6e20726571756573742066656573206661696c6564596f75206861766520746f2070617373206174206c65617374206f6e65206964656e7469666965726174746573746174696f6e52657175657374466565546f6b656e732073706563696669636174696f6e2077617320696e76616c6964546865206174746573746174696f6e20726571756573742068617320657870697265644e6f20756e73656c6563746564206174746573746174696f6e207265717565737420746f2073656c656374206973737565727320666f7253616665436173743a2076616c756520646f65736e27742066697420696e2033322062697473a165627a7a72305820f236f3e56b483b753947a6aa68554b2077cc264a5e7077c6965d9ca544b529ab0029",
  "source": "pragma solidity ^0.5.3;\n\nimport \"../Attestations.sol\";\n\n/*\n * We need a test contract that behaves like the actual Attestations contract,\n * but mocks the implementations of the validator set getters. Otherwise we\n * couldn't test `request` with the current ganache local testnet.\n */\ncontract TestAttestations is Attestations {\n  address[] private __testValidators;\n\n  function __setValidators(address[] memory validators) public {\n    __testValidators = validators;\n  }\n\n  function numberValidatorsInCurrentSet() public view returns (uint256) {\n    return __testValidators.length;\n  }\n\n  function validatorAddressFromCurrentSet(uint256 index) public view returns (address) {\n    return __testValidators[index];\n  }\n}\n",
  "sourcePath": "/Users/cmcewen/celo/celo-monorepo/packages/protocol/contracts/identity/test/TestAttestations.sol",
  "compiler": {
    "name": "solc",
    "version": "0.5.8+commit.23d335f2.Emscripten.clang"
  },
  "schemaVersion": "3.0.10",
  "updatedAt": "2019-12-06T00:02:50.207Z",
  "devdoc": {
    "methods": {
      "batchGetAttestationStats(bytes32[])": {
        "params": {
          "identifiersToLookup": "Array of n identifiers."
        },
        "return": "[0] Array of number of matching accounts per identifier.[1] Array of sum([0]) matching walletAddresses.[2] Array of sum([0]) numbers indicating the completions for each account.[3] Array of sum([0]) numbers indicating the total number of requested attestations for each account."
      },
      "checkProofOfPossession(address,bytes,bytes)": {
        "params": {
          "blsKey": "The BLS public key that the validator is using for consensus, should pass proof  of possession. 48 bytes.",
          "blsPop": "The BLS public key proof-of-possession, which consists of a signature on the  account address. 96 bytes.",
          "sender": "The address signed by the BLS key to generate the proof of possession."
        },
        "return": "True upon success."
      },
      "complete(bytes32,uint8,bytes32,bytes32)": {
        "details": "Throws if there is no matching outstanding attestation request.Throws if the attestation window has passed.",
        "params": {
          "identifier": "The hash of the identifier for this attestation.",
          "r": "Output value r of the ECDSA signature.",
          "s": "Output value s of the ECDSA signature.",
          "v": "The recovery id of the incoming ECDSA signature."
        }
      },
      "fractionMulExp(uint256,uint256,uint256,uint256,uint256,uint256)": {
        "params": {
          "_decimals": "precision",
          "aDenominator": "Denominator of first fraction",
          "aNumerator": "Numerator of first fraction",
          "bDenominator": "Denominator of exponentiated fraction",
          "bNumerator": "Numerator of exponentiated fraction",
          "exponent": "exponent to raise b to"
        },
        "return": "numerator/denominator of the computed quantity (not reduced)."
      },
      "getAttestationIssuers(bytes32,address)": {
        "params": {
          "account": "Address of the account.",
          "identifier": "Hash of the identifier."
        },
        "return": "Addresses of the selected attestation issuers."
      },
      "getAttestationRequestFee(address)": {
        "params": {
          "token": "Address of the attestationRequestFeeToken."
        },
        "return": "The fee."
      },
      "getAttestationState(bytes32,address,address)": {
        "params": {
          "account": "Address of the account.",
          "identifier": "Hash of the identifier.",
          "issuer": "Address of the issuer."
        },
        "return": "[          Status of the attestation,          Block number of request/completion the attestation,          Address of the token with which this attestation request was paid for        ]"
      },
      "getAttestationStats(bytes32,address)": {
        "params": {
          "account": "Address of the account.",
          "identifier": "Hash of the identifier."
        },
        "return": "[Number of completed attestations, Number of total requested attestations]"
      },
      "getCompletableAttestations(bytes32,address)": {
        "params": {
          "account": "Address of the account.",
          "identifier": "Hash of the identifier."
        },
        "return": "( blockNumbers[] - Block number of request/completion the attestation,          issuers[] - Address of the issuer,          stringLengths[] - The length of each metadataURL string for each issuer,          stringData - All strings concatenated        )"
      },
      "getEpochSize()": {
        "return": "The current epoch size in blocks."
      },
      "getUnselectedRequest(bytes32,address)": {
        "params": {
          "account": "Address of the account.",
          "identifier": "Hash of the identifier."
        },
        "return": "[          Block number at which was requested,          Number of unselected requests,          Address of the token with which this attestation request was paid for        ]"
      },
      "isOwner()": {
        "return": "true if `msg.sender` is the owner of the contract."
      },
      "owner()": {
        "return": "the address of the owner."
      },
      "renounceOwnership()": {
        "details": "Allows the current owner to relinquish control of the contract. It will not be possible to call the functions with the `onlyOwner` modifier anymore."
      },
      "request(bytes32,uint256,address)": {
        "params": {
          "attestationRequestFeeToken": "The address of the token with which the attestation fee will be paid.",
          "attestationsRequested": "The number of requested attestations for this request.",
          "identifier": "The hash of the identifier to be attested."
        }
      },
      "revoke(bytes32,uint256)": {
        "params": {
          "identifier": "The identifier for which to revoke.",
          "index": "The index of the account in the accounts array."
        }
      },
      "selectIssuers(bytes32)": {
        "params": {
          "identifier": "The hash of the identifier to be attested."
        }
      },
      "setAttestationExpiryBlocks(uint256)": {
        "params": {
          "_attestationExpiryBlocks": "The new limit on blocks allowed to come between requesting an attestation and completing it."
        }
      },
      "setAttestationRequestFee(address,uint256)": {
        "params": {
          "fee": "The fee in 'token' that is required for each attestation.",
          "token": "The address of the attestationRequestFeeToken."
        }
      },
      "setRegistry(address)": {
        "params": {
          "registryAddress": "The address of a registry contract for routing to other contracts."
        }
      },
      "setSelectIssuersWaitBlocks(uint256)": {
        "params": {
          "_selectIssuersWaitBlocks": "The wait period in blocks to call selectIssuers on attestation                                requests."
        }
      },
      "transferOwnership(address)": {
        "details": "Allows the current owner to transfer control of the contract to a newOwner.",
        "params": {
          "newOwner": "The address to transfer ownership to."
        }
      },
      "validateAttestationCode(bytes32,address,uint8,bytes32,bytes32)": {
        "details": "Throws if there is no matching outstanding attestation request.Throws if the attestation window has passed.",
        "params": {
          "identifier": "The hash of the identifier to be attested.",
          "r": "Output value r of the ECDSA signature.",
          "s": "Output value s of the ECDSA signature.",
          "v": "The recovery id of the incoming ECDSA signature."
        },
        "return": "The issuer of the corresponding attestation."
      },
      "withdraw(address)": {
        "details": "Throws if msg.sender does not have any rewards to withdraw.",
        "params": {
          "token": "The address of the token that will be withdrawn."
        }
      }
    }
  },
  "userdoc": {
    "methods": {
      "batchGetAttestationStats(bytes32[])": {
        "notice": "Batch lookup function to determine attestation stats for a list of identifiers."
      },
      "checkProofOfPossession(address,bytes,bytes)": {
        "notice": "Checks a BLS proof of possession."
      },
      "complete(bytes32,uint8,bytes32,bytes32)": {
        "notice": "Submit the secret message sent by the issuer to complete the attestation request."
      },
      "fractionMulExp(uint256,uint256,uint256,uint256,uint256,uint256)": {
        "notice": "calculate a * b^x for fractions a, b to `decimals` precision"
      },
      "getAttestationIssuers(bytes32,address)": {
        "notice": "Returns selected attestation issuers for a identifier/account pair."
      },
      "getAttestationRequestFee(address)": {
        "notice": "Returns the fee set for a particular token."
      },
      "getAttestationState(bytes32,address,address)": {
        "notice": "Returns the state of a specific attestation."
      },
      "getAttestationStats(bytes32,address)": {
        "notice": "Returns attestation stats for a identifier/account pair."
      },
      "getCompletableAttestations(bytes32,address)": {
        "notice": "Returns the state of all attestations that are completable"
      },
      "getEpochSize()": {
        "notice": "Returns the current epoch size in blocks."
      },
      "getUnselectedRequest(bytes32,address)": {
        "notice": "Returns the unselected attestation request for an identifier/account pair, if any."
      },
      "renounceOwnership()": {
        "notice": "Renouncing ownership will leave the contract without an owner, thereby removing any functionality that is only available to the owner."
      },
      "request(bytes32,uint256,address)": {
        "notice": "Commit to the attestation request of a hashed identifier."
      },
      "revoke(bytes32,uint256)": {
        "notice": "Revokes an account for an identifier."
      },
      "selectIssuers(bytes32)": {
        "notice": "Selects the issuers for the most recent attestation request."
      },
      "setAttestationExpiryBlocks(uint256)": {
        "notice": "Updates 'attestationExpiryBlocks'."
      },
      "setAttestationRequestFee(address,uint256)": {
        "notice": "Updates the fee  for a particular token."
      },
      "setRegistry(address)": {
        "notice": "Updates the address pointing to a Registry contract."
      },
      "setSelectIssuersWaitBlocks(uint256)": {
        "notice": "Updates 'selectIssuersWaitBlocks'."
      },
      "validateAttestationCode(bytes32,address,uint8,bytes32,bytes32)": {
        "notice": "Validates the given attestation code."
      },
      "withdraw(address)": {
        "notice": "Allows issuers to withdraw accumulated attestation rewards."
      }
    }
  }
}