{
  "contractName": "TestRandom",
  "abi": [
    {
      "constant": true,
      "inputs": [],
      "name": "initialized",
      "outputs": [
        {
          "name": "",
          "type": "bool"
        }
      ],
      "payable": false,
      "stateMutability": "view",
      "type": "function"
    },
    {
      "constant": true,
      "inputs": [],
      "name": "random",
      "outputs": [
        {
          "name": "",
          "type": "bytes32"
        }
      ],
      "payable": false,
      "stateMutability": "view",
      "type": "function"
    },
    {
      "constant": false,
      "inputs": [],
      "name": "renounceOwnership",
      "outputs": [],
      "payable": false,
      "stateMutability": "nonpayable",
      "type": "function"
    },
    {
      "constant": false,
      "inputs": [
        {
          "name": "randomness",
          "type": "bytes32"
        },
        {
          "name": "newCommitment",
          "type": "bytes32"
        },
        {
          "name": "proposer",
          "type": "address"
        }
      ],
      "name": "revealAndCommit",
      "outputs": [],
      "payable": false,
      "stateMutability": "nonpayable",
      "type": "function"
    },
    {
      "constant": true,
      "inputs": [],
      "name": "owner",
      "outputs": [
        {
          "name": "",
          "type": "address"
        }
      ],
      "payable": false,
      "stateMutability": "view",
      "type": "function"
    },
    {
      "constant": true,
      "inputs": [],
      "name": "isOwner",
      "outputs": [
        {
          "name": "",
          "type": "bool"
        }
      ],
      "payable": false,
      "stateMutability": "view",
      "type": "function"
    },
    {
      "constant": false,
      "inputs": [
        {
          "name": "value",
          "type": "uint256"
        }
      ],
      "name": "setRandomnessBlockRetentionWindow",
      "outputs": [],
      "payable": false,
      "stateMutability": "nonpayable",
      "type": "function"
    },
    {
      "constant": true,
      "inputs": [
        {
          "name": "randomness",
          "type": "bytes32"
        }
      ],
      "name": "computeCommitment",
      "outputs": [
        {
          "name": "",
          "type": "bytes32"
        }
      ],
      "payable": false,
      "stateMutability": "pure",
      "type": "function"
    },
    {
      "constant": true,
      "inputs": [],
      "name": "randomnessBlockRetentionWindow",
      "outputs": [
        {
          "name": "",
          "type": "uint256"
        }
      ],
      "payable": false,
      "stateMutability": "view",
      "type": "function"
    },
    {
      "constant": true,
      "inputs": [
        {
          "name": "",
          "type": "address"
        }
      ],
      "name": "commitments",
      "outputs": [
        {
          "name": "",
          "type": "bytes32"
        }
      ],
      "payable": false,
      "stateMutability": "view",
      "type": "function"
    },
    {
      "constant": false,
      "inputs": [
        {
          "name": "newOwner",
          "type": "address"
        }
      ],
      "name": "transferOwnership",
      "outputs": [],
      "payable": false,
      "stateMutability": "nonpayable",
      "type": "function"
    },
    {
      "constant": true,
      "inputs": [
        {
          "name": "blockNumber",
          "type": "uint256"
        }
      ],
      "name": "getBlockRandomness",
      "outputs": [
        {
          "name": "",
          "type": "bytes32"
        }
      ],
      "payable": false,
      "stateMutability": "view",
      "type": "function"
    },
    {
      "constant": false,
      "inputs": [
        {
          "name": "_randomnessBlockRetentionWindow",
          "type": "uint256"
        }
      ],
      "name": "initialize",
      "outputs": [],
      "payable": false,
      "stateMutability": "nonpayable",
      "type": "function"
    },
    {
      "anonymous": false,
      "inputs": [
        {
          "indexed": false,
          "name": "value",
          "type": "uint256"
        }
      ],
      "name": "RandomnessBlockRetentionWindowSet",
      "type": "event"
    },
    {
      "anonymous": false,
      "inputs": [
        {
          "indexed": true,
          "name": "previousOwner",
          "type": "address"
        },
        {
          "indexed": true,
          "name": "newOwner",
          "type": "address"
        }
      ],
      "name": "OwnershipTransferred",
      "type": "event"
    },
    {
      "constant": false,
      "inputs": [
        {
          "name": "blockNumber",
          "type": "uint256"
        },
        {
          "name": "randomness",
          "type": "bytes32"
        }
      ],
      "name": "addTestRandomness",
      "outputs": [],
      "payable": false,
      "stateMutability": "nonpayable",
      "type": "function"
    },
    {
      "constant": true,
      "inputs": [
        {
          "name": "blockNumber",
          "type": "uint256"
        },
        {
          "name": "cur",
          "type": "uint256"
        }
      ],
      "name": "getTestRandomness",
      "outputs": [
        {
          "name": "",
          "type": "bytes32"
        }
      ],
      "payable": false,
      "stateMutability": "view",
      "type": "function"
    }
  ],
  "bytecode": "0x6080604052610100600255336000806101000a81548173ffffffffffffffffffffffffffffffffffffffff021916908373ffffffffffffffffffffffffffffffffffffffff1602179055506000809054906101000a900473ffffffffffffffffffffffffffffffffffffffff1673ffffffffffffffffffffffffffffffffffffffff16600073ffffffffffffffffffffffffffffffffffffffff167f8be0079c531659141344cd1fd0a4f28419497f9722a3daafe3b4186f6b6457e060405160405180910390a3610ebe806100d56000396000f3fe608060405234801561001057600080fd5b50600436106100f55760003560e01c806392e5d98f11610097578063e8fcf72311610066578063e8fcf7231461031a578063f2fde38b14610372578063fc484726146103b6578063fe4b84df146103f8576100f5565b806392e5d98f14610240578063c387742b1461026e578063e45def95146102b0578063e6266425146102ce576100f5565b806375832efc116100d357806375832efc1461014457806387ca71661461019c5780638da5cb5b146101d45780638f32d59b1461021e576100f5565b8063158ef93e146100fa5780635ec01e4d1461011c578063715018a61461013a575b600080fd5b610102610426565b604051808215151515815260200191505060405180910390f35b610124610439565b6040518082815260200191505060405180910390f35b61014261044a565b005b61019a6004803603606081101561015a57600080fd5b810190808035906020019092919080359060200190929190803573ffffffffffffffffffffffffffffffffffffffff16906020019092919050505061051a565b005b6101d2600480360360408110156101b257600080fd5b8101908080359060200190929190803590602001909291905050506105cc565b005b6101dc6105da565b604051808273ffffffffffffffffffffffffffffffffffffffff1673ffffffffffffffffffffffffffffffffffffffff16815260200191505060405180910390f35b610226610603565b604051808215151515815260200191505060405180910390f35b61026c6004803603602081101561025657600080fd5b810190808035906020019092919050505061065a565b005b61029a6004803603602081101561028457600080fd5b8101908080359060200190929190505050610705565b6040518082815260200191505060405180910390f35b6102b8610735565b6040518082815260200191505060405180910390f35b610304600480360360408110156102e457600080fd5b81019080803590602001909291908035906020019092919050505061073b565b6040518082815260200191505060405180910390f35b61035c6004803603602081101561033057600080fd5b81019080803573ffffffffffffffffffffffffffffffffffffffff16906020019092919050505061074f565b6040518082815260200191505060405180910390f35b6103b46004803603602081101561038857600080fd5b81019080803573ffffffffffffffffffffffffffffffffffffffff169060200190929190505050610767565b005b6103e2600480360360208110156103cc57600080fd5b8101908080359060200190929190505050610784565b6040518082815260200191505060405180910390f35b6104246004803603602081101561040e57600080fd5b8101908080359060200190929190505050610797565b005b600060149054906101000a900460ff1681565b600061044543436107e1565b905090565b610452610603565b61045b57600080fd5b600073ffffffffffffffffffffffffffffffffffffffff166000809054906101000a900473ffffffffffffffffffffffffffffffffffffffff1673ffffffffffffffffffffffffffffffffffffffff167f8be0079c531659141344cd1fd0a4f28419497f9722a3daafe3b4186f6b6457e060405160405180910390a360008060006101000a81548173ffffffffffffffffffffffffffffffffffffffff021916908373ffffffffffffffffffffffffffffffffffffffff160217905550565b600073ffffffffffffffffffffffffffffffffffffffff163373ffffffffffffffffffffffffffffffffffffffff16146105bc576040517f08c379a00000000000000000000000000000000000000000000000000000000081526004018080602001828103825260108152602001807f6f6e6c7920564d2063616e2063616c6c0000000000000000000000000000000081525060200191505060405180910390fd5b6105c78383836108f0565b505050565b6105d68282610b57565b5050565b60008060009054906101000a900473ffffffffffffffffffffffffffffffffffffffff16905090565b60008060009054906101000a900473ffffffffffffffffffffffffffffffffffffffff1673ffffffffffffffffffffffffffffffffffffffff163373ffffffffffffffffffffffffffffffffffffffff1614905090565b610662610603565b61066b57600080fd5b600081116106c4576040517f08c379a000000000000000000000000000000000000000000000000000000000815260040180806020018281038252602c815260200180610da2602c913960400191505060405180910390fd5b806002819055507f337b24e614d34558109f3dee80fbcb3c5a4b08a6611bee45581772f64d1681e5816040518082815260200191505060405180910390a150565b60008160405160200180828152602001915050604051602081830303815290604052805190602001209050919050565b60025481565b600061074783836107e1565b905092915050565b60016020528060005260406000206000915090505481565b61076f610603565b61077857600080fd5b61078181610c4d565b50565b600061079082436107e1565b9050919050565b600060149054906101000a900460ff16156107b157600080fd5b6001600060146101000a81548160ff0219169083151502179055506107d533610c4d565b6107de8161065a565b50565b60008183111561083c576040517f08c379a0000000000000000000000000000000000000000000000000000000008152600401808060200182810382526028815260200180610dfb6028913960400191505060405180910390fd5b61085160055483610d4590919063ffffffff16565b8311801561087f57508160025410158061087e575061087b60025483610d4590919063ffffffff16565b83115b5b6108d4576040517f08c379a0000000000000000000000000000000000000000000000000000000008152600401808060200182810382526035815260200180610e5e6035913960400191505060405180910390fd5b6003600084815260200190815260200160002054905092915050565b6000801b600160008373ffffffffffffffffffffffffffffffffffffffff1673ffffffffffffffffffffffffffffffffffffffff1681526020019081526020016000205414610a3f576000801b831415610995576040517f08c379a000000000000000000000000000000000000000000000000000000000815260040180806020018281038252603b815260200180610e23603b913960400191505060405180910390fd5b60006109a084610705565b9050600160008373ffffffffffffffffffffffffffffffffffffffff1673ffffffffffffffffffffffffffffffffffffffff168152602001908152602001600020548114610a39576040517f08c379a000000000000000000000000000000000000000000000000000000000815260040180806020018281038252602d815260200180610dce602d913960400191505060405180910390fd5b50610a9b565b6000801b8314610a9a576040517f08c379a000000000000000000000000000000000000000000000000000000000815260040180806020018281038252603c815260200180610d66603c913960400191505060405180910390fd5b5b6000804314610abd57610ab8600143610d4590919063ffffffff16565b610ac0565b60005b9050610b0d43600360008481526020019081526020016000205486604051602001808381526020018281526020019250505060405160208183030381529060405280519060200120610b57565b82600160008473ffffffffffffffffffffffffffffffffffffffff1673ffffffffffffffffffffffffffffffffffffffff1681526020019081526020016000208190555050505050565b80600360008481526020019081526020016000208190555060006005541415610b8e57436004819055506001600581905550610c49565b6002546005541115610bf8576003600060045481526020019081526020016000206000905560036000600160045401815260200190815260200160002060009055600260046000828254019250508190555060056000815480929190600190039190505550610c48565b6002546005541415610c345760036000600454815260200190815260200160002060009055600460008154809291906001019190505550610c47565b6005600081548092919060010191905055505b5b5b5050565b600073ffffffffffffffffffffffffffffffffffffffff168173ffffffffffffffffffffffffffffffffffffffff161415610c8757600080fd5b8073ffffffffffffffffffffffffffffffffffffffff166000809054906101000a900473ffffffffffffffffffffffffffffffffffffffff1673ffffffffffffffffffffffffffffffffffffffff167f8be0079c531659141344cd1fd0a4f28419497f9722a3daafe3b4186f6b6457e060405160405180910390a3806000806101000a81548173ffffffffffffffffffffffffffffffffffffffff021916908373ffffffffffffffffffffffffffffffffffffffff16021790555050565b600082821115610d5457600080fd5b60008284039050809150509291505056fe72616e646f6d6e6573732073686f756c64206265207a65726f206966207468657265206973206e6f2070726576696f757320636f6d6d69746d656e7472616e646f6d6e657373426c6f636b5265746574696f6e57696e646f772063616e6e6f74206265207a65726f636f6d6d69746d656e74206469646e2774206d617463682074686520706f737465642072616e646f6d6e65737343616e6e6f742071756572792072616e646f6d6e657373206f662066757475726520626c6f636b7372616e646f6d6e6573732063616e6e6f74206265207a65726f20696620746865726520697320612070726576696f757320636f6d6d69746d656e7443616e6e6f742071756572792072616e646f6d6e657373206f6c646572207468616e207468652073746f72656420686973746f7279a165627a7a72305820f3576328ff4dffab47a96a8ac0b738d7e17948c52539cd8658e229bb0dc88ad80029",
  "source": "pragma solidity ^0.5.3;\n\nimport \"../Random.sol\";\n\ncontract TestRandom is Random {\n  function addTestRandomness(uint256 blockNumber, bytes32 randomness) external {\n    addRandomness(blockNumber, randomness);\n  }\n  function getTestRandomness(uint256 blockNumber, uint256 cur) external view returns (bytes32) {\n    return _getBlockRandomness(blockNumber, cur);\n  }\n}\n",
  "sourcePath": "/Users/cmcewen/celo/celo-monorepo/packages/protocol/contracts/identity/test/TestRandom.sol",
  "compiler": {
    "name": "solc",
    "version": "0.5.8+commit.23d335f2.Emscripten.clang"
  },
  "schemaVersion": "3.0.10",
  "updatedAt": "2019-12-06T00:01:36.126Z",
  "devdoc": {
    "methods": {
      "computeCommitment(bytes32)": {
        "params": {
          "randomness": "The value for which the commitment hash is computed."
        },
        "return": "Commitment parameter."
      },
      "getBlockRandomness(uint256)": {
        "params": {
          "blockNumber": "The number of block whose randomness value we want to know."
        },
        "return": "The associated randomness value."
      },
      "initialize(uint256)": {
        "params": {
          "_randomnessBlockRetentionWindow": "Number of old random blocks whose randomness values can be queried."
        }
      },
      "isOwner()": {
        "return": "true if `msg.sender` is the owner of the contract."
      },
      "owner()": {
        "return": "the address of the owner."
      },
      "random()": {
        "return": "Returns the current randomness value."
      },
      "renounceOwnership()": {
        "details": "Allows the current owner to relinquish control of the contract. It will not be possible to call the functions with the `onlyOwner` modifier anymore."
      },
      "revealAndCommit(bytes32,bytes32,address)": {
        "details": "If the Random contract is pointed to by the Registry, the first transaction in a block should be a special transaction to address 0x0 with 64 bytes of data - the concatenated `randomness` and `newCommitment`. Before running regular transactions, this function should be called.",
        "params": {
          "newCommitment": "The hash of randomness that will be revealed in the future.",
          "proposer": "Address of the block proposer.",
          "randomness": "Bytes that will be added to the entropy pool."
        }
      },
      "setRandomnessBlockRetentionWindow(uint256)": {
        "params": {
          "value": "Number of old random blocks whose randomness values can be queried."
        }
      },
      "transferOwnership(address)": {
        "details": "Allows the current owner to transfer control of the contract to a newOwner.",
        "params": {
          "newOwner": "The address to transfer ownership to."
        }
      }
    }
  },
  "userdoc": {
    "methods": {
      "computeCommitment(bytes32)": {
        "notice": "Compute the commitment hash for a given randomness value."
      },
      "getBlockRandomness(uint256)": {
        "notice": "Get randomness values of previous blocks."
      },
      "initialize(uint256)": {
        "notice": "Initializes the contract with initial parameters."
      },
      "random()": {
        "notice": "Querying the current randomness value."
      },
      "renounceOwnership()": {
        "notice": "Renouncing ownership will leave the contract without an owner, thereby removing any functionality that is only available to the owner."
      },
      "revealAndCommit(bytes32,bytes32,address)": {
        "notice": "Implements step of the randomness protocol."
      },
      "setRandomnessBlockRetentionWindow(uint256)": {
        "notice": "Sets the number of old random blocks whose randomness values can be queried."
      }
    }
  }
}