{
  "contractName": "UsingPrecompiles",
  "abi": [
    {
      "constant": true,
      "inputs": [
        {
          "name": "aNumerator",
          "type": "uint256"
        },
        {
          "name": "aDenominator",
          "type": "uint256"
        },
        {
          "name": "bNumerator",
          "type": "uint256"
        },
        {
          "name": "bDenominator",
          "type": "uint256"
        },
        {
          "name": "exponent",
          "type": "uint256"
        },
        {
          "name": "_decimals",
          "type": "uint256"
        }
      ],
      "name": "fractionMulExp",
      "outputs": [
        {
          "name": "",
          "type": "uint256"
        },
        {
          "name": "",
          "type": "uint256"
        }
      ],
      "payable": false,
      "stateMutability": "view",
      "type": "function"
    },
    {
      "constant": true,
      "inputs": [],
      "name": "getEpochSize",
      "outputs": [
        {
          "name": "",
          "type": "uint256"
        }
      ],
      "payable": false,
      "stateMutability": "view",
      "type": "function"
    },
    {
      "constant": true,
      "inputs": [],
      "name": "getEpochNumber",
      "outputs": [
        {
          "name": "",
          "type": "uint256"
        }
      ],
      "payable": false,
      "stateMutability": "view",
      "type": "function"
    },
    {
      "constant": true,
      "inputs": [
        {
          "name": "index",
          "type": "uint256"
        }
      ],
      "name": "validatorAddressFromCurrentSet",
      "outputs": [
        {
          "name": "",
          "type": "address"
        }
      ],
      "payable": false,
      "stateMutability": "view",
      "type": "function"
    },
    {
      "constant": true,
      "inputs": [],
      "name": "numberValidatorsInCurrentSet",
      "outputs": [
        {
          "name": "",
          "type": "uint256"
        }
      ],
      "payable": false,
      "stateMutability": "view",
      "type": "function"
    },
    {
      "constant": false,
      "inputs": [
        {
          "name": "sender",
          "type": "address"
        },
        {
          "name": "blsKey",
          "type": "bytes"
        },
        {
          "name": "blsPop",
          "type": "bytes"
        }
      ],
      "name": "checkProofOfPossession",
      "outputs": [
        {
          "name": "",
          "type": "bool"
        }
      ],
      "payable": false,
      "stateMutability": "nonpayable",
      "type": "function"
    }
  ],
  "bytecode": "0x608060405234801561001057600080fd5b50610677806100206000396000f3fe608060405234801561001057600080fd5b50600436106100625760003560e01c806311fb9e841461006757806323f0ab65146100d557806387ee8a0f1461025f5780639a7b3be71461027d578063df4da4611461029b578063ec683072146102b9575b600080fd5b6100936004803603602081101561007d57600080fd5b8101908080359060200190929190505050610334565b604051808273ffffffffffffffffffffffffffffffffffffffff1673ffffffffffffffffffffffffffffffffffffffff16815260200191505060405180910390f35b610245600480360360608110156100eb57600080fd5b81019080803573ffffffffffffffffffffffffffffffffffffffff1690602001909291908035906020019064010000000081111561012857600080fd5b82018360208201111561013a57600080fd5b8035906020019184600183028401116401000000008311171561015c57600080fd5b91908080601f016020809104026020016040519081016040528093929190818152602001838380828437600081840152601f19601f820116905080830192505050505050509192919290803590602001906401000000008111156101bf57600080fd5b8201836020820111156101d157600080fd5b803590602001918460018302840111640100000000831117156101f357600080fd5b91908080601f016020809104026020016040519081016040528093929190818152602001838380828437600081840152601f19601f820116905080830192505050505050509192919290505050610364565b604051808215151515815260200191505060405180910390f35b610267610524565b6040518082815260200191505060405180910390f35b610285610549565b6040518082815260200191505060405180910390f35b6102a3610585565b6040518082815260200191505060405180910390f35b610317600480360360c08110156102cf57600080fd5b810190808035906020019092919080359060200190929190803590602001909291908035906020019092919080359060200190929190803590602001909291905050506105b0565b604051808381526020018281526020019250505060405180910390f35b60008060405183815260008060208360fa611388fa60206000604084013e60408201519250505080915050919050565b60008060fb73ffffffffffffffffffffffffffffffffffffffff1660005a90878787604051602001808473ffffffffffffffffffffffffffffffffffffffff1673ffffffffffffffffffffffffffffffffffffffff1660601b815260140183805190602001908083835b602083106103f157805182526020820191506020810190506020830392506103ce565b6001836020036101000a03801982511681845116808217855250505050505090500182805190602001908083835b60208310610442578051825260208201915060208101905060208303925061041f565b6001836020036101000a03801982511681845116808217855250505050505090500193505050506040516020818303038152906040526040518082805190602001908083835b602083106104ab5780518252602082019150602081019050602083039250610488565b6001836020036101000a038019825116818451168082178552505050505050905001915050600060405180830381858888f193505050503d806000811461050e576040519150601f19603f3d011682016040523d82523d6000602084013e610513565b606091505b505080915050809150509392505050565b60008060008060008060f9611388fa60405160206000823e8051925050508091505090565b600080610554610585565b9050600081438161056157fe5b049050600082438161056f57fe5b06141561057d576001810390505b809250505090565b60008060405160008060008360f86103e8fa60206000602084013e6020820151925050508091505090565b600080600087141580156105c5575060008514155b6105ce57600080fd5b6000806040513681016040528a81528960208201528860408201528760608201528660808201528560a082015260008060c48360fc61041afa3d604051818101604052816000823e826000811461062f578151965060208201519550610633565b8282fd5b5050505050818193509350505096509694505050505056fea165627a7a72305820a26eaff86ed45d90a2922963ab28ed184aec81d3cf10e8386f8b010f6c24cc510029",
  "source": "pragma solidity ^0.5.3;\n\n// TODO(asa): Limit assembly usage by using X.staticcall instead.\ncontract UsingPrecompiles {\n  address constant PROOF_OF_POSSESSION = address(0xff - 4);\n\n  /**\n   * @notice calculate a * b^x for fractions a, b to `decimals` precision\n   * @param aNumerator Numerator of first fraction\n   * @param aDenominator Denominator of first fraction\n   * @param bNumerator Numerator of exponentiated fraction\n   * @param bDenominator Denominator of exponentiated fraction\n   * @param exponent exponent to raise b to\n   * @param _decimals precision\n   * @return numerator/denominator of the computed quantity (not reduced).\n   */\n  function fractionMulExp(\n    uint256 aNumerator,\n    uint256 aDenominator,\n    uint256 bNumerator,\n    uint256 bDenominator,\n    uint256 exponent,\n    uint256 _decimals\n  ) public view returns (uint256, uint256) {\n    require(aDenominator != 0 && bDenominator != 0);\n    uint256 returnNumerator;\n    uint256 returnDenominator;\n    // solhint-disable-next-line no-inline-assembly\n    assembly {\n      let newCallDataPosition := mload(0x40)\n      mstore(0x40, add(newCallDataPosition, calldatasize))\n      mstore(newCallDataPosition, aNumerator)\n      mstore(add(newCallDataPosition, 32), aDenominator)\n      mstore(add(newCallDataPosition, 64), bNumerator)\n      mstore(add(newCallDataPosition, 96), bDenominator)\n      mstore(add(newCallDataPosition, 128), exponent)\n      mstore(add(newCallDataPosition, 160), _decimals)\n      let success := staticcall(\n        1050, // estimated gas cost for this function\n        0xfc,\n        newCallDataPosition,\n        0xc4, // input size, 6 * 32 = 192 bytes\n        0,\n        0\n      )\n\n      let returnDataSize := returndatasize\n      let returnDataPosition := mload(0x40)\n      mstore(0x40, add(returnDataPosition, returnDataSize))\n      returndatacopy(returnDataPosition, 0, returnDataSize)\n\n      switch success\n        case 0 {\n          revert(returnDataPosition, returnDataSize)\n        }\n        default {\n          returnNumerator := mload(returnDataPosition)\n          returnDenominator := mload(add(returnDataPosition, 32))\n        }\n    }\n    return (returnNumerator, returnDenominator);\n  }\n\n  /**\n   * @notice Returns the current epoch size in blocks.\n   * @return The current epoch size in blocks.\n   */\n  function getEpochSize() public view returns (uint256) {\n    uint256 ret;\n    // solhint-disable-next-line no-inline-assembly\n    assembly {\n      let newCallDataPosition := mload(0x40)\n      let success := staticcall(1000, 0xf8, newCallDataPosition, 0, 0, 0)\n\n      returndatacopy(add(newCallDataPosition, 32), 0, 32)\n      ret := mload(add(newCallDataPosition, 32))\n    }\n    return ret;\n  }\n\n  function getEpochNumber() public view returns (uint256) {\n    uint256 epochSize = getEpochSize();\n    uint256 epochNumber = block.number / epochSize;\n    if (block.number % epochSize == 0) {\n      epochNumber = epochNumber - 1;\n    }\n    return epochNumber;\n  }\n\n  /**\n   * @notice Gets a validator address from the current validator set.\n   * @param index Index of requested validator in the validator set as sorted by the election.\n   * @return Address of validator at the requested index.\n   */\n  function validatorAddressFromCurrentSet(uint256 index) public view returns (address) {\n    address validatorAddress;\n    assembly {\n      let newCallDataPosition := mload(0x40)\n      mstore(newCallDataPosition, index)\n      let success := staticcall(5000, 0xfa, newCallDataPosition, 32, 0, 0)\n      returndatacopy(add(newCallDataPosition, 64), 0, 32)\n      validatorAddress := mload(add(newCallDataPosition, 64))\n    }\n\n    return validatorAddress;\n  }\n\n  /**\n   * @notice Gets the size of the current elected validator set.\n   * @return Size of the current elected validator set.\n   */\n  function numberValidatorsInCurrentSet() public view returns (uint256) {\n    uint256 numberValidators;\n    assembly {\n      let success := staticcall(5000, 0xf9, 0, 0, 0, 0)\n      let returnData := mload(0x40)\n      returndatacopy(returnData, 0, 32)\n      numberValidators := mload(returnData)\n    }\n\n    return numberValidators;\n  }\n\n  /**\n   * @notice Checks a BLS proof of possession.\n   * @param sender The address signed by the BLS key to generate the proof of possession.\n   * @param blsKey The BLS public key that the validator is using for consensus, should pass proof\n   *   of possession. 48 bytes.\n   * @param blsPop The BLS public key proof-of-possession, which consists of a signature on the\n   *   account address. 96 bytes.\n   * @return True upon success.\n   */\n  function checkProofOfPossession(address sender, bytes memory blsKey, bytes memory blsPop)\n    public\n    returns (bool)\n  {\n    bool success;\n    (success, ) = PROOF_OF_POSSESSION.call.value(0).gas(gasleft())(\n      abi.encodePacked(sender, blsKey, blsPop)\n    );\n    return success;\n  }\n}\n",
  "sourcePath": "/Users/cmcewen/celo/celo-monorepo/packages/protocol/contracts/common/UsingPrecompiles.sol",
  "compiler": {
    "name": "solc",
    "version": "0.5.8+commit.23d335f2.Emscripten.clang"
  },
  "schemaVersion": "3.0.10",
  "updatedAt": "2019-12-06T00:01:35.288Z",
  "devdoc": {
    "methods": {
      "checkProofOfPossession(address,bytes,bytes)": {
        "params": {
          "blsKey": "The BLS public key that the validator is using for consensus, should pass proof  of possession. 48 bytes.",
          "blsPop": "The BLS public key proof-of-possession, which consists of a signature on the  account address. 96 bytes.",
          "sender": "The address signed by the BLS key to generate the proof of possession."
        },
        "return": "True upon success."
      },
      "fractionMulExp(uint256,uint256,uint256,uint256,uint256,uint256)": {
        "params": {
          "_decimals": "precision",
          "aDenominator": "Denominator of first fraction",
          "aNumerator": "Numerator of first fraction",
          "bDenominator": "Denominator of exponentiated fraction",
          "bNumerator": "Numerator of exponentiated fraction",
          "exponent": "exponent to raise b to"
        },
        "return": "numerator/denominator of the computed quantity (not reduced)."
      },
      "getEpochSize()": {
        "return": "The current epoch size in blocks."
      },
      "numberValidatorsInCurrentSet()": {
        "return": "Size of the current elected validator set."
      },
      "validatorAddressFromCurrentSet(uint256)": {
        "params": {
          "index": "Index of requested validator in the validator set as sorted by the election."
        },
        "return": "Address of validator at the requested index."
      }
    }
  },
  "userdoc": {
    "methods": {
      "checkProofOfPossession(address,bytes,bytes)": {
        "notice": "Checks a BLS proof of possession."
      },
      "fractionMulExp(uint256,uint256,uint256,uint256,uint256,uint256)": {
        "notice": "calculate a * b^x for fractions a, b to `decimals` precision"
      },
      "getEpochSize()": {
        "notice": "Returns the current epoch size in blocks."
      },
      "numberValidatorsInCurrentSet()": {
        "notice": "Gets the size of the current elected validator set."
      },
      "validatorAddressFromCurrentSet(uint256)": {
        "notice": "Gets a validator address from the current validator set."
      }
    }
  }
}