{
  "contractName": "ValidatorsTest",
  "abi": [
    {
      "constant": false,
      "inputs": [
        {
          "name": "validator",
          "type": "address"
        }
      ],
      "name": "removeMember",
      "outputs": [
        {
          "name": "",
          "type": "bool"
        }
      ],
      "payable": false,
      "stateMutability": "nonpayable",
      "type": "function"
    },
    {
      "constant": true,
      "inputs": [
        {
          "name": "account",
          "type": "address"
        }
      ],
      "name": "getMembershipInLastEpoch",
      "outputs": [
        {
          "name": "",
          "type": "address"
        }
      ],
      "payable": false,
      "stateMutability": "view",
      "type": "function"
    },
    {
      "constant": true,
      "inputs": [
        {
          "name": "index",
          "type": "uint256"
        }
      ],
      "name": "validatorAddressFromCurrentSet",
      "outputs": [
        {
          "name": "",
          "type": "address"
        }
      ],
      "payable": false,
      "stateMutability": "view",
      "type": "function"
    },
    {
      "constant": true,
      "inputs": [],
      "name": "initialized",
      "outputs": [
        {
          "name": "",
          "type": "bool"
        }
      ],
      "payable": false,
      "stateMutability": "view",
      "type": "function"
    },
    {
      "constant": true,
      "inputs": [
        {
          "name": "account",
          "type": "address"
        }
      ],
      "name": "getValidator",
      "outputs": [
        {
          "name": "ecdsaPublicKey",
          "type": "bytes"
        },
        {
          "name": "blsPublicKey",
          "type": "bytes"
        },
        {
          "name": "affiliation",
          "type": "address"
        },
        {
          "name": "score",
          "type": "uint256"
        },
        {
          "name": "signer",
          "type": "address"
        }
      ],
      "payable": false,
      "stateMutability": "view",
      "type": "function"
    },
    {
      "constant": true,
      "inputs": [],
      "name": "getValidatorScoreParameters",
      "outputs": [
        {
          "name": "",
          "type": "uint256"
        },
        {
          "name": "",
          "type": "uint256"
        }
      ],
      "payable": false,
      "stateMutability": "view",
      "type": "function"
    },
    {
      "constant": false,
      "inputs": [
        {
          "name": "sender",
          "type": "address"
        },
        {
          "name": "blsKey",
          "type": "bytes"
        },
        {
          "name": "blsPop",
          "type": "bytes"
        }
      ],
      "name": "checkProofOfPossession",
      "outputs": [
        {
          "name": "",
          "type": "bool"
        }
      ],
      "payable": false,
      "stateMutability": "nonpayable",
      "type": "function"
    },
    {
      "constant": false,
      "inputs": [
        {
          "name": "validator",
          "type": "address"
        },
        {
          "name": "lesser",
          "type": "address"
        },
        {
          "name": "greater",
          "type": "address"
        }
      ],
      "name": "addFirstMember",
      "outputs": [
        {
          "name": "",
          "type": "bool"
        }
      ],
      "payable": false,
      "stateMutability": "nonpayable",
      "type": "function"
    },
    {
      "constant": true,
      "inputs": [
        {
          "name": "account",
          "type": "address"
        }
      ],
      "name": "getMembershipHistory",
      "outputs": [
        {
          "name": "",
          "type": "uint256[]"
        },
        {
          "name": "",
          "type": "address[]"
        },
        {
          "name": "",
          "type": "uint256"
        }
      ],
      "payable": false,
      "stateMutability": "view",
      "type": "function"
    },
    {
      "constant": true,
      "inputs": [
        {
          "name": "account",
          "type": "address"
        }
      ],
      "name": "getGroupNumMembers",
      "outputs": [
        {
          "name": "",
          "type": "uint256"
        }
      ],
      "payable": false,
      "stateMutability": "view",
      "type": "function"
    },
    {
      "constant": true,
      "inputs": [],
      "name": "getRegisteredValidatorGroups",
      "outputs": [
        {
          "name": "",
          "type": "address[]"
        }
      ],
      "payable": false,
      "stateMutability": "view",
      "type": "function"
    },
    {
      "constant": true,
      "inputs": [],
      "name": "getMaxGroupSize",
      "outputs": [
        {
          "name": "",
          "type": "uint256"
        }
      ],
      "payable": false,
      "stateMutability": "view",
      "type": "function"
    },
    {
      "constant": true,
      "inputs": [],
      "name": "membershipHistoryLength",
      "outputs": [
        {
          "name": "",
          "type": "uint256"
        }
      ],
      "payable": false,
      "stateMutability": "view",
      "type": "function"
    },
    {
      "constant": false,
      "inputs": [
        {
          "name": "account",
          "type": "address"
        },
        {
          "name": "signer",
          "type": "address"
        },
        {
          "name": "ecdsaPublicKey",
          "type": "bytes"
        }
      ],
      "name": "updateEcdsaPublicKey",
      "outputs": [
        {
          "name": "",
          "type": "bool"
        }
      ],
      "payable": false,
      "stateMutability": "nonpayable",
      "type": "function"
    },
    {
      "constant": true,
      "inputs": [],
      "name": "getNumRegisteredValidators",
      "outputs": [
        {
          "name": "",
          "type": "uint256"
        }
      ],
      "payable": false,
      "stateMutability": "view",
      "type": "function"
    },
    {
      "constant": true,
      "inputs": [
        {
          "name": "signer",
          "type": "address"
        }
      ],
      "name": "getMembershipInLastEpochFromSigner",
      "outputs": [
        {
          "name": "",
          "type": "address"
        }
      ],
      "payable": false,
      "stateMutability": "view",
      "type": "function"
    },
    {
      "constant": true,
      "inputs": [
        {
          "name": "account",
          "type": "address"
        }
      ],
      "name": "isValidatorGroup",
      "outputs": [
        {
          "name": "",
          "type": "bool"
        }
      ],
      "payable": false,
      "stateMutability": "view",
      "type": "function"
    },
    {
      "constant": true,
      "inputs": [],
      "name": "maxGroupSize",
      "outputs": [
        {
          "name": "",
          "type": "uint256"
        }
      ],
      "payable": false,
      "stateMutability": "view",
      "type": "function"
    },
    {
      "constant": false,
      "inputs": [
        {
          "name": "value",
          "type": "uint256"
        },
        {
          "name": "duration",
          "type": "uint256"
        }
      ],
      "name": "setGroupLockedGoldRequirements",
      "outputs": [
        {
          "name": "",
          "type": "bool"
        }
      ],
      "payable": false,
      "stateMutability": "nonpayable",
      "type": "function"
    },
    {
      "constant": false,
      "inputs": [
        {
          "name": "index",
          "type": "uint256"
        }
      ],
      "name": "deregisterValidatorGroup",
      "outputs": [
        {
          "name": "",
          "type": "bool"
        }
      ],
      "payable": false,
      "stateMutability": "nonpayable",
      "type": "function"
    },
    {
      "constant": true,
      "inputs": [],
      "name": "getGroupLockedGoldRequirements",
      "outputs": [
        {
          "name": "",
          "type": "uint256"
        },
        {
          "name": "",
          "type": "uint256"
        }
      ],
      "payable": false,
      "stateMutability": "view",
      "type": "function"
    },
    {
      "constant": true,
      "inputs": [
        {
          "name": "accounts",
          "type": "address[]"
        }
      ],
      "name": "getGroupsNumMembers",
      "outputs": [
        {
          "name": "",
          "type": "uint256[]"
        }
      ],
      "payable": false,
      "stateMutability": "view",
      "type": "function"
    },
    {
      "constant": false,
      "inputs": [],
      "name": "renounceOwnership",
      "outputs": [],
      "payable": false,
      "stateMutability": "nonpayable",
      "type": "function"
    },
    {
      "constant": false,
      "inputs": [
        {
          "name": "value",
          "type": "uint256"
        },
        {
          "name": "duration",
          "type": "uint256"
        }
      ],
      "name": "setValidatorLockedGoldRequirements",
      "outputs": [
        {
          "name": "",
          "type": "bool"
        }
      ],
      "payable": false,
      "stateMutability": "nonpayable",
      "type": "function"
    },
    {
      "constant": true,
      "inputs": [],
      "name": "registry",
      "outputs": [
        {
          "name": "",
          "type": "address"
        }
      ],
      "payable": false,
      "stateMutability": "view",
      "type": "function"
    },
    {
      "constant": true,
      "inputs": [],
      "name": "numberValidatorsInCurrentSet",
      "outputs": [
        {
          "name": "",
          "type": "uint256"
        }
      ],
      "payable": false,
      "stateMutability": "view",
      "type": "function"
    },
    {
      "constant": false,
      "inputs": [
        {
          "name": "index",
          "type": "uint256"
        }
      ],
      "name": "deregisterValidator",
      "outputs": [
        {
          "name": "",
          "type": "bool"
        }
      ],
      "payable": false,
      "stateMutability": "nonpayable",
      "type": "function"
    },
    {
      "constant": true,
      "inputs": [],
      "name": "owner",
      "outputs": [
        {
          "name": "",
          "type": "address"
        }
      ],
      "payable": false,
      "stateMutability": "view",
      "type": "function"
    },
    {
      "constant": true,
      "inputs": [
        {
          "name": "account",
          "type": "address"
        },
        {
          "name": "n",
          "type": "uint256"
        }
      ],
      "name": "getTopGroupValidators",
      "outputs": [
        {
          "name": "",
          "type": "address[]"
        }
      ],
      "payable": false,
      "stateMutability": "view",
      "type": "function"
    },
    {
      "constant": true,
      "inputs": [],
      "name": "isOwner",
      "outputs": [
        {
          "name": "",
          "type": "bool"
        }
      ],
      "payable": false,
      "stateMutability": "view",
      "type": "function"
    },
    {
      "constant": false,
      "inputs": [
        {
          "name": "validator",
          "type": "address"
        },
        {
          "name": "lesserMember",
          "type": "address"
        },
        {
          "name": "greaterMember",
          "type": "address"
        }
      ],
      "name": "reorderMember",
      "outputs": [
        {
          "name": "",
          "type": "bool"
        }
      ],
      "payable": false,
      "stateMutability": "nonpayable",
      "type": "function"
    },
    {
      "constant": true,
      "inputs": [],
      "name": "getEpochNumber",
      "outputs": [
        {
          "name": "",
          "type": "uint256"
        }
      ],
      "payable": false,
      "stateMutability": "view",
      "type": "function"
    },
    {
      "constant": true,
      "inputs": [
        {
          "name": "account",
          "type": "address"
        }
      ],
      "name": "getValidatorGroup",
      "outputs": [
        {
          "name": "",
          "type": "address[]"
        },
        {
          "name": "",
          "type": "uint256"
        },
        {
          "name": "",
          "type": "uint256[]"
        }
      ],
      "payable": false,
      "stateMutability": "view",
      "type": "function"
    },
    {
      "constant": false,
      "inputs": [
        {
          "name": "commission",
          "type": "uint256"
        }
      ],
      "name": "updateCommission",
      "outputs": [
        {
          "name": "",
          "type": "bool"
        }
      ],
      "payable": false,
      "stateMutability": "nonpayable",
      "type": "function"
    },
    {
      "constant": false,
      "inputs": [
        {
          "name": "registryAddress",
          "type": "address"
        }
      ],
      "name": "setRegistry",
      "outputs": [],
      "payable": false,
      "stateMutability": "nonpayable",
      "type": "function"
    },
    {
      "constant": false,
      "inputs": [
        {
          "name": "group",
          "type": "address"
        }
      ],
      "name": "affiliate",
      "outputs": [
        {
          "name": "",
          "type": "bool"
        }
      ],
      "payable": false,
      "stateMutability": "nonpayable",
      "type": "function"
    },
    {
      "constant": true,
      "inputs": [
        {
          "name": "signer",
          "type": "address"
        }
      ],
      "name": "getValidatorBlsPublicKeyFromSigner",
      "outputs": [
        {
          "name": "blsPublicKey",
          "type": "bytes"
        }
      ],
      "payable": false,
      "stateMutability": "view",
      "type": "function"
    },
    {
      "constant": true,
      "inputs": [],
      "name": "validatorLockedGoldRequirements",
      "outputs": [
        {
          "name": "value",
          "type": "uint256"
        },
        {
          "name": "duration",
          "type": "uint256"
        }
      ],
      "payable": false,
      "stateMutability": "view",
      "type": "function"
    },
    {
      "constant": false,
      "inputs": [
        {
          "name": "blsPublicKey",
          "type": "bytes"
        },
        {
          "name": "blsPop",
          "type": "bytes"
        }
      ],
      "name": "updateBlsPublicKey",
      "outputs": [
        {
          "name": "",
          "type": "bool"
        }
      ],
      "payable": false,
      "stateMutability": "nonpayable",
      "type": "function"
    },
    {
      "constant": true,
      "inputs": [],
      "name": "getValidatorLockedGoldRequirements",
      "outputs": [
        {
          "name": "",
          "type": "uint256"
        },
        {
          "name": "",
          "type": "uint256"
        }
      ],
      "payable": false,
      "stateMutability": "view",
      "type": "function"
    },
    {
      "constant": true,
      "inputs": [
        {
          "name": "account",
          "type": "address"
        }
      ],
      "name": "meetsAccountLockedGoldRequirements",
      "outputs": [
        {
          "name": "",
          "type": "bool"
        }
      ],
      "payable": false,
      "stateMutability": "view",
      "type": "function"
    },
    {
      "constant": true,
      "inputs": [],
      "name": "groupLockedGoldRequirements",
      "outputs": [
        {
          "name": "value",
          "type": "uint256"
        },
        {
          "name": "duration",
          "type": "uint256"
        }
      ],
      "payable": false,
      "stateMutability": "view",
      "type": "function"
    },
    {
      "constant": false,
      "inputs": [
        {
          "name": "validator",
          "type": "address"
        }
      ],
      "name": "addMember",
      "outputs": [
        {
          "name": "",
          "type": "bool"
        }
      ],
      "payable": false,
      "stateMutability": "nonpayable",
      "type": "function"
    },
    {
      "constant": false,
      "inputs": [
        {
          "name": "exponent",
          "type": "uint256"
        },
        {
          "name": "adjustmentSpeed",
          "type": "uint256"
        }
      ],
      "name": "setValidatorScoreParameters",
      "outputs": [
        {
          "name": "",
          "type": "bool"
        }
      ],
      "payable": false,
      "stateMutability": "nonpayable",
      "type": "function"
    },
    {
      "constant": false,
      "inputs": [
        {
          "name": "registryAddress",
          "type": "address"
        },
        {
          "name": "groupRequirementValue",
          "type": "uint256"
        },
        {
          "name": "groupRequirementDuration",
          "type": "uint256"
        },
        {
          "name": "validatorRequirementValue",
          "type": "uint256"
        },
        {
          "name": "validatorRequirementDuration",
          "type": "uint256"
        },
        {
          "name": "validatorScoreExponent",
          "type": "uint256"
        },
        {
          "name": "validatorScoreAdjustmentSpeed",
          "type": "uint256"
        },
        {
          "name": "_membershipHistoryLength",
          "type": "uint256"
        },
        {
          "name": "_maxGroupSize",
          "type": "uint256"
        }
      ],
      "name": "initialize",
      "outputs": [],
      "payable": false,
      "stateMutability": "nonpayable",
      "type": "function"
    },
    {
      "constant": true,
      "inputs": [],
      "name": "getRegisteredValidatorSigners",
      "outputs": [
        {
          "name": "",
          "type": "address[]"
        }
      ],
      "payable": false,
      "stateMutability": "view",
      "type": "function"
    },
    {
      "constant": true,
      "inputs": [],
      "name": "getRegisteredValidators",
      "outputs": [
        {
          "name": "",
          "type": "address[]"
        }
      ],
      "payable": false,
      "stateMutability": "view",
      "type": "function"
    },
    {
      "constant": true,
      "inputs": [
        {
          "name": "account",
          "type": "address"
        }
      ],
      "name": "getAccountLockedGoldRequirement",
      "outputs": [
        {
          "name": "",
          "type": "uint256"
        }
      ],
      "payable": false,
      "stateMutability": "view",
      "type": "function"
    },
    {
      "constant": true,
      "inputs": [],
      "name": "getEpochSize",
      "outputs": [
        {
          "name": "",
          "type": "uint256"
        }
      ],
      "payable": false,
      "stateMutability": "view",
      "type": "function"
    },
    {
      "constant": false,
      "inputs": [
        {
          "name": "size",
          "type": "uint256"
        }
      ],
      "name": "setMaxGroupSize",
      "outputs": [
        {
          "name": "",
          "type": "bool"
        }
      ],
      "payable": false,
      "stateMutability": "nonpayable",
      "type": "function"
    },
    {
      "constant": false,
      "inputs": [
        {
          "name": "ecdsaPublicKey",
          "type": "bytes"
        },
        {
          "name": "blsPublicKey",
          "type": "bytes"
        },
        {
          "name": "blsPop",
          "type": "bytes"
        }
      ],
      "name": "registerValidator",
      "outputs": [
        {
          "name": "",
          "type": "bool"
        }
      ],
      "payable": false,
      "stateMutability": "nonpayable",
      "type": "function"
    },
    {
      "constant": true,
      "inputs": [
        {
          "name": "aNumerator",
          "type": "uint256"
        },
        {
          "name": "aDenominator",
          "type": "uint256"
        },
        {
          "name": "bNumerator",
          "type": "uint256"
        },
        {
          "name": "bDenominator",
          "type": "uint256"
        },
        {
          "name": "exponent",
          "type": "uint256"
        },
        {
          "name": "_decimals",
          "type": "uint256"
        }
      ],
      "name": "fractionMulExp",
      "outputs": [
        {
          "name": "",
          "type": "uint256"
        },
        {
          "name": "",
          "type": "uint256"
        }
      ],
      "payable": false,
      "stateMutability": "view",
      "type": "function"
    },
    {
      "constant": false,
      "inputs": [
        {
          "name": "commission",
          "type": "uint256"
        }
      ],
      "name": "registerValidatorGroup",
      "outputs": [
        {
          "name": "",
          "type": "bool"
        }
      ],
      "payable": false,
      "stateMutability": "nonpayable",
      "type": "function"
    },
    {
      "constant": false,
      "inputs": [
        {
          "name": "length",
          "type": "uint256"
        }
      ],
      "name": "setMembershipHistoryLength",
      "outputs": [
        {
          "name": "",
          "type": "bool"
        }
      ],
      "payable": false,
      "stateMutability": "nonpayable",
      "type": "function"
    },
    {
      "constant": false,
      "inputs": [
        {
          "name": "newOwner",
          "type": "address"
        }
      ],
      "name": "transferOwnership",
      "outputs": [],
      "payable": false,
      "stateMutability": "nonpayable",
      "type": "function"
    },
    {
      "constant": true,
      "inputs": [
        {
          "name": "account",
          "type": "address"
        }
      ],
      "name": "isValidator",
      "outputs": [
        {
          "name": "",
          "type": "bool"
        }
      ],
      "payable": false,
      "stateMutability": "view",
      "type": "function"
    },
    {
      "constant": false,
      "inputs": [],
      "name": "deaffiliate",
      "outputs": [
        {
          "name": "",
          "type": "bool"
        }
      ],
      "payable": false,
      "stateMutability": "nonpayable",
      "type": "function"
    },
    {
      "anonymous": false,
      "inputs": [
        {
          "indexed": false,
          "name": "size",
          "type": "uint256"
        }
      ],
      "name": "MaxGroupSizeSet",
      "type": "event"
    },
    {
      "anonymous": false,
      "inputs": [
        {
          "indexed": false,
          "name": "value",
          "type": "uint256"
        }
      ],
      "name": "ValidatorEpochPaymentSet",
      "type": "event"
    },
    {
      "anonymous": false,
      "inputs": [
        {
          "indexed": false,
          "name": "exponent",
          "type": "uint256"
        },
        {
          "indexed": false,
          "name": "adjustmentSpeed",
          "type": "uint256"
        }
      ],
      "name": "ValidatorScoreParametersSet",
      "type": "event"
    },
    {
      "anonymous": false,
      "inputs": [
        {
          "indexed": false,
          "name": "value",
          "type": "uint256"
        },
        {
          "indexed": false,
          "name": "duration",
          "type": "uint256"
        }
      ],
      "name": "GroupLockedGoldRequirementsSet",
      "type": "event"
    },
    {
      "anonymous": false,
      "inputs": [
        {
          "indexed": false,
          "name": "value",
          "type": "uint256"
        },
        {
          "indexed": false,
          "name": "duration",
          "type": "uint256"
        }
      ],
      "name": "ValidatorLockedGoldRequirementsSet",
      "type": "event"
    },
    {
      "anonymous": false,
      "inputs": [
        {
          "indexed": false,
          "name": "length",
          "type": "uint256"
        }
      ],
      "name": "MembershipHistoryLengthSet",
      "type": "event"
    },
    {
      "anonymous": false,
      "inputs": [
        {
          "indexed": true,
          "name": "validator",
          "type": "address"
        },
        {
          "indexed": false,
          "name": "ecdsaPublicKey",
          "type": "bytes"
        },
        {
          "indexed": false,
          "name": "blsPublicKey",
          "type": "bytes"
        }
      ],
      "name": "ValidatorRegistered",
      "type": "event"
    },
    {
      "anonymous": false,
      "inputs": [
        {
          "indexed": true,
          "name": "validator",
          "type": "address"
        }
      ],
      "name": "ValidatorDeregistered",
      "type": "event"
    },
    {
      "anonymous": false,
      "inputs": [
        {
          "indexed": true,
          "name": "validator",
          "type": "address"
        },
        {
          "indexed": true,
          "name": "group",
          "type": "address"
        }
      ],
      "name": "ValidatorAffiliated",
      "type": "event"
    },
    {
      "anonymous": false,
      "inputs": [
        {
          "indexed": true,
          "name": "validator",
          "type": "address"
        },
        {
          "indexed": true,
          "name": "group",
          "type": "address"
        }
      ],
      "name": "ValidatorDeaffiliated",
      "type": "event"
    },
    {
      "anonymous": false,
      "inputs": [
        {
          "indexed": true,
          "name": "validator",
          "type": "address"
        },
        {
          "indexed": false,
          "name": "ecdsaPublicKey",
          "type": "bytes"
        }
      ],
      "name": "ValidatorEcdsaPublicKeyUpdated",
      "type": "event"
    },
    {
      "anonymous": false,
      "inputs": [
        {
          "indexed": true,
          "name": "validator",
          "type": "address"
        },
        {
          "indexed": false,
          "name": "blsPublicKey",
          "type": "bytes"
        }
      ],
      "name": "ValidatorBlsPublicKeyUpdated",
      "type": "event"
    },
    {
      "anonymous": false,
      "inputs": [
        {
          "indexed": true,
          "name": "group",
          "type": "address"
        },
        {
          "indexed": false,
          "name": "commission",
          "type": "uint256"
        }
      ],
      "name": "ValidatorGroupRegistered",
      "type": "event"
    },
    {
      "anonymous": false,
      "inputs": [
        {
          "indexed": true,
          "name": "group",
          "type": "address"
        }
      ],
      "name": "ValidatorGroupDeregistered",
      "type": "event"
    },
    {
      "anonymous": false,
      "inputs": [
        {
          "indexed": true,
          "name": "group",
          "type": "address"
        },
        {
          "indexed": true,
          "name": "validator",
          "type": "address"
        }
      ],
      "name": "ValidatorGroupMemberAdded",
      "type": "event"
    },
    {
      "anonymous": false,
      "inputs": [
        {
          "indexed": true,
          "name": "group",
          "type": "address"
        },
        {
          "indexed": true,
          "name": "validator",
          "type": "address"
        }
      ],
      "name": "ValidatorGroupMemberRemoved",
      "type": "event"
    },
    {
      "anonymous": false,
      "inputs": [
        {
          "indexed": true,
          "name": "group",
          "type": "address"
        },
        {
          "indexed": true,
          "name": "validator",
          "type": "address"
        }
      ],
      "name": "ValidatorGroupMemberReordered",
      "type": "event"
    },
    {
      "anonymous": false,
      "inputs": [
        {
          "indexed": true,
          "name": "group",
          "type": "address"
        },
        {
          "indexed": false,
          "name": "commission",
          "type": "uint256"
        }
      ],
      "name": "ValidatorGroupCommissionUpdated",
      "type": "event"
    },
    {
      "anonymous": false,
      "inputs": [
        {
          "indexed": true,
          "name": "registryAddress",
          "type": "address"
        }
      ],
      "name": "RegistrySet",
      "type": "event"
    },
    {
      "anonymous": false,
      "inputs": [
        {
          "indexed": true,
          "name": "previousOwner",
          "type": "address"
        },
        {
          "indexed": true,
          "name": "newOwner",
          "type": "address"
        }
      ],
      "name": "OwnershipTransferred",
      "type": "event"
    },
    {
      "constant": false,
      "inputs": [
        {
          "name": "signer",
          "type": "address"
        },
        {
          "name": "uptime",
          "type": "uint256"
        }
      ],
      "name": "updateValidatorScoreFromSigner",
      "outputs": [],
      "payable": false,
      "stateMutability": "nonpayable",
      "type": "function"
    },
    {
      "constant": false,
      "inputs": [
        {
          "name": "signer",
          "type": "address"
        },
        {
          "name": "maxPayment",
          "type": "uint256"
        }
      ],
      "name": "distributeEpochPaymentsFromSigner",
      "outputs": [
        {
          "name": "",
          "type": "uint256"
        }
      ],
      "payable": false,
      "stateMutability": "nonpayable",
      "type": "function"
    }
  ],
  "bytecode": "0x6080604052336000806101000a81548173ffffffffffffffffffffffffffffffffffffffff021916908373ffffffffffffffffffffffffffffffffffffffff1602179055506000809054906101000a900473ffffffffffffffffffffffffffffffffffffffff1673ffffffffffffffffffffffffffffffffffffffff16600073ffffffffffffffffffffffffffffffffffffffff167f8be0079c531659141344cd1fd0a4f28419497f9722a3daafe3b4186f6b6457e060405160405180910390a3600180819055506180f480620000d76000396000f3fe608060405234801561001057600080fd5b50600436106103995760003560e01c80638f32d59b116101e9578063cb8f98e01161010f578063e1497ff7116100ad578063eff2ea3f1161007c578063eff2ea3f14611ab4578063f2fde38b14611afa578063facd743b14611b3e578063fffdfccb14611b9a57610399565b8063e1497ff714611872578063ea684f77146118b8578063ec683072146119f3578063ee09831014611a6e57610399565b8063d69ef6cf116100e9578063d69ef6cf1461173b578063d93ab5ad1461179d578063dcff4cf6146117fc578063df4da4611461185457610399565b8063cb8f98e0146115f7578063d114e6fc14611647578063d55dcbcf146116dc57610399565b8063b730a29911610187578063c10c96ef11610156578063c10c96ef146114f5578063c54c1cd41461151a578063c580514014611576578063ca6d56dc1461159b57610399565b8063b730a299146112df578063bd9e9d941461139c578063bfdb7417146113c1578063c0c6ad6f146114a757610399565b80639b9d5161116101c35780639b9d5161146111115780639d55fba7146111f9578063a91ee0dc1461123f578063b591d3a51461128357610399565b80638f32d59b14611035578063988dcd1f146110575780639a7b3be7146110f357610399565b8063517f6d33116102ce578063704477541161026c57806387ee8a0f1161023b57806387ee8a0f14610ee45780638b16b1c614610f025780638da5cb5b14610f485780638dd31e3914610f9257610399565b80637044775414610d72578063715018a614610e4057806376c0a9ed14610e4a5780637b10399914610e9a57610399565b80635779e93d116102a85780635779e93d14610c995780635a61d15b14610cb757806360fb822c14610d075780636fa4764714610d4d57610399565b8063517f6d3314610b9b57806351b5222514610bb957806352f13a4e14610c3d57610399565b80633173b8db1161033b5780633f270898116103155780633f27089814610a2f57806343d9669914610a8e5780634cd76db414610aac5780634e06fd8a14610aca57610399565b80633173b8db1461085357806335244f51146108ef57806339e618e8146109d757610399565b8063158ef93e11610377578063158ef93e146104ec5780631904bb2e1461050e57806319113e3b146106a457806323f0ab65146106c957610399565b80630b1ca49a1461039e5780630d1312b8146103fa57806311fb9e841461047e575b600080fd5b6103e0600480360360208110156103b457600080fd5b81019080803573ffffffffffffffffffffffffffffffffffffffff169060200190929190505050611bbc565b604051808215151515815260200191505060405180910390f35b61043c6004803603602081101561041057600080fd5b81019080803573ffffffffffffffffffffffffffffffffffffffff169060200190929190505050611d45565b604051808273ffffffffffffffffffffffffffffffffffffffff1673ffffffffffffffffffffffffffffffffffffffff16815260200191505060405180910390f35b6104aa6004803603602081101561049457600080fd5b8101908080359060200190929190505050611e64565b604051808273ffffffffffffffffffffffffffffffffffffffff1673ffffffffffffffffffffffffffffffffffffffff16815260200191505060405180910390f35b6104f4611e94565b604051808215151515815260200191505060405180910390f35b6105506004803603602081101561052457600080fd5b81019080803573ffffffffffffffffffffffffffffffffffffffff169060200190929190505050611ea7565b6040518080602001806020018673ffffffffffffffffffffffffffffffffffffffff1673ffffffffffffffffffffffffffffffffffffffff1681526020018581526020018473ffffffffffffffffffffffffffffffffffffffff1673ffffffffffffffffffffffffffffffffffffffff168152602001838103835288818151815260200191508051906020019080838360005b838110156105fe5780820151818401526020810190506105e3565b50505050905090810190601f16801561062b5780820380516001836020036101000a031916815260200191505b50838103825287818151815260200191508051906020019080838360005b83811015610664578082015181840152602081019050610649565b50505050905090810190601f1680156106915780820380516001836020036101000a031916815260200191505b5097505050505050505060405180910390f35b6106ac612163565b604051808381526020018281526020019250505060405180910390f35b610839600480360360608110156106df57600080fd5b81019080803573ffffffffffffffffffffffffffffffffffffffff1690602001909291908035906020019064010000000081111561071c57600080fd5b82018360208201111561072e57600080fd5b8035906020019184600183028401116401000000008311171561075057600080fd5b91908080601f016020809104026020016040519081016040528093929190818152602001838380828437600081840152601f19601f820116905080830192505050505050509192919290803590602001906401000000008111156107b357600080fd5b8201836020820111156107c557600080fd5b803590602001918460018302840111640100000000831117156107e757600080fd5b91908080601f016020809104026020016040519081016040528093929190818152602001838380828437600081840152601f19601f820116905080830192505050505050509192919290505050612196565b604051808215151515815260200191505060405180910390f35b6108d56004803603606081101561086957600080fd5b81019080803573ffffffffffffffffffffffffffffffffffffffff169060200190929190803573ffffffffffffffffffffffffffffffffffffffff169060200190929190803573ffffffffffffffffffffffffffffffffffffffff169060200190929190505050612356565b604051808215151515815260200191505060405180910390f35b6109316004803603602081101561090557600080fd5b81019080803573ffffffffffffffffffffffffffffffffffffffff1690602001909291905050506124a9565b604051808060200180602001848152602001838103835286818151815260200191508051906020019060200280838360005b8381101561097e578082015181840152602081019050610963565b50505050905001838103825285818151815260200191508051906020019060200280838360005b838110156109c05780820151818401526020810190506109a5565b505050509050019550505050505060405180910390f35b610a19600480360360208110156109ed57600080fd5b81019080803573ffffffffffffffffffffffffffffffffffffffff169060200190929190505050612674565b6040518082815260200191505060405180910390f35b610a376126d5565b6040518080602001828103825283818151815260200191508051906020019060200280838360005b83811015610a7a578082015181840152602081019050610a5f565b505050509050019250505060405180910390f35b610a96612763565b6040518082815260200191505060405180910390f35b610ab461276d565b6040518082815260200191505060405180910390f35b610b8160048036036060811015610ae057600080fd5b81019080803573ffffffffffffffffffffffffffffffffffffffff169060200190929190803573ffffffffffffffffffffffffffffffffffffffff16906020019092919080359060200190640100000000811115610b3d57600080fd5b820183602082011115610b4f57600080fd5b80359060200191846001830284011164010000000083111715610b7157600080fd5b9091929391929390505050612773565b604051808215151515815260200191505060405180910390f35b610ba3612a3f565b6040518082815260200191505060405180910390f35b610bfb60048036036020811015610bcf57600080fd5b81019080803573ffffffffffffffffffffffffffffffffffffffff169060200190929190505050612a4c565b604051808273ffffffffffffffffffffffffffffffffffffffff1673ffffffffffffffffffffffffffffffffffffffff16815260200191505060405180910390f35b610c7f60048036036020811015610c5357600080fd5b81019080803573ffffffffffffffffffffffffffffffffffffffff169060200190929190505050612b33565b604051808215151515815260200191505060405180910390f35b610ca1612b8c565b6040518082815260200191505060405180910390f35b610ced60048036036040811015610ccd57600080fd5b810190808035906020019092919080359060200190929190505050612b92565b604051808215151515815260200191505060405180910390f35b610d3360048036036020811015610d1d57600080fd5b8101908080359060200190929190505050612c43565b604051808215151515815260200191505060405180910390f35b610d55612f0d565b604051808381526020018281526020019250505060405180910390f35b610de960048036036020811015610d8857600080fd5b8101908080359060200190640100000000811115610da557600080fd5b820183602082011115610db757600080fd5b80359060200191846020830284011164010000000083111715610dd957600080fd5b9091929391929390505050612f24565b6040518080602001828103825283818151815260200191508051906020019060200280838360005b83811015610e2c578082015181840152602081019050610e11565b505050509050019250505060405180910390f35b610e48612fdc565b005b610e8060048036036040811015610e6057600080fd5b8101908080359060200190929190803590602001909291905050506130ac565b604051808215151515815260200191505060405180910390f35b610ea261315d565b604051808273ffffffffffffffffffffffffffffffffffffffff1673ffffffffffffffffffffffffffffffffffffffff16815260200191505060405180910390f35b610eec613183565b6040518082815260200191505060405180910390f35b610f2e60048036036020811015610f1857600080fd5b81019080803590602001909291905050506131a8565b604051808215151515815260200191505060405180910390f35b610f506135b8565b604051808273ffffffffffffffffffffffffffffffffffffffff1673ffffffffffffffffffffffffffffffffffffffff16815260200191505060405180910390f35b610fde60048036036040811015610fa857600080fd5b81019080803573ffffffffffffffffffffffffffffffffffffffff169060200190929190803590602001909291905050506135e1565b6040518080602001828103825283818151815260200191508051906020019060200280838360005b83811015611021578082015181840152602081019050611006565b505050509050019250505060405180910390f35b61103d613892565b604051808215151515815260200191505060405180910390f35b6110d96004803603606081101561106d57600080fd5b81019080803573ffffffffffffffffffffffffffffffffffffffff169060200190929190803573ffffffffffffffffffffffffffffffffffffffff169060200190929190803573ffffffffffffffffffffffffffffffffffffffff1690602001909291905050506138e9565b604051808215151515815260200191505060405180910390f35b6110fb613c75565b6040518082815260200191505060405180910390f35b6111536004803603602081101561112757600080fd5b81019080803573ffffffffffffffffffffffffffffffffffffffff169060200190929190505050613cb1565b604051808060200184815260200180602001838103835286818151815260200191508051906020019060200280838360005b838110156111a0578082015181840152602081019050611185565b50505050905001838103825284818151815260200191508051906020019060200280838360005b838110156111e25780820151818401526020810190506111c7565b505050509050019550505050505060405180910390f35b6112256004803603602081101561120f57600080fd5b8101908080359060200190929190505050613e76565b604051808215151515815260200191505060405180910390f35b6112816004803603602081101561125557600080fd5b81019080803573ffffffffffffffffffffffffffffffffffffffff169060200190929190505050614100565b005b6112c56004803603602081101561129957600080fd5b81019080803573ffffffffffffffffffffffffffffffffffffffff169060200190929190505050614198565b604051808215151515815260200191505060405180910390f35b611321600480360360208110156112f557600080fd5b81019080803573ffffffffffffffffffffffffffffffffffffffff169060200190929190505050614419565b6040518080602001828103825283818151815260200191508051906020019080838360005b83811015611361578082015181840152602081019050611346565b50505050905090810190601f16801561138e5780820380516001836020036101000a031916815260200191505b509250505060405180910390f35b6113a46145d6565b604051808381526020018281526020019250505060405180910390f35b61148d600480360360408110156113d757600080fd5b81019080803590602001906401000000008111156113f457600080fd5b82018360208201111561140657600080fd5b8035906020019184600183028401116401000000008311171561142857600080fd5b90919293919293908035906020019064010000000081111561144957600080fd5b82018360208201111561145b57600080fd5b8035906020019184600183028401116401000000008311171561147d57600080fd5b90919293919293905050506145e8565b604051808215151515815260200191505060405180910390f35b6114f3600480360360408110156114bd57600080fd5b81019080803573ffffffffffffffffffffffffffffffffffffffff1690602001909291908035906020019092919050505061481e565b005b6114fd61482c565b604051808381526020018281526020019250505060405180910390f35b61155c6004803603602081101561153057600080fd5b81019080803573ffffffffffffffffffffffffffffffffffffffff169060200190929190505050614843565b604051808215151515815260200191505060405180910390f35b61157e61491b565b604051808381526020018281526020019250505060405180910390f35b6115dd600480360360208110156115b157600080fd5b81019080803573ffffffffffffffffffffffffffffffffffffffff16906020019092919050505061492d565b604051808215151515815260200191505060405180910390f35b61162d6004803603604081101561160d57600080fd5b810190808035906020019092919080359060200190929190505050614a7f565b604051808215151515815260200191505060405180910390f35b6116da600480360361012081101561165e57600080fd5b81019080803573ffffffffffffffffffffffffffffffffffffffff1690602001909291908035906020019092919080359060200190929190803590602001909291908035906020019092919080359060200190929190803590602001909291908035906020019092919080359060200190929190505050614b86565b005b6116e4614c0d565b6040518080602001828103825283818151815260200191508051906020019060200280838360005b8381101561172757808201518184015260208101905061170c565b505050509050019250505060405180910390f35b6117876004803603604081101561175157600080fd5b81019080803573ffffffffffffffffffffffffffffffffffffffff16906020019092919080359060200190929190505050614dbc565b6040518082815260200191505060405180910390f35b6117a5614dd0565b6040518080602001828103825283818151815260200191508051906020019060200280838360005b838110156117e85780820151818401526020810190506117cd565b505050509050019250505060405180910390f35b61183e6004803603602081101561181257600080fd5b81019080803573ffffffffffffffffffffffffffffffffffffffff169060200190929190505050614e5e565b6040518082815260200191505060405180910390f35b61185c614fe3565b6040518082815260200191505060405180910390f35b61189e6004803603602081101561188857600080fd5b810190808035906020019092919050505061500e565b604051808215151515815260200191505060405180910390f35b6119d9600480360360608110156118ce57600080fd5b81019080803590602001906401000000008111156118eb57600080fd5b8201836020820111156118fd57600080fd5b8035906020019184600183028401116401000000008311171561191f57600080fd5b90919293919293908035906020019064010000000081111561194057600080fd5b82018360208201111561195257600080fd5b8035906020019184600183028401116401000000008311171561197457600080fd5b90919293919293908035906020019064010000000081111561199557600080fd5b8201836020820111156119a757600080fd5b803590602001918460018302840111640100000000831117156119c957600080fd5b9091929391929390505050615083565b604051808215151515815260200191505060405180910390f35b611a51600480360360c0811015611a0957600080fd5b81019080803590602001909291908035906020019092919080359060200190929190803590602001909291908035906020019092919080359060200190929190505050615585565b604051808381526020018281526020019250505060405180910390f35b611a9a60048036036020811015611a8457600080fd5b8101908080359060200190929190505050615620565b604051808215151515815260200191505060405180910390f35b611ae060048036036020811015611aca57600080fd5b81019080803590602001909291905050506159a7565b604051808215151515815260200191505060405180910390f35b611b3c60048036036020811015611b1057600080fd5b81019080803573ffffffffffffffffffffffffffffffffffffffff169060200190929190505050615a1c565b005b611b8060048036036020811015611b5457600080fd5b81019080803573ffffffffffffffffffffffffffffffffffffffff169060200190929190505050615a39565b604051808215151515815260200191505060405180910390f35b611ba2615a9e565b604051808215151515815260200191505060405180910390f35b600060018060008282540192505081905550600060015490506000611bdf615c50565b73ffffffffffffffffffffffffffffffffffffffff166393c5c487336040518263ffffffff1660e01b8152600401808273ffffffffffffffffffffffffffffffffffffffff1673ffffffffffffffffffffffffffffffffffffffff16815260200191505060206040518083038186803b158015611c5b57600080fd5b505afa158015611c6f573d6000803e3d6000fd5b505050506040513d6020811015611c8557600080fd5b81019080805190602001909291905050509050611ca181612b33565b8015611cb25750611cb184615a39565b5b611d24576040517f08c379a000000000000000000000000000000000000000000000000000000000815260040180806020018281038252601a8152602001807f6973206e6f742067726f757020616e642076616c696461746f7200000000000081525060200191505060405180910390fd5b611d2e8185615d4b565b9250506001548114611d3f57600080fd5b50919050565b600080611d50613c75565b90506000600460008573ffffffffffffffffffffffffffffffffffffffff1673ffffffffffffffffffffffffffffffffffffffff1681526020019081526020016000206004019050600080826001015414611dd857611dd3611dc0600184600101546160d790919063ffffffff16565b83600001546160f790919063ffffffff16565b611ddb565b60005b905082826002016000838152602001908152602001600020600001541415611e21578160000154811115611e2057611e1d6001826160d790919063ffffffff16565b90505b5b81600201600082815260200190815260200160002060010160009054906101000a900473ffffffffffffffffffffffffffffffffffffffff169350505050919050565b60008060405183815260008060208360fa611388fa60206000604084013e60408201519250505080915050919050565b600260009054906101000a900460ff1681565b6060806000806000611eb886615a39565b611ec157600080fd5b6000600460008873ffffffffffffffffffffffffffffffffffffffff1673ffffffffffffffffffffffffffffffffffffffff168152602001908152602001600020905080600001600001816000016001018260020160009054906101000a900473ffffffffffffffffffffffffffffffffffffffff16611f5884600301604051806020016040529081600082015481525050616116565b611f60615c50565b73ffffffffffffffffffffffffffffffffffffffff16634ce38b5f8c6040518263ffffffff1660e01b8152600401808273ffffffffffffffffffffffffffffffffffffffff1673ffffffffffffffffffffffffffffffffffffffff16815260200191505060206040518083038186803b158015611fdc57600080fd5b505afa158015611ff0573d6000803e3d6000fd5b505050506040513d602081101561200657600080fd5b8101908080519060200190929190505050848054600181600116156101000203166002900480601f0160208091040260200160405190810160405280929190818152602001828054600181600116156101000203166002900480156120ac5780601f10612081576101008083540402835291602001916120ac565b820191906000526020600020905b81548152906001019060200180831161208f57829003601f168201915b50505050509450838054600181600116156101000203166002900480601f0160208091040260200160405190810160405280929190818152602001828054600181600116156101000203166002900480156121485780601f1061211d57610100808354040283529160200191612148565b820191906000526020600020905b81548152906001019060200180831161212b57829003601f168201915b50505050509350955095509550955095505091939590929450565b600080600b6000015461218e600b600101604051806020016040529081600082015481525050616116565b915091509091565b60008060fb73ffffffffffffffffffffffffffffffffffffffff1660005a90878787604051602001808473ffffffffffffffffffffffffffffffffffffffff1673ffffffffffffffffffffffffffffffffffffffff1660601b815260140183805190602001908083835b602083106122235780518252602082019150602081019050602083039250612200565b6001836020036101000a03801982511681845116808217855250505050505090500182805190602001908083835b602083106122745780518252602082019150602081019050602083039250612251565b6001836020036101000a03801982511681845116808217855250505050505090500193505050506040516020818303038152906040526040518082805190602001908083835b602083106122dd57805182526020820191506020810190506020830392506122ba565b6001836020036101000a038019825116818451168082178552505050505050905001915050600060405180830381858888f193505050503d8060008114612340576040519150601f19603f3d011682016040523d82523d6000602084013e612345565b606091505b505080915050809150509392505050565b600060018060008282540192505081905550600060015490506000612379615c50565b73ffffffffffffffffffffffffffffffffffffffff166393c5c487336040518263ffffffff1660e01b8152600401808273ffffffffffffffffffffffffffffffffffffffff1673ffffffffffffffffffffffffffffffffffffffff16815260200191505060206040518083038186803b1580156123f557600080fd5b505afa158015612409573d6000803e3d6000fd5b505050506040513d602081101561241f57600080fd5b810190808051906020019092919050505090506000600360008373ffffffffffffffffffffffffffffffffffffffff1673ffffffffffffffffffffffffffffffffffffffff168152602001908152602001600020600101600201541461248457600080fd5b61249081878787616124565b92505060015481146124a157600080fd5b509392505050565b606080600080600460008673ffffffffffffffffffffffffffffffffffffffff1673ffffffffffffffffffffffffffffffffffffffff1681526020019081526020016000206004019050606081600101546040519080825280602002602001820160405280156125285781602001602082028038833980820191505090505b509050606082600101546040519080825280602002602001820160405280156125605781602001602082028038833980820191505090505b50905060008090505b836001015481101561265c57600061258e8286600001546160f790919063ffffffff16565b9050846002016000828152602001908152602001600020600001548483815181106125b557fe5b60200260200101818152505084600201600082815260200190815260200160002060010160009054906101000a900473ffffffffffffffffffffffffffffffffffffffff1683838151811061260657fe5b602002602001019073ffffffffffffffffffffffffffffffffffffffff16908173ffffffffffffffffffffffffffffffffffffffff1681525050506126556001826160f790919063ffffffff16565b9050612569565b50818184600301549550955095505050509193909250565b600061267f82612b33565b61268857600080fd5b600360008373ffffffffffffffffffffffffffffffffffffffff1673ffffffffffffffffffffffffffffffffffffffff168152602001908152602001600020600101600201549050919050565b6060600580548060200260200160405190810160405280929190818152602001828054801561275957602002820191906000526020600020905b8160009054906101000a900473ffffffffffffffffffffffffffffffffffffffff1673ffffffffffffffffffffffffffffffffffffffff168152602001906001019080831161270f575b5050505050905090565b6000600e54905090565b600d5481565b600060405160200180807f4163636f756e74730000000000000000000000000000000000000000000000008152506008019050604051602081830303815290604052805190602001203373ffffffffffffffffffffffffffffffffffffffff16600260019054906101000a900473ffffffffffffffffffffffffffffffffffffffff1673ffffffffffffffffffffffffffffffffffffffff1663dcf0aaed836040518263ffffffff1660e01b81526004018082815260200191505060206040518083038186803b15801561284657600080fd5b505afa15801561285a573d6000803e3d6000fd5b505050506040513d602081101561287057600080fd5b810190808051906020019092919050505073ffffffffffffffffffffffffffffffffffffffff161461290a576040517f08c379a00000000000000000000000000000000000000000000000000000000081526004018080602001828103825260188152602001807f6f6e6c79207265676973746572656420636f6e7472616374000000000000000081525060200191505060405180910390fd5b61291386615a39565b61291c57600080fd5b6000600460008873ffffffffffffffffffffffffffffffffffffffff1673ffffffffffffffffffffffffffffffffffffffff16815260200190815260200160002090506129ae818787878080601f016020809104026020016040519081016040528093929190818152602001838380828437600081840152601f19601f820116905080830192505050505050506165f3565b6129b757600080fd5b8673ffffffffffffffffffffffffffffffffffffffff167f213377eec2c15b21fa7abcbb0cb87a67e893cdb94a2564aa4bb4d380869473c8868660405180806020018281038252848482818152602001925080828437600081840152601f19601f820116905080830192505050935050505060405180910390a2600192505050949350505050565b6000600680549050905090565b600080612a57615c50565b73ffffffffffffffffffffffffffffffffffffffff166393c5c487846040518263ffffffff1660e01b8152600401808273ffffffffffffffffffffffffffffffffffffffff1673ffffffffffffffffffffffffffffffffffffffff16815260200191505060206040518083038186803b158015612ad357600080fd5b505afa158015612ae7573d6000803e3d6000fd5b505050506040513d6020811015612afd57600080fd5b81019080805190602001909291905050509050612b1981615a39565b612b2257600080fd5b612b2b81611d45565b915050919050565b6000600360008373ffffffffffffffffffffffffffffffffffffffff1673ffffffffffffffffffffffffffffffffffffffff16815260200190815260200160002060000160009054906101000a900460ff169050919050565b600e5481565b6000612b9c613892565b612ba557600080fd5b600060099050806000015484141580612bc2575080600101548314155b612bcb57600080fd5b604051806040016040528085815260200184815250600960008201518160000155602082015181600101559050507f999f7ee1917e6d7ea08360edfe9250cda3eda859c38dcb71a92623665de64dd48484604051808381526020018281526020019250505060405180910390a1600191505092915050565b600060018060008282540192505081905550600060015490506000612c66615c50565b73ffffffffffffffffffffffffffffffffffffffff166393c5c487336040518263ffffffff1660e01b8152600401808273ffffffffffffffffffffffffffffffffffffffff1673ffffffffffffffffffffffffffffffffffffffff16815260200191505060206040518083038186803b158015612ce257600080fd5b505afa158015612cf6573d6000803e3d6000fd5b505050506040513d6020811015612d0c57600080fd5b81019080805190602001909291905050509050612d2881612b33565b8015612d7957506000600360008373ffffffffffffffffffffffffffffffffffffffff1673ffffffffffffffffffffffffffffffffffffffff16815260200190815260200160002060010160020154145b612d8257600080fd5b6000600360008373ffffffffffffffffffffffffffffffffffffffff1673ffffffffffffffffffffffffffffffffffffffff1681526020019081526020016000206006019050600181805490501115612e105742612e0560096001015483600181548110612dec57fe5b90600052602060002001546160f790919063ffffffff16565b10612e0f57600080fd5b5b600360008373ffffffffffffffffffffffffffffffffffffffff1673ffffffffffffffffffffffffffffffffffffffff168152602001908152602001600020600080820160006101000a81549060ff021916905560018201600080820160009055600182016000905560028201600090555050600582016000808201600090555050600682016000612ea29190617f56565b5050612eb0600583876166d5565b8173ffffffffffffffffffffffffffffffffffffffff167fae7e034b0748a10a219b46074b20977a9170bf4027b156c797093773619a866960405160405180910390a26001935050506001548114612f0757600080fd5b50919050565b600080600960000154600960010154915091509091565b60608083839050604051908082528060200260200182016040528015612f595781602001602082028038833980820191505090505b50905060008090505b84849050811015612fd157612f9e858583818110612f7c57fe5b9050602002013573ffffffffffffffffffffffffffffffffffffffff16612674565b828281518110612faa57fe5b602002602001018181525050612fca6001826160f790919063ffffffff16565b9050612f62565b508091505092915050565b612fe4613892565b612fed57600080fd5b600073ffffffffffffffffffffffffffffffffffffffff166000809054906101000a900473ffffffffffffffffffffffffffffffffffffffff1673ffffffffffffffffffffffffffffffffffffffff167f8be0079c531659141344cd1fd0a4f28419497f9722a3daafe3b4186f6b6457e060405160405180910390a360008060006101000a81548173ffffffffffffffffffffffffffffffffffffffff021916908373ffffffffffffffffffffffffffffffffffffffff160217905550565b60006130b6613892565b6130bf57600080fd5b6000600790508060000154841415806130dc575080600101548314155b6130e557600080fd5b604051806040016040528085815260200184815250600760008201518160000155602082015181600101559050507f62d947118dd4c1f5ece7f787a9cad4e1127d14d403b71133e95792b473bf83898484604051808381526020018281526020019250505060405180910390a1600191505092915050565b600260019054906101000a900473ffffffffffffffffffffffffffffffffffffffff1681565b60008060008060008060f9611388fa60405160206000823e8051925050508091505090565b6000600180600082825401925050819055506000600154905060006131cb615c50565b73ffffffffffffffffffffffffffffffffffffffff166393c5c487336040518263ffffffff1660e01b8152600401808273ffffffffffffffffffffffffffffffffffffffff1673ffffffffffffffffffffffffffffffffffffffff16815260200191505060206040518083038186803b15801561324757600080fd5b505afa15801561325b573d6000803e3d6000fd5b505050506040513d602081101561327157600080fd5b8101908080519060200190929190505050905061328d81615a39565b61329657600080fd5b6000600460008373ffffffffffffffffffffffffffffffffffffffff1673ffffffffffffffffffffffffffffffffffffffff1681526020019081526020016000209050600073ffffffffffffffffffffffffffffffffffffffff168160020160009054906101000a900473ffffffffffffffffffffffffffffffffffffffff1673ffffffffffffffffffffffffffffffffffffffff161461346157600360008260020160009054906101000a900473ffffffffffffffffffffffffffffffffffffffff1673ffffffffffffffffffffffffffffffffffffffff1673ffffffffffffffffffffffffffffffffffffffff16815260200190815260200160002060010173__AddressLinkedList_____________________63542424fb9091846040518363ffffffff1660e01b8152600401808381526020018273ffffffffffffffffffffffffffffffffffffffff1673ffffffffffffffffffffffffffffffffffffffff1681526020019250505060206040518083038186803b15801561341b57600080fd5b505af415801561342f573d6000803e3d6000fd5b505050506040513d602081101561344557600080fd5b81019080805190602001909291905050501561346057600080fd5b5b600061348260076001015483600401600301546160f790919063ffffffff16565b905042811061349057600080fd5b61349c600684886166d5565b600460008473ffffffffffffffffffffffffffffffffffffffff1673ffffffffffffffffffffffffffffffffffffffff1681526020019081526020016000206000808201600080820160006134f19190617f77565b6001820160006135019190617f77565b50506002820160006101000a81549073ffffffffffffffffffffffffffffffffffffffff02191690556003820160008082016000905550506004820160008082016000905560018201600090556003820160009055505050508273ffffffffffffffffffffffffffffffffffffffff167f51407fafe7ef9bec39c65a12a4885a274190991bf1e9057fcc384fc77ff1a7f060405160405180910390a26001945050505060015481146135b257600080fd5b50919050565b60008060009054906101000a900473ffffffffffffffffffffffffffffffffffffffff16905090565b606080600360008573ffffffffffffffffffffffffffffffffffffffff1673ffffffffffffffffffffffffffffffffffffffff16815260200190815260200160002060010173__AddressLinkedList_____________________63b1cfea439091856040518363ffffffff1660e01b8152600401808381526020018281526020019250505060006040518083038186803b15801561367e57600080fd5b505af4158015613692573d6000803e3d6000fd5b505050506040513d6000823e3d601f19601f8201168201806040525060208110156136bc57600080fd5b8101908080516401000000008111156136d457600080fd5b828101905060208101848111156136ea57600080fd5b815185602082028301116401000000008211171561370757600080fd5b505092919050505090506060836040519080825280602002602001820160405280156137425781602001602082028038833980820191505090505b50905060008090505b848110156138865761375b615c50565b73ffffffffffffffffffffffffffffffffffffffff16634ce38b5f84838151811061378257fe5b60200260200101516040518263ffffffff1660e01b8152600401808273ffffffffffffffffffffffffffffffffffffffff1673ffffffffffffffffffffffffffffffffffffffff16815260200191505060206040518083038186803b1580156137ea57600080fd5b505afa1580156137fe573d6000803e3d6000fd5b505050506040513d602081101561381457600080fd5b810190808051906020019092919050505082828151811061383157fe5b602002602001019073ffffffffffffffffffffffffffffffffffffffff16908173ffffffffffffffffffffffffffffffffffffffff168152505061387f6001826160f790919063ffffffff16565b905061374b565b50809250505092915050565b60008060009054906101000a900473ffffffffffffffffffffffffffffffffffffffff1673ffffffffffffffffffffffffffffffffffffffff163373ffffffffffffffffffffffffffffffffffffffff1614905090565b60006001806000828254019250508190555060006001549050600061390c615c50565b73ffffffffffffffffffffffffffffffffffffffff166393c5c487336040518263ffffffff1660e01b8152600401808273ffffffffffffffffffffffffffffffffffffffff1673ffffffffffffffffffffffffffffffffffffffff16815260200191505060206040518083038186803b15801561398857600080fd5b505afa15801561399c573d6000803e3d6000fd5b505050506040513d60208110156139b257600080fd5b810190808051906020019092919050505090506139ce81612b33565b80156139df57506139de86615a39565b5b6139e857600080fd5b6000600360008373ffffffffffffffffffffffffffffffffffffffff1673ffffffffffffffffffffffffffffffffffffffff16815260200190815260200160002090508060010173__AddressLinkedList_____________________63542424fb9091896040518363ffffffff1660e01b8152600401808381526020018273ffffffffffffffffffffffffffffffffffffffff1673ffffffffffffffffffffffffffffffffffffffff1681526020019250505060206040518083038186803b158015613ab357600080fd5b505af4158015613ac7573d6000803e3d6000fd5b505050506040513d6020811015613add57600080fd5b8101908080519060200190929190505050613af757600080fd5b8060010173__AddressLinkedList_____________________63b2f8fe9690918989896040518563ffffffff1660e01b8152600401808581526020018473ffffffffffffffffffffffffffffffffffffffff1673ffffffffffffffffffffffffffffffffffffffff1681526020018373ffffffffffffffffffffffffffffffffffffffff1673ffffffffffffffffffffffffffffffffffffffff1681526020018273ffffffffffffffffffffffffffffffffffffffff1673ffffffffffffffffffffffffffffffffffffffff16815260200194505050505060006040518083038186803b158015613be757600080fd5b505af4158015613bfb573d6000803e3d6000fd5b505050508673ffffffffffffffffffffffffffffffffffffffff168273ffffffffffffffffffffffffffffffffffffffff167f38819cc49a343985b478d72f531a35b15384c398dd80fd191a14662170f895c660405160405180910390a36001935050506001548114613c6d57600080fd5b509392505050565b600080613c80614fe3565b90506000814381613c8d57fe5b0490506000824381613c9b57fe5b061415613ca9576001810390505b809250505090565b606060006060613cc084612b33565b613cc957600080fd5b6000600360008673ffffffffffffffffffffffffffffffffffffffff1673ffffffffffffffffffffffffffffffffffffffff16815260200190815260200160002090508060010173__AddressLinkedList_____________________63fe3c7a8e90916040518263ffffffff1660e01b81526004018082815260200191505060006040518083038186803b158015613d6057600080fd5b505af4158015613d74573d6000803e3d6000fd5b505050506040513d6000823e3d601f19601f820116820180604052506020811015613d9e57600080fd5b810190808051640100000000811115613db657600080fd5b82810190506020810184811115613dcc57600080fd5b8151856020820283011164010000000082111715613de957600080fd5b5050929190505050613e1282600501604051806020016040529081600082015481525050616116565b8260060180805480602002602001604051908101604052809291908181526020018280548015613e6157602002820191906000526020600020905b815481526020019060010190808311613e4d575b50505050509050935093509350509193909250565b600080613e81615c50565b73ffffffffffffffffffffffffffffffffffffffff166393c5c487336040518263ffffffff1660e01b8152600401808273ffffffffffffffffffffffffffffffffffffffff1673ffffffffffffffffffffffffffffffffffffffff16815260200191505060206040518083038186803b158015613efd57600080fd5b505afa158015613f11573d6000803e3d6000fd5b505050506040513d6020811015613f2757600080fd5b81019080805190602001909291905050509050613f4381612b33565b613f4c57600080fd5b6000600360008373ffffffffffffffffffffffffffffffffffffffff1673ffffffffffffffffffffffffffffffffffffffff1681526020019081526020016000209050613f9f613f9a616846565b616116565b841115613ff7576040517f08c379a00000000000000000000000000000000000000000000000000000000081526004018080602001828103825260258152602001806180a46025913960400191505060405180910390fd5b61401881600501604051806020016040529081600082015481525050616116565b84141561408d576040517f08c379a000000000000000000000000000000000000000000000000000000000815260040180806020018281038252601c8152602001807f436f6d6d697373696f6e206d75737420626520646966666572656e740000000081525060200191505060405180910390fd5b6140968461686c565b81600501600082015181600001559050508173ffffffffffffffffffffffffffffffffffffffff167f815d292dbc1a08dfb3103aabb6611233dd2393903e57bdf4c5b3db91198a826c856040518082815260200191505060405180910390a2600192505050919050565b614108613892565b61411157600080fd5b80600260016101000a81548173ffffffffffffffffffffffffffffffffffffffff021916908373ffffffffffffffffffffffffffffffffffffffff1602179055508073ffffffffffffffffffffffffffffffffffffffff167f27fe5f0c1c3b1ed427cc63d0f05759ffdecf9aec9e18d31ef366fc8a6cb5dc3b60405160405180910390a250565b6000600180600082825401925050819055506000600154905060006141bb615c50565b73ffffffffffffffffffffffffffffffffffffffff166393c5c487336040518263ffffffff1660e01b8152600401808273ffffffffffffffffffffffffffffffffffffffff1673ffffffffffffffffffffffffffffffffffffffff16815260200191505060206040518083038186803b15801561423757600080fd5b505afa15801561424b573d6000803e3d6000fd5b505050506040513d602081101561426157600080fd5b8101908080519060200190929190505050905061427d81615a39565b801561428e575061428d84612b33565b5b61429757600080fd5b6142a081614843565b6142a957600080fd5b6142b284614843565b6142bb57600080fd5b6000600460008373ffffffffffffffffffffffffffffffffffffffff1673ffffffffffffffffffffffffffffffffffffffff1681526020019081526020016000209050600073ffffffffffffffffffffffffffffffffffffffff168160020160009054906101000a900473ffffffffffffffffffffffffffffffffffffffff1673ffffffffffffffffffffffffffffffffffffffff161461436257614360818361688a565b505b848160020160006101000a81548173ffffffffffffffffffffffffffffffffffffffff021916908373ffffffffffffffffffffffffffffffffffffffff1602179055508473ffffffffffffffffffffffffffffffffffffffff168273ffffffffffffffffffffffffffffffffffffffff167f91ef92227057e201e406c3451698dd780fe7672ad74328591c88d281af31581d60405160405180910390a3600193505050600154811461441357600080fd5b50919050565b60606000614425615c50565b73ffffffffffffffffffffffffffffffffffffffff166393c5c487846040518263ffffffff1660e01b8152600401808273ffffffffffffffffffffffffffffffffffffffff1673ffffffffffffffffffffffffffffffffffffffff16815260200191505060206040518083038186803b1580156144a157600080fd5b505afa1580156144b5573d6000803e3d6000fd5b505050506040513d60208110156144cb57600080fd5b810190808051906020019092919050505090506144e781615a39565b6144f057600080fd5b600460008273ffffffffffffffffffffffffffffffffffffffff1673ffffffffffffffffffffffffffffffffffffffff1681526020019081526020016000206000016001018054600181600116156101000203166002900480601f0160208091040260200160405190810160405280929190818152602001828054600181600116156101000203166002900480156145c95780601f1061459e576101008083540402835291602001916145c9565b820191906000526020600020905b8154815290600101906020018083116145ac57829003601f168201915b5050505050915050919050565b60078060000154908060010154905082565b6000806145f3615c50565b73ffffffffffffffffffffffffffffffffffffffff166393c5c487336040518263ffffffff1660e01b8152600401808273ffffffffffffffffffffffffffffffffffffffff1673ffffffffffffffffffffffffffffffffffffffff16815260200191505060206040518083038186803b15801561466f57600080fd5b505afa158015614683573d6000803e3d6000fd5b505050506040513d602081101561469957600080fd5b810190808051906020019092919050505090506146b581615a39565b6146be57600080fd5b6000600460008373ffffffffffffffffffffffffffffffffffffffff1673ffffffffffffffffffffffffffffffffffffffff1681526020019081526020016000209050614795818389898080601f016020809104026020016040519081016040528093929190818152602001838380828437600081840152601f19601f8201169050808301925050505050505088888080601f016020809104026020016040519081016040528093929190818152602001838380828437600081840152601f19601f82011690508083019250505050505050616a75565b508173ffffffffffffffffffffffffffffffffffffffff167f36a1aabe506bbe8802233cbb9aad628e91269e77077c953f9db3e02d7092ee33888860405180806020018281038252848482818152602001925080828437600081840152601f19601f820116905080830192505050935050505060405180910390a2600192505050949350505050565b6148288282616acf565b5050565b600080600760000154600760010154915091509091565b60008061484e616da4565b73ffffffffffffffffffffffffffffffffffffffff166330ec70f5846040518263ffffffff1660e01b8152600401808273ffffffffffffffffffffffffffffffffffffffff1673ffffffffffffffffffffffffffffffffffffffff16815260200191505060206040518083038186803b1580156148ca57600080fd5b505afa1580156148de573d6000803e3d6000fd5b505050506040513d60208110156148f457600080fd5b8101908080519060200190929190505050905061491083614e5e565b811015915050919050565b60098060000154908060010154905082565b600060018060008282540192505081905550600060015490506000614950615c50565b73ffffffffffffffffffffffffffffffffffffffff166393c5c487336040518263ffffffff1660e01b8152600401808273ffffffffffffffffffffffffffffffffffffffff1673ffffffffffffffffffffffffffffffffffffffff16815260200191505060206040518083038186803b1580156149cc57600080fd5b505afa1580156149e0573d6000803e3d6000fd5b505050506040513d60208110156149f657600080fd5b810190808051906020019092919050505090506000600360008373ffffffffffffffffffffffffffffffffffffffff1673ffffffffffffffffffffffffffffffffffffffff1681526020019081526020016000206001016002015411614a5b57600080fd5b614a688185600080616124565b9250506001548114614a7957600080fd5b50919050565b6000614a89613892565b614a9257600080fd5b614aa2614a9d616846565b616116565b821115614aae57600080fd5b600b6000015483141580614af35750614af1600b600101604051806020016040529081600082015481525050614ae38461686c565b616e9f90919063ffffffff16565b155b614afc57600080fd5b6040518060400160405280848152602001614b168461686c565b815250600b600082015181600001556020820151816001016000820151816000015550509050507f4b48724280029c2ea7a445c9cea30838525342e7a9ea9468f630b52e75d6c5368383604051808381526020018281526020019250505060405180910390a16001905092915050565b600260009054906101000a900460ff1615614ba057600080fd5b6001600260006101000a81548160ff021916908315150217905550614bc433616eb4565b614bcd89614100565b614bd78888612b92565b50614be286866130ac565b50614bed8484614a7f565b50614bf78161500e565b50614c01826159a7565b50505050505050505050565b60606000614c19615c50565b90506060600680549050604051908082528060200260200182016040528015614c515781602001602082028038833980820191505090505b50905060008090505b8151811015614db3578273ffffffffffffffffffffffffffffffffffffffff16634ce38b5f60068381548110614c8c57fe5b9060005260206000200160009054906101000a900473ffffffffffffffffffffffffffffffffffffffff166040518263ffffffff1660e01b8152600401808273ffffffffffffffffffffffffffffffffffffffff1673ffffffffffffffffffffffffffffffffffffffff16815260200191505060206040518083038186803b158015614d1757600080fd5b505afa158015614d2b573d6000803e3d6000fd5b505050506040513d6020811015614d4157600080fd5b8101908080519060200190929190505050828281518110614d5e57fe5b602002602001019073ffffffffffffffffffffffffffffffffffffffff16908173ffffffffffffffffffffffffffffffffffffffff1681525050614dac6001826160f790919063ffffffff16565b9050614c5a565b50809250505090565b6000614dc88383616fac565b905092915050565b60606006805480602002602001604051908101604052809291908181526020018280548015614e5457602002820191906000526020600020905b8160009054906101000a900473ffffffffffffffffffffffffffffffffffffffff1673ffffffffffffffffffffffffffffffffffffffff1681526020019060010190808311614e0a575b5050505050905090565b6000614e6982615a39565b15614e7b576007600001549050614fde565b614e8482612b33565b15614fd9576000614edb6001600360008673ffffffffffffffffffffffffffffffffffffffff1673ffffffffffffffffffffffffffffffffffffffff16815260200190815260200160002060010160020154617373565b90506000600360008573ffffffffffffffffffffffffffffffffffffffff1673ffffffffffffffffffffffffffffffffffffffff1681526020019081526020016000206006019050600081805490501115614fb8576000614f4a600183805490506160d790919063ffffffff16565b90505b6000811115614fb65742614f85600960010154848481548110614f6c57fe5b90600052602060002001546160f790919063ffffffff16565b10614f9b57614f948184617373565b9250614fb6565b614faf6001826160d790919063ffffffff16565b9050614f4d565b505b614fd08260096000015461738d90919063ffffffff16565b92505050614fde565b600090505b919050565b60008060405160008060008360f86103e8fa60206000602084013e6020820151925050508091505090565b6000615018613892565b61502157600080fd5b8160001080156150335750600e548214155b61503c57600080fd5b81600e819055507f603fe12c33c253a23da1680aa453dc70c3a0ee07763569bd5f602406ebd4e5d5826040518082815260200191505060405180910390a160019050919050565b6000600180600082825401925050819055506000600154905060006150a6615c50565b73ffffffffffffffffffffffffffffffffffffffff166393c5c487336040518263ffffffff1660e01b8152600401808273ffffffffffffffffffffffffffffffffffffffff1673ffffffffffffffffffffffffffffffffffffffff16815260200191505060206040518083038186803b15801561512257600080fd5b505afa158015615136573d6000803e3d6000fd5b505050506040513d602081101561514c57600080fd5b8101908080519060200190929190505050905061516881615a39565b15801561517b575061517981612b33565b155b61518457600080fd5b600061518e616da4565b73ffffffffffffffffffffffffffffffffffffffff166330ec70f5836040518263ffffffff1660e01b8152600401808273ffffffffffffffffffffffffffffffffffffffff1673ffffffffffffffffffffffffffffffffffffffff16815260200191505060206040518083038186803b15801561520a57600080fd5b505afa15801561521e573d6000803e3d6000fd5b505050506040513d602081101561523457600080fd5b8101908080519060200190929190505050905060076000015481101561525957600080fd5b6000600460008473ffffffffffffffffffffffffffffffffffffffff1673ffffffffffffffffffffffffffffffffffffffff168152602001908152602001600020905060006152a6615c50565b73ffffffffffffffffffffffffffffffffffffffff16634ce38b5f856040518263ffffffff1660e01b8152600401808273ffffffffffffffffffffffffffffffffffffffff1673ffffffffffffffffffffffffffffffffffffffff16815260200191505060206040518083038186803b15801561532257600080fd5b505afa158015615336573d6000803e3d6000fd5b505050506040513d602081101561534c57600080fd5b810190808051906020019092919050505090506153ae82828e8e8080601f016020809104026020016040519081016040528093929190818152602001838380828437600081840152601f19601f820116905080830192505050505050506165f3565b5061544382858c8c8080601f016020809104026020016040519081016040528093929190818152602001838380828437600081840152601f19601f820116905080830192505050505050508b8b8080601f016020809104026020016040519081016040528093929190818152602001838380828437600081840152601f19601f82011690508083019250505050505050616a75565b5060068490806001815401808255809150509060018203906000526020600020016000909192909190916101000a81548173ffffffffffffffffffffffffffffffffffffffff021916908373ffffffffffffffffffffffffffffffffffffffff160217905550506154b58460006173c7565b508373ffffffffffffffffffffffffffffffffffffffff167f97d442eb14c205924bf6409929abb95411c07b91ec8354179251ab67b55a8e268d8d8d8d6040518080602001806020018381038352878782818152602001925080828437600081840152601f19601f8201169050808301925050508381038252858582818152602001925080828437600081840152601f19601f820116905080830192505050965050505050505060405180910390a26001955050505050600154811461557a57600080fd5b509695505050505050565b6000806000871415801561559a575060008514155b6155a357600080fd5b6000806040513681016040528a81528960208201528860408201528760608201528660808201528560a082015260008060c48360fc61041afa3d604051818101604052816000823e8260008114615604578151965060208201519550615608565b8282fd5b50505050508181935093505050965096945050505050565b60006001806000828254019250508190555060006001549050615649615644616846565b616116565b8311156156a1576040517f08c379a00000000000000000000000000000000000000000000000000000000081526004018080602001828103825260258152602001806180a46025913960400191505060405180910390fd5b60006156ab615c50565b73ffffffffffffffffffffffffffffffffffffffff166393c5c487336040518263ffffffff1660e01b8152600401808273ffffffffffffffffffffffffffffffffffffffff1673ffffffffffffffffffffffffffffffffffffffff16815260200191505060206040518083038186803b15801561572757600080fd5b505afa15801561573b573d6000803e3d6000fd5b505050506040513d602081101561575157600080fd5b8101908080519060200190929190505050905061576d81615a39565b158015615780575061577e81612b33565b155b61578957600080fd5b6000615793616da4565b73ffffffffffffffffffffffffffffffffffffffff166330ec70f5836040518263ffffffff1660e01b8152600401808273ffffffffffffffffffffffffffffffffffffffff1673ffffffffffffffffffffffffffffffffffffffff16815260200191505060206040518083038186803b15801561580f57600080fd5b505afa158015615823573d6000803e3d6000fd5b505050506040513d602081101561583957600080fd5b8101908080519060200190929190505050905060096000015481101561585e57600080fd5b6000600360008473ffffffffffffffffffffffffffffffffffffffff1673ffffffffffffffffffffffffffffffffffffffff168152602001908152602001600020905060018160000160006101000a81548160ff0219169083151502179055506158c78661686c565b816005016000820151816000015590505060058390806001815401808255809150509060018203906000526020600020016000909192909190916101000a81548173ffffffffffffffffffffffffffffffffffffffff021916908373ffffffffffffffffffffffffffffffffffffffff160217905550508273ffffffffffffffffffffffffffffffffffffffff167fbf4b45570f1907a94775f8449817051a492a676918e38108bb762e991e6b58dc876040518082815260200191505060405180910390a26001945050505060015481146159a157600080fd5b50919050565b60006159b1613892565b6159ba57600080fd5b8160001080156159cc5750600d548214155b6159d557600080fd5b81600d819055507f1c75c7fb3ee9d13d8394372d8c7cdf1702fa947faa03f6ccfa500f787b09b48a826040518082815260200191505060405180910390a160019050919050565b615a24613892565b615a2d57600080fd5b615a3681616eb4565b50565b600080600460008473ffffffffffffffffffffffffffffffffffffffff1673ffffffffffffffffffffffffffffffffffffffff168152602001908152602001600020600001600101805460018160011615610100020316600290049050119050919050565b600060018060008282540192505081905550600060015490506000615ac1615c50565b73ffffffffffffffffffffffffffffffffffffffff166393c5c487336040518263ffffffff1660e01b8152600401808273ffffffffffffffffffffffffffffffffffffffff1673ffffffffffffffffffffffffffffffffffffffff16815260200191505060206040518083038186803b158015615b3d57600080fd5b505afa158015615b51573d6000803e3d6000fd5b505050506040513d6020811015615b6757600080fd5b81019080805190602001909291905050509050615b8381615a39565b615b8c57600080fd5b6000600460008373ffffffffffffffffffffffffffffffffffffffff1673ffffffffffffffffffffffffffffffffffffffff1681526020019081526020016000209050600073ffffffffffffffffffffffffffffffffffffffff168160020160009054906101000a900473ffffffffffffffffffffffffffffffffffffffff1673ffffffffffffffffffffffffffffffffffffffff161415615c2d57600080fd5b615c37818361688a565b506001935050506001548114615c4c57600080fd5b5090565b6000600260019054906101000a900473ffffffffffffffffffffffffffffffffffffffff1673ffffffffffffffffffffffffffffffffffffffff1663dcf0aaed60405160200180807f4163636f756e74730000000000000000000000000000000000000000000000008152506008019050604051602081830303815290604052805190602001206040518263ffffffff1660e01b81526004018082815260200191505060206040518083038186803b158015615d0b57600080fd5b505afa158015615d1f573d6000803e3d6000fd5b505050506040513d6020811015615d3557600080fd5b8101908080519060200190929190505050905090565b600080600360008573ffffffffffffffffffffffffffffffffffffffff1673ffffffffffffffffffffffffffffffffffffffff16815260200190815260200160002090508373ffffffffffffffffffffffffffffffffffffffff16600460008573ffffffffffffffffffffffffffffffffffffffff1673ffffffffffffffffffffffffffffffffffffffff16815260200190815260200160002060020160009054906101000a900473ffffffffffffffffffffffffffffffffffffffff1673ffffffffffffffffffffffffffffffffffffffff16148015615eeb57508060010173__AddressLinkedList_____________________63542424fb9091856040518363ffffffff1660e01b8152600401808381526020018273ffffffffffffffffffffffffffffffffffffffff1673ffffffffffffffffffffffffffffffffffffffff1681526020019250505060206040518083038186803b158015615eaf57600080fd5b505af4158015615ec3573d6000803e3d6000fd5b505050506040513d6020811015615ed957600080fd5b81019080805190602001909291905050505b615ef457600080fd5b8060010173__AddressLinkedList_____________________63e2c0c56a9091856040518363ffffffff1660e01b8152600401808381526020018273ffffffffffffffffffffffffffffffffffffffff1673ffffffffffffffffffffffffffffffffffffffff1681526020019250505060006040518083038186803b158015615f7c57600080fd5b505af4158015615f90573d6000803e3d6000fd5b50505050600081600101600201549050600081141561604857615fb16177d8565b73ffffffffffffffffffffffffffffffffffffffff1663a8e45871866040518263ffffffff1660e01b8152600401808273ffffffffffffffffffffffffffffffffffffffff1673ffffffffffffffffffffffffffffffffffffffff168152602001915050600060405180830381600087803b15801561602f57600080fd5b505af1158015616043573d6000803e3d6000fd5b505050505b6160538460006173c7565b506160718561606c6001846160f790919063ffffffff16565b6178d3565b8373ffffffffffffffffffffffffffffffffffffffff168573ffffffffffffffffffffffffffffffffffffffff167fc7666a52a66ff601ff7c0d4d6efddc9ac20a34792f6aa003d1804c9d4d5baa5760405160405180910390a360019250505092915050565b6000828211156160e657600080fd5b600082840390508091505092915050565b60008082840190508381101561610c57600080fd5b8091505092915050565b600081600001519050919050565b600061612f85612b33565b8015616140575061613f84615a39565b5b61614957600080fd5b6000600360008773ffffffffffffffffffffffffffffffffffffffff1673ffffffffffffffffffffffffffffffffffffffff1681526020019081526020016000209050600e5481600101600201541061620a576040517f08c379a000000000000000000000000000000000000000000000000000000000815260040180806020018281038252601f8152602001807f67726f757020776f756c6420657863656564206d6178696d756d2073697a650081525060200191505060405180910390fd5b8573ffffffffffffffffffffffffffffffffffffffff16600460008773ffffffffffffffffffffffffffffffffffffffff1673ffffffffffffffffffffffffffffffffffffffff16815260200190815260200160002060020160009054906101000a900473ffffffffffffffffffffffffffffffffffffffff1673ffffffffffffffffffffffffffffffffffffffff1614801561636757508060010173__AddressLinkedList_____________________63542424fb9091876040518363ffffffff1660e01b8152600401808381526020018273ffffffffffffffffffffffffffffffffffffffff1673ffffffffffffffffffffffffffffffffffffffff1681526020019250505060206040518083038186803b15801561632a57600080fd5b505af415801561633e573d6000803e3d6000fd5b505050506040513d602081101561635457600080fd5b8101908080519060200190929190505050155b61637057600080fd5b600061638d600183600101600201546160f790919063ffffffff16565b905061639887614843565b6163a157600080fd5b6163aa86614843565b6163b357600080fd5b8160010173__AddressLinkedList_____________________6326afac499091886040518363ffffffff1660e01b8152600401808381526020018273ffffffffffffffffffffffffffffffffffffffff1673ffffffffffffffffffffffffffffffffffffffff1681526020019250505060006040518083038186803b15801561643b57600080fd5b505af415801561644f573d6000803e3d6000fd5b505050506001811415616563576164646177d8565b73ffffffffffffffffffffffffffffffffffffffff1663a18fb2db8887876040518463ffffffff1660e01b8152600401808473ffffffffffffffffffffffffffffffffffffffff1673ffffffffffffffffffffffffffffffffffffffff1681526020018373ffffffffffffffffffffffffffffffffffffffff1673ffffffffffffffffffffffffffffffffffffffff1681526020018273ffffffffffffffffffffffffffffffffffffffff1673ffffffffffffffffffffffffffffffffffffffff1681526020019350505050600060405180830381600087803b15801561654a57600080fd5b505af115801561655e573d6000803e3d6000fd5b505050505b61656d86886173c7565b5061658b876165866001846160d790919063ffffffff16565b6178d3565b8573ffffffffffffffffffffffffffffffffffffffff168773ffffffffffffffffffffffffffffffffffffffff167fbdf7e616a6943f81e07a7984c9d4c00197dc2f481486ce4ffa6af52a113974ad60405160405180910390a3600192505050949350505050565b6000604082511461660357600080fd5b8273ffffffffffffffffffffffffffffffffffffffff16828051906020012060001c73ffffffffffffffffffffffffffffffffffffffff16146166ae576040517f08c379a000000000000000000000000000000000000000000000000000000000815260040180806020018281038252601f8152602001807f4543445341206b657920646f6573206e6f74206d61746368207369676e65720081525060200191505060405180910390fd5b818460000160000190805190602001906166c9929190617fbf565b50600190509392505050565b82805490508110801561674957508173ffffffffffffffffffffffffffffffffffffffff1683828154811061670657fe5b9060005260206000200160009054906101000a900473ffffffffffffffffffffffffffffffffffffffff1673ffffffffffffffffffffffffffffffffffffffff16145b61675257600080fd5b600061676c600185805490506160d790919063ffffffff16565b905083818154811061677a57fe5b9060005260206000200160009054906101000a900473ffffffffffffffffffffffffffffffffffffffff168483815481106167b157fe5b9060005260206000200160006101000a81548173ffffffffffffffffffffffffffffffffffffffff021916908373ffffffffffffffffffffffffffffffffffffffff16021790555083818154811061680557fe5b9060005260206000200160006101000a81549073ffffffffffffffffffffffffffffffffffffffff021916905580848161683f919061803f565b5050505050565b61684e61806b565b604051806020016040528069d3c21bcecceda1000000815250905090565b61687461806b565b6040518060200160405280838152509050919050565b6000808360020160009054906101000a900473ffffffffffffffffffffffffffffffffffffffff1690506000600360008373ffffffffffffffffffffffffffffffffffffffff1673ffffffffffffffffffffffffffffffffffffffff16815260200190815260200160002090508060010173__AddressLinkedList_____________________63542424fb9091866040518363ffffffff1660e01b8152600401808381526020018273ffffffffffffffffffffffffffffffffffffffff1673ffffffffffffffffffffffffffffffffffffffff1681526020019250505060206040518083038186803b15801561697f57600080fd5b505af4158015616993573d6000803e3d6000fd5b505050506040513d60208110156169a957600080fd5b8101908080519060200190929190505050156169cb576169c98285615d4b565b505b60008560020160006101000a81548173ffffffffffffffffffffffffffffffffffffffff021916908373ffffffffffffffffffffffffffffffffffffffff1602179055508173ffffffffffffffffffffffffffffffffffffffff168473ffffffffffffffffffffffffffffffffffffffff167f71815121f0622b31a3e7270eb28acb9fd10825ff418c9a18591f617bb8a31a6c60405160405180910390a360019250505092915050565b60006060835114616a8557600080fd5b6030825114616a9357600080fd5b616a9e848484612196565b616aa757600080fd5b82856000016001019080519060200190616ac2929190617fbf565b5060019050949350505050565b6000616ad9615c50565b73ffffffffffffffffffffffffffffffffffffffff166393c5c487846040518263ffffffff1660e01b8152600401808273ffffffffffffffffffffffffffffffffffffffff1673ffffffffffffffffffffffffffffffffffffffff16815260200191505060206040518083038186803b158015616b5557600080fd5b505afa158015616b69573d6000803e3d6000fd5b505050506040513d6020811015616b7f57600080fd5b81019080805190602001909291905050509050616b9b81615a39565b616ba457600080fd5b616bb4616baf616846565b616116565b821115616bc057600080fd5b600080616c04616bd6616bd1616846565b616116565b616be6616be1616846565b616116565b86616bf7616bf2616846565b616116565b600b600001546012615585565b8092508193505050616c1461806b565b616c37616c208361686c565b616c298561686c565b6179fc90919063ffffffff16565b9050616c4161806b565b616c6d82600b600101604051806020016040529081600082015481525050617a7390919063ffffffff16565b9050616c7761806b565b616caa600b600101604051806020016040529081600082015481525050616c9c616846565b617cc590919063ffffffff16565b9050616d15600460008873ffffffffffffffffffffffffffffffffffffffff1673ffffffffffffffffffffffffffffffffffffffff16815260200190815260200160002060030160405180602001604052908160008201548152505082617a7390919063ffffffff16565b9050616d4b616d46616d2685616116565b616d41616d3c8587617d0390919063ffffffff16565b616116565b617d43565b61686c565b600460008873ffffffffffffffffffffffffffffffffffffffff1673ffffffffffffffffffffffffffffffffffffffff168152602001908152602001600020600301600082015181600001559050505050505050505050565b6000600260019054906101000a900473ffffffffffffffffffffffffffffffffffffffff1673ffffffffffffffffffffffffffffffffffffffff1663dcf0aaed60405160200180807f4c6f636b6564476f6c6400000000000000000000000000000000000000000000815250600a019050604051602081830303815290604052805190602001206040518263ffffffff1660e01b81526004018082815260200191505060206040518083038186803b158015616e5f57600080fd5b505afa158015616e73573d6000803e3d6000fd5b505050506040513d6020811015616e8957600080fd5b8101908080519060200190929190505050905090565b60008160000151836000015114905092915050565b600073ffffffffffffffffffffffffffffffffffffffff168173ffffffffffffffffffffffffffffffffffffffff161415616eee57600080fd5b8073ffffffffffffffffffffffffffffffffffffffff166000809054906101000a900473ffffffffffffffffffffffffffffffffffffffff1673ffffffffffffffffffffffffffffffffffffffff167f8be0079c531659141344cd1fd0a4f28419497f9722a3daafe3b4186f6b6457e060405160405180910390a3806000806101000a81548173ffffffffffffffffffffffffffffffffffffffff021916908373ffffffffffffffffffffffffffffffffffffffff16021790555050565b600080616fb7615c50565b73ffffffffffffffffffffffffffffffffffffffff166393c5c487856040518263ffffffff1660e01b8152600401808273ffffffffffffffffffffffffffffffffffffffff1673ffffffffffffffffffffffffffffffffffffffff16815260200191505060206040518083038186803b15801561703357600080fd5b505afa158015617047573d6000803e3d6000fd5b505050506040513d602081101561705d57600080fd5b8101908080519060200190929190505050905061707981615a39565b61708257600080fd5b600061708d82611d45565b905061709882614843565b80156170a957506170a881614843565b5b15617366576170b661806b565b617127600460008573ffffffffffffffffffffffffffffffffffffffff1673ffffffffffffffffffffffffffffffffffffffff16815260200190815260200160002060030160405180602001604052908160008201548152505061711987617d5c565b617a7390919063ffffffff16565b9050600061719c617197600360008673ffffffffffffffffffffffffffffffffffffffff1673ffffffffffffffffffffffffffffffffffffffff16815260200190815260200160002060050160405180602001604052908160008201548152505084617a7390919063ffffffff16565b617d9a565b905060006171bb826171ad85617d9a565b6160d790919063ffffffff16565b90506171c5617dbb565b73ffffffffffffffffffffffffffffffffffffffff166340c10f1985846040518363ffffffff1660e01b8152600401808373ffffffffffffffffffffffffffffffffffffffff1673ffffffffffffffffffffffffffffffffffffffff16815260200182815260200192505050602060405180830381600087803b15801561724b57600080fd5b505af115801561725f573d6000803e3d6000fd5b505050506040513d602081101561727557600080fd5b81019080805190602001909291905050505061728f617dbb565b73ffffffffffffffffffffffffffffffffffffffff166340c10f1986836040518363ffffffff1660e01b8152600401808373ffffffffffffffffffffffffffffffffffffffff1673ffffffffffffffffffffffffffffffffffffffff16815260200182815260200192505050602060405180830381600087803b15801561731557600080fd5b505af1158015617329573d6000803e3d6000fd5b505050506040513d602081101561733f57600080fd5b81019080805190602001909291905050505061735a83617d9a565b9550505050505061736d565b6000925050505b92915050565b6000818310156173835781617385565b825b905092915050565b6000808314156173a057600090506173c1565b60008284029050828482816173b157fe5b04146173bc57600080fd5b809150505b92915050565b600080600460008573ffffffffffffffffffffffffffffffffffffffff1673ffffffffffffffffffffffffffffffffffffffff16815260200190815260200160002060040190506000617418613c75565b905060008083600101541461745a57617455617442600185600101546160d790919063ffffffff16565b84600001546160f790919063ffffffff16565b61745d565b60005b90506000836001015411801561749f5750600073ffffffffffffffffffffffffffffffffffffffff168573ffffffffffffffffffffffffffffffffffffffff16145b156174ae574283600301819055505b8183600201600083815260200190815260200160002060000154141561756e5760405180604001604052808381526020018673ffffffffffffffffffffffffffffffffffffffff168152508360020160008381526020019081526020016000206000820151816000015560208201518160010160006101000a81548173ffffffffffffffffffffffffffffffffffffffff021916908373ffffffffffffffffffffffffffffffffffffffff160217905550905050600193505050506177d2565b6000808460010154146175945761758f6001836160f790919063ffffffff16565b617597565b60005b905060405180604001604052808481526020018773ffffffffffffffffffffffffffffffffffffffff168152508460020160008381526020019081526020016000206000820151816000015560208201518160010160006101000a81548173ffffffffffffffffffffffffffffffffffffffff021916908373ffffffffffffffffffffffffffffffffffffffff160217905550905050600d548460010154101561766057617653600185600101546160f790919063ffffffff16565b84600101819055506177c9565b600d54846001015414156176de57836002016000856000015481526020019081526020016000206000808201600090556001820160006101000a81549073ffffffffffffffffffffffffffffffffffffffff021916905550506176d1600185600001546160f790919063ffffffff16565b84600001819055506177c8565b836002016000856000015481526020019081526020016000206000808201600090556001820160006101000a81549073ffffffffffffffffffffffffffffffffffffffff02191690555050836002016000617747600187600001546160f790919063ffffffff16565b81526020019081526020016000206000808201600090556001820160006101000a81549073ffffffffffffffffffffffffffffffffffffffff0219169055505061779f600185600101546160d790919063ffffffff16565b84600101819055506177bf600285600001546160f790919063ffffffff16565b84600001819055505b5b60019450505050505b92915050565b6000600260019054906101000a900473ffffffffffffffffffffffffffffffffffffffff1673ffffffffffffffffffffffffffffffffffffffff1663dcf0aaed60405160200180807f456c656374696f6e0000000000000000000000000000000000000000000000008152506008019050604051602081830303815290604052805190602001206040518263ffffffff1660e01b81526004018082815260200191505060206040518083038186803b15801561789357600080fd5b505afa1580156178a7573d6000803e3d6000fd5b505050506040513d60208110156178bd57600080fd5b8101908080519060200190929190505050905090565b6000600360008473ffffffffffffffffffffffffffffffffffffffff1673ffffffffffffffffffffffffffffffffffffffff1681526020019081526020016000206006019050808054905082141561795557804290806001815401808255809150509060018203906000526020600020016000909192909190915055506179f7565b8080549050821015617981574281838154811061796e57fe5b90600052602060002001819055506179f6565b60006179f5576040517f08c379a000000000000000000000000000000000000000000000000000000000815260040180806020018281038252601d8152602001807f556e61626c6520746f207570646174652073697a6520686973746f727900000081525060200191505060405180910390fd5b5b5b505050565b617a0461806b565b600082600001511415617a1657600080fd5b600069d3c21bcecceda10000008460000151029050836000015169d3c21bcecceda10000008281617a4357fe5b0414617a4e57600080fd5b604051806020016040528084600001518381617a6657fe5b0481525091505092915050565b617a7b61806b565b600083600001511480617a92575060008260000151145b15617aae57604051806020016040528060008152509050617cbf565b69d3c21bcecceda100000082600001511415617acc57829050617cbf565b69d3c21bcecceda100000083600001511415617aea57819050617cbf565b600069d3c21bcecceda1000000617b0085617eb6565b6000015181617b0b57fe5b0490506000617b1985617eed565b600001519050600069d3c21bcecceda1000000617b3586617eb6565b6000015181617b4057fe5b0490506000617b4e86617eed565b6000015190506000828502905060008514617b795782858281617b6d57fe5b0414617b7857600080fd5b5b600069d3c21bcecceda10000008202905060008214617bb25769d3c21bcecceda1000000828281617ba657fe5b0414617bb157600080fd5b5b8091506000848602905060008614617bda5784868281617bce57fe5b0414617bd957600080fd5b5b6000848802905060008814617bff5784888281617bf357fe5b0414617bfe57600080fd5b5b617c07617f2a565b8781617c0f57fe5b049650617c1a617f2a565b8581617c2257fe5b0494506000858802905060008814617c4a5785888281617c3e57fe5b0414617c4957600080fd5b5b617c5261806b565b6040518060200160405280878152509050617c7b81604051806020016040528087815250617d03565b9050617c9581604051806020016040528086815250617d03565b9050617caf81604051806020016040528085815250617d03565b9050809a50505050505050505050505b92915050565b617ccd61806b565b816000015183600001511015617ce257600080fd5b60405180602001604052808360000151856000015103815250905092915050565b617d0b61806b565b6000826000015184600001510190508360000151811015617d2b57600080fd5b60405180602001604052808281525091505092915050565b6000818310617d525781617d54565b825b905092915050565b617d6461806b565b617d6c617f37565b821115617d7857600080fd5b604051806020016040528069d3c21bcecceda100000084028152509050919050565b600069d3c21bcecceda1000000826000015181617db357fe5b049050919050565b6000600260019054906101000a900473ffffffffffffffffffffffffffffffffffffffff1673ffffffffffffffffffffffffffffffffffffffff1663dcf0aaed60405160200180807f537461626c65546f6b656e000000000000000000000000000000000000000000815250600b019050604051602081830303815290604052805190602001206040518263ffffffff1660e01b81526004018082815260200191505060206040518083038186803b158015617e7657600080fd5b505afa158015617e8a573d6000803e3d6000fd5b505050506040513d6020811015617ea057600080fd5b8101908080519060200190929190505050905090565b617ebe61806b565b604051806020016040528069d3c21bcecceda100000080856000015181617ee157fe5b04028152509050919050565b617ef561806b565b604051806020016040528069d3c21bcecceda100000080856000015181617f1857fe5b04028460000151038152509050919050565b600064e8d4a51000905090565b60007601357c299a88ea76a58924d52ce4f26a85af186c2b9e74905090565b5080546000825590600052602060002090810190617f74919061807e565b50565b50805460018160011615610100020316600290046000825580601f10617f9d5750617fbc565b601f016020900490600052602060002090810190617fbb919061807e565b5b50565b828054600181600116156101000203166002900490600052602060002090601f016020900481019282601f1061800057805160ff191683800117855561802e565b8280016001018555821561802e579182015b8281111561802d578251825591602001919060010190618012565b5b50905061803b919061807e565b5090565b81548183558181111561806657818360005260206000209182019101618065919061807e565b5b505050565b6040518060200160405280600081525090565b6180a091905b8082111561809c576000816000905550600101618084565b5090565b9056fe436f6d6d697373696f6e2063616e27742062652067726561746572207468616e2031303025a165627a7a72305820931b7fd24694b3f1372e6f8dc75ed0854fac987fd7dbe52246870e37d6cbebd40029",
  "source": "pragma solidity ^0.5.8;\n\nimport \"../Validators.sol\";\nimport \"../../common/FixidityLib.sol\";\n\n/**\n * @title A wrapper around Validators that exposes onlyVm functions for testing.\n */\ncontract ValidatorsTest is Validators {\n  function updateValidatorScoreFromSigner(address signer, uint256 uptime) external {\n    return _updateValidatorScoreFromSigner(signer, uptime);\n  }\n\n  function distributeEpochPaymentsFromSigner(address signer, uint256 maxPayment)\n    external\n    returns (uint256)\n  {\n    return _distributeEpochPaymentsFromSigner(signer, maxPayment);\n  }\n}\n",
  "sourcePath": "/Users/cmcewen/celo/celo-monorepo/packages/protocol/contracts/governance/test/ValidatorsTest.sol",
  "compiler": {
    "name": "solc",
    "version": "0.5.8+commit.23d335f2.Emscripten.clang"
  },
  "schemaVersion": "3.0.10",
  "updatedAt": "2019-12-06T00:02:50.005Z",
  "devdoc": {
    "methods": {
      "addFirstMember(address,address,address)": {
        "details": "Fails if `validator` has not set their affiliation to this account.Fails if the group has > 0 members.",
        "params": {
          "greater": "The address of the group that has received more votes than this group.",
          "lesser": "The address of the group that has received fewer votes than this group.",
          "validator": "The validator to add to the group"
        },
        "return": "True upon success."
      },
      "addMember(address)": {
        "details": "Fails if `validator` has not set their affiliation to this account.Fails if the group has zero members.",
        "params": {
          "validator": "The validator to add to the group"
        },
        "return": "True upon success."
      },
      "affiliate(address)": {
        "details": "De-affiliates with the previously affiliated group if present.",
        "params": {
          "group": "The validator group with which to affiliate."
        },
        "return": "True upon success."
      },
      "checkProofOfPossession(address,bytes,bytes)": {
        "params": {
          "blsKey": "The BLS public key that the validator is using for consensus, should pass proof  of possession. 48 bytes.",
          "blsPop": "The BLS public key proof-of-possession, which consists of a signature on the  account address. 96 bytes.",
          "sender": "The address signed by the BLS key to generate the proof of possession."
        },
        "return": "True upon success."
      },
      "deaffiliate()": {
        "details": "Fails if the account is not a validator with non-zero affiliation.",
        "return": "True upon success."
      },
      "deregisterValidator(uint256)": {
        "details": "Fails if the account is not a validator.Fails if the validator has been a member of a group too recently.",
        "params": {
          "index": "The index of this validator in the list of all registered validators."
        },
        "return": "True upon success."
      },
      "deregisterValidatorGroup(uint256)": {
        "details": "Fails if the account is not a validator group with no members.Fails if the group has had members too recently.",
        "params": {
          "index": "The index of this validator group in the list of all validator groups."
        },
        "return": "True upon success."
      },
      "fractionMulExp(uint256,uint256,uint256,uint256,uint256,uint256)": {
        "params": {
          "_decimals": "precision",
          "aDenominator": "Denominator of first fraction",
          "aNumerator": "Numerator of first fraction",
          "bDenominator": "Denominator of exponentiated fraction",
          "bNumerator": "Numerator of exponentiated fraction",
          "exponent": "exponent to raise b to"
        },
        "return": "numerator/denominator of the computed quantity (not reduced)."
      },
      "getAccountLockedGoldRequirement(address)": {
        "params": {
          "account": "The account that may have to meet locked gold balance requirements."
        },
        "return": "The current locked gold balance requirement for the supplied account."
      },
      "getEpochSize()": {
        "return": "The current epoch size in blocks."
      },
      "getGroupLockedGoldRequirements()": {
        "return": "The Locked Gold requirements for validator groups."
      },
      "getGroupNumMembers(address)": {
        "params": {
          "account": "The address of the validator group."
        },
        "return": "The number of members in a validator group."
      },
      "getGroupsNumMembers(address[])": {
        "params": {
          "accounts": "The addresses of the validator groups."
        },
        "return": "The number of members in the provided validator groups."
      },
      "getMaxGroupSize()": {
        "return": "The maximum number of members a group can add."
      },
      "getMembershipHistory(address)": {
        "params": {
          "account": "The validator whose membership history to return."
        },
        "return": "The group membership history of a validator."
      },
      "getMembershipInLastEpoch(address)": {
        "params": {
          "account": "The account whose group membership should be returned."
        },
        "return": "The group that `account` was a member of at the end of the last epoch."
      },
      "getMembershipInLastEpochFromSigner(address)": {
        "params": {
          "signer": "The signer of the account whose group membership should be returned."
        },
        "return": "The group that `account` was a member of at the end of the last epoch."
      },
      "getNumRegisteredValidators()": {
        "return": "The number of registered validators."
      },
      "getRegisteredValidatorGroups()": {
        "return": "The list of registered validator group addresses."
      },
      "getRegisteredValidatorSigners()": {
        "return": "The list of signers for registered validator accounts."
      },
      "getRegisteredValidators()": {
        "return": "The list of registered validator accounts."
      },
      "getTopGroupValidators(address,uint256)": {
        "params": {
          "account": "The address of the validator group.",
          "n": "The number of members to return."
        },
        "return": "The top n group members for a particular group."
      },
      "getValidator(address)": {
        "params": {
          "account": "The account that registered the validator."
        },
        "return": "The unpacked validator struct."
      },
      "getValidatorBlsPublicKeyFromSigner(address)": {
        "params": {
          "signer": "The account that registered the validator or its authorized signing address."
        },
        "return": "The validator BLS key."
      },
      "getValidatorGroup(address)": {
        "params": {
          "account": "The account that registered the validator group."
        },
        "return": "The unpacked validator group struct."
      },
      "getValidatorLockedGoldRequirements()": {
        "return": "The Locked Gold requirements for validators."
      },
      "getValidatorScoreParameters()": {
        "return": "The parameters that goven how a validator's score is calculated."
      },
      "initialize(address,uint256,uint256,uint256,uint256,uint256,uint256,uint256,uint256)": {
        "details": "Should be called only once.",
        "params": {
          "_maxGroupSize": "The maximum group size.",
          "_membershipHistoryLength": "The max number of entries for validator membership history.",
          "groupRequirementDuration": "The Locked Gold requirement duration for groups.",
          "groupRequirementValue": "The Locked Gold requirement amount for groups.",
          "registryAddress": "The address of the registry contract.",
          "validatorRequirementDuration": "The Locked Gold requirement duration for validators.",
          "validatorRequirementValue": "The Locked Gold requirement amount for validators.",
          "validatorScoreAdjustmentSpeed": "The speed at which validator scores are adjusted.",
          "validatorScoreExponent": "The exponent used in calculating validator scores."
        }
      },
      "isOwner()": {
        "return": "true if `msg.sender` is the owner of the contract."
      },
      "isValidator(address)": {
        "params": {
          "account": "The account."
        },
        "return": "Whether a particular address is a registered validator."
      },
      "isValidatorGroup(address)": {
        "params": {
          "account": "The account."
        },
        "return": "Whether a particular address is a registered validator group."
      },
      "meetsAccountLockedGoldRequirements(address)": {
        "params": {
          "account": "The address of the account."
        },
        "return": "Whether or not an account meets its Locked Gold requirements."
      },
      "numberValidatorsInCurrentSet()": {
        "return": "Size of the current elected validator set."
      },
      "owner()": {
        "return": "the address of the owner."
      },
      "registerValidator(bytes,bytes,bytes)": {
        "details": "Fails if the account is already a validator or validator group.Fails if the account does not have sufficient Locked Gold.",
        "params": {
          "blsPop": "The BLS public key proof-of-possession, which consists of a signature on the  account address. 48 bytes.",
          "blsPublicKey": "The BLS public key that the validator is using for consensus, should pass  proof of possession. 96 bytes.",
          "ecdsaPublicKey": "The ECDSA public key that the validator is using for consensus, should  match the validator signer. 64 bytes."
        },
        "return": "True upon success."
      },
      "registerValidatorGroup(uint256)": {
        "details": "Fails if the account is already a validator or validator group.Fails if the account does not have sufficient weight.",
        "params": {
          "commission": "Fixidity representation of the commission this group receives on epoch  payments made to its members."
        },
        "return": "True upon success."
      },
      "removeMember(address)": {
        "details": "Fails if `validator` is not a member of the account's group.",
        "params": {
          "validator": "The validator to remove from the group"
        },
        "return": "True upon success."
      },
      "renounceOwnership()": {
        "details": "Allows the current owner to relinquish control of the contract. It will not be possible to call the functions with the `onlyOwner` modifier anymore."
      },
      "reorderMember(address,address,address)": {
        "details": "Fails if `validator` is not a member of the account's validator group.",
        "params": {
          "greaterMember": "The member who will be ahead of `validator`, or 0 if `validator` will be  the first member.",
          "lesserMember": "The member who will be behind `validator`, or 0 if `validator` will be the  last member.",
          "validator": "The validator to reorder."
        },
        "return": "True upon success."
      },
      "setGroupLockedGoldRequirements(uint256,uint256)": {
        "params": {
          "duration": "The time (in seconds) that these requirements persist for.",
          "value": "The per-member amount of Locked Gold required."
        },
        "return": "True upon success."
      },
      "setMaxGroupSize(uint256)": {
        "params": {
          "size": "The maximum group size."
        },
        "return": "True upon success."
      },
      "setMembershipHistoryLength(uint256)": {
        "params": {
          "length": "The number of validator group membership entries to store."
        },
        "return": "True upon success."
      },
      "setRegistry(address)": {
        "params": {
          "registryAddress": "The address of a registry contract for routing to other contracts."
        }
      },
      "setValidatorLockedGoldRequirements(uint256,uint256)": {
        "params": {
          "duration": "The time (in seconds) that these requirements persist for.",
          "value": "The amount of Locked Gold required."
        },
        "return": "True upon success."
      },
      "setValidatorScoreParameters(uint256,uint256)": {
        "params": {
          "adjustmentSpeed": "The speed at which the score is adjusted.",
          "exponent": "The exponent used in calculating the score."
        },
        "return": "True upon success."
      },
      "transferOwnership(address)": {
        "details": "Allows the current owner to transfer control of the contract to a newOwner.",
        "params": {
          "newOwner": "The address to transfer ownership to."
        }
      },
      "updateBlsPublicKey(bytes,bytes)": {
        "params": {
          "blsPop": "The BLS public key proof-of-possession, which consists of a signature on the  account address. 48 bytes.",
          "blsPublicKey": "The BLS public key that the validator is using for consensus, should pass  proof of possession. 48 bytes."
        },
        "return": "True upon success."
      },
      "updateCommission(uint256)": {
        "params": {
          "commission": "Fixidity representation of the commission this group receives on epoch  payments made to its members. Must be in the range [0, 1.0]."
        },
        "return": "True upon success."
      },
      "updateEcdsaPublicKey(address,address,bytes)": {
        "params": {
          "account": "The address under which the validator is registered.",
          "ecdsaPublicKey": "The ECDSA public key corresponding to `signer`.",
          "signer": "The address which the validator is using to sign consensus messages."
        },
        "return": "True upon success."
      },
      "validatorAddressFromCurrentSet(uint256)": {
        "params": {
          "index": "Index of requested validator in the validator set as sorted by the election."
        },
        "return": "Address of validator at the requested index."
      }
    },
    "title": "A wrapper around Validators that exposes onlyVm functions for testing."
  },
  "userdoc": {
    "methods": {
      "addFirstMember(address,address,address)": {
        "notice": "Adds the first member to a group's list of members and marks it eligible for election."
      },
      "addMember(address)": {
        "notice": "Adds a member to the end of a validator group's list of members."
      },
      "affiliate(address)": {
        "notice": "Affiliates a validator with a group, allowing it to be added as a member."
      },
      "checkProofOfPossession(address,bytes,bytes)": {
        "notice": "Checks a BLS proof of possession."
      },
      "deaffiliate()": {
        "notice": "De-affiliates a validator, removing it from the group for which it is a member."
      },
      "deregisterValidator(uint256)": {
        "notice": "De-registers a validator."
      },
      "deregisterValidatorGroup(uint256)": {
        "notice": "De-registers a validator group."
      },
      "fractionMulExp(uint256,uint256,uint256,uint256,uint256,uint256)": {
        "notice": "calculate a * b^x for fractions a, b to `decimals` precision"
      },
      "getAccountLockedGoldRequirement(address)": {
        "notice": "Returns the current locked gold balance requirement for the supplied account."
      },
      "getEpochSize()": {
        "notice": "Returns the current epoch size in blocks."
      },
      "getGroupLockedGoldRequirements()": {
        "notice": "Returns the Locked Gold requirements for validator groups."
      },
      "getGroupNumMembers(address)": {
        "notice": "Returns the number of members in a validator group."
      },
      "getGroupsNumMembers(address[])": {
        "notice": "Returns the number of members in the provided validator groups."
      },
      "getMaxGroupSize()": {
        "notice": "Returns the maximum number of members a group can add."
      },
      "getMembershipHistory(address)": {
        "notice": "Returns the group membership history of a validator."
      },
      "getMembershipInLastEpoch(address)": {
        "notice": "Returns the group that `account` was a member of at the end of the last epoch."
      },
      "getMembershipInLastEpochFromSigner(address)": {
        "notice": "Returns the group that `account` was a member of at the end of the last epoch."
      },
      "getNumRegisteredValidators()": {
        "notice": "Returns the number of registered validators."
      },
      "getRegisteredValidatorGroups()": {
        "notice": "Returns the list of registered validator group accounts."
      },
      "getRegisteredValidatorSigners()": {
        "notice": "Returns the list of signers for the registered validator accounts."
      },
      "getRegisteredValidators()": {
        "notice": "Returns the list of registered validator accounts."
      },
      "getTopGroupValidators(address,uint256)": {
        "notice": "Returns the top n group members for a particular group."
      },
      "getValidator(address)": {
        "notice": "Returns validator information."
      },
      "getValidatorBlsPublicKeyFromSigner(address)": {
        "notice": "Returns the validator BLS key."
      },
      "getValidatorGroup(address)": {
        "notice": "Returns validator group information."
      },
      "getValidatorLockedGoldRequirements()": {
        "notice": "Returns the Locked Gold requirements for validators."
      },
      "getValidatorScoreParameters()": {
        "notice": "Returns the parameters that goven how a validator's score is calculated."
      },
      "initialize(address,uint256,uint256,uint256,uint256,uint256,uint256,uint256,uint256)": {
        "notice": "Initializes critical variables."
      },
      "isValidator(address)": {
        "notice": "Returns whether a particular account has a registered validator."
      },
      "isValidatorGroup(address)": {
        "notice": "Returns whether a particular account has a registered validator group."
      },
      "meetsAccountLockedGoldRequirements(address)": {
        "notice": "Returns whether or not an account meets its Locked Gold requirements."
      },
      "numberValidatorsInCurrentSet()": {
        "notice": "Gets the size of the current elected validator set."
      },
      "registerValidator(bytes,bytes,bytes)": {
        "notice": "Registers a validator unaffiliated with any validator group."
      },
      "registerValidatorGroup(uint256)": {
        "notice": "Registers a validator group with no member validators."
      },
      "removeMember(address)": {
        "notice": "Removes a member from a validator group."
      },
      "renounceOwnership()": {
        "notice": "Renouncing ownership will leave the contract without an owner, thereby removing any functionality that is only available to the owner."
      },
      "reorderMember(address,address,address)": {
        "notice": "Reorders a member within a validator group."
      },
      "setGroupLockedGoldRequirements(uint256,uint256)": {
        "notice": "Updates the Locked Gold requirements for Validator Groups."
      },
      "setMaxGroupSize(uint256)": {
        "notice": "Updates the maximum number of members a group can have."
      },
      "setMembershipHistoryLength(uint256)": {
        "notice": "Updates the number of validator group membership entries to store."
      },
      "setRegistry(address)": {
        "notice": "Updates the address pointing to a Registry contract."
      },
      "setValidatorLockedGoldRequirements(uint256,uint256)": {
        "notice": "Updates the Locked Gold requirements for Validators."
      },
      "setValidatorScoreParameters(uint256,uint256)": {
        "notice": "Updates the validator score parameters."
      },
      "updateBlsPublicKey(bytes,bytes)": {
        "notice": "Updates a validator's BLS key."
      },
      "updateCommission(uint256)": {
        "notice": "Updates a validator group's commission."
      },
      "updateEcdsaPublicKey(address,address,bytes)": {
        "notice": "Updates a validator's ECDSA key."
      },
      "validatorAddressFromCurrentSet(uint256)": {
        "notice": "Gets a validator address from the current validator set."
      }
    }
  }
}